{
	"Competition/Auc.sol": {
		"Auc": {
			"abi": [
				{
					"inputs": [],
					"stateMutability": "nonpayable",
					"type": "constructor"
				},
				{
					"anonymous": false,
					"inputs": [
						{
							"indexed": true,
							"internalType": "address",
							"name": "_owner",
							"type": "address"
						},
						{
							"indexed": true,
							"internalType": "address",
							"name": "_operator",
							"type": "address"
						},
						{
							"indexed": false,
							"internalType": "bool",
							"name": "_approved",
							"type": "bool"
						}
					],
					"name": "ApprovalForAll",
					"type": "event"
				},
				{
					"anonymous": false,
					"inputs": [
						{
							"indexed": true,
							"internalType": "address",
							"name": "_operator",
							"type": "address"
						},
						{
							"indexed": true,
							"internalType": "address",
							"name": "_from",
							"type": "address"
						},
						{
							"indexed": true,
							"internalType": "address",
							"name": "_to",
							"type": "address"
						},
						{
							"indexed": false,
							"internalType": "uint256[]",
							"name": "_ids",
							"type": "uint256[]"
						},
						{
							"indexed": false,
							"internalType": "uint256[]",
							"name": "_values",
							"type": "uint256[]"
						}
					],
					"name": "TransferBatch",
					"type": "event"
				},
				{
					"anonymous": false,
					"inputs": [
						{
							"indexed": true,
							"internalType": "address",
							"name": "_operator",
							"type": "address"
						},
						{
							"indexed": true,
							"internalType": "address",
							"name": "_from",
							"type": "address"
						},
						{
							"indexed": true,
							"internalType": "address",
							"name": "_to",
							"type": "address"
						},
						{
							"indexed": false,
							"internalType": "uint256",
							"name": "_id",
							"type": "uint256"
						},
						{
							"indexed": false,
							"internalType": "uint256",
							"name": "_value",
							"type": "uint256"
						}
					],
					"name": "TransferSingle",
					"type": "event"
				},
				{
					"anonymous": false,
					"inputs": [
						{
							"indexed": false,
							"internalType": "string",
							"name": "_value",
							"type": "string"
						},
						{
							"indexed": true,
							"internalType": "uint256",
							"name": "_id",
							"type": "uint256"
						}
					],
					"name": "URI",
					"type": "event"
				},
				{
					"inputs": [
						{
							"internalType": "address",
							"name": "_auctionOwner",
							"type": "address"
						},
						{
							"internalType": "uint256",
							"name": "_ownerTokenId",
							"type": "uint256"
						}
					],
					"name": "_finishAuction",
					"outputs": [],
					"stateMutability": "payable",
					"type": "function"
				},
				{
					"inputs": [
						{
							"internalType": "address",
							"name": "_owner",
							"type": "address"
						},
						{
							"internalType": "uint256",
							"name": "_id",
							"type": "uint256"
						}
					],
					"name": "balanceOf",
					"outputs": [
						{
							"internalType": "uint256",
							"name": "",
							"type": "uint256"
						}
					],
					"stateMutability": "view",
					"type": "function"
				},
				{
					"inputs": [
						{
							"internalType": "address",
							"name": "_auctionOwner",
							"type": "address"
						},
						{
							"internalType": "uint256",
							"name": "_ownerTokenId",
							"type": "uint256"
						},
						{
							"internalType": "uint256",
							"name": "_value",
							"type": "uint256"
						}
					],
					"name": "bit",
					"outputs": [],
					"stateMutability": "nonpayable",
					"type": "function"
				},
				{
					"inputs": [
						{
							"internalType": "uint256",
							"name": "_userTokenId",
							"type": "uint256"
						}
					],
					"name": "finishAuction",
					"outputs": [],
					"stateMutability": "payable",
					"type": "function"
				},
				{
					"inputs": [
						{
							"internalType": "uint256",
							"name": "_userTokenId",
							"type": "uint256"
						}
					],
					"name": "interruptAuction",
					"outputs": [],
					"stateMutability": "payable",
					"type": "function"
				},
				{
					"inputs": [
						{
							"internalType": "address",
							"name": "",
							"type": "address"
						},
						{
							"internalType": "uint256",
							"name": "",
							"type": "uint256"
						}
					],
					"name": "lockedCash",
					"outputs": [
						{
							"internalType": "uint256",
							"name": "",
							"type": "uint256"
						}
					],
					"stateMutability": "view",
					"type": "function"
				},
				{
					"inputs": [
						{
							"internalType": "address",
							"name": "_from",
							"type": "address"
						},
						{
							"internalType": "address",
							"name": "_to",
							"type": "address"
						},
						{
							"internalType": "uint256",
							"name": "_id",
							"type": "uint256"
						},
						{
							"internalType": "uint256",
							"name": "_value",
							"type": "uint256"
						}
					],
					"name": "safeTransferFrom",
					"outputs": [],
					"stateMutability": "payable",
					"type": "function"
				},
				{
					"inputs": [
						{
							"internalType": "uint256",
							"name": "_userTokenId",
							"type": "uint256"
						},
						{
							"internalType": "uint256",
							"name": "_duration",
							"type": "uint256"
						},
						{
							"internalType": "uint256",
							"name": "_minPrice",
							"type": "uint256"
						},
						{
							"internalType": "uint256",
							"name": "_maxPrice",
							"type": "uint256"
						}
					],
					"name": "startAuction",
					"outputs": [],
					"stateMutability": "nonpayable",
					"type": "function"
				},
				{
					"inputs": [
						{
							"internalType": "address",
							"name": "",
							"type": "address"
						},
						{
							"internalType": "uint256",
							"name": "",
							"type": "uint256"
						}
					],
					"name": "usersAuctions",
					"outputs": [
						{
							"internalType": "uint256",
							"name": "tokenId",
							"type": "uint256"
						},
						{
							"internalType": "uint256",
							"name": "timeStarted",
							"type": "uint256"
						},
						{
							"internalType": "uint256",
							"name": "duration",
							"type": "uint256"
						},
						{
							"internalType": "uint256",
							"name": "price",
							"type": "uint256"
						},
						{
							"internalType": "uint256",
							"name": "minPrice",
							"type": "uint256"
						},
						{
							"internalType": "uint256",
							"name": "maxPrice",
							"type": "uint256"
						},
						{
							"internalType": "address",
							"name": "winner",
							"type": "address"
						},
						{
							"internalType": "address",
							"name": "owner",
							"type": "address"
						},
						{
							"internalType": "bool",
							"name": "lockedDuringAuction",
							"type": "bool"
						},
						{
							"internalType": "bool",
							"name": "finished",
							"type": "bool"
						},
						{
							"internalType": "bool",
							"name": "started",
							"type": "bool"
						},
						{
							"internalType": "uint256",
							"name": "timeFinished",
							"type": "uint256"
						}
					],
					"stateMutability": "view",
					"type": "function"
				},
				{
					"inputs": [
						{
							"internalType": "address",
							"name": "",
							"type": "address"
						},
						{
							"internalType": "uint256",
							"name": "",
							"type": "uint256"
						}
					],
					"name": "usersNFTs",
					"outputs": [
						{
							"internalType": "string",
							"name": "name",
							"type": "string"
						},
						{
							"internalType": "string",
							"name": "description",
							"type": "string"
						},
						{
							"internalType": "string",
							"name": "image",
							"type": "string"
						},
						{
							"internalType": "uint256",
							"name": "price",
							"type": "uint256"
						},
						{
							"internalType": "uint256",
							"name": "amountReleased",
							"type": "uint256"
						},
						{
							"internalType": "uint256",
							"name": "amountToSale",
							"type": "uint256"
						},
						{
							"internalType": "uint256",
							"name": "timeCreated",
							"type": "uint256"
						}
					],
					"stateMutability": "view",
					"type": "function"
				}
			],
			"devdoc": {
				"kind": "dev",
				"methods": {},
				"version": 1
			},
			"evm": {
				"assembly": "    /* \"Competition/Auc.sol\":118:4813  contract Auc is ERC1155 {... */\n  mstore(0x40, 0x80)\n    /* \"Competition/Auc.sol\":967:984  constructor() { } */\n  callvalue\n  dup1\n  iszero\n  tag_1\n  jumpi\n  0x00\n  dup1\n  revert\ntag_1:\n  pop\n    /* \"Competition/Auc.sol\":118:4813  contract Auc is ERC1155 {... */\n  dataSize(sub_0)\n  dup1\n  dataOffset(sub_0)\n  0x00\n  codecopy\n  0x00\n  return\nstop\n\nsub_0: assembly {\n        /* \"Competition/Auc.sol\":118:4813  contract Auc is ERC1155 {... */\n      mstore(0x40, 0x80)\n      jumpi(tag_1, lt(calldatasize, 0x04))\n      shr(0xe0, calldataload(0x00))\n      dup1\n      0x5a2b5eee\n      gt\n      tag_12\n      jumpi\n      dup1\n      0x5a2b5eee\n      eq\n      tag_7\n      jumpi\n      dup1\n      0x79f87cdf\n      eq\n      tag_8\n      jumpi\n      dup1\n      0x8d2c4488\n      eq\n      tag_9\n      jumpi\n      dup1\n      0xcf266ed0\n      eq\n      tag_10\n      jumpi\n      dup1\n      0xe2ad54c1\n      eq\n      tag_11\n      jumpi\n      jump(tag_1)\n    tag_12:\n      dup1\n      0xfdd58e\n      eq\n      tag_2\n      jumpi\n      dup1\n      0x08eb803d\n      eq\n      tag_3\n      jumpi\n      dup1\n      0x0febdd49\n      eq\n      tag_4\n      jumpi\n      dup1\n      0x3db9f55b\n      eq\n      tag_5\n      jumpi\n      dup1\n      0x4ad56cc1\n      eq\n      tag_6\n      jumpi\n    tag_1:\n      0x00\n      dup1\n      revert\n        /* \"Competition/Tokens/ERC1155.sol\":838:974  function balanceOf(address _owner, uint256 _id) override external view returns (uint256) {... */\n    tag_2:\n      callvalue\n      dup1\n      iszero\n      tag_13\n      jumpi\n      0x00\n      dup1\n      revert\n    tag_13:\n      pop\n      tag_14\n      0x04\n      dup1\n      calldatasize\n      sub\n      dup2\n      add\n      swap1\n      tag_15\n      swap2\n      swap1\n      tag_16\n      jump\t// in\n    tag_15:\n      tag_17\n      jump\t// in\n    tag_14:\n      mload(0x40)\n      tag_18\n      swap2\n      swap1\n      tag_19\n      jump\t// in\n    tag_18:\n      mload(0x40)\n      dup1\n      swap2\n      sub\n      swap1\n      return\n        /* \"Competition/Auc.sol\":763:822  mapping (address => mapping (uint => NFT)) public usersNFTs */\n    tag_3:\n      callvalue\n      dup1\n      iszero\n      tag_20\n      jumpi\n      0x00\n      dup1\n      revert\n    tag_20:\n      pop\n      tag_21\n      0x04\n      dup1\n      calldatasize\n      sub\n      dup2\n      add\n      swap1\n      tag_22\n      swap2\n      swap1\n      tag_16\n      jump\t// in\n    tag_22:\n      tag_23\n      jump\t// in\n    tag_21:\n      mload(0x40)\n      tag_24\n      swap8\n      swap7\n      swap6\n      swap5\n      swap4\n      swap3\n      swap2\n      swap1\n      tag_25\n      jump\t// in\n    tag_24:\n      mload(0x40)\n      dup1\n      swap2\n      sub\n      swap1\n      return\n        /* \"Competition/Tokens/ERC1155.sol\":220:664  function safeTransferFrom(address _from, address _to, uint256 _id, uint256 _value) override payable public  {... */\n    tag_4:\n      tag_26\n      0x04\n      dup1\n      calldatasize\n      sub\n      dup2\n      add\n      swap1\n      tag_27\n      swap2\n      swap1\n      tag_28\n      jump\t// in\n    tag_27:\n      tag_29\n      jump\t// in\n    tag_26:\n      stop\n        /* \"Competition/Auc.sol\":829:890  mapping (address => mapping (uint => uint)) public lockedCash */\n    tag_5:\n      callvalue\n      dup1\n      iszero\n      tag_30\n      jumpi\n      0x00\n      dup1\n      revert\n    tag_30:\n      pop\n      tag_31\n      0x04\n      dup1\n      calldatasize\n      sub\n      dup2\n      add\n      swap1\n      tag_32\n      swap2\n      swap1\n      tag_16\n      jump\t// in\n    tag_32:\n      tag_33\n      jump\t// in\n    tag_31:\n      mload(0x40)\n      tag_34\n      swap2\n      swap1\n      tag_19\n      jump\t// in\n    tag_34:\n      mload(0x40)\n      dup1\n      swap2\n      sub\n      swap1\n      return\n        /* \"Competition/Auc.sol\":2498:2855  function bit(address _auctionOwner, uint _ownerTokenId, uint _value) public {... */\n    tag_6:\n      callvalue\n      dup1\n      iszero\n      tag_35\n      jumpi\n      0x00\n      dup1\n      revert\n    tag_35:\n      pop\n      tag_36\n      0x04\n      dup1\n      calldatasize\n      sub\n      dup2\n      add\n      swap1\n      tag_37\n      swap2\n      swap1\n      tag_38\n      jump\t// in\n    tag_37:\n      tag_39\n      jump\t// in\n    tag_36:\n      stop\n        /* \"Competition/Auc.sol\":3535:4249  function _finishAuction(address _auctionOwner, uint _ownerTokenId) payable public  {... */\n    tag_7:\n      tag_40\n      0x04\n      dup1\n      calldatasize\n      sub\n      dup2\n      add\n      swap1\n      tag_41\n      swap2\n      swap1\n      tag_16\n      jump\t// in\n    tag_41:\n      tag_42\n      jump\t// in\n    tag_40:\n      stop\n        /* \"Competition/Auc.sol\":1584:2096  function interruptAuction(uint _userTokenId) payable public {... */\n    tag_8:\n      tag_43\n      0x04\n      dup1\n      calldatasize\n      sub\n      dup2\n      add\n      swap1\n      tag_44\n      swap2\n      swap1\n      tag_45\n      jump\t// in\n    tag_44:\n      tag_46\n      jump\t// in\n    tag_43:\n      stop\n        /* \"Competition/Auc.sol\":992:1576  function startAuction(uint _userTokenId, uint _duration, uint _minPrice, uint _maxPrice) public {... */\n    tag_9:\n      callvalue\n      dup1\n      iszero\n      tag_47\n      jumpi\n      0x00\n      dup1\n      revert\n    tag_47:\n      pop\n      tag_48\n      0x04\n      dup1\n      calldatasize\n      sub\n      dup2\n      add\n      swap1\n      tag_49\n      swap2\n      swap1\n      tag_50\n      jump\t// in\n    tag_49:\n      tag_51\n      jump\t// in\n    tag_48:\n      stop\n        /* \"Competition/Auc.sol\":2102:2492  function finishAuction(uint _userTokenId) payable public {... */\n    tag_10:\n      tag_52\n      0x04\n      dup1\n      calldatasize\n      sub\n      dup2\n      add\n      swap1\n      tag_53\n      swap2\n      swap1\n      tag_45\n      jump\t// in\n    tag_53:\n      tag_54\n      jump\t// in\n    tag_52:\n      stop\n        /* \"Competition/Auc.sol\":689:756  mapping (address => mapping (uint => Auction)) public usersAuctions */\n    tag_11:\n      callvalue\n      dup1\n      iszero\n      tag_55\n      jumpi\n      0x00\n      dup1\n      revert\n    tag_55:\n      pop\n      tag_56\n      0x04\n      dup1\n      calldatasize\n      sub\n      dup2\n      add\n      swap1\n      tag_57\n      swap2\n      swap1\n      tag_16\n      jump\t// in\n    tag_57:\n      tag_58\n      jump\t// in\n    tag_56:\n      mload(0x40)\n      tag_59\n      swap13\n      swap12\n      swap11\n      swap10\n      swap9\n      swap8\n      swap7\n      swap6\n      swap5\n      swap4\n      swap3\n      swap2\n      swap1\n      tag_60\n      jump\t// in\n    tag_59:\n      mload(0x40)\n      dup1\n      swap2\n      sub\n      swap1\n      return\n        /* \"Competition/Tokens/ERC1155.sol\":838:974  function balanceOf(address _owner, uint256 _id) override external view returns (uint256) {... */\n    tag_17:\n        /* \"Competition/Tokens/ERC1155.sol\":918:925  uint256 */\n      0x00\n        /* \"Competition/Tokens/ERC1155.sol\":945:953  balances */\n      dup1\n        /* \"Competition/Tokens/ERC1155.sol\":945:961  balances[_owner] */\n      0x00\n        /* \"Competition/Tokens/ERC1155.sol\":954:960  _owner */\n      dup5\n        /* \"Competition/Tokens/ERC1155.sol\":945:961  balances[_owner] */\n      0xffffffffffffffffffffffffffffffffffffffff\n      and\n      0xffffffffffffffffffffffffffffffffffffffff\n      and\n      dup2\n      mstore\n      0x20\n      add\n      swap1\n      dup2\n      mstore\n      0x20\n      add\n      0x00\n      keccak256\n        /* \"Competition/Tokens/ERC1155.sol\":945:966  balances[_owner][_id] */\n      0x00\n        /* \"Competition/Tokens/ERC1155.sol\":962:965  _id */\n      dup4\n        /* \"Competition/Tokens/ERC1155.sol\":945:966  balances[_owner][_id] */\n      dup2\n      mstore\n      0x20\n      add\n      swap1\n      dup2\n      mstore\n      0x20\n      add\n      0x00\n      keccak256\n      sload\n        /* \"Competition/Tokens/ERC1155.sol\":938:966  return balances[_owner][_id] */\n      swap1\n      pop\n        /* \"Competition/Tokens/ERC1155.sol\":838:974  function balanceOf(address _owner, uint256 _id) override external view returns (uint256) {... */\n      swap3\n      swap2\n      pop\n      pop\n      jump\t// out\n        /* \"Competition/Auc.sol\":763:822  mapping (address => mapping (uint => NFT)) public usersNFTs */\n    tag_23:\n      mstore(0x20, 0x02)\n      dup2\n      0x00\n      mstore\n      mstore(0x20, keccak256(0x00, 0x40))\n      dup1\n      0x00\n      mstore\n      keccak256(0x00, 0x40)\n      0x00\n      swap2\n      pop\n      swap2\n      pop\n      pop\n      dup1\n      0x00\n      add\n      dup1\n      sload\n      tag_62\n      swap1\n      tag_63\n      jump\t// in\n    tag_62:\n      dup1\n      0x1f\n      add\n      0x20\n      dup1\n      swap2\n      div\n      mul\n      0x20\n      add\n      mload(0x40)\n      swap1\n      dup2\n      add\n      0x40\n      mstore\n      dup1\n      swap3\n      swap2\n      swap1\n      dup2\n      dup2\n      mstore\n      0x20\n      add\n      dup3\n      dup1\n      sload\n      tag_64\n      swap1\n      tag_63\n      jump\t// in\n    tag_64:\n      dup1\n      iszero\n      tag_65\n      jumpi\n      dup1\n      0x1f\n      lt\n      tag_66\n      jumpi\n      0x0100\n      dup1\n      dup4\n      sload\n      div\n      mul\n      dup4\n      mstore\n      swap2\n      0x20\n      add\n      swap2\n      jump(tag_65)\n    tag_66:\n      dup3\n      add\n      swap2\n      swap1\n      0x00\n      mstore\n      keccak256(0x00, 0x20)\n      swap1\n    tag_67:\n      dup2\n      sload\n      dup2\n      mstore\n      swap1\n      0x01\n      add\n      swap1\n      0x20\n      add\n      dup1\n      dup4\n      gt\n      tag_67\n      jumpi\n      dup3\n      swap1\n      sub\n      0x1f\n      and\n      dup3\n      add\n      swap2\n    tag_65:\n      pop\n      pop\n      pop\n      pop\n      pop\n      swap1\n      dup1\n      0x01\n      add\n      dup1\n      sload\n      tag_68\n      swap1\n      tag_63\n      jump\t// in\n    tag_68:\n      dup1\n      0x1f\n      add\n      0x20\n      dup1\n      swap2\n      div\n      mul\n      0x20\n      add\n      mload(0x40)\n      swap1\n      dup2\n      add\n      0x40\n      mstore\n      dup1\n      swap3\n      swap2\n      swap1\n      dup2\n      dup2\n      mstore\n      0x20\n      add\n      dup3\n      dup1\n      sload\n      tag_69\n      swap1\n      tag_63\n      jump\t// in\n    tag_69:\n      dup1\n      iszero\n      tag_70\n      jumpi\n      dup1\n      0x1f\n      lt\n      tag_71\n      jumpi\n      0x0100\n      dup1\n      dup4\n      sload\n      div\n      mul\n      dup4\n      mstore\n      swap2\n      0x20\n      add\n      swap2\n      jump(tag_70)\n    tag_71:\n      dup3\n      add\n      swap2\n      swap1\n      0x00\n      mstore\n      keccak256(0x00, 0x20)\n      swap1\n    tag_72:\n      dup2\n      sload\n      dup2\n      mstore\n      swap1\n      0x01\n      add\n      swap1\n      0x20\n      add\n      dup1\n      dup4\n      gt\n      tag_72\n      jumpi\n      dup3\n      swap1\n      sub\n      0x1f\n      and\n      dup3\n      add\n      swap2\n    tag_70:\n      pop\n      pop\n      pop\n      pop\n      pop\n      swap1\n      dup1\n      0x02\n      add\n      dup1\n      sload\n      tag_73\n      swap1\n      tag_63\n      jump\t// in\n    tag_73:\n      dup1\n      0x1f\n      add\n      0x20\n      dup1\n      swap2\n      div\n      mul\n      0x20\n      add\n      mload(0x40)\n      swap1\n      dup2\n      add\n      0x40\n      mstore\n      dup1\n      swap3\n      swap2\n      swap1\n      dup2\n      dup2\n      mstore\n      0x20\n      add\n      dup3\n      dup1\n      sload\n      tag_74\n      swap1\n      tag_63\n      jump\t// in\n    tag_74:\n      dup1\n      iszero\n      tag_75\n      jumpi\n      dup1\n      0x1f\n      lt\n      tag_76\n      jumpi\n      0x0100\n      dup1\n      dup4\n      sload\n      div\n      mul\n      dup4\n      mstore\n      swap2\n      0x20\n      add\n      swap2\n      jump(tag_75)\n    tag_76:\n      dup3\n      add\n      swap2\n      swap1\n      0x00\n      mstore\n      keccak256(0x00, 0x20)\n      swap1\n    tag_77:\n      dup2\n      sload\n      dup2\n      mstore\n      swap1\n      0x01\n      add\n      swap1\n      0x20\n      add\n      dup1\n      dup4\n      gt\n      tag_77\n      jumpi\n      dup3\n      swap1\n      sub\n      0x1f\n      and\n      dup3\n      add\n      swap2\n    tag_75:\n      pop\n      pop\n      pop\n      pop\n      pop\n      swap1\n      dup1\n      0x03\n      add\n      sload\n      swap1\n      dup1\n      0x04\n      add\n      sload\n      swap1\n      dup1\n      0x05\n      add\n      sload\n      swap1\n      dup1\n      0x06\n      add\n      sload\n      swap1\n      pop\n      dup8\n      jump\t// out\n        /* \"Competition/Tokens/ERC1155.sol\":220:664  function safeTransferFrom(address _from, address _to, uint256 _id, uint256 _value) override payable public  {... */\n    tag_29:\n        /* \"Competition/Tokens/ERC1155.sol\":371:377  _value */\n      dup1\n        /* \"Competition/Tokens/ERC1155.sol\":347:355  balances */\n      0x00\n        /* \"Competition/Tokens/ERC1155.sol\":347:362  balances[_from] */\n      dup1\n        /* \"Competition/Tokens/ERC1155.sol\":356:361  _from */\n      dup7\n        /* \"Competition/Tokens/ERC1155.sol\":347:362  balances[_from] */\n      0xffffffffffffffffffffffffffffffffffffffff\n      and\n      0xffffffffffffffffffffffffffffffffffffffff\n      and\n      dup2\n      mstore\n      0x20\n      add\n      swap1\n      dup2\n      mstore\n      0x20\n      add\n      0x00\n      keccak256\n        /* \"Competition/Tokens/ERC1155.sol\":347:367  balances[_from][_id] */\n      0x00\n        /* \"Competition/Tokens/ERC1155.sol\":363:366  _id */\n      dup5\n        /* \"Competition/Tokens/ERC1155.sol\":347:367  balances[_from][_id] */\n      dup2\n      mstore\n      0x20\n      add\n      swap1\n      dup2\n      mstore\n      0x20\n      add\n      0x00\n      keccak256\n      sload\n        /* \"Competition/Tokens/ERC1155.sol\":347:377  balances[_from][_id] >= _value */\n      lt\n      iszero\n        /* \"Competition/Tokens/ERC1155.sol\":339:404  require(balances[_from][_id] >= _value, \"Error: not enough cash\") */\n      tag_79\n      jumpi\n      mload(0x40)\n      0x08c379a000000000000000000000000000000000000000000000000000000000\n      dup2\n      mstore\n      0x04\n      add\n      tag_80\n      swap1\n      tag_81\n      jump\t// in\n    tag_80:\n      mload(0x40)\n      dup1\n      swap2\n      sub\n      swap1\n      revert\n    tag_79:\n        /* \"Competition/Tokens/ERC1155.sol\":432:433  0 */\n      0x00\n        /* \"Competition/Tokens/ERC1155.sol\":423:429  _value */\n      dup2\n        /* \"Competition/Tokens/ERC1155.sol\":423:433  _value > 0 */\n      gt\n        /* \"Competition/Tokens/ERC1155.sol\":415:481  require(_value > 0, \"Error: value must be more than 0 to transer\") */\n      tag_82\n      jumpi\n      mload(0x40)\n      0x08c379a000000000000000000000000000000000000000000000000000000000\n      dup2\n      mstore\n      0x04\n      add\n      tag_83\n      swap1\n      tag_84\n      jump\t// in\n    tag_83:\n      mload(0x40)\n      dup1\n      swap2\n      sub\n      swap1\n      revert\n    tag_82:\n        /* \"Competition/Tokens/ERC1155.sol\":517:518  0 */\n      0x00\n        /* \"Competition/Tokens/ERC1155.sol\":500:519  _from != address(0) */\n      0xffffffffffffffffffffffffffffffffffffffff\n      and\n        /* \"Competition/Tokens/ERC1155.sol\":500:505  _from */\n      dup5\n        /* \"Competition/Tokens/ERC1155.sol\":500:519  _from != address(0) */\n      0xffffffffffffffffffffffffffffffffffffffff\n      and\n      sub\n        /* \"Competition/Tokens/ERC1155.sol\":492:543  require(_from != address(0), \"Error: null address\") */\n      tag_85\n      jumpi\n      mload(0x40)\n      0x08c379a000000000000000000000000000000000000000000000000000000000\n      dup2\n      mstore\n      0x04\n      add\n      tag_86\n      swap1\n      tag_87\n      jump\t// in\n    tag_86:\n      mload(0x40)\n      dup1\n      swap2\n      sub\n      swap1\n      revert\n    tag_85:\n        /* \"Competition/Tokens/ERC1155.sol\":577:578  0 */\n      0x00\n        /* \"Competition/Tokens/ERC1155.sol\":562:579  _to != address(0) */\n      0xffffffffffffffffffffffffffffffffffffffff\n      and\n        /* \"Competition/Tokens/ERC1155.sol\":562:565  _to */\n      dup4\n        /* \"Competition/Tokens/ERC1155.sol\":562:579  _to != address(0) */\n      0xffffffffffffffffffffffffffffffffffffffff\n      and\n      sub\n        /* \"Competition/Tokens/ERC1155.sol\":554:603  require(_to != address(0), \"Error: null address\") */\n      tag_88\n      jumpi\n      mload(0x40)\n      0x08c379a000000000000000000000000000000000000000000000000000000000\n      dup2\n      mstore\n      0x04\n      add\n      tag_89\n      swap1\n      tag_87\n      jump\t// in\n    tag_89:\n      mload(0x40)\n      dup1\n      swap2\n      sub\n      swap1\n      revert\n    tag_88:\n        /* \"Competition/Tokens/ERC1155.sol\":614:656  _safeTransferFrom(_from, _to, _id, _value) */\n      tag_90\n        /* \"Competition/Tokens/ERC1155.sol\":632:637  _from */\n      dup5\n        /* \"Competition/Tokens/ERC1155.sol\":639:642  _to */\n      dup5\n        /* \"Competition/Tokens/ERC1155.sol\":644:647  _id */\n      dup5\n        /* \"Competition/Tokens/ERC1155.sol\":649:655  _value */\n      dup5\n        /* \"Competition/Tokens/ERC1155.sol\":614:631  _safeTransferFrom */\n      tag_91\n        /* \"Competition/Tokens/ERC1155.sol\":614:656  _safeTransferFrom(_from, _to, _id, _value) */\n      jump\t// in\n    tag_90:\n        /* \"Competition/Tokens/ERC1155.sol\":220:664  function safeTransferFrom(address _from, address _to, uint256 _id, uint256 _value) override payable public  {... */\n      pop\n      pop\n      pop\n      pop\n      jump\t// out\n        /* \"Competition/Auc.sol\":829:890  mapping (address => mapping (uint => uint)) public lockedCash */\n    tag_33:\n      mstore(0x20, 0x03)\n      dup2\n      0x00\n      mstore\n      mstore(0x20, keccak256(0x00, 0x40))\n      dup1\n      0x00\n      mstore\n      keccak256(0x00, 0x40)\n      0x00\n      swap2\n      pop\n      swap2\n      pop\n      pop\n      sload\n      dup2\n      jump\t// out\n        /* \"Competition/Auc.sol\":2498:2855  function bit(address _auctionOwner, uint _ownerTokenId, uint _value) public {... */\n    tag_39:\n        /* \"Competition/Auc.sol\":2607:2620  _auctionOwner */\n      dup3\n        /* \"Competition/Auc.sol\":2593:2620  msg.sender != _auctionOwner */\n      0xffffffffffffffffffffffffffffffffffffffff\n      and\n        /* \"Competition/Auc.sol\":2593:2603  msg.sender */\n      caller\n        /* \"Competition/Auc.sol\":2593:2620  msg.sender != _auctionOwner */\n      0xffffffffffffffffffffffffffffffffffffffff\n      and\n      sub\n        /* \"Competition/Auc.sol\":2585:2657  require(msg.sender != _auctionOwner, \"Error: owner can not be a bitter\") */\n      tag_93\n      jumpi\n      mload(0x40)\n      0x08c379a000000000000000000000000000000000000000000000000000000000\n      dup2\n      mstore\n      0x04\n      add\n      tag_94\n      swap1\n      tag_95\n      jump\t// in\n    tag_94:\n      mload(0x40)\n      dup1\n      swap2\n      sub\n      swap1\n      revert\n    tag_93:\n        /* \"Competition/Auc.sol\":2728:2734  _value */\n      dup1\n        /* \"Competition/Auc.sol\":2676:2689  usersAuctions */\n      0x01\n        /* \"Competition/Auc.sol\":2676:2704  usersAuctions[_auctionOwner] */\n      0x00\n        /* \"Competition/Auc.sol\":2690:2703  _auctionOwner */\n      dup6\n        /* \"Competition/Auc.sol\":2676:2704  usersAuctions[_auctionOwner] */\n      0xffffffffffffffffffffffffffffffffffffffff\n      and\n      0xffffffffffffffffffffffffffffffffffffffff\n      and\n      dup2\n      mstore\n      0x20\n      add\n      swap1\n      dup2\n      mstore\n      0x20\n      add\n      0x00\n      keccak256\n        /* \"Competition/Auc.sol\":2676:2719  usersAuctions[_auctionOwner][_ownerTokenId] */\n      0x00\n        /* \"Competition/Auc.sol\":2705:2718  _ownerTokenId */\n      dup5\n        /* \"Competition/Auc.sol\":2676:2719  usersAuctions[_auctionOwner][_ownerTokenId] */\n      dup2\n      mstore\n      0x20\n      add\n      swap1\n      dup2\n      mstore\n      0x20\n      add\n      0x00\n      keccak256\n        /* \"Competition/Auc.sol\":2676:2725  usersAuctions[_auctionOwner][_ownerTokenId].price */\n      0x03\n      add\n      sload\n        /* \"Competition/Auc.sol\":2676:2734  usersAuctions[_auctionOwner][_ownerTokenId].price < _value */\n      lt\n        /* \"Competition/Auc.sol\":2668:2782  require(usersAuctions[_auctionOwner][_ownerTokenId].price < _value, \"Error: value must be more than price to bit\") */\n      tag_96\n      jumpi\n      mload(0x40)\n      0x08c379a000000000000000000000000000000000000000000000000000000000\n      dup2\n      mstore\n      0x04\n      add\n      tag_97\n      swap1\n      tag_98\n      jump\t// in\n    tag_97:\n      mload(0x40)\n      dup1\n      swap2\n      sub\n      swap1\n      revert\n    tag_96:\n        /* \"Competition/Auc.sol\":2793:2847  _bit(msg.sender, _auctionOwner, _ownerTokenId, _value) */\n      tag_99\n        /* \"Competition/Auc.sol\":2798:2808  msg.sender */\n      caller\n        /* \"Competition/Auc.sol\":2810:2823  _auctionOwner */\n      dup5\n        /* \"Competition/Auc.sol\":2825:2838  _ownerTokenId */\n      dup5\n        /* \"Competition/Auc.sol\":2840:2846  _value */\n      dup5\n        /* \"Competition/Auc.sol\":2793:2797  _bit */\n      tag_100\n        /* \"Competition/Auc.sol\":2793:2847  _bit(msg.sender, _auctionOwner, _ownerTokenId, _value) */\n      jump\t// in\n    tag_99:\n        /* \"Competition/Auc.sol\":2498:2855  function bit(address _auctionOwner, uint _ownerTokenId, uint _value) public {... */\n      pop\n      pop\n      pop\n      jump\t// out\n        /* \"Competition/Auc.sol\":3535:4249  function _finishAuction(address _auctionOwner, uint _ownerTokenId) payable public  {... */\n    tag_42:\n        /* \"Competition/Auc.sol\":3695:3700  false */\n      0x00\n        /* \"Competition/Auc.sol\":3629:3642  usersAuctions */\n      0x01\n        /* \"Competition/Auc.sol\":3629:3657  usersAuctions[_auctionOwner] */\n      0x00\n        /* \"Competition/Auc.sol\":3643:3656  _auctionOwner */\n      dup5\n        /* \"Competition/Auc.sol\":3629:3657  usersAuctions[_auctionOwner] */\n      0xffffffffffffffffffffffffffffffffffffffff\n      and\n      0xffffffffffffffffffffffffffffffffffffffff\n      and\n      dup2\n      mstore\n      0x20\n      add\n      swap1\n      dup2\n      mstore\n      0x20\n      add\n      0x00\n      keccak256\n        /* \"Competition/Auc.sol\":3629:3672  usersAuctions[_auctionOwner][_ownerTokenId] */\n      0x00\n        /* \"Competition/Auc.sol\":3658:3671  _ownerTokenId */\n      dup4\n        /* \"Competition/Auc.sol\":3629:3672  usersAuctions[_auctionOwner][_ownerTokenId] */\n      dup2\n      mstore\n      0x20\n      add\n      swap1\n      dup2\n      mstore\n      0x20\n      add\n      0x00\n      keccak256\n        /* \"Competition/Auc.sol\":3629:3692  usersAuctions[_auctionOwner][_ownerTokenId].lockedDuringAuction */\n      0x07\n      add\n      0x14\n        /* \"Competition/Auc.sol\":3629:3700  usersAuctions[_auctionOwner][_ownerTokenId].lockedDuringAuction = false */\n      0x0100\n      exp\n      dup2\n      sload\n      dup2\n      0xff\n      mul\n      not\n      and\n      swap1\n      dup4\n      iszero\n      iszero\n      mul\n      or\n      swap1\n      sstore\n      pop\n        /* \"Competition/Auc.sol\":3765:3769  true */\n      0x01\n        /* \"Competition/Auc.sol\":3711:3724  usersAuctions */\n      dup1\n        /* \"Competition/Auc.sol\":3711:3739  usersAuctions[_auctionOwner] */\n      0x00\n        /* \"Competition/Auc.sol\":3725:3738  _auctionOwner */\n      dup5\n        /* \"Competition/Auc.sol\":3711:3739  usersAuctions[_auctionOwner] */\n      0xffffffffffffffffffffffffffffffffffffffff\n      and\n      0xffffffffffffffffffffffffffffffffffffffff\n      and\n      dup2\n      mstore\n      0x20\n      add\n      swap1\n      dup2\n      mstore\n      0x20\n      add\n      0x00\n      keccak256\n        /* \"Competition/Auc.sol\":3711:3754  usersAuctions[_auctionOwner][_ownerTokenId] */\n      0x00\n        /* \"Competition/Auc.sol\":3740:3753  _ownerTokenId */\n      dup4\n        /* \"Competition/Auc.sol\":3711:3754  usersAuctions[_auctionOwner][_ownerTokenId] */\n      dup2\n      mstore\n      0x20\n      add\n      swap1\n      dup2\n      mstore\n      0x20\n      add\n      0x00\n      keccak256\n        /* \"Competition/Auc.sol\":3711:3762  usersAuctions[_auctionOwner][_ownerTokenId].started */\n      0x07\n      add\n      0x16\n        /* \"Competition/Auc.sol\":3711:3769  usersAuctions[_auctionOwner][_ownerTokenId].started = true */\n      0x0100\n      exp\n      dup2\n      sload\n      dup2\n      0xff\n      mul\n      not\n      and\n      swap1\n      dup4\n      iszero\n      iszero\n      mul\n      or\n      swap1\n      sstore\n      pop\n        /* \"Competition/Auc.sol\":3835:3839  true */\n      0x01\n        /* \"Competition/Auc.sol\":3780:3793  usersAuctions */\n      dup1\n        /* \"Competition/Auc.sol\":3780:3808  usersAuctions[_auctionOwner] */\n      0x00\n        /* \"Competition/Auc.sol\":3794:3807  _auctionOwner */\n      dup5\n        /* \"Competition/Auc.sol\":3780:3808  usersAuctions[_auctionOwner] */\n      0xffffffffffffffffffffffffffffffffffffffff\n      and\n      0xffffffffffffffffffffffffffffffffffffffff\n      and\n      dup2\n      mstore\n      0x20\n      add\n      swap1\n      dup2\n      mstore\n      0x20\n      add\n      0x00\n      keccak256\n        /* \"Competition/Auc.sol\":3780:3823  usersAuctions[_auctionOwner][_ownerTokenId] */\n      0x00\n        /* \"Competition/Auc.sol\":3809:3822  _ownerTokenId */\n      dup4\n        /* \"Competition/Auc.sol\":3780:3823  usersAuctions[_auctionOwner][_ownerTokenId] */\n      dup2\n      mstore\n      0x20\n      add\n      swap1\n      dup2\n      mstore\n      0x20\n      add\n      0x00\n      keccak256\n        /* \"Competition/Auc.sol\":3780:3832  usersAuctions[_auctionOwner][_ownerTokenId].finished */\n      0x07\n      add\n      0x15\n        /* \"Competition/Auc.sol\":3780:3839  usersAuctions[_auctionOwner][_ownerTokenId].finished = true */\n      0x0100\n      exp\n      dup2\n      sload\n      dup2\n      0xff\n      mul\n      not\n      and\n      swap1\n      dup4\n      iszero\n      iszero\n      mul\n      or\n      swap1\n      sstore\n      pop\n        /* \"Competition/Auc.sol\":3906:3907  0 */\n      0x00\n        /* \"Competition/Auc.sol\":3856:3869  usersAuctions */\n      0x01\n        /* \"Competition/Auc.sol\":3856:3881  usersAuctions[msg.sender] */\n      0x00\n        /* \"Competition/Auc.sol\":3870:3880  msg.sender */\n      caller\n        /* \"Competition/Auc.sol\":3856:3881  usersAuctions[msg.sender] */\n      0xffffffffffffffffffffffffffffffffffffffff\n      and\n      0xffffffffffffffffffffffffffffffffffffffff\n      and\n      dup2\n      mstore\n      0x20\n      add\n      swap1\n      dup2\n      mstore\n      0x20\n      add\n      0x00\n      keccak256\n        /* \"Competition/Auc.sol\":3856:3896  usersAuctions[msg.sender][_ownerTokenId] */\n      0x00\n        /* \"Competition/Auc.sol\":3882:3895  _ownerTokenId */\n      dup4\n        /* \"Competition/Auc.sol\":3856:3896  usersAuctions[msg.sender][_ownerTokenId] */\n      dup2\n      mstore\n      0x20\n      add\n      swap1\n      dup2\n      mstore\n      0x20\n      add\n      0x00\n      keccak256\n        /* \"Competition/Auc.sol\":3856:3902  usersAuctions[msg.sender][_ownerTokenId].price */\n      0x03\n      add\n      sload\n        /* \"Competition/Auc.sol\":3856:3907  usersAuctions[msg.sender][_ownerTokenId].price != 0 */\n      eq\n      iszero\n        /* \"Competition/Auc.sol\":3856:3972  usersAuctions[msg.sender][_ownerTokenId].price != 0 && usersAuctions[msg.sender][_ownerTokenId].winner != address(0) */\n      dup1\n      iszero\n      tag_102\n      jumpi\n      pop\n        /* \"Competition/Auc.sol\":3970:3971  0 */\n      0x00\n        /* \"Competition/Auc.sol\":3911:3972  usersAuctions[msg.sender][_ownerTokenId].winner != address(0) */\n      0xffffffffffffffffffffffffffffffffffffffff\n      and\n        /* \"Competition/Auc.sol\":3911:3924  usersAuctions */\n      0x01\n        /* \"Competition/Auc.sol\":3911:3936  usersAuctions[msg.sender] */\n      0x00\n        /* \"Competition/Auc.sol\":3925:3935  msg.sender */\n      caller\n        /* \"Competition/Auc.sol\":3911:3936  usersAuctions[msg.sender] */\n      0xffffffffffffffffffffffffffffffffffffffff\n      and\n      0xffffffffffffffffffffffffffffffffffffffff\n      and\n      dup2\n      mstore\n      0x20\n      add\n      swap1\n      dup2\n      mstore\n      0x20\n      add\n      0x00\n      keccak256\n        /* \"Competition/Auc.sol\":3911:3951  usersAuctions[msg.sender][_ownerTokenId] */\n      0x00\n        /* \"Competition/Auc.sol\":3937:3950  _ownerTokenId */\n      dup4\n        /* \"Competition/Auc.sol\":3911:3951  usersAuctions[msg.sender][_ownerTokenId] */\n      dup2\n      mstore\n      0x20\n      add\n      swap1\n      dup2\n      mstore\n      0x20\n      add\n      0x00\n      keccak256\n        /* \"Competition/Auc.sol\":3911:3958  usersAuctions[msg.sender][_ownerTokenId].winner */\n      0x06\n      add\n      0x00\n      swap1\n      sload\n      swap1\n      0x0100\n      exp\n      swap1\n      div\n      0xffffffffffffffffffffffffffffffffffffffff\n      and\n        /* \"Competition/Auc.sol\":3911:3972  usersAuctions[msg.sender][_ownerTokenId].winner != address(0) */\n      0xffffffffffffffffffffffffffffffffffffffff\n      and\n      eq\n      iszero\n        /* \"Competition/Auc.sol\":3856:3972  usersAuctions[msg.sender][_ownerTokenId].price != 0 && usersAuctions[msg.sender][_ownerTokenId].winner != address(0) */\n    tag_102:\n        /* \"Competition/Auc.sol\":3852:4242  if (usersAuctions[msg.sender][_ownerTokenId].price != 0 && usersAuctions[msg.sender][_ownerTokenId].winner != address(0)) {... */\n      iszero\n      tag_103\n      jumpi\n        /* \"Competition/Auc.sol\":4101:4102  0 */\n      0x00\n        /* \"Competition/Auc.sol\":3989:3999  lockedCash */\n      0x03\n        /* \"Competition/Auc.sol\":3989:4083  lockedCash[... */\n      0x00\n        /* \"Competition/Auc.sol\":4018:4031  usersAuctions */\n      0x01\n        /* \"Competition/Auc.sol\":4018:4046  usersAuctions[_auctionOwner] */\n      0x00\n        /* \"Competition/Auc.sol\":4032:4045  _auctionOwner */\n      dup7\n        /* \"Competition/Auc.sol\":4018:4046  usersAuctions[_auctionOwner] */\n      0xffffffffffffffffffffffffffffffffffffffff\n      and\n      0xffffffffffffffffffffffffffffffffffffffff\n      and\n      dup2\n      mstore\n      0x20\n      add\n      swap1\n      dup2\n      mstore\n      0x20\n      add\n      0x00\n      keccak256\n        /* \"Competition/Auc.sol\":4018:4061  usersAuctions[_auctionOwner][_ownerTokenId] */\n      0x00\n        /* \"Competition/Auc.sol\":4047:4060  _ownerTokenId */\n      dup6\n        /* \"Competition/Auc.sol\":4018:4061  usersAuctions[_auctionOwner][_ownerTokenId] */\n      dup2\n      mstore\n      0x20\n      add\n      swap1\n      dup2\n      mstore\n      0x20\n      add\n      0x00\n      keccak256\n        /* \"Competition/Auc.sol\":4018:4068  usersAuctions[_auctionOwner][_ownerTokenId].winner */\n      0x06\n      add\n      0x00\n      swap1\n      sload\n      swap1\n      0x0100\n      exp\n      swap1\n      div\n      0xffffffffffffffffffffffffffffffffffffffff\n      and\n        /* \"Competition/Auc.sol\":3989:4083  lockedCash[... */\n      0xffffffffffffffffffffffffffffffffffffffff\n      and\n      0xffffffffffffffffffffffffffffffffffffffff\n      and\n      dup2\n      mstore\n      0x20\n      add\n      swap1\n      dup2\n      mstore\n      0x20\n      add\n      0x00\n      keccak256\n        /* \"Competition/Auc.sol\":3989:4098  lockedCash[... */\n      0x00\n        /* \"Competition/Auc.sol\":4084:4097  _ownerTokenId */\n      dup4\n        /* \"Competition/Auc.sol\":3989:4098  lockedCash[... */\n      dup2\n      mstore\n      0x20\n      add\n      swap1\n      dup2\n      mstore\n      0x20\n      add\n      0x00\n      keccak256\n        /* \"Competition/Auc.sol\":3989:4102  lockedCash[... */\n      dup2\n      swap1\n      sstore\n      pop\n        /* \"Competition/Auc.sol\":4119:4126  erc1155 */\n      0x04\n      0x00\n      swap1\n      sload\n      swap1\n      0x0100\n      exp\n      swap1\n      div\n      0xffffffffffffffffffffffffffffffffffffffff\n      and\n        /* \"Competition/Auc.sol\":4119:4143  erc1155.safeTransferFrom */\n      0xffffffffffffffffffffffffffffffffffffffff\n      and\n      0x0febdd49\n        /* \"Competition/Auc.sol\":4144:4157  usersAuctions */\n      0x01\n        /* \"Competition/Auc.sol\":4144:4172  usersAuctions[_auctionOwner] */\n      0x00\n        /* \"Competition/Auc.sol\":4158:4171  _auctionOwner */\n      dup6\n        /* \"Competition/Auc.sol\":4144:4172  usersAuctions[_auctionOwner] */\n      0xffffffffffffffffffffffffffffffffffffffff\n      and\n      0xffffffffffffffffffffffffffffffffffffffff\n      and\n      dup2\n      mstore\n      0x20\n      add\n      swap1\n      dup2\n      mstore\n      0x20\n      add\n      0x00\n      keccak256\n        /* \"Competition/Auc.sol\":4144:4187  usersAuctions[_auctionOwner][_ownerTokenId] */\n      0x00\n        /* \"Competition/Auc.sol\":4173:4186  _ownerTokenId */\n      dup5\n        /* \"Competition/Auc.sol\":4144:4187  usersAuctions[_auctionOwner][_ownerTokenId] */\n      dup2\n      mstore\n      0x20\n      add\n      swap1\n      dup2\n      mstore\n      0x20\n      add\n      0x00\n      keccak256\n        /* \"Competition/Auc.sol\":4144:4194  usersAuctions[_auctionOwner][_ownerTokenId].winner */\n      0x06\n      add\n      0x00\n      swap1\n      sload\n      swap1\n      0x0100\n      exp\n      swap1\n      div\n      0xffffffffffffffffffffffffffffffffffffffff\n      and\n        /* \"Competition/Auc.sol\":4196:4209  _auctionOwner */\n      dup5\n        /* \"Competition/Auc.sol\":4211:4224  _ownerTokenId */\n      dup5\n        /* \"Competition/Auc.sol\":4226:4227  1 */\n      0x01\n        /* \"Competition/Auc.sol\":4119:4228  erc1155.safeTransferFrom(usersAuctions[_auctionOwner][_ownerTokenId].winner, _auctionOwner, _ownerTokenId, 1) */\n      mload(0x40)\n      dup6\n      0xffffffff\n      and\n      0xe0\n      shl\n      dup2\n      mstore\n      0x04\n      add\n      tag_104\n      swap5\n      swap4\n      swap3\n      swap2\n      swap1\n      tag_105\n      jump\t// in\n    tag_104:\n      0x00\n      mload(0x40)\n      dup1\n      dup4\n      sub\n      dup2\n      0x00\n      dup8\n      dup1\n      extcodesize\n      iszero\n      dup1\n      iszero\n      tag_106\n      jumpi\n      0x00\n      dup1\n      revert\n    tag_106:\n      pop\n      gas\n      call\n      iszero\n      dup1\n      iszero\n      tag_108\n      jumpi\n      returndatasize\n      0x00\n      dup1\n      returndatacopy\n      revert(0x00, returndatasize)\n    tag_108:\n      pop\n      pop\n      pop\n      pop\n        /* \"Competition/Auc.sol\":3852:4242  if (usersAuctions[msg.sender][_ownerTokenId].price != 0 && usersAuctions[msg.sender][_ownerTokenId].winner != address(0)) {... */\n    tag_103:\n        /* \"Competition/Auc.sol\":3535:4249  function _finishAuction(address _auctionOwner, uint _ownerTokenId) payable public  {... */\n      pop\n      pop\n      jump\t// out\n        /* \"Competition/Auc.sol\":1584:2096  function interruptAuction(uint _userTokenId) payable public {... */\n    tag_46:\n        /* \"Competition/Auc.sol\":1715:1720  false */\n      0x00\n        /* \"Competition/Auc.sol\":1663:1720  usersAuctions[msg.sender][_userTokenId].finished == false */\n      iszero\n      iszero\n        /* \"Competition/Auc.sol\":1663:1676  usersAuctions */\n      0x01\n        /* \"Competition/Auc.sol\":1663:1688  usersAuctions[msg.sender] */\n      0x00\n        /* \"Competition/Auc.sol\":1677:1687  msg.sender */\n      caller\n        /* \"Competition/Auc.sol\":1663:1688  usersAuctions[msg.sender] */\n      0xffffffffffffffffffffffffffffffffffffffff\n      and\n      0xffffffffffffffffffffffffffffffffffffffff\n      and\n      dup2\n      mstore\n      0x20\n      add\n      swap1\n      dup2\n      mstore\n      0x20\n      add\n      0x00\n      keccak256\n        /* \"Competition/Auc.sol\":1663:1702  usersAuctions[msg.sender][_userTokenId] */\n      0x00\n        /* \"Competition/Auc.sol\":1689:1701  _userTokenId */\n      dup4\n        /* \"Competition/Auc.sol\":1663:1702  usersAuctions[msg.sender][_userTokenId] */\n      dup2\n      mstore\n      0x20\n      add\n      swap1\n      dup2\n      mstore\n      0x20\n      add\n      0x00\n      keccak256\n        /* \"Competition/Auc.sol\":1663:1711  usersAuctions[msg.sender][_userTokenId].finished */\n      0x07\n      add\n      0x15\n      swap1\n      sload\n      swap1\n      0x0100\n      exp\n      swap1\n      div\n      0xff\n      and\n        /* \"Competition/Auc.sol\":1663:1720  usersAuctions[msg.sender][_userTokenId].finished == false */\n      iszero\n      iszero\n      eq\n        /* \"Competition/Auc.sol\":1655:1759  require(usersAuctions[msg.sender][_userTokenId].finished == false, \"Error: auction is already finished\") */\n      tag_110\n      jumpi\n      mload(0x40)\n      0x08c379a000000000000000000000000000000000000000000000000000000000\n      dup2\n      mstore\n      0x04\n      add\n      tag_111\n      swap1\n      tag_112\n      jump\t// in\n    tag_111:\n      mload(0x40)\n      dup1\n      swap2\n      sub\n      swap1\n      revert\n    tag_110:\n        /* \"Competition/Auc.sol\":1841:1854  usersAuctions */\n      0x01\n        /* \"Competition/Auc.sol\":1841:1866  usersAuctions[msg.sender] */\n      0x00\n        /* \"Competition/Auc.sol\":1855:1865  msg.sender */\n      caller\n        /* \"Competition/Auc.sol\":1841:1866  usersAuctions[msg.sender] */\n      0xffffffffffffffffffffffffffffffffffffffff\n      and\n      0xffffffffffffffffffffffffffffffffffffffff\n      and\n      dup2\n      mstore\n      0x20\n      add\n      swap1\n      dup2\n      mstore\n      0x20\n      add\n      0x00\n      keccak256\n        /* \"Competition/Auc.sol\":1841:1880  usersAuctions[msg.sender][_userTokenId] */\n      0x00\n        /* \"Competition/Auc.sol\":1867:1879  _userTokenId */\n      dup3\n        /* \"Competition/Auc.sol\":1841:1880  usersAuctions[msg.sender][_userTokenId] */\n      dup2\n      mstore\n      0x20\n      add\n      swap1\n      dup2\n      mstore\n      0x20\n      add\n      0x00\n      keccak256\n        /* \"Competition/Auc.sol\":1841:1889  usersAuctions[msg.sender][_userTokenId].maxPrice */\n      0x05\n      add\n      sload\n        /* \"Competition/Auc.sol\":1792:1805  usersAuctions */\n      0x01\n        /* \"Competition/Auc.sol\":1792:1817  usersAuctions[msg.sender] */\n      0x00\n        /* \"Competition/Auc.sol\":1806:1816  msg.sender */\n      caller\n        /* \"Competition/Auc.sol\":1792:1817  usersAuctions[msg.sender] */\n      0xffffffffffffffffffffffffffffffffffffffff\n      and\n      0xffffffffffffffffffffffffffffffffffffffff\n      and\n      dup2\n      mstore\n      0x20\n      add\n      swap1\n      dup2\n      mstore\n      0x20\n      add\n      0x00\n      keccak256\n        /* \"Competition/Auc.sol\":1792:1831  usersAuctions[msg.sender][_userTokenId] */\n      0x00\n        /* \"Competition/Auc.sol\":1818:1830  _userTokenId */\n      dup4\n        /* \"Competition/Auc.sol\":1792:1831  usersAuctions[msg.sender][_userTokenId] */\n      dup2\n      mstore\n      0x20\n      add\n      swap1\n      dup2\n      mstore\n      0x20\n      add\n      0x00\n      keccak256\n        /* \"Competition/Auc.sol\":1792:1837  usersAuctions[msg.sender][_userTokenId].price */\n      0x03\n      add\n      sload\n        /* \"Competition/Auc.sol\":1792:1889  usersAuctions[msg.sender][_userTokenId].price >= usersAuctions[msg.sender][_userTokenId].maxPrice */\n      lt\n      iszero\n        /* \"Competition/Auc.sol\":1792:1995  usersAuctions[msg.sender][_userTokenId].price >= usersAuctions[msg.sender][_userTokenId].maxPrice || ... */\n      dup1\n      tag_113\n      jumpi\n      pop\n        /* \"Competition/Auc.sol\":956:958  20 */\n      0x14\n        /* \"Competition/Auc.sol\":1925:1938  usersAuctions */\n      0x01\n        /* \"Competition/Auc.sol\":1925:1950  usersAuctions[msg.sender] */\n      0x00\n        /* \"Competition/Auc.sol\":1939:1949  msg.sender */\n      caller\n        /* \"Competition/Auc.sol\":1925:1950  usersAuctions[msg.sender] */\n      0xffffffffffffffffffffffffffffffffffffffff\n      and\n      0xffffffffffffffffffffffffffffffffffffffff\n      and\n      dup2\n      mstore\n      0x20\n      add\n      swap1\n      dup2\n      mstore\n      0x20\n      add\n      0x00\n      keccak256\n        /* \"Competition/Auc.sol\":1925:1964  usersAuctions[msg.sender][_userTokenId] */\n      0x00\n        /* \"Competition/Auc.sol\":1951:1963  _userTokenId */\n      dup4\n        /* \"Competition/Auc.sol\":1925:1964  usersAuctions[msg.sender][_userTokenId] */\n      dup2\n      mstore\n      0x20\n      add\n      swap1\n      dup2\n      mstore\n      0x20\n      add\n      0x00\n      keccak256\n        /* \"Competition/Auc.sol\":1925:1976  usersAuctions[msg.sender][_userTokenId].timeStarted */\n      0x01\n      add\n      sload\n        /* \"Competition/Auc.sol\":1907:1922  block.timestamp */\n      timestamp\n        /* \"Competition/Auc.sol\":1907:1976  block.timestamp - usersAuctions[msg.sender][_userTokenId].timeStarted */\n      tag_114\n      swap2\n      swap1\n      tag_115\n      jump\t// in\n    tag_114:\n        /* \"Competition/Auc.sol\":1907:1995  block.timestamp - usersAuctions[msg.sender][_userTokenId].timeStarted > MINIMAL_DURATION */\n      gt\n        /* \"Competition/Auc.sol\":1792:1995  usersAuctions[msg.sender][_userTokenId].price >= usersAuctions[msg.sender][_userTokenId].maxPrice || ... */\n    tag_113:\n        /* \"Competition/Auc.sol\":1770:2037  require(... */\n      tag_116\n      jumpi\n      mload(0x40)\n      0x08c379a000000000000000000000000000000000000000000000000000000000\n      dup2\n      mstore\n      0x04\n      add\n      tag_117\n      swap1\n      tag_118\n      jump\t// in\n    tag_117:\n      mload(0x40)\n      dup1\n      swap2\n      sub\n      swap1\n      revert\n    tag_116:\n        /* \"Competition/Auc.sol\":2048:2088  _finishAuction(msg.sender, _userTokenId) */\n      tag_119\n        /* \"Competition/Auc.sol\":2063:2073  msg.sender */\n      caller\n        /* \"Competition/Auc.sol\":2075:2087  _userTokenId */\n      dup3\n        /* \"Competition/Auc.sol\":2048:2062  _finishAuction */\n      tag_42\n        /* \"Competition/Auc.sol\":2048:2088  _finishAuction(msg.sender, _userTokenId) */\n      jump\t// in\n    tag_119:\n        /* \"Competition/Auc.sol\":1584:2096  function interruptAuction(uint _userTokenId) payable public {... */\n      pop\n      jump\t// out\n        /* \"Competition/Auc.sol\":992:1576  function startAuction(uint _userTokenId, uint _duration, uint _minPrice, uint _maxPrice) public {... */\n    tag_51:\n        /* \"Competition/Auc.sol\":1158:1163  false */\n      0x00\n        /* \"Competition/Auc.sol\":1107:1163  usersAuctions[msg.sender][_userTokenId].started == false */\n      iszero\n      iszero\n        /* \"Competition/Auc.sol\":1107:1120  usersAuctions */\n      0x01\n        /* \"Competition/Auc.sol\":1107:1132  usersAuctions[msg.sender] */\n      0x00\n        /* \"Competition/Auc.sol\":1121:1131  msg.sender */\n      caller\n        /* \"Competition/Auc.sol\":1107:1132  usersAuctions[msg.sender] */\n      0xffffffffffffffffffffffffffffffffffffffff\n      and\n      0xffffffffffffffffffffffffffffffffffffffff\n      and\n      dup2\n      mstore\n      0x20\n      add\n      swap1\n      dup2\n      mstore\n      0x20\n      add\n      0x00\n      keccak256\n        /* \"Competition/Auc.sol\":1107:1146  usersAuctions[msg.sender][_userTokenId] */\n      0x00\n        /* \"Competition/Auc.sol\":1133:1145  _userTokenId */\n      dup7\n        /* \"Competition/Auc.sol\":1107:1146  usersAuctions[msg.sender][_userTokenId] */\n      dup2\n      mstore\n      0x20\n      add\n      swap1\n      dup2\n      mstore\n      0x20\n      add\n      0x00\n      keccak256\n        /* \"Competition/Auc.sol\":1107:1154  usersAuctions[msg.sender][_userTokenId].started */\n      0x07\n      add\n      0x16\n      swap1\n      sload\n      swap1\n      0x0100\n      exp\n      swap1\n      div\n      0xff\n      and\n        /* \"Competition/Auc.sol\":1107:1163  usersAuctions[msg.sender][_userTokenId].started == false */\n      iszero\n      iszero\n      eq\n        /* \"Competition/Auc.sol\":1099:1201  require(usersAuctions[msg.sender][_userTokenId].started == false, \"Error: auction is already started\") */\n      tag_121\n      jumpi\n      mload(0x40)\n      0x08c379a000000000000000000000000000000000000000000000000000000000\n      dup2\n      mstore\n      0x04\n      add\n      tag_122\n      swap1\n      tag_123\n      jump\t// in\n    tag_122:\n      mload(0x40)\n      dup1\n      swap2\n      sub\n      swap1\n      revert\n    tag_121:\n        /* \"Competition/Auc.sol\":1232:1233  0 */\n      0x00\n        /* \"Competition/Auc.sol\":1220:1229  _minPrice */\n      dup3\n        /* \"Competition/Auc.sol\":1220:1233  _minPrice > 0 */\n      gt\n        /* \"Competition/Auc.sol\":1212:1280  require(_minPrice > 0, \"Error: minimal price must cost more than 0\") */\n      tag_124\n      jumpi\n      mload(0x40)\n      0x08c379a000000000000000000000000000000000000000000000000000000000\n      dup2\n      mstore\n      0x04\n      add\n      tag_125\n      swap1\n      tag_126\n      jump\t// in\n    tag_125:\n      mload(0x40)\n      dup1\n      swap2\n      sub\n      swap1\n      revert\n    tag_124:\n        /* \"Competition/Auc.sol\":1311:1320  _minPrice */\n      dup2\n        /* \"Competition/Auc.sol\":1299:1308  _maxPrice */\n      dup2\n        /* \"Competition/Auc.sol\":1299:1320  _maxPrice > _minPrice */\n      gt\n        /* \"Competition/Auc.sol\":1291:1374  require(_maxPrice > _minPrice, \"Error: max price must cost more than mainimal one\") */\n      tag_127\n      jumpi\n      mload(0x40)\n      0x08c379a000000000000000000000000000000000000000000000000000000000\n      dup2\n      mstore\n      0x04\n      add\n      tag_128\n      swap1\n      tag_129\n      jump\t// in\n    tag_128:\n      mload(0x40)\n      dup1\n      swap2\n      sub\n      swap1\n      revert\n    tag_127:\n        /* \"Competition/Auc.sol\":956:958  20 */\n      0x14\n        /* \"Competition/Auc.sol\":1393:1402  _duration */\n      dup4\n        /* \"Competition/Auc.sol\":1393:1422  _duration >= MINIMAL_DURATION */\n      lt\n      iszero\n        /* \"Competition/Auc.sol\":1385:1483  require(_duration >= MINIMAL_DURATION, \"Error: duration must be no shorter than minimal duration\") */\n      tag_130\n      jumpi\n      mload(0x40)\n      0x08c379a000000000000000000000000000000000000000000000000000000000\n      dup2\n      mstore\n      0x04\n      add\n      tag_131\n      swap1\n      tag_132\n      jump\t// in\n    tag_131:\n      mload(0x40)\n      dup1\n      swap2\n      sub\n      swap1\n      revert\n    tag_130:\n        /* \"Competition/Auc.sol\":1496:1568  _startAuction(msg.sender, _userTokenId, _duration, _minPrice, _maxPrice) */\n      tag_133\n        /* \"Competition/Auc.sol\":1510:1520  msg.sender */\n      caller\n        /* \"Competition/Auc.sol\":1522:1534  _userTokenId */\n      dup6\n        /* \"Competition/Auc.sol\":1536:1545  _duration */\n      dup6\n        /* \"Competition/Auc.sol\":1547:1556  _minPrice */\n      dup6\n        /* \"Competition/Auc.sol\":1558:1567  _maxPrice */\n      dup6\n        /* \"Competition/Auc.sol\":1496:1509  _startAuction */\n      tag_134\n        /* \"Competition/Auc.sol\":1496:1568  _startAuction(msg.sender, _userTokenId, _duration, _minPrice, _maxPrice) */\n      jump\t// in\n    tag_133:\n        /* \"Competition/Auc.sol\":992:1576  function startAuction(uint _userTokenId, uint _duration, uint _minPrice, uint _maxPrice) public {... */\n      pop\n      pop\n      pop\n      pop\n      jump\t// out\n        /* \"Competition/Auc.sol\":2102:2492  function finishAuction(uint _userTokenId) payable public {... */\n    tag_54:\n        /* \"Competition/Auc.sol\":2230:2235  false */\n      0x00\n        /* \"Competition/Auc.sol\":2178:2235  usersAuctions[msg.sender][_userTokenId].finished == false */\n      iszero\n      iszero\n        /* \"Competition/Auc.sol\":2178:2191  usersAuctions */\n      0x01\n        /* \"Competition/Auc.sol\":2178:2203  usersAuctions[msg.sender] */\n      0x00\n        /* \"Competition/Auc.sol\":2192:2202  msg.sender */\n      caller\n        /* \"Competition/Auc.sol\":2178:2203  usersAuctions[msg.sender] */\n      0xffffffffffffffffffffffffffffffffffffffff\n      and\n      0xffffffffffffffffffffffffffffffffffffffff\n      and\n      dup2\n      mstore\n      0x20\n      add\n      swap1\n      dup2\n      mstore\n      0x20\n      add\n      0x00\n      keccak256\n        /* \"Competition/Auc.sol\":2178:2217  usersAuctions[msg.sender][_userTokenId] */\n      0x00\n        /* \"Competition/Auc.sol\":2204:2216  _userTokenId */\n      dup4\n        /* \"Competition/Auc.sol\":2178:2217  usersAuctions[msg.sender][_userTokenId] */\n      dup2\n      mstore\n      0x20\n      add\n      swap1\n      dup2\n      mstore\n      0x20\n      add\n      0x00\n      keccak256\n        /* \"Competition/Auc.sol\":2178:2226  usersAuctions[msg.sender][_userTokenId].finished */\n      0x07\n      add\n      0x15\n      swap1\n      sload\n      swap1\n      0x0100\n      exp\n      swap1\n      div\n      0xff\n      and\n        /* \"Competition/Auc.sol\":2178:2235  usersAuctions[msg.sender][_userTokenId].finished == false */\n      iszero\n      iszero\n      eq\n        /* \"Competition/Auc.sol\":2170:2274  require(usersAuctions[msg.sender][_userTokenId].finished == false, \"Error: auction is already finished\") */\n      tag_136\n      jumpi\n      mload(0x40)\n      0x08c379a000000000000000000000000000000000000000000000000000000000\n      dup2\n      mstore\n      0x04\n      add\n      tag_137\n      swap1\n      tag_112\n      jump\t// in\n    tag_137:\n      mload(0x40)\n      dup1\n      swap2\n      sub\n      swap1\n      revert\n    tag_136:\n        /* \"Competition/Auc.sol\":956:958  20 */\n      0x14\n        /* \"Competition/Auc.sol\":2311:2324  usersAuctions */\n      0x01\n        /* \"Competition/Auc.sol\":2311:2336  usersAuctions[msg.sender] */\n      0x00\n        /* \"Competition/Auc.sol\":2325:2335  msg.sender */\n      caller\n        /* \"Competition/Auc.sol\":2311:2336  usersAuctions[msg.sender] */\n      0xffffffffffffffffffffffffffffffffffffffff\n      and\n      0xffffffffffffffffffffffffffffffffffffffff\n      and\n      dup2\n      mstore\n      0x20\n      add\n      swap1\n      dup2\n      mstore\n      0x20\n      add\n      0x00\n      keccak256\n        /* \"Competition/Auc.sol\":2311:2350  usersAuctions[msg.sender][_userTokenId] */\n      0x00\n        /* \"Competition/Auc.sol\":2337:2349  _userTokenId */\n      dup4\n        /* \"Competition/Auc.sol\":2311:2350  usersAuctions[msg.sender][_userTokenId] */\n      dup2\n      mstore\n      0x20\n      add\n      swap1\n      dup2\n      mstore\n      0x20\n      add\n      0x00\n      keccak256\n        /* \"Competition/Auc.sol\":2311:2362  usersAuctions[msg.sender][_userTokenId].timeStarted */\n      0x01\n      add\n      sload\n        /* \"Competition/Auc.sol\":2293:2308  block.timestamp */\n      timestamp\n        /* \"Competition/Auc.sol\":2293:2362  block.timestamp - usersAuctions[msg.sender][_userTokenId].timeStarted */\n      tag_138\n      swap2\n      swap1\n      tag_115\n      jump\t// in\n    tag_138:\n        /* \"Competition/Auc.sol\":2293:2381  block.timestamp - usersAuctions[msg.sender][_userTokenId].timeStarted > MINIMAL_DURATION */\n      gt\n        /* \"Competition/Auc.sol\":2285:2423  require(block.timestamp - usersAuctions[msg.sender][_userTokenId].timeStarted > MINIMAL_DURATION, \"Error: no reason to interrupt auction\") */\n      tag_139\n      jumpi\n      mload(0x40)\n      0x08c379a000000000000000000000000000000000000000000000000000000000\n      dup2\n      mstore\n      0x04\n      add\n      tag_140\n      swap1\n      tag_118\n      jump\t// in\n    tag_140:\n      mload(0x40)\n      dup1\n      swap2\n      sub\n      swap1\n      revert\n    tag_139:\n        /* \"Competition/Auc.sol\":2444:2484  _finishAuction(msg.sender, _userTokenId) */\n      tag_141\n        /* \"Competition/Auc.sol\":2459:2469  msg.sender */\n      caller\n        /* \"Competition/Auc.sol\":2471:2483  _userTokenId */\n      dup3\n        /* \"Competition/Auc.sol\":2444:2458  _finishAuction */\n      tag_42\n        /* \"Competition/Auc.sol\":2444:2484  _finishAuction(msg.sender, _userTokenId) */\n      jump\t// in\n    tag_141:\n        /* \"Competition/Auc.sol\":2102:2492  function finishAuction(uint _userTokenId) payable public {... */\n      pop\n      jump\t// out\n        /* \"Competition/Auc.sol\":689:756  mapping (address => mapping (uint => Auction)) public usersAuctions */\n    tag_58:\n      mstore(0x20, 0x01)\n      dup2\n      0x00\n      mstore\n      mstore(0x20, keccak256(0x00, 0x40))\n      dup1\n      0x00\n      mstore\n      keccak256(0x00, 0x40)\n      0x00\n      swap2\n      pop\n      swap2\n      pop\n      pop\n      dup1\n      0x00\n      add\n      sload\n      swap1\n      dup1\n      0x01\n      add\n      sload\n      swap1\n      dup1\n      0x02\n      add\n      sload\n      swap1\n      dup1\n      0x03\n      add\n      sload\n      swap1\n      dup1\n      0x04\n      add\n      sload\n      swap1\n      dup1\n      0x05\n      add\n      sload\n      swap1\n      dup1\n      0x06\n      add\n      0x00\n      swap1\n      sload\n      swap1\n      0x0100\n      exp\n      swap1\n      div\n      0xffffffffffffffffffffffffffffffffffffffff\n      and\n      swap1\n      dup1\n      0x07\n      add\n      0x00\n      swap1\n      sload\n      swap1\n      0x0100\n      exp\n      swap1\n      div\n      0xffffffffffffffffffffffffffffffffffffffff\n      and\n      swap1\n      dup1\n      0x07\n      add\n      0x14\n      swap1\n      sload\n      swap1\n      0x0100\n      exp\n      swap1\n      div\n      0xff\n      and\n      swap1\n      dup1\n      0x07\n      add\n      0x15\n      swap1\n      sload\n      swap1\n      0x0100\n      exp\n      swap1\n      div\n      0xff\n      and\n      swap1\n      dup1\n      0x07\n      add\n      0x16\n      swap1\n      sload\n      swap1\n      0x0100\n      exp\n      swap1\n      div\n      0xff\n      and\n      swap1\n      dup1\n      0x08\n      add\n      sload\n      swap1\n      pop\n      dup13\n      jump\t// out\n        /* \"Competition/Tokens/ERC1155.sol\":982:1163  function _safeTransferFrom(address _from, address _to, uint256 _id, uint256 _value) internal {... */\n    tag_91:\n        /* \"Competition/Tokens/ERC1155.sol\":1108:1114  _value */\n      dup1\n        /* \"Competition/Tokens/ERC1155.sol\":1086:1094  balances */\n      0x00\n        /* \"Competition/Tokens/ERC1155.sol\":1086:1099  balances[_to] */\n      dup1\n        /* \"Competition/Tokens/ERC1155.sol\":1095:1098  _to */\n      dup6\n        /* \"Competition/Tokens/ERC1155.sol\":1086:1099  balances[_to] */\n      0xffffffffffffffffffffffffffffffffffffffff\n      and\n      0xffffffffffffffffffffffffffffffffffffffff\n      and\n      dup2\n      mstore\n      0x20\n      add\n      swap1\n      dup2\n      mstore\n      0x20\n      add\n      0x00\n      keccak256\n        /* \"Competition/Tokens/ERC1155.sol\":1086:1104  balances[_to][_id] */\n      0x00\n        /* \"Competition/Tokens/ERC1155.sol\":1100:1103  _id */\n      dup5\n        /* \"Competition/Tokens/ERC1155.sol\":1086:1104  balances[_to][_id] */\n      dup2\n      mstore\n      0x20\n      add\n      swap1\n      dup2\n      mstore\n      0x20\n      add\n      0x00\n      keccak256\n      0x00\n        /* \"Competition/Tokens/ERC1155.sol\":1086:1114  balances[_to][_id] += _value */\n      dup3\n      dup3\n      sload\n      tag_143\n      swap2\n      swap1\n      tag_144\n      jump\t// in\n    tag_143:\n      swap3\n      pop\n      pop\n      dup2\n      swap1\n      sstore\n      pop\n        /* \"Competition/Tokens/ERC1155.sol\":1149:1155  _value */\n      dup1\n        /* \"Competition/Tokens/ERC1155.sol\":1125:1133  balances */\n      0x00\n        /* \"Competition/Tokens/ERC1155.sol\":1125:1140  balances[_from] */\n      dup1\n        /* \"Competition/Tokens/ERC1155.sol\":1134:1139  _from */\n      dup7\n        /* \"Competition/Tokens/ERC1155.sol\":1125:1140  balances[_from] */\n      0xffffffffffffffffffffffffffffffffffffffff\n      and\n      0xffffffffffffffffffffffffffffffffffffffff\n      and\n      dup2\n      mstore\n      0x20\n      add\n      swap1\n      dup2\n      mstore\n      0x20\n      add\n      0x00\n      keccak256\n        /* \"Competition/Tokens/ERC1155.sol\":1125:1145  balances[_from][_id] */\n      0x00\n        /* \"Competition/Tokens/ERC1155.sol\":1141:1144  _id */\n      dup5\n        /* \"Competition/Tokens/ERC1155.sol\":1125:1145  balances[_from][_id] */\n      dup2\n      mstore\n      0x20\n      add\n      swap1\n      dup2\n      mstore\n      0x20\n      add\n      0x00\n      keccak256\n      0x00\n        /* \"Competition/Tokens/ERC1155.sol\":1125:1155  balances[_from][_id] -= _value */\n      dup3\n      dup3\n      sload\n      tag_145\n      swap2\n      swap1\n      tag_115\n      jump\t// in\n    tag_145:\n      swap3\n      pop\n      pop\n      dup2\n      swap1\n      sstore\n      pop\n        /* \"Competition/Tokens/ERC1155.sol\":982:1163  function _safeTransferFrom(address _from, address _to, uint256 _id, uint256 _value) internal {... */\n      pop\n      pop\n      pop\n      pop\n      jump\t// out\n        /* \"Competition/Auc.sol\":4257:4808  function _bit(address _bitter, address _auctionOwner, uint _ownerTokenId, uint _amount) private {... */\n    tag_100:\n        /* \"Competition/Auc.sol\":4468:4469  0 */\n      0x00\n        /* \"Competition/Auc.sol\":4364:4374  lockedCash */\n      0x03\n        /* \"Competition/Auc.sol\":4364:4450  lockedCash[... */\n      0x00\n        /* \"Competition/Auc.sol\":4389:4402  usersAuctions */\n      0x01\n        /* \"Competition/Auc.sol\":4389:4417  usersAuctions[_auctionOwner] */\n      0x00\n        /* \"Competition/Auc.sol\":4403:4416  _auctionOwner */\n      dup8\n        /* \"Competition/Auc.sol\":4389:4417  usersAuctions[_auctionOwner] */\n      0xffffffffffffffffffffffffffffffffffffffff\n      and\n      0xffffffffffffffffffffffffffffffffffffffff\n      and\n      dup2\n      mstore\n      0x20\n      add\n      swap1\n      dup2\n      mstore\n      0x20\n      add\n      0x00\n      keccak256\n        /* \"Competition/Auc.sol\":4389:4432  usersAuctions[_auctionOwner][_ownerTokenId] */\n      0x00\n        /* \"Competition/Auc.sol\":4418:4431  _ownerTokenId */\n      dup7\n        /* \"Competition/Auc.sol\":4389:4432  usersAuctions[_auctionOwner][_ownerTokenId] */\n      dup2\n      mstore\n      0x20\n      add\n      swap1\n      dup2\n      mstore\n      0x20\n      add\n      0x00\n      keccak256\n        /* \"Competition/Auc.sol\":4389:4439  usersAuctions[_auctionOwner][_ownerTokenId].winner */\n      0x06\n      add\n      0x00\n      swap1\n      sload\n      swap1\n      0x0100\n      exp\n      swap1\n      div\n      0xffffffffffffffffffffffffffffffffffffffff\n      and\n        /* \"Competition/Auc.sol\":4364:4450  lockedCash[... */\n      0xffffffffffffffffffffffffffffffffffffffff\n      and\n      0xffffffffffffffffffffffffffffffffffffffff\n      and\n      dup2\n      mstore\n      0x20\n      add\n      swap1\n      dup2\n      mstore\n      0x20\n      add\n      0x00\n      keccak256\n        /* \"Competition/Auc.sol\":4364:4465  lockedCash[... */\n      0x00\n        /* \"Competition/Auc.sol\":4451:4464  _ownerTokenId */\n      dup5\n        /* \"Competition/Auc.sol\":4364:4465  lockedCash[... */\n      dup2\n      mstore\n      0x20\n      add\n      swap1\n      dup2\n      mstore\n      0x20\n      add\n      0x00\n      keccak256\n        /* \"Competition/Auc.sol\":4364:4469  lockedCash[... */\n      dup2\n      swap1\n      sstore\n      pop\n        /* \"Competition/Auc.sol\":4534:4541  _amount */\n      dup1\n        /* \"Competition/Auc.sol\":4482:4495  usersAuctions */\n      0x01\n        /* \"Competition/Auc.sol\":4482:4510  usersAuctions[_auctionOwner] */\n      0x00\n        /* \"Competition/Auc.sol\":4496:4509  _auctionOwner */\n      dup6\n        /* \"Competition/Auc.sol\":4482:4510  usersAuctions[_auctionOwner] */\n      0xffffffffffffffffffffffffffffffffffffffff\n      and\n      0xffffffffffffffffffffffffffffffffffffffff\n      and\n      dup2\n      mstore\n      0x20\n      add\n      swap1\n      dup2\n      mstore\n      0x20\n      add\n      0x00\n      keccak256\n        /* \"Competition/Auc.sol\":4482:4525  usersAuctions[_auctionOwner][_ownerTokenId] */\n      0x00\n        /* \"Competition/Auc.sol\":4511:4524  _ownerTokenId */\n      dup5\n        /* \"Competition/Auc.sol\":4482:4525  usersAuctions[_auctionOwner][_ownerTokenId] */\n      dup2\n      mstore\n      0x20\n      add\n      swap1\n      dup2\n      mstore\n      0x20\n      add\n      0x00\n      keccak256\n        /* \"Competition/Auc.sol\":4482:4531  usersAuctions[_auctionOwner][_ownerTokenId].price */\n      0x03\n      add\n        /* \"Competition/Auc.sol\":4482:4541  usersAuctions[_auctionOwner][_ownerTokenId].price = _amount */\n      dup2\n      swap1\n      sstore\n      pop\n        /* \"Competition/Auc.sol\":4589:4596  _amount */\n      dup1\n        /* \"Competition/Auc.sol\":4552:4562  lockedCash */\n      0x03\n        /* \"Competition/Auc.sol\":4552:4571  lockedCash[_bitter] */\n      0x00\n        /* \"Competition/Auc.sol\":4563:4570  _bitter */\n      dup7\n        /* \"Competition/Auc.sol\":4552:4571  lockedCash[_bitter] */\n      0xffffffffffffffffffffffffffffffffffffffff\n      and\n      0xffffffffffffffffffffffffffffffffffffffff\n      and\n      dup2\n      mstore\n      0x20\n      add\n      swap1\n      dup2\n      mstore\n      0x20\n      add\n      0x00\n      keccak256\n        /* \"Competition/Auc.sol\":4552:4586  lockedCash[_bitter][_ownerTokenId] */\n      0x00\n        /* \"Competition/Auc.sol\":4572:4585  _ownerTokenId */\n      dup5\n        /* \"Competition/Auc.sol\":4552:4586  lockedCash[_bitter][_ownerTokenId] */\n      dup2\n      mstore\n      0x20\n      add\n      swap1\n      dup2\n      mstore\n      0x20\n      add\n      0x00\n      keccak256\n        /* \"Competition/Auc.sol\":4552:4596  lockedCash[_bitter][_ownerTokenId] = _amount */\n      dup2\n      swap1\n      sstore\n      pop\n        /* \"Competition/Auc.sol\":4660:4667  _bitter */\n      dup4\n        /* \"Competition/Auc.sol\":4607:4620  usersAuctions */\n      0x01\n        /* \"Competition/Auc.sol\":4607:4635  usersAuctions[_auctionOwner] */\n      0x00\n        /* \"Competition/Auc.sol\":4621:4634  _auctionOwner */\n      dup6\n        /* \"Competition/Auc.sol\":4607:4635  usersAuctions[_auctionOwner] */\n      0xffffffffffffffffffffffffffffffffffffffff\n      and\n      0xffffffffffffffffffffffffffffffffffffffff\n      and\n      dup2\n      mstore\n      0x20\n      add\n      swap1\n      dup2\n      mstore\n      0x20\n      add\n      0x00\n      keccak256\n        /* \"Competition/Auc.sol\":4607:4650  usersAuctions[_auctionOwner][_ownerTokenId] */\n      0x00\n        /* \"Competition/Auc.sol\":4636:4649  _ownerTokenId */\n      dup5\n        /* \"Competition/Auc.sol\":4607:4650  usersAuctions[_auctionOwner][_ownerTokenId] */\n      dup2\n      mstore\n      0x20\n      add\n      swap1\n      dup2\n      mstore\n      0x20\n      add\n      0x00\n      keccak256\n        /* \"Competition/Auc.sol\":4607:4657  usersAuctions[_auctionOwner][_ownerTokenId].winner */\n      0x06\n      add\n      0x00\n        /* \"Competition/Auc.sol\":4607:4667  usersAuctions[_auctionOwner][_ownerTokenId].winner = _bitter */\n      0x0100\n      exp\n      dup2\n      sload\n      dup2\n      0xffffffffffffffffffffffffffffffffffffffff\n      mul\n      not\n      and\n      swap1\n      dup4\n      0xffffffffffffffffffffffffffffffffffffffff\n      and\n      mul\n      or\n      swap1\n      sstore\n      pop\n        /* \"Competition/Auc.sol\":4738:4751  usersAuctions */\n      0x01\n        /* \"Competition/Auc.sol\":4738:4766  usersAuctions[_auctionOwner] */\n      0x00\n        /* \"Competition/Auc.sol\":4752:4765  _auctionOwner */\n      dup5\n        /* \"Competition/Auc.sol\":4738:4766  usersAuctions[_auctionOwner] */\n      0xffffffffffffffffffffffffffffffffffffffff\n      and\n      0xffffffffffffffffffffffffffffffffffffffff\n      and\n      dup2\n      mstore\n      0x20\n      add\n      swap1\n      dup2\n      mstore\n      0x20\n      add\n      0x00\n      keccak256\n        /* \"Competition/Auc.sol\":4738:4781  usersAuctions[_auctionOwner][_ownerTokenId] */\n      0x00\n        /* \"Competition/Auc.sol\":4767:4780  _ownerTokenId */\n      dup4\n        /* \"Competition/Auc.sol\":4738:4781  usersAuctions[_auctionOwner][_ownerTokenId] */\n      dup2\n      mstore\n      0x20\n      add\n      swap1\n      dup2\n      mstore\n      0x20\n      add\n      0x00\n      keccak256\n        /* \"Competition/Auc.sol\":4738:4790  usersAuctions[_auctionOwner][_ownerTokenId].duration */\n      0x02\n      add\n      sload\n        /* \"Competition/Auc.sol\":4678:4691  usersAuctions */\n      0x01\n        /* \"Competition/Auc.sol\":4678:4706  usersAuctions[_auctionOwner] */\n      0x00\n        /* \"Competition/Auc.sol\":4692:4705  _auctionOwner */\n      dup6\n        /* \"Competition/Auc.sol\":4678:4706  usersAuctions[_auctionOwner] */\n      0xffffffffffffffffffffffffffffffffffffffff\n      and\n      0xffffffffffffffffffffffffffffffffffffffff\n      and\n      dup2\n      mstore\n      0x20\n      add\n      swap1\n      dup2\n      mstore\n      0x20\n      add\n      0x00\n      keccak256\n        /* \"Competition/Auc.sol\":4678:4721  usersAuctions[_auctionOwner][_ownerTokenId] */\n      0x00\n        /* \"Competition/Auc.sol\":4707:4720  _ownerTokenId */\n      dup5\n        /* \"Competition/Auc.sol\":4678:4721  usersAuctions[_auctionOwner][_ownerTokenId] */\n      dup2\n      mstore\n      0x20\n      add\n      swap1\n      dup2\n      mstore\n      0x20\n      add\n      0x00\n      keccak256\n        /* \"Competition/Auc.sol\":4678:4734  usersAuctions[_auctionOwner][_ownerTokenId].timeFinished */\n      0x08\n      add\n      0x00\n        /* \"Competition/Auc.sol\":4678:4790  usersAuctions[_auctionOwner][_ownerTokenId].timeFinished += usersAuctions[_auctionOwner][_ownerTokenId].duration */\n      dup3\n      dup3\n      sload\n      tag_147\n      swap2\n      swap1\n      tag_144\n      jump\t// in\n    tag_147:\n      swap3\n      pop\n      pop\n      dup2\n      swap1\n      sstore\n      pop\n        /* \"Competition/Auc.sol\":4257:4808  function _bit(address _bitter, address _auctionOwner, uint _ownerTokenId, uint _amount) private {... */\n      pop\n      pop\n      pop\n      pop\n      jump\t// out\n        /* \"Competition/Auc.sol\":2871:3523  function _startAuction(address _auctionOwner, uint _userTokenId, uint _duration, uint _minPrice, uint _maxPrice) private {... */\n    tag_134:\n        /* \"Competition/Auc.sol\":3003:3025  Auction memory auction */\n      tag_149\n      tag_150\n      jump\t// in\n    tag_149:\n        /* \"Competition/Auc.sol\":3055:3064  _duration */\n      dup4\n        /* \"Competition/Auc.sol\":3036:3043  auction */\n      dup2\n        /* \"Competition/Auc.sol\":3036:3052  auction.duration */\n      0x40\n      add\n        /* \"Competition/Auc.sol\":3036:3064  auction.duration = _duration */\n      dup2\n      dup2\n      mstore\n      pop\n      pop\n        /* \"Competition/Auc.sol\":3094:3103  _maxPrice */\n      dup2\n        /* \"Competition/Auc.sol\":3075:3082  auction */\n      dup2\n        /* \"Competition/Auc.sol\":3075:3091  auction.maxPrice */\n      0xa0\n      add\n        /* \"Competition/Auc.sol\":3075:3103  auction.maxPrice = _maxPrice */\n      dup2\n      dup2\n      mstore\n      pop\n      pop\n        /* \"Competition/Auc.sol\":3133:3142  _minPrice */\n      dup3\n        /* \"Competition/Auc.sol\":3114:3121  auction */\n      dup2\n        /* \"Competition/Auc.sol\":3114:3130  auction.minPrice */\n      0x80\n      add\n        /* \"Competition/Auc.sol\":3114:3142  auction.minPrice = _minPrice */\n      dup2\n      dup2\n      mstore\n      pop\n      pop\n        /* \"Competition/Auc.sol\":3169:3170  0 */\n      0x00\n        /* \"Competition/Auc.sol\":3153:3160  auction */\n      dup2\n        /* \"Competition/Auc.sol\":3153:3166  auction.price */\n      0x60\n      add\n        /* \"Competition/Auc.sol\":3153:3170  auction.price = 0 */\n      dup2\n      dup2\n      mstore\n      pop\n      pop\n        /* \"Competition/Auc.sol\":3203:3218  block.timestamp */\n      timestamp\n        /* \"Competition/Auc.sol\":3181:3188  auction */\n      dup2\n        /* \"Competition/Auc.sol\":3181:3200  auction.timeStarted */\n      0x20\n      add\n        /* \"Competition/Auc.sol\":3181:3218  auction.timeStarted = block.timestamp */\n      dup2\n      dup2\n      mstore\n      pop\n      pop\n        /* \"Competition/Auc.sol\":3254:3255  0 */\n      0x00\n        /* \"Competition/Auc.sol\":3229:3236  auction */\n      dup2\n        /* \"Competition/Auc.sol\":3229:3243  auction.winner */\n      0xc0\n      add\n        /* \"Competition/Auc.sol\":3229:3256  auction.winner = address(0) */\n      swap1\n      0xffffffffffffffffffffffffffffffffffffffff\n      and\n      swap1\n      dup2\n      0xffffffffffffffffffffffffffffffffffffffff\n      and\n      dup2\n      mstore\n      pop\n      pop\n        /* \"Competition/Auc.sol\":3297:3301  true */\n      0x01\n        /* \"Competition/Auc.sol\":3267:3274  auction */\n      dup2\n        /* \"Competition/Auc.sol\":3267:3294  auction.lockedDuringAuction */\n      0x0100\n      add\n        /* \"Competition/Auc.sol\":3267:3301  auction.lockedDuringAuction = true */\n      swap1\n      iszero\n      iszero\n      swap1\n      dup2\n      iszero\n      iszero\n      dup2\n      mstore\n      pop\n      pop\n        /* \"Competition/Auc.sol\":3330:3342  _userTokenId */\n      dup5\n        /* \"Competition/Auc.sol\":3312:3319  auction */\n      dup2\n        /* \"Competition/Auc.sol\":3312:3327  auction.tokenId */\n      0x00\n      add\n        /* \"Competition/Auc.sol\":3312:3342  auction.tokenId = _userTokenId */\n      dup2\n      dup2\n      mstore\n      pop\n      pop\n        /* \"Competition/Auc.sol\":3369:3382  _auctionOwner */\n      dup6\n        /* \"Competition/Auc.sol\":3353:3360  auction */\n      dup2\n        /* \"Competition/Auc.sol\":3353:3366  auction.owner */\n      0xe0\n      add\n        /* \"Competition/Auc.sol\":3353:3382  auction.owner = _auctionOwner */\n      swap1\n      0xffffffffffffffffffffffffffffffffffffffff\n      and\n      swap1\n      dup2\n      0xffffffffffffffffffffffffffffffffffffffff\n      and\n      dup2\n      mstore\n      pop\n      pop\n        /* \"Competition/Auc.sol\":3411:3415  true */\n      0x01\n        /* \"Competition/Auc.sol\":3393:3400  auction */\n      dup2\n        /* \"Competition/Auc.sol\":3393:3408  auction.started */\n      0x0140\n      add\n        /* \"Competition/Auc.sol\":3393:3415  auction.started = true */\n      swap1\n      iszero\n      iszero\n      swap1\n      dup2\n      iszero\n      iszero\n      dup2\n      mstore\n      pop\n      pop\n        /* \"Competition/Auc.sol\":3445:3450  false */\n      0x00\n        /* \"Competition/Auc.sol\":3426:3433  auction */\n      dup2\n        /* \"Competition/Auc.sol\":3426:3442  auction.finished */\n      0x0120\n      add\n        /* \"Competition/Auc.sol\":3426:3450  auction.finished = false */\n      swap1\n      iszero\n      iszero\n      swap1\n      dup2\n      iszero\n      iszero\n      dup2\n      mstore\n      pop\n      pop\n        /* \"Competition/Auc.sol\":3508:3515  auction */\n      dup1\n        /* \"Competition/Auc.sol\":3463:3476  usersAuctions */\n      0x01\n        /* \"Competition/Auc.sol\":3463:3491  usersAuctions[_auctionOwner] */\n      0x00\n        /* \"Competition/Auc.sol\":3477:3490  _auctionOwner */\n      dup9\n        /* \"Competition/Auc.sol\":3463:3491  usersAuctions[_auctionOwner] */\n      0xffffffffffffffffffffffffffffffffffffffff\n      and\n      0xffffffffffffffffffffffffffffffffffffffff\n      and\n      dup2\n      mstore\n      0x20\n      add\n      swap1\n      dup2\n      mstore\n      0x20\n      add\n      0x00\n      keccak256\n        /* \"Competition/Auc.sol\":3463:3505  usersAuctions[_auctionOwner][_userTokenId] */\n      0x00\n        /* \"Competition/Auc.sol\":3492:3504  _userTokenId */\n      dup8\n        /* \"Competition/Auc.sol\":3463:3505  usersAuctions[_auctionOwner][_userTokenId] */\n      dup2\n      mstore\n      0x20\n      add\n      swap1\n      dup2\n      mstore\n      0x20\n      add\n      0x00\n      keccak256\n        /* \"Competition/Auc.sol\":3463:3515  usersAuctions[_auctionOwner][_userTokenId] = auction */\n      0x00\n      dup3\n      add\n      mload\n      dup2\n      0x00\n      add\n      sstore\n      0x20\n      dup3\n      add\n      mload\n      dup2\n      0x01\n      add\n      sstore\n      0x40\n      dup3\n      add\n      mload\n      dup2\n      0x02\n      add\n      sstore\n      0x60\n      dup3\n      add\n      mload\n      dup2\n      0x03\n      add\n      sstore\n      0x80\n      dup3\n      add\n      mload\n      dup2\n      0x04\n      add\n      sstore\n      0xa0\n      dup3\n      add\n      mload\n      dup2\n      0x05\n      add\n      sstore\n      0xc0\n      dup3\n      add\n      mload\n      dup2\n      0x06\n      add\n      exp(0x0100, 0x00)\n      dup2\n      sload\n      dup2\n      0xffffffffffffffffffffffffffffffffffffffff\n      mul\n      not\n      and\n      swap1\n      dup4\n      0xffffffffffffffffffffffffffffffffffffffff\n      and\n      mul\n      or\n      swap1\n      sstore\n      pop\n      0xe0\n      dup3\n      add\n      mload\n      dup2\n      0x07\n      add\n      exp(0x0100, 0x00)\n      dup2\n      sload\n      dup2\n      0xffffffffffffffffffffffffffffffffffffffff\n      mul\n      not\n      and\n      swap1\n      dup4\n      0xffffffffffffffffffffffffffffffffffffffff\n      and\n      mul\n      or\n      swap1\n      sstore\n      pop\n      0x0100\n      dup3\n      add\n      mload\n      dup2\n      0x07\n      add\n      exp(0x0100, 0x14)\n      dup2\n      sload\n      dup2\n      0xff\n      mul\n      not\n      and\n      swap1\n      dup4\n      iszero\n      iszero\n      mul\n      or\n      swap1\n      sstore\n      pop\n      0x0120\n      dup3\n      add\n      mload\n      dup2\n      0x07\n      add\n      exp(0x0100, 0x15)\n      dup2\n      sload\n      dup2\n      0xff\n      mul\n      not\n      and\n      swap1\n      dup4\n      iszero\n      iszero\n      mul\n      or\n      swap1\n      sstore\n      pop\n      0x0140\n      dup3\n      add\n      mload\n      dup2\n      0x07\n      add\n      exp(0x0100, 0x16)\n      dup2\n      sload\n      dup2\n      0xff\n      mul\n      not\n      and\n      swap1\n      dup4\n      iszero\n      iszero\n      mul\n      or\n      swap1\n      sstore\n      pop\n      0x0160\n      dup3\n      add\n      mload\n      dup2\n      0x08\n      add\n      sstore\n      swap1\n      pop\n      pop\n        /* \"Competition/Auc.sol\":2992:3523  {... */\n      pop\n        /* \"Competition/Auc.sol\":2871:3523  function _startAuction(address _auctionOwner, uint _userTokenId, uint _duration, uint _minPrice, uint _maxPrice) private {... */\n      pop\n      pop\n      pop\n      pop\n      pop\n      jump\t// out\n    tag_150:\n      mload(0x40)\n      dup1\n      0x0180\n      add\n      0x40\n      mstore\n      dup1\n      0x00\n      dup2\n      mstore\n      0x20\n      add\n      0x00\n      dup2\n      mstore\n      0x20\n      add\n      0x00\n      dup2\n      mstore\n      0x20\n      add\n      0x00\n      dup2\n      mstore\n      0x20\n      add\n      0x00\n      dup2\n      mstore\n      0x20\n      add\n      0x00\n      dup2\n      mstore\n      0x20\n      add\n      and(0xffffffffffffffffffffffffffffffffffffffff, 0x00)\n      dup2\n      mstore\n      0x20\n      add\n      and(0xffffffffffffffffffffffffffffffffffffffff, 0x00)\n      dup2\n      mstore\n      0x20\n      add\n      iszero(iszero(0x00))\n      dup2\n      mstore\n      0x20\n      add\n      iszero(iszero(0x00))\n      dup2\n      mstore\n      0x20\n      add\n      iszero(iszero(0x00))\n      dup2\n      mstore\n      0x20\n      add\n      0x00\n      dup2\n      mstore\n      pop\n      swap1\n      jump\t// out\n        /* \"#utility.yul\":88:205   */\n    tag_152:\n        /* \"#utility.yul\":197:198   */\n      0x00\n        /* \"#utility.yul\":194:195   */\n      dup1\n        /* \"#utility.yul\":187:199   */\n      revert\n        /* \"#utility.yul\":334:460   */\n    tag_154:\n        /* \"#utility.yul\":371:378   */\n      0x00\n        /* \"#utility.yul\":411:453   */\n      0xffffffffffffffffffffffffffffffffffffffff\n        /* \"#utility.yul\":404:409   */\n      dup3\n        /* \"#utility.yul\":400:454   */\n      and\n        /* \"#utility.yul\":389:454   */\n      swap1\n      pop\n        /* \"#utility.yul\":334:460   */\n      swap2\n      swap1\n      pop\n      jump\t// out\n        /* \"#utility.yul\":466:562   */\n    tag_155:\n        /* \"#utility.yul\":503:510   */\n      0x00\n        /* \"#utility.yul\":532:556   */\n      tag_204\n        /* \"#utility.yul\":550:555   */\n      dup3\n        /* \"#utility.yul\":532:556   */\n      tag_154\n      jump\t// in\n    tag_204:\n        /* \"#utility.yul\":521:556   */\n      swap1\n      pop\n        /* \"#utility.yul\":466:562   */\n      swap2\n      swap1\n      pop\n      jump\t// out\n        /* \"#utility.yul\":568:690   */\n    tag_156:\n        /* \"#utility.yul\":641:665   */\n      tag_206\n        /* \"#utility.yul\":659:664   */\n      dup2\n        /* \"#utility.yul\":641:665   */\n      tag_155\n      jump\t// in\n    tag_206:\n        /* \"#utility.yul\":634:639   */\n      dup2\n        /* \"#utility.yul\":631:666   */\n      eq\n        /* \"#utility.yul\":621:684   */\n      tag_207\n      jumpi\n        /* \"#utility.yul\":680:681   */\n      0x00\n        /* \"#utility.yul\":677:678   */\n      dup1\n        /* \"#utility.yul\":670:682   */\n      revert\n        /* \"#utility.yul\":621:684   */\n    tag_207:\n        /* \"#utility.yul\":568:690   */\n      pop\n      jump\t// out\n        /* \"#utility.yul\":696:835   */\n    tag_157:\n        /* \"#utility.yul\":742:747   */\n      0x00\n        /* \"#utility.yul\":780:786   */\n      dup2\n        /* \"#utility.yul\":767:787   */\n      calldataload\n        /* \"#utility.yul\":758:787   */\n      swap1\n      pop\n        /* \"#utility.yul\":796:829   */\n      tag_209\n        /* \"#utility.yul\":823:828   */\n      dup2\n        /* \"#utility.yul\":796:829   */\n      tag_156\n      jump\t// in\n    tag_209:\n        /* \"#utility.yul\":696:835   */\n      swap3\n      swap2\n      pop\n      pop\n      jump\t// out\n        /* \"#utility.yul\":841:918   */\n    tag_158:\n        /* \"#utility.yul\":878:885   */\n      0x00\n        /* \"#utility.yul\":907:912   */\n      dup2\n        /* \"#utility.yul\":896:912   */\n      swap1\n      pop\n        /* \"#utility.yul\":841:918   */\n      swap2\n      swap1\n      pop\n      jump\t// out\n        /* \"#utility.yul\":924:1046   */\n    tag_159:\n        /* \"#utility.yul\":997:1021   */\n      tag_212\n        /* \"#utility.yul\":1015:1020   */\n      dup2\n        /* \"#utility.yul\":997:1021   */\n      tag_158\n      jump\t// in\n    tag_212:\n        /* \"#utility.yul\":990:995   */\n      dup2\n        /* \"#utility.yul\":987:1022   */\n      eq\n        /* \"#utility.yul\":977:1040   */\n      tag_213\n      jumpi\n        /* \"#utility.yul\":1036:1037   */\n      0x00\n        /* \"#utility.yul\":1033:1034   */\n      dup1\n        /* \"#utility.yul\":1026:1038   */\n      revert\n        /* \"#utility.yul\":977:1040   */\n    tag_213:\n        /* \"#utility.yul\":924:1046   */\n      pop\n      jump\t// out\n        /* \"#utility.yul\":1052:1191   */\n    tag_160:\n        /* \"#utility.yul\":1098:1103   */\n      0x00\n        /* \"#utility.yul\":1136:1142   */\n      dup2\n        /* \"#utility.yul\":1123:1143   */\n      calldataload\n        /* \"#utility.yul\":1114:1143   */\n      swap1\n      pop\n        /* \"#utility.yul\":1152:1185   */\n      tag_215\n        /* \"#utility.yul\":1179:1184   */\n      dup2\n        /* \"#utility.yul\":1152:1185   */\n      tag_159\n      jump\t// in\n    tag_215:\n        /* \"#utility.yul\":1052:1191   */\n      swap3\n      swap2\n      pop\n      pop\n      jump\t// out\n        /* \"#utility.yul\":1197:1671   */\n    tag_16:\n        /* \"#utility.yul\":1265:1271   */\n      0x00\n        /* \"#utility.yul\":1273:1279   */\n      dup1\n        /* \"#utility.yul\":1322:1324   */\n      0x40\n        /* \"#utility.yul\":1310:1319   */\n      dup4\n        /* \"#utility.yul\":1301:1308   */\n      dup6\n        /* \"#utility.yul\":1297:1320   */\n      sub\n        /* \"#utility.yul\":1293:1325   */\n      slt\n        /* \"#utility.yul\":1290:1409   */\n      iszero\n      tag_217\n      jumpi\n        /* \"#utility.yul\":1328:1407   */\n      tag_218\n      tag_152\n      jump\t// in\n    tag_218:\n        /* \"#utility.yul\":1290:1409   */\n    tag_217:\n        /* \"#utility.yul\":1448:1449   */\n      0x00\n        /* \"#utility.yul\":1473:1526   */\n      tag_219\n        /* \"#utility.yul\":1518:1525   */\n      dup6\n        /* \"#utility.yul\":1509:1515   */\n      dup3\n        /* \"#utility.yul\":1498:1507   */\n      dup7\n        /* \"#utility.yul\":1494:1516   */\n      add\n        /* \"#utility.yul\":1473:1526   */\n      tag_157\n      jump\t// in\n    tag_219:\n        /* \"#utility.yul\":1463:1526   */\n      swap3\n      pop\n        /* \"#utility.yul\":1419:1536   */\n      pop\n        /* \"#utility.yul\":1575:1577   */\n      0x20\n        /* \"#utility.yul\":1601:1654   */\n      tag_220\n        /* \"#utility.yul\":1646:1653   */\n      dup6\n        /* \"#utility.yul\":1637:1643   */\n      dup3\n        /* \"#utility.yul\":1626:1635   */\n      dup7\n        /* \"#utility.yul\":1622:1644   */\n      add\n        /* \"#utility.yul\":1601:1654   */\n      tag_160\n      jump\t// in\n    tag_220:\n        /* \"#utility.yul\":1591:1654   */\n      swap2\n      pop\n        /* \"#utility.yul\":1546:1664   */\n      pop\n        /* \"#utility.yul\":1197:1671   */\n      swap3\n      pop\n      swap3\n      swap1\n      pop\n      jump\t// out\n        /* \"#utility.yul\":1677:1795   */\n    tag_161:\n        /* \"#utility.yul\":1764:1788   */\n      tag_222\n        /* \"#utility.yul\":1782:1787   */\n      dup2\n        /* \"#utility.yul\":1764:1788   */\n      tag_158\n      jump\t// in\n    tag_222:\n        /* \"#utility.yul\":1759:1762   */\n      dup3\n        /* \"#utility.yul\":1752:1789   */\n      mstore\n        /* \"#utility.yul\":1677:1795   */\n      pop\n      pop\n      jump\t// out\n        /* \"#utility.yul\":1801:2023   */\n    tag_19:\n        /* \"#utility.yul\":1894:1898   */\n      0x00\n        /* \"#utility.yul\":1932:1934   */\n      0x20\n        /* \"#utility.yul\":1921:1930   */\n      dup3\n        /* \"#utility.yul\":1917:1935   */\n      add\n        /* \"#utility.yul\":1909:1935   */\n      swap1\n      pop\n        /* \"#utility.yul\":1945:2016   */\n      tag_224\n        /* \"#utility.yul\":2013:2014   */\n      0x00\n        /* \"#utility.yul\":2002:2011   */\n      dup4\n        /* \"#utility.yul\":1998:2015   */\n      add\n        /* \"#utility.yul\":1989:1995   */\n      dup5\n        /* \"#utility.yul\":1945:2016   */\n      tag_161\n      jump\t// in\n    tag_224:\n        /* \"#utility.yul\":1801:2023   */\n      swap3\n      swap2\n      pop\n      pop\n      jump\t// out\n        /* \"#utility.yul\":2029:2128   */\n    tag_162:\n        /* \"#utility.yul\":2081:2087   */\n      0x00\n        /* \"#utility.yul\":2115:2120   */\n      dup2\n        /* \"#utility.yul\":2109:2121   */\n      mload\n        /* \"#utility.yul\":2099:2121   */\n      swap1\n      pop\n        /* \"#utility.yul\":2029:2128   */\n      swap2\n      swap1\n      pop\n      jump\t// out\n        /* \"#utility.yul\":2134:2303   */\n    tag_163:\n        /* \"#utility.yul\":2218:2229   */\n      0x00\n        /* \"#utility.yul\":2252:2258   */\n      dup3\n        /* \"#utility.yul\":2247:2250   */\n      dup3\n        /* \"#utility.yul\":2240:2259   */\n      mstore\n        /* \"#utility.yul\":2292:2296   */\n      0x20\n        /* \"#utility.yul\":2287:2290   */\n      dup3\n        /* \"#utility.yul\":2283:2297   */\n      add\n        /* \"#utility.yul\":2268:2297   */\n      swap1\n      pop\n        /* \"#utility.yul\":2134:2303   */\n      swap3\n      swap2\n      pop\n      pop\n      jump\t// out\n        /* \"#utility.yul\":2309:2555   */\n    tag_164:\n        /* \"#utility.yul\":2390:2391   */\n      0x00\n        /* \"#utility.yul\":2400:2513   */\n    tag_228:\n        /* \"#utility.yul\":2414:2420   */\n      dup4\n        /* \"#utility.yul\":2411:2412   */\n      dup2\n        /* \"#utility.yul\":2408:2421   */\n      lt\n        /* \"#utility.yul\":2400:2513   */\n      iszero\n      tag_230\n      jumpi\n        /* \"#utility.yul\":2499:2500   */\n      dup1\n        /* \"#utility.yul\":2494:2497   */\n      dup3\n        /* \"#utility.yul\":2490:2501   */\n      add\n        /* \"#utility.yul\":2484:2502   */\n      mload\n        /* \"#utility.yul\":2480:2481   */\n      dup2\n        /* \"#utility.yul\":2475:2478   */\n      dup5\n        /* \"#utility.yul\":2471:2482   */\n      add\n        /* \"#utility.yul\":2464:2503   */\n      mstore\n        /* \"#utility.yul\":2436:2438   */\n      0x20\n        /* \"#utility.yul\":2433:2434   */\n      dup2\n        /* \"#utility.yul\":2429:2439   */\n      add\n        /* \"#utility.yul\":2424:2439   */\n      swap1\n      pop\n        /* \"#utility.yul\":2400:2513   */\n      jump(tag_228)\n    tag_230:\n        /* \"#utility.yul\":2547:2548   */\n      0x00\n        /* \"#utility.yul\":2538:2544   */\n      dup5\n        /* \"#utility.yul\":2533:2536   */\n      dup5\n        /* \"#utility.yul\":2529:2545   */\n      add\n        /* \"#utility.yul\":2522:2549   */\n      mstore\n        /* \"#utility.yul\":2371:2555   */\n      pop\n        /* \"#utility.yul\":2309:2555   */\n      pop\n      pop\n      pop\n      jump\t// out\n        /* \"#utility.yul\":2561:2663   */\n    tag_165:\n        /* \"#utility.yul\":2602:2608   */\n      0x00\n        /* \"#utility.yul\":2653:2655   */\n      0x1f\n        /* \"#utility.yul\":2649:2656   */\n      not\n        /* \"#utility.yul\":2644:2646   */\n      0x1f\n        /* \"#utility.yul\":2637:2642   */\n      dup4\n        /* \"#utility.yul\":2633:2647   */\n      add\n        /* \"#utility.yul\":2629:2657   */\n      and\n        /* \"#utility.yul\":2619:2657   */\n      swap1\n      pop\n        /* \"#utility.yul\":2561:2663   */\n      swap2\n      swap1\n      pop\n      jump\t// out\n        /* \"#utility.yul\":2669:3046   */\n    tag_166:\n        /* \"#utility.yul\":2757:2760   */\n      0x00\n        /* \"#utility.yul\":2785:2824   */\n      tag_233\n        /* \"#utility.yul\":2818:2823   */\n      dup3\n        /* \"#utility.yul\":2785:2824   */\n      tag_162\n      jump\t// in\n    tag_233:\n        /* \"#utility.yul\":2840:2911   */\n      tag_234\n        /* \"#utility.yul\":2904:2910   */\n      dup2\n        /* \"#utility.yul\":2899:2902   */\n      dup6\n        /* \"#utility.yul\":2840:2911   */\n      tag_163\n      jump\t// in\n    tag_234:\n        /* \"#utility.yul\":2833:2911   */\n      swap4\n      pop\n        /* \"#utility.yul\":2920:2985   */\n      tag_235\n        /* \"#utility.yul\":2978:2984   */\n      dup2\n        /* \"#utility.yul\":2973:2976   */\n      dup6\n        /* \"#utility.yul\":2966:2970   */\n      0x20\n        /* \"#utility.yul\":2959:2964   */\n      dup7\n        /* \"#utility.yul\":2955:2971   */\n      add\n        /* \"#utility.yul\":2920:2985   */\n      tag_164\n      jump\t// in\n    tag_235:\n        /* \"#utility.yul\":3010:3039   */\n      tag_236\n        /* \"#utility.yul\":3032:3038   */\n      dup2\n        /* \"#utility.yul\":3010:3039   */\n      tag_165\n      jump\t// in\n    tag_236:\n        /* \"#utility.yul\":3005:3008   */\n      dup5\n        /* \"#utility.yul\":3001:3040   */\n      add\n        /* \"#utility.yul\":2994:3040   */\n      swap2\n      pop\n        /* \"#utility.yul\":2761:3046   */\n      pop\n        /* \"#utility.yul\":2669:3046   */\n      swap3\n      swap2\n      pop\n      pop\n      jump\t// out\n        /* \"#utility.yul\":3052:4211   */\n    tag_25:\n        /* \"#utility.yul\":3373:3377   */\n      0x00\n        /* \"#utility.yul\":3411:3414   */\n      0xe0\n        /* \"#utility.yul\":3400:3409   */\n      dup3\n        /* \"#utility.yul\":3396:3415   */\n      add\n        /* \"#utility.yul\":3388:3415   */\n      swap1\n      pop\n        /* \"#utility.yul\":3461:3470   */\n      dup2\n        /* \"#utility.yul\":3455:3459   */\n      dup2\n        /* \"#utility.yul\":3451:3471   */\n      sub\n        /* \"#utility.yul\":3447:3448   */\n      0x00\n        /* \"#utility.yul\":3436:3445   */\n      dup4\n        /* \"#utility.yul\":3432:3449   */\n      add\n        /* \"#utility.yul\":3425:3472   */\n      mstore\n        /* \"#utility.yul\":3489:3567   */\n      tag_238\n        /* \"#utility.yul\":3562:3566   */\n      dup2\n        /* \"#utility.yul\":3553:3559   */\n      dup11\n        /* \"#utility.yul\":3489:3567   */\n      tag_166\n      jump\t// in\n    tag_238:\n        /* \"#utility.yul\":3481:3567   */\n      swap1\n      pop\n        /* \"#utility.yul\":3614:3623   */\n      dup2\n        /* \"#utility.yul\":3608:3612   */\n      dup2\n        /* \"#utility.yul\":3604:3624   */\n      sub\n        /* \"#utility.yul\":3599:3601   */\n      0x20\n        /* \"#utility.yul\":3588:3597   */\n      dup4\n        /* \"#utility.yul\":3584:3602   */\n      add\n        /* \"#utility.yul\":3577:3625   */\n      mstore\n        /* \"#utility.yul\":3642:3720   */\n      tag_239\n        /* \"#utility.yul\":3715:3719   */\n      dup2\n        /* \"#utility.yul\":3706:3712   */\n      dup10\n        /* \"#utility.yul\":3642:3720   */\n      tag_166\n      jump\t// in\n    tag_239:\n        /* \"#utility.yul\":3634:3720   */\n      swap1\n      pop\n        /* \"#utility.yul\":3767:3776   */\n      dup2\n        /* \"#utility.yul\":3761:3765   */\n      dup2\n        /* \"#utility.yul\":3757:3777   */\n      sub\n        /* \"#utility.yul\":3752:3754   */\n      0x40\n        /* \"#utility.yul\":3741:3750   */\n      dup4\n        /* \"#utility.yul\":3737:3755   */\n      add\n        /* \"#utility.yul\":3730:3778   */\n      mstore\n        /* \"#utility.yul\":3795:3873   */\n      tag_240\n        /* \"#utility.yul\":3868:3872   */\n      dup2\n        /* \"#utility.yul\":3859:3865   */\n      dup9\n        /* \"#utility.yul\":3795:3873   */\n      tag_166\n      jump\t// in\n    tag_240:\n        /* \"#utility.yul\":3787:3873   */\n      swap1\n      pop\n        /* \"#utility.yul\":3883:3955   */\n      tag_241\n        /* \"#utility.yul\":3951:3953   */\n      0x60\n        /* \"#utility.yul\":3940:3949   */\n      dup4\n        /* \"#utility.yul\":3936:3954   */\n      add\n        /* \"#utility.yul\":3927:3933   */\n      dup8\n        /* \"#utility.yul\":3883:3955   */\n      tag_161\n      jump\t// in\n    tag_241:\n        /* \"#utility.yul\":3965:4038   */\n      tag_242\n        /* \"#utility.yul\":4033:4036   */\n      0x80\n        /* \"#utility.yul\":4022:4031   */\n      dup4\n        /* \"#utility.yul\":4018:4037   */\n      add\n        /* \"#utility.yul\":4009:4015   */\n      dup7\n        /* \"#utility.yul\":3965:4038   */\n      tag_161\n      jump\t// in\n    tag_242:\n        /* \"#utility.yul\":4048:4121   */\n      tag_243\n        /* \"#utility.yul\":4116:4119   */\n      0xa0\n        /* \"#utility.yul\":4105:4114   */\n      dup4\n        /* \"#utility.yul\":4101:4120   */\n      add\n        /* \"#utility.yul\":4092:4098   */\n      dup6\n        /* \"#utility.yul\":4048:4121   */\n      tag_161\n      jump\t// in\n    tag_243:\n        /* \"#utility.yul\":4131:4204   */\n      tag_244\n        /* \"#utility.yul\":4199:4202   */\n      0xc0\n        /* \"#utility.yul\":4188:4197   */\n      dup4\n        /* \"#utility.yul\":4184:4203   */\n      add\n        /* \"#utility.yul\":4175:4181   */\n      dup5\n        /* \"#utility.yul\":4131:4204   */\n      tag_161\n      jump\t// in\n    tag_244:\n        /* \"#utility.yul\":3052:4211   */\n      swap9\n      swap8\n      pop\n      pop\n      pop\n      pop\n      pop\n      pop\n      pop\n      pop\n      jump\t// out\n        /* \"#utility.yul\":4217:4982   */\n    tag_28:\n        /* \"#utility.yul\":4303:4309   */\n      0x00\n        /* \"#utility.yul\":4311:4317   */\n      dup1\n        /* \"#utility.yul\":4319:4325   */\n      0x00\n        /* \"#utility.yul\":4327:4333   */\n      dup1\n        /* \"#utility.yul\":4376:4379   */\n      0x80\n        /* \"#utility.yul\":4364:4373   */\n      dup6\n        /* \"#utility.yul\":4355:4362   */\n      dup8\n        /* \"#utility.yul\":4351:4374   */\n      sub\n        /* \"#utility.yul\":4347:4380   */\n      slt\n        /* \"#utility.yul\":4344:4464   */\n      iszero\n      tag_246\n      jumpi\n        /* \"#utility.yul\":4383:4462   */\n      tag_247\n      tag_152\n      jump\t// in\n    tag_247:\n        /* \"#utility.yul\":4344:4464   */\n    tag_246:\n        /* \"#utility.yul\":4503:4504   */\n      0x00\n        /* \"#utility.yul\":4528:4581   */\n      tag_248\n        /* \"#utility.yul\":4573:4580   */\n      dup8\n        /* \"#utility.yul\":4564:4570   */\n      dup3\n        /* \"#utility.yul\":4553:4562   */\n      dup9\n        /* \"#utility.yul\":4549:4571   */\n      add\n        /* \"#utility.yul\":4528:4581   */\n      tag_157\n      jump\t// in\n    tag_248:\n        /* \"#utility.yul\":4518:4581   */\n      swap5\n      pop\n        /* \"#utility.yul\":4474:4591   */\n      pop\n        /* \"#utility.yul\":4630:4632   */\n      0x20\n        /* \"#utility.yul\":4656:4709   */\n      tag_249\n        /* \"#utility.yul\":4701:4708   */\n      dup8\n        /* \"#utility.yul\":4692:4698   */\n      dup3\n        /* \"#utility.yul\":4681:4690   */\n      dup9\n        /* \"#utility.yul\":4677:4699   */\n      add\n        /* \"#utility.yul\":4656:4709   */\n      tag_157\n      jump\t// in\n    tag_249:\n        /* \"#utility.yul\":4646:4709   */\n      swap4\n      pop\n        /* \"#utility.yul\":4601:4719   */\n      pop\n        /* \"#utility.yul\":4758:4760   */\n      0x40\n        /* \"#utility.yul\":4784:4837   */\n      tag_250\n        /* \"#utility.yul\":4829:4836   */\n      dup8\n        /* \"#utility.yul\":4820:4826   */\n      dup3\n        /* \"#utility.yul\":4809:4818   */\n      dup9\n        /* \"#utility.yul\":4805:4827   */\n      add\n        /* \"#utility.yul\":4784:4837   */\n      tag_160\n      jump\t// in\n    tag_250:\n        /* \"#utility.yul\":4774:4837   */\n      swap3\n      pop\n        /* \"#utility.yul\":4729:4847   */\n      pop\n        /* \"#utility.yul\":4886:4888   */\n      0x60\n        /* \"#utility.yul\":4912:4965   */\n      tag_251\n        /* \"#utility.yul\":4957:4964   */\n      dup8\n        /* \"#utility.yul\":4948:4954   */\n      dup3\n        /* \"#utility.yul\":4937:4946   */\n      dup9\n        /* \"#utility.yul\":4933:4955   */\n      add\n        /* \"#utility.yul\":4912:4965   */\n      tag_160\n      jump\t// in\n    tag_251:\n        /* \"#utility.yul\":4902:4965   */\n      swap2\n      pop\n        /* \"#utility.yul\":4857:4975   */\n      pop\n        /* \"#utility.yul\":4217:4982   */\n      swap3\n      swap6\n      swap2\n      swap5\n      pop\n      swap3\n      pop\n      jump\t// out\n        /* \"#utility.yul\":4988:5607   */\n    tag_38:\n        /* \"#utility.yul\":5065:5071   */\n      0x00\n        /* \"#utility.yul\":5073:5079   */\n      dup1\n        /* \"#utility.yul\":5081:5087   */\n      0x00\n        /* \"#utility.yul\":5130:5132   */\n      0x60\n        /* \"#utility.yul\":5118:5127   */\n      dup5\n        /* \"#utility.yul\":5109:5116   */\n      dup7\n        /* \"#utility.yul\":5105:5128   */\n      sub\n        /* \"#utility.yul\":5101:5133   */\n      slt\n        /* \"#utility.yul\":5098:5217   */\n      iszero\n      tag_253\n      jumpi\n        /* \"#utility.yul\":5136:5215   */\n      tag_254\n      tag_152\n      jump\t// in\n    tag_254:\n        /* \"#utility.yul\":5098:5217   */\n    tag_253:\n        /* \"#utility.yul\":5256:5257   */\n      0x00\n        /* \"#utility.yul\":5281:5334   */\n      tag_255\n        /* \"#utility.yul\":5326:5333   */\n      dup7\n        /* \"#utility.yul\":5317:5323   */\n      dup3\n        /* \"#utility.yul\":5306:5315   */\n      dup8\n        /* \"#utility.yul\":5302:5324   */\n      add\n        /* \"#utility.yul\":5281:5334   */\n      tag_157\n      jump\t// in\n    tag_255:\n        /* \"#utility.yul\":5271:5334   */\n      swap4\n      pop\n        /* \"#utility.yul\":5227:5344   */\n      pop\n        /* \"#utility.yul\":5383:5385   */\n      0x20\n        /* \"#utility.yul\":5409:5462   */\n      tag_256\n        /* \"#utility.yul\":5454:5461   */\n      dup7\n        /* \"#utility.yul\":5445:5451   */\n      dup3\n        /* \"#utility.yul\":5434:5443   */\n      dup8\n        /* \"#utility.yul\":5430:5452   */\n      add\n        /* \"#utility.yul\":5409:5462   */\n      tag_160\n      jump\t// in\n    tag_256:\n        /* \"#utility.yul\":5399:5462   */\n      swap3\n      pop\n        /* \"#utility.yul\":5354:5472   */\n      pop\n        /* \"#utility.yul\":5511:5513   */\n      0x40\n        /* \"#utility.yul\":5537:5590   */\n      tag_257\n        /* \"#utility.yul\":5582:5589   */\n      dup7\n        /* \"#utility.yul\":5573:5579   */\n      dup3\n        /* \"#utility.yul\":5562:5571   */\n      dup8\n        /* \"#utility.yul\":5558:5580   */\n      add\n        /* \"#utility.yul\":5537:5590   */\n      tag_160\n      jump\t// in\n    tag_257:\n        /* \"#utility.yul\":5527:5590   */\n      swap2\n      pop\n        /* \"#utility.yul\":5482:5600   */\n      pop\n        /* \"#utility.yul\":4988:5607   */\n      swap3\n      pop\n      swap3\n      pop\n      swap3\n      jump\t// out\n        /* \"#utility.yul\":5613:5942   */\n    tag_45:\n        /* \"#utility.yul\":5672:5678   */\n      0x00\n        /* \"#utility.yul\":5721:5723   */\n      0x20\n        /* \"#utility.yul\":5709:5718   */\n      dup3\n        /* \"#utility.yul\":5700:5707   */\n      dup5\n        /* \"#utility.yul\":5696:5719   */\n      sub\n        /* \"#utility.yul\":5692:5724   */\n      slt\n        /* \"#utility.yul\":5689:5808   */\n      iszero\n      tag_259\n      jumpi\n        /* \"#utility.yul\":5727:5806   */\n      tag_260\n      tag_152\n      jump\t// in\n    tag_260:\n        /* \"#utility.yul\":5689:5808   */\n    tag_259:\n        /* \"#utility.yul\":5847:5848   */\n      0x00\n        /* \"#utility.yul\":5872:5925   */\n      tag_261\n        /* \"#utility.yul\":5917:5924   */\n      dup5\n        /* \"#utility.yul\":5908:5914   */\n      dup3\n        /* \"#utility.yul\":5897:5906   */\n      dup6\n        /* \"#utility.yul\":5893:5915   */\n      add\n        /* \"#utility.yul\":5872:5925   */\n      tag_160\n      jump\t// in\n    tag_261:\n        /* \"#utility.yul\":5862:5925   */\n      swap2\n      pop\n        /* \"#utility.yul\":5818:5935   */\n      pop\n        /* \"#utility.yul\":5613:5942   */\n      swap3\n      swap2\n      pop\n      pop\n      jump\t// out\n        /* \"#utility.yul\":5948:6713   */\n    tag_50:\n        /* \"#utility.yul\":6034:6040   */\n      0x00\n        /* \"#utility.yul\":6042:6048   */\n      dup1\n        /* \"#utility.yul\":6050:6056   */\n      0x00\n        /* \"#utility.yul\":6058:6064   */\n      dup1\n        /* \"#utility.yul\":6107:6110   */\n      0x80\n        /* \"#utility.yul\":6095:6104   */\n      dup6\n        /* \"#utility.yul\":6086:6093   */\n      dup8\n        /* \"#utility.yul\":6082:6105   */\n      sub\n        /* \"#utility.yul\":6078:6111   */\n      slt\n        /* \"#utility.yul\":6075:6195   */\n      iszero\n      tag_263\n      jumpi\n        /* \"#utility.yul\":6114:6193   */\n      tag_264\n      tag_152\n      jump\t// in\n    tag_264:\n        /* \"#utility.yul\":6075:6195   */\n    tag_263:\n        /* \"#utility.yul\":6234:6235   */\n      0x00\n        /* \"#utility.yul\":6259:6312   */\n      tag_265\n        /* \"#utility.yul\":6304:6311   */\n      dup8\n        /* \"#utility.yul\":6295:6301   */\n      dup3\n        /* \"#utility.yul\":6284:6293   */\n      dup9\n        /* \"#utility.yul\":6280:6302   */\n      add\n        /* \"#utility.yul\":6259:6312   */\n      tag_160\n      jump\t// in\n    tag_265:\n        /* \"#utility.yul\":6249:6312   */\n      swap5\n      pop\n        /* \"#utility.yul\":6205:6322   */\n      pop\n        /* \"#utility.yul\":6361:6363   */\n      0x20\n        /* \"#utility.yul\":6387:6440   */\n      tag_266\n        /* \"#utility.yul\":6432:6439   */\n      dup8\n        /* \"#utility.yul\":6423:6429   */\n      dup3\n        /* \"#utility.yul\":6412:6421   */\n      dup9\n        /* \"#utility.yul\":6408:6430   */\n      add\n        /* \"#utility.yul\":6387:6440   */\n      tag_160\n      jump\t// in\n    tag_266:\n        /* \"#utility.yul\":6377:6440   */\n      swap4\n      pop\n        /* \"#utility.yul\":6332:6450   */\n      pop\n        /* \"#utility.yul\":6489:6491   */\n      0x40\n        /* \"#utility.yul\":6515:6568   */\n      tag_267\n        /* \"#utility.yul\":6560:6567   */\n      dup8\n        /* \"#utility.yul\":6551:6557   */\n      dup3\n        /* \"#utility.yul\":6540:6549   */\n      dup9\n        /* \"#utility.yul\":6536:6558   */\n      add\n        /* \"#utility.yul\":6515:6568   */\n      tag_160\n      jump\t// in\n    tag_267:\n        /* \"#utility.yul\":6505:6568   */\n      swap3\n      pop\n        /* \"#utility.yul\":6460:6578   */\n      pop\n        /* \"#utility.yul\":6617:6619   */\n      0x60\n        /* \"#utility.yul\":6643:6696   */\n      tag_268\n        /* \"#utility.yul\":6688:6695   */\n      dup8\n        /* \"#utility.yul\":6679:6685   */\n      dup3\n        /* \"#utility.yul\":6668:6677   */\n      dup9\n        /* \"#utility.yul\":6664:6686   */\n      add\n        /* \"#utility.yul\":6643:6696   */\n      tag_160\n      jump\t// in\n    tag_268:\n        /* \"#utility.yul\":6633:6696   */\n      swap2\n      pop\n        /* \"#utility.yul\":6588:6706   */\n      pop\n        /* \"#utility.yul\":5948:6713   */\n      swap3\n      swap6\n      swap2\n      swap5\n      pop\n      swap3\n      pop\n      jump\t// out\n        /* \"#utility.yul\":6719:6837   */\n    tag_167:\n        /* \"#utility.yul\":6806:6830   */\n      tag_270\n        /* \"#utility.yul\":6824:6829   */\n      dup2\n        /* \"#utility.yul\":6806:6830   */\n      tag_155\n      jump\t// in\n    tag_270:\n        /* \"#utility.yul\":6801:6804   */\n      dup3\n        /* \"#utility.yul\":6794:6831   */\n      mstore\n        /* \"#utility.yul\":6719:6837   */\n      pop\n      pop\n      jump\t// out\n        /* \"#utility.yul\":6843:6933   */\n    tag_168:\n        /* \"#utility.yul\":6877:6884   */\n      0x00\n        /* \"#utility.yul\":6920:6925   */\n      dup2\n        /* \"#utility.yul\":6913:6926   */\n      iszero\n        /* \"#utility.yul\":6906:6927   */\n      iszero\n        /* \"#utility.yul\":6895:6927   */\n      swap1\n      pop\n        /* \"#utility.yul\":6843:6933   */\n      swap2\n      swap1\n      pop\n      jump\t// out\n        /* \"#utility.yul\":6939:7048   */\n    tag_169:\n        /* \"#utility.yul\":7020:7041   */\n      tag_273\n        /* \"#utility.yul\":7035:7040   */\n      dup2\n        /* \"#utility.yul\":7020:7041   */\n      tag_168\n      jump\t// in\n    tag_273:\n        /* \"#utility.yul\":7015:7018   */\n      dup3\n        /* \"#utility.yul\":7008:7042   */\n      mstore\n        /* \"#utility.yul\":6939:7048   */\n      pop\n      pop\n      jump\t// out\n        /* \"#utility.yul\":7054:8463   */\n    tag_60:\n        /* \"#utility.yul\":7439:7443   */\n      0x00\n        /* \"#utility.yul\":7477:7480   */\n      0x0180\n        /* \"#utility.yul\":7466:7475   */\n      dup3\n        /* \"#utility.yul\":7462:7481   */\n      add\n        /* \"#utility.yul\":7454:7481   */\n      swap1\n      pop\n        /* \"#utility.yul\":7491:7562   */\n      tag_275\n        /* \"#utility.yul\":7559:7560   */\n      0x00\n        /* \"#utility.yul\":7548:7557   */\n      dup4\n        /* \"#utility.yul\":7544:7561   */\n      add\n        /* \"#utility.yul\":7535:7541   */\n      dup16\n        /* \"#utility.yul\":7491:7562   */\n      tag_161\n      jump\t// in\n    tag_275:\n        /* \"#utility.yul\":7572:7644   */\n      tag_276\n        /* \"#utility.yul\":7640:7642   */\n      0x20\n        /* \"#utility.yul\":7629:7638   */\n      dup4\n        /* \"#utility.yul\":7625:7643   */\n      add\n        /* \"#utility.yul\":7616:7622   */\n      dup15\n        /* \"#utility.yul\":7572:7644   */\n      tag_161\n      jump\t// in\n    tag_276:\n        /* \"#utility.yul\":7654:7726   */\n      tag_277\n        /* \"#utility.yul\":7722:7724   */\n      0x40\n        /* \"#utility.yul\":7711:7720   */\n      dup4\n        /* \"#utility.yul\":7707:7725   */\n      add\n        /* \"#utility.yul\":7698:7704   */\n      dup14\n        /* \"#utility.yul\":7654:7726   */\n      tag_161\n      jump\t// in\n    tag_277:\n        /* \"#utility.yul\":7736:7808   */\n      tag_278\n        /* \"#utility.yul\":7804:7806   */\n      0x60\n        /* \"#utility.yul\":7793:7802   */\n      dup4\n        /* \"#utility.yul\":7789:7807   */\n      add\n        /* \"#utility.yul\":7780:7786   */\n      dup13\n        /* \"#utility.yul\":7736:7808   */\n      tag_161\n      jump\t// in\n    tag_278:\n        /* \"#utility.yul\":7818:7891   */\n      tag_279\n        /* \"#utility.yul\":7886:7889   */\n      0x80\n        /* \"#utility.yul\":7875:7884   */\n      dup4\n        /* \"#utility.yul\":7871:7890   */\n      add\n        /* \"#utility.yul\":7862:7868   */\n      dup12\n        /* \"#utility.yul\":7818:7891   */\n      tag_161\n      jump\t// in\n    tag_279:\n        /* \"#utility.yul\":7901:7974   */\n      tag_280\n        /* \"#utility.yul\":7969:7972   */\n      0xa0\n        /* \"#utility.yul\":7958:7967   */\n      dup4\n        /* \"#utility.yul\":7954:7973   */\n      add\n        /* \"#utility.yul\":7945:7951   */\n      dup11\n        /* \"#utility.yul\":7901:7974   */\n      tag_161\n      jump\t// in\n    tag_280:\n        /* \"#utility.yul\":7984:8057   */\n      tag_281\n        /* \"#utility.yul\":8052:8055   */\n      0xc0\n        /* \"#utility.yul\":8041:8050   */\n      dup4\n        /* \"#utility.yul\":8037:8056   */\n      add\n        /* \"#utility.yul\":8028:8034   */\n      dup10\n        /* \"#utility.yul\":7984:8057   */\n      tag_167\n      jump\t// in\n    tag_281:\n        /* \"#utility.yul\":8067:8140   */\n      tag_282\n        /* \"#utility.yul\":8135:8138   */\n      0xe0\n        /* \"#utility.yul\":8124:8133   */\n      dup4\n        /* \"#utility.yul\":8120:8139   */\n      add\n        /* \"#utility.yul\":8111:8117   */\n      dup9\n        /* \"#utility.yul\":8067:8140   */\n      tag_167\n      jump\t// in\n    tag_282:\n        /* \"#utility.yul\":8150:8217   */\n      tag_283\n        /* \"#utility.yul\":8212:8215   */\n      0x0100\n        /* \"#utility.yul\":8201:8210   */\n      dup4\n        /* \"#utility.yul\":8197:8216   */\n      add\n        /* \"#utility.yul\":8188:8194   */\n      dup8\n        /* \"#utility.yul\":8150:8217   */\n      tag_169\n      jump\t// in\n    tag_283:\n        /* \"#utility.yul\":8227:8294   */\n      tag_284\n        /* \"#utility.yul\":8289:8292   */\n      0x0120\n        /* \"#utility.yul\":8278:8287   */\n      dup4\n        /* \"#utility.yul\":8274:8293   */\n      add\n        /* \"#utility.yul\":8265:8271   */\n      dup7\n        /* \"#utility.yul\":8227:8294   */\n      tag_169\n      jump\t// in\n    tag_284:\n        /* \"#utility.yul\":8304:8372   */\n      tag_285\n        /* \"#utility.yul\":8367:8370   */\n      0x0140\n        /* \"#utility.yul\":8356:8365   */\n      dup4\n        /* \"#utility.yul\":8352:8371   */\n      add\n        /* \"#utility.yul\":8342:8349   */\n      dup6\n        /* \"#utility.yul\":8304:8372   */\n      tag_169\n      jump\t// in\n    tag_285:\n        /* \"#utility.yul\":8382:8456   */\n      tag_286\n        /* \"#utility.yul\":8451:8454   */\n      0x0160\n        /* \"#utility.yul\":8440:8449   */\n      dup4\n        /* \"#utility.yul\":8436:8455   */\n      add\n        /* \"#utility.yul\":8426:8433   */\n      dup5\n        /* \"#utility.yul\":8382:8456   */\n      tag_161\n      jump\t// in\n    tag_286:\n        /* \"#utility.yul\":7054:8463   */\n      swap14\n      swap13\n      pop\n      pop\n      pop\n      pop\n      pop\n      pop\n      pop\n      pop\n      pop\n      pop\n      pop\n      pop\n      pop\n      jump\t// out\n        /* \"#utility.yul\":8469:8649   */\n    tag_170:\n        /* \"#utility.yul\":8517:8594   */\n      0x4e487b7100000000000000000000000000000000000000000000000000000000\n        /* \"#utility.yul\":8514:8515   */\n      0x00\n        /* \"#utility.yul\":8507:8595   */\n      mstore\n        /* \"#utility.yul\":8614:8618   */\n      0x22\n        /* \"#utility.yul\":8611:8612   */\n      0x04\n        /* \"#utility.yul\":8604:8619   */\n      mstore\n        /* \"#utility.yul\":8638:8642   */\n      0x24\n        /* \"#utility.yul\":8635:8636   */\n      0x00\n        /* \"#utility.yul\":8628:8643   */\n      revert\n        /* \"#utility.yul\":8655:8975   */\n    tag_63:\n        /* \"#utility.yul\":8699:8705   */\n      0x00\n        /* \"#utility.yul\":8736:8737   */\n      0x02\n        /* \"#utility.yul\":8730:8734   */\n      dup3\n        /* \"#utility.yul\":8726:8738   */\n      div\n        /* \"#utility.yul\":8716:8738   */\n      swap1\n      pop\n        /* \"#utility.yul\":8783:8784   */\n      0x01\n        /* \"#utility.yul\":8777:8781   */\n      dup3\n        /* \"#utility.yul\":8773:8785   */\n      and\n        /* \"#utility.yul\":8804:8822   */\n      dup1\n        /* \"#utility.yul\":8794:8875   */\n      tag_289\n      jumpi\n        /* \"#utility.yul\":8860:8864   */\n      0x7f\n        /* \"#utility.yul\":8852:8858   */\n      dup3\n        /* \"#utility.yul\":8848:8865   */\n      and\n        /* \"#utility.yul\":8838:8865   */\n      swap2\n      pop\n        /* \"#utility.yul\":8794:8875   */\n    tag_289:\n        /* \"#utility.yul\":8922:8924   */\n      0x20\n        /* \"#utility.yul\":8914:8920   */\n      dup3\n        /* \"#utility.yul\":8911:8925   */\n      lt\n        /* \"#utility.yul\":8891:8909   */\n      dup2\n        /* \"#utility.yul\":8888:8926   */\n      sub\n        /* \"#utility.yul\":8885:8969   */\n      tag_290\n      jumpi\n        /* \"#utility.yul\":8941:8959   */\n      tag_291\n      tag_170\n      jump\t// in\n    tag_291:\n        /* \"#utility.yul\":8885:8969   */\n    tag_290:\n        /* \"#utility.yul\":8706:8975   */\n      pop\n        /* \"#utility.yul\":8655:8975   */\n      swap2\n      swap1\n      pop\n      jump\t// out\n        /* \"#utility.yul\":8981:9153   */\n    tag_171:\n        /* \"#utility.yul\":9121:9145   */\n      0x4572726f723a206e6f7420656e6f756768206361736800000000000000000000\n        /* \"#utility.yul\":9117:9118   */\n      0x00\n        /* \"#utility.yul\":9109:9115   */\n      dup3\n        /* \"#utility.yul\":9105:9119   */\n      add\n        /* \"#utility.yul\":9098:9146   */\n      mstore\n        /* \"#utility.yul\":8981:9153   */\n      pop\n      jump\t// out\n        /* \"#utility.yul\":9159:9525   */\n    tag_172:\n        /* \"#utility.yul\":9301:9304   */\n      0x00\n        /* \"#utility.yul\":9322:9389   */\n      tag_294\n        /* \"#utility.yul\":9386:9388   */\n      0x16\n        /* \"#utility.yul\":9381:9384   */\n      dup4\n        /* \"#utility.yul\":9322:9389   */\n      tag_163\n      jump\t// in\n    tag_294:\n        /* \"#utility.yul\":9315:9389   */\n      swap2\n      pop\n        /* \"#utility.yul\":9398:9491   */\n      tag_295\n        /* \"#utility.yul\":9487:9490   */\n      dup3\n        /* \"#utility.yul\":9398:9491   */\n      tag_171\n      jump\t// in\n    tag_295:\n        /* \"#utility.yul\":9516:9518   */\n      0x20\n        /* \"#utility.yul\":9511:9514   */\n      dup3\n        /* \"#utility.yul\":9507:9519   */\n      add\n        /* \"#utility.yul\":9500:9519   */\n      swap1\n      pop\n        /* \"#utility.yul\":9159:9525   */\n      swap2\n      swap1\n      pop\n      jump\t// out\n        /* \"#utility.yul\":9531:9950   */\n    tag_81:\n        /* \"#utility.yul\":9697:9701   */\n      0x00\n        /* \"#utility.yul\":9735:9737   */\n      0x20\n        /* \"#utility.yul\":9724:9733   */\n      dup3\n        /* \"#utility.yul\":9720:9738   */\n      add\n        /* \"#utility.yul\":9712:9738   */\n      swap1\n      pop\n        /* \"#utility.yul\":9784:9793   */\n      dup2\n        /* \"#utility.yul\":9778:9782   */\n      dup2\n        /* \"#utility.yul\":9774:9794   */\n      sub\n        /* \"#utility.yul\":9770:9771   */\n      0x00\n        /* \"#utility.yul\":9759:9768   */\n      dup4\n        /* \"#utility.yul\":9755:9772   */\n      add\n        /* \"#utility.yul\":9748:9795   */\n      mstore\n        /* \"#utility.yul\":9812:9943   */\n      tag_297\n        /* \"#utility.yul\":9938:9942   */\n      dup2\n        /* \"#utility.yul\":9812:9943   */\n      tag_172\n      jump\t// in\n    tag_297:\n        /* \"#utility.yul\":9804:9943   */\n      swap1\n      pop\n        /* \"#utility.yul\":9531:9950   */\n      swap2\n      swap1\n      pop\n      jump\t// out\n        /* \"#utility.yul\":9956:10186   */\n    tag_173:\n        /* \"#utility.yul\":10096:10130   */\n      0x4572726f723a2076616c7565206d757374206265206d6f7265207468616e2030\n        /* \"#utility.yul\":10092:10093   */\n      0x00\n        /* \"#utility.yul\":10084:10090   */\n      dup3\n        /* \"#utility.yul\":10080:10094   */\n      add\n        /* \"#utility.yul\":10073:10131   */\n      mstore\n        /* \"#utility.yul\":10165:10178   */\n      0x20746f207472616e736572000000000000000000000000000000000000000000\n        /* \"#utility.yul\":10160:10162   */\n      0x20\n        /* \"#utility.yul\":10152:10158   */\n      dup3\n        /* \"#utility.yul\":10148:10163   */\n      add\n        /* \"#utility.yul\":10141:10179   */\n      mstore\n        /* \"#utility.yul\":9956:10186   */\n      pop\n      jump\t// out\n        /* \"#utility.yul\":10192:10558   */\n    tag_174:\n        /* \"#utility.yul\":10334:10337   */\n      0x00\n        /* \"#utility.yul\":10355:10422   */\n      tag_300\n        /* \"#utility.yul\":10419:10421   */\n      0x2b\n        /* \"#utility.yul\":10414:10417   */\n      dup4\n        /* \"#utility.yul\":10355:10422   */\n      tag_163\n      jump\t// in\n    tag_300:\n        /* \"#utility.yul\":10348:10422   */\n      swap2\n      pop\n        /* \"#utility.yul\":10431:10524   */\n      tag_301\n        /* \"#utility.yul\":10520:10523   */\n      dup3\n        /* \"#utility.yul\":10431:10524   */\n      tag_173\n      jump\t// in\n    tag_301:\n        /* \"#utility.yul\":10549:10551   */\n      0x40\n        /* \"#utility.yul\":10544:10547   */\n      dup3\n        /* \"#utility.yul\":10540:10552   */\n      add\n        /* \"#utility.yul\":10533:10552   */\n      swap1\n      pop\n        /* \"#utility.yul\":10192:10558   */\n      swap2\n      swap1\n      pop\n      jump\t// out\n        /* \"#utility.yul\":10564:10983   */\n    tag_84:\n        /* \"#utility.yul\":10730:10734   */\n      0x00\n        /* \"#utility.yul\":10768:10770   */\n      0x20\n        /* \"#utility.yul\":10757:10766   */\n      dup3\n        /* \"#utility.yul\":10753:10771   */\n      add\n        /* \"#utility.yul\":10745:10771   */\n      swap1\n      pop\n        /* \"#utility.yul\":10817:10826   */\n      dup2\n        /* \"#utility.yul\":10811:10815   */\n      dup2\n        /* \"#utility.yul\":10807:10827   */\n      sub\n        /* \"#utility.yul\":10803:10804   */\n      0x00\n        /* \"#utility.yul\":10792:10801   */\n      dup4\n        /* \"#utility.yul\":10788:10805   */\n      add\n        /* \"#utility.yul\":10781:10828   */\n      mstore\n        /* \"#utility.yul\":10845:10976   */\n      tag_303\n        /* \"#utility.yul\":10971:10975   */\n      dup2\n        /* \"#utility.yul\":10845:10976   */\n      tag_174\n      jump\t// in\n    tag_303:\n        /* \"#utility.yul\":10837:10976   */\n      swap1\n      pop\n        /* \"#utility.yul\":10564:10983   */\n      swap2\n      swap1\n      pop\n      jump\t// out\n        /* \"#utility.yul\":10989:11158   */\n    tag_175:\n        /* \"#utility.yul\":11129:11150   */\n      0x4572726f723a206e756c6c206164647265737300000000000000000000000000\n        /* \"#utility.yul\":11125:11126   */\n      0x00\n        /* \"#utility.yul\":11117:11123   */\n      dup3\n        /* \"#utility.yul\":11113:11127   */\n      add\n        /* \"#utility.yul\":11106:11151   */\n      mstore\n        /* \"#utility.yul\":10989:11158   */\n      pop\n      jump\t// out\n        /* \"#utility.yul\":11164:11530   */\n    tag_176:\n        /* \"#utility.yul\":11306:11309   */\n      0x00\n        /* \"#utility.yul\":11327:11394   */\n      tag_306\n        /* \"#utility.yul\":11391:11393   */\n      0x13\n        /* \"#utility.yul\":11386:11389   */\n      dup4\n        /* \"#utility.yul\":11327:11394   */\n      tag_163\n      jump\t// in\n    tag_306:\n        /* \"#utility.yul\":11320:11394   */\n      swap2\n      pop\n        /* \"#utility.yul\":11403:11496   */\n      tag_307\n        /* \"#utility.yul\":11492:11495   */\n      dup3\n        /* \"#utility.yul\":11403:11496   */\n      tag_175\n      jump\t// in\n    tag_307:\n        /* \"#utility.yul\":11521:11523   */\n      0x20\n        /* \"#utility.yul\":11516:11519   */\n      dup3\n        /* \"#utility.yul\":11512:11524   */\n      add\n        /* \"#utility.yul\":11505:11524   */\n      swap1\n      pop\n        /* \"#utility.yul\":11164:11530   */\n      swap2\n      swap1\n      pop\n      jump\t// out\n        /* \"#utility.yul\":11536:11955   */\n    tag_87:\n        /* \"#utility.yul\":11702:11706   */\n      0x00\n        /* \"#utility.yul\":11740:11742   */\n      0x20\n        /* \"#utility.yul\":11729:11738   */\n      dup3\n        /* \"#utility.yul\":11725:11743   */\n      add\n        /* \"#utility.yul\":11717:11743   */\n      swap1\n      pop\n        /* \"#utility.yul\":11789:11798   */\n      dup2\n        /* \"#utility.yul\":11783:11787   */\n      dup2\n        /* \"#utility.yul\":11779:11799   */\n      sub\n        /* \"#utility.yul\":11775:11776   */\n      0x00\n        /* \"#utility.yul\":11764:11773   */\n      dup4\n        /* \"#utility.yul\":11760:11777   */\n      add\n        /* \"#utility.yul\":11753:11800   */\n      mstore\n        /* \"#utility.yul\":11817:11948   */\n      tag_309\n        /* \"#utility.yul\":11943:11947   */\n      dup2\n        /* \"#utility.yul\":11817:11948   */\n      tag_176\n      jump\t// in\n    tag_309:\n        /* \"#utility.yul\":11809:11948   */\n      swap1\n      pop\n        /* \"#utility.yul\":11536:11955   */\n      swap2\n      swap1\n      pop\n      jump\t// out\n        /* \"#utility.yul\":11961:12143   */\n    tag_177:\n        /* \"#utility.yul\":12101:12135   */\n      0x4572726f723a206f776e65722063616e206e6f74206265206120626974746572\n        /* \"#utility.yul\":12097:12098   */\n      0x00\n        /* \"#utility.yul\":12089:12095   */\n      dup3\n        /* \"#utility.yul\":12085:12099   */\n      add\n        /* \"#utility.yul\":12078:12136   */\n      mstore\n        /* \"#utility.yul\":11961:12143   */\n      pop\n      jump\t// out\n        /* \"#utility.yul\":12149:12515   */\n    tag_178:\n        /* \"#utility.yul\":12291:12294   */\n      0x00\n        /* \"#utility.yul\":12312:12379   */\n      tag_312\n        /* \"#utility.yul\":12376:12378   */\n      0x20\n        /* \"#utility.yul\":12371:12374   */\n      dup4\n        /* \"#utility.yul\":12312:12379   */\n      tag_163\n      jump\t// in\n    tag_312:\n        /* \"#utility.yul\":12305:12379   */\n      swap2\n      pop\n        /* \"#utility.yul\":12388:12481   */\n      tag_313\n        /* \"#utility.yul\":12477:12480   */\n      dup3\n        /* \"#utility.yul\":12388:12481   */\n      tag_177\n      jump\t// in\n    tag_313:\n        /* \"#utility.yul\":12506:12508   */\n      0x20\n        /* \"#utility.yul\":12501:12504   */\n      dup3\n        /* \"#utility.yul\":12497:12509   */\n      add\n        /* \"#utility.yul\":12490:12509   */\n      swap1\n      pop\n        /* \"#utility.yul\":12149:12515   */\n      swap2\n      swap1\n      pop\n      jump\t// out\n        /* \"#utility.yul\":12521:12940   */\n    tag_95:\n        /* \"#utility.yul\":12687:12691   */\n      0x00\n        /* \"#utility.yul\":12725:12727   */\n      0x20\n        /* \"#utility.yul\":12714:12723   */\n      dup3\n        /* \"#utility.yul\":12710:12728   */\n      add\n        /* \"#utility.yul\":12702:12728   */\n      swap1\n      pop\n        /* \"#utility.yul\":12774:12783   */\n      dup2\n        /* \"#utility.yul\":12768:12772   */\n      dup2\n        /* \"#utility.yul\":12764:12784   */\n      sub\n        /* \"#utility.yul\":12760:12761   */\n      0x00\n        /* \"#utility.yul\":12749:12758   */\n      dup4\n        /* \"#utility.yul\":12745:12762   */\n      add\n        /* \"#utility.yul\":12738:12785   */\n      mstore\n        /* \"#utility.yul\":12802:12933   */\n      tag_315\n        /* \"#utility.yul\":12928:12932   */\n      dup2\n        /* \"#utility.yul\":12802:12933   */\n      tag_178\n      jump\t// in\n    tag_315:\n        /* \"#utility.yul\":12794:12933   */\n      swap1\n      pop\n        /* \"#utility.yul\":12521:12940   */\n      swap2\n      swap1\n      pop\n      jump\t// out\n        /* \"#utility.yul\":12946:13176   */\n    tag_179:\n        /* \"#utility.yul\":13086:13120   */\n      0x4572726f723a2076616c7565206d757374206265206d6f7265207468616e2070\n        /* \"#utility.yul\":13082:13083   */\n      0x00\n        /* \"#utility.yul\":13074:13080   */\n      dup3\n        /* \"#utility.yul\":13070:13084   */\n      add\n        /* \"#utility.yul\":13063:13121   */\n      mstore\n        /* \"#utility.yul\":13155:13168   */\n      0x7269636520746f20626974000000000000000000000000000000000000000000\n        /* \"#utility.yul\":13150:13152   */\n      0x20\n        /* \"#utility.yul\":13142:13148   */\n      dup3\n        /* \"#utility.yul\":13138:13153   */\n      add\n        /* \"#utility.yul\":13131:13169   */\n      mstore\n        /* \"#utility.yul\":12946:13176   */\n      pop\n      jump\t// out\n        /* \"#utility.yul\":13182:13548   */\n    tag_180:\n        /* \"#utility.yul\":13324:13327   */\n      0x00\n        /* \"#utility.yul\":13345:13412   */\n      tag_318\n        /* \"#utility.yul\":13409:13411   */\n      0x2b\n        /* \"#utility.yul\":13404:13407   */\n      dup4\n        /* \"#utility.yul\":13345:13412   */\n      tag_163\n      jump\t// in\n    tag_318:\n        /* \"#utility.yul\":13338:13412   */\n      swap2\n      pop\n        /* \"#utility.yul\":13421:13514   */\n      tag_319\n        /* \"#utility.yul\":13510:13513   */\n      dup3\n        /* \"#utility.yul\":13421:13514   */\n      tag_179\n      jump\t// in\n    tag_319:\n        /* \"#utility.yul\":13539:13541   */\n      0x40\n        /* \"#utility.yul\":13534:13537   */\n      dup3\n        /* \"#utility.yul\":13530:13542   */\n      add\n        /* \"#utility.yul\":13523:13542   */\n      swap1\n      pop\n        /* \"#utility.yul\":13182:13548   */\n      swap2\n      swap1\n      pop\n      jump\t// out\n        /* \"#utility.yul\":13554:13973   */\n    tag_98:\n        /* \"#utility.yul\":13720:13724   */\n      0x00\n        /* \"#utility.yul\":13758:13760   */\n      0x20\n        /* \"#utility.yul\":13747:13756   */\n      dup3\n        /* \"#utility.yul\":13743:13761   */\n      add\n        /* \"#utility.yul\":13735:13761   */\n      swap1\n      pop\n        /* \"#utility.yul\":13807:13816   */\n      dup2\n        /* \"#utility.yul\":13801:13805   */\n      dup2\n        /* \"#utility.yul\":13797:13817   */\n      sub\n        /* \"#utility.yul\":13793:13794   */\n      0x00\n        /* \"#utility.yul\":13782:13791   */\n      dup4\n        /* \"#utility.yul\":13778:13795   */\n      add\n        /* \"#utility.yul\":13771:13818   */\n      mstore\n        /* \"#utility.yul\":13835:13966   */\n      tag_321\n        /* \"#utility.yul\":13961:13965   */\n      dup2\n        /* \"#utility.yul\":13835:13966   */\n      tag_180\n      jump\t// in\n    tag_321:\n        /* \"#utility.yul\":13827:13966   */\n      swap1\n      pop\n        /* \"#utility.yul\":13554:13973   */\n      swap2\n      swap1\n      pop\n      jump\t// out\n        /* \"#utility.yul\":13979:14064   */\n    tag_181:\n        /* \"#utility.yul\":14024:14031   */\n      0x00\n        /* \"#utility.yul\":14053:14058   */\n      dup2\n        /* \"#utility.yul\":14042:14058   */\n      swap1\n      pop\n        /* \"#utility.yul\":13979:14064   */\n      swap2\n      swap1\n      pop\n      jump\t// out\n        /* \"#utility.yul\":14070:14130   */\n    tag_182:\n        /* \"#utility.yul\":14098:14101   */\n      0x00\n        /* \"#utility.yul\":14119:14124   */\n      dup2\n        /* \"#utility.yul\":14112:14124   */\n      swap1\n      pop\n        /* \"#utility.yul\":14070:14130   */\n      swap2\n      swap1\n      pop\n      jump\t// out\n        /* \"#utility.yul\":14136:14294   */\n    tag_183:\n        /* \"#utility.yul\":14194:14203   */\n      0x00\n        /* \"#utility.yul\":14227:14288   */\n      tag_325\n        /* \"#utility.yul\":14245:14287   */\n      tag_326\n        /* \"#utility.yul\":14254:14286   */\n      tag_327\n        /* \"#utility.yul\":14280:14285   */\n      dup5\n        /* \"#utility.yul\":14254:14286   */\n      tag_181\n      jump\t// in\n    tag_327:\n        /* \"#utility.yul\":14245:14287   */\n      tag_182\n      jump\t// in\n    tag_326:\n        /* \"#utility.yul\":14227:14288   */\n      tag_158\n      jump\t// in\n    tag_325:\n        /* \"#utility.yul\":14214:14288   */\n      swap1\n      pop\n        /* \"#utility.yul\":14136:14294   */\n      swap2\n      swap1\n      pop\n      jump\t// out\n        /* \"#utility.yul\":14300:14447   */\n    tag_184:\n        /* \"#utility.yul\":14395:14440   */\n      tag_329\n        /* \"#utility.yul\":14434:14439   */\n      dup2\n        /* \"#utility.yul\":14395:14440   */\n      tag_183\n      jump\t// in\n    tag_329:\n        /* \"#utility.yul\":14390:14393   */\n      dup3\n        /* \"#utility.yul\":14383:14441   */\n      mstore\n        /* \"#utility.yul\":14300:14447   */\n      pop\n      pop\n      jump\t// out\n        /* \"#utility.yul\":14453:15022   */\n    tag_105:\n        /* \"#utility.yul\":14638:14642   */\n      0x00\n        /* \"#utility.yul\":14676:14679   */\n      0x80\n        /* \"#utility.yul\":14665:14674   */\n      dup3\n        /* \"#utility.yul\":14661:14680   */\n      add\n        /* \"#utility.yul\":14653:14680   */\n      swap1\n      pop\n        /* \"#utility.yul\":14690:14761   */\n      tag_331\n        /* \"#utility.yul\":14758:14759   */\n      0x00\n        /* \"#utility.yul\":14747:14756   */\n      dup4\n        /* \"#utility.yul\":14743:14760   */\n      add\n        /* \"#utility.yul\":14734:14740   */\n      dup8\n        /* \"#utility.yul\":14690:14761   */\n      tag_167\n      jump\t// in\n    tag_331:\n        /* \"#utility.yul\":14771:14843   */\n      tag_332\n        /* \"#utility.yul\":14839:14841   */\n      0x20\n        /* \"#utility.yul\":14828:14837   */\n      dup4\n        /* \"#utility.yul\":14824:14842   */\n      add\n        /* \"#utility.yul\":14815:14821   */\n      dup7\n        /* \"#utility.yul\":14771:14843   */\n      tag_167\n      jump\t// in\n    tag_332:\n        /* \"#utility.yul\":14853:14925   */\n      tag_333\n        /* \"#utility.yul\":14921:14923   */\n      0x40\n        /* \"#utility.yul\":14910:14919   */\n      dup4\n        /* \"#utility.yul\":14906:14924   */\n      add\n        /* \"#utility.yul\":14897:14903   */\n      dup6\n        /* \"#utility.yul\":14853:14925   */\n      tag_161\n      jump\t// in\n    tag_333:\n        /* \"#utility.yul\":14935:15015   */\n      tag_334\n        /* \"#utility.yul\":15011:15013   */\n      0x60\n        /* \"#utility.yul\":15000:15009   */\n      dup4\n        /* \"#utility.yul\":14996:15014   */\n      add\n        /* \"#utility.yul\":14987:14993   */\n      dup5\n        /* \"#utility.yul\":14935:15015   */\n      tag_184\n      jump\t// in\n    tag_334:\n        /* \"#utility.yul\":14453:15022   */\n      swap6\n      swap5\n      pop\n      pop\n      pop\n      pop\n      pop\n      jump\t// out\n        /* \"#utility.yul\":15028:15249   */\n    tag_185:\n        /* \"#utility.yul\":15168:15202   */\n      0x4572726f723a2061756374696f6e20697320616c72656164792066696e697368\n        /* \"#utility.yul\":15164:15165   */\n      0x00\n        /* \"#utility.yul\":15156:15162   */\n      dup3\n        /* \"#utility.yul\":15152:15166   */\n      add\n        /* \"#utility.yul\":15145:15203   */\n      mstore\n        /* \"#utility.yul\":15237:15241   */\n      0x6564000000000000000000000000000000000000000000000000000000000000\n        /* \"#utility.yul\":15232:15234   */\n      0x20\n        /* \"#utility.yul\":15224:15230   */\n      dup3\n        /* \"#utility.yul\":15220:15235   */\n      add\n        /* \"#utility.yul\":15213:15242   */\n      mstore\n        /* \"#utility.yul\":15028:15249   */\n      pop\n      jump\t// out\n        /* \"#utility.yul\":15255:15621   */\n    tag_186:\n        /* \"#utility.yul\":15397:15400   */\n      0x00\n        /* \"#utility.yul\":15418:15485   */\n      tag_337\n        /* \"#utility.yul\":15482:15484   */\n      0x22\n        /* \"#utility.yul\":15477:15480   */\n      dup4\n        /* \"#utility.yul\":15418:15485   */\n      tag_163\n      jump\t// in\n    tag_337:\n        /* \"#utility.yul\":15411:15485   */\n      swap2\n      pop\n        /* \"#utility.yul\":15494:15587   */\n      tag_338\n        /* \"#utility.yul\":15583:15586   */\n      dup3\n        /* \"#utility.yul\":15494:15587   */\n      tag_185\n      jump\t// in\n    tag_338:\n        /* \"#utility.yul\":15612:15614   */\n      0x40\n        /* \"#utility.yul\":15607:15610   */\n      dup3\n        /* \"#utility.yul\":15603:15615   */\n      add\n        /* \"#utility.yul\":15596:15615   */\n      swap1\n      pop\n        /* \"#utility.yul\":15255:15621   */\n      swap2\n      swap1\n      pop\n      jump\t// out\n        /* \"#utility.yul\":15627:16046   */\n    tag_112:\n        /* \"#utility.yul\":15793:15797   */\n      0x00\n        /* \"#utility.yul\":15831:15833   */\n      0x20\n        /* \"#utility.yul\":15820:15829   */\n      dup3\n        /* \"#utility.yul\":15816:15834   */\n      add\n        /* \"#utility.yul\":15808:15834   */\n      swap1\n      pop\n        /* \"#utility.yul\":15880:15889   */\n      dup2\n        /* \"#utility.yul\":15874:15878   */\n      dup2\n        /* \"#utility.yul\":15870:15890   */\n      sub\n        /* \"#utility.yul\":15866:15867   */\n      0x00\n        /* \"#utility.yul\":15855:15864   */\n      dup4\n        /* \"#utility.yul\":15851:15868   */\n      add\n        /* \"#utility.yul\":15844:15891   */\n      mstore\n        /* \"#utility.yul\":15908:16039   */\n      tag_340\n        /* \"#utility.yul\":16034:16038   */\n      dup2\n        /* \"#utility.yul\":15908:16039   */\n      tag_186\n      jump\t// in\n    tag_340:\n        /* \"#utility.yul\":15900:16039   */\n      swap1\n      pop\n        /* \"#utility.yul\":15627:16046   */\n      swap2\n      swap1\n      pop\n      jump\t// out\n        /* \"#utility.yul\":16052:16232   */\n    tag_187:\n        /* \"#utility.yul\":16100:16177   */\n      0x4e487b7100000000000000000000000000000000000000000000000000000000\n        /* \"#utility.yul\":16097:16098   */\n      0x00\n        /* \"#utility.yul\":16090:16178   */\n      mstore\n        /* \"#utility.yul\":16197:16201   */\n      0x11\n        /* \"#utility.yul\":16194:16195   */\n      0x04\n        /* \"#utility.yul\":16187:16202   */\n      mstore\n        /* \"#utility.yul\":16221:16225   */\n      0x24\n        /* \"#utility.yul\":16218:16219   */\n      0x00\n        /* \"#utility.yul\":16211:16226   */\n      revert\n        /* \"#utility.yul\":16238:16432   */\n    tag_115:\n        /* \"#utility.yul\":16278:16282   */\n      0x00\n        /* \"#utility.yul\":16298:16318   */\n      tag_343\n        /* \"#utility.yul\":16316:16317   */\n      dup3\n        /* \"#utility.yul\":16298:16318   */\n      tag_158\n      jump\t// in\n    tag_343:\n        /* \"#utility.yul\":16293:16318   */\n      swap2\n      pop\n        /* \"#utility.yul\":16332:16352   */\n      tag_344\n        /* \"#utility.yul\":16350:16351   */\n      dup4\n        /* \"#utility.yul\":16332:16352   */\n      tag_158\n      jump\t// in\n    tag_344:\n        /* \"#utility.yul\":16327:16352   */\n      swap3\n      pop\n        /* \"#utility.yul\":16376:16377   */\n      dup3\n        /* \"#utility.yul\":16373:16374   */\n      dup3\n        /* \"#utility.yul\":16369:16378   */\n      sub\n        /* \"#utility.yul\":16361:16378   */\n      swap1\n      pop\n        /* \"#utility.yul\":16400:16401   */\n      dup2\n        /* \"#utility.yul\":16394:16398   */\n      dup2\n        /* \"#utility.yul\":16391:16402   */\n      gt\n        /* \"#utility.yul\":16388:16425   */\n      iszero\n      tag_345\n      jumpi\n        /* \"#utility.yul\":16405:16423   */\n      tag_346\n      tag_187\n      jump\t// in\n    tag_346:\n        /* \"#utility.yul\":16388:16425   */\n    tag_345:\n        /* \"#utility.yul\":16238:16432   */\n      swap3\n      swap2\n      pop\n      pop\n      jump\t// out\n        /* \"#utility.yul\":16438:16662   */\n    tag_188:\n        /* \"#utility.yul\":16578:16612   */\n      0x4572726f723a206e6f20726561736f6e20746f20696e74657272757074206175\n        /* \"#utility.yul\":16574:16575   */\n      0x00\n        /* \"#utility.yul\":16566:16572   */\n      dup3\n        /* \"#utility.yul\":16562:16576   */\n      add\n        /* \"#utility.yul\":16555:16613   */\n      mstore\n        /* \"#utility.yul\":16647:16654   */\n      0x6374696f6e000000000000000000000000000000000000000000000000000000\n        /* \"#utility.yul\":16642:16644   */\n      0x20\n        /* \"#utility.yul\":16634:16640   */\n      dup3\n        /* \"#utility.yul\":16630:16645   */\n      add\n        /* \"#utility.yul\":16623:16655   */\n      mstore\n        /* \"#utility.yul\":16438:16662   */\n      pop\n      jump\t// out\n        /* \"#utility.yul\":16668:17034   */\n    tag_189:\n        /* \"#utility.yul\":16810:16813   */\n      0x00\n        /* \"#utility.yul\":16831:16898   */\n      tag_349\n        /* \"#utility.yul\":16895:16897   */\n      0x25\n        /* \"#utility.yul\":16890:16893   */\n      dup4\n        /* \"#utility.yul\":16831:16898   */\n      tag_163\n      jump\t// in\n    tag_349:\n        /* \"#utility.yul\":16824:16898   */\n      swap2\n      pop\n        /* \"#utility.yul\":16907:17000   */\n      tag_350\n        /* \"#utility.yul\":16996:16999   */\n      dup3\n        /* \"#utility.yul\":16907:17000   */\n      tag_188\n      jump\t// in\n    tag_350:\n        /* \"#utility.yul\":17025:17027   */\n      0x40\n        /* \"#utility.yul\":17020:17023   */\n      dup3\n        /* \"#utility.yul\":17016:17028   */\n      add\n        /* \"#utility.yul\":17009:17028   */\n      swap1\n      pop\n        /* \"#utility.yul\":16668:17034   */\n      swap2\n      swap1\n      pop\n      jump\t// out\n        /* \"#utility.yul\":17040:17459   */\n    tag_118:\n        /* \"#utility.yul\":17206:17210   */\n      0x00\n        /* \"#utility.yul\":17244:17246   */\n      0x20\n        /* \"#utility.yul\":17233:17242   */\n      dup3\n        /* \"#utility.yul\":17229:17247   */\n      add\n        /* \"#utility.yul\":17221:17247   */\n      swap1\n      pop\n        /* \"#utility.yul\":17293:17302   */\n      dup2\n        /* \"#utility.yul\":17287:17291   */\n      dup2\n        /* \"#utility.yul\":17283:17303   */\n      sub\n        /* \"#utility.yul\":17279:17280   */\n      0x00\n        /* \"#utility.yul\":17268:17277   */\n      dup4\n        /* \"#utility.yul\":17264:17281   */\n      add\n        /* \"#utility.yul\":17257:17304   */\n      mstore\n        /* \"#utility.yul\":17321:17452   */\n      tag_352\n        /* \"#utility.yul\":17447:17451   */\n      dup2\n        /* \"#utility.yul\":17321:17452   */\n      tag_189\n      jump\t// in\n    tag_352:\n        /* \"#utility.yul\":17313:17452   */\n      swap1\n      pop\n        /* \"#utility.yul\":17040:17459   */\n      swap2\n      swap1\n      pop\n      jump\t// out\n        /* \"#utility.yul\":17465:17685   */\n    tag_190:\n        /* \"#utility.yul\":17605:17639   */\n      0x4572726f723a2061756374696f6e20697320616c726561647920737461727465\n        /* \"#utility.yul\":17601:17602   */\n      0x00\n        /* \"#utility.yul\":17593:17599   */\n      dup3\n        /* \"#utility.yul\":17589:17603   */\n      add\n        /* \"#utility.yul\":17582:17640   */\n      mstore\n        /* \"#utility.yul\":17674:17677   */\n      0x6400000000000000000000000000000000000000000000000000000000000000\n        /* \"#utility.yul\":17669:17671   */\n      0x20\n        /* \"#utility.yul\":17661:17667   */\n      dup3\n        /* \"#utility.yul\":17657:17672   */\n      add\n        /* \"#utility.yul\":17650:17678   */\n      mstore\n        /* \"#utility.yul\":17465:17685   */\n      pop\n      jump\t// out\n        /* \"#utility.yul\":17691:18057   */\n    tag_191:\n        /* \"#utility.yul\":17833:17836   */\n      0x00\n        /* \"#utility.yul\":17854:17921   */\n      tag_355\n        /* \"#utility.yul\":17918:17920   */\n      0x21\n        /* \"#utility.yul\":17913:17916   */\n      dup4\n        /* \"#utility.yul\":17854:17921   */\n      tag_163\n      jump\t// in\n    tag_355:\n        /* \"#utility.yul\":17847:17921   */\n      swap2\n      pop\n        /* \"#utility.yul\":17930:18023   */\n      tag_356\n        /* \"#utility.yul\":18019:18022   */\n      dup3\n        /* \"#utility.yul\":17930:18023   */\n      tag_190\n      jump\t// in\n    tag_356:\n        /* \"#utility.yul\":18048:18050   */\n      0x40\n        /* \"#utility.yul\":18043:18046   */\n      dup3\n        /* \"#utility.yul\":18039:18051   */\n      add\n        /* \"#utility.yul\":18032:18051   */\n      swap1\n      pop\n        /* \"#utility.yul\":17691:18057   */\n      swap2\n      swap1\n      pop\n      jump\t// out\n        /* \"#utility.yul\":18063:18482   */\n    tag_123:\n        /* \"#utility.yul\":18229:18233   */\n      0x00\n        /* \"#utility.yul\":18267:18269   */\n      0x20\n        /* \"#utility.yul\":18256:18265   */\n      dup3\n        /* \"#utility.yul\":18252:18270   */\n      add\n        /* \"#utility.yul\":18244:18270   */\n      swap1\n      pop\n        /* \"#utility.yul\":18316:18325   */\n      dup2\n        /* \"#utility.yul\":18310:18314   */\n      dup2\n        /* \"#utility.yul\":18306:18326   */\n      sub\n        /* \"#utility.yul\":18302:18303   */\n      0x00\n        /* \"#utility.yul\":18291:18300   */\n      dup4\n        /* \"#utility.yul\":18287:18304   */\n      add\n        /* \"#utility.yul\":18280:18327   */\n      mstore\n        /* \"#utility.yul\":18344:18475   */\n      tag_358\n        /* \"#utility.yul\":18470:18474   */\n      dup2\n        /* \"#utility.yul\":18344:18475   */\n      tag_191\n      jump\t// in\n    tag_358:\n        /* \"#utility.yul\":18336:18475   */\n      swap1\n      pop\n        /* \"#utility.yul\":18063:18482   */\n      swap2\n      swap1\n      pop\n      jump\t// out\n        /* \"#utility.yul\":18488:18717   */\n    tag_192:\n        /* \"#utility.yul\":18628:18662   */\n      0x4572726f723a206d696e696d616c207072696365206d75737420636f7374206d\n        /* \"#utility.yul\":18624:18625   */\n      0x00\n        /* \"#utility.yul\":18616:18622   */\n      dup3\n        /* \"#utility.yul\":18612:18626   */\n      add\n        /* \"#utility.yul\":18605:18663   */\n      mstore\n        /* \"#utility.yul\":18697:18709   */\n      0x6f7265207468616e203000000000000000000000000000000000000000000000\n        /* \"#utility.yul\":18692:18694   */\n      0x20\n        /* \"#utility.yul\":18684:18690   */\n      dup3\n        /* \"#utility.yul\":18680:18695   */\n      add\n        /* \"#utility.yul\":18673:18710   */\n      mstore\n        /* \"#utility.yul\":18488:18717   */\n      pop\n      jump\t// out\n        /* \"#utility.yul\":18723:19089   */\n    tag_193:\n        /* \"#utility.yul\":18865:18868   */\n      0x00\n        /* \"#utility.yul\":18886:18953   */\n      tag_361\n        /* \"#utility.yul\":18950:18952   */\n      0x2a\n        /* \"#utility.yul\":18945:18948   */\n      dup4\n        /* \"#utility.yul\":18886:18953   */\n      tag_163\n      jump\t// in\n    tag_361:\n        /* \"#utility.yul\":18879:18953   */\n      swap2\n      pop\n        /* \"#utility.yul\":18962:19055   */\n      tag_362\n        /* \"#utility.yul\":19051:19054   */\n      dup3\n        /* \"#utility.yul\":18962:19055   */\n      tag_192\n      jump\t// in\n    tag_362:\n        /* \"#utility.yul\":19080:19082   */\n      0x40\n        /* \"#utility.yul\":19075:19078   */\n      dup3\n        /* \"#utility.yul\":19071:19083   */\n      add\n        /* \"#utility.yul\":19064:19083   */\n      swap1\n      pop\n        /* \"#utility.yul\":18723:19089   */\n      swap2\n      swap1\n      pop\n      jump\t// out\n        /* \"#utility.yul\":19095:19514   */\n    tag_126:\n        /* \"#utility.yul\":19261:19265   */\n      0x00\n        /* \"#utility.yul\":19299:19301   */\n      0x20\n        /* \"#utility.yul\":19288:19297   */\n      dup3\n        /* \"#utility.yul\":19284:19302   */\n      add\n        /* \"#utility.yul\":19276:19302   */\n      swap1\n      pop\n        /* \"#utility.yul\":19348:19357   */\n      dup2\n        /* \"#utility.yul\":19342:19346   */\n      dup2\n        /* \"#utility.yul\":19338:19358   */\n      sub\n        /* \"#utility.yul\":19334:19335   */\n      0x00\n        /* \"#utility.yul\":19323:19332   */\n      dup4\n        /* \"#utility.yul\":19319:19336   */\n      add\n        /* \"#utility.yul\":19312:19359   */\n      mstore\n        /* \"#utility.yul\":19376:19507   */\n      tag_364\n        /* \"#utility.yul\":19502:19506   */\n      dup2\n        /* \"#utility.yul\":19376:19507   */\n      tag_193\n      jump\t// in\n    tag_364:\n        /* \"#utility.yul\":19368:19507   */\n      swap1\n      pop\n        /* \"#utility.yul\":19095:19514   */\n      swap2\n      swap1\n      pop\n      jump\t// out\n        /* \"#utility.yul\":19520:19756   */\n    tag_194:\n        /* \"#utility.yul\":19660:19694   */\n      0x4572726f723a206d6178207072696365206d75737420636f7374206d6f726520\n        /* \"#utility.yul\":19656:19657   */\n      0x00\n        /* \"#utility.yul\":19648:19654   */\n      dup3\n        /* \"#utility.yul\":19644:19658   */\n      add\n        /* \"#utility.yul\":19637:19695   */\n      mstore\n        /* \"#utility.yul\":19729:19748   */\n      0x7468616e206d61696e696d616c206f6e65000000000000000000000000000000\n        /* \"#utility.yul\":19724:19726   */\n      0x20\n        /* \"#utility.yul\":19716:19722   */\n      dup3\n        /* \"#utility.yul\":19712:19727   */\n      add\n        /* \"#utility.yul\":19705:19749   */\n      mstore\n        /* \"#utility.yul\":19520:19756   */\n      pop\n      jump\t// out\n        /* \"#utility.yul\":19762:20128   */\n    tag_195:\n        /* \"#utility.yul\":19904:19907   */\n      0x00\n        /* \"#utility.yul\":19925:19992   */\n      tag_367\n        /* \"#utility.yul\":19989:19991   */\n      0x31\n        /* \"#utility.yul\":19984:19987   */\n      dup4\n        /* \"#utility.yul\":19925:19992   */\n      tag_163\n      jump\t// in\n    tag_367:\n        /* \"#utility.yul\":19918:19992   */\n      swap2\n      pop\n        /* \"#utility.yul\":20001:20094   */\n      tag_368\n        /* \"#utility.yul\":20090:20093   */\n      dup3\n        /* \"#utility.yul\":20001:20094   */\n      tag_194\n      jump\t// in\n    tag_368:\n        /* \"#utility.yul\":20119:20121   */\n      0x40\n        /* \"#utility.yul\":20114:20117   */\n      dup3\n        /* \"#utility.yul\":20110:20122   */\n      add\n        /* \"#utility.yul\":20103:20122   */\n      swap1\n      pop\n        /* \"#utility.yul\":19762:20128   */\n      swap2\n      swap1\n      pop\n      jump\t// out\n        /* \"#utility.yul\":20134:20553   */\n    tag_129:\n        /* \"#utility.yul\":20300:20304   */\n      0x00\n        /* \"#utility.yul\":20338:20340   */\n      0x20\n        /* \"#utility.yul\":20327:20336   */\n      dup3\n        /* \"#utility.yul\":20323:20341   */\n      add\n        /* \"#utility.yul\":20315:20341   */\n      swap1\n      pop\n        /* \"#utility.yul\":20387:20396   */\n      dup2\n        /* \"#utility.yul\":20381:20385   */\n      dup2\n        /* \"#utility.yul\":20377:20397   */\n      sub\n        /* \"#utility.yul\":20373:20374   */\n      0x00\n        /* \"#utility.yul\":20362:20371   */\n      dup4\n        /* \"#utility.yul\":20358:20375   */\n      add\n        /* \"#utility.yul\":20351:20398   */\n      mstore\n        /* \"#utility.yul\":20415:20546   */\n      tag_370\n        /* \"#utility.yul\":20541:20545   */\n      dup2\n        /* \"#utility.yul\":20415:20546   */\n      tag_195\n      jump\t// in\n    tag_370:\n        /* \"#utility.yul\":20407:20546   */\n      swap1\n      pop\n        /* \"#utility.yul\":20134:20553   */\n      swap2\n      swap1\n      pop\n      jump\t// out\n        /* \"#utility.yul\":20559:20802   */\n    tag_196:\n        /* \"#utility.yul\":20699:20733   */\n      0x4572726f723a206475726174696f6e206d757374206265206e6f2073686f7274\n        /* \"#utility.yul\":20695:20696   */\n      0x00\n        /* \"#utility.yul\":20687:20693   */\n      dup3\n        /* \"#utility.yul\":20683:20697   */\n      add\n        /* \"#utility.yul\":20676:20734   */\n      mstore\n        /* \"#utility.yul\":20768:20794   */\n      0x6572207468616e206d696e696d616c206475726174696f6e0000000000000000\n        /* \"#utility.yul\":20763:20765   */\n      0x20\n        /* \"#utility.yul\":20755:20761   */\n      dup3\n        /* \"#utility.yul\":20751:20766   */\n      add\n        /* \"#utility.yul\":20744:20795   */\n      mstore\n        /* \"#utility.yul\":20559:20802   */\n      pop\n      jump\t// out\n        /* \"#utility.yul\":20808:21174   */\n    tag_197:\n        /* \"#utility.yul\":20950:20953   */\n      0x00\n        /* \"#utility.yul\":20971:21038   */\n      tag_373\n        /* \"#utility.yul\":21035:21037   */\n      0x38\n        /* \"#utility.yul\":21030:21033   */\n      dup4\n        /* \"#utility.yul\":20971:21038   */\n      tag_163\n      jump\t// in\n    tag_373:\n        /* \"#utility.yul\":20964:21038   */\n      swap2\n      pop\n        /* \"#utility.yul\":21047:21140   */\n      tag_374\n        /* \"#utility.yul\":21136:21139   */\n      dup3\n        /* \"#utility.yul\":21047:21140   */\n      tag_196\n      jump\t// in\n    tag_374:\n        /* \"#utility.yul\":21165:21167   */\n      0x40\n        /* \"#utility.yul\":21160:21163   */\n      dup3\n        /* \"#utility.yul\":21156:21168   */\n      add\n        /* \"#utility.yul\":21149:21168   */\n      swap1\n      pop\n        /* \"#utility.yul\":20808:21174   */\n      swap2\n      swap1\n      pop\n      jump\t// out\n        /* \"#utility.yul\":21180:21599   */\n    tag_132:\n        /* \"#utility.yul\":21346:21350   */\n      0x00\n        /* \"#utility.yul\":21384:21386   */\n      0x20\n        /* \"#utility.yul\":21373:21382   */\n      dup3\n        /* \"#utility.yul\":21369:21387   */\n      add\n        /* \"#utility.yul\":21361:21387   */\n      swap1\n      pop\n        /* \"#utility.yul\":21433:21442   */\n      dup2\n        /* \"#utility.yul\":21427:21431   */\n      dup2\n        /* \"#utility.yul\":21423:21443   */\n      sub\n        /* \"#utility.yul\":21419:21420   */\n      0x00\n        /* \"#utility.yul\":21408:21417   */\n      dup4\n        /* \"#utility.yul\":21404:21421   */\n      add\n        /* \"#utility.yul\":21397:21444   */\n      mstore\n        /* \"#utility.yul\":21461:21592   */\n      tag_376\n        /* \"#utility.yul\":21587:21591   */\n      dup2\n        /* \"#utility.yul\":21461:21592   */\n      tag_197\n      jump\t// in\n    tag_376:\n        /* \"#utility.yul\":21453:21592   */\n      swap1\n      pop\n        /* \"#utility.yul\":21180:21599   */\n      swap2\n      swap1\n      pop\n      jump\t// out\n        /* \"#utility.yul\":21605:21796   */\n    tag_144:\n        /* \"#utility.yul\":21645:21648   */\n      0x00\n        /* \"#utility.yul\":21664:21684   */\n      tag_378\n        /* \"#utility.yul\":21682:21683   */\n      dup3\n        /* \"#utility.yul\":21664:21684   */\n      tag_158\n      jump\t// in\n    tag_378:\n        /* \"#utility.yul\":21659:21684   */\n      swap2\n      pop\n        /* \"#utility.yul\":21698:21718   */\n      tag_379\n        /* \"#utility.yul\":21716:21717   */\n      dup4\n        /* \"#utility.yul\":21698:21718   */\n      tag_158\n      jump\t// in\n    tag_379:\n        /* \"#utility.yul\":21693:21718   */\n      swap3\n      pop\n        /* \"#utility.yul\":21741:21742   */\n      dup3\n        /* \"#utility.yul\":21738:21739   */\n      dup3\n        /* \"#utility.yul\":21734:21743   */\n      add\n        /* \"#utility.yul\":21727:21743   */\n      swap1\n      pop\n        /* \"#utility.yul\":21762:21765   */\n      dup1\n        /* \"#utility.yul\":21759:21760   */\n      dup3\n        /* \"#utility.yul\":21756:21766   */\n      gt\n        /* \"#utility.yul\":21753:21789   */\n      iszero\n      tag_380\n      jumpi\n        /* \"#utility.yul\":21769:21787   */\n      tag_381\n      tag_187\n      jump\t// in\n    tag_381:\n        /* \"#utility.yul\":21753:21789   */\n    tag_380:\n        /* \"#utility.yul\":21605:21796   */\n      swap3\n      swap2\n      pop\n      pop\n      jump\t// out\n\n    auxdata: 0xa264697066735822122068fca10694026ea36b4547b92f3f9f3a74ebec8598d5330eeb5d717198bb1a6464736f6c63430008180033\n}\n",
				"bytecode": {
					"linkReferences": {},
					"object": "608060405234801561000f575f80fd5b506122d78061001d5f395ff3fe60806040526004361061008f575f3560e01c80635a2b5eee116100585780635a2b5eee1461019157806379f87cdf146101ad5780638d2c4488146101c9578063cf266ed0146101f1578063e2ad54c11461020d5761008f565b8062fdd58e1461009357806308eb803d146100cf5780630febdd49146101115780633db9f55b1461012d5780634ad56cc114610169575b5f80fd5b34801561009e575f80fd5b506100b960048036038101906100b491906117ee565b610254565b6040516100c6919061183b565b60405180910390f35b3480156100da575f80fd5b506100f560048036038101906100f091906117ee565b6102a9565b60405161010897969594939291906118de565b60405180910390f35b61012b60048036038101906101269190611960565b610484565b005b348015610138575f80fd5b50610153600480360381019061014e91906117ee565b610642565b604051610160919061183b565b60405180910390f35b348015610174575f80fd5b5061018f600480360381019061018a91906119c4565b610662565b005b6101ab60048036038101906101a691906117ee565b610772565b005b6101c760048036038101906101c29190611a14565b610b65565b005b3480156101d4575f80fd5b506101ef60048036038101906101ea9190611a3f565b610d5a565b005b61020b60048036038101906102069190611a14565b610ed7565b005b348015610218575f80fd5b50610233600480360381019061022e91906117ee565b611023565b60405161024b9c9b9a99989796959493929190611acc565b60405180910390f35b5f805f8473ffffffffffffffffffffffffffffffffffffffff1673ffffffffffffffffffffffffffffffffffffffff1681526020019081526020015f205f8381526020019081526020015f2054905092915050565b6002602052815f5260405f20602052805f5260405f205f9150915050805f0180546102d390611bb1565b80601f01602080910402602001604051908101604052809291908181526020018280546102ff90611bb1565b801561034a5780601f106103215761010080835404028352916020019161034a565b820191905f5260205f20905b81548152906001019060200180831161032d57829003601f168201915b50505050509080600101805461035f90611bb1565b80601f016020809104026020016040519081016040528092919081815260200182805461038b90611bb1565b80156103d65780601f106103ad576101008083540402835291602001916103d6565b820191905f5260205f20905b8154815290600101906020018083116103b957829003601f168201915b5050505050908060020180546103eb90611bb1565b80601f016020809104026020016040519081016040528092919081815260200182805461041790611bb1565b80156104625780601f1061043957610100808354040283529160200191610462565b820191905f5260205f20905b81548152906001019060200180831161044557829003601f168201915b5050505050908060030154908060040154908060050154908060060154905087565b805f808673ffffffffffffffffffffffffffffffffffffffff1673ffffffffffffffffffffffffffffffffffffffff1681526020019081526020015f205f8481526020019081526020015f20541015610512576040517f08c379a000000000000000000000000000000000000000000000000000000000815260040161050990611c2b565b60405180910390fd5b5f8111610554576040517f08c379a000000000000000000000000000000000000000000000000000000000815260040161054b90611cb9565b60405180910390fd5b5f73ffffffffffffffffffffffffffffffffffffffff168473ffffffffffffffffffffffffffffffffffffffff16036105c2576040517f08c379a00000000000000000000000000000000000000000000000000000000081526004016105b990611d21565b60405180910390fd5b5f73ffffffffffffffffffffffffffffffffffffffff168373ffffffffffffffffffffffffffffffffffffffff1603610630576040517f08c379a000000000000000000000000000000000000000000000000000000000815260040161062790611d21565b60405180910390fd5b61063c848484846110ef565b50505050565b6003602052815f5260405f20602052805f5260405f205f91509150505481565b8273ffffffffffffffffffffffffffffffffffffffff163373ffffffffffffffffffffffffffffffffffffffff16036106d0576040517f08c379a00000000000000000000000000000000000000000000000000000000081526004016106c790611d89565b60405180910390fd5b8060015f8573ffffffffffffffffffffffffffffffffffffffff1673ffffffffffffffffffffffffffffffffffffffff1681526020019081526020015f205f8481526020019081526020015f206003015410610761576040517f08c379a000000000000000000000000000000000000000000000000000000000815260040161075890611e17565b60405180910390fd5b61076d338484846111b7565b505050565b5f60015f8473ffffffffffffffffffffffffffffffffffffffff1673ffffffffffffffffffffffffffffffffffffffff1681526020019081526020015f205f8381526020019081526020015f2060070160146101000a81548160ff0219169083151502179055506001805f8473ffffffffffffffffffffffffffffffffffffffff1673ffffffffffffffffffffffffffffffffffffffff1681526020019081526020015f205f8381526020019081526020015f2060070160166101000a81548160ff0219169083151502179055506001805f8473ffffffffffffffffffffffffffffffffffffffff1673ffffffffffffffffffffffffffffffffffffffff1681526020019081526020015f205f8381526020019081526020015f2060070160156101000a81548160ff0219169083151502179055505f60015f3373ffffffffffffffffffffffffffffffffffffffff1673ffffffffffffffffffffffffffffffffffffffff1681526020019081526020015f205f8381526020019081526020015f2060030154141580156109a057505f73ffffffffffffffffffffffffffffffffffffffff1660015f3373ffffffffffffffffffffffffffffffffffffffff1673ffffffffffffffffffffffffffffffffffffffff1681526020019081526020015f205f8381526020019081526020015f206006015f9054906101000a900473ffffffffffffffffffffffffffffffffffffffff1673ffffffffffffffffffffffffffffffffffffffff1614155b15610b61575f60035f60015f8673ffffffffffffffffffffffffffffffffffffffff1673ffffffffffffffffffffffffffffffffffffffff1681526020019081526020015f205f8581526020019081526020015f206006015f9054906101000a900473ffffffffffffffffffffffffffffffffffffffff1673ffffffffffffffffffffffffffffffffffffffff1673ffffffffffffffffffffffffffffffffffffffff1681526020019081526020015f205f8381526020019081526020015f208190555060045f9054906101000a900473ffffffffffffffffffffffffffffffffffffffff1673ffffffffffffffffffffffffffffffffffffffff16630febdd4960015f8573ffffffffffffffffffffffffffffffffffffffff1673ffffffffffffffffffffffffffffffffffffffff1681526020019081526020015f205f8481526020019081526020015f206006015f9054906101000a900473ffffffffffffffffffffffffffffffffffffffff16848460016040518563ffffffff1660e01b8152600401610b339493929190611e77565b5f604051808303815f87803b158015610b4a575f80fd5b505af1158015610b5c573d5f803e3d5ffd5b505050505b5050565b5f151560015f3373ffffffffffffffffffffffffffffffffffffffff1673ffffffffffffffffffffffffffffffffffffffff1681526020019081526020015f205f8381526020019081526020015f2060070160159054906101000a900460ff16151514610c07576040517f08c379a0000000000000000000000000000000000000000000000000000000008152600401610bfe90611f2a565b60405180910390fd5b60015f3373ffffffffffffffffffffffffffffffffffffffff1673ffffffffffffffffffffffffffffffffffffffff1681526020019081526020015f205f8281526020019081526020015f206005015460015f3373ffffffffffffffffffffffffffffffffffffffff1673ffffffffffffffffffffffffffffffffffffffff1681526020019081526020015f205f8381526020019081526020015f2060030154101580610d0e5750601460015f3373ffffffffffffffffffffffffffffffffffffffff1673ffffffffffffffffffffffffffffffffffffffff1681526020019081526020015f205f8381526020019081526020015f206001015442610d0c9190611f75565b115b610d4d576040517f08c379a0000000000000000000000000000000000000000000000000000000008152600401610d4490612018565b60405180910390fd5b610d573382610772565b50565b5f151560015f3373ffffffffffffffffffffffffffffffffffffffff1673ffffffffffffffffffffffffffffffffffffffff1681526020019081526020015f205f8681526020019081526020015f2060070160169054906101000a900460ff16151514610dfc576040517f08c379a0000000000000000000000000000000000000000000000000000000008152600401610df3906120a6565b60405180910390fd5b5f8211610e3e576040517f08c379a0000000000000000000000000000000000000000000000000000000008152600401610e3590612134565b60405180910390fd5b818111610e80576040517f08c379a0000000000000000000000000000000000000000000000000000000008152600401610e77906121c2565b60405180910390fd5b6014831015610ec4576040517f08c379a0000000000000000000000000000000000000000000000000000000008152600401610ebb90612250565b60405180910390fd5b610ed13385858585611462565b50505050565b5f151560015f3373ffffffffffffffffffffffffffffffffffffffff1673ffffffffffffffffffffffffffffffffffffffff1681526020019081526020015f205f8381526020019081526020015f2060070160159054906101000a900460ff16151514610f79576040517f08c379a0000000000000000000000000000000000000000000000000000000008152600401610f7090611f2a565b60405180910390fd5b601460015f3373ffffffffffffffffffffffffffffffffffffffff1673ffffffffffffffffffffffffffffffffffffffff1681526020019081526020015f205f8381526020019081526020015f206001015442610fd69190611f75565b11611016576040517f08c379a000000000000000000000000000000000000000000000000000000000815260040161100d90612018565b60405180910390fd5b6110203382610772565b50565b6001602052815f5260405f20602052805f5260405f205f9150915050805f015490806001015490806002015490806003015490806004015490806005015490806006015f9054906101000a900473ffffffffffffffffffffffffffffffffffffffff1690806007015f9054906101000a900473ffffffffffffffffffffffffffffffffffffffff16908060070160149054906101000a900460ff16908060070160159054906101000a900460ff16908060070160169054906101000a900460ff1690806008015490508c565b805f808573ffffffffffffffffffffffffffffffffffffffff1673ffffffffffffffffffffffffffffffffffffffff1681526020019081526020015f205f8481526020019081526020015f205f828254611149919061226e565b92505081905550805f808673ffffffffffffffffffffffffffffffffffffffff1673ffffffffffffffffffffffffffffffffffffffff1681526020019081526020015f205f8481526020019081526020015f205f8282546111aa9190611f75565b9250508190555050505050565b5f60035f60015f8773ffffffffffffffffffffffffffffffffffffffff1673ffffffffffffffffffffffffffffffffffffffff1681526020019081526020015f205f8681526020019081526020015f206006015f9054906101000a900473ffffffffffffffffffffffffffffffffffffffff1673ffffffffffffffffffffffffffffffffffffffff1673ffffffffffffffffffffffffffffffffffffffff1681526020019081526020015f205f8481526020019081526020015f20819055508060015f8573ffffffffffffffffffffffffffffffffffffffff1673ffffffffffffffffffffffffffffffffffffffff1681526020019081526020015f205f8481526020019081526020015f20600301819055508060035f8673ffffffffffffffffffffffffffffffffffffffff1673ffffffffffffffffffffffffffffffffffffffff1681526020019081526020015f205f8481526020019081526020015f20819055508360015f8573ffffffffffffffffffffffffffffffffffffffff1673ffffffffffffffffffffffffffffffffffffffff1681526020019081526020015f205f8481526020019081526020015f206006015f6101000a81548173ffffffffffffffffffffffffffffffffffffffff021916908373ffffffffffffffffffffffffffffffffffffffff16021790555060015f8473ffffffffffffffffffffffffffffffffffffffff1673ffffffffffffffffffffffffffffffffffffffff1681526020019081526020015f205f8381526020019081526020015f206002015460015f8573ffffffffffffffffffffffffffffffffffffffff1673ffffffffffffffffffffffffffffffffffffffff1681526020019081526020015f205f8481526020019081526020015f206008015f828254611455919061226e565b9250508190555050505050565b61146a6116d6565b83816040018181525050818160a0018181525050828160800181815250505f816060018181525050428160200181815250505f8160c0019073ffffffffffffffffffffffffffffffffffffffff16908173ffffffffffffffffffffffffffffffffffffffff168152505060018161010001901515908115158152505084815f018181525050858160e0019073ffffffffffffffffffffffffffffffffffffffff16908173ffffffffffffffffffffffffffffffffffffffff16815250506001816101400190151590811515815250505f816101200190151590811515815250508060015f8873ffffffffffffffffffffffffffffffffffffffff1673ffffffffffffffffffffffffffffffffffffffff1681526020019081526020015f205f8781526020019081526020015f205f820151815f01556020820151816001015560408201518160020155606082015181600301556080820151816004015560a0820151816005015560c0820151816006015f6101000a81548173ffffffffffffffffffffffffffffffffffffffff021916908373ffffffffffffffffffffffffffffffffffffffff16021790555060e0820151816007015f6101000a81548173ffffffffffffffffffffffffffffffffffffffff021916908373ffffffffffffffffffffffffffffffffffffffff1602179055506101008201518160070160146101000a81548160ff0219169083151502179055506101208201518160070160156101000a81548160ff0219169083151502179055506101408201518160070160166101000a81548160ff0219169083151502179055506101608201518160080155905050505050505050565b6040518061018001604052805f81526020015f81526020015f81526020015f81526020015f81526020015f81526020015f73ffffffffffffffffffffffffffffffffffffffff1681526020015f73ffffffffffffffffffffffffffffffffffffffff1681526020015f151581526020015f151581526020015f151581526020015f81525090565b5f80fd5b5f73ffffffffffffffffffffffffffffffffffffffff82169050919050565b5f61178a82611761565b9050919050565b61179a81611780565b81146117a4575f80fd5b50565b5f813590506117b581611791565b92915050565b5f819050919050565b6117cd816117bb565b81146117d7575f80fd5b50565b5f813590506117e8816117c4565b92915050565b5f80604083850312156118045761180361175d565b5b5f611811858286016117a7565b9250506020611822858286016117da565b9150509250929050565b611835816117bb565b82525050565b5f60208201905061184e5f83018461182c565b92915050565b5f81519050919050565b5f82825260208201905092915050565b5f5b8381101561188b578082015181840152602081019050611870565b5f8484015250505050565b5f601f19601f8301169050919050565b5f6118b082611854565b6118ba818561185e565b93506118ca81856020860161186e565b6118d381611896565b840191505092915050565b5f60e0820190508181035f8301526118f6818a6118a6565b9050818103602083015261190a81896118a6565b9050818103604083015261191e81886118a6565b905061192d606083018761182c565b61193a608083018661182c565b61194760a083018561182c565b61195460c083018461182c565b98975050505050505050565b5f805f80608085870312156119785761197761175d565b5b5f611985878288016117a7565b9450506020611996878288016117a7565b93505060406119a7878288016117da565b92505060606119b8878288016117da565b91505092959194509250565b5f805f606084860312156119db576119da61175d565b5b5f6119e8868287016117a7565b93505060206119f9868287016117da565b9250506040611a0a868287016117da565b9150509250925092565b5f60208284031215611a2957611a2861175d565b5b5f611a36848285016117da565b91505092915050565b5f805f8060808587031215611a5757611a5661175d565b5b5f611a64878288016117da565b9450506020611a75878288016117da565b9350506040611a86878288016117da565b9250506060611a97878288016117da565b91505092959194509250565b611aac81611780565b82525050565b5f8115159050919050565b611ac681611ab2565b82525050565b5f61018082019050611ae05f83018f61182c565b611aed602083018e61182c565b611afa604083018d61182c565b611b07606083018c61182c565b611b14608083018b61182c565b611b2160a083018a61182c565b611b2e60c0830189611aa3565b611b3b60e0830188611aa3565b611b49610100830187611abd565b611b57610120830186611abd565b611b65610140830185611abd565b611b7361016083018461182c565b9d9c50505050505050505050505050565b7f4e487b71000000000000000000000000000000000000000000000000000000005f52602260045260245ffd5b5f6002820490506001821680611bc857607f821691505b602082108103611bdb57611bda611b84565b5b50919050565b7f4572726f723a206e6f7420656e6f7567682063617368000000000000000000005f82015250565b5f611c1560168361185e565b9150611c2082611be1565b602082019050919050565b5f6020820190508181035f830152611c4281611c09565b9050919050565b7f4572726f723a2076616c7565206d757374206265206d6f7265207468616e20305f8201527f20746f207472616e736572000000000000000000000000000000000000000000602082015250565b5f611ca3602b8361185e565b9150611cae82611c49565b604082019050919050565b5f6020820190508181035f830152611cd081611c97565b9050919050565b7f4572726f723a206e756c6c2061646472657373000000000000000000000000005f82015250565b5f611d0b60138361185e565b9150611d1682611cd7565b602082019050919050565b5f6020820190508181035f830152611d3881611cff565b9050919050565b7f4572726f723a206f776e65722063616e206e6f742062652061206269747465725f82015250565b5f611d7360208361185e565b9150611d7e82611d3f565b602082019050919050565b5f6020820190508181035f830152611da081611d67565b9050919050565b7f4572726f723a2076616c7565206d757374206265206d6f7265207468616e20705f8201527f7269636520746f20626974000000000000000000000000000000000000000000602082015250565b5f611e01602b8361185e565b9150611e0c82611da7565b604082019050919050565b5f6020820190508181035f830152611e2e81611df5565b9050919050565b5f819050919050565b5f819050919050565b5f611e61611e5c611e5784611e35565b611e3e565b6117bb565b9050919050565b611e7181611e47565b82525050565b5f608082019050611e8a5f830187611aa3565b611e976020830186611aa3565b611ea4604083018561182c565b611eb16060830184611e68565b95945050505050565b7f4572726f723a2061756374696f6e20697320616c72656164792066696e6973685f8201527f6564000000000000000000000000000000000000000000000000000000000000602082015250565b5f611f1460228361185e565b9150611f1f82611eba565b604082019050919050565b5f6020820190508181035f830152611f4181611f08565b9050919050565b7f4e487b71000000000000000000000000000000000000000000000000000000005f52601160045260245ffd5b5f611f7f826117bb565b9150611f8a836117bb565b9250828203905081811115611fa257611fa1611f48565b5b92915050565b7f4572726f723a206e6f20726561736f6e20746f20696e746572727570742061755f8201527f6374696f6e000000000000000000000000000000000000000000000000000000602082015250565b5f61200260258361185e565b915061200d82611fa8565b604082019050919050565b5f6020820190508181035f83015261202f81611ff6565b9050919050565b7f4572726f723a2061756374696f6e20697320616c7265616479207374617274655f8201527f6400000000000000000000000000000000000000000000000000000000000000602082015250565b5f61209060218361185e565b915061209b82612036565b604082019050919050565b5f6020820190508181035f8301526120bd81612084565b9050919050565b7f4572726f723a206d696e696d616c207072696365206d75737420636f7374206d5f8201527f6f7265207468616e203000000000000000000000000000000000000000000000602082015250565b5f61211e602a8361185e565b9150612129826120c4565b604082019050919050565b5f6020820190508181035f83015261214b81612112565b9050919050565b7f4572726f723a206d6178207072696365206d75737420636f7374206d6f7265205f8201527f7468616e206d61696e696d616c206f6e65000000000000000000000000000000602082015250565b5f6121ac60318361185e565b91506121b782612152565b604082019050919050565b5f6020820190508181035f8301526121d9816121a0565b9050919050565b7f4572726f723a206475726174696f6e206d757374206265206e6f2073686f72745f8201527f6572207468616e206d696e696d616c206475726174696f6e0000000000000000602082015250565b5f61223a60388361185e565b9150612245826121e0565b604082019050919050565b5f6020820190508181035f8301526122678161222e565b9050919050565b5f612278826117bb565b9150612283836117bb565b925082820190508082111561229b5761229a611f48565b5b9291505056fea264697066735822122068fca10694026ea36b4547b92f3f9f3a74ebec8598d5330eeb5d717198bb1a6464736f6c63430008180033",
					"opcodes": "PUSH1 0x80 PUSH1 0x40 MSTORE CALLVALUE DUP1 ISZERO PUSH2 0xF JUMPI PUSH0 DUP1 REVERT JUMPDEST POP PUSH2 0x22D7 DUP1 PUSH2 0x1D PUSH0 CODECOPY PUSH0 RETURN INVALID PUSH1 0x80 PUSH1 0x40 MSTORE PUSH1 0x4 CALLDATASIZE LT PUSH2 0x8F JUMPI PUSH0 CALLDATALOAD PUSH1 0xE0 SHR DUP1 PUSH4 0x5A2B5EEE GT PUSH2 0x58 JUMPI DUP1 PUSH4 0x5A2B5EEE EQ PUSH2 0x191 JUMPI DUP1 PUSH4 0x79F87CDF EQ PUSH2 0x1AD JUMPI DUP1 PUSH4 0x8D2C4488 EQ PUSH2 0x1C9 JUMPI DUP1 PUSH4 0xCF266ED0 EQ PUSH2 0x1F1 JUMPI DUP1 PUSH4 0xE2AD54C1 EQ PUSH2 0x20D JUMPI PUSH2 0x8F JUMP JUMPDEST DUP1 PUSH3 0xFDD58E EQ PUSH2 0x93 JUMPI DUP1 PUSH4 0x8EB803D EQ PUSH2 0xCF JUMPI DUP1 PUSH4 0xFEBDD49 EQ PUSH2 0x111 JUMPI DUP1 PUSH4 0x3DB9F55B EQ PUSH2 0x12D JUMPI DUP1 PUSH4 0x4AD56CC1 EQ PUSH2 0x169 JUMPI JUMPDEST PUSH0 DUP1 REVERT JUMPDEST CALLVALUE DUP1 ISZERO PUSH2 0x9E JUMPI PUSH0 DUP1 REVERT JUMPDEST POP PUSH2 0xB9 PUSH1 0x4 DUP1 CALLDATASIZE SUB DUP2 ADD SWAP1 PUSH2 0xB4 SWAP2 SWAP1 PUSH2 0x17EE JUMP JUMPDEST PUSH2 0x254 JUMP JUMPDEST PUSH1 0x40 MLOAD PUSH2 0xC6 SWAP2 SWAP1 PUSH2 0x183B JUMP JUMPDEST PUSH1 0x40 MLOAD DUP1 SWAP2 SUB SWAP1 RETURN JUMPDEST CALLVALUE DUP1 ISZERO PUSH2 0xDA JUMPI PUSH0 DUP1 REVERT JUMPDEST POP PUSH2 0xF5 PUSH1 0x4 DUP1 CALLDATASIZE SUB DUP2 ADD SWAP1 PUSH2 0xF0 SWAP2 SWAP1 PUSH2 0x17EE JUMP JUMPDEST PUSH2 0x2A9 JUMP JUMPDEST PUSH1 0x40 MLOAD PUSH2 0x108 SWAP8 SWAP7 SWAP6 SWAP5 SWAP4 SWAP3 SWAP2 SWAP1 PUSH2 0x18DE JUMP JUMPDEST PUSH1 0x40 MLOAD DUP1 SWAP2 SUB SWAP1 RETURN JUMPDEST PUSH2 0x12B PUSH1 0x4 DUP1 CALLDATASIZE SUB DUP2 ADD SWAP1 PUSH2 0x126 SWAP2 SWAP1 PUSH2 0x1960 JUMP JUMPDEST PUSH2 0x484 JUMP JUMPDEST STOP JUMPDEST CALLVALUE DUP1 ISZERO PUSH2 0x138 JUMPI PUSH0 DUP1 REVERT JUMPDEST POP PUSH2 0x153 PUSH1 0x4 DUP1 CALLDATASIZE SUB DUP2 ADD SWAP1 PUSH2 0x14E SWAP2 SWAP1 PUSH2 0x17EE JUMP JUMPDEST PUSH2 0x642 JUMP JUMPDEST PUSH1 0x40 MLOAD PUSH2 0x160 SWAP2 SWAP1 PUSH2 0x183B JUMP JUMPDEST PUSH1 0x40 MLOAD DUP1 SWAP2 SUB SWAP1 RETURN JUMPDEST CALLVALUE DUP1 ISZERO PUSH2 0x174 JUMPI PUSH0 DUP1 REVERT JUMPDEST POP PUSH2 0x18F PUSH1 0x4 DUP1 CALLDATASIZE SUB DUP2 ADD SWAP1 PUSH2 0x18A SWAP2 SWAP1 PUSH2 0x19C4 JUMP JUMPDEST PUSH2 0x662 JUMP JUMPDEST STOP JUMPDEST PUSH2 0x1AB PUSH1 0x4 DUP1 CALLDATASIZE SUB DUP2 ADD SWAP1 PUSH2 0x1A6 SWAP2 SWAP1 PUSH2 0x17EE JUMP JUMPDEST PUSH2 0x772 JUMP JUMPDEST STOP JUMPDEST PUSH2 0x1C7 PUSH1 0x4 DUP1 CALLDATASIZE SUB DUP2 ADD SWAP1 PUSH2 0x1C2 SWAP2 SWAP1 PUSH2 0x1A14 JUMP JUMPDEST PUSH2 0xB65 JUMP JUMPDEST STOP JUMPDEST CALLVALUE DUP1 ISZERO PUSH2 0x1D4 JUMPI PUSH0 DUP1 REVERT JUMPDEST POP PUSH2 0x1EF PUSH1 0x4 DUP1 CALLDATASIZE SUB DUP2 ADD SWAP1 PUSH2 0x1EA SWAP2 SWAP1 PUSH2 0x1A3F JUMP JUMPDEST PUSH2 0xD5A JUMP JUMPDEST STOP JUMPDEST PUSH2 0x20B PUSH1 0x4 DUP1 CALLDATASIZE SUB DUP2 ADD SWAP1 PUSH2 0x206 SWAP2 SWAP1 PUSH2 0x1A14 JUMP JUMPDEST PUSH2 0xED7 JUMP JUMPDEST STOP JUMPDEST CALLVALUE DUP1 ISZERO PUSH2 0x218 JUMPI PUSH0 DUP1 REVERT JUMPDEST POP PUSH2 0x233 PUSH1 0x4 DUP1 CALLDATASIZE SUB DUP2 ADD SWAP1 PUSH2 0x22E SWAP2 SWAP1 PUSH2 0x17EE JUMP JUMPDEST PUSH2 0x1023 JUMP JUMPDEST PUSH1 0x40 MLOAD PUSH2 0x24B SWAP13 SWAP12 SWAP11 SWAP10 SWAP9 SWAP8 SWAP7 SWAP6 SWAP5 SWAP4 SWAP3 SWAP2 SWAP1 PUSH2 0x1ACC JUMP JUMPDEST PUSH1 0x40 MLOAD DUP1 SWAP2 SUB SWAP1 RETURN JUMPDEST PUSH0 DUP1 PUSH0 DUP5 PUSH20 0xFFFFFFFFFFFFFFFFFFFFFFFFFFFFFFFFFFFFFFFF AND PUSH20 0xFFFFFFFFFFFFFFFFFFFFFFFFFFFFFFFFFFFFFFFF AND DUP2 MSTORE PUSH1 0x20 ADD SWAP1 DUP2 MSTORE PUSH1 0x20 ADD PUSH0 KECCAK256 PUSH0 DUP4 DUP2 MSTORE PUSH1 0x20 ADD SWAP1 DUP2 MSTORE PUSH1 0x20 ADD PUSH0 KECCAK256 SLOAD SWAP1 POP SWAP3 SWAP2 POP POP JUMP JUMPDEST PUSH1 0x2 PUSH1 0x20 MSTORE DUP2 PUSH0 MSTORE PUSH1 0x40 PUSH0 KECCAK256 PUSH1 0x20 MSTORE DUP1 PUSH0 MSTORE PUSH1 0x40 PUSH0 KECCAK256 PUSH0 SWAP2 POP SWAP2 POP POP DUP1 PUSH0 ADD DUP1 SLOAD PUSH2 0x2D3 SWAP1 PUSH2 0x1BB1 JUMP JUMPDEST DUP1 PUSH1 0x1F ADD PUSH1 0x20 DUP1 SWAP2 DIV MUL PUSH1 0x20 ADD PUSH1 0x40 MLOAD SWAP1 DUP2 ADD PUSH1 0x40 MSTORE DUP1 SWAP3 SWAP2 SWAP1 DUP2 DUP2 MSTORE PUSH1 0x20 ADD DUP3 DUP1 SLOAD PUSH2 0x2FF SWAP1 PUSH2 0x1BB1 JUMP JUMPDEST DUP1 ISZERO PUSH2 0x34A JUMPI DUP1 PUSH1 0x1F LT PUSH2 0x321 JUMPI PUSH2 0x100 DUP1 DUP4 SLOAD DIV MUL DUP4 MSTORE SWAP2 PUSH1 0x20 ADD SWAP2 PUSH2 0x34A JUMP JUMPDEST DUP3 ADD SWAP2 SWAP1 PUSH0 MSTORE PUSH1 0x20 PUSH0 KECCAK256 SWAP1 JUMPDEST DUP2 SLOAD DUP2 MSTORE SWAP1 PUSH1 0x1 ADD SWAP1 PUSH1 0x20 ADD DUP1 DUP4 GT PUSH2 0x32D JUMPI DUP3 SWAP1 SUB PUSH1 0x1F AND DUP3 ADD SWAP2 JUMPDEST POP POP POP POP POP SWAP1 DUP1 PUSH1 0x1 ADD DUP1 SLOAD PUSH2 0x35F SWAP1 PUSH2 0x1BB1 JUMP JUMPDEST DUP1 PUSH1 0x1F ADD PUSH1 0x20 DUP1 SWAP2 DIV MUL PUSH1 0x20 ADD PUSH1 0x40 MLOAD SWAP1 DUP2 ADD PUSH1 0x40 MSTORE DUP1 SWAP3 SWAP2 SWAP1 DUP2 DUP2 MSTORE PUSH1 0x20 ADD DUP3 DUP1 SLOAD PUSH2 0x38B SWAP1 PUSH2 0x1BB1 JUMP JUMPDEST DUP1 ISZERO PUSH2 0x3D6 JUMPI DUP1 PUSH1 0x1F LT PUSH2 0x3AD JUMPI PUSH2 0x100 DUP1 DUP4 SLOAD DIV MUL DUP4 MSTORE SWAP2 PUSH1 0x20 ADD SWAP2 PUSH2 0x3D6 JUMP JUMPDEST DUP3 ADD SWAP2 SWAP1 PUSH0 MSTORE PUSH1 0x20 PUSH0 KECCAK256 SWAP1 JUMPDEST DUP2 SLOAD DUP2 MSTORE SWAP1 PUSH1 0x1 ADD SWAP1 PUSH1 0x20 ADD DUP1 DUP4 GT PUSH2 0x3B9 JUMPI DUP3 SWAP1 SUB PUSH1 0x1F AND DUP3 ADD SWAP2 JUMPDEST POP POP POP POP POP SWAP1 DUP1 PUSH1 0x2 ADD DUP1 SLOAD PUSH2 0x3EB SWAP1 PUSH2 0x1BB1 JUMP JUMPDEST DUP1 PUSH1 0x1F ADD PUSH1 0x20 DUP1 SWAP2 DIV MUL PUSH1 0x20 ADD PUSH1 0x40 MLOAD SWAP1 DUP2 ADD PUSH1 0x40 MSTORE DUP1 SWAP3 SWAP2 SWAP1 DUP2 DUP2 MSTORE PUSH1 0x20 ADD DUP3 DUP1 SLOAD PUSH2 0x417 SWAP1 PUSH2 0x1BB1 JUMP JUMPDEST DUP1 ISZERO PUSH2 0x462 JUMPI DUP1 PUSH1 0x1F LT PUSH2 0x439 JUMPI PUSH2 0x100 DUP1 DUP4 SLOAD DIV MUL DUP4 MSTORE SWAP2 PUSH1 0x20 ADD SWAP2 PUSH2 0x462 JUMP JUMPDEST DUP3 ADD SWAP2 SWAP1 PUSH0 MSTORE PUSH1 0x20 PUSH0 KECCAK256 SWAP1 JUMPDEST DUP2 SLOAD DUP2 MSTORE SWAP1 PUSH1 0x1 ADD SWAP1 PUSH1 0x20 ADD DUP1 DUP4 GT PUSH2 0x445 JUMPI DUP3 SWAP1 SUB PUSH1 0x1F AND DUP3 ADD SWAP2 JUMPDEST POP POP POP POP POP SWAP1 DUP1 PUSH1 0x3 ADD SLOAD SWAP1 DUP1 PUSH1 0x4 ADD SLOAD SWAP1 DUP1 PUSH1 0x5 ADD SLOAD SWAP1 DUP1 PUSH1 0x6 ADD SLOAD SWAP1 POP DUP8 JUMP JUMPDEST DUP1 PUSH0 DUP1 DUP7 PUSH20 0xFFFFFFFFFFFFFFFFFFFFFFFFFFFFFFFFFFFFFFFF AND PUSH20 0xFFFFFFFFFFFFFFFFFFFFFFFFFFFFFFFFFFFFFFFF AND DUP2 MSTORE PUSH1 0x20 ADD SWAP1 DUP2 MSTORE PUSH1 0x20 ADD PUSH0 KECCAK256 PUSH0 DUP5 DUP2 MSTORE PUSH1 0x20 ADD SWAP1 DUP2 MSTORE PUSH1 0x20 ADD PUSH0 KECCAK256 SLOAD LT ISZERO PUSH2 0x512 JUMPI PUSH1 0x40 MLOAD PUSH32 0x8C379A000000000000000000000000000000000000000000000000000000000 DUP2 MSTORE PUSH1 0x4 ADD PUSH2 0x509 SWAP1 PUSH2 0x1C2B JUMP JUMPDEST PUSH1 0x40 MLOAD DUP1 SWAP2 SUB SWAP1 REVERT JUMPDEST PUSH0 DUP2 GT PUSH2 0x554 JUMPI PUSH1 0x40 MLOAD PUSH32 0x8C379A000000000000000000000000000000000000000000000000000000000 DUP2 MSTORE PUSH1 0x4 ADD PUSH2 0x54B SWAP1 PUSH2 0x1CB9 JUMP JUMPDEST PUSH1 0x40 MLOAD DUP1 SWAP2 SUB SWAP1 REVERT JUMPDEST PUSH0 PUSH20 0xFFFFFFFFFFFFFFFFFFFFFFFFFFFFFFFFFFFFFFFF AND DUP5 PUSH20 0xFFFFFFFFFFFFFFFFFFFFFFFFFFFFFFFFFFFFFFFF AND SUB PUSH2 0x5C2 JUMPI PUSH1 0x40 MLOAD PUSH32 0x8C379A000000000000000000000000000000000000000000000000000000000 DUP2 MSTORE PUSH1 0x4 ADD PUSH2 0x5B9 SWAP1 PUSH2 0x1D21 JUMP JUMPDEST PUSH1 0x40 MLOAD DUP1 SWAP2 SUB SWAP1 REVERT JUMPDEST PUSH0 PUSH20 0xFFFFFFFFFFFFFFFFFFFFFFFFFFFFFFFFFFFFFFFF AND DUP4 PUSH20 0xFFFFFFFFFFFFFFFFFFFFFFFFFFFFFFFFFFFFFFFF AND SUB PUSH2 0x630 JUMPI PUSH1 0x40 MLOAD PUSH32 0x8C379A000000000000000000000000000000000000000000000000000000000 DUP2 MSTORE PUSH1 0x4 ADD PUSH2 0x627 SWAP1 PUSH2 0x1D21 JUMP JUMPDEST PUSH1 0x40 MLOAD DUP1 SWAP2 SUB SWAP1 REVERT JUMPDEST PUSH2 0x63C DUP5 DUP5 DUP5 DUP5 PUSH2 0x10EF JUMP JUMPDEST POP POP POP POP JUMP JUMPDEST PUSH1 0x3 PUSH1 0x20 MSTORE DUP2 PUSH0 MSTORE PUSH1 0x40 PUSH0 KECCAK256 PUSH1 0x20 MSTORE DUP1 PUSH0 MSTORE PUSH1 0x40 PUSH0 KECCAK256 PUSH0 SWAP2 POP SWAP2 POP POP SLOAD DUP2 JUMP JUMPDEST DUP3 PUSH20 0xFFFFFFFFFFFFFFFFFFFFFFFFFFFFFFFFFFFFFFFF AND CALLER PUSH20 0xFFFFFFFFFFFFFFFFFFFFFFFFFFFFFFFFFFFFFFFF AND SUB PUSH2 0x6D0 JUMPI PUSH1 0x40 MLOAD PUSH32 0x8C379A000000000000000000000000000000000000000000000000000000000 DUP2 MSTORE PUSH1 0x4 ADD PUSH2 0x6C7 SWAP1 PUSH2 0x1D89 JUMP JUMPDEST PUSH1 0x40 MLOAD DUP1 SWAP2 SUB SWAP1 REVERT JUMPDEST DUP1 PUSH1 0x1 PUSH0 DUP6 PUSH20 0xFFFFFFFFFFFFFFFFFFFFFFFFFFFFFFFFFFFFFFFF AND PUSH20 0xFFFFFFFFFFFFFFFFFFFFFFFFFFFFFFFFFFFFFFFF AND DUP2 MSTORE PUSH1 0x20 ADD SWAP1 DUP2 MSTORE PUSH1 0x20 ADD PUSH0 KECCAK256 PUSH0 DUP5 DUP2 MSTORE PUSH1 0x20 ADD SWAP1 DUP2 MSTORE PUSH1 0x20 ADD PUSH0 KECCAK256 PUSH1 0x3 ADD SLOAD LT PUSH2 0x761 JUMPI PUSH1 0x40 MLOAD PUSH32 0x8C379A000000000000000000000000000000000000000000000000000000000 DUP2 MSTORE PUSH1 0x4 ADD PUSH2 0x758 SWAP1 PUSH2 0x1E17 JUMP JUMPDEST PUSH1 0x40 MLOAD DUP1 SWAP2 SUB SWAP1 REVERT JUMPDEST PUSH2 0x76D CALLER DUP5 DUP5 DUP5 PUSH2 0x11B7 JUMP JUMPDEST POP POP POP JUMP JUMPDEST PUSH0 PUSH1 0x1 PUSH0 DUP5 PUSH20 0xFFFFFFFFFFFFFFFFFFFFFFFFFFFFFFFFFFFFFFFF AND PUSH20 0xFFFFFFFFFFFFFFFFFFFFFFFFFFFFFFFFFFFFFFFF AND DUP2 MSTORE PUSH1 0x20 ADD SWAP1 DUP2 MSTORE PUSH1 0x20 ADD PUSH0 KECCAK256 PUSH0 DUP4 DUP2 MSTORE PUSH1 0x20 ADD SWAP1 DUP2 MSTORE PUSH1 0x20 ADD PUSH0 KECCAK256 PUSH1 0x7 ADD PUSH1 0x14 PUSH2 0x100 EXP DUP2 SLOAD DUP2 PUSH1 0xFF MUL NOT AND SWAP1 DUP4 ISZERO ISZERO MUL OR SWAP1 SSTORE POP PUSH1 0x1 DUP1 PUSH0 DUP5 PUSH20 0xFFFFFFFFFFFFFFFFFFFFFFFFFFFFFFFFFFFFFFFF AND PUSH20 0xFFFFFFFFFFFFFFFFFFFFFFFFFFFFFFFFFFFFFFFF AND DUP2 MSTORE PUSH1 0x20 ADD SWAP1 DUP2 MSTORE PUSH1 0x20 ADD PUSH0 KECCAK256 PUSH0 DUP4 DUP2 MSTORE PUSH1 0x20 ADD SWAP1 DUP2 MSTORE PUSH1 0x20 ADD PUSH0 KECCAK256 PUSH1 0x7 ADD PUSH1 0x16 PUSH2 0x100 EXP DUP2 SLOAD DUP2 PUSH1 0xFF MUL NOT AND SWAP1 DUP4 ISZERO ISZERO MUL OR SWAP1 SSTORE POP PUSH1 0x1 DUP1 PUSH0 DUP5 PUSH20 0xFFFFFFFFFFFFFFFFFFFFFFFFFFFFFFFFFFFFFFFF AND PUSH20 0xFFFFFFFFFFFFFFFFFFFFFFFFFFFFFFFFFFFFFFFF AND DUP2 MSTORE PUSH1 0x20 ADD SWAP1 DUP2 MSTORE PUSH1 0x20 ADD PUSH0 KECCAK256 PUSH0 DUP4 DUP2 MSTORE PUSH1 0x20 ADD SWAP1 DUP2 MSTORE PUSH1 0x20 ADD PUSH0 KECCAK256 PUSH1 0x7 ADD PUSH1 0x15 PUSH2 0x100 EXP DUP2 SLOAD DUP2 PUSH1 0xFF MUL NOT AND SWAP1 DUP4 ISZERO ISZERO MUL OR SWAP1 SSTORE POP PUSH0 PUSH1 0x1 PUSH0 CALLER PUSH20 0xFFFFFFFFFFFFFFFFFFFFFFFFFFFFFFFFFFFFFFFF AND PUSH20 0xFFFFFFFFFFFFFFFFFFFFFFFFFFFFFFFFFFFFFFFF AND DUP2 MSTORE PUSH1 0x20 ADD SWAP1 DUP2 MSTORE PUSH1 0x20 ADD PUSH0 KECCAK256 PUSH0 DUP4 DUP2 MSTORE PUSH1 0x20 ADD SWAP1 DUP2 MSTORE PUSH1 0x20 ADD PUSH0 KECCAK256 PUSH1 0x3 ADD SLOAD EQ ISZERO DUP1 ISZERO PUSH2 0x9A0 JUMPI POP PUSH0 PUSH20 0xFFFFFFFFFFFFFFFFFFFFFFFFFFFFFFFFFFFFFFFF AND PUSH1 0x1 PUSH0 CALLER PUSH20 0xFFFFFFFFFFFFFFFFFFFFFFFFFFFFFFFFFFFFFFFF AND PUSH20 0xFFFFFFFFFFFFFFFFFFFFFFFFFFFFFFFFFFFFFFFF AND DUP2 MSTORE PUSH1 0x20 ADD SWAP1 DUP2 MSTORE PUSH1 0x20 ADD PUSH0 KECCAK256 PUSH0 DUP4 DUP2 MSTORE PUSH1 0x20 ADD SWAP1 DUP2 MSTORE PUSH1 0x20 ADD PUSH0 KECCAK256 PUSH1 0x6 ADD PUSH0 SWAP1 SLOAD SWAP1 PUSH2 0x100 EXP SWAP1 DIV PUSH20 0xFFFFFFFFFFFFFFFFFFFFFFFFFFFFFFFFFFFFFFFF AND PUSH20 0xFFFFFFFFFFFFFFFFFFFFFFFFFFFFFFFFFFFFFFFF AND EQ ISZERO JUMPDEST ISZERO PUSH2 0xB61 JUMPI PUSH0 PUSH1 0x3 PUSH0 PUSH1 0x1 PUSH0 DUP7 PUSH20 0xFFFFFFFFFFFFFFFFFFFFFFFFFFFFFFFFFFFFFFFF AND PUSH20 0xFFFFFFFFFFFFFFFFFFFFFFFFFFFFFFFFFFFFFFFF AND DUP2 MSTORE PUSH1 0x20 ADD SWAP1 DUP2 MSTORE PUSH1 0x20 ADD PUSH0 KECCAK256 PUSH0 DUP6 DUP2 MSTORE PUSH1 0x20 ADD SWAP1 DUP2 MSTORE PUSH1 0x20 ADD PUSH0 KECCAK256 PUSH1 0x6 ADD PUSH0 SWAP1 SLOAD SWAP1 PUSH2 0x100 EXP SWAP1 DIV PUSH20 0xFFFFFFFFFFFFFFFFFFFFFFFFFFFFFFFFFFFFFFFF AND PUSH20 0xFFFFFFFFFFFFFFFFFFFFFFFFFFFFFFFFFFFFFFFF AND PUSH20 0xFFFFFFFFFFFFFFFFFFFFFFFFFFFFFFFFFFFFFFFF AND DUP2 MSTORE PUSH1 0x20 ADD SWAP1 DUP2 MSTORE PUSH1 0x20 ADD PUSH0 KECCAK256 PUSH0 DUP4 DUP2 MSTORE PUSH1 0x20 ADD SWAP1 DUP2 MSTORE PUSH1 0x20 ADD PUSH0 KECCAK256 DUP2 SWAP1 SSTORE POP PUSH1 0x4 PUSH0 SWAP1 SLOAD SWAP1 PUSH2 0x100 EXP SWAP1 DIV PUSH20 0xFFFFFFFFFFFFFFFFFFFFFFFFFFFFFFFFFFFFFFFF AND PUSH20 0xFFFFFFFFFFFFFFFFFFFFFFFFFFFFFFFFFFFFFFFF AND PUSH4 0xFEBDD49 PUSH1 0x1 PUSH0 DUP6 PUSH20 0xFFFFFFFFFFFFFFFFFFFFFFFFFFFFFFFFFFFFFFFF AND PUSH20 0xFFFFFFFFFFFFFFFFFFFFFFFFFFFFFFFFFFFFFFFF AND DUP2 MSTORE PUSH1 0x20 ADD SWAP1 DUP2 MSTORE PUSH1 0x20 ADD PUSH0 KECCAK256 PUSH0 DUP5 DUP2 MSTORE PUSH1 0x20 ADD SWAP1 DUP2 MSTORE PUSH1 0x20 ADD PUSH0 KECCAK256 PUSH1 0x6 ADD PUSH0 SWAP1 SLOAD SWAP1 PUSH2 0x100 EXP SWAP1 DIV PUSH20 0xFFFFFFFFFFFFFFFFFFFFFFFFFFFFFFFFFFFFFFFF AND DUP5 DUP5 PUSH1 0x1 PUSH1 0x40 MLOAD DUP6 PUSH4 0xFFFFFFFF AND PUSH1 0xE0 SHL DUP2 MSTORE PUSH1 0x4 ADD PUSH2 0xB33 SWAP5 SWAP4 SWAP3 SWAP2 SWAP1 PUSH2 0x1E77 JUMP JUMPDEST PUSH0 PUSH1 0x40 MLOAD DUP1 DUP4 SUB DUP2 PUSH0 DUP8 DUP1 EXTCODESIZE ISZERO DUP1 ISZERO PUSH2 0xB4A JUMPI PUSH0 DUP1 REVERT JUMPDEST POP GAS CALL ISZERO DUP1 ISZERO PUSH2 0xB5C JUMPI RETURNDATASIZE PUSH0 DUP1 RETURNDATACOPY RETURNDATASIZE PUSH0 REVERT JUMPDEST POP POP POP POP JUMPDEST POP POP JUMP JUMPDEST PUSH0 ISZERO ISZERO PUSH1 0x1 PUSH0 CALLER PUSH20 0xFFFFFFFFFFFFFFFFFFFFFFFFFFFFFFFFFFFFFFFF AND PUSH20 0xFFFFFFFFFFFFFFFFFFFFFFFFFFFFFFFFFFFFFFFF AND DUP2 MSTORE PUSH1 0x20 ADD SWAP1 DUP2 MSTORE PUSH1 0x20 ADD PUSH0 KECCAK256 PUSH0 DUP4 DUP2 MSTORE PUSH1 0x20 ADD SWAP1 DUP2 MSTORE PUSH1 0x20 ADD PUSH0 KECCAK256 PUSH1 0x7 ADD PUSH1 0x15 SWAP1 SLOAD SWAP1 PUSH2 0x100 EXP SWAP1 DIV PUSH1 0xFF AND ISZERO ISZERO EQ PUSH2 0xC07 JUMPI PUSH1 0x40 MLOAD PUSH32 0x8C379A000000000000000000000000000000000000000000000000000000000 DUP2 MSTORE PUSH1 0x4 ADD PUSH2 0xBFE SWAP1 PUSH2 0x1F2A JUMP JUMPDEST PUSH1 0x40 MLOAD DUP1 SWAP2 SUB SWAP1 REVERT JUMPDEST PUSH1 0x1 PUSH0 CALLER PUSH20 0xFFFFFFFFFFFFFFFFFFFFFFFFFFFFFFFFFFFFFFFF AND PUSH20 0xFFFFFFFFFFFFFFFFFFFFFFFFFFFFFFFFFFFFFFFF AND DUP2 MSTORE PUSH1 0x20 ADD SWAP1 DUP2 MSTORE PUSH1 0x20 ADD PUSH0 KECCAK256 PUSH0 DUP3 DUP2 MSTORE PUSH1 0x20 ADD SWAP1 DUP2 MSTORE PUSH1 0x20 ADD PUSH0 KECCAK256 PUSH1 0x5 ADD SLOAD PUSH1 0x1 PUSH0 CALLER PUSH20 0xFFFFFFFFFFFFFFFFFFFFFFFFFFFFFFFFFFFFFFFF AND PUSH20 0xFFFFFFFFFFFFFFFFFFFFFFFFFFFFFFFFFFFFFFFF AND DUP2 MSTORE PUSH1 0x20 ADD SWAP1 DUP2 MSTORE PUSH1 0x20 ADD PUSH0 KECCAK256 PUSH0 DUP4 DUP2 MSTORE PUSH1 0x20 ADD SWAP1 DUP2 MSTORE PUSH1 0x20 ADD PUSH0 KECCAK256 PUSH1 0x3 ADD SLOAD LT ISZERO DUP1 PUSH2 0xD0E JUMPI POP PUSH1 0x14 PUSH1 0x1 PUSH0 CALLER PUSH20 0xFFFFFFFFFFFFFFFFFFFFFFFFFFFFFFFFFFFFFFFF AND PUSH20 0xFFFFFFFFFFFFFFFFFFFFFFFFFFFFFFFFFFFFFFFF AND DUP2 MSTORE PUSH1 0x20 ADD SWAP1 DUP2 MSTORE PUSH1 0x20 ADD PUSH0 KECCAK256 PUSH0 DUP4 DUP2 MSTORE PUSH1 0x20 ADD SWAP1 DUP2 MSTORE PUSH1 0x20 ADD PUSH0 KECCAK256 PUSH1 0x1 ADD SLOAD TIMESTAMP PUSH2 0xD0C SWAP2 SWAP1 PUSH2 0x1F75 JUMP JUMPDEST GT JUMPDEST PUSH2 0xD4D JUMPI PUSH1 0x40 MLOAD PUSH32 0x8C379A000000000000000000000000000000000000000000000000000000000 DUP2 MSTORE PUSH1 0x4 ADD PUSH2 0xD44 SWAP1 PUSH2 0x2018 JUMP JUMPDEST PUSH1 0x40 MLOAD DUP1 SWAP2 SUB SWAP1 REVERT JUMPDEST PUSH2 0xD57 CALLER DUP3 PUSH2 0x772 JUMP JUMPDEST POP JUMP JUMPDEST PUSH0 ISZERO ISZERO PUSH1 0x1 PUSH0 CALLER PUSH20 0xFFFFFFFFFFFFFFFFFFFFFFFFFFFFFFFFFFFFFFFF AND PUSH20 0xFFFFFFFFFFFFFFFFFFFFFFFFFFFFFFFFFFFFFFFF AND DUP2 MSTORE PUSH1 0x20 ADD SWAP1 DUP2 MSTORE PUSH1 0x20 ADD PUSH0 KECCAK256 PUSH0 DUP7 DUP2 MSTORE PUSH1 0x20 ADD SWAP1 DUP2 MSTORE PUSH1 0x20 ADD PUSH0 KECCAK256 PUSH1 0x7 ADD PUSH1 0x16 SWAP1 SLOAD SWAP1 PUSH2 0x100 EXP SWAP1 DIV PUSH1 0xFF AND ISZERO ISZERO EQ PUSH2 0xDFC JUMPI PUSH1 0x40 MLOAD PUSH32 0x8C379A000000000000000000000000000000000000000000000000000000000 DUP2 MSTORE PUSH1 0x4 ADD PUSH2 0xDF3 SWAP1 PUSH2 0x20A6 JUMP JUMPDEST PUSH1 0x40 MLOAD DUP1 SWAP2 SUB SWAP1 REVERT JUMPDEST PUSH0 DUP3 GT PUSH2 0xE3E JUMPI PUSH1 0x40 MLOAD PUSH32 0x8C379A000000000000000000000000000000000000000000000000000000000 DUP2 MSTORE PUSH1 0x4 ADD PUSH2 0xE35 SWAP1 PUSH2 0x2134 JUMP JUMPDEST PUSH1 0x40 MLOAD DUP1 SWAP2 SUB SWAP1 REVERT JUMPDEST DUP2 DUP2 GT PUSH2 0xE80 JUMPI PUSH1 0x40 MLOAD PUSH32 0x8C379A000000000000000000000000000000000000000000000000000000000 DUP2 MSTORE PUSH1 0x4 ADD PUSH2 0xE77 SWAP1 PUSH2 0x21C2 JUMP JUMPDEST PUSH1 0x40 MLOAD DUP1 SWAP2 SUB SWAP1 REVERT JUMPDEST PUSH1 0x14 DUP4 LT ISZERO PUSH2 0xEC4 JUMPI PUSH1 0x40 MLOAD PUSH32 0x8C379A000000000000000000000000000000000000000000000000000000000 DUP2 MSTORE PUSH1 0x4 ADD PUSH2 0xEBB SWAP1 PUSH2 0x2250 JUMP JUMPDEST PUSH1 0x40 MLOAD DUP1 SWAP2 SUB SWAP1 REVERT JUMPDEST PUSH2 0xED1 CALLER DUP6 DUP6 DUP6 DUP6 PUSH2 0x1462 JUMP JUMPDEST POP POP POP POP JUMP JUMPDEST PUSH0 ISZERO ISZERO PUSH1 0x1 PUSH0 CALLER PUSH20 0xFFFFFFFFFFFFFFFFFFFFFFFFFFFFFFFFFFFFFFFF AND PUSH20 0xFFFFFFFFFFFFFFFFFFFFFFFFFFFFFFFFFFFFFFFF AND DUP2 MSTORE PUSH1 0x20 ADD SWAP1 DUP2 MSTORE PUSH1 0x20 ADD PUSH0 KECCAK256 PUSH0 DUP4 DUP2 MSTORE PUSH1 0x20 ADD SWAP1 DUP2 MSTORE PUSH1 0x20 ADD PUSH0 KECCAK256 PUSH1 0x7 ADD PUSH1 0x15 SWAP1 SLOAD SWAP1 PUSH2 0x100 EXP SWAP1 DIV PUSH1 0xFF AND ISZERO ISZERO EQ PUSH2 0xF79 JUMPI PUSH1 0x40 MLOAD PUSH32 0x8C379A000000000000000000000000000000000000000000000000000000000 DUP2 MSTORE PUSH1 0x4 ADD PUSH2 0xF70 SWAP1 PUSH2 0x1F2A JUMP JUMPDEST PUSH1 0x40 MLOAD DUP1 SWAP2 SUB SWAP1 REVERT JUMPDEST PUSH1 0x14 PUSH1 0x1 PUSH0 CALLER PUSH20 0xFFFFFFFFFFFFFFFFFFFFFFFFFFFFFFFFFFFFFFFF AND PUSH20 0xFFFFFFFFFFFFFFFFFFFFFFFFFFFFFFFFFFFFFFFF AND DUP2 MSTORE PUSH1 0x20 ADD SWAP1 DUP2 MSTORE PUSH1 0x20 ADD PUSH0 KECCAK256 PUSH0 DUP4 DUP2 MSTORE PUSH1 0x20 ADD SWAP1 DUP2 MSTORE PUSH1 0x20 ADD PUSH0 KECCAK256 PUSH1 0x1 ADD SLOAD TIMESTAMP PUSH2 0xFD6 SWAP2 SWAP1 PUSH2 0x1F75 JUMP JUMPDEST GT PUSH2 0x1016 JUMPI PUSH1 0x40 MLOAD PUSH32 0x8C379A000000000000000000000000000000000000000000000000000000000 DUP2 MSTORE PUSH1 0x4 ADD PUSH2 0x100D SWAP1 PUSH2 0x2018 JUMP JUMPDEST PUSH1 0x40 MLOAD DUP1 SWAP2 SUB SWAP1 REVERT JUMPDEST PUSH2 0x1020 CALLER DUP3 PUSH2 0x772 JUMP JUMPDEST POP JUMP JUMPDEST PUSH1 0x1 PUSH1 0x20 MSTORE DUP2 PUSH0 MSTORE PUSH1 0x40 PUSH0 KECCAK256 PUSH1 0x20 MSTORE DUP1 PUSH0 MSTORE PUSH1 0x40 PUSH0 KECCAK256 PUSH0 SWAP2 POP SWAP2 POP POP DUP1 PUSH0 ADD SLOAD SWAP1 DUP1 PUSH1 0x1 ADD SLOAD SWAP1 DUP1 PUSH1 0x2 ADD SLOAD SWAP1 DUP1 PUSH1 0x3 ADD SLOAD SWAP1 DUP1 PUSH1 0x4 ADD SLOAD SWAP1 DUP1 PUSH1 0x5 ADD SLOAD SWAP1 DUP1 PUSH1 0x6 ADD PUSH0 SWAP1 SLOAD SWAP1 PUSH2 0x100 EXP SWAP1 DIV PUSH20 0xFFFFFFFFFFFFFFFFFFFFFFFFFFFFFFFFFFFFFFFF AND SWAP1 DUP1 PUSH1 0x7 ADD PUSH0 SWAP1 SLOAD SWAP1 PUSH2 0x100 EXP SWAP1 DIV PUSH20 0xFFFFFFFFFFFFFFFFFFFFFFFFFFFFFFFFFFFFFFFF AND SWAP1 DUP1 PUSH1 0x7 ADD PUSH1 0x14 SWAP1 SLOAD SWAP1 PUSH2 0x100 EXP SWAP1 DIV PUSH1 0xFF AND SWAP1 DUP1 PUSH1 0x7 ADD PUSH1 0x15 SWAP1 SLOAD SWAP1 PUSH2 0x100 EXP SWAP1 DIV PUSH1 0xFF AND SWAP1 DUP1 PUSH1 0x7 ADD PUSH1 0x16 SWAP1 SLOAD SWAP1 PUSH2 0x100 EXP SWAP1 DIV PUSH1 0xFF AND SWAP1 DUP1 PUSH1 0x8 ADD SLOAD SWAP1 POP DUP13 JUMP JUMPDEST DUP1 PUSH0 DUP1 DUP6 PUSH20 0xFFFFFFFFFFFFFFFFFFFFFFFFFFFFFFFFFFFFFFFF AND PUSH20 0xFFFFFFFFFFFFFFFFFFFFFFFFFFFFFFFFFFFFFFFF AND DUP2 MSTORE PUSH1 0x20 ADD SWAP1 DUP2 MSTORE PUSH1 0x20 ADD PUSH0 KECCAK256 PUSH0 DUP5 DUP2 MSTORE PUSH1 0x20 ADD SWAP1 DUP2 MSTORE PUSH1 0x20 ADD PUSH0 KECCAK256 PUSH0 DUP3 DUP3 SLOAD PUSH2 0x1149 SWAP2 SWAP1 PUSH2 0x226E JUMP JUMPDEST SWAP3 POP POP DUP2 SWAP1 SSTORE POP DUP1 PUSH0 DUP1 DUP7 PUSH20 0xFFFFFFFFFFFFFFFFFFFFFFFFFFFFFFFFFFFFFFFF AND PUSH20 0xFFFFFFFFFFFFFFFFFFFFFFFFFFFFFFFFFFFFFFFF AND DUP2 MSTORE PUSH1 0x20 ADD SWAP1 DUP2 MSTORE PUSH1 0x20 ADD PUSH0 KECCAK256 PUSH0 DUP5 DUP2 MSTORE PUSH1 0x20 ADD SWAP1 DUP2 MSTORE PUSH1 0x20 ADD PUSH0 KECCAK256 PUSH0 DUP3 DUP3 SLOAD PUSH2 0x11AA SWAP2 SWAP1 PUSH2 0x1F75 JUMP JUMPDEST SWAP3 POP POP DUP2 SWAP1 SSTORE POP POP POP POP POP JUMP JUMPDEST PUSH0 PUSH1 0x3 PUSH0 PUSH1 0x1 PUSH0 DUP8 PUSH20 0xFFFFFFFFFFFFFFFFFFFFFFFFFFFFFFFFFFFFFFFF AND PUSH20 0xFFFFFFFFFFFFFFFFFFFFFFFFFFFFFFFFFFFFFFFF AND DUP2 MSTORE PUSH1 0x20 ADD SWAP1 DUP2 MSTORE PUSH1 0x20 ADD PUSH0 KECCAK256 PUSH0 DUP7 DUP2 MSTORE PUSH1 0x20 ADD SWAP1 DUP2 MSTORE PUSH1 0x20 ADD PUSH0 KECCAK256 PUSH1 0x6 ADD PUSH0 SWAP1 SLOAD SWAP1 PUSH2 0x100 EXP SWAP1 DIV PUSH20 0xFFFFFFFFFFFFFFFFFFFFFFFFFFFFFFFFFFFFFFFF AND PUSH20 0xFFFFFFFFFFFFFFFFFFFFFFFFFFFFFFFFFFFFFFFF AND PUSH20 0xFFFFFFFFFFFFFFFFFFFFFFFFFFFFFFFFFFFFFFFF AND DUP2 MSTORE PUSH1 0x20 ADD SWAP1 DUP2 MSTORE PUSH1 0x20 ADD PUSH0 KECCAK256 PUSH0 DUP5 DUP2 MSTORE PUSH1 0x20 ADD SWAP1 DUP2 MSTORE PUSH1 0x20 ADD PUSH0 KECCAK256 DUP2 SWAP1 SSTORE POP DUP1 PUSH1 0x1 PUSH0 DUP6 PUSH20 0xFFFFFFFFFFFFFFFFFFFFFFFFFFFFFFFFFFFFFFFF AND PUSH20 0xFFFFFFFFFFFFFFFFFFFFFFFFFFFFFFFFFFFFFFFF AND DUP2 MSTORE PUSH1 0x20 ADD SWAP1 DUP2 MSTORE PUSH1 0x20 ADD PUSH0 KECCAK256 PUSH0 DUP5 DUP2 MSTORE PUSH1 0x20 ADD SWAP1 DUP2 MSTORE PUSH1 0x20 ADD PUSH0 KECCAK256 PUSH1 0x3 ADD DUP2 SWAP1 SSTORE POP DUP1 PUSH1 0x3 PUSH0 DUP7 PUSH20 0xFFFFFFFFFFFFFFFFFFFFFFFFFFFFFFFFFFFFFFFF AND PUSH20 0xFFFFFFFFFFFFFFFFFFFFFFFFFFFFFFFFFFFFFFFF AND DUP2 MSTORE PUSH1 0x20 ADD SWAP1 DUP2 MSTORE PUSH1 0x20 ADD PUSH0 KECCAK256 PUSH0 DUP5 DUP2 MSTORE PUSH1 0x20 ADD SWAP1 DUP2 MSTORE PUSH1 0x20 ADD PUSH0 KECCAK256 DUP2 SWAP1 SSTORE POP DUP4 PUSH1 0x1 PUSH0 DUP6 PUSH20 0xFFFFFFFFFFFFFFFFFFFFFFFFFFFFFFFFFFFFFFFF AND PUSH20 0xFFFFFFFFFFFFFFFFFFFFFFFFFFFFFFFFFFFFFFFF AND DUP2 MSTORE PUSH1 0x20 ADD SWAP1 DUP2 MSTORE PUSH1 0x20 ADD PUSH0 KECCAK256 PUSH0 DUP5 DUP2 MSTORE PUSH1 0x20 ADD SWAP1 DUP2 MSTORE PUSH1 0x20 ADD PUSH0 KECCAK256 PUSH1 0x6 ADD PUSH0 PUSH2 0x100 EXP DUP2 SLOAD DUP2 PUSH20 0xFFFFFFFFFFFFFFFFFFFFFFFFFFFFFFFFFFFFFFFF MUL NOT AND SWAP1 DUP4 PUSH20 0xFFFFFFFFFFFFFFFFFFFFFFFFFFFFFFFFFFFFFFFF AND MUL OR SWAP1 SSTORE POP PUSH1 0x1 PUSH0 DUP5 PUSH20 0xFFFFFFFFFFFFFFFFFFFFFFFFFFFFFFFFFFFFFFFF AND PUSH20 0xFFFFFFFFFFFFFFFFFFFFFFFFFFFFFFFFFFFFFFFF AND DUP2 MSTORE PUSH1 0x20 ADD SWAP1 DUP2 MSTORE PUSH1 0x20 ADD PUSH0 KECCAK256 PUSH0 DUP4 DUP2 MSTORE PUSH1 0x20 ADD SWAP1 DUP2 MSTORE PUSH1 0x20 ADD PUSH0 KECCAK256 PUSH1 0x2 ADD SLOAD PUSH1 0x1 PUSH0 DUP6 PUSH20 0xFFFFFFFFFFFFFFFFFFFFFFFFFFFFFFFFFFFFFFFF AND PUSH20 0xFFFFFFFFFFFFFFFFFFFFFFFFFFFFFFFFFFFFFFFF AND DUP2 MSTORE PUSH1 0x20 ADD SWAP1 DUP2 MSTORE PUSH1 0x20 ADD PUSH0 KECCAK256 PUSH0 DUP5 DUP2 MSTORE PUSH1 0x20 ADD SWAP1 DUP2 MSTORE PUSH1 0x20 ADD PUSH0 KECCAK256 PUSH1 0x8 ADD PUSH0 DUP3 DUP3 SLOAD PUSH2 0x1455 SWAP2 SWAP1 PUSH2 0x226E JUMP JUMPDEST SWAP3 POP POP DUP2 SWAP1 SSTORE POP POP POP POP POP JUMP JUMPDEST PUSH2 0x146A PUSH2 0x16D6 JUMP JUMPDEST DUP4 DUP2 PUSH1 0x40 ADD DUP2 DUP2 MSTORE POP POP DUP2 DUP2 PUSH1 0xA0 ADD DUP2 DUP2 MSTORE POP POP DUP3 DUP2 PUSH1 0x80 ADD DUP2 DUP2 MSTORE POP POP PUSH0 DUP2 PUSH1 0x60 ADD DUP2 DUP2 MSTORE POP POP TIMESTAMP DUP2 PUSH1 0x20 ADD DUP2 DUP2 MSTORE POP POP PUSH0 DUP2 PUSH1 0xC0 ADD SWAP1 PUSH20 0xFFFFFFFFFFFFFFFFFFFFFFFFFFFFFFFFFFFFFFFF AND SWAP1 DUP2 PUSH20 0xFFFFFFFFFFFFFFFFFFFFFFFFFFFFFFFFFFFFFFFF AND DUP2 MSTORE POP POP PUSH1 0x1 DUP2 PUSH2 0x100 ADD SWAP1 ISZERO ISZERO SWAP1 DUP2 ISZERO ISZERO DUP2 MSTORE POP POP DUP5 DUP2 PUSH0 ADD DUP2 DUP2 MSTORE POP POP DUP6 DUP2 PUSH1 0xE0 ADD SWAP1 PUSH20 0xFFFFFFFFFFFFFFFFFFFFFFFFFFFFFFFFFFFFFFFF AND SWAP1 DUP2 PUSH20 0xFFFFFFFFFFFFFFFFFFFFFFFFFFFFFFFFFFFFFFFF AND DUP2 MSTORE POP POP PUSH1 0x1 DUP2 PUSH2 0x140 ADD SWAP1 ISZERO ISZERO SWAP1 DUP2 ISZERO ISZERO DUP2 MSTORE POP POP PUSH0 DUP2 PUSH2 0x120 ADD SWAP1 ISZERO ISZERO SWAP1 DUP2 ISZERO ISZERO DUP2 MSTORE POP POP DUP1 PUSH1 0x1 PUSH0 DUP9 PUSH20 0xFFFFFFFFFFFFFFFFFFFFFFFFFFFFFFFFFFFFFFFF AND PUSH20 0xFFFFFFFFFFFFFFFFFFFFFFFFFFFFFFFFFFFFFFFF AND DUP2 MSTORE PUSH1 0x20 ADD SWAP1 DUP2 MSTORE PUSH1 0x20 ADD PUSH0 KECCAK256 PUSH0 DUP8 DUP2 MSTORE PUSH1 0x20 ADD SWAP1 DUP2 MSTORE PUSH1 0x20 ADD PUSH0 KECCAK256 PUSH0 DUP3 ADD MLOAD DUP2 PUSH0 ADD SSTORE PUSH1 0x20 DUP3 ADD MLOAD DUP2 PUSH1 0x1 ADD SSTORE PUSH1 0x40 DUP3 ADD MLOAD DUP2 PUSH1 0x2 ADD SSTORE PUSH1 0x60 DUP3 ADD MLOAD DUP2 PUSH1 0x3 ADD SSTORE PUSH1 0x80 DUP3 ADD MLOAD DUP2 PUSH1 0x4 ADD SSTORE PUSH1 0xA0 DUP3 ADD MLOAD DUP2 PUSH1 0x5 ADD SSTORE PUSH1 0xC0 DUP3 ADD MLOAD DUP2 PUSH1 0x6 ADD PUSH0 PUSH2 0x100 EXP DUP2 SLOAD DUP2 PUSH20 0xFFFFFFFFFFFFFFFFFFFFFFFFFFFFFFFFFFFFFFFF MUL NOT AND SWAP1 DUP4 PUSH20 0xFFFFFFFFFFFFFFFFFFFFFFFFFFFFFFFFFFFFFFFF AND MUL OR SWAP1 SSTORE POP PUSH1 0xE0 DUP3 ADD MLOAD DUP2 PUSH1 0x7 ADD PUSH0 PUSH2 0x100 EXP DUP2 SLOAD DUP2 PUSH20 0xFFFFFFFFFFFFFFFFFFFFFFFFFFFFFFFFFFFFFFFF MUL NOT AND SWAP1 DUP4 PUSH20 0xFFFFFFFFFFFFFFFFFFFFFFFFFFFFFFFFFFFFFFFF AND MUL OR SWAP1 SSTORE POP PUSH2 0x100 DUP3 ADD MLOAD DUP2 PUSH1 0x7 ADD PUSH1 0x14 PUSH2 0x100 EXP DUP2 SLOAD DUP2 PUSH1 0xFF MUL NOT AND SWAP1 DUP4 ISZERO ISZERO MUL OR SWAP1 SSTORE POP PUSH2 0x120 DUP3 ADD MLOAD DUP2 PUSH1 0x7 ADD PUSH1 0x15 PUSH2 0x100 EXP DUP2 SLOAD DUP2 PUSH1 0xFF MUL NOT AND SWAP1 DUP4 ISZERO ISZERO MUL OR SWAP1 SSTORE POP PUSH2 0x140 DUP3 ADD MLOAD DUP2 PUSH1 0x7 ADD PUSH1 0x16 PUSH2 0x100 EXP DUP2 SLOAD DUP2 PUSH1 0xFF MUL NOT AND SWAP1 DUP4 ISZERO ISZERO MUL OR SWAP1 SSTORE POP PUSH2 0x160 DUP3 ADD MLOAD DUP2 PUSH1 0x8 ADD SSTORE SWAP1 POP POP POP POP POP POP POP POP JUMP JUMPDEST PUSH1 0x40 MLOAD DUP1 PUSH2 0x180 ADD PUSH1 0x40 MSTORE DUP1 PUSH0 DUP2 MSTORE PUSH1 0x20 ADD PUSH0 DUP2 MSTORE PUSH1 0x20 ADD PUSH0 DUP2 MSTORE PUSH1 0x20 ADD PUSH0 DUP2 MSTORE PUSH1 0x20 ADD PUSH0 DUP2 MSTORE PUSH1 0x20 ADD PUSH0 DUP2 MSTORE PUSH1 0x20 ADD PUSH0 PUSH20 0xFFFFFFFFFFFFFFFFFFFFFFFFFFFFFFFFFFFFFFFF AND DUP2 MSTORE PUSH1 0x20 ADD PUSH0 PUSH20 0xFFFFFFFFFFFFFFFFFFFFFFFFFFFFFFFFFFFFFFFF AND DUP2 MSTORE PUSH1 0x20 ADD PUSH0 ISZERO ISZERO DUP2 MSTORE PUSH1 0x20 ADD PUSH0 ISZERO ISZERO DUP2 MSTORE PUSH1 0x20 ADD PUSH0 ISZERO ISZERO DUP2 MSTORE PUSH1 0x20 ADD PUSH0 DUP2 MSTORE POP SWAP1 JUMP JUMPDEST PUSH0 DUP1 REVERT JUMPDEST PUSH0 PUSH20 0xFFFFFFFFFFFFFFFFFFFFFFFFFFFFFFFFFFFFFFFF DUP3 AND SWAP1 POP SWAP2 SWAP1 POP JUMP JUMPDEST PUSH0 PUSH2 0x178A DUP3 PUSH2 0x1761 JUMP JUMPDEST SWAP1 POP SWAP2 SWAP1 POP JUMP JUMPDEST PUSH2 0x179A DUP2 PUSH2 0x1780 JUMP JUMPDEST DUP2 EQ PUSH2 0x17A4 JUMPI PUSH0 DUP1 REVERT JUMPDEST POP JUMP JUMPDEST PUSH0 DUP2 CALLDATALOAD SWAP1 POP PUSH2 0x17B5 DUP2 PUSH2 0x1791 JUMP JUMPDEST SWAP3 SWAP2 POP POP JUMP JUMPDEST PUSH0 DUP2 SWAP1 POP SWAP2 SWAP1 POP JUMP JUMPDEST PUSH2 0x17CD DUP2 PUSH2 0x17BB JUMP JUMPDEST DUP2 EQ PUSH2 0x17D7 JUMPI PUSH0 DUP1 REVERT JUMPDEST POP JUMP JUMPDEST PUSH0 DUP2 CALLDATALOAD SWAP1 POP PUSH2 0x17E8 DUP2 PUSH2 0x17C4 JUMP JUMPDEST SWAP3 SWAP2 POP POP JUMP JUMPDEST PUSH0 DUP1 PUSH1 0x40 DUP4 DUP6 SUB SLT ISZERO PUSH2 0x1804 JUMPI PUSH2 0x1803 PUSH2 0x175D JUMP JUMPDEST JUMPDEST PUSH0 PUSH2 0x1811 DUP6 DUP3 DUP7 ADD PUSH2 0x17A7 JUMP JUMPDEST SWAP3 POP POP PUSH1 0x20 PUSH2 0x1822 DUP6 DUP3 DUP7 ADD PUSH2 0x17DA JUMP JUMPDEST SWAP2 POP POP SWAP3 POP SWAP3 SWAP1 POP JUMP JUMPDEST PUSH2 0x1835 DUP2 PUSH2 0x17BB JUMP JUMPDEST DUP3 MSTORE POP POP JUMP JUMPDEST PUSH0 PUSH1 0x20 DUP3 ADD SWAP1 POP PUSH2 0x184E PUSH0 DUP4 ADD DUP5 PUSH2 0x182C JUMP JUMPDEST SWAP3 SWAP2 POP POP JUMP JUMPDEST PUSH0 DUP2 MLOAD SWAP1 POP SWAP2 SWAP1 POP JUMP JUMPDEST PUSH0 DUP3 DUP3 MSTORE PUSH1 0x20 DUP3 ADD SWAP1 POP SWAP3 SWAP2 POP POP JUMP JUMPDEST PUSH0 JUMPDEST DUP4 DUP2 LT ISZERO PUSH2 0x188B JUMPI DUP1 DUP3 ADD MLOAD DUP2 DUP5 ADD MSTORE PUSH1 0x20 DUP2 ADD SWAP1 POP PUSH2 0x1870 JUMP JUMPDEST PUSH0 DUP5 DUP5 ADD MSTORE POP POP POP POP JUMP JUMPDEST PUSH0 PUSH1 0x1F NOT PUSH1 0x1F DUP4 ADD AND SWAP1 POP SWAP2 SWAP1 POP JUMP JUMPDEST PUSH0 PUSH2 0x18B0 DUP3 PUSH2 0x1854 JUMP JUMPDEST PUSH2 0x18BA DUP2 DUP6 PUSH2 0x185E JUMP JUMPDEST SWAP4 POP PUSH2 0x18CA DUP2 DUP6 PUSH1 0x20 DUP7 ADD PUSH2 0x186E JUMP JUMPDEST PUSH2 0x18D3 DUP2 PUSH2 0x1896 JUMP JUMPDEST DUP5 ADD SWAP2 POP POP SWAP3 SWAP2 POP POP JUMP JUMPDEST PUSH0 PUSH1 0xE0 DUP3 ADD SWAP1 POP DUP2 DUP2 SUB PUSH0 DUP4 ADD MSTORE PUSH2 0x18F6 DUP2 DUP11 PUSH2 0x18A6 JUMP JUMPDEST SWAP1 POP DUP2 DUP2 SUB PUSH1 0x20 DUP4 ADD MSTORE PUSH2 0x190A DUP2 DUP10 PUSH2 0x18A6 JUMP JUMPDEST SWAP1 POP DUP2 DUP2 SUB PUSH1 0x40 DUP4 ADD MSTORE PUSH2 0x191E DUP2 DUP9 PUSH2 0x18A6 JUMP JUMPDEST SWAP1 POP PUSH2 0x192D PUSH1 0x60 DUP4 ADD DUP8 PUSH2 0x182C JUMP JUMPDEST PUSH2 0x193A PUSH1 0x80 DUP4 ADD DUP7 PUSH2 0x182C JUMP JUMPDEST PUSH2 0x1947 PUSH1 0xA0 DUP4 ADD DUP6 PUSH2 0x182C JUMP JUMPDEST PUSH2 0x1954 PUSH1 0xC0 DUP4 ADD DUP5 PUSH2 0x182C JUMP JUMPDEST SWAP9 SWAP8 POP POP POP POP POP POP POP POP JUMP JUMPDEST PUSH0 DUP1 PUSH0 DUP1 PUSH1 0x80 DUP6 DUP8 SUB SLT ISZERO PUSH2 0x1978 JUMPI PUSH2 0x1977 PUSH2 0x175D JUMP JUMPDEST JUMPDEST PUSH0 PUSH2 0x1985 DUP8 DUP3 DUP9 ADD PUSH2 0x17A7 JUMP JUMPDEST SWAP5 POP POP PUSH1 0x20 PUSH2 0x1996 DUP8 DUP3 DUP9 ADD PUSH2 0x17A7 JUMP JUMPDEST SWAP4 POP POP PUSH1 0x40 PUSH2 0x19A7 DUP8 DUP3 DUP9 ADD PUSH2 0x17DA JUMP JUMPDEST SWAP3 POP POP PUSH1 0x60 PUSH2 0x19B8 DUP8 DUP3 DUP9 ADD PUSH2 0x17DA JUMP JUMPDEST SWAP2 POP POP SWAP3 SWAP6 SWAP2 SWAP5 POP SWAP3 POP JUMP JUMPDEST PUSH0 DUP1 PUSH0 PUSH1 0x60 DUP5 DUP7 SUB SLT ISZERO PUSH2 0x19DB JUMPI PUSH2 0x19DA PUSH2 0x175D JUMP JUMPDEST JUMPDEST PUSH0 PUSH2 0x19E8 DUP7 DUP3 DUP8 ADD PUSH2 0x17A7 JUMP JUMPDEST SWAP4 POP POP PUSH1 0x20 PUSH2 0x19F9 DUP7 DUP3 DUP8 ADD PUSH2 0x17DA JUMP JUMPDEST SWAP3 POP POP PUSH1 0x40 PUSH2 0x1A0A DUP7 DUP3 DUP8 ADD PUSH2 0x17DA JUMP JUMPDEST SWAP2 POP POP SWAP3 POP SWAP3 POP SWAP3 JUMP JUMPDEST PUSH0 PUSH1 0x20 DUP3 DUP5 SUB SLT ISZERO PUSH2 0x1A29 JUMPI PUSH2 0x1A28 PUSH2 0x175D JUMP JUMPDEST JUMPDEST PUSH0 PUSH2 0x1A36 DUP5 DUP3 DUP6 ADD PUSH2 0x17DA JUMP JUMPDEST SWAP2 POP POP SWAP3 SWAP2 POP POP JUMP JUMPDEST PUSH0 DUP1 PUSH0 DUP1 PUSH1 0x80 DUP6 DUP8 SUB SLT ISZERO PUSH2 0x1A57 JUMPI PUSH2 0x1A56 PUSH2 0x175D JUMP JUMPDEST JUMPDEST PUSH0 PUSH2 0x1A64 DUP8 DUP3 DUP9 ADD PUSH2 0x17DA JUMP JUMPDEST SWAP5 POP POP PUSH1 0x20 PUSH2 0x1A75 DUP8 DUP3 DUP9 ADD PUSH2 0x17DA JUMP JUMPDEST SWAP4 POP POP PUSH1 0x40 PUSH2 0x1A86 DUP8 DUP3 DUP9 ADD PUSH2 0x17DA JUMP JUMPDEST SWAP3 POP POP PUSH1 0x60 PUSH2 0x1A97 DUP8 DUP3 DUP9 ADD PUSH2 0x17DA JUMP JUMPDEST SWAP2 POP POP SWAP3 SWAP6 SWAP2 SWAP5 POP SWAP3 POP JUMP JUMPDEST PUSH2 0x1AAC DUP2 PUSH2 0x1780 JUMP JUMPDEST DUP3 MSTORE POP POP JUMP JUMPDEST PUSH0 DUP2 ISZERO ISZERO SWAP1 POP SWAP2 SWAP1 POP JUMP JUMPDEST PUSH2 0x1AC6 DUP2 PUSH2 0x1AB2 JUMP JUMPDEST DUP3 MSTORE POP POP JUMP JUMPDEST PUSH0 PUSH2 0x180 DUP3 ADD SWAP1 POP PUSH2 0x1AE0 PUSH0 DUP4 ADD DUP16 PUSH2 0x182C JUMP JUMPDEST PUSH2 0x1AED PUSH1 0x20 DUP4 ADD DUP15 PUSH2 0x182C JUMP JUMPDEST PUSH2 0x1AFA PUSH1 0x40 DUP4 ADD DUP14 PUSH2 0x182C JUMP JUMPDEST PUSH2 0x1B07 PUSH1 0x60 DUP4 ADD DUP13 PUSH2 0x182C JUMP JUMPDEST PUSH2 0x1B14 PUSH1 0x80 DUP4 ADD DUP12 PUSH2 0x182C JUMP JUMPDEST PUSH2 0x1B21 PUSH1 0xA0 DUP4 ADD DUP11 PUSH2 0x182C JUMP JUMPDEST PUSH2 0x1B2E PUSH1 0xC0 DUP4 ADD DUP10 PUSH2 0x1AA3 JUMP JUMPDEST PUSH2 0x1B3B PUSH1 0xE0 DUP4 ADD DUP9 PUSH2 0x1AA3 JUMP JUMPDEST PUSH2 0x1B49 PUSH2 0x100 DUP4 ADD DUP8 PUSH2 0x1ABD JUMP JUMPDEST PUSH2 0x1B57 PUSH2 0x120 DUP4 ADD DUP7 PUSH2 0x1ABD JUMP JUMPDEST PUSH2 0x1B65 PUSH2 0x140 DUP4 ADD DUP6 PUSH2 0x1ABD JUMP JUMPDEST PUSH2 0x1B73 PUSH2 0x160 DUP4 ADD DUP5 PUSH2 0x182C JUMP JUMPDEST SWAP14 SWAP13 POP POP POP POP POP POP POP POP POP POP POP POP POP JUMP JUMPDEST PUSH32 0x4E487B7100000000000000000000000000000000000000000000000000000000 PUSH0 MSTORE PUSH1 0x22 PUSH1 0x4 MSTORE PUSH1 0x24 PUSH0 REVERT JUMPDEST PUSH0 PUSH1 0x2 DUP3 DIV SWAP1 POP PUSH1 0x1 DUP3 AND DUP1 PUSH2 0x1BC8 JUMPI PUSH1 0x7F DUP3 AND SWAP2 POP JUMPDEST PUSH1 0x20 DUP3 LT DUP2 SUB PUSH2 0x1BDB JUMPI PUSH2 0x1BDA PUSH2 0x1B84 JUMP JUMPDEST JUMPDEST POP SWAP2 SWAP1 POP JUMP JUMPDEST PUSH32 0x4572726F723A206E6F7420656E6F756768206361736800000000000000000000 PUSH0 DUP3 ADD MSTORE POP JUMP JUMPDEST PUSH0 PUSH2 0x1C15 PUSH1 0x16 DUP4 PUSH2 0x185E JUMP JUMPDEST SWAP2 POP PUSH2 0x1C20 DUP3 PUSH2 0x1BE1 JUMP JUMPDEST PUSH1 0x20 DUP3 ADD SWAP1 POP SWAP2 SWAP1 POP JUMP JUMPDEST PUSH0 PUSH1 0x20 DUP3 ADD SWAP1 POP DUP2 DUP2 SUB PUSH0 DUP4 ADD MSTORE PUSH2 0x1C42 DUP2 PUSH2 0x1C09 JUMP JUMPDEST SWAP1 POP SWAP2 SWAP1 POP JUMP JUMPDEST PUSH32 0x4572726F723A2076616C7565206D757374206265206D6F7265207468616E2030 PUSH0 DUP3 ADD MSTORE PUSH32 0x20746F207472616E736572000000000000000000000000000000000000000000 PUSH1 0x20 DUP3 ADD MSTORE POP JUMP JUMPDEST PUSH0 PUSH2 0x1CA3 PUSH1 0x2B DUP4 PUSH2 0x185E JUMP JUMPDEST SWAP2 POP PUSH2 0x1CAE DUP3 PUSH2 0x1C49 JUMP JUMPDEST PUSH1 0x40 DUP3 ADD SWAP1 POP SWAP2 SWAP1 POP JUMP JUMPDEST PUSH0 PUSH1 0x20 DUP3 ADD SWAP1 POP DUP2 DUP2 SUB PUSH0 DUP4 ADD MSTORE PUSH2 0x1CD0 DUP2 PUSH2 0x1C97 JUMP JUMPDEST SWAP1 POP SWAP2 SWAP1 POP JUMP JUMPDEST PUSH32 0x4572726F723A206E756C6C206164647265737300000000000000000000000000 PUSH0 DUP3 ADD MSTORE POP JUMP JUMPDEST PUSH0 PUSH2 0x1D0B PUSH1 0x13 DUP4 PUSH2 0x185E JUMP JUMPDEST SWAP2 POP PUSH2 0x1D16 DUP3 PUSH2 0x1CD7 JUMP JUMPDEST PUSH1 0x20 DUP3 ADD SWAP1 POP SWAP2 SWAP1 POP JUMP JUMPDEST PUSH0 PUSH1 0x20 DUP3 ADD SWAP1 POP DUP2 DUP2 SUB PUSH0 DUP4 ADD MSTORE PUSH2 0x1D38 DUP2 PUSH2 0x1CFF JUMP JUMPDEST SWAP1 POP SWAP2 SWAP1 POP JUMP JUMPDEST PUSH32 0x4572726F723A206F776E65722063616E206E6F74206265206120626974746572 PUSH0 DUP3 ADD MSTORE POP JUMP JUMPDEST PUSH0 PUSH2 0x1D73 PUSH1 0x20 DUP4 PUSH2 0x185E JUMP JUMPDEST SWAP2 POP PUSH2 0x1D7E DUP3 PUSH2 0x1D3F JUMP JUMPDEST PUSH1 0x20 DUP3 ADD SWAP1 POP SWAP2 SWAP1 POP JUMP JUMPDEST PUSH0 PUSH1 0x20 DUP3 ADD SWAP1 POP DUP2 DUP2 SUB PUSH0 DUP4 ADD MSTORE PUSH2 0x1DA0 DUP2 PUSH2 0x1D67 JUMP JUMPDEST SWAP1 POP SWAP2 SWAP1 POP JUMP JUMPDEST PUSH32 0x4572726F723A2076616C7565206D757374206265206D6F7265207468616E2070 PUSH0 DUP3 ADD MSTORE PUSH32 0x7269636520746F20626974000000000000000000000000000000000000000000 PUSH1 0x20 DUP3 ADD MSTORE POP JUMP JUMPDEST PUSH0 PUSH2 0x1E01 PUSH1 0x2B DUP4 PUSH2 0x185E JUMP JUMPDEST SWAP2 POP PUSH2 0x1E0C DUP3 PUSH2 0x1DA7 JUMP JUMPDEST PUSH1 0x40 DUP3 ADD SWAP1 POP SWAP2 SWAP1 POP JUMP JUMPDEST PUSH0 PUSH1 0x20 DUP3 ADD SWAP1 POP DUP2 DUP2 SUB PUSH0 DUP4 ADD MSTORE PUSH2 0x1E2E DUP2 PUSH2 0x1DF5 JUMP JUMPDEST SWAP1 POP SWAP2 SWAP1 POP JUMP JUMPDEST PUSH0 DUP2 SWAP1 POP SWAP2 SWAP1 POP JUMP JUMPDEST PUSH0 DUP2 SWAP1 POP SWAP2 SWAP1 POP JUMP JUMPDEST PUSH0 PUSH2 0x1E61 PUSH2 0x1E5C PUSH2 0x1E57 DUP5 PUSH2 0x1E35 JUMP JUMPDEST PUSH2 0x1E3E JUMP JUMPDEST PUSH2 0x17BB JUMP JUMPDEST SWAP1 POP SWAP2 SWAP1 POP JUMP JUMPDEST PUSH2 0x1E71 DUP2 PUSH2 0x1E47 JUMP JUMPDEST DUP3 MSTORE POP POP JUMP JUMPDEST PUSH0 PUSH1 0x80 DUP3 ADD SWAP1 POP PUSH2 0x1E8A PUSH0 DUP4 ADD DUP8 PUSH2 0x1AA3 JUMP JUMPDEST PUSH2 0x1E97 PUSH1 0x20 DUP4 ADD DUP7 PUSH2 0x1AA3 JUMP JUMPDEST PUSH2 0x1EA4 PUSH1 0x40 DUP4 ADD DUP6 PUSH2 0x182C JUMP JUMPDEST PUSH2 0x1EB1 PUSH1 0x60 DUP4 ADD DUP5 PUSH2 0x1E68 JUMP JUMPDEST SWAP6 SWAP5 POP POP POP POP POP JUMP JUMPDEST PUSH32 0x4572726F723A2061756374696F6E20697320616C72656164792066696E697368 PUSH0 DUP3 ADD MSTORE PUSH32 0x6564000000000000000000000000000000000000000000000000000000000000 PUSH1 0x20 DUP3 ADD MSTORE POP JUMP JUMPDEST PUSH0 PUSH2 0x1F14 PUSH1 0x22 DUP4 PUSH2 0x185E JUMP JUMPDEST SWAP2 POP PUSH2 0x1F1F DUP3 PUSH2 0x1EBA JUMP JUMPDEST PUSH1 0x40 DUP3 ADD SWAP1 POP SWAP2 SWAP1 POP JUMP JUMPDEST PUSH0 PUSH1 0x20 DUP3 ADD SWAP1 POP DUP2 DUP2 SUB PUSH0 DUP4 ADD MSTORE PUSH2 0x1F41 DUP2 PUSH2 0x1F08 JUMP JUMPDEST SWAP1 POP SWAP2 SWAP1 POP JUMP JUMPDEST PUSH32 0x4E487B7100000000000000000000000000000000000000000000000000000000 PUSH0 MSTORE PUSH1 0x11 PUSH1 0x4 MSTORE PUSH1 0x24 PUSH0 REVERT JUMPDEST PUSH0 PUSH2 0x1F7F DUP3 PUSH2 0x17BB JUMP JUMPDEST SWAP2 POP PUSH2 0x1F8A DUP4 PUSH2 0x17BB JUMP JUMPDEST SWAP3 POP DUP3 DUP3 SUB SWAP1 POP DUP2 DUP2 GT ISZERO PUSH2 0x1FA2 JUMPI PUSH2 0x1FA1 PUSH2 0x1F48 JUMP JUMPDEST JUMPDEST SWAP3 SWAP2 POP POP JUMP JUMPDEST PUSH32 0x4572726F723A206E6F20726561736F6E20746F20696E74657272757074206175 PUSH0 DUP3 ADD MSTORE PUSH32 0x6374696F6E000000000000000000000000000000000000000000000000000000 PUSH1 0x20 DUP3 ADD MSTORE POP JUMP JUMPDEST PUSH0 PUSH2 0x2002 PUSH1 0x25 DUP4 PUSH2 0x185E JUMP JUMPDEST SWAP2 POP PUSH2 0x200D DUP3 PUSH2 0x1FA8 JUMP JUMPDEST PUSH1 0x40 DUP3 ADD SWAP1 POP SWAP2 SWAP1 POP JUMP JUMPDEST PUSH0 PUSH1 0x20 DUP3 ADD SWAP1 POP DUP2 DUP2 SUB PUSH0 DUP4 ADD MSTORE PUSH2 0x202F DUP2 PUSH2 0x1FF6 JUMP JUMPDEST SWAP1 POP SWAP2 SWAP1 POP JUMP JUMPDEST PUSH32 0x4572726F723A2061756374696F6E20697320616C726561647920737461727465 PUSH0 DUP3 ADD MSTORE PUSH32 0x6400000000000000000000000000000000000000000000000000000000000000 PUSH1 0x20 DUP3 ADD MSTORE POP JUMP JUMPDEST PUSH0 PUSH2 0x2090 PUSH1 0x21 DUP4 PUSH2 0x185E JUMP JUMPDEST SWAP2 POP PUSH2 0x209B DUP3 PUSH2 0x2036 JUMP JUMPDEST PUSH1 0x40 DUP3 ADD SWAP1 POP SWAP2 SWAP1 POP JUMP JUMPDEST PUSH0 PUSH1 0x20 DUP3 ADD SWAP1 POP DUP2 DUP2 SUB PUSH0 DUP4 ADD MSTORE PUSH2 0x20BD DUP2 PUSH2 0x2084 JUMP JUMPDEST SWAP1 POP SWAP2 SWAP1 POP JUMP JUMPDEST PUSH32 0x4572726F723A206D696E696D616C207072696365206D75737420636F7374206D PUSH0 DUP3 ADD MSTORE PUSH32 0x6F7265207468616E203000000000000000000000000000000000000000000000 PUSH1 0x20 DUP3 ADD MSTORE POP JUMP JUMPDEST PUSH0 PUSH2 0x211E PUSH1 0x2A DUP4 PUSH2 0x185E JUMP JUMPDEST SWAP2 POP PUSH2 0x2129 DUP3 PUSH2 0x20C4 JUMP JUMPDEST PUSH1 0x40 DUP3 ADD SWAP1 POP SWAP2 SWAP1 POP JUMP JUMPDEST PUSH0 PUSH1 0x20 DUP3 ADD SWAP1 POP DUP2 DUP2 SUB PUSH0 DUP4 ADD MSTORE PUSH2 0x214B DUP2 PUSH2 0x2112 JUMP JUMPDEST SWAP1 POP SWAP2 SWAP1 POP JUMP JUMPDEST PUSH32 0x4572726F723A206D6178207072696365206D75737420636F7374206D6F726520 PUSH0 DUP3 ADD MSTORE PUSH32 0x7468616E206D61696E696D616C206F6E65000000000000000000000000000000 PUSH1 0x20 DUP3 ADD MSTORE POP JUMP JUMPDEST PUSH0 PUSH2 0x21AC PUSH1 0x31 DUP4 PUSH2 0x185E JUMP JUMPDEST SWAP2 POP PUSH2 0x21B7 DUP3 PUSH2 0x2152 JUMP JUMPDEST PUSH1 0x40 DUP3 ADD SWAP1 POP SWAP2 SWAP1 POP JUMP JUMPDEST PUSH0 PUSH1 0x20 DUP3 ADD SWAP1 POP DUP2 DUP2 SUB PUSH0 DUP4 ADD MSTORE PUSH2 0x21D9 DUP2 PUSH2 0x21A0 JUMP JUMPDEST SWAP1 POP SWAP2 SWAP1 POP JUMP JUMPDEST PUSH32 0x4572726F723A206475726174696F6E206D757374206265206E6F2073686F7274 PUSH0 DUP3 ADD MSTORE PUSH32 0x6572207468616E206D696E696D616C206475726174696F6E0000000000000000 PUSH1 0x20 DUP3 ADD MSTORE POP JUMP JUMPDEST PUSH0 PUSH2 0x223A PUSH1 0x38 DUP4 PUSH2 0x185E JUMP JUMPDEST SWAP2 POP PUSH2 0x2245 DUP3 PUSH2 0x21E0 JUMP JUMPDEST PUSH1 0x40 DUP3 ADD SWAP1 POP SWAP2 SWAP1 POP JUMP JUMPDEST PUSH0 PUSH1 0x20 DUP3 ADD SWAP1 POP DUP2 DUP2 SUB PUSH0 DUP4 ADD MSTORE PUSH2 0x2267 DUP2 PUSH2 0x222E JUMP JUMPDEST SWAP1 POP SWAP2 SWAP1 POP JUMP JUMPDEST PUSH0 PUSH2 0x2278 DUP3 PUSH2 0x17BB JUMP JUMPDEST SWAP2 POP PUSH2 0x2283 DUP4 PUSH2 0x17BB JUMP JUMPDEST SWAP3 POP DUP3 DUP3 ADD SWAP1 POP DUP1 DUP3 GT ISZERO PUSH2 0x229B JUMPI PUSH2 0x229A PUSH2 0x1F48 JUMP JUMPDEST JUMPDEST SWAP3 SWAP2 POP POP JUMP INVALID LOG2 PUSH5 0x6970667358 0x22 SLT KECCAK256 PUSH9 0xFCA10694026EA36B45 SELFBALANCE 0xB9 0x2F EXTCODEHASH SWAP16 GASPRICE PUSH21 0xEBEC8598D5330EEB5D717198BB1A6464736F6C6343 STOP ADDMOD XOR STOP CALLER "
				},
				"gasEstimates": {
					"creation": {
						"codeDepositCost": "1783800",
						"executionCost": "1875",
						"totalCost": "1785675"
					},
					"external": {
						"_finishAuction(address,uint256)": "infinite",
						"balanceOf(address,uint256)": "infinite",
						"bit(address,uint256,uint256)": "infinite",
						"finishAuction(uint256)": "infinite",
						"interruptAuction(uint256)": "infinite",
						"lockedCash(address,uint256)": "infinite",
						"safeTransferFrom(address,address,uint256,uint256)": "infinite",
						"startAuction(uint256,uint256,uint256,uint256)": "infinite",
						"usersAuctions(address,uint256)": "infinite",
						"usersNFTs(address,uint256)": "infinite"
					},
					"internal": {
						"_bit(address,address,uint256,uint256)": "infinite",
						"_startAuction(address,uint256,uint256,uint256,uint256)": "infinite"
					}
				},
				"methodIdentifiers": {
					"_finishAuction(address,uint256)": "5a2b5eee",
					"balanceOf(address,uint256)": "00fdd58e",
					"bit(address,uint256,uint256)": "4ad56cc1",
					"finishAuction(uint256)": "cf266ed0",
					"interruptAuction(uint256)": "79f87cdf",
					"lockedCash(address,uint256)": "3db9f55b",
					"safeTransferFrom(address,address,uint256,uint256)": "0febdd49",
					"startAuction(uint256,uint256,uint256,uint256)": "8d2c4488",
					"usersAuctions(address,uint256)": "e2ad54c1",
					"usersNFTs(address,uint256)": "08eb803d"
				}
			},
			"storageLayout": {
				"storage": [
					{
						"astId": 524,
						"contract": "Competition/Auc.sol:Auc",
						"label": "balances",
						"offset": 0,
						"slot": "0",
						"type": "t_mapping(t_address,t_mapping(t_uint256,t_uint256))"
					},
					{
						"astId": 51,
						"contract": "Competition/Auc.sol:Auc",
						"label": "usersAuctions",
						"offset": 0,
						"slot": "1",
						"type": "t_mapping(t_address,t_mapping(t_uint256,t_struct(Auction)29_storage))"
					},
					{
						"astId": 58,
						"contract": "Competition/Auc.sol:Auc",
						"label": "usersNFTs",
						"offset": 0,
						"slot": "2",
						"type": "t_mapping(t_address,t_mapping(t_uint256,t_struct(NFT)44_storage))"
					},
					{
						"astId": 64,
						"contract": "Competition/Auc.sol:Auc",
						"label": "lockedCash",
						"offset": 0,
						"slot": "3",
						"type": "t_mapping(t_address,t_mapping(t_uint256,t_uint256))"
					},
					{
						"astId": 67,
						"contract": "Competition/Auc.sol:Auc",
						"label": "erc1155",
						"offset": 0,
						"slot": "4",
						"type": "t_contract(ERC1155)642"
					}
				],
				"types": {
					"t_address": {
						"encoding": "inplace",
						"label": "address",
						"numberOfBytes": "20"
					},
					"t_bool": {
						"encoding": "inplace",
						"label": "bool",
						"numberOfBytes": "1"
					},
					"t_contract(ERC1155)642": {
						"encoding": "inplace",
						"label": "contract ERC1155",
						"numberOfBytes": "20"
					},
					"t_mapping(t_address,t_mapping(t_uint256,t_struct(Auction)29_storage))": {
						"encoding": "mapping",
						"key": "t_address",
						"label": "mapping(address => mapping(uint256 => struct Auc.Auction))",
						"numberOfBytes": "32",
						"value": "t_mapping(t_uint256,t_struct(Auction)29_storage)"
					},
					"t_mapping(t_address,t_mapping(t_uint256,t_struct(NFT)44_storage))": {
						"encoding": "mapping",
						"key": "t_address",
						"label": "mapping(address => mapping(uint256 => struct Auc.NFT))",
						"numberOfBytes": "32",
						"value": "t_mapping(t_uint256,t_struct(NFT)44_storage)"
					},
					"t_mapping(t_address,t_mapping(t_uint256,t_uint256))": {
						"encoding": "mapping",
						"key": "t_address",
						"label": "mapping(address => mapping(uint256 => uint256))",
						"numberOfBytes": "32",
						"value": "t_mapping(t_uint256,t_uint256)"
					},
					"t_mapping(t_uint256,t_struct(Auction)29_storage)": {
						"encoding": "mapping",
						"key": "t_uint256",
						"label": "mapping(uint256 => struct Auc.Auction)",
						"numberOfBytes": "32",
						"value": "t_struct(Auction)29_storage"
					},
					"t_mapping(t_uint256,t_struct(NFT)44_storage)": {
						"encoding": "mapping",
						"key": "t_uint256",
						"label": "mapping(uint256 => struct Auc.NFT)",
						"numberOfBytes": "32",
						"value": "t_struct(NFT)44_storage"
					},
					"t_mapping(t_uint256,t_uint256)": {
						"encoding": "mapping",
						"key": "t_uint256",
						"label": "mapping(uint256 => uint256)",
						"numberOfBytes": "32",
						"value": "t_uint256"
					},
					"t_string_storage": {
						"encoding": "bytes",
						"label": "string",
						"numberOfBytes": "32"
					},
					"t_struct(Auction)29_storage": {
						"encoding": "inplace",
						"label": "struct Auc.Auction",
						"members": [
							{
								"astId": 6,
								"contract": "Competition/Auc.sol:Auc",
								"label": "tokenId",
								"offset": 0,
								"slot": "0",
								"type": "t_uint256"
							},
							{
								"astId": 8,
								"contract": "Competition/Auc.sol:Auc",
								"label": "timeStarted",
								"offset": 0,
								"slot": "1",
								"type": "t_uint256"
							},
							{
								"astId": 10,
								"contract": "Competition/Auc.sol:Auc",
								"label": "duration",
								"offset": 0,
								"slot": "2",
								"type": "t_uint256"
							},
							{
								"astId": 12,
								"contract": "Competition/Auc.sol:Auc",
								"label": "price",
								"offset": 0,
								"slot": "3",
								"type": "t_uint256"
							},
							{
								"astId": 14,
								"contract": "Competition/Auc.sol:Auc",
								"label": "minPrice",
								"offset": 0,
								"slot": "4",
								"type": "t_uint256"
							},
							{
								"astId": 16,
								"contract": "Competition/Auc.sol:Auc",
								"label": "maxPrice",
								"offset": 0,
								"slot": "5",
								"type": "t_uint256"
							},
							{
								"astId": 18,
								"contract": "Competition/Auc.sol:Auc",
								"label": "winner",
								"offset": 0,
								"slot": "6",
								"type": "t_address"
							},
							{
								"astId": 20,
								"contract": "Competition/Auc.sol:Auc",
								"label": "owner",
								"offset": 0,
								"slot": "7",
								"type": "t_address"
							},
							{
								"astId": 22,
								"contract": "Competition/Auc.sol:Auc",
								"label": "lockedDuringAuction",
								"offset": 20,
								"slot": "7",
								"type": "t_bool"
							},
							{
								"astId": 24,
								"contract": "Competition/Auc.sol:Auc",
								"label": "finished",
								"offset": 21,
								"slot": "7",
								"type": "t_bool"
							},
							{
								"astId": 26,
								"contract": "Competition/Auc.sol:Auc",
								"label": "started",
								"offset": 22,
								"slot": "7",
								"type": "t_bool"
							},
							{
								"astId": 28,
								"contract": "Competition/Auc.sol:Auc",
								"label": "timeFinished",
								"offset": 0,
								"slot": "8",
								"type": "t_uint256"
							}
						],
						"numberOfBytes": "288"
					},
					"t_struct(NFT)44_storage": {
						"encoding": "inplace",
						"label": "struct Auc.NFT",
						"members": [
							{
								"astId": 31,
								"contract": "Competition/Auc.sol:Auc",
								"label": "name",
								"offset": 0,
								"slot": "0",
								"type": "t_string_storage"
							},
							{
								"astId": 33,
								"contract": "Competition/Auc.sol:Auc",
								"label": "description",
								"offset": 0,
								"slot": "1",
								"type": "t_string_storage"
							},
							{
								"astId": 35,
								"contract": "Competition/Auc.sol:Auc",
								"label": "image",
								"offset": 0,
								"slot": "2",
								"type": "t_string_storage"
							},
							{
								"astId": 37,
								"contract": "Competition/Auc.sol:Auc",
								"label": "price",
								"offset": 0,
								"slot": "3",
								"type": "t_uint256"
							},
							{
								"astId": 39,
								"contract": "Competition/Auc.sol:Auc",
								"label": "amountReleased",
								"offset": 0,
								"slot": "4",
								"type": "t_uint256"
							},
							{
								"astId": 41,
								"contract": "Competition/Auc.sol:Auc",
								"label": "amountToSale",
								"offset": 0,
								"slot": "5",
								"type": "t_uint256"
							},
							{
								"astId": 43,
								"contract": "Competition/Auc.sol:Auc",
								"label": "timeCreated",
								"offset": 0,
								"slot": "6",
								"type": "t_uint256"
							}
						],
						"numberOfBytes": "224"
					},
					"t_uint256": {
						"encoding": "inplace",
						"label": "uint256",
						"numberOfBytes": "32"
					}
				}
			},
			"userdoc": {
				"kind": "user",
				"methods": {},
				"version": 1
			}
		}
	}
}