{
	"Token.sol": {
		"Token": {
			"abi": [
				{
					"inputs": [
						{
							"internalType": "string",
							"name": "name",
							"type": "string"
						},
						{
							"internalType": "string",
							"name": "symbol",
							"type": "string"
						},
						{
							"internalType": "uint256",
							"name": "initialSupply",
							"type": "uint256"
						},
						{
							"internalType": "uint8",
							"name": "decimalsAmount",
							"type": "uint8"
						},
						{
							"internalType": "uint256",
							"name": "_priceInEth",
							"type": "uint256"
						},
						{
							"internalType": "address",
							"name": "initialOwner",
							"type": "address"
						}
					],
					"stateMutability": "nonpayable",
					"type": "constructor"
				},
				{
					"inputs": [
						{
							"internalType": "address",
							"name": "spender",
							"type": "address"
						},
						{
							"internalType": "uint256",
							"name": "allowance",
							"type": "uint256"
						},
						{
							"internalType": "uint256",
							"name": "needed",
							"type": "uint256"
						}
					],
					"name": "ERC20InsufficientAllowance",
					"type": "error"
				},
				{
					"inputs": [
						{
							"internalType": "address",
							"name": "sender",
							"type": "address"
						},
						{
							"internalType": "uint256",
							"name": "balance",
							"type": "uint256"
						},
						{
							"internalType": "uint256",
							"name": "needed",
							"type": "uint256"
						}
					],
					"name": "ERC20InsufficientBalance",
					"type": "error"
				},
				{
					"inputs": [
						{
							"internalType": "address",
							"name": "approver",
							"type": "address"
						}
					],
					"name": "ERC20InvalidApprover",
					"type": "error"
				},
				{
					"inputs": [
						{
							"internalType": "address",
							"name": "receiver",
							"type": "address"
						}
					],
					"name": "ERC20InvalidReceiver",
					"type": "error"
				},
				{
					"inputs": [
						{
							"internalType": "address",
							"name": "sender",
							"type": "address"
						}
					],
					"name": "ERC20InvalidSender",
					"type": "error"
				},
				{
					"inputs": [
						{
							"internalType": "address",
							"name": "spender",
							"type": "address"
						}
					],
					"name": "ERC20InvalidSpender",
					"type": "error"
				},
				{
					"inputs": [
						{
							"internalType": "address",
							"name": "owner",
							"type": "address"
						}
					],
					"name": "OwnableInvalidOwner",
					"type": "error"
				},
				{
					"inputs": [
						{
							"internalType": "address",
							"name": "account",
							"type": "address"
						}
					],
					"name": "OwnableUnauthorizedAccount",
					"type": "error"
				},
				{
					"anonymous": false,
					"inputs": [
						{
							"indexed": true,
							"internalType": "address",
							"name": "owner",
							"type": "address"
						},
						{
							"indexed": true,
							"internalType": "address",
							"name": "spender",
							"type": "address"
						},
						{
							"indexed": false,
							"internalType": "uint256",
							"name": "value",
							"type": "uint256"
						}
					],
					"name": "Approval",
					"type": "event"
				},
				{
					"anonymous": false,
					"inputs": [
						{
							"indexed": true,
							"internalType": "address",
							"name": "previousOwner",
							"type": "address"
						},
						{
							"indexed": true,
							"internalType": "address",
							"name": "newOwner",
							"type": "address"
						}
					],
					"name": "OwnershipTransferred",
					"type": "event"
				},
				{
					"anonymous": false,
					"inputs": [
						{
							"indexed": true,
							"internalType": "address",
							"name": "from",
							"type": "address"
						},
						{
							"indexed": true,
							"internalType": "address",
							"name": "to",
							"type": "address"
						},
						{
							"indexed": false,
							"internalType": "uint256",
							"name": "value",
							"type": "uint256"
						}
					],
					"name": "Transfer",
					"type": "event"
				},
				{
					"inputs": [
						{
							"internalType": "address",
							"name": "owner",
							"type": "address"
						},
						{
							"internalType": "address",
							"name": "spender",
							"type": "address"
						}
					],
					"name": "allowance",
					"outputs": [
						{
							"internalType": "uint256",
							"name": "",
							"type": "uint256"
						}
					],
					"stateMutability": "view",
					"type": "function"
				},
				{
					"inputs": [
						{
							"internalType": "address",
							"name": "spender",
							"type": "address"
						},
						{
							"internalType": "uint256",
							"name": "value",
							"type": "uint256"
						}
					],
					"name": "approve",
					"outputs": [
						{
							"internalType": "bool",
							"name": "",
							"type": "bool"
						}
					],
					"stateMutability": "nonpayable",
					"type": "function"
				},
				{
					"inputs": [
						{
							"internalType": "address",
							"name": "account",
							"type": "address"
						}
					],
					"name": "balanceOf",
					"outputs": [
						{
							"internalType": "uint256",
							"name": "",
							"type": "uint256"
						}
					],
					"stateMutability": "view",
					"type": "function"
				},
				{
					"inputs": [
						{
							"internalType": "address",
							"name": "from",
							"type": "address"
						},
						{
							"internalType": "uint256",
							"name": "amount",
							"type": "uint256"
						}
					],
					"name": "burn",
					"outputs": [],
					"stateMutability": "nonpayable",
					"type": "function"
				},
				{
					"inputs": [],
					"name": "decimals",
					"outputs": [
						{
							"internalType": "uint8",
							"name": "",
							"type": "uint8"
						}
					],
					"stateMutability": "view",
					"type": "function"
				},
				{
					"inputs": [
						{
							"internalType": "address",
							"name": "to",
							"type": "address"
						},
						{
							"internalType": "uint256",
							"name": "amount",
							"type": "uint256"
						}
					],
					"name": "mint",
					"outputs": [],
					"stateMutability": "nonpayable",
					"type": "function"
				},
				{
					"inputs": [],
					"name": "name",
					"outputs": [
						{
							"internalType": "string",
							"name": "",
							"type": "string"
						}
					],
					"stateMutability": "view",
					"type": "function"
				},
				{
					"inputs": [],
					"name": "owner",
					"outputs": [
						{
							"internalType": "address",
							"name": "",
							"type": "address"
						}
					],
					"stateMutability": "view",
					"type": "function"
				},
				{
					"inputs": [],
					"name": "priceInEth",
					"outputs": [
						{
							"internalType": "uint256",
							"name": "",
							"type": "uint256"
						}
					],
					"stateMutability": "view",
					"type": "function"
				},
				{
					"inputs": [],
					"name": "renounceOwnership",
					"outputs": [],
					"stateMutability": "nonpayable",
					"type": "function"
				},
				{
					"inputs": [],
					"name": "symbol",
					"outputs": [
						{
							"internalType": "string",
							"name": "",
							"type": "string"
						}
					],
					"stateMutability": "view",
					"type": "function"
				},
				{
					"inputs": [],
					"name": "totalSupply",
					"outputs": [
						{
							"internalType": "uint256",
							"name": "",
							"type": "uint256"
						}
					],
					"stateMutability": "view",
					"type": "function"
				},
				{
					"inputs": [
						{
							"internalType": "address",
							"name": "to",
							"type": "address"
						},
						{
							"internalType": "uint256",
							"name": "value",
							"type": "uint256"
						}
					],
					"name": "transfer",
					"outputs": [
						{
							"internalType": "bool",
							"name": "",
							"type": "bool"
						}
					],
					"stateMutability": "nonpayable",
					"type": "function"
				},
				{
					"inputs": [
						{
							"internalType": "address",
							"name": "from",
							"type": "address"
						},
						{
							"internalType": "address",
							"name": "to",
							"type": "address"
						},
						{
							"internalType": "uint256",
							"name": "value",
							"type": "uint256"
						}
					],
					"name": "transferFrom",
					"outputs": [
						{
							"internalType": "bool",
							"name": "",
							"type": "bool"
						}
					],
					"stateMutability": "nonpayable",
					"type": "function"
				},
				{
					"inputs": [
						{
							"internalType": "address",
							"name": "newOwner",
							"type": "address"
						}
					],
					"name": "transferOwnership",
					"outputs": [],
					"stateMutability": "nonpayable",
					"type": "function"
				}
			],
			"devdoc": {
				"errors": {
					"ERC20InsufficientAllowance(address,uint256,uint256)": [
						{
							"details": "Indicates a failure with the `spender`’s `allowance`. Used in transfers.",
							"params": {
								"allowance": "Amount of tokens a `spender` is allowed to operate with.",
								"needed": "Minimum amount required to perform a transfer.",
								"spender": "Address that may be allowed to operate on tokens without being their owner."
							}
						}
					],
					"ERC20InsufficientBalance(address,uint256,uint256)": [
						{
							"details": "Indicates an error related to the current `balance` of a `sender`. Used in transfers.",
							"params": {
								"balance": "Current balance for the interacting account.",
								"needed": "Minimum amount required to perform a transfer.",
								"sender": "Address whose tokens are being transferred."
							}
						}
					],
					"ERC20InvalidApprover(address)": [
						{
							"details": "Indicates a failure with the `approver` of a token to be approved. Used in approvals.",
							"params": {
								"approver": "Address initiating an approval operation."
							}
						}
					],
					"ERC20InvalidReceiver(address)": [
						{
							"details": "Indicates a failure with the token `receiver`. Used in transfers.",
							"params": {
								"receiver": "Address to which tokens are being transferred."
							}
						}
					],
					"ERC20InvalidSender(address)": [
						{
							"details": "Indicates a failure with the token `sender`. Used in transfers.",
							"params": {
								"sender": "Address whose tokens are being transferred."
							}
						}
					],
					"ERC20InvalidSpender(address)": [
						{
							"details": "Indicates a failure with the `spender` to be approved. Used in approvals.",
							"params": {
								"spender": "Address that may be allowed to operate on tokens without being their owner."
							}
						}
					],
					"OwnableInvalidOwner(address)": [
						{
							"details": "The owner is not a valid owner account. (eg. `address(0)`)"
						}
					],
					"OwnableUnauthorizedAccount(address)": [
						{
							"details": "The caller account is not authorized to perform an operation."
						}
					]
				},
				"events": {
					"Approval(address,address,uint256)": {
						"details": "Emitted when the allowance of a `spender` for an `owner` is set by a call to {approve}. `value` is the new allowance."
					},
					"Transfer(address,address,uint256)": {
						"details": "Emitted when `value` tokens are moved from one account (`from`) to another (`to`). Note that `value` may be zero."
					}
				},
				"kind": "dev",
				"methods": {
					"allowance(address,address)": {
						"details": "See {IERC20-allowance}."
					},
					"approve(address,uint256)": {
						"details": "See {IERC20-approve}. NOTE: If `value` is the maximum `uint256`, the allowance is not updated on `transferFrom`. This is semantically equivalent to an infinite approval. Requirements: - `spender` cannot be the zero address."
					},
					"balanceOf(address)": {
						"details": "See {IERC20-balanceOf}."
					},
					"decimals()": {
						"details": "Returns the number of decimals used to get its user representation. For example, if `decimals` equals `2`, a balance of `505` tokens should be displayed to a user as `5.05` (`505 / 10 ** 2`). Tokens usually opt for a value of 18, imitating the relationship between Ether and Wei. This is the default value returned by this function, unless it's overridden. NOTE: This information is only used for _display_ purposes: it in no way affects any of the arithmetic of the contract, including {IERC20-balanceOf} and {IERC20-transfer}."
					},
					"name()": {
						"details": "Returns the name of the token."
					},
					"owner()": {
						"details": "Returns the address of the current owner."
					},
					"renounceOwnership()": {
						"details": "Leaves the contract without owner. It will not be possible to call `onlyOwner` functions. Can only be called by the current owner. NOTE: Renouncing ownership will leave the contract without an owner, thereby disabling any functionality that is only available to the owner."
					},
					"symbol()": {
						"details": "Returns the symbol of the token, usually a shorter version of the name."
					},
					"totalSupply()": {
						"details": "See {IERC20-totalSupply}."
					},
					"transfer(address,uint256)": {
						"details": "See {IERC20-transfer}. Requirements: - `to` cannot be the zero address. - the caller must have a balance of at least `value`."
					},
					"transferFrom(address,address,uint256)": {
						"details": "See {IERC20-transferFrom}. Skips emitting an {Approval} event indicating an allowance update. This is not required by the ERC. See {xref-ERC20-_approve-address-address-uint256-bool-}[_approve]. NOTE: Does not update the allowance if the current allowance is the maximum `uint256`. Requirements: - `from` and `to` cannot be the zero address. - `from` must have a balance of at least `value`. - the caller must have allowance for ``from``'s tokens of at least `value`."
					},
					"transferOwnership(address)": {
						"details": "Transfers ownership of the contract to a new account (`newOwner`). Can only be called by the current owner."
					}
				},
				"version": 1
			},
			"evm": {
				"assembly": "    /* \"Token.sol\":173:993  contract Token is ERC20, Ownable {... */\n  mstore(0x40, 0x80)\n    /* \"Token.sol\":277:672  constructor(... */\n  callvalue\n  dup1\n  iszero\n  tag_1\n  jumpi\n  0x00\n  dup1\n  revert\ntag_1:\n  pop\n  mload(0x40)\n  sub(codesize, bytecodeSize)\n  dup1\n  bytecodeSize\n  dup4\n  codecopy\n  dup2\n  dup2\n  add\n  0x40\n  mstore\n  dup2\n  add\n  swap1\n  tag_2\n  swap2\n  swap1\n  tag_3\n  jump\t// in\ntag_2:\n    /* \"Token.sol\":508:520  initialOwner */\n  dup1\n    /* \"Token.sol\":486:490  name */\n  dup7\n    /* \"Token.sol\":492:498  symbol */\n  dup7\n    /* \"@openzeppelin/contracts/token/ERC20/ERC20.sol\":1675:1680  name_ */\n  dup2\n    /* \"@openzeppelin/contracts/token/ERC20/ERC20.sol\":1667:1672  _name */\n  0x03\n    /* \"@openzeppelin/contracts/token/ERC20/ERC20.sol\":1667:1680  _name = name_ */\n  swap1\n  dup2\n  tag_8\n  swap2\n  swap1\n  tag_9\n  jump\t// in\ntag_8:\n  pop\n    /* \"@openzeppelin/contracts/token/ERC20/ERC20.sol\":1700:1707  symbol_ */\n  dup1\n    /* \"@openzeppelin/contracts/token/ERC20/ERC20.sol\":1690:1697  _symbol */\n  0x04\n    /* \"@openzeppelin/contracts/token/ERC20/ERC20.sol\":1690:1707  _symbol = symbol_ */\n  swap1\n  dup2\n  tag_10\n  swap2\n  swap1\n  tag_9\n  jump\t// in\ntag_10:\n  pop\n    /* \"@openzeppelin/contracts/token/ERC20/ERC20.sol\":1601:1714  constructor(string memory name_, string memory symbol_) {... */\n  pop\n  pop\n    /* \"@openzeppelin/contracts/access/Ownable.sol\":1297:1298  0 */\n  0x00\n    /* \"@openzeppelin/contracts/access/Ownable.sol\":1273:1299  initialOwner == address(0) */\n  0xffffffffffffffffffffffffffffffffffffffff\n  and\n    /* \"@openzeppelin/contracts/access/Ownable.sol\":1273:1285  initialOwner */\n  dup2\n    /* \"@openzeppelin/contracts/access/Ownable.sol\":1273:1299  initialOwner == address(0) */\n  0xffffffffffffffffffffffffffffffffffffffff\n  and\n  sub\n    /* \"@openzeppelin/contracts/access/Ownable.sol\":1269:1364  if (initialOwner == address(0)) {... */\n  tag_12\n  jumpi\n    /* \"@openzeppelin/contracts/access/Ownable.sol\":1350:1351  0 */\n  0x00\n    /* \"@openzeppelin/contracts/access/Ownable.sol\":1322:1353  OwnableInvalidOwner(address(0)) */\n  mload(0x40)\n  0x1e4fbdf700000000000000000000000000000000000000000000000000000000\n  dup2\n  mstore\n  0x04\n  add\n  tag_13\n  swap2\n  swap1\n  tag_14\n  jump\t// in\ntag_13:\n  mload(0x40)\n  dup1\n  swap2\n  sub\n  swap1\n  revert\n    /* \"@openzeppelin/contracts/access/Ownable.sol\":1269:1364  if (initialOwner == address(0)) {... */\ntag_12:\n    /* \"@openzeppelin/contracts/access/Ownable.sol\":1373:1405  _transferOwnership(initialOwner) */\n  tag_15\n    /* \"@openzeppelin/contracts/access/Ownable.sol\":1392:1404  initialOwner */\n  dup2\n    /* \"@openzeppelin/contracts/access/Ownable.sol\":1373:1391  _transferOwnership */\n  shl(0x20, tag_16)\n    /* \"@openzeppelin/contracts/access/Ownable.sol\":1373:1405  _transferOwnership(initialOwner) */\n  0x20\n  shr\n  jump\t// in\ntag_15:\n    /* \"@openzeppelin/contracts/access/Ownable.sol\":1225:1412  constructor(address initialOwner) {... */\n  pop\n    /* \"Token.sol\":545:559  decimalsAmount */\n  dup3\n    /* \"Token.sol\":533:542  _decimals */\n  0x05\n  0x14\n    /* \"Token.sol\":533:559  _decimals = decimalsAmount */\n  0x0100\n  exp\n  dup2\n  sload\n  dup2\n  0xff\n  mul\n  not\n  and\n  swap1\n  dup4\n  0xff\n  and\n  mul\n  or\n  swap1\n  sstore\n  pop\n    /* \"Token.sol\":583:594  _priceInEth */\n  dup2\n    /* \"Token.sol\":570:580  priceInEth */\n  0x06\n    /* \"Token.sol\":570:594  priceInEth = _priceInEth */\n  dup2\n  swap1\n  sstore\n  pop\n    /* \"Token.sol\":605:664  _mint(initialOwner, initialSupply * (10 ** decimalsAmount)) */\n  tag_18\n    /* \"Token.sol\":611:623  initialOwner */\n  dup2\n    /* \"Token.sol\":648:662  decimalsAmount */\n  dup5\n    /* \"Token.sol\":642:644  10 */\n  0x0a\n    /* \"Token.sol\":642:662  10 ** decimalsAmount */\n  tag_19\n  swap2\n  swap1\n  tag_20\n  jump\t// in\ntag_19:\n    /* \"Token.sol\":625:638  initialSupply */\n  dup7\n    /* \"Token.sol\":625:663  initialSupply * (10 ** decimalsAmount) */\n  tag_21\n  swap2\n  swap1\n  tag_22\n  jump\t// in\ntag_21:\n    /* \"Token.sol\":605:610  _mint */\n  shl(0x20, tag_23)\n    /* \"Token.sol\":605:664  _mint(initialOwner, initialSupply * (10 ** decimalsAmount)) */\n  0x20\n  shr\n  jump\t// in\ntag_18:\n    /* \"Token.sol\":277:672  constructor(... */\n  pop\n  pop\n  pop\n  pop\n  pop\n  pop\n    /* \"Token.sol\":173:993  contract Token is ERC20, Ownable {... */\n  jump(tag_24)\n    /* \"@openzeppelin/contracts/access/Ownable.sol\":2912:3099  function _transferOwnership(address newOwner) internal virtual {... */\ntag_16:\n    /* \"@openzeppelin/contracts/access/Ownable.sol\":2985:3001  address oldOwner */\n  0x00\n    /* \"@openzeppelin/contracts/access/Ownable.sol\":3004:3010  _owner */\n  0x05\n  0x00\n  swap1\n  sload\n  swap1\n  0x0100\n  exp\n  swap1\n  div\n  0xffffffffffffffffffffffffffffffffffffffff\n  and\n    /* \"@openzeppelin/contracts/access/Ownable.sol\":2985:3010  address oldOwner = _owner */\n  swap1\n  pop\n    /* \"@openzeppelin/contracts/access/Ownable.sol\":3029:3037  newOwner */\n  dup2\n    /* \"@openzeppelin/contracts/access/Ownable.sol\":3020:3026  _owner */\n  0x05\n  0x00\n    /* \"@openzeppelin/contracts/access/Ownable.sol\":3020:3037  _owner = newOwner */\n  0x0100\n  exp\n  dup2\n  sload\n  dup2\n  0xffffffffffffffffffffffffffffffffffffffff\n  mul\n  not\n  and\n  swap1\n  dup4\n  0xffffffffffffffffffffffffffffffffffffffff\n  and\n  mul\n  or\n  swap1\n  sstore\n  pop\n    /* \"@openzeppelin/contracts/access/Ownable.sol\":3083:3091  newOwner */\n  dup2\n    /* \"@openzeppelin/contracts/access/Ownable.sol\":3052:3092  OwnershipTransferred(oldOwner, newOwner) */\n  0xffffffffffffffffffffffffffffffffffffffff\n  and\n    /* \"@openzeppelin/contracts/access/Ownable.sol\":3073:3081  oldOwner */\n  dup2\n    /* \"@openzeppelin/contracts/access/Ownable.sol\":3052:3092  OwnershipTransferred(oldOwner, newOwner) */\n  0xffffffffffffffffffffffffffffffffffffffff\n  and\n  0x8be0079c531659141344cd1fd0a4f28419497f9722a3daafe3b4186f6b6457e0\n  mload(0x40)\n  mload(0x40)\n  dup1\n  swap2\n  sub\n  swap1\n  log3\n    /* \"@openzeppelin/contracts/access/Ownable.sol\":2975:3099  {... */\n  pop\n    /* \"@openzeppelin/contracts/access/Ownable.sol\":2912:3099  function _transferOwnership(address newOwner) internal virtual {... */\n  pop\n  jump\t// out\n    /* \"@openzeppelin/contracts/token/ERC20/ERC20.sol\":7458:7666  function _mint(address account, uint256 value) internal {... */\ntag_23:\n    /* \"@openzeppelin/contracts/token/ERC20/ERC20.sol\":7547:7548  0 */\n  0x00\n    /* \"@openzeppelin/contracts/token/ERC20/ERC20.sol\":7528:7549  account == address(0) */\n  0xffffffffffffffffffffffffffffffffffffffff\n  and\n    /* \"@openzeppelin/contracts/token/ERC20/ERC20.sol\":7528:7535  account */\n  dup3\n    /* \"@openzeppelin/contracts/token/ERC20/ERC20.sol\":7528:7549  account == address(0) */\n  0xffffffffffffffffffffffffffffffffffffffff\n  and\n  sub\n    /* \"@openzeppelin/contracts/token/ERC20/ERC20.sol\":7524:7615  if (account == address(0)) {... */\n  tag_27\n  jumpi\n    /* \"@openzeppelin/contracts/token/ERC20/ERC20.sol\":7601:7602  0 */\n  0x00\n    /* \"@openzeppelin/contracts/token/ERC20/ERC20.sol\":7572:7604  ERC20InvalidReceiver(address(0)) */\n  mload(0x40)\n  0xec442f0500000000000000000000000000000000000000000000000000000000\n  dup2\n  mstore\n  0x04\n  add\n  tag_28\n  swap2\n  swap1\n  tag_14\n  jump\t// in\ntag_28:\n  mload(0x40)\n  dup1\n  swap2\n  sub\n  swap1\n  revert\n    /* \"@openzeppelin/contracts/token/ERC20/ERC20.sol\":7524:7615  if (account == address(0)) {... */\ntag_27:\n    /* \"@openzeppelin/contracts/token/ERC20/ERC20.sol\":7624:7659  _update(address(0), account, value) */\n  tag_29\n    /* \"@openzeppelin/contracts/token/ERC20/ERC20.sol\":7640:7641  0 */\n  0x00\n    /* \"@openzeppelin/contracts/token/ERC20/ERC20.sol\":7644:7651  account */\n  dup4\n    /* \"@openzeppelin/contracts/token/ERC20/ERC20.sol\":7653:7658  value */\n  dup4\n    /* \"@openzeppelin/contracts/token/ERC20/ERC20.sol\":7624:7631  _update */\n  shl(0x20, tag_30)\n    /* \"@openzeppelin/contracts/token/ERC20/ERC20.sol\":7624:7659  _update(address(0), account, value) */\n  0x20\n  shr\n  jump\t// in\ntag_29:\n    /* \"@openzeppelin/contracts/token/ERC20/ERC20.sol\":7458:7666  function _mint(address account, uint256 value) internal {... */\n  pop\n  pop\n  jump\t// out\n    /* \"@openzeppelin/contracts/token/ERC20/ERC20.sol\":6008:7115  function _update(address from, address to, uint256 value) internal virtual {... */\ntag_30:\n    /* \"@openzeppelin/contracts/token/ERC20/ERC20.sol\":6113:6114  0 */\n  0x00\n    /* \"@openzeppelin/contracts/token/ERC20/ERC20.sol\":6097:6115  from == address(0) */\n  0xffffffffffffffffffffffffffffffffffffffff\n  and\n    /* \"@openzeppelin/contracts/token/ERC20/ERC20.sol\":6097:6101  from */\n  dup4\n    /* \"@openzeppelin/contracts/token/ERC20/ERC20.sol\":6097:6115  from == address(0) */\n  0xffffffffffffffffffffffffffffffffffffffff\n  and\n  sub\n    /* \"@openzeppelin/contracts/token/ERC20/ERC20.sol\":6093:6633  if (from == address(0)) {... */\n  tag_32\n  jumpi\n    /* \"@openzeppelin/contracts/token/ERC20/ERC20.sol\":6249:6254  value */\n  dup1\n    /* \"@openzeppelin/contracts/token/ERC20/ERC20.sol\":6233:6245  _totalSupply */\n  0x02\n  0x00\n    /* \"@openzeppelin/contracts/token/ERC20/ERC20.sol\":6233:6254  _totalSupply += value */\n  dup3\n  dup3\n  sload\n  tag_33\n  swap2\n  swap1\n  tag_34\n  jump\t// in\ntag_33:\n  swap3\n  pop\n  pop\n  dup2\n  swap1\n  sstore\n  pop\n    /* \"@openzeppelin/contracts/token/ERC20/ERC20.sol\":6093:6633  if (from == address(0)) {... */\n  jump(tag_35)\ntag_32:\n    /* \"@openzeppelin/contracts/token/ERC20/ERC20.sol\":6285:6304  uint256 fromBalance */\n  0x00\n    /* \"@openzeppelin/contracts/token/ERC20/ERC20.sol\":6307:6316  _balances */\n  dup1\n    /* \"@openzeppelin/contracts/token/ERC20/ERC20.sol\":6307:6322  _balances[from] */\n  0x00\n    /* \"@openzeppelin/contracts/token/ERC20/ERC20.sol\":6317:6321  from */\n  dup6\n    /* \"@openzeppelin/contracts/token/ERC20/ERC20.sol\":6307:6322  _balances[from] */\n  0xffffffffffffffffffffffffffffffffffffffff\n  and\n  0xffffffffffffffffffffffffffffffffffffffff\n  and\n  dup2\n  mstore\n  0x20\n  add\n  swap1\n  dup2\n  mstore\n  0x20\n  add\n  0x00\n  keccak256\n  sload\n    /* \"@openzeppelin/contracts/token/ERC20/ERC20.sol\":6285:6322  uint256 fromBalance = _balances[from] */\n  swap1\n  pop\n    /* \"@openzeppelin/contracts/token/ERC20/ERC20.sol\":6354:6359  value */\n  dup2\n    /* \"@openzeppelin/contracts/token/ERC20/ERC20.sol\":6340:6351  fromBalance */\n  dup2\n    /* \"@openzeppelin/contracts/token/ERC20/ERC20.sol\":6340:6359  fromBalance < value */\n  lt\n    /* \"@openzeppelin/contracts/token/ERC20/ERC20.sol\":6336:6451  if (fromBalance < value) {... */\n  iszero\n  tag_36\n  jumpi\n    /* \"@openzeppelin/contracts/token/ERC20/ERC20.sol\":6411:6415  from */\n  dup4\n    /* \"@openzeppelin/contracts/token/ERC20/ERC20.sol\":6417:6428  fromBalance */\n  dup2\n    /* \"@openzeppelin/contracts/token/ERC20/ERC20.sol\":6430:6435  value */\n  dup4\n    /* \"@openzeppelin/contracts/token/ERC20/ERC20.sol\":6386:6436  ERC20InsufficientBalance(from, fromBalance, value) */\n  mload(0x40)\n  0xe450d38c00000000000000000000000000000000000000000000000000000000\n  dup2\n  mstore\n  0x04\n  add\n  tag_37\n  swap4\n  swap3\n  swap2\n  swap1\n  tag_38\n  jump\t// in\ntag_37:\n  mload(0x40)\n  dup1\n  swap2\n  sub\n  swap1\n  revert\n    /* \"@openzeppelin/contracts/token/ERC20/ERC20.sol\":6336:6451  if (fromBalance < value) {... */\ntag_36:\n    /* \"@openzeppelin/contracts/token/ERC20/ERC20.sol\":6603:6608  value */\n  dup2\n    /* \"@openzeppelin/contracts/token/ERC20/ERC20.sol\":6589:6600  fromBalance */\n  dup2\n    /* \"@openzeppelin/contracts/token/ERC20/ERC20.sol\":6589:6608  fromBalance - value */\n  sub\n    /* \"@openzeppelin/contracts/token/ERC20/ERC20.sol\":6571:6580  _balances */\n  0x00\n    /* \"@openzeppelin/contracts/token/ERC20/ERC20.sol\":6571:6586  _balances[from] */\n  dup1\n    /* \"@openzeppelin/contracts/token/ERC20/ERC20.sol\":6581:6585  from */\n  dup7\n    /* \"@openzeppelin/contracts/token/ERC20/ERC20.sol\":6571:6586  _balances[from] */\n  0xffffffffffffffffffffffffffffffffffffffff\n  and\n  0xffffffffffffffffffffffffffffffffffffffff\n  and\n  dup2\n  mstore\n  0x20\n  add\n  swap1\n  dup2\n  mstore\n  0x20\n  add\n  0x00\n  keccak256\n    /* \"@openzeppelin/contracts/token/ERC20/ERC20.sol\":6571:6608  _balances[from] = fromBalance - value */\n  dup2\n  swap1\n  sstore\n  pop\n    /* \"@openzeppelin/contracts/token/ERC20/ERC20.sol\":6271:6633  {... */\n  pop\n    /* \"@openzeppelin/contracts/token/ERC20/ERC20.sol\":6093:6633  if (from == address(0)) {... */\ntag_35:\n    /* \"@openzeppelin/contracts/token/ERC20/ERC20.sol\":6661:6662  0 */\n  0x00\n    /* \"@openzeppelin/contracts/token/ERC20/ERC20.sol\":6647:6663  to == address(0) */\n  0xffffffffffffffffffffffffffffffffffffffff\n  and\n    /* \"@openzeppelin/contracts/token/ERC20/ERC20.sol\":6647:6649  to */\n  dup3\n    /* \"@openzeppelin/contracts/token/ERC20/ERC20.sol\":6647:6663  to == address(0) */\n  0xffffffffffffffffffffffffffffffffffffffff\n  and\n  sub\n    /* \"@openzeppelin/contracts/token/ERC20/ERC20.sol\":6643:7068  if (to == address(0)) {... */\n  tag_39\n  jumpi\n    /* \"@openzeppelin/contracts/token/ERC20/ERC20.sol\":6826:6831  value */\n  dup1\n    /* \"@openzeppelin/contracts/token/ERC20/ERC20.sol\":6810:6822  _totalSupply */\n  0x02\n  0x00\n    /* \"@openzeppelin/contracts/token/ERC20/ERC20.sol\":6810:6831  _totalSupply -= value */\n  dup3\n  dup3\n  sload\n  sub\n  swap3\n  pop\n  pop\n  dup2\n  swap1\n  sstore\n  pop\n    /* \"@openzeppelin/contracts/token/ERC20/ERC20.sol\":6643:7068  if (to == address(0)) {... */\n  jump(tag_40)\ntag_39:\n    /* \"@openzeppelin/contracts/token/ERC20/ERC20.sol\":7038:7043  value */\n  dup1\n    /* \"@openzeppelin/contracts/token/ERC20/ERC20.sol\":7021:7030  _balances */\n  0x00\n    /* \"@openzeppelin/contracts/token/ERC20/ERC20.sol\":7021:7034  _balances[to] */\n  dup1\n    /* \"@openzeppelin/contracts/token/ERC20/ERC20.sol\":7031:7033  to */\n  dup5\n    /* \"@openzeppelin/contracts/token/ERC20/ERC20.sol\":7021:7034  _balances[to] */\n  0xffffffffffffffffffffffffffffffffffffffff\n  and\n  0xffffffffffffffffffffffffffffffffffffffff\n  and\n  dup2\n  mstore\n  0x20\n  add\n  swap1\n  dup2\n  mstore\n  0x20\n  add\n  0x00\n  keccak256\n  0x00\n    /* \"@openzeppelin/contracts/token/ERC20/ERC20.sol\":7021:7043  _balances[to] += value */\n  dup3\n  dup3\n  sload\n  add\n  swap3\n  pop\n  pop\n  dup2\n  swap1\n  sstore\n  pop\n    /* \"@openzeppelin/contracts/token/ERC20/ERC20.sol\":6643:7068  if (to == address(0)) {... */\ntag_40:\n    /* \"@openzeppelin/contracts/token/ERC20/ERC20.sol\":7098:7100  to */\n  dup2\n    /* \"@openzeppelin/contracts/token/ERC20/ERC20.sol\":7083:7108  Transfer(from, to, value) */\n  0xffffffffffffffffffffffffffffffffffffffff\n  and\n    /* \"@openzeppelin/contracts/token/ERC20/ERC20.sol\":7092:7096  from */\n  dup4\n    /* \"@openzeppelin/contracts/token/ERC20/ERC20.sol\":7083:7108  Transfer(from, to, value) */\n  0xffffffffffffffffffffffffffffffffffffffff\n  and\n  0xddf252ad1be2c89b69c2b068fc378daa952ba7f163c4a11628f55a4df523b3ef\n    /* \"@openzeppelin/contracts/token/ERC20/ERC20.sol\":7102:7107  value */\n  dup4\n    /* \"@openzeppelin/contracts/token/ERC20/ERC20.sol\":7083:7108  Transfer(from, to, value) */\n  mload(0x40)\n  tag_41\n  swap2\n  swap1\n  tag_42\n  jump\t// in\ntag_41:\n  mload(0x40)\n  dup1\n  swap2\n  sub\n  swap1\n  log3\n    /* \"@openzeppelin/contracts/token/ERC20/ERC20.sol\":6008:7115  function _update(address from, address to, uint256 value) internal virtual {... */\n  pop\n  pop\n  pop\n  jump\t// out\n    /* \"#utility.yul\":7:82   */\ntag_43:\n    /* \"#utility.yul\":40:46   */\n  0x00\n    /* \"#utility.yul\":73:75   */\n  0x40\n    /* \"#utility.yul\":67:76   */\n  mload\n    /* \"#utility.yul\":57:76   */\n  swap1\n  pop\n    /* \"#utility.yul\":7:82   */\n  swap1\n  jump\t// out\n    /* \"#utility.yul\":88:205   */\ntag_44:\n    /* \"#utility.yul\":197:198   */\n  0x00\n    /* \"#utility.yul\":194:195   */\n  dup1\n    /* \"#utility.yul\":187:199   */\n  revert\n    /* \"#utility.yul\":211:328   */\ntag_45:\n    /* \"#utility.yul\":320:321   */\n  0x00\n    /* \"#utility.yul\":317:318   */\n  dup1\n    /* \"#utility.yul\":310:322   */\n  revert\n    /* \"#utility.yul\":334:451   */\ntag_46:\n    /* \"#utility.yul\":443:444   */\n  0x00\n    /* \"#utility.yul\":440:441   */\n  dup1\n    /* \"#utility.yul\":433:445   */\n  revert\n    /* \"#utility.yul\":457:574   */\ntag_47:\n    /* \"#utility.yul\":566:567   */\n  0x00\n    /* \"#utility.yul\":563:564   */\n  dup1\n    /* \"#utility.yul\":556:568   */\n  revert\n    /* \"#utility.yul\":580:682   */\ntag_48:\n    /* \"#utility.yul\":621:627   */\n  0x00\n    /* \"#utility.yul\":672:674   */\n  0x1f\n    /* \"#utility.yul\":668:675   */\n  not\n    /* \"#utility.yul\":663:665   */\n  0x1f\n    /* \"#utility.yul\":656:661   */\n  dup4\n    /* \"#utility.yul\":652:666   */\n  add\n    /* \"#utility.yul\":648:676   */\n  and\n    /* \"#utility.yul\":638:676   */\n  swap1\n  pop\n    /* \"#utility.yul\":580:682   */\n  swap2\n  swap1\n  pop\n  jump\t// out\n    /* \"#utility.yul\":688:868   */\ntag_49:\n    /* \"#utility.yul\":736:813   */\n  0x4e487b7100000000000000000000000000000000000000000000000000000000\n    /* \"#utility.yul\":733:734   */\n  0x00\n    /* \"#utility.yul\":726:814   */\n  mstore\n    /* \"#utility.yul\":833:837   */\n  0x41\n    /* \"#utility.yul\":830:831   */\n  0x04\n    /* \"#utility.yul\":823:838   */\n  mstore\n    /* \"#utility.yul\":857:861   */\n  0x24\n    /* \"#utility.yul\":854:855   */\n  0x00\n    /* \"#utility.yul\":847:862   */\n  revert\n    /* \"#utility.yul\":874:1155   */\ntag_50:\n    /* \"#utility.yul\":957:984   */\n  tag_99\n    /* \"#utility.yul\":979:983   */\n  dup3\n    /* \"#utility.yul\":957:984   */\n  tag_48\n  jump\t// in\ntag_99:\n    /* \"#utility.yul\":949:955   */\n  dup2\n    /* \"#utility.yul\":945:985   */\n  add\n    /* \"#utility.yul\":1087:1093   */\n  dup2\n    /* \"#utility.yul\":1075:1085   */\n  dup2\n    /* \"#utility.yul\":1072:1094   */\n  lt\n    /* \"#utility.yul\":1051:1069   */\n  0xffffffffffffffff\n    /* \"#utility.yul\":1039:1049   */\n  dup3\n    /* \"#utility.yul\":1036:1070   */\n  gt\n    /* \"#utility.yul\":1033:1095   */\n  or\n    /* \"#utility.yul\":1030:1118   */\n  iszero\n  tag_100\n  jumpi\n    /* \"#utility.yul\":1098:1116   */\n  tag_101\n  tag_49\n  jump\t// in\ntag_101:\n    /* \"#utility.yul\":1030:1118   */\ntag_100:\n    /* \"#utility.yul\":1138:1148   */\n  dup1\n    /* \"#utility.yul\":1134:1136   */\n  0x40\n    /* \"#utility.yul\":1127:1149   */\n  mstore\n    /* \"#utility.yul\":917:1155   */\n  pop\n    /* \"#utility.yul\":874:1155   */\n  pop\n  pop\n  jump\t// out\n    /* \"#utility.yul\":1161:1290   */\ntag_51:\n    /* \"#utility.yul\":1195:1201   */\n  0x00\n    /* \"#utility.yul\":1222:1242   */\n  tag_103\n  tag_43\n  jump\t// in\ntag_103:\n    /* \"#utility.yul\":1212:1242   */\n  swap1\n  pop\n    /* \"#utility.yul\":1251:1284   */\n  tag_104\n    /* \"#utility.yul\":1279:1283   */\n  dup3\n    /* \"#utility.yul\":1271:1277   */\n  dup3\n    /* \"#utility.yul\":1251:1284   */\n  tag_50\n  jump\t// in\ntag_104:\n    /* \"#utility.yul\":1161:1290   */\n  swap2\n  swap1\n  pop\n  jump\t// out\n    /* \"#utility.yul\":1296:1604   */\ntag_52:\n    /* \"#utility.yul\":1358:1362   */\n  0x00\n    /* \"#utility.yul\":1448:1466   */\n  0xffffffffffffffff\n    /* \"#utility.yul\":1440:1446   */\n  dup3\n    /* \"#utility.yul\":1437:1467   */\n  gt\n    /* \"#utility.yul\":1434:1490   */\n  iszero\n  tag_106\n  jumpi\n    /* \"#utility.yul\":1470:1488   */\n  tag_107\n  tag_49\n  jump\t// in\ntag_107:\n    /* \"#utility.yul\":1434:1490   */\ntag_106:\n    /* \"#utility.yul\":1508:1537   */\n  tag_108\n    /* \"#utility.yul\":1530:1536   */\n  dup3\n    /* \"#utility.yul\":1508:1537   */\n  tag_48\n  jump\t// in\ntag_108:\n    /* \"#utility.yul\":1500:1537   */\n  swap1\n  pop\n    /* \"#utility.yul\":1592:1596   */\n  0x20\n    /* \"#utility.yul\":1586:1590   */\n  dup2\n    /* \"#utility.yul\":1582:1597   */\n  add\n    /* \"#utility.yul\":1574:1597   */\n  swap1\n  pop\n    /* \"#utility.yul\":1296:1604   */\n  swap2\n  swap1\n  pop\n  jump\t// out\n    /* \"#utility.yul\":1610:1749   */\ntag_53:\n    /* \"#utility.yul\":1699:1705   */\n  dup3\n    /* \"#utility.yul\":1694:1697   */\n  dup2\n    /* \"#utility.yul\":1689:1692   */\n  dup4\n    /* \"#utility.yul\":1683:1706   */\n  mcopy\n    /* \"#utility.yul\":1740:1741   */\n  0x00\n    /* \"#utility.yul\":1731:1737   */\n  dup4\n    /* \"#utility.yul\":1726:1729   */\n  dup4\n    /* \"#utility.yul\":1722:1738   */\n  add\n    /* \"#utility.yul\":1715:1742   */\n  mstore\n    /* \"#utility.yul\":1610:1749   */\n  pop\n  pop\n  pop\n  jump\t// out\n    /* \"#utility.yul\":1755:2189   */\ntag_54:\n    /* \"#utility.yul\":1844:1849   */\n  0x00\n    /* \"#utility.yul\":1869:1935   */\n  tag_111\n    /* \"#utility.yul\":1885:1934   */\n  tag_112\n    /* \"#utility.yul\":1927:1933   */\n  dup5\n    /* \"#utility.yul\":1885:1934   */\n  tag_52\n  jump\t// in\ntag_112:\n    /* \"#utility.yul\":1869:1935   */\n  tag_51\n  jump\t// in\ntag_111:\n    /* \"#utility.yul\":1860:1935   */\n  swap1\n  pop\n    /* \"#utility.yul\":1958:1964   */\n  dup3\n    /* \"#utility.yul\":1951:1956   */\n  dup2\n    /* \"#utility.yul\":1944:1965   */\n  mstore\n    /* \"#utility.yul\":1996:2000   */\n  0x20\n    /* \"#utility.yul\":1989:1994   */\n  dup2\n    /* \"#utility.yul\":1985:2001   */\n  add\n    /* \"#utility.yul\":2034:2037   */\n  dup5\n    /* \"#utility.yul\":2025:2031   */\n  dup5\n    /* \"#utility.yul\":2020:2023   */\n  dup5\n    /* \"#utility.yul\":2016:2032   */\n  add\n    /* \"#utility.yul\":2013:2038   */\n  gt\n    /* \"#utility.yul\":2010:2122   */\n  iszero\n  tag_113\n  jumpi\n    /* \"#utility.yul\":2041:2120   */\n  tag_114\n  tag_47\n  jump\t// in\ntag_114:\n    /* \"#utility.yul\":2010:2122   */\ntag_113:\n    /* \"#utility.yul\":2131:2183   */\n  tag_115\n    /* \"#utility.yul\":2176:2182   */\n  dup5\n    /* \"#utility.yul\":2171:2174   */\n  dup3\n    /* \"#utility.yul\":2166:2169   */\n  dup6\n    /* \"#utility.yul\":2131:2183   */\n  tag_53\n  jump\t// in\ntag_115:\n    /* \"#utility.yul\":1850:2189   */\n  pop\n    /* \"#utility.yul\":1755:2189   */\n  swap4\n  swap3\n  pop\n  pop\n  pop\n  jump\t// out\n    /* \"#utility.yul\":2209:2564   */\ntag_55:\n    /* \"#utility.yul\":2276:2281   */\n  0x00\n    /* \"#utility.yul\":2325:2328   */\n  dup3\n    /* \"#utility.yul\":2318:2322   */\n  0x1f\n    /* \"#utility.yul\":2310:2316   */\n  dup4\n    /* \"#utility.yul\":2306:2323   */\n  add\n    /* \"#utility.yul\":2302:2329   */\n  slt\n    /* \"#utility.yul\":2292:2414   */\n  tag_117\n  jumpi\n    /* \"#utility.yul\":2333:2412   */\n  tag_118\n  tag_46\n  jump\t// in\ntag_118:\n    /* \"#utility.yul\":2292:2414   */\ntag_117:\n    /* \"#utility.yul\":2443:2449   */\n  dup2\n    /* \"#utility.yul\":2437:2450   */\n  mload\n    /* \"#utility.yul\":2468:2558   */\n  tag_119\n    /* \"#utility.yul\":2554:2557   */\n  dup5\n    /* \"#utility.yul\":2546:2552   */\n  dup3\n    /* \"#utility.yul\":2539:2543   */\n  0x20\n    /* \"#utility.yul\":2531:2537   */\n  dup7\n    /* \"#utility.yul\":2527:2544   */\n  add\n    /* \"#utility.yul\":2468:2558   */\n  tag_54\n  jump\t// in\ntag_119:\n    /* \"#utility.yul\":2459:2558   */\n  swap2\n  pop\n    /* \"#utility.yul\":2282:2564   */\n  pop\n    /* \"#utility.yul\":2209:2564   */\n  swap3\n  swap2\n  pop\n  pop\n  jump\t// out\n    /* \"#utility.yul\":2570:2647   */\ntag_56:\n    /* \"#utility.yul\":2607:2614   */\n  0x00\n    /* \"#utility.yul\":2636:2641   */\n  dup2\n    /* \"#utility.yul\":2625:2641   */\n  swap1\n  pop\n    /* \"#utility.yul\":2570:2647   */\n  swap2\n  swap1\n  pop\n  jump\t// out\n    /* \"#utility.yul\":2653:2775   */\ntag_57:\n    /* \"#utility.yul\":2726:2750   */\n  tag_122\n    /* \"#utility.yul\":2744:2749   */\n  dup2\n    /* \"#utility.yul\":2726:2750   */\n  tag_56\n  jump\t// in\ntag_122:\n    /* \"#utility.yul\":2719:2724   */\n  dup2\n    /* \"#utility.yul\":2716:2751   */\n  eq\n    /* \"#utility.yul\":2706:2769   */\n  tag_123\n  jumpi\n    /* \"#utility.yul\":2765:2766   */\n  0x00\n    /* \"#utility.yul\":2762:2763   */\n  dup1\n    /* \"#utility.yul\":2755:2767   */\n  revert\n    /* \"#utility.yul\":2706:2769   */\ntag_123:\n    /* \"#utility.yul\":2653:2775   */\n  pop\n  jump\t// out\n    /* \"#utility.yul\":2781:2924   */\ntag_58:\n    /* \"#utility.yul\":2838:2843   */\n  0x00\n    /* \"#utility.yul\":2869:2875   */\n  dup2\n    /* \"#utility.yul\":2863:2876   */\n  mload\n    /* \"#utility.yul\":2854:2876   */\n  swap1\n  pop\n    /* \"#utility.yul\":2885:2918   */\n  tag_125\n    /* \"#utility.yul\":2912:2917   */\n  dup2\n    /* \"#utility.yul\":2885:2918   */\n  tag_57\n  jump\t// in\ntag_125:\n    /* \"#utility.yul\":2781:2924   */\n  swap3\n  swap2\n  pop\n  pop\n  jump\t// out\n    /* \"#utility.yul\":2930:3016   */\ntag_59:\n    /* \"#utility.yul\":2965:2972   */\n  0x00\n    /* \"#utility.yul\":3005:3009   */\n  0xff\n    /* \"#utility.yul\":2998:3003   */\n  dup3\n    /* \"#utility.yul\":2994:3010   */\n  and\n    /* \"#utility.yul\":2983:3010   */\n  swap1\n  pop\n    /* \"#utility.yul\":2930:3016   */\n  swap2\n  swap1\n  pop\n  jump\t// out\n    /* \"#utility.yul\":3022:3140   */\ntag_60:\n    /* \"#utility.yul\":3093:3115   */\n  tag_128\n    /* \"#utility.yul\":3109:3114   */\n  dup2\n    /* \"#utility.yul\":3093:3115   */\n  tag_59\n  jump\t// in\ntag_128:\n    /* \"#utility.yul\":3086:3091   */\n  dup2\n    /* \"#utility.yul\":3083:3116   */\n  eq\n    /* \"#utility.yul\":3073:3134   */\n  tag_129\n  jumpi\n    /* \"#utility.yul\":3130:3131   */\n  0x00\n    /* \"#utility.yul\":3127:3128   */\n  dup1\n    /* \"#utility.yul\":3120:3132   */\n  revert\n    /* \"#utility.yul\":3073:3134   */\ntag_129:\n    /* \"#utility.yul\":3022:3140   */\n  pop\n  jump\t// out\n    /* \"#utility.yul\":3146:3285   */\ntag_61:\n    /* \"#utility.yul\":3201:3206   */\n  0x00\n    /* \"#utility.yul\":3232:3238   */\n  dup2\n    /* \"#utility.yul\":3226:3239   */\n  mload\n    /* \"#utility.yul\":3217:3239   */\n  swap1\n  pop\n    /* \"#utility.yul\":3248:3279   */\n  tag_131\n    /* \"#utility.yul\":3273:3278   */\n  dup2\n    /* \"#utility.yul\":3248:3279   */\n  tag_60\n  jump\t// in\ntag_131:\n    /* \"#utility.yul\":3146:3285   */\n  swap3\n  swap2\n  pop\n  pop\n  jump\t// out\n    /* \"#utility.yul\":3291:3417   */\ntag_62:\n    /* \"#utility.yul\":3328:3335   */\n  0x00\n    /* \"#utility.yul\":3368:3410   */\n  0xffffffffffffffffffffffffffffffffffffffff\n    /* \"#utility.yul\":3361:3366   */\n  dup3\n    /* \"#utility.yul\":3357:3411   */\n  and\n    /* \"#utility.yul\":3346:3411   */\n  swap1\n  pop\n    /* \"#utility.yul\":3291:3417   */\n  swap2\n  swap1\n  pop\n  jump\t// out\n    /* \"#utility.yul\":3423:3519   */\ntag_63:\n    /* \"#utility.yul\":3460:3467   */\n  0x00\n    /* \"#utility.yul\":3489:3513   */\n  tag_134\n    /* \"#utility.yul\":3507:3512   */\n  dup3\n    /* \"#utility.yul\":3489:3513   */\n  tag_62\n  jump\t// in\ntag_134:\n    /* \"#utility.yul\":3478:3513   */\n  swap1\n  pop\n    /* \"#utility.yul\":3423:3519   */\n  swap2\n  swap1\n  pop\n  jump\t// out\n    /* \"#utility.yul\":3525:3647   */\ntag_64:\n    /* \"#utility.yul\":3598:3622   */\n  tag_136\n    /* \"#utility.yul\":3616:3621   */\n  dup2\n    /* \"#utility.yul\":3598:3622   */\n  tag_63\n  jump\t// in\ntag_136:\n    /* \"#utility.yul\":3591:3596   */\n  dup2\n    /* \"#utility.yul\":3588:3623   */\n  eq\n    /* \"#utility.yul\":3578:3641   */\n  tag_137\n  jumpi\n    /* \"#utility.yul\":3637:3638   */\n  0x00\n    /* \"#utility.yul\":3634:3635   */\n  dup1\n    /* \"#utility.yul\":3627:3639   */\n  revert\n    /* \"#utility.yul\":3578:3641   */\ntag_137:\n    /* \"#utility.yul\":3525:3647   */\n  pop\n  jump\t// out\n    /* \"#utility.yul\":3653:3796   */\ntag_65:\n    /* \"#utility.yul\":3710:3715   */\n  0x00\n    /* \"#utility.yul\":3741:3747   */\n  dup2\n    /* \"#utility.yul\":3735:3748   */\n  mload\n    /* \"#utility.yul\":3726:3748   */\n  swap1\n  pop\n    /* \"#utility.yul\":3757:3790   */\n  tag_139\n    /* \"#utility.yul\":3784:3789   */\n  dup2\n    /* \"#utility.yul\":3757:3790   */\n  tag_64\n  jump\t// in\ntag_139:\n    /* \"#utility.yul\":3653:3796   */\n  swap3\n  swap2\n  pop\n  pop\n  jump\t// out\n    /* \"#utility.yul\":3802:5278   */\ntag_3:\n    /* \"#utility.yul\":3935:3941   */\n  0x00\n    /* \"#utility.yul\":3943:3949   */\n  dup1\n    /* \"#utility.yul\":3951:3957   */\n  0x00\n    /* \"#utility.yul\":3959:3965   */\n  dup1\n    /* \"#utility.yul\":3967:3973   */\n  0x00\n    /* \"#utility.yul\":3975:3981   */\n  dup1\n    /* \"#utility.yul\":4024:4027   */\n  0xc0\n    /* \"#utility.yul\":4012:4021   */\n  dup8\n    /* \"#utility.yul\":4003:4010   */\n  dup10\n    /* \"#utility.yul\":3999:4022   */\n  sub\n    /* \"#utility.yul\":3995:4028   */\n  slt\n    /* \"#utility.yul\":3992:4112   */\n  iszero\n  tag_141\n  jumpi\n    /* \"#utility.yul\":4031:4110   */\n  tag_142\n  tag_44\n  jump\t// in\ntag_142:\n    /* \"#utility.yul\":3992:4112   */\ntag_141:\n    /* \"#utility.yul\":4172:4173   */\n  0x00\n    /* \"#utility.yul\":4161:4170   */\n  dup8\n    /* \"#utility.yul\":4157:4174   */\n  add\n    /* \"#utility.yul\":4151:4175   */\n  mload\n    /* \"#utility.yul\":4202:4220   */\n  0xffffffffffffffff\n    /* \"#utility.yul\":4194:4200   */\n  dup2\n    /* \"#utility.yul\":4191:4221   */\n  gt\n    /* \"#utility.yul\":4188:4305   */\n  iszero\n  tag_143\n  jumpi\n    /* \"#utility.yul\":4224:4303   */\n  tag_144\n  tag_45\n  jump\t// in\ntag_144:\n    /* \"#utility.yul\":4188:4305   */\ntag_143:\n    /* \"#utility.yul\":4329:4403   */\n  tag_145\n    /* \"#utility.yul\":4395:4402   */\n  dup10\n    /* \"#utility.yul\":4386:4392   */\n  dup3\n    /* \"#utility.yul\":4375:4384   */\n  dup11\n    /* \"#utility.yul\":4371:4393   */\n  add\n    /* \"#utility.yul\":4329:4403   */\n  tag_55\n  jump\t// in\ntag_145:\n    /* \"#utility.yul\":4319:4403   */\n  swap7\n  pop\n    /* \"#utility.yul\":4122:4413   */\n  pop\n    /* \"#utility.yul\":4473:4475   */\n  0x20\n    /* \"#utility.yul\":4462:4471   */\n  dup8\n    /* \"#utility.yul\":4458:4476   */\n  add\n    /* \"#utility.yul\":4452:4477   */\n  mload\n    /* \"#utility.yul\":4504:4522   */\n  0xffffffffffffffff\n    /* \"#utility.yul\":4496:4502   */\n  dup2\n    /* \"#utility.yul\":4493:4523   */\n  gt\n    /* \"#utility.yul\":4490:4607   */\n  iszero\n  tag_146\n  jumpi\n    /* \"#utility.yul\":4526:4605   */\n  tag_147\n  tag_45\n  jump\t// in\ntag_147:\n    /* \"#utility.yul\":4490:4607   */\ntag_146:\n    /* \"#utility.yul\":4631:4705   */\n  tag_148\n    /* \"#utility.yul\":4697:4704   */\n  dup10\n    /* \"#utility.yul\":4688:4694   */\n  dup3\n    /* \"#utility.yul\":4677:4686   */\n  dup11\n    /* \"#utility.yul\":4673:4695   */\n  add\n    /* \"#utility.yul\":4631:4705   */\n  tag_55\n  jump\t// in\ntag_148:\n    /* \"#utility.yul\":4621:4705   */\n  swap6\n  pop\n    /* \"#utility.yul\":4423:4715   */\n  pop\n    /* \"#utility.yul\":4754:4756   */\n  0x40\n    /* \"#utility.yul\":4780:4844   */\n  tag_149\n    /* \"#utility.yul\":4836:4843   */\n  dup10\n    /* \"#utility.yul\":4827:4833   */\n  dup3\n    /* \"#utility.yul\":4816:4825   */\n  dup11\n    /* \"#utility.yul\":4812:4834   */\n  add\n    /* \"#utility.yul\":4780:4844   */\n  tag_58\n  jump\t// in\ntag_149:\n    /* \"#utility.yul\":4770:4844   */\n  swap5\n  pop\n    /* \"#utility.yul\":4725:4854   */\n  pop\n    /* \"#utility.yul\":4893:4895   */\n  0x60\n    /* \"#utility.yul\":4919:4981   */\n  tag_150\n    /* \"#utility.yul\":4973:4980   */\n  dup10\n    /* \"#utility.yul\":4964:4970   */\n  dup3\n    /* \"#utility.yul\":4953:4962   */\n  dup11\n    /* \"#utility.yul\":4949:4971   */\n  add\n    /* \"#utility.yul\":4919:4981   */\n  tag_61\n  jump\t// in\ntag_150:\n    /* \"#utility.yul\":4909:4981   */\n  swap4\n  pop\n    /* \"#utility.yul\":4864:4991   */\n  pop\n    /* \"#utility.yul\":5030:5033   */\n  0x80\n    /* \"#utility.yul\":5057:5121   */\n  tag_151\n    /* \"#utility.yul\":5113:5120   */\n  dup10\n    /* \"#utility.yul\":5104:5110   */\n  dup3\n    /* \"#utility.yul\":5093:5102   */\n  dup11\n    /* \"#utility.yul\":5089:5111   */\n  add\n    /* \"#utility.yul\":5057:5121   */\n  tag_58\n  jump\t// in\ntag_151:\n    /* \"#utility.yul\":5047:5121   */\n  swap3\n  pop\n    /* \"#utility.yul\":5001:5131   */\n  pop\n    /* \"#utility.yul\":5170:5173   */\n  0xa0\n    /* \"#utility.yul\":5197:5261   */\n  tag_152\n    /* \"#utility.yul\":5253:5260   */\n  dup10\n    /* \"#utility.yul\":5244:5250   */\n  dup3\n    /* \"#utility.yul\":5233:5242   */\n  dup11\n    /* \"#utility.yul\":5229:5251   */\n  add\n    /* \"#utility.yul\":5197:5261   */\n  tag_65\n  jump\t// in\ntag_152:\n    /* \"#utility.yul\":5187:5261   */\n  swap2\n  pop\n    /* \"#utility.yul\":5141:5271   */\n  pop\n    /* \"#utility.yul\":3802:5278   */\n  swap3\n  swap6\n  pop\n  swap3\n  swap6\n  pop\n  swap3\n  swap6\n  jump\t// out\n    /* \"#utility.yul\":5284:5383   */\ntag_66:\n    /* \"#utility.yul\":5336:5342   */\n  0x00\n    /* \"#utility.yul\":5370:5375   */\n  dup2\n    /* \"#utility.yul\":5364:5376   */\n  mload\n    /* \"#utility.yul\":5354:5376   */\n  swap1\n  pop\n    /* \"#utility.yul\":5284:5383   */\n  swap2\n  swap1\n  pop\n  jump\t// out\n    /* \"#utility.yul\":5389:5569   */\ntag_67:\n    /* \"#utility.yul\":5437:5514   */\n  0x4e487b7100000000000000000000000000000000000000000000000000000000\n    /* \"#utility.yul\":5434:5435   */\n  0x00\n    /* \"#utility.yul\":5427:5515   */\n  mstore\n    /* \"#utility.yul\":5534:5538   */\n  0x22\n    /* \"#utility.yul\":5531:5532   */\n  0x04\n    /* \"#utility.yul\":5524:5539   */\n  mstore\n    /* \"#utility.yul\":5558:5562   */\n  0x24\n    /* \"#utility.yul\":5555:5556   */\n  0x00\n    /* \"#utility.yul\":5548:5563   */\n  revert\n    /* \"#utility.yul\":5575:5895   */\ntag_68:\n    /* \"#utility.yul\":5619:5625   */\n  0x00\n    /* \"#utility.yul\":5656:5657   */\n  0x02\n    /* \"#utility.yul\":5650:5654   */\n  dup3\n    /* \"#utility.yul\":5646:5658   */\n  div\n    /* \"#utility.yul\":5636:5658   */\n  swap1\n  pop\n    /* \"#utility.yul\":5703:5704   */\n  0x01\n    /* \"#utility.yul\":5697:5701   */\n  dup3\n    /* \"#utility.yul\":5693:5705   */\n  and\n    /* \"#utility.yul\":5724:5742   */\n  dup1\n    /* \"#utility.yul\":5714:5795   */\n  tag_156\n  jumpi\n    /* \"#utility.yul\":5780:5784   */\n  0x7f\n    /* \"#utility.yul\":5772:5778   */\n  dup3\n    /* \"#utility.yul\":5768:5785   */\n  and\n    /* \"#utility.yul\":5758:5785   */\n  swap2\n  pop\n    /* \"#utility.yul\":5714:5795   */\ntag_156:\n    /* \"#utility.yul\":5842:5844   */\n  0x20\n    /* \"#utility.yul\":5834:5840   */\n  dup3\n    /* \"#utility.yul\":5831:5845   */\n  lt\n    /* \"#utility.yul\":5811:5829   */\n  dup2\n    /* \"#utility.yul\":5808:5846   */\n  sub\n    /* \"#utility.yul\":5805:5889   */\n  tag_157\n  jumpi\n    /* \"#utility.yul\":5861:5879   */\n  tag_158\n  tag_67\n  jump\t// in\ntag_158:\n    /* \"#utility.yul\":5805:5889   */\ntag_157:\n    /* \"#utility.yul\":5626:5895   */\n  pop\n    /* \"#utility.yul\":5575:5895   */\n  swap2\n  swap1\n  pop\n  jump\t// out\n    /* \"#utility.yul\":5901:6042   */\ntag_69:\n    /* \"#utility.yul\":5950:5954   */\n  0x00\n    /* \"#utility.yul\":5973:5976   */\n  dup2\n    /* \"#utility.yul\":5965:5976   */\n  swap1\n  pop\n    /* \"#utility.yul\":5996:5999   */\n  dup2\n    /* \"#utility.yul\":5993:5994   */\n  0x00\n    /* \"#utility.yul\":5986:6000   */\n  mstore\n    /* \"#utility.yul\":6030:6034   */\n  0x20\n    /* \"#utility.yul\":6027:6028   */\n  0x00\n    /* \"#utility.yul\":6017:6035   */\n  keccak256\n    /* \"#utility.yul\":6009:6035   */\n  swap1\n  pop\n    /* \"#utility.yul\":5901:6042   */\n  swap2\n  swap1\n  pop\n  jump\t// out\n    /* \"#utility.yul\":6048:6141   */\ntag_70:\n    /* \"#utility.yul\":6085:6091   */\n  0x00\n    /* \"#utility.yul\":6132:6134   */\n  0x20\n    /* \"#utility.yul\":6127:6129   */\n  0x1f\n    /* \"#utility.yul\":6120:6125   */\n  dup4\n    /* \"#utility.yul\":6116:6130   */\n  add\n    /* \"#utility.yul\":6112:6135   */\n  div\n    /* \"#utility.yul\":6102:6135   */\n  swap1\n  pop\n    /* \"#utility.yul\":6048:6141   */\n  swap2\n  swap1\n  pop\n  jump\t// out\n    /* \"#utility.yul\":6147:6254   */\ntag_71:\n    /* \"#utility.yul\":6191:6199   */\n  0x00\n    /* \"#utility.yul\":6241:6246   */\n  dup3\n    /* \"#utility.yul\":6235:6239   */\n  dup3\n    /* \"#utility.yul\":6231:6247   */\n  shl\n    /* \"#utility.yul\":6210:6247   */\n  swap1\n  pop\n    /* \"#utility.yul\":6147:6254   */\n  swap3\n  swap2\n  pop\n  pop\n  jump\t// out\n    /* \"#utility.yul\":6260:6653   */\ntag_72:\n    /* \"#utility.yul\":6329:6335   */\n  0x00\n    /* \"#utility.yul\":6379:6380   */\n  0x08\n    /* \"#utility.yul\":6367:6377   */\n  dup4\n    /* \"#utility.yul\":6363:6381   */\n  mul\n    /* \"#utility.yul\":6402:6499   */\n  tag_163\n    /* \"#utility.yul\":6432:6498   */\n  0xffffffffffffffffffffffffffffffffffffffffffffffffffffffffffffffff\n    /* \"#utility.yul\":6421:6430   */\n  dup3\n    /* \"#utility.yul\":6402:6499   */\n  tag_71\n  jump\t// in\ntag_163:\n    /* \"#utility.yul\":6520:6559   */\n  tag_164\n    /* \"#utility.yul\":6550:6558   */\n  dup7\n    /* \"#utility.yul\":6539:6548   */\n  dup4\n    /* \"#utility.yul\":6520:6559   */\n  tag_71\n  jump\t// in\ntag_164:\n    /* \"#utility.yul\":6508:6559   */\n  swap6\n  pop\n    /* \"#utility.yul\":6592:6596   */\n  dup1\n    /* \"#utility.yul\":6588:6597   */\n  not\n    /* \"#utility.yul\":6581:6586   */\n  dup5\n    /* \"#utility.yul\":6577:6598   */\n  and\n    /* \"#utility.yul\":6568:6598   */\n  swap4\n  pop\n    /* \"#utility.yul\":6641:6645   */\n  dup1\n    /* \"#utility.yul\":6631:6639   */\n  dup7\n    /* \"#utility.yul\":6627:6646   */\n  and\n    /* \"#utility.yul\":6620:6625   */\n  dup5\n    /* \"#utility.yul\":6617:6647   */\n  or\n    /* \"#utility.yul\":6607:6647   */\n  swap3\n  pop\n    /* \"#utility.yul\":6336:6653   */\n  pop\n  pop\n    /* \"#utility.yul\":6260:6653   */\n  swap4\n  swap3\n  pop\n  pop\n  pop\n  jump\t// out\n    /* \"#utility.yul\":6659:6719   */\ntag_73:\n    /* \"#utility.yul\":6687:6690   */\n  0x00\n    /* \"#utility.yul\":6708:6713   */\n  dup2\n    /* \"#utility.yul\":6701:6713   */\n  swap1\n  pop\n    /* \"#utility.yul\":6659:6719   */\n  swap2\n  swap1\n  pop\n  jump\t// out\n    /* \"#utility.yul\":6725:6867   */\ntag_74:\n    /* \"#utility.yul\":6775:6784   */\n  0x00\n    /* \"#utility.yul\":6808:6861   */\n  tag_167\n    /* \"#utility.yul\":6826:6860   */\n  tag_168\n    /* \"#utility.yul\":6835:6859   */\n  tag_169\n    /* \"#utility.yul\":6853:6858   */\n  dup5\n    /* \"#utility.yul\":6835:6859   */\n  tag_56\n  jump\t// in\ntag_169:\n    /* \"#utility.yul\":6826:6860   */\n  tag_73\n  jump\t// in\ntag_168:\n    /* \"#utility.yul\":6808:6861   */\n  tag_56\n  jump\t// in\ntag_167:\n    /* \"#utility.yul\":6795:6861   */\n  swap1\n  pop\n    /* \"#utility.yul\":6725:6867   */\n  swap2\n  swap1\n  pop\n  jump\t// out\n    /* \"#utility.yul\":6873:6948   */\ntag_75:\n    /* \"#utility.yul\":6916:6919   */\n  0x00\n    /* \"#utility.yul\":6937:6942   */\n  dup2\n    /* \"#utility.yul\":6930:6942   */\n  swap1\n  pop\n    /* \"#utility.yul\":6873:6948   */\n  swap2\n  swap1\n  pop\n  jump\t// out\n    /* \"#utility.yul\":6954:7223   */\ntag_76:\n    /* \"#utility.yul\":7064:7103   */\n  tag_172\n    /* \"#utility.yul\":7095:7102   */\n  dup4\n    /* \"#utility.yul\":7064:7103   */\n  tag_74\n  jump\t// in\ntag_172:\n    /* \"#utility.yul\":7125:7216   */\n  tag_173\n    /* \"#utility.yul\":7174:7215   */\n  tag_174\n    /* \"#utility.yul\":7198:7214   */\n  dup3\n    /* \"#utility.yul\":7174:7215   */\n  tag_75\n  jump\t// in\ntag_174:\n    /* \"#utility.yul\":7166:7172   */\n  dup5\n    /* \"#utility.yul\":7159:7163   */\n  dup5\n    /* \"#utility.yul\":7153:7164   */\n  sload\n    /* \"#utility.yul\":7125:7216   */\n  tag_72\n  jump\t// in\ntag_173:\n    /* \"#utility.yul\":7119:7123   */\n  dup3\n    /* \"#utility.yul\":7112:7217   */\n  sstore\n    /* \"#utility.yul\":7030:7223   */\n  pop\n    /* \"#utility.yul\":6954:7223   */\n  pop\n  pop\n  pop\n  jump\t// out\n    /* \"#utility.yul\":7229:7302   */\ntag_77:\n    /* \"#utility.yul\":7274:7277   */\n  0x00\n    /* \"#utility.yul\":7229:7302   */\n  swap1\n  jump\t// out\n    /* \"#utility.yul\":7308:7497   */\ntag_78:\n    /* \"#utility.yul\":7385:7417   */\n  tag_177\n  tag_77\n  jump\t// in\ntag_177:\n    /* \"#utility.yul\":7426:7491   */\n  tag_178\n    /* \"#utility.yul\":7484:7490   */\n  dup2\n    /* \"#utility.yul\":7476:7482   */\n  dup5\n    /* \"#utility.yul\":7470:7474   */\n  dup5\n    /* \"#utility.yul\":7426:7491   */\n  tag_76\n  jump\t// in\ntag_178:\n    /* \"#utility.yul\":7361:7497   */\n  pop\n    /* \"#utility.yul\":7308:7497   */\n  pop\n  pop\n  jump\t// out\n    /* \"#utility.yul\":7503:7689   */\ntag_79:\n    /* \"#utility.yul\":7563:7683   */\ntag_180:\n    /* \"#utility.yul\":7580:7583   */\n  dup2\n    /* \"#utility.yul\":7573:7578   */\n  dup2\n    /* \"#utility.yul\":7570:7584   */\n  lt\n    /* \"#utility.yul\":7563:7683   */\n  iszero\n  tag_182\n  jumpi\n    /* \"#utility.yul\":7634:7673   */\n  tag_183\n    /* \"#utility.yul\":7671:7672   */\n  0x00\n    /* \"#utility.yul\":7664:7669   */\n  dup3\n    /* \"#utility.yul\":7634:7673   */\n  tag_78\n  jump\t// in\ntag_183:\n    /* \"#utility.yul\":7607:7608   */\n  0x01\n    /* \"#utility.yul\":7600:7605   */\n  dup2\n    /* \"#utility.yul\":7596:7609   */\n  add\n    /* \"#utility.yul\":7587:7609   */\n  swap1\n  pop\n    /* \"#utility.yul\":7563:7683   */\n  jump(tag_180)\ntag_182:\n    /* \"#utility.yul\":7503:7689   */\n  pop\n  pop\n  jump\t// out\n    /* \"#utility.yul\":7695:8238   */\ntag_80:\n    /* \"#utility.yul\":7796:7798   */\n  0x1f\n    /* \"#utility.yul\":7791:7794   */\n  dup3\n    /* \"#utility.yul\":7788:7799   */\n  gt\n    /* \"#utility.yul\":7785:8231   */\n  iszero\n  tag_185\n  jumpi\n    /* \"#utility.yul\":7830:7868   */\n  tag_186\n    /* \"#utility.yul\":7862:7867   */\n  dup2\n    /* \"#utility.yul\":7830:7868   */\n  tag_69\n  jump\t// in\ntag_186:\n    /* \"#utility.yul\":7914:7943   */\n  tag_187\n    /* \"#utility.yul\":7932:7942   */\n  dup5\n    /* \"#utility.yul\":7914:7943   */\n  tag_70\n  jump\t// in\ntag_187:\n    /* \"#utility.yul\":7904:7912   */\n  dup2\n    /* \"#utility.yul\":7900:7944   */\n  add\n    /* \"#utility.yul\":8097:8099   */\n  0x20\n    /* \"#utility.yul\":8085:8095   */\n  dup6\n    /* \"#utility.yul\":8082:8100   */\n  lt\n    /* \"#utility.yul\":8079:8128   */\n  iszero\n  tag_188\n  jumpi\n    /* \"#utility.yul\":8118:8126   */\n  dup2\n    /* \"#utility.yul\":8103:8126   */\n  swap1\n  pop\n    /* \"#utility.yul\":8079:8128   */\ntag_188:\n    /* \"#utility.yul\":8141:8221   */\n  tag_189\n    /* \"#utility.yul\":8197:8219   */\n  tag_190\n    /* \"#utility.yul\":8215:8218   */\n  dup6\n    /* \"#utility.yul\":8197:8219   */\n  tag_70\n  jump\t// in\ntag_190:\n    /* \"#utility.yul\":8187:8195   */\n  dup4\n    /* \"#utility.yul\":8183:8220   */\n  add\n    /* \"#utility.yul\":8170:8181   */\n  dup3\n    /* \"#utility.yul\":8141:8221   */\n  tag_79\n  jump\t// in\ntag_189:\n    /* \"#utility.yul\":7800:8231   */\n  pop\n  pop\n    /* \"#utility.yul\":7785:8231   */\ntag_185:\n    /* \"#utility.yul\":7695:8238   */\n  pop\n  pop\n  pop\n  jump\t// out\n    /* \"#utility.yul\":8244:8361   */\ntag_81:\n    /* \"#utility.yul\":8298:8306   */\n  0x00\n    /* \"#utility.yul\":8348:8353   */\n  dup3\n    /* \"#utility.yul\":8342:8346   */\n  dup3\n    /* \"#utility.yul\":8338:8354   */\n  shr\n    /* \"#utility.yul\":8317:8354   */\n  swap1\n  pop\n    /* \"#utility.yul\":8244:8361   */\n  swap3\n  swap2\n  pop\n  pop\n  jump\t// out\n    /* \"#utility.yul\":8367:8536   */\ntag_82:\n    /* \"#utility.yul\":8411:8417   */\n  0x00\n    /* \"#utility.yul\":8444:8495   */\n  tag_193\n    /* \"#utility.yul\":8492:8493   */\n  0x00\n    /* \"#utility.yul\":8488:8494   */\n  not\n    /* \"#utility.yul\":8480:8485   */\n  dup5\n    /* \"#utility.yul\":8477:8478   */\n  0x08\n    /* \"#utility.yul\":8473:8486   */\n  mul\n    /* \"#utility.yul\":8444:8495   */\n  tag_81\n  jump\t// in\ntag_193:\n    /* \"#utility.yul\":8440:8496   */\n  not\n    /* \"#utility.yul\":8525:8529   */\n  dup1\n    /* \"#utility.yul\":8519:8523   */\n  dup4\n    /* \"#utility.yul\":8515:8530   */\n  and\n    /* \"#utility.yul\":8505:8530   */\n  swap2\n  pop\n    /* \"#utility.yul\":8418:8536   */\n  pop\n    /* \"#utility.yul\":8367:8536   */\n  swap3\n  swap2\n  pop\n  pop\n  jump\t// out\n    /* \"#utility.yul\":8541:8836   */\ntag_83:\n    /* \"#utility.yul\":8617:8621   */\n  0x00\n    /* \"#utility.yul\":8763:8792   */\n  tag_195\n    /* \"#utility.yul\":8788:8791   */\n  dup4\n    /* \"#utility.yul\":8782:8786   */\n  dup4\n    /* \"#utility.yul\":8763:8792   */\n  tag_82\n  jump\t// in\ntag_195:\n    /* \"#utility.yul\":8755:8792   */\n  swap2\n  pop\n    /* \"#utility.yul\":8825:8828   */\n  dup3\n    /* \"#utility.yul\":8822:8823   */\n  0x02\n    /* \"#utility.yul\":8818:8829   */\n  mul\n    /* \"#utility.yul\":8812:8816   */\n  dup3\n    /* \"#utility.yul\":8809:8830   */\n  or\n    /* \"#utility.yul\":8801:8830   */\n  swap1\n  pop\n    /* \"#utility.yul\":8541:8836   */\n  swap3\n  swap2\n  pop\n  pop\n  jump\t// out\n    /* \"#utility.yul\":8841:10236   */\ntag_9:\n    /* \"#utility.yul\":8958:8995   */\n  tag_197\n    /* \"#utility.yul\":8991:8994   */\n  dup3\n    /* \"#utility.yul\":8958:8995   */\n  tag_66\n  jump\t// in\ntag_197:\n    /* \"#utility.yul\":9060:9078   */\n  0xffffffffffffffff\n    /* \"#utility.yul\":9052:9058   */\n  dup2\n    /* \"#utility.yul\":9049:9079   */\n  gt\n    /* \"#utility.yul\":9046:9102   */\n  iszero\n  tag_198\n  jumpi\n    /* \"#utility.yul\":9082:9100   */\n  tag_199\n  tag_49\n  jump\t// in\ntag_199:\n    /* \"#utility.yul\":9046:9102   */\ntag_198:\n    /* \"#utility.yul\":9126:9164   */\n  tag_200\n    /* \"#utility.yul\":9158:9162   */\n  dup3\n    /* \"#utility.yul\":9152:9163   */\n  sload\n    /* \"#utility.yul\":9126:9164   */\n  tag_68\n  jump\t// in\ntag_200:\n    /* \"#utility.yul\":9211:9278   */\n  tag_201\n    /* \"#utility.yul\":9271:9277   */\n  dup3\n    /* \"#utility.yul\":9263:9269   */\n  dup3\n    /* \"#utility.yul\":9257:9261   */\n  dup6\n    /* \"#utility.yul\":9211:9278   */\n  tag_80\n  jump\t// in\ntag_201:\n    /* \"#utility.yul\":9305:9306   */\n  0x00\n    /* \"#utility.yul\":9329:9333   */\n  0x20\n    /* \"#utility.yul\":9316:9333   */\n  swap1\n  pop\n    /* \"#utility.yul\":9361:9363   */\n  0x1f\n    /* \"#utility.yul\":9353:9359   */\n  dup4\n    /* \"#utility.yul\":9350:9364   */\n  gt\n    /* \"#utility.yul\":9378:9379   */\n  0x01\n    /* \"#utility.yul\":9373:9991   */\n  dup2\n  eq\n  tag_203\n  jumpi\n    /* \"#utility.yul\":10035:10036   */\n  0x00\n    /* \"#utility.yul\":10052:10058   */\n  dup5\n    /* \"#utility.yul\":10049:10126   */\n  iszero\n  tag_204\n  jumpi\n    /* \"#utility.yul\":10101:10110   */\n  dup3\n    /* \"#utility.yul\":10096:10099   */\n  dup8\n    /* \"#utility.yul\":10092:10111   */\n  add\n    /* \"#utility.yul\":10086:10112   */\n  mload\n    /* \"#utility.yul\":10077:10112   */\n  swap1\n  pop\n    /* \"#utility.yul\":10049:10126   */\ntag_204:\n    /* \"#utility.yul\":10152:10219   */\n  tag_205\n    /* \"#utility.yul\":10212:10218   */\n  dup6\n    /* \"#utility.yul\":10205:10210   */\n  dup3\n    /* \"#utility.yul\":10152:10219   */\n  tag_83\n  jump\t// in\ntag_205:\n    /* \"#utility.yul\":10146:10150   */\n  dup7\n    /* \"#utility.yul\":10139:10220   */\n  sstore\n    /* \"#utility.yul\":10008:10230   */\n  pop\n    /* \"#utility.yul\":9343:10230   */\n  jump(tag_202)\n    /* \"#utility.yul\":9373:9991   */\ntag_203:\n    /* \"#utility.yul\":9425:9429   */\n  0x1f\n    /* \"#utility.yul\":9421:9430   */\n  not\n    /* \"#utility.yul\":9413:9419   */\n  dup5\n    /* \"#utility.yul\":9409:9431   */\n  and\n    /* \"#utility.yul\":9459:9496   */\n  tag_206\n    /* \"#utility.yul\":9491:9495   */\n  dup7\n    /* \"#utility.yul\":9459:9496   */\n  tag_69\n  jump\t// in\ntag_206:\n    /* \"#utility.yul\":9518:9519   */\n  0x00\n    /* \"#utility.yul\":9532:9740   */\ntag_207:\n    /* \"#utility.yul\":9546:9553   */\n  dup3\n    /* \"#utility.yul\":9543:9544   */\n  dup2\n    /* \"#utility.yul\":9540:9554   */\n  lt\n    /* \"#utility.yul\":9532:9740   */\n  iszero\n  tag_209\n  jumpi\n    /* \"#utility.yul\":9625:9634   */\n  dup5\n    /* \"#utility.yul\":9620:9623   */\n  dup10\n    /* \"#utility.yul\":9616:9635   */\n  add\n    /* \"#utility.yul\":9610:9636   */\n  mload\n    /* \"#utility.yul\":9602:9608   */\n  dup3\n    /* \"#utility.yul\":9595:9637   */\n  sstore\n    /* \"#utility.yul\":9676:9677   */\n  0x01\n    /* \"#utility.yul\":9668:9674   */\n  dup3\n    /* \"#utility.yul\":9664:9678   */\n  add\n    /* \"#utility.yul\":9654:9678   */\n  swap2\n  pop\n    /* \"#utility.yul\":9723:9725   */\n  0x20\n    /* \"#utility.yul\":9712:9721   */\n  dup6\n    /* \"#utility.yul\":9708:9726   */\n  add\n    /* \"#utility.yul\":9695:9726   */\n  swap5\n  pop\n    /* \"#utility.yul\":9569:9573   */\n  0x20\n    /* \"#utility.yul\":9566:9567   */\n  dup2\n    /* \"#utility.yul\":9562:9574   */\n  add\n    /* \"#utility.yul\":9557:9574   */\n  swap1\n  pop\n    /* \"#utility.yul\":9532:9740   */\n  jump(tag_207)\ntag_209:\n    /* \"#utility.yul\":9768:9774   */\n  dup7\n    /* \"#utility.yul\":9759:9766   */\n  dup4\n    /* \"#utility.yul\":9756:9775   */\n  lt\n    /* \"#utility.yul\":9753:9932   */\n  iszero\n  tag_210\n  jumpi\n    /* \"#utility.yul\":9826:9835   */\n  dup5\n    /* \"#utility.yul\":9821:9824   */\n  dup10\n    /* \"#utility.yul\":9817:9836   */\n  add\n    /* \"#utility.yul\":9811:9837   */\n  mload\n    /* \"#utility.yul\":9869:9917   */\n  tag_211\n    /* \"#utility.yul\":9911:9915   */\n  0x1f\n    /* \"#utility.yul\":9903:9909   */\n  dup10\n    /* \"#utility.yul\":9899:9916   */\n  and\n    /* \"#utility.yul\":9888:9897   */\n  dup3\n    /* \"#utility.yul\":9869:9917   */\n  tag_82\n  jump\t// in\ntag_211:\n    /* \"#utility.yul\":9861:9867   */\n  dup4\n    /* \"#utility.yul\":9854:9918   */\n  sstore\n    /* \"#utility.yul\":9776:9932   */\n  pop\n    /* \"#utility.yul\":9753:9932   */\ntag_210:\n    /* \"#utility.yul\":9978:9979   */\n  0x01\n    /* \"#utility.yul\":9974:9975   */\n  0x02\n    /* \"#utility.yul\":9966:9972   */\n  dup9\n    /* \"#utility.yul\":9962:9976   */\n  mul\n    /* \"#utility.yul\":9958:9980   */\n  add\n    /* \"#utility.yul\":9952:9956   */\n  dup9\n    /* \"#utility.yul\":9945:9981   */\n  sstore\n    /* \"#utility.yul\":9380:9991   */\n  pop\n  pop\n  pop\n    /* \"#utility.yul\":9343:10230   */\ntag_202:\n  pop\n    /* \"#utility.yul\":8933:10236   */\n  pop\n  pop\n  pop\n    /* \"#utility.yul\":8841:10236   */\n  pop\n  pop\n  jump\t// out\n    /* \"#utility.yul\":10242:10360   */\ntag_84:\n    /* \"#utility.yul\":10329:10353   */\n  tag_213\n    /* \"#utility.yul\":10347:10352   */\n  dup2\n    /* \"#utility.yul\":10329:10353   */\n  tag_63\n  jump\t// in\ntag_213:\n    /* \"#utility.yul\":10324:10327   */\n  dup3\n    /* \"#utility.yul\":10317:10354   */\n  mstore\n    /* \"#utility.yul\":10242:10360   */\n  pop\n  pop\n  jump\t// out\n    /* \"#utility.yul\":10366:10588   */\ntag_14:\n    /* \"#utility.yul\":10459:10463   */\n  0x00\n    /* \"#utility.yul\":10497:10499   */\n  0x20\n    /* \"#utility.yul\":10486:10495   */\n  dup3\n    /* \"#utility.yul\":10482:10500   */\n  add\n    /* \"#utility.yul\":10474:10500   */\n  swap1\n  pop\n    /* \"#utility.yul\":10510:10581   */\n  tag_215\n    /* \"#utility.yul\":10578:10579   */\n  0x00\n    /* \"#utility.yul\":10567:10576   */\n  dup4\n    /* \"#utility.yul\":10563:10580   */\n  add\n    /* \"#utility.yul\":10554:10560   */\n  dup5\n    /* \"#utility.yul\":10510:10581   */\n  tag_84\n  jump\t// in\ntag_215:\n    /* \"#utility.yul\":10366:10588   */\n  swap3\n  swap2\n  pop\n  pop\n  jump\t// out\n    /* \"#utility.yul\":10594:10774   */\ntag_85:\n    /* \"#utility.yul\":10642:10719   */\n  0x4e487b7100000000000000000000000000000000000000000000000000000000\n    /* \"#utility.yul\":10639:10640   */\n  0x00\n    /* \"#utility.yul\":10632:10720   */\n  mstore\n    /* \"#utility.yul\":10739:10743   */\n  0x11\n    /* \"#utility.yul\":10736:10737   */\n  0x04\n    /* \"#utility.yul\":10729:10744   */\n  mstore\n    /* \"#utility.yul\":10763:10767   */\n  0x24\n    /* \"#utility.yul\":10760:10761   */\n  0x00\n    /* \"#utility.yul\":10753:10768   */\n  revert\n    /* \"#utility.yul\":10780:10882   */\ntag_86:\n    /* \"#utility.yul\":10822:10830   */\n  0x00\n    /* \"#utility.yul\":10869:10874   */\n  dup2\n    /* \"#utility.yul\":10866:10867   */\n  0x01\n    /* \"#utility.yul\":10862:10875   */\n  shr\n    /* \"#utility.yul\":10841:10875   */\n  swap1\n  pop\n    /* \"#utility.yul\":10780:10882   */\n  swap2\n  swap1\n  pop\n  jump\t// out\n    /* \"#utility.yul\":10888:11736   */\ntag_87:\n    /* \"#utility.yul\":10949:10954   */\n  0x00\n    /* \"#utility.yul\":10956:10960   */\n  dup1\n    /* \"#utility.yul\":10980:10986   */\n  dup3\n    /* \"#utility.yul\":10971:10986   */\n  swap2\n  pop\n    /* \"#utility.yul\":11004:11009   */\n  dup4\n    /* \"#utility.yul\":10995:11009   */\n  swap1\n  pop\n    /* \"#utility.yul\":11018:11730   */\ntag_219:\n    /* \"#utility.yul\":11039:11040   */\n  0x01\n    /* \"#utility.yul\":11029:11037   */\n  dup6\n    /* \"#utility.yul\":11026:11041   */\n  gt\n    /* \"#utility.yul\":11018:11730   */\n  iszero\n  tag_221\n  jumpi\n    /* \"#utility.yul\":11134:11138   */\n  dup1\n    /* \"#utility.yul\":11129:11132   */\n  dup7\n    /* \"#utility.yul\":11125:11139   */\n  div\n    /* \"#utility.yul\":11119:11123   */\n  dup2\n    /* \"#utility.yul\":11116:11140   */\n  gt\n    /* \"#utility.yul\":11113:11163   */\n  iszero\n  tag_222\n  jumpi\n    /* \"#utility.yul\":11143:11161   */\n  tag_223\n  tag_85\n  jump\t// in\ntag_223:\n    /* \"#utility.yul\":11113:11163   */\ntag_222:\n    /* \"#utility.yul\":11193:11194   */\n  0x01\n    /* \"#utility.yul\":11183:11191   */\n  dup6\n    /* \"#utility.yul\":11179:11195   */\n  and\n    /* \"#utility.yul\":11176:11627   */\n  iszero\n  tag_224\n  jumpi\n    /* \"#utility.yul\":11608:11612   */\n  dup1\n    /* \"#utility.yul\":11601:11606   */\n  dup3\n    /* \"#utility.yul\":11597:11613   */\n  mul\n    /* \"#utility.yul\":11588:11613   */\n  swap2\n  pop\n    /* \"#utility.yul\":11176:11627   */\ntag_224:\n    /* \"#utility.yul\":11658:11662   */\n  dup1\n    /* \"#utility.yul\":11652:11656   */\n  dup2\n    /* \"#utility.yul\":11648:11663   */\n  mul\n    /* \"#utility.yul\":11640:11663   */\n  swap1\n  pop\n    /* \"#utility.yul\":11688:11720   */\n  tag_225\n    /* \"#utility.yul\":11711:11719   */\n  dup6\n    /* \"#utility.yul\":11688:11720   */\n  tag_86\n  jump\t// in\ntag_225:\n    /* \"#utility.yul\":11676:11720   */\n  swap5\n  pop\n    /* \"#utility.yul\":11018:11730   */\n  jump(tag_219)\ntag_221:\n    /* \"#utility.yul\":10888:11736   */\n  swap5\n  pop\n  swap5\n  swap3\n  pop\n  pop\n  pop\n  jump\t// out\n    /* \"#utility.yul\":11742:12815   */\ntag_88:\n    /* \"#utility.yul\":11796:11801   */\n  0x00\n    /* \"#utility.yul\":11987:11995   */\n  dup3\n    /* \"#utility.yul\":11977:12017   */\n  tag_227\n  jumpi\n    /* \"#utility.yul\":12008:12009   */\n  0x01\n    /* \"#utility.yul\":11999:12009   */\n  swap1\n  pop\n    /* \"#utility.yul\":12010:12015   */\n  jump(tag_226)\n    /* \"#utility.yul\":11977:12017   */\ntag_227:\n    /* \"#utility.yul\":12036:12040   */\n  dup2\n    /* \"#utility.yul\":12026:12062   */\n  tag_228\n  jumpi\n    /* \"#utility.yul\":12053:12054   */\n  0x00\n    /* \"#utility.yul\":12044:12054   */\n  swap1\n  pop\n    /* \"#utility.yul\":12055:12060   */\n  jump(tag_226)\n    /* \"#utility.yul\":12026:12062   */\ntag_228:\n    /* \"#utility.yul\":12122:12126   */\n  dup2\n    /* \"#utility.yul\":12170:12171   */\n  0x01\n    /* \"#utility.yul\":12165:12192   */\n  dup2\n  eq\n  tag_230\n  jumpi\n    /* \"#utility.yul\":12206:12207   */\n  0x02\n    /* \"#utility.yul\":12201:12392   */\n  dup2\n  eq\n  tag_231\n  jumpi\n    /* \"#utility.yul\":12115:12392   */\n  jump(tag_229)\n    /* \"#utility.yul\":12165:12192   */\ntag_230:\n    /* \"#utility.yul\":12183:12184   */\n  0x01\n    /* \"#utility.yul\":12174:12184   */\n  swap2\n  pop\n    /* \"#utility.yul\":12185:12190   */\n  pop\n  jump(tag_226)\n    /* \"#utility.yul\":12201:12392   */\ntag_231:\n    /* \"#utility.yul\":12246:12249   */\n  0xff\n    /* \"#utility.yul\":12236:12244   */\n  dup5\n    /* \"#utility.yul\":12233:12250   */\n  gt\n    /* \"#utility.yul\":12230:12273   */\n  iszero\n  tag_232\n  jumpi\n    /* \"#utility.yul\":12253:12271   */\n  tag_233\n  tag_85\n  jump\t// in\ntag_233:\n    /* \"#utility.yul\":12230:12273   */\ntag_232:\n    /* \"#utility.yul\":12302:12310   */\n  dup4\n    /* \"#utility.yul\":12299:12300   */\n  0x02\n    /* \"#utility.yul\":12295:12311   */\n  exp\n    /* \"#utility.yul\":12286:12311   */\n  swap2\n  pop\n    /* \"#utility.yul\":12337:12340   */\n  dup5\n    /* \"#utility.yul\":12330:12335   */\n  dup3\n    /* \"#utility.yul\":12327:12341   */\n  gt\n    /* \"#utility.yul\":12324:12364   */\n  iszero\n  tag_234\n  jumpi\n    /* \"#utility.yul\":12344:12362   */\n  tag_235\n  tag_85\n  jump\t// in\ntag_235:\n    /* \"#utility.yul\":12324:12364   */\ntag_234:\n    /* \"#utility.yul\":12377:12382   */\n  pop\n  jump(tag_226)\n    /* \"#utility.yul\":12115:12392   */\ntag_229:\n  pop\n    /* \"#utility.yul\":12501:12503   */\n  0x20\n    /* \"#utility.yul\":12491:12499   */\n  dup4\n    /* \"#utility.yul\":12488:12504   */\n  lt\n    /* \"#utility.yul\":12482:12485   */\n  0x0133\n    /* \"#utility.yul\":12476:12480   */\n  dup4\n    /* \"#utility.yul\":12473:12486   */\n  lt\n    /* \"#utility.yul\":12469:12505   */\n  and\n    /* \"#utility.yul\":12451:12453   */\n  0x4e\n    /* \"#utility.yul\":12441:12449   */\n  dup5\n    /* \"#utility.yul\":12438:12454   */\n  lt\n    /* \"#utility.yul\":12433:12435   */\n  0x0b\n    /* \"#utility.yul\":12427:12431   */\n  dup5\n    /* \"#utility.yul\":12424:12436   */\n  lt\n    /* \"#utility.yul\":12420:12455   */\n  and\n    /* \"#utility.yul\":12404:12515   */\n  or\n    /* \"#utility.yul\":12401:12647   */\n  iszero\n  tag_236\n  jumpi\n    /* \"#utility.yul\":12557:12565   */\n  dup3\n    /* \"#utility.yul\":12551:12555   */\n  dup3\n    /* \"#utility.yul\":12547:12566   */\n  exp\n    /* \"#utility.yul\":12538:12566   */\n  swap1\n  pop\n    /* \"#utility.yul\":12592:12595   */\n  dup4\n    /* \"#utility.yul\":12585:12590   */\n  dup2\n    /* \"#utility.yul\":12582:12596   */\n  gt\n    /* \"#utility.yul\":12579:12619   */\n  iszero\n  tag_237\n  jumpi\n    /* \"#utility.yul\":12599:12617   */\n  tag_238\n  tag_85\n  jump\t// in\ntag_238:\n    /* \"#utility.yul\":12579:12619   */\ntag_237:\n    /* \"#utility.yul\":12632:12637   */\n  jump(tag_226)\n    /* \"#utility.yul\":12401:12647   */\ntag_236:\n    /* \"#utility.yul\":12672:12714   */\n  tag_239\n    /* \"#utility.yul\":12710:12713   */\n  dup5\n    /* \"#utility.yul\":12700:12708   */\n  dup5\n    /* \"#utility.yul\":12694:12698   */\n  dup5\n    /* \"#utility.yul\":12691:12692   */\n  0x01\n    /* \"#utility.yul\":12672:12714   */\n  tag_87\n  jump\t// in\ntag_239:\n    /* \"#utility.yul\":12657:12714   */\n  swap3\n  pop\n  swap1\n  pop\n    /* \"#utility.yul\":12746:12750   */\n  dup2\n    /* \"#utility.yul\":12741:12744   */\n  dup5\n    /* \"#utility.yul\":12737:12751   */\n  div\n    /* \"#utility.yul\":12730:12735   */\n  dup2\n    /* \"#utility.yul\":12727:12752   */\n  gt\n    /* \"#utility.yul\":12724:12775   */\n  iszero\n  tag_240\n  jumpi\n    /* \"#utility.yul\":12755:12773   */\n  tag_241\n  tag_85\n  jump\t// in\ntag_241:\n    /* \"#utility.yul\":12724:12775   */\ntag_240:\n    /* \"#utility.yul\":12804:12808   */\n  dup2\n    /* \"#utility.yul\":12797:12802   */\n  dup2\n    /* \"#utility.yul\":12793:12809   */\n  mul\n    /* \"#utility.yul\":12784:12809   */\n  swap1\n  pop\n    /* \"#utility.yul\":11742:12815   */\ntag_226:\n  swap4\n  swap3\n  pop\n  pop\n  pop\n  jump\t// out\n    /* \"#utility.yul\":12821:13102   */\ntag_20:\n    /* \"#utility.yul\":12879:12884   */\n  0x00\n    /* \"#utility.yul\":12903:12926   */\n  tag_243\n    /* \"#utility.yul\":12921:12925   */\n  dup3\n    /* \"#utility.yul\":12903:12926   */\n  tag_56\n  jump\t// in\ntag_243:\n    /* \"#utility.yul\":12895:12926   */\n  swap2\n  pop\n    /* \"#utility.yul\":12947:12972   */\n  tag_244\n    /* \"#utility.yul\":12963:12971   */\n  dup4\n    /* \"#utility.yul\":12947:12972   */\n  tag_59\n  jump\t// in\ntag_244:\n    /* \"#utility.yul\":12935:12972   */\n  swap3\n  pop\n    /* \"#utility.yul\":12991:13095   */\n  tag_245\n    /* \"#utility.yul\":13028:13094   */\n  0xffffffffffffffffffffffffffffffffffffffffffffffffffffffffffffffff\n    /* \"#utility.yul\":13018:13026   */\n  dup5\n    /* \"#utility.yul\":13012:13016   */\n  dup5\n    /* \"#utility.yul\":12991:13095   */\n  tag_88\n  jump\t// in\ntag_245:\n    /* \"#utility.yul\":12982:13095   */\n  swap1\n  pop\n    /* \"#utility.yul\":12821:13102   */\n  swap3\n  swap2\n  pop\n  pop\n  jump\t// out\n    /* \"#utility.yul\":13108:13518   */\ntag_22:\n    /* \"#utility.yul\":13148:13155   */\n  0x00\n    /* \"#utility.yul\":13171:13191   */\n  tag_247\n    /* \"#utility.yul\":13189:13190   */\n  dup3\n    /* \"#utility.yul\":13171:13191   */\n  tag_56\n  jump\t// in\ntag_247:\n    /* \"#utility.yul\":13166:13191   */\n  swap2\n  pop\n    /* \"#utility.yul\":13205:13225   */\n  tag_248\n    /* \"#utility.yul\":13223:13224   */\n  dup4\n    /* \"#utility.yul\":13205:13225   */\n  tag_56\n  jump\t// in\ntag_248:\n    /* \"#utility.yul\":13200:13225   */\n  swap3\n  pop\n    /* \"#utility.yul\":13260:13261   */\n  dup3\n    /* \"#utility.yul\":13257:13258   */\n  dup3\n    /* \"#utility.yul\":13253:13262   */\n  mul\n    /* \"#utility.yul\":13282:13312   */\n  tag_249\n    /* \"#utility.yul\":13300:13311   */\n  dup2\n    /* \"#utility.yul\":13282:13312   */\n  tag_56\n  jump\t// in\ntag_249:\n    /* \"#utility.yul\":13271:13312   */\n  swap2\n  pop\n    /* \"#utility.yul\":13461:13462   */\n  dup3\n    /* \"#utility.yul\":13452:13459   */\n  dup3\n    /* \"#utility.yul\":13448:13463   */\n  div\n    /* \"#utility.yul\":13445:13446   */\n  dup5\n    /* \"#utility.yul\":13442:13464   */\n  eq\n    /* \"#utility.yul\":13422:13423   */\n  dup4\n    /* \"#utility.yul\":13415:13424   */\n  iszero\n    /* \"#utility.yul\":13395:13478   */\n  or\n    /* \"#utility.yul\":13372:13511   */\n  tag_250\n  jumpi\n    /* \"#utility.yul\":13491:13509   */\n  tag_251\n  tag_85\n  jump\t// in\ntag_251:\n    /* \"#utility.yul\":13372:13511   */\ntag_250:\n    /* \"#utility.yul\":13156:13518   */\n  pop\n    /* \"#utility.yul\":13108:13518   */\n  swap3\n  swap2\n  pop\n  pop\n  jump\t// out\n    /* \"#utility.yul\":13524:13715   */\ntag_34:\n    /* \"#utility.yul\":13564:13567   */\n  0x00\n    /* \"#utility.yul\":13583:13603   */\n  tag_253\n    /* \"#utility.yul\":13601:13602   */\n  dup3\n    /* \"#utility.yul\":13583:13603   */\n  tag_56\n  jump\t// in\ntag_253:\n    /* \"#utility.yul\":13578:13603   */\n  swap2\n  pop\n    /* \"#utility.yul\":13617:13637   */\n  tag_254\n    /* \"#utility.yul\":13635:13636   */\n  dup4\n    /* \"#utility.yul\":13617:13637   */\n  tag_56\n  jump\t// in\ntag_254:\n    /* \"#utility.yul\":13612:13637   */\n  swap3\n  pop\n    /* \"#utility.yul\":13660:13661   */\n  dup3\n    /* \"#utility.yul\":13657:13658   */\n  dup3\n    /* \"#utility.yul\":13653:13662   */\n  add\n    /* \"#utility.yul\":13646:13662   */\n  swap1\n  pop\n    /* \"#utility.yul\":13681:13684   */\n  dup1\n    /* \"#utility.yul\":13678:13679   */\n  dup3\n    /* \"#utility.yul\":13675:13685   */\n  gt\n    /* \"#utility.yul\":13672:13708   */\n  iszero\n  tag_255\n  jumpi\n    /* \"#utility.yul\":13688:13706   */\n  tag_256\n  tag_85\n  jump\t// in\ntag_256:\n    /* \"#utility.yul\":13672:13708   */\ntag_255:\n    /* \"#utility.yul\":13524:13715   */\n  swap3\n  swap2\n  pop\n  pop\n  jump\t// out\n    /* \"#utility.yul\":13721:13839   */\ntag_89:\n    /* \"#utility.yul\":13808:13832   */\n  tag_258\n    /* \"#utility.yul\":13826:13831   */\n  dup2\n    /* \"#utility.yul\":13808:13832   */\n  tag_56\n  jump\t// in\ntag_258:\n    /* \"#utility.yul\":13803:13806   */\n  dup3\n    /* \"#utility.yul\":13796:13833   */\n  mstore\n    /* \"#utility.yul\":13721:13839   */\n  pop\n  pop\n  jump\t// out\n    /* \"#utility.yul\":13845:14287   */\ntag_38:\n    /* \"#utility.yul\":13994:13998   */\n  0x00\n    /* \"#utility.yul\":14032:14034   */\n  0x60\n    /* \"#utility.yul\":14021:14030   */\n  dup3\n    /* \"#utility.yul\":14017:14035   */\n  add\n    /* \"#utility.yul\":14009:14035   */\n  swap1\n  pop\n    /* \"#utility.yul\":14045:14116   */\n  tag_260\n    /* \"#utility.yul\":14113:14114   */\n  0x00\n    /* \"#utility.yul\":14102:14111   */\n  dup4\n    /* \"#utility.yul\":14098:14115   */\n  add\n    /* \"#utility.yul\":14089:14095   */\n  dup7\n    /* \"#utility.yul\":14045:14116   */\n  tag_84\n  jump\t// in\ntag_260:\n    /* \"#utility.yul\":14126:14198   */\n  tag_261\n    /* \"#utility.yul\":14194:14196   */\n  0x20\n    /* \"#utility.yul\":14183:14192   */\n  dup4\n    /* \"#utility.yul\":14179:14197   */\n  add\n    /* \"#utility.yul\":14170:14176   */\n  dup6\n    /* \"#utility.yul\":14126:14198   */\n  tag_89\n  jump\t// in\ntag_261:\n    /* \"#utility.yul\":14208:14280   */\n  tag_262\n    /* \"#utility.yul\":14276:14278   */\n  0x40\n    /* \"#utility.yul\":14265:14274   */\n  dup4\n    /* \"#utility.yul\":14261:14279   */\n  add\n    /* \"#utility.yul\":14252:14258   */\n  dup5\n    /* \"#utility.yul\":14208:14280   */\n  tag_89\n  jump\t// in\ntag_262:\n    /* \"#utility.yul\":13845:14287   */\n  swap5\n  swap4\n  pop\n  pop\n  pop\n  pop\n  jump\t// out\n    /* \"#utility.yul\":14293:14515   */\ntag_42:\n    /* \"#utility.yul\":14386:14390   */\n  0x00\n    /* \"#utility.yul\":14424:14426   */\n  0x20\n    /* \"#utility.yul\":14413:14422   */\n  dup3\n    /* \"#utility.yul\":14409:14427   */\n  add\n    /* \"#utility.yul\":14401:14427   */\n  swap1\n  pop\n    /* \"#utility.yul\":14437:14508   */\n  tag_264\n    /* \"#utility.yul\":14505:14506   */\n  0x00\n    /* \"#utility.yul\":14494:14503   */\n  dup4\n    /* \"#utility.yul\":14490:14507   */\n  add\n    /* \"#utility.yul\":14481:14487   */\n  dup5\n    /* \"#utility.yul\":14437:14508   */\n  tag_89\n  jump\t// in\ntag_264:\n    /* \"#utility.yul\":14293:14515   */\n  swap3\n  swap2\n  pop\n  pop\n  jump\t// out\n    /* \"Token.sol\":173:993  contract Token is ERC20, Ownable {... */\ntag_24:\n  dataSize(sub_0)\n  dup1\n  dataOffset(sub_0)\n  0x00\n  codecopy\n  0x00\n  return\nstop\n\nsub_0: assembly {\n        /* \"Token.sol\":173:993  contract Token is ERC20, Ownable {... */\n      mstore(0x40, 0x80)\n      callvalue\n      dup1\n      iszero\n      tag_1\n      jumpi\n      0x00\n      dup1\n      revert\n    tag_1:\n      pop\n      jumpi(tag_2, lt(calldatasize, 0x04))\n      shr(0xe0, calldataload(0x00))\n      dup1\n      0x715018a6\n      gt\n      tag_18\n      jumpi\n      dup1\n      0xa9059cbb\n      gt\n      tag_19\n      jumpi\n      dup1\n      0xa9059cbb\n      eq\n      tag_14\n      jumpi\n      dup1\n      0xdd62ed3e\n      eq\n      tag_15\n      jumpi\n      dup1\n      0xf2fde38b\n      eq\n      tag_16\n      jumpi\n      dup1\n      0xfdd760ea\n      eq\n      tag_17\n      jumpi\n      jump(tag_2)\n    tag_19:\n      dup1\n      0x715018a6\n      eq\n      tag_10\n      jumpi\n      dup1\n      0x8da5cb5b\n      eq\n      tag_11\n      jumpi\n      dup1\n      0x95d89b41\n      eq\n      tag_12\n      jumpi\n      dup1\n      0x9dc29fac\n      eq\n      tag_13\n      jumpi\n      jump(tag_2)\n    tag_18:\n      dup1\n      0x23b872dd\n      gt\n      tag_20\n      jumpi\n      dup1\n      0x23b872dd\n      eq\n      tag_6\n      jumpi\n      dup1\n      0x313ce567\n      eq\n      tag_7\n      jumpi\n      dup1\n      0x40c10f19\n      eq\n      tag_8\n      jumpi\n      dup1\n      0x70a08231\n      eq\n      tag_9\n      jumpi\n      jump(tag_2)\n    tag_20:\n      dup1\n      0x06fdde03\n      eq\n      tag_3\n      jumpi\n      dup1\n      0x095ea7b3\n      eq\n      tag_4\n      jumpi\n      dup1\n      0x18160ddd\n      eq\n      tag_5\n      jumpi\n    tag_2:\n      0x00\n      dup1\n      revert\n        /* \"@openzeppelin/contracts/token/ERC20/ERC20.sol\":1779:1868  function name() public view virtual returns (string memory) {... */\n    tag_3:\n      tag_21\n      tag_22\n      jump\t// in\n    tag_21:\n      mload(0x40)\n      tag_23\n      swap2\n      swap1\n      tag_24\n      jump\t// in\n    tag_23:\n      mload(0x40)\n      dup1\n      swap2\n      sub\n      swap1\n      return\n        /* \"@openzeppelin/contracts/token/ERC20/ERC20.sol\":3998:4184  function approve(address spender, uint256 value) public virtual returns (bool) {... */\n    tag_4:\n      tag_25\n      0x04\n      dup1\n      calldatasize\n      sub\n      dup2\n      add\n      swap1\n      tag_26\n      swap2\n      swap1\n      tag_27\n      jump\t// in\n    tag_26:\n      tag_28\n      jump\t// in\n    tag_25:\n      mload(0x40)\n      tag_29\n      swap2\n      swap1\n      tag_30\n      jump\t// in\n    tag_29:\n      mload(0x40)\n      dup1\n      swap2\n      sub\n      swap1\n      return\n        /* \"@openzeppelin/contracts/token/ERC20/ERC20.sol\":2849:2946  function totalSupply() public view virtual returns (uint256) {... */\n    tag_5:\n      tag_31\n      tag_32\n      jump\t// in\n    tag_31:\n      mload(0x40)\n      tag_33\n      swap2\n      swap1\n      tag_34\n      jump\t// in\n    tag_33:\n      mload(0x40)\n      dup1\n      swap2\n      sub\n      swap1\n      return\n        /* \"@openzeppelin/contracts/token/ERC20/ERC20.sol\":4776:5020  function transferFrom(address from, address to, uint256 value) public virtual returns (bool) {... */\n    tag_6:\n      tag_35\n      0x04\n      dup1\n      calldatasize\n      sub\n      dup2\n      add\n      swap1\n      tag_36\n      swap2\n      swap1\n      tag_37\n      jump\t// in\n    tag_36:\n      tag_38\n      jump\t// in\n    tag_35:\n      mload(0x40)\n      tag_39\n      swap2\n      swap1\n      tag_30\n      jump\t// in\n    tag_39:\n      mload(0x40)\n      dup1\n      swap2\n      sub\n      swap1\n      return\n        /* \"Token.sol\":680:780  function decimals() public view virtual override returns (uint8) {... */\n    tag_7:\n      tag_40\n      tag_41\n      jump\t// in\n    tag_40:\n      mload(0x40)\n      tag_42\n      swap2\n      swap1\n      tag_43\n      jump\t// in\n    tag_42:\n      mload(0x40)\n      dup1\n      swap2\n      sub\n      swap1\n      return\n        /* \"Token.sol\":788:883  function mint(address to, uint256 amount) public onlyOwner {... */\n    tag_8:\n      tag_44\n      0x04\n      dup1\n      calldatasize\n      sub\n      dup2\n      add\n      swap1\n      tag_45\n      swap2\n      swap1\n      tag_27\n      jump\t// in\n    tag_45:\n      tag_46\n      jump\t// in\n    tag_44:\n      stop\n        /* \"@openzeppelin/contracts/token/ERC20/ERC20.sol\":3004:3120  function balanceOf(address account) public view virtual returns (uint256) {... */\n    tag_9:\n      tag_47\n      0x04\n      dup1\n      calldatasize\n      sub\n      dup2\n      add\n      swap1\n      tag_48\n      swap2\n      swap1\n      tag_49\n      jump\t// in\n    tag_48:\n      tag_50\n      jump\t// in\n    tag_47:\n      mload(0x40)\n      tag_51\n      swap2\n      swap1\n      tag_34\n      jump\t// in\n    tag_51:\n      mload(0x40)\n      dup1\n      swap2\n      sub\n      swap1\n      return\n        /* \"@openzeppelin/contracts/access/Ownable.sol\":2293:2394  function renounceOwnership() public virtual onlyOwner {... */\n    tag_10:\n      tag_52\n      tag_53\n      jump\t// in\n    tag_52:\n      stop\n        /* \"@openzeppelin/contracts/access/Ownable.sol\":1638:1723  function owner() public view virtual returns (address) {... */\n    tag_11:\n      tag_54\n      tag_55\n      jump\t// in\n    tag_54:\n      mload(0x40)\n      tag_56\n      swap2\n      swap1\n      tag_57\n      jump\t// in\n    tag_56:\n      mload(0x40)\n      dup1\n      swap2\n      sub\n      swap1\n      return\n        /* \"@openzeppelin/contracts/token/ERC20/ERC20.sol\":1981:2074  function symbol() public view virtual returns (string memory) {... */\n    tag_12:\n      tag_58\n      tag_59\n      jump\t// in\n    tag_58:\n      mload(0x40)\n      tag_60\n      swap2\n      swap1\n      tag_24\n      jump\t// in\n    tag_60:\n      mload(0x40)\n      dup1\n      swap2\n      sub\n      swap1\n      return\n        /* \"Token.sol\":891:990  function burn(address from, uint256 amount) public onlyOwner {... */\n    tag_13:\n      tag_61\n      0x04\n      dup1\n      calldatasize\n      sub\n      dup2\n      add\n      swap1\n      tag_62\n      swap2\n      swap1\n      tag_27\n      jump\t// in\n    tag_62:\n      tag_63\n      jump\t// in\n    tag_61:\n      stop\n        /* \"@openzeppelin/contracts/token/ERC20/ERC20.sol\":3315:3493  function transfer(address to, uint256 value) public virtual returns (bool) {... */\n    tag_14:\n      tag_64\n      0x04\n      dup1\n      calldatasize\n      sub\n      dup2\n      add\n      swap1\n      tag_65\n      swap2\n      swap1\n      tag_27\n      jump\t// in\n    tag_65:\n      tag_66\n      jump\t// in\n    tag_64:\n      mload(0x40)\n      tag_67\n      swap2\n      swap1\n      tag_30\n      jump\t// in\n    tag_67:\n      mload(0x40)\n      dup1\n      swap2\n      sub\n      swap1\n      return\n        /* \"@openzeppelin/contracts/token/ERC20/ERC20.sol\":3551:3691  function allowance(address owner, address spender) public view virtual returns (uint256) {... */\n    tag_15:\n      tag_68\n      0x04\n      dup1\n      calldatasize\n      sub\n      dup2\n      add\n      swap1\n      tag_69\n      swap2\n      swap1\n      tag_70\n      jump\t// in\n    tag_69:\n      tag_71\n      jump\t// in\n    tag_68:\n      mload(0x40)\n      tag_72\n      swap2\n      swap1\n      tag_34\n      jump\t// in\n    tag_72:\n      mload(0x40)\n      dup1\n      swap2\n      sub\n      swap1\n      return\n        /* \"@openzeppelin/contracts/access/Ownable.sol\":2543:2758  function transferOwnership(address newOwner) public virtual onlyOwner {... */\n    tag_16:\n      tag_73\n      0x04\n      dup1\n      calldatasize\n      sub\n      dup2\n      add\n      swap1\n      tag_74\n      swap2\n      swap1\n      tag_49\n      jump\t// in\n    tag_74:\n      tag_75\n      jump\t// in\n    tag_73:\n      stop\n        /* \"Token.sol\":243:268  uint256 public priceInEth */\n    tag_17:\n      tag_76\n      tag_77\n      jump\t// in\n    tag_76:\n      mload(0x40)\n      tag_78\n      swap2\n      swap1\n      tag_34\n      jump\t// in\n    tag_78:\n      mload(0x40)\n      dup1\n      swap2\n      sub\n      swap1\n      return\n        /* \"@openzeppelin/contracts/token/ERC20/ERC20.sol\":1779:1868  function name() public view virtual returns (string memory) {... */\n    tag_22:\n        /* \"@openzeppelin/contracts/token/ERC20/ERC20.sol\":1824:1837  string memory */\n      0x60\n        /* \"@openzeppelin/contracts/token/ERC20/ERC20.sol\":1856:1861  _name */\n      0x03\n        /* \"@openzeppelin/contracts/token/ERC20/ERC20.sol\":1849:1861  return _name */\n      dup1\n      sload\n      tag_80\n      swap1\n      tag_81\n      jump\t// in\n    tag_80:\n      dup1\n      0x1f\n      add\n      0x20\n      dup1\n      swap2\n      div\n      mul\n      0x20\n      add\n      mload(0x40)\n      swap1\n      dup2\n      add\n      0x40\n      mstore\n      dup1\n      swap3\n      swap2\n      swap1\n      dup2\n      dup2\n      mstore\n      0x20\n      add\n      dup3\n      dup1\n      sload\n      tag_82\n      swap1\n      tag_81\n      jump\t// in\n    tag_82:\n      dup1\n      iszero\n      tag_83\n      jumpi\n      dup1\n      0x1f\n      lt\n      tag_84\n      jumpi\n      0x0100\n      dup1\n      dup4\n      sload\n      div\n      mul\n      dup4\n      mstore\n      swap2\n      0x20\n      add\n      swap2\n      jump(tag_83)\n    tag_84:\n      dup3\n      add\n      swap2\n      swap1\n      0x00\n      mstore\n      keccak256(0x00, 0x20)\n      swap1\n    tag_85:\n      dup2\n      sload\n      dup2\n      mstore\n      swap1\n      0x01\n      add\n      swap1\n      0x20\n      add\n      dup1\n      dup4\n      gt\n      tag_85\n      jumpi\n      dup3\n      swap1\n      sub\n      0x1f\n      and\n      dup3\n      add\n      swap2\n    tag_83:\n      pop\n      pop\n      pop\n      pop\n      pop\n      swap1\n      pop\n        /* \"@openzeppelin/contracts/token/ERC20/ERC20.sol\":1779:1868  function name() public view virtual returns (string memory) {... */\n      swap1\n      jump\t// out\n        /* \"@openzeppelin/contracts/token/ERC20/ERC20.sol\":3998:4184  function approve(address spender, uint256 value) public virtual returns (bool) {... */\n    tag_28:\n        /* \"@openzeppelin/contracts/token/ERC20/ERC20.sol\":4071:4075  bool */\n      0x00\n        /* \"@openzeppelin/contracts/token/ERC20/ERC20.sol\":4087:4100  address owner */\n      dup1\n        /* \"@openzeppelin/contracts/token/ERC20/ERC20.sol\":4103:4115  _msgSender() */\n      tag_87\n        /* \"@openzeppelin/contracts/token/ERC20/ERC20.sol\":4103:4113  _msgSender */\n      tag_88\n        /* \"@openzeppelin/contracts/token/ERC20/ERC20.sol\":4103:4115  _msgSender() */\n      jump\t// in\n    tag_87:\n        /* \"@openzeppelin/contracts/token/ERC20/ERC20.sol\":4087:4115  address owner = _msgSender() */\n      swap1\n      pop\n        /* \"@openzeppelin/contracts/token/ERC20/ERC20.sol\":4125:4156  _approve(owner, spender, value) */\n      tag_89\n        /* \"@openzeppelin/contracts/token/ERC20/ERC20.sol\":4134:4139  owner */\n      dup2\n        /* \"@openzeppelin/contracts/token/ERC20/ERC20.sol\":4141:4148  spender */\n      dup6\n        /* \"@openzeppelin/contracts/token/ERC20/ERC20.sol\":4150:4155  value */\n      dup6\n        /* \"@openzeppelin/contracts/token/ERC20/ERC20.sol\":4125:4133  _approve */\n      tag_90\n        /* \"@openzeppelin/contracts/token/ERC20/ERC20.sol\":4125:4156  _approve(owner, spender, value) */\n      jump\t// in\n    tag_89:\n        /* \"@openzeppelin/contracts/token/ERC20/ERC20.sol\":4173:4177  true */\n      0x01\n        /* \"@openzeppelin/contracts/token/ERC20/ERC20.sol\":4166:4177  return true */\n      swap2\n      pop\n      pop\n        /* \"@openzeppelin/contracts/token/ERC20/ERC20.sol\":3998:4184  function approve(address spender, uint256 value) public virtual returns (bool) {... */\n      swap3\n      swap2\n      pop\n      pop\n      jump\t// out\n        /* \"@openzeppelin/contracts/token/ERC20/ERC20.sol\":2849:2946  function totalSupply() public view virtual returns (uint256) {... */\n    tag_32:\n        /* \"@openzeppelin/contracts/token/ERC20/ERC20.sol\":2901:2908  uint256 */\n      0x00\n        /* \"@openzeppelin/contracts/token/ERC20/ERC20.sol\":2927:2939  _totalSupply */\n      sload(0x02)\n        /* \"@openzeppelin/contracts/token/ERC20/ERC20.sol\":2920:2939  return _totalSupply */\n      swap1\n      pop\n        /* \"@openzeppelin/contracts/token/ERC20/ERC20.sol\":2849:2946  function totalSupply() public view virtual returns (uint256) {... */\n      swap1\n      jump\t// out\n        /* \"@openzeppelin/contracts/token/ERC20/ERC20.sol\":4776:5020  function transferFrom(address from, address to, uint256 value) public virtual returns (bool) {... */\n    tag_38:\n        /* \"@openzeppelin/contracts/token/ERC20/ERC20.sol\":4863:4867  bool */\n      0x00\n        /* \"@openzeppelin/contracts/token/ERC20/ERC20.sol\":4879:4894  address spender */\n      dup1\n        /* \"@openzeppelin/contracts/token/ERC20/ERC20.sol\":4897:4909  _msgSender() */\n      tag_93\n        /* \"@openzeppelin/contracts/token/ERC20/ERC20.sol\":4897:4907  _msgSender */\n      tag_88\n        /* \"@openzeppelin/contracts/token/ERC20/ERC20.sol\":4897:4909  _msgSender() */\n      jump\t// in\n    tag_93:\n        /* \"@openzeppelin/contracts/token/ERC20/ERC20.sol\":4879:4909  address spender = _msgSender() */\n      swap1\n      pop\n        /* \"@openzeppelin/contracts/token/ERC20/ERC20.sol\":4919:4956  _spendAllowance(from, spender, value) */\n      tag_94\n        /* \"@openzeppelin/contracts/token/ERC20/ERC20.sol\":4935:4939  from */\n      dup6\n        /* \"@openzeppelin/contracts/token/ERC20/ERC20.sol\":4941:4948  spender */\n      dup3\n        /* \"@openzeppelin/contracts/token/ERC20/ERC20.sol\":4950:4955  value */\n      dup6\n        /* \"@openzeppelin/contracts/token/ERC20/ERC20.sol\":4919:4934  _spendAllowance */\n      tag_95\n        /* \"@openzeppelin/contracts/token/ERC20/ERC20.sol\":4919:4956  _spendAllowance(from, spender, value) */\n      jump\t// in\n    tag_94:\n        /* \"@openzeppelin/contracts/token/ERC20/ERC20.sol\":4966:4992  _transfer(from, to, value) */\n      tag_96\n        /* \"@openzeppelin/contracts/token/ERC20/ERC20.sol\":4976:4980  from */\n      dup6\n        /* \"@openzeppelin/contracts/token/ERC20/ERC20.sol\":4982:4984  to */\n      dup6\n        /* \"@openzeppelin/contracts/token/ERC20/ERC20.sol\":4986:4991  value */\n      dup6\n        /* \"@openzeppelin/contracts/token/ERC20/ERC20.sol\":4966:4975  _transfer */\n      tag_97\n        /* \"@openzeppelin/contracts/token/ERC20/ERC20.sol\":4966:4992  _transfer(from, to, value) */\n      jump\t// in\n    tag_96:\n        /* \"@openzeppelin/contracts/token/ERC20/ERC20.sol\":5009:5013  true */\n      0x01\n        /* \"@openzeppelin/contracts/token/ERC20/ERC20.sol\":5002:5013  return true */\n      swap2\n      pop\n      pop\n        /* \"@openzeppelin/contracts/token/ERC20/ERC20.sol\":4776:5020  function transferFrom(address from, address to, uint256 value) public virtual returns (bool) {... */\n      swap4\n      swap3\n      pop\n      pop\n      pop\n      jump\t// out\n        /* \"Token.sol\":680:780  function decimals() public view virtual override returns (uint8) {... */\n    tag_41:\n        /* \"Token.sol\":738:743  uint8 */\n      0x00\n        /* \"Token.sol\":763:772  _decimals */\n      0x05\n      0x14\n      swap1\n      sload\n      swap1\n      0x0100\n      exp\n      swap1\n      div\n      0xff\n      and\n        /* \"Token.sol\":756:772  return _decimals */\n      swap1\n      pop\n        /* \"Token.sol\":680:780  function decimals() public view virtual override returns (uint8) {... */\n      swap1\n      jump\t// out\n        /* \"Token.sol\":788:883  function mint(address to, uint256 amount) public onlyOwner {... */\n    tag_46:\n        /* \"@openzeppelin/contracts/access/Ownable.sol\":1531:1544  _checkOwner() */\n      tag_100\n        /* \"@openzeppelin/contracts/access/Ownable.sol\":1531:1542  _checkOwner */\n      tag_101\n        /* \"@openzeppelin/contracts/access/Ownable.sol\":1531:1544  _checkOwner() */\n      jump\t// in\n    tag_100:\n        /* \"Token.sol\":858:875  _mint(to, amount) */\n      tag_103\n        /* \"Token.sol\":864:866  to */\n      dup3\n        /* \"Token.sol\":868:874  amount */\n      dup3\n        /* \"Token.sol\":858:863  _mint */\n      tag_104\n        /* \"Token.sol\":858:875  _mint(to, amount) */\n      jump\t// in\n    tag_103:\n        /* \"Token.sol\":788:883  function mint(address to, uint256 amount) public onlyOwner {... */\n      pop\n      pop\n      jump\t// out\n        /* \"@openzeppelin/contracts/token/ERC20/ERC20.sol\":3004:3120  function balanceOf(address account) public view virtual returns (uint256) {... */\n    tag_50:\n        /* \"@openzeppelin/contracts/token/ERC20/ERC20.sol\":3069:3076  uint256 */\n      0x00\n        /* \"@openzeppelin/contracts/token/ERC20/ERC20.sol\":3095:3104  _balances */\n      dup1\n        /* \"@openzeppelin/contracts/token/ERC20/ERC20.sol\":3095:3113  _balances[account] */\n      0x00\n        /* \"@openzeppelin/contracts/token/ERC20/ERC20.sol\":3105:3112  account */\n      dup4\n        /* \"@openzeppelin/contracts/token/ERC20/ERC20.sol\":3095:3113  _balances[account] */\n      0xffffffffffffffffffffffffffffffffffffffff\n      and\n      0xffffffffffffffffffffffffffffffffffffffff\n      and\n      dup2\n      mstore\n      0x20\n      add\n      swap1\n      dup2\n      mstore\n      0x20\n      add\n      0x00\n      keccak256\n      sload\n        /* \"@openzeppelin/contracts/token/ERC20/ERC20.sol\":3088:3113  return _balances[account] */\n      swap1\n      pop\n        /* \"@openzeppelin/contracts/token/ERC20/ERC20.sol\":3004:3120  function balanceOf(address account) public view virtual returns (uint256) {... */\n      swap2\n      swap1\n      pop\n      jump\t// out\n        /* \"@openzeppelin/contracts/access/Ownable.sol\":2293:2394  function renounceOwnership() public virtual onlyOwner {... */\n    tag_53:\n        /* \"@openzeppelin/contracts/access/Ownable.sol\":1531:1544  _checkOwner() */\n      tag_107\n        /* \"@openzeppelin/contracts/access/Ownable.sol\":1531:1542  _checkOwner */\n      tag_101\n        /* \"@openzeppelin/contracts/access/Ownable.sol\":1531:1544  _checkOwner() */\n      jump\t// in\n    tag_107:\n        /* \"@openzeppelin/contracts/access/Ownable.sol\":2357:2387  _transferOwnership(address(0)) */\n      tag_109\n        /* \"@openzeppelin/contracts/access/Ownable.sol\":2384:2385  0 */\n      0x00\n        /* \"@openzeppelin/contracts/access/Ownable.sol\":2357:2375  _transferOwnership */\n      tag_110\n        /* \"@openzeppelin/contracts/access/Ownable.sol\":2357:2387  _transferOwnership(address(0)) */\n      jump\t// in\n    tag_109:\n        /* \"@openzeppelin/contracts/access/Ownable.sol\":2293:2394  function renounceOwnership() public virtual onlyOwner {... */\n      jump\t// out\n        /* \"@openzeppelin/contracts/access/Ownable.sol\":1638:1723  function owner() public view virtual returns (address) {... */\n    tag_55:\n        /* \"@openzeppelin/contracts/access/Ownable.sol\":1684:1691  address */\n      0x00\n        /* \"@openzeppelin/contracts/access/Ownable.sol\":1710:1716  _owner */\n      0x05\n      0x00\n      swap1\n      sload\n      swap1\n      0x0100\n      exp\n      swap1\n      div\n      0xffffffffffffffffffffffffffffffffffffffff\n      and\n        /* \"@openzeppelin/contracts/access/Ownable.sol\":1703:1716  return _owner */\n      swap1\n      pop\n        /* \"@openzeppelin/contracts/access/Ownable.sol\":1638:1723  function owner() public view virtual returns (address) {... */\n      swap1\n      jump\t// out\n        /* \"@openzeppelin/contracts/token/ERC20/ERC20.sol\":1981:2074  function symbol() public view virtual returns (string memory) {... */\n    tag_59:\n        /* \"@openzeppelin/contracts/token/ERC20/ERC20.sol\":2028:2041  string memory */\n      0x60\n        /* \"@openzeppelin/contracts/token/ERC20/ERC20.sol\":2060:2067  _symbol */\n      0x04\n        /* \"@openzeppelin/contracts/token/ERC20/ERC20.sol\":2053:2067  return _symbol */\n      dup1\n      sload\n      tag_113\n      swap1\n      tag_81\n      jump\t// in\n    tag_113:\n      dup1\n      0x1f\n      add\n      0x20\n      dup1\n      swap2\n      div\n      mul\n      0x20\n      add\n      mload(0x40)\n      swap1\n      dup2\n      add\n      0x40\n      mstore\n      dup1\n      swap3\n      swap2\n      swap1\n      dup2\n      dup2\n      mstore\n      0x20\n      add\n      dup3\n      dup1\n      sload\n      tag_114\n      swap1\n      tag_81\n      jump\t// in\n    tag_114:\n      dup1\n      iszero\n      tag_115\n      jumpi\n      dup1\n      0x1f\n      lt\n      tag_116\n      jumpi\n      0x0100\n      dup1\n      dup4\n      sload\n      div\n      mul\n      dup4\n      mstore\n      swap2\n      0x20\n      add\n      swap2\n      jump(tag_115)\n    tag_116:\n      dup3\n      add\n      swap2\n      swap1\n      0x00\n      mstore\n      keccak256(0x00, 0x20)\n      swap1\n    tag_117:\n      dup2\n      sload\n      dup2\n      mstore\n      swap1\n      0x01\n      add\n      swap1\n      0x20\n      add\n      dup1\n      dup4\n      gt\n      tag_117\n      jumpi\n      dup3\n      swap1\n      sub\n      0x1f\n      and\n      dup3\n      add\n      swap2\n    tag_115:\n      pop\n      pop\n      pop\n      pop\n      pop\n      swap1\n      pop\n        /* \"@openzeppelin/contracts/token/ERC20/ERC20.sol\":1981:2074  function symbol() public view virtual returns (string memory) {... */\n      swap1\n      jump\t// out\n        /* \"Token.sol\":891:990  function burn(address from, uint256 amount) public onlyOwner {... */\n    tag_63:\n        /* \"@openzeppelin/contracts/access/Ownable.sol\":1531:1544  _checkOwner() */\n      tag_119\n        /* \"@openzeppelin/contracts/access/Ownable.sol\":1531:1542  _checkOwner */\n      tag_101\n        /* \"@openzeppelin/contracts/access/Ownable.sol\":1531:1544  _checkOwner() */\n      jump\t// in\n    tag_119:\n        /* \"Token.sol\":963:982  _burn(from, amount) */\n      tag_121\n        /* \"Token.sol\":969:973  from */\n      dup3\n        /* \"Token.sol\":975:981  amount */\n      dup3\n        /* \"Token.sol\":963:968  _burn */\n      tag_122\n        /* \"Token.sol\":963:982  _burn(from, amount) */\n      jump\t// in\n    tag_121:\n        /* \"Token.sol\":891:990  function burn(address from, uint256 amount) public onlyOwner {... */\n      pop\n      pop\n      jump\t// out\n        /* \"@openzeppelin/contracts/token/ERC20/ERC20.sol\":3315:3493  function transfer(address to, uint256 value) public virtual returns (bool) {... */\n    tag_66:\n        /* \"@openzeppelin/contracts/token/ERC20/ERC20.sol\":3384:3388  bool */\n      0x00\n        /* \"@openzeppelin/contracts/token/ERC20/ERC20.sol\":3400:3413  address owner */\n      dup1\n        /* \"@openzeppelin/contracts/token/ERC20/ERC20.sol\":3416:3428  _msgSender() */\n      tag_124\n        /* \"@openzeppelin/contracts/token/ERC20/ERC20.sol\":3416:3426  _msgSender */\n      tag_88\n        /* \"@openzeppelin/contracts/token/ERC20/ERC20.sol\":3416:3428  _msgSender() */\n      jump\t// in\n    tag_124:\n        /* \"@openzeppelin/contracts/token/ERC20/ERC20.sol\":3400:3428  address owner = _msgSender() */\n      swap1\n      pop\n        /* \"@openzeppelin/contracts/token/ERC20/ERC20.sol\":3438:3465  _transfer(owner, to, value) */\n      tag_125\n        /* \"@openzeppelin/contracts/token/ERC20/ERC20.sol\":3448:3453  owner */\n      dup2\n        /* \"@openzeppelin/contracts/token/ERC20/ERC20.sol\":3455:3457  to */\n      dup6\n        /* \"@openzeppelin/contracts/token/ERC20/ERC20.sol\":3459:3464  value */\n      dup6\n        /* \"@openzeppelin/contracts/token/ERC20/ERC20.sol\":3438:3447  _transfer */\n      tag_97\n        /* \"@openzeppelin/contracts/token/ERC20/ERC20.sol\":3438:3465  _transfer(owner, to, value) */\n      jump\t// in\n    tag_125:\n        /* \"@openzeppelin/contracts/token/ERC20/ERC20.sol\":3482:3486  true */\n      0x01\n        /* \"@openzeppelin/contracts/token/ERC20/ERC20.sol\":3475:3486  return true */\n      swap2\n      pop\n      pop\n        /* \"@openzeppelin/contracts/token/ERC20/ERC20.sol\":3315:3493  function transfer(address to, uint256 value) public virtual returns (bool) {... */\n      swap3\n      swap2\n      pop\n      pop\n      jump\t// out\n        /* \"@openzeppelin/contracts/token/ERC20/ERC20.sol\":3551:3691  function allowance(address owner, address spender) public view virtual returns (uint256) {... */\n    tag_71:\n        /* \"@openzeppelin/contracts/token/ERC20/ERC20.sol\":3631:3638  uint256 */\n      0x00\n        /* \"@openzeppelin/contracts/token/ERC20/ERC20.sol\":3657:3668  _allowances */\n      0x01\n        /* \"@openzeppelin/contracts/token/ERC20/ERC20.sol\":3657:3675  _allowances[owner] */\n      0x00\n        /* \"@openzeppelin/contracts/token/ERC20/ERC20.sol\":3669:3674  owner */\n      dup5\n        /* \"@openzeppelin/contracts/token/ERC20/ERC20.sol\":3657:3675  _allowances[owner] */\n      0xffffffffffffffffffffffffffffffffffffffff\n      and\n      0xffffffffffffffffffffffffffffffffffffffff\n      and\n      dup2\n      mstore\n      0x20\n      add\n      swap1\n      dup2\n      mstore\n      0x20\n      add\n      0x00\n      keccak256\n        /* \"@openzeppelin/contracts/token/ERC20/ERC20.sol\":3657:3684  _allowances[owner][spender] */\n      0x00\n        /* \"@openzeppelin/contracts/token/ERC20/ERC20.sol\":3676:3683  spender */\n      dup4\n        /* \"@openzeppelin/contracts/token/ERC20/ERC20.sol\":3657:3684  _allowances[owner][spender] */\n      0xffffffffffffffffffffffffffffffffffffffff\n      and\n      0xffffffffffffffffffffffffffffffffffffffff\n      and\n      dup2\n      mstore\n      0x20\n      add\n      swap1\n      dup2\n      mstore\n      0x20\n      add\n      0x00\n      keccak256\n      sload\n        /* \"@openzeppelin/contracts/token/ERC20/ERC20.sol\":3650:3684  return _allowances[owner][spender] */\n      swap1\n      pop\n        /* \"@openzeppelin/contracts/token/ERC20/ERC20.sol\":3551:3691  function allowance(address owner, address spender) public view virtual returns (uint256) {... */\n      swap3\n      swap2\n      pop\n      pop\n      jump\t// out\n        /* \"@openzeppelin/contracts/access/Ownable.sol\":2543:2758  function transferOwnership(address newOwner) public virtual onlyOwner {... */\n    tag_75:\n        /* \"@openzeppelin/contracts/access/Ownable.sol\":1531:1544  _checkOwner() */\n      tag_128\n        /* \"@openzeppelin/contracts/access/Ownable.sol\":1531:1542  _checkOwner */\n      tag_101\n        /* \"@openzeppelin/contracts/access/Ownable.sol\":1531:1544  _checkOwner() */\n      jump\t// in\n    tag_128:\n        /* \"@openzeppelin/contracts/access/Ownable.sol\":2647:2648  0 */\n      0x00\n        /* \"@openzeppelin/contracts/access/Ownable.sol\":2627:2649  newOwner == address(0) */\n      0xffffffffffffffffffffffffffffffffffffffff\n      and\n        /* \"@openzeppelin/contracts/access/Ownable.sol\":2627:2635  newOwner */\n      dup2\n        /* \"@openzeppelin/contracts/access/Ownable.sol\":2627:2649  newOwner == address(0) */\n      0xffffffffffffffffffffffffffffffffffffffff\n      and\n      sub\n        /* \"@openzeppelin/contracts/access/Ownable.sol\":2623:2714  if (newOwner == address(0)) {... */\n      tag_130\n      jumpi\n        /* \"@openzeppelin/contracts/access/Ownable.sol\":2700:2701  0 */\n      0x00\n        /* \"@openzeppelin/contracts/access/Ownable.sol\":2672:2703  OwnableInvalidOwner(address(0)) */\n      mload(0x40)\n      0x1e4fbdf700000000000000000000000000000000000000000000000000000000\n      dup2\n      mstore\n      0x04\n      add\n      tag_131\n      swap2\n      swap1\n      tag_57\n      jump\t// in\n    tag_131:\n      mload(0x40)\n      dup1\n      swap2\n      sub\n      swap1\n      revert\n        /* \"@openzeppelin/contracts/access/Ownable.sol\":2623:2714  if (newOwner == address(0)) {... */\n    tag_130:\n        /* \"@openzeppelin/contracts/access/Ownable.sol\":2723:2751  _transferOwnership(newOwner) */\n      tag_132\n        /* \"@openzeppelin/contracts/access/Ownable.sol\":2742:2750  newOwner */\n      dup2\n        /* \"@openzeppelin/contracts/access/Ownable.sol\":2723:2741  _transferOwnership */\n      tag_110\n        /* \"@openzeppelin/contracts/access/Ownable.sol\":2723:2751  _transferOwnership(newOwner) */\n      jump\t// in\n    tag_132:\n        /* \"@openzeppelin/contracts/access/Ownable.sol\":2543:2758  function transferOwnership(address newOwner) public virtual onlyOwner {... */\n      pop\n      jump\t// out\n        /* \"Token.sol\":243:268  uint256 public priceInEth */\n    tag_77:\n      sload(0x06)\n      dup2\n      jump\t// out\n        /* \"@openzeppelin/contracts/utils/Context.sol\":656:752  function _msgSender() internal view virtual returns (address) {... */\n    tag_88:\n        /* \"@openzeppelin/contracts/utils/Context.sol\":709:716  address */\n      0x00\n        /* \"@openzeppelin/contracts/utils/Context.sol\":735:745  msg.sender */\n      caller\n        /* \"@openzeppelin/contracts/utils/Context.sol\":728:745  return msg.sender */\n      swap1\n      pop\n        /* \"@openzeppelin/contracts/utils/Context.sol\":656:752  function _msgSender() internal view virtual returns (address) {... */\n      swap1\n      jump\t// out\n        /* \"@openzeppelin/contracts/token/ERC20/ERC20.sol\":8726:8854  function _approve(address owner, address spender, uint256 value) internal {... */\n    tag_90:\n        /* \"@openzeppelin/contracts/token/ERC20/ERC20.sol\":8810:8847  _approve(owner, spender, value, true) */\n      tag_135\n        /* \"@openzeppelin/contracts/token/ERC20/ERC20.sol\":8819:8824  owner */\n      dup4\n        /* \"@openzeppelin/contracts/token/ERC20/ERC20.sol\":8826:8833  spender */\n      dup4\n        /* \"@openzeppelin/contracts/token/ERC20/ERC20.sol\":8835:8840  value */\n      dup4\n        /* \"@openzeppelin/contracts/token/ERC20/ERC20.sol\":8842:8846  true */\n      0x01\n        /* \"@openzeppelin/contracts/token/ERC20/ERC20.sol\":8810:8818  _approve */\n      tag_136\n        /* \"@openzeppelin/contracts/token/ERC20/ERC20.sol\":8810:8847  _approve(owner, spender, value, true) */\n      jump\t// in\n    tag_135:\n        /* \"@openzeppelin/contracts/token/ERC20/ERC20.sol\":8726:8854  function _approve(address owner, address spender, uint256 value) internal {... */\n      pop\n      pop\n      pop\n      jump\t// out\n        /* \"@openzeppelin/contracts/token/ERC20/ERC20.sol\":10415:10891  function _spendAllowance(address owner, address spender, uint256 value) internal virtual {... */\n    tag_95:\n        /* \"@openzeppelin/contracts/token/ERC20/ERC20.sol\":10514:10538  uint256 currentAllowance */\n      0x00\n        /* \"@openzeppelin/contracts/token/ERC20/ERC20.sol\":10541:10566  allowance(owner, spender) */\n      tag_138\n        /* \"@openzeppelin/contracts/token/ERC20/ERC20.sol\":10551:10556  owner */\n      dup5\n        /* \"@openzeppelin/contracts/token/ERC20/ERC20.sol\":10558:10565  spender */\n      dup5\n        /* \"@openzeppelin/contracts/token/ERC20/ERC20.sol\":10541:10550  allowance */\n      tag_71\n        /* \"@openzeppelin/contracts/token/ERC20/ERC20.sol\":10541:10566  allowance(owner, spender) */\n      jump\t// in\n    tag_138:\n        /* \"@openzeppelin/contracts/token/ERC20/ERC20.sol\":10514:10566  uint256 currentAllowance = allowance(owner, spender) */\n      swap1\n      pop\n        /* \"@openzeppelin/contracts/token/ERC20/ERC20.sol\":10599:10616  type(uint256).max */\n      0xffffffffffffffffffffffffffffffffffffffffffffffffffffffffffffffff\n        /* \"@openzeppelin/contracts/token/ERC20/ERC20.sol\":10580:10596  currentAllowance */\n      dup2\n        /* \"@openzeppelin/contracts/token/ERC20/ERC20.sol\":10580:10616  currentAllowance < type(uint256).max */\n      lt\n        /* \"@openzeppelin/contracts/token/ERC20/ERC20.sol\":10576:10885  if (currentAllowance < type(uint256).max) {... */\n      iszero\n      tag_139\n      jumpi\n        /* \"@openzeppelin/contracts/token/ERC20/ERC20.sol\":10655:10660  value */\n      dup2\n        /* \"@openzeppelin/contracts/token/ERC20/ERC20.sol\":10636:10652  currentAllowance */\n      dup2\n        /* \"@openzeppelin/contracts/token/ERC20/ERC20.sol\":10636:10660  currentAllowance < value */\n      lt\n        /* \"@openzeppelin/contracts/token/ERC20/ERC20.sol\":10632:10762  if (currentAllowance < value) {... */\n      iszero\n      tag_140\n      jumpi\n        /* \"@openzeppelin/contracts/token/ERC20/ERC20.sol\":10714:10721  spender */\n      dup3\n        /* \"@openzeppelin/contracts/token/ERC20/ERC20.sol\":10723:10739  currentAllowance */\n      dup2\n        /* \"@openzeppelin/contracts/token/ERC20/ERC20.sol\":10741:10746  value */\n      dup4\n        /* \"@openzeppelin/contracts/token/ERC20/ERC20.sol\":10687:10747  ERC20InsufficientAllowance(spender, currentAllowance, value) */\n      mload(0x40)\n      0xfb8f41b200000000000000000000000000000000000000000000000000000000\n      dup2\n      mstore\n      0x04\n      add\n      tag_141\n      swap4\n      swap3\n      swap2\n      swap1\n      tag_142\n      jump\t// in\n    tag_141:\n      mload(0x40)\n      dup1\n      swap2\n      sub\n      swap1\n      revert\n        /* \"@openzeppelin/contracts/token/ERC20/ERC20.sol\":10632:10762  if (currentAllowance < value) {... */\n    tag_140:\n        /* \"@openzeppelin/contracts/token/ERC20/ERC20.sol\":10803:10860  _approve(owner, spender, currentAllowance - value, false) */\n      tag_143\n        /* \"@openzeppelin/contracts/token/ERC20/ERC20.sol\":10812:10817  owner */\n      dup5\n        /* \"@openzeppelin/contracts/token/ERC20/ERC20.sol\":10819:10826  spender */\n      dup5\n        /* \"@openzeppelin/contracts/token/ERC20/ERC20.sol\":10847:10852  value */\n      dup5\n        /* \"@openzeppelin/contracts/token/ERC20/ERC20.sol\":10828:10844  currentAllowance */\n      dup5\n        /* \"@openzeppelin/contracts/token/ERC20/ERC20.sol\":10828:10852  currentAllowance - value */\n      sub\n        /* \"@openzeppelin/contracts/token/ERC20/ERC20.sol\":10854:10859  false */\n      0x00\n        /* \"@openzeppelin/contracts/token/ERC20/ERC20.sol\":10803:10811  _approve */\n      tag_136\n        /* \"@openzeppelin/contracts/token/ERC20/ERC20.sol\":10803:10860  _approve(owner, spender, currentAllowance - value, false) */\n      jump\t// in\n    tag_143:\n        /* \"@openzeppelin/contracts/token/ERC20/ERC20.sol\":10576:10885  if (currentAllowance < type(uint256).max) {... */\n    tag_139:\n        /* \"@openzeppelin/contracts/token/ERC20/ERC20.sol\":10504:10891  {... */\n      pop\n        /* \"@openzeppelin/contracts/token/ERC20/ERC20.sol\":10415:10891  function _spendAllowance(address owner, address spender, uint256 value) internal virtual {... */\n      pop\n      pop\n      pop\n      jump\t// out\n        /* \"@openzeppelin/contracts/token/ERC20/ERC20.sol\":5393:5693  function _transfer(address from, address to, uint256 value) internal {... */\n    tag_97:\n        /* \"@openzeppelin/contracts/token/ERC20/ERC20.sol\":5492:5493  0 */\n      0x00\n        /* \"@openzeppelin/contracts/token/ERC20/ERC20.sol\":5476:5494  from == address(0) */\n      0xffffffffffffffffffffffffffffffffffffffff\n      and\n        /* \"@openzeppelin/contracts/token/ERC20/ERC20.sol\":5476:5480  from */\n      dup4\n        /* \"@openzeppelin/contracts/token/ERC20/ERC20.sol\":5476:5494  from == address(0) */\n      0xffffffffffffffffffffffffffffffffffffffff\n      and\n      sub\n        /* \"@openzeppelin/contracts/token/ERC20/ERC20.sol\":5472:5558  if (from == address(0)) {... */\n      tag_145\n      jumpi\n        /* \"@openzeppelin/contracts/token/ERC20/ERC20.sol\":5544:5545  0 */\n      0x00\n        /* \"@openzeppelin/contracts/token/ERC20/ERC20.sol\":5517:5547  ERC20InvalidSender(address(0)) */\n      mload(0x40)\n      0x96c6fd1e00000000000000000000000000000000000000000000000000000000\n      dup2\n      mstore\n      0x04\n      add\n      tag_146\n      swap2\n      swap1\n      tag_57\n      jump\t// in\n    tag_146:\n      mload(0x40)\n      dup1\n      swap2\n      sub\n      swap1\n      revert\n        /* \"@openzeppelin/contracts/token/ERC20/ERC20.sol\":5472:5558  if (from == address(0)) {... */\n    tag_145:\n        /* \"@openzeppelin/contracts/token/ERC20/ERC20.sol\":5585:5586  0 */\n      0x00\n        /* \"@openzeppelin/contracts/token/ERC20/ERC20.sol\":5571:5587  to == address(0) */\n      0xffffffffffffffffffffffffffffffffffffffff\n      and\n        /* \"@openzeppelin/contracts/token/ERC20/ERC20.sol\":5571:5573  to */\n      dup3\n        /* \"@openzeppelin/contracts/token/ERC20/ERC20.sol\":5571:5587  to == address(0) */\n      0xffffffffffffffffffffffffffffffffffffffff\n      and\n      sub\n        /* \"@openzeppelin/contracts/token/ERC20/ERC20.sol\":5567:5653  if (to == address(0)) {... */\n      tag_147\n      jumpi\n        /* \"@openzeppelin/contracts/token/ERC20/ERC20.sol\":5639:5640  0 */\n      0x00\n        /* \"@openzeppelin/contracts/token/ERC20/ERC20.sol\":5610:5642  ERC20InvalidReceiver(address(0)) */\n      mload(0x40)\n      0xec442f0500000000000000000000000000000000000000000000000000000000\n      dup2\n      mstore\n      0x04\n      add\n      tag_148\n      swap2\n      swap1\n      tag_57\n      jump\t// in\n    tag_148:\n      mload(0x40)\n      dup1\n      swap2\n      sub\n      swap1\n      revert\n        /* \"@openzeppelin/contracts/token/ERC20/ERC20.sol\":5567:5653  if (to == address(0)) {... */\n    tag_147:\n        /* \"@openzeppelin/contracts/token/ERC20/ERC20.sol\":5662:5686  _update(from, to, value) */\n      tag_149\n        /* \"@openzeppelin/contracts/token/ERC20/ERC20.sol\":5670:5674  from */\n      dup4\n        /* \"@openzeppelin/contracts/token/ERC20/ERC20.sol\":5676:5678  to */\n      dup4\n        /* \"@openzeppelin/contracts/token/ERC20/ERC20.sol\":5680:5685  value */\n      dup4\n        /* \"@openzeppelin/contracts/token/ERC20/ERC20.sol\":5662:5669  _update */\n      tag_150\n        /* \"@openzeppelin/contracts/token/ERC20/ERC20.sol\":5662:5686  _update(from, to, value) */\n      jump\t// in\n    tag_149:\n        /* \"@openzeppelin/contracts/token/ERC20/ERC20.sol\":5393:5693  function _transfer(address from, address to, uint256 value) internal {... */\n      pop\n      pop\n      pop\n      jump\t// out\n        /* \"@openzeppelin/contracts/access/Ownable.sol\":1796:1958  function _checkOwner() internal view virtual {... */\n    tag_101:\n        /* \"@openzeppelin/contracts/access/Ownable.sol\":1866:1878  _msgSender() */\n      tag_152\n        /* \"@openzeppelin/contracts/access/Ownable.sol\":1866:1876  _msgSender */\n      tag_88\n        /* \"@openzeppelin/contracts/access/Ownable.sol\":1866:1878  _msgSender() */\n      jump\t// in\n    tag_152:\n        /* \"@openzeppelin/contracts/access/Ownable.sol\":1855:1878  owner() != _msgSender() */\n      0xffffffffffffffffffffffffffffffffffffffff\n      and\n        /* \"@openzeppelin/contracts/access/Ownable.sol\":1855:1862  owner() */\n      tag_153\n        /* \"@openzeppelin/contracts/access/Ownable.sol\":1855:1860  owner */\n      tag_55\n        /* \"@openzeppelin/contracts/access/Ownable.sol\":1855:1862  owner() */\n      jump\t// in\n    tag_153:\n        /* \"@openzeppelin/contracts/access/Ownable.sol\":1855:1878  owner() != _msgSender() */\n      0xffffffffffffffffffffffffffffffffffffffff\n      and\n      eq\n        /* \"@openzeppelin/contracts/access/Ownable.sol\":1851:1952  if (owner() != _msgSender()) {... */\n      tag_154\n      jumpi\n        /* \"@openzeppelin/contracts/access/Ownable.sol\":1928:1940  _msgSender() */\n      tag_155\n        /* \"@openzeppelin/contracts/access/Ownable.sol\":1928:1938  _msgSender */\n      tag_88\n        /* \"@openzeppelin/contracts/access/Ownable.sol\":1928:1940  _msgSender() */\n      jump\t// in\n    tag_155:\n        /* \"@openzeppelin/contracts/access/Ownable.sol\":1901:1941  OwnableUnauthorizedAccount(_msgSender()) */\n      mload(0x40)\n      0x118cdaa700000000000000000000000000000000000000000000000000000000\n      dup2\n      mstore\n      0x04\n      add\n      tag_156\n      swap2\n      swap1\n      tag_57\n      jump\t// in\n    tag_156:\n      mload(0x40)\n      dup1\n      swap2\n      sub\n      swap1\n      revert\n        /* \"@openzeppelin/contracts/access/Ownable.sol\":1851:1952  if (owner() != _msgSender()) {... */\n    tag_154:\n        /* \"@openzeppelin/contracts/access/Ownable.sol\":1796:1958  function _checkOwner() internal view virtual {... */\n      jump\t// out\n        /* \"@openzeppelin/contracts/token/ERC20/ERC20.sol\":7458:7666  function _mint(address account, uint256 value) internal {... */\n    tag_104:\n        /* \"@openzeppelin/contracts/token/ERC20/ERC20.sol\":7547:7548  0 */\n      0x00\n        /* \"@openzeppelin/contracts/token/ERC20/ERC20.sol\":7528:7549  account == address(0) */\n      0xffffffffffffffffffffffffffffffffffffffff\n      and\n        /* \"@openzeppelin/contracts/token/ERC20/ERC20.sol\":7528:7535  account */\n      dup3\n        /* \"@openzeppelin/contracts/token/ERC20/ERC20.sol\":7528:7549  account == address(0) */\n      0xffffffffffffffffffffffffffffffffffffffff\n      and\n      sub\n        /* \"@openzeppelin/contracts/token/ERC20/ERC20.sol\":7524:7615  if (account == address(0)) {... */\n      tag_158\n      jumpi\n        /* \"@openzeppelin/contracts/token/ERC20/ERC20.sol\":7601:7602  0 */\n      0x00\n        /* \"@openzeppelin/contracts/token/ERC20/ERC20.sol\":7572:7604  ERC20InvalidReceiver(address(0)) */\n      mload(0x40)\n      0xec442f0500000000000000000000000000000000000000000000000000000000\n      dup2\n      mstore\n      0x04\n      add\n      tag_159\n      swap2\n      swap1\n      tag_57\n      jump\t// in\n    tag_159:\n      mload(0x40)\n      dup1\n      swap2\n      sub\n      swap1\n      revert\n        /* \"@openzeppelin/contracts/token/ERC20/ERC20.sol\":7524:7615  if (account == address(0)) {... */\n    tag_158:\n        /* \"@openzeppelin/contracts/token/ERC20/ERC20.sol\":7624:7659  _update(address(0), account, value) */\n      tag_160\n        /* \"@openzeppelin/contracts/token/ERC20/ERC20.sol\":7640:7641  0 */\n      0x00\n        /* \"@openzeppelin/contracts/token/ERC20/ERC20.sol\":7644:7651  account */\n      dup4\n        /* \"@openzeppelin/contracts/token/ERC20/ERC20.sol\":7653:7658  value */\n      dup4\n        /* \"@openzeppelin/contracts/token/ERC20/ERC20.sol\":7624:7631  _update */\n      tag_150\n        /* \"@openzeppelin/contracts/token/ERC20/ERC20.sol\":7624:7659  _update(address(0), account, value) */\n      jump\t// in\n    tag_160:\n        /* \"@openzeppelin/contracts/token/ERC20/ERC20.sol\":7458:7666  function _mint(address account, uint256 value) internal {... */\n      pop\n      pop\n      jump\t// out\n        /* \"@openzeppelin/contracts/access/Ownable.sol\":2912:3099  function _transferOwnership(address newOwner) internal virtual {... */\n    tag_110:\n        /* \"@openzeppelin/contracts/access/Ownable.sol\":2985:3001  address oldOwner */\n      0x00\n        /* \"@openzeppelin/contracts/access/Ownable.sol\":3004:3010  _owner */\n      0x05\n      0x00\n      swap1\n      sload\n      swap1\n      0x0100\n      exp\n      swap1\n      div\n      0xffffffffffffffffffffffffffffffffffffffff\n      and\n        /* \"@openzeppelin/contracts/access/Ownable.sol\":2985:3010  address oldOwner = _owner */\n      swap1\n      pop\n        /* \"@openzeppelin/contracts/access/Ownable.sol\":3029:3037  newOwner */\n      dup2\n        /* \"@openzeppelin/contracts/access/Ownable.sol\":3020:3026  _owner */\n      0x05\n      0x00\n        /* \"@openzeppelin/contracts/access/Ownable.sol\":3020:3037  _owner = newOwner */\n      0x0100\n      exp\n      dup2\n      sload\n      dup2\n      0xffffffffffffffffffffffffffffffffffffffff\n      mul\n      not\n      and\n      swap1\n      dup4\n      0xffffffffffffffffffffffffffffffffffffffff\n      and\n      mul\n      or\n      swap1\n      sstore\n      pop\n        /* \"@openzeppelin/contracts/access/Ownable.sol\":3083:3091  newOwner */\n      dup2\n        /* \"@openzeppelin/contracts/access/Ownable.sol\":3052:3092  OwnershipTransferred(oldOwner, newOwner) */\n      0xffffffffffffffffffffffffffffffffffffffff\n      and\n        /* \"@openzeppelin/contracts/access/Ownable.sol\":3073:3081  oldOwner */\n      dup2\n        /* \"@openzeppelin/contracts/access/Ownable.sol\":3052:3092  OwnershipTransferred(oldOwner, newOwner) */\n      0xffffffffffffffffffffffffffffffffffffffff\n      and\n      0x8be0079c531659141344cd1fd0a4f28419497f9722a3daafe3b4186f6b6457e0\n      mload(0x40)\n      mload(0x40)\n      dup1\n      swap2\n      sub\n      swap1\n      log3\n        /* \"@openzeppelin/contracts/access/Ownable.sol\":2975:3099  {... */\n      pop\n        /* \"@openzeppelin/contracts/access/Ownable.sol\":2912:3099  function _transferOwnership(address newOwner) internal virtual {... */\n      pop\n      jump\t// out\n        /* \"@openzeppelin/contracts/token/ERC20/ERC20.sol\":7984:8190  function _burn(address account, uint256 value) internal {... */\n    tag_122:\n        /* \"@openzeppelin/contracts/token/ERC20/ERC20.sol\":8073:8074  0 */\n      0x00\n        /* \"@openzeppelin/contracts/token/ERC20/ERC20.sol\":8054:8075  account == address(0) */\n      0xffffffffffffffffffffffffffffffffffffffff\n      and\n        /* \"@openzeppelin/contracts/token/ERC20/ERC20.sol\":8054:8061  account */\n      dup3\n        /* \"@openzeppelin/contracts/token/ERC20/ERC20.sol\":8054:8075  account == address(0) */\n      0xffffffffffffffffffffffffffffffffffffffff\n      and\n      sub\n        /* \"@openzeppelin/contracts/token/ERC20/ERC20.sol\":8050:8139  if (account == address(0)) {... */\n      tag_163\n      jumpi\n        /* \"@openzeppelin/contracts/token/ERC20/ERC20.sol\":8125:8126  0 */\n      0x00\n        /* \"@openzeppelin/contracts/token/ERC20/ERC20.sol\":8098:8128  ERC20InvalidSender(address(0)) */\n      mload(0x40)\n      0x96c6fd1e00000000000000000000000000000000000000000000000000000000\n      dup2\n      mstore\n      0x04\n      add\n      tag_164\n      swap2\n      swap1\n      tag_57\n      jump\t// in\n    tag_164:\n      mload(0x40)\n      dup1\n      swap2\n      sub\n      swap1\n      revert\n        /* \"@openzeppelin/contracts/token/ERC20/ERC20.sol\":8050:8139  if (account == address(0)) {... */\n    tag_163:\n        /* \"@openzeppelin/contracts/token/ERC20/ERC20.sol\":8148:8183  _update(account, address(0), value) */\n      tag_165\n        /* \"@openzeppelin/contracts/token/ERC20/ERC20.sol\":8156:8163  account */\n      dup3\n        /* \"@openzeppelin/contracts/token/ERC20/ERC20.sol\":8173:8174  0 */\n      0x00\n        /* \"@openzeppelin/contracts/token/ERC20/ERC20.sol\":8177:8182  value */\n      dup4\n        /* \"@openzeppelin/contracts/token/ERC20/ERC20.sol\":8148:8155  _update */\n      tag_150\n        /* \"@openzeppelin/contracts/token/ERC20/ERC20.sol\":8148:8183  _update(account, address(0), value) */\n      jump\t// in\n    tag_165:\n        /* \"@openzeppelin/contracts/token/ERC20/ERC20.sol\":7984:8190  function _burn(address account, uint256 value) internal {... */\n      pop\n      pop\n      jump\t// out\n        /* \"@openzeppelin/contracts/token/ERC20/ERC20.sol\":9701:10133  function _approve(address owner, address spender, uint256 value, bool emitEvent) internal virtual {... */\n    tag_136:\n        /* \"@openzeppelin/contracts/token/ERC20/ERC20.sol\":9830:9831  0 */\n      0x00\n        /* \"@openzeppelin/contracts/token/ERC20/ERC20.sol\":9813:9832  owner == address(0) */\n      0xffffffffffffffffffffffffffffffffffffffff\n      and\n        /* \"@openzeppelin/contracts/token/ERC20/ERC20.sol\":9813:9818  owner */\n      dup5\n        /* \"@openzeppelin/contracts/token/ERC20/ERC20.sol\":9813:9832  owner == address(0) */\n      0xffffffffffffffffffffffffffffffffffffffff\n      and\n      sub\n        /* \"@openzeppelin/contracts/token/ERC20/ERC20.sol\":9809:9898  if (owner == address(0)) {... */\n      tag_167\n      jumpi\n        /* \"@openzeppelin/contracts/token/ERC20/ERC20.sol\":9884:9885  0 */\n      0x00\n        /* \"@openzeppelin/contracts/token/ERC20/ERC20.sol\":9855:9887  ERC20InvalidApprover(address(0)) */\n      mload(0x40)\n      0xe602df0500000000000000000000000000000000000000000000000000000000\n      dup2\n      mstore\n      0x04\n      add\n      tag_168\n      swap2\n      swap1\n      tag_57\n      jump\t// in\n    tag_168:\n      mload(0x40)\n      dup1\n      swap2\n      sub\n      swap1\n      revert\n        /* \"@openzeppelin/contracts/token/ERC20/ERC20.sol\":9809:9898  if (owner == address(0)) {... */\n    tag_167:\n        /* \"@openzeppelin/contracts/token/ERC20/ERC20.sol\":9930:9931  0 */\n      0x00\n        /* \"@openzeppelin/contracts/token/ERC20/ERC20.sol\":9911:9932  spender == address(0) */\n      0xffffffffffffffffffffffffffffffffffffffff\n      and\n        /* \"@openzeppelin/contracts/token/ERC20/ERC20.sol\":9911:9918  spender */\n      dup4\n        /* \"@openzeppelin/contracts/token/ERC20/ERC20.sol\":9911:9932  spender == address(0) */\n      0xffffffffffffffffffffffffffffffffffffffff\n      and\n      sub\n        /* \"@openzeppelin/contracts/token/ERC20/ERC20.sol\":9907:9997  if (spender == address(0)) {... */\n      tag_169\n      jumpi\n        /* \"@openzeppelin/contracts/token/ERC20/ERC20.sol\":9983:9984  0 */\n      0x00\n        /* \"@openzeppelin/contracts/token/ERC20/ERC20.sol\":9955:9986  ERC20InvalidSpender(address(0)) */\n      mload(0x40)\n      0x94280d6200000000000000000000000000000000000000000000000000000000\n      dup2\n      mstore\n      0x04\n      add\n      tag_170\n      swap2\n      swap1\n      tag_57\n      jump\t// in\n    tag_170:\n      mload(0x40)\n      dup1\n      swap2\n      sub\n      swap1\n      revert\n        /* \"@openzeppelin/contracts/token/ERC20/ERC20.sol\":9907:9997  if (spender == address(0)) {... */\n    tag_169:\n        /* \"@openzeppelin/contracts/token/ERC20/ERC20.sol\":10036:10041  value */\n      dup2\n        /* \"@openzeppelin/contracts/token/ERC20/ERC20.sol\":10006:10017  _allowances */\n      0x01\n        /* \"@openzeppelin/contracts/token/ERC20/ERC20.sol\":10006:10024  _allowances[owner] */\n      0x00\n        /* \"@openzeppelin/contracts/token/ERC20/ERC20.sol\":10018:10023  owner */\n      dup7\n        /* \"@openzeppelin/contracts/token/ERC20/ERC20.sol\":10006:10024  _allowances[owner] */\n      0xffffffffffffffffffffffffffffffffffffffff\n      and\n      0xffffffffffffffffffffffffffffffffffffffff\n      and\n      dup2\n      mstore\n      0x20\n      add\n      swap1\n      dup2\n      mstore\n      0x20\n      add\n      0x00\n      keccak256\n        /* \"@openzeppelin/contracts/token/ERC20/ERC20.sol\":10006:10033  _allowances[owner][spender] */\n      0x00\n        /* \"@openzeppelin/contracts/token/ERC20/ERC20.sol\":10025:10032  spender */\n      dup6\n        /* \"@openzeppelin/contracts/token/ERC20/ERC20.sol\":10006:10033  _allowances[owner][spender] */\n      0xffffffffffffffffffffffffffffffffffffffff\n      and\n      0xffffffffffffffffffffffffffffffffffffffff\n      and\n      dup2\n      mstore\n      0x20\n      add\n      swap1\n      dup2\n      mstore\n      0x20\n      add\n      0x00\n      keccak256\n        /* \"@openzeppelin/contracts/token/ERC20/ERC20.sol\":10006:10041  _allowances[owner][spender] = value */\n      dup2\n      swap1\n      sstore\n      pop\n        /* \"@openzeppelin/contracts/token/ERC20/ERC20.sol\":10055:10064  emitEvent */\n      dup1\n        /* \"@openzeppelin/contracts/token/ERC20/ERC20.sol\":10051:10127  if (emitEvent) {... */\n      iszero\n      tag_171\n      jumpi\n        /* \"@openzeppelin/contracts/token/ERC20/ERC20.sol\":10101:10108  spender */\n      dup3\n        /* \"@openzeppelin/contracts/token/ERC20/ERC20.sol\":10085:10116  Approval(owner, spender, value) */\n      0xffffffffffffffffffffffffffffffffffffffff\n      and\n        /* \"@openzeppelin/contracts/token/ERC20/ERC20.sol\":10094:10099  owner */\n      dup5\n        /* \"@openzeppelin/contracts/token/ERC20/ERC20.sol\":10085:10116  Approval(owner, spender, value) */\n      0xffffffffffffffffffffffffffffffffffffffff\n      and\n      0x8c5be1e5ebec7d5bd14f71427d1e84f3dd0314c0f7b2291e5b200ac8c7c3b925\n        /* \"@openzeppelin/contracts/token/ERC20/ERC20.sol\":10110:10115  value */\n      dup5\n        /* \"@openzeppelin/contracts/token/ERC20/ERC20.sol\":10085:10116  Approval(owner, spender, value) */\n      mload(0x40)\n      tag_172\n      swap2\n      swap1\n      tag_34\n      jump\t// in\n    tag_172:\n      mload(0x40)\n      dup1\n      swap2\n      sub\n      swap1\n      log3\n        /* \"@openzeppelin/contracts/token/ERC20/ERC20.sol\":10051:10127  if (emitEvent) {... */\n    tag_171:\n        /* \"@openzeppelin/contracts/token/ERC20/ERC20.sol\":9701:10133  function _approve(address owner, address spender, uint256 value, bool emitEvent) internal virtual {... */\n      pop\n      pop\n      pop\n      pop\n      jump\t// out\n        /* \"@openzeppelin/contracts/token/ERC20/ERC20.sol\":6008:7115  function _update(address from, address to, uint256 value) internal virtual {... */\n    tag_150:\n        /* \"@openzeppelin/contracts/token/ERC20/ERC20.sol\":6113:6114  0 */\n      0x00\n        /* \"@openzeppelin/contracts/token/ERC20/ERC20.sol\":6097:6115  from == address(0) */\n      0xffffffffffffffffffffffffffffffffffffffff\n      and\n        /* \"@openzeppelin/contracts/token/ERC20/ERC20.sol\":6097:6101  from */\n      dup4\n        /* \"@openzeppelin/contracts/token/ERC20/ERC20.sol\":6097:6115  from == address(0) */\n      0xffffffffffffffffffffffffffffffffffffffff\n      and\n      sub\n        /* \"@openzeppelin/contracts/token/ERC20/ERC20.sol\":6093:6633  if (from == address(0)) {... */\n      tag_174\n      jumpi\n        /* \"@openzeppelin/contracts/token/ERC20/ERC20.sol\":6249:6254  value */\n      dup1\n        /* \"@openzeppelin/contracts/token/ERC20/ERC20.sol\":6233:6245  _totalSupply */\n      0x02\n      0x00\n        /* \"@openzeppelin/contracts/token/ERC20/ERC20.sol\":6233:6254  _totalSupply += value */\n      dup3\n      dup3\n      sload\n      tag_175\n      swap2\n      swap1\n      tag_176\n      jump\t// in\n    tag_175:\n      swap3\n      pop\n      pop\n      dup2\n      swap1\n      sstore\n      pop\n        /* \"@openzeppelin/contracts/token/ERC20/ERC20.sol\":6093:6633  if (from == address(0)) {... */\n      jump(tag_177)\n    tag_174:\n        /* \"@openzeppelin/contracts/token/ERC20/ERC20.sol\":6285:6304  uint256 fromBalance */\n      0x00\n        /* \"@openzeppelin/contracts/token/ERC20/ERC20.sol\":6307:6316  _balances */\n      dup1\n        /* \"@openzeppelin/contracts/token/ERC20/ERC20.sol\":6307:6322  _balances[from] */\n      0x00\n        /* \"@openzeppelin/contracts/token/ERC20/ERC20.sol\":6317:6321  from */\n      dup6\n        /* \"@openzeppelin/contracts/token/ERC20/ERC20.sol\":6307:6322  _balances[from] */\n      0xffffffffffffffffffffffffffffffffffffffff\n      and\n      0xffffffffffffffffffffffffffffffffffffffff\n      and\n      dup2\n      mstore\n      0x20\n      add\n      swap1\n      dup2\n      mstore\n      0x20\n      add\n      0x00\n      keccak256\n      sload\n        /* \"@openzeppelin/contracts/token/ERC20/ERC20.sol\":6285:6322  uint256 fromBalance = _balances[from] */\n      swap1\n      pop\n        /* \"@openzeppelin/contracts/token/ERC20/ERC20.sol\":6354:6359  value */\n      dup2\n        /* \"@openzeppelin/contracts/token/ERC20/ERC20.sol\":6340:6351  fromBalance */\n      dup2\n        /* \"@openzeppelin/contracts/token/ERC20/ERC20.sol\":6340:6359  fromBalance < value */\n      lt\n        /* \"@openzeppelin/contracts/token/ERC20/ERC20.sol\":6336:6451  if (fromBalance < value) {... */\n      iszero\n      tag_178\n      jumpi\n        /* \"@openzeppelin/contracts/token/ERC20/ERC20.sol\":6411:6415  from */\n      dup4\n        /* \"@openzeppelin/contracts/token/ERC20/ERC20.sol\":6417:6428  fromBalance */\n      dup2\n        /* \"@openzeppelin/contracts/token/ERC20/ERC20.sol\":6430:6435  value */\n      dup4\n        /* \"@openzeppelin/contracts/token/ERC20/ERC20.sol\":6386:6436  ERC20InsufficientBalance(from, fromBalance, value) */\n      mload(0x40)\n      0xe450d38c00000000000000000000000000000000000000000000000000000000\n      dup2\n      mstore\n      0x04\n      add\n      tag_179\n      swap4\n      swap3\n      swap2\n      swap1\n      tag_142\n      jump\t// in\n    tag_179:\n      mload(0x40)\n      dup1\n      swap2\n      sub\n      swap1\n      revert\n        /* \"@openzeppelin/contracts/token/ERC20/ERC20.sol\":6336:6451  if (fromBalance < value) {... */\n    tag_178:\n        /* \"@openzeppelin/contracts/token/ERC20/ERC20.sol\":6603:6608  value */\n      dup2\n        /* \"@openzeppelin/contracts/token/ERC20/ERC20.sol\":6589:6600  fromBalance */\n      dup2\n        /* \"@openzeppelin/contracts/token/ERC20/ERC20.sol\":6589:6608  fromBalance - value */\n      sub\n        /* \"@openzeppelin/contracts/token/ERC20/ERC20.sol\":6571:6580  _balances */\n      0x00\n        /* \"@openzeppelin/contracts/token/ERC20/ERC20.sol\":6571:6586  _balances[from] */\n      dup1\n        /* \"@openzeppelin/contracts/token/ERC20/ERC20.sol\":6581:6585  from */\n      dup7\n        /* \"@openzeppelin/contracts/token/ERC20/ERC20.sol\":6571:6586  _balances[from] */\n      0xffffffffffffffffffffffffffffffffffffffff\n      and\n      0xffffffffffffffffffffffffffffffffffffffff\n      and\n      dup2\n      mstore\n      0x20\n      add\n      swap1\n      dup2\n      mstore\n      0x20\n      add\n      0x00\n      keccak256\n        /* \"@openzeppelin/contracts/token/ERC20/ERC20.sol\":6571:6608  _balances[from] = fromBalance - value */\n      dup2\n      swap1\n      sstore\n      pop\n        /* \"@openzeppelin/contracts/token/ERC20/ERC20.sol\":6271:6633  {... */\n      pop\n        /* \"@openzeppelin/contracts/token/ERC20/ERC20.sol\":6093:6633  if (from == address(0)) {... */\n    tag_177:\n        /* \"@openzeppelin/contracts/token/ERC20/ERC20.sol\":6661:6662  0 */\n      0x00\n        /* \"@openzeppelin/contracts/token/ERC20/ERC20.sol\":6647:6663  to == address(0) */\n      0xffffffffffffffffffffffffffffffffffffffff\n      and\n        /* \"@openzeppelin/contracts/token/ERC20/ERC20.sol\":6647:6649  to */\n      dup3\n        /* \"@openzeppelin/contracts/token/ERC20/ERC20.sol\":6647:6663  to == address(0) */\n      0xffffffffffffffffffffffffffffffffffffffff\n      and\n      sub\n        /* \"@openzeppelin/contracts/token/ERC20/ERC20.sol\":6643:7068  if (to == address(0)) {... */\n      tag_180\n      jumpi\n        /* \"@openzeppelin/contracts/token/ERC20/ERC20.sol\":6826:6831  value */\n      dup1\n        /* \"@openzeppelin/contracts/token/ERC20/ERC20.sol\":6810:6822  _totalSupply */\n      0x02\n      0x00\n        /* \"@openzeppelin/contracts/token/ERC20/ERC20.sol\":6810:6831  _totalSupply -= value */\n      dup3\n      dup3\n      sload\n      sub\n      swap3\n      pop\n      pop\n      dup2\n      swap1\n      sstore\n      pop\n        /* \"@openzeppelin/contracts/token/ERC20/ERC20.sol\":6643:7068  if (to == address(0)) {... */\n      jump(tag_181)\n    tag_180:\n        /* \"@openzeppelin/contracts/token/ERC20/ERC20.sol\":7038:7043  value */\n      dup1\n        /* \"@openzeppelin/contracts/token/ERC20/ERC20.sol\":7021:7030  _balances */\n      0x00\n        /* \"@openzeppelin/contracts/token/ERC20/ERC20.sol\":7021:7034  _balances[to] */\n      dup1\n        /* \"@openzeppelin/contracts/token/ERC20/ERC20.sol\":7031:7033  to */\n      dup5\n        /* \"@openzeppelin/contracts/token/ERC20/ERC20.sol\":7021:7034  _balances[to] */\n      0xffffffffffffffffffffffffffffffffffffffff\n      and\n      0xffffffffffffffffffffffffffffffffffffffff\n      and\n      dup2\n      mstore\n      0x20\n      add\n      swap1\n      dup2\n      mstore\n      0x20\n      add\n      0x00\n      keccak256\n      0x00\n        /* \"@openzeppelin/contracts/token/ERC20/ERC20.sol\":7021:7043  _balances[to] += value */\n      dup3\n      dup3\n      sload\n      add\n      swap3\n      pop\n      pop\n      dup2\n      swap1\n      sstore\n      pop\n        /* \"@openzeppelin/contracts/token/ERC20/ERC20.sol\":6643:7068  if (to == address(0)) {... */\n    tag_181:\n        /* \"@openzeppelin/contracts/token/ERC20/ERC20.sol\":7098:7100  to */\n      dup2\n        /* \"@openzeppelin/contracts/token/ERC20/ERC20.sol\":7083:7108  Transfer(from, to, value) */\n      0xffffffffffffffffffffffffffffffffffffffff\n      and\n        /* \"@openzeppelin/contracts/token/ERC20/ERC20.sol\":7092:7096  from */\n      dup4\n        /* \"@openzeppelin/contracts/token/ERC20/ERC20.sol\":7083:7108  Transfer(from, to, value) */\n      0xffffffffffffffffffffffffffffffffffffffff\n      and\n      0xddf252ad1be2c89b69c2b068fc378daa952ba7f163c4a11628f55a4df523b3ef\n        /* \"@openzeppelin/contracts/token/ERC20/ERC20.sol\":7102:7107  value */\n      dup4\n        /* \"@openzeppelin/contracts/token/ERC20/ERC20.sol\":7083:7108  Transfer(from, to, value) */\n      mload(0x40)\n      tag_182\n      swap2\n      swap1\n      tag_34\n      jump\t// in\n    tag_182:\n      mload(0x40)\n      dup1\n      swap2\n      sub\n      swap1\n      log3\n        /* \"@openzeppelin/contracts/token/ERC20/ERC20.sol\":6008:7115  function _update(address from, address to, uint256 value) internal virtual {... */\n      pop\n      pop\n      pop\n      jump\t// out\n        /* \"#utility.yul\":7:106   */\n    tag_183:\n        /* \"#utility.yul\":59:65   */\n      0x00\n        /* \"#utility.yul\":93:98   */\n      dup2\n        /* \"#utility.yul\":87:99   */\n      mload\n        /* \"#utility.yul\":77:99   */\n      swap1\n      pop\n        /* \"#utility.yul\":7:106   */\n      swap2\n      swap1\n      pop\n      jump\t// out\n        /* \"#utility.yul\":112:281   */\n    tag_184:\n        /* \"#utility.yul\":196:207   */\n      0x00\n        /* \"#utility.yul\":230:236   */\n      dup3\n        /* \"#utility.yul\":225:228   */\n      dup3\n        /* \"#utility.yul\":218:237   */\n      mstore\n        /* \"#utility.yul\":270:274   */\n      0x20\n        /* \"#utility.yul\":265:268   */\n      dup3\n        /* \"#utility.yul\":261:275   */\n      add\n        /* \"#utility.yul\":246:275   */\n      swap1\n      pop\n        /* \"#utility.yul\":112:281   */\n      swap3\n      swap2\n      pop\n      pop\n      jump\t// out\n        /* \"#utility.yul\":287:426   */\n    tag_185:\n        /* \"#utility.yul\":376:382   */\n      dup3\n        /* \"#utility.yul\":371:374   */\n      dup2\n        /* \"#utility.yul\":366:369   */\n      dup4\n        /* \"#utility.yul\":360:383   */\n      mcopy\n        /* \"#utility.yul\":417:418   */\n      0x00\n        /* \"#utility.yul\":408:414   */\n      dup4\n        /* \"#utility.yul\":403:406   */\n      dup4\n        /* \"#utility.yul\":399:415   */\n      add\n        /* \"#utility.yul\":392:419   */\n      mstore\n        /* \"#utility.yul\":287:426   */\n      pop\n      pop\n      pop\n      jump\t// out\n        /* \"#utility.yul\":432:534   */\n    tag_186:\n        /* \"#utility.yul\":473:479   */\n      0x00\n        /* \"#utility.yul\":524:526   */\n      0x1f\n        /* \"#utility.yul\":520:527   */\n      not\n        /* \"#utility.yul\":515:517   */\n      0x1f\n        /* \"#utility.yul\":508:513   */\n      dup4\n        /* \"#utility.yul\":504:518   */\n      add\n        /* \"#utility.yul\":500:528   */\n      and\n        /* \"#utility.yul\":490:528   */\n      swap1\n      pop\n        /* \"#utility.yul\":432:534   */\n      swap2\n      swap1\n      pop\n      jump\t// out\n        /* \"#utility.yul\":540:917   */\n    tag_187:\n        /* \"#utility.yul\":628:631   */\n      0x00\n        /* \"#utility.yul\":656:695   */\n      tag_212\n        /* \"#utility.yul\":689:694   */\n      dup3\n        /* \"#utility.yul\":656:695   */\n      tag_183\n      jump\t// in\n    tag_212:\n        /* \"#utility.yul\":711:782   */\n      tag_213\n        /* \"#utility.yul\":775:781   */\n      dup2\n        /* \"#utility.yul\":770:773   */\n      dup6\n        /* \"#utility.yul\":711:782   */\n      tag_184\n      jump\t// in\n    tag_213:\n        /* \"#utility.yul\":704:782   */\n      swap4\n      pop\n        /* \"#utility.yul\":791:856   */\n      tag_214\n        /* \"#utility.yul\":849:855   */\n      dup2\n        /* \"#utility.yul\":844:847   */\n      dup6\n        /* \"#utility.yul\":837:841   */\n      0x20\n        /* \"#utility.yul\":830:835   */\n      dup7\n        /* \"#utility.yul\":826:842   */\n      add\n        /* \"#utility.yul\":791:856   */\n      tag_185\n      jump\t// in\n    tag_214:\n        /* \"#utility.yul\":881:910   */\n      tag_215\n        /* \"#utility.yul\":903:909   */\n      dup2\n        /* \"#utility.yul\":881:910   */\n      tag_186\n      jump\t// in\n    tag_215:\n        /* \"#utility.yul\":876:879   */\n      dup5\n        /* \"#utility.yul\":872:911   */\n      add\n        /* \"#utility.yul\":865:911   */\n      swap2\n      pop\n        /* \"#utility.yul\":632:917   */\n      pop\n        /* \"#utility.yul\":540:917   */\n      swap3\n      swap2\n      pop\n      pop\n      jump\t// out\n        /* \"#utility.yul\":923:1236   */\n    tag_24:\n        /* \"#utility.yul\":1036:1040   */\n      0x00\n        /* \"#utility.yul\":1074:1076   */\n      0x20\n        /* \"#utility.yul\":1063:1072   */\n      dup3\n        /* \"#utility.yul\":1059:1077   */\n      add\n        /* \"#utility.yul\":1051:1077   */\n      swap1\n      pop\n        /* \"#utility.yul\":1123:1132   */\n      dup2\n        /* \"#utility.yul\":1117:1121   */\n      dup2\n        /* \"#utility.yul\":1113:1133   */\n      sub\n        /* \"#utility.yul\":1109:1110   */\n      0x00\n        /* \"#utility.yul\":1098:1107   */\n      dup4\n        /* \"#utility.yul\":1094:1111   */\n      add\n        /* \"#utility.yul\":1087:1134   */\n      mstore\n        /* \"#utility.yul\":1151:1229   */\n      tag_217\n        /* \"#utility.yul\":1224:1228   */\n      dup2\n        /* \"#utility.yul\":1215:1221   */\n      dup5\n        /* \"#utility.yul\":1151:1229   */\n      tag_187\n      jump\t// in\n    tag_217:\n        /* \"#utility.yul\":1143:1229   */\n      swap1\n      pop\n        /* \"#utility.yul\":923:1236   */\n      swap3\n      swap2\n      pop\n      pop\n      jump\t// out\n        /* \"#utility.yul\":1323:1440   */\n    tag_189:\n        /* \"#utility.yul\":1432:1433   */\n      0x00\n        /* \"#utility.yul\":1429:1430   */\n      dup1\n        /* \"#utility.yul\":1422:1434   */\n      revert\n        /* \"#utility.yul\":1569:1695   */\n    tag_191:\n        /* \"#utility.yul\":1606:1613   */\n      0x00\n        /* \"#utility.yul\":1646:1688   */\n      0xffffffffffffffffffffffffffffffffffffffff\n        /* \"#utility.yul\":1639:1644   */\n      dup3\n        /* \"#utility.yul\":1635:1689   */\n      and\n        /* \"#utility.yul\":1624:1689   */\n      swap1\n      pop\n        /* \"#utility.yul\":1569:1695   */\n      swap2\n      swap1\n      pop\n      jump\t// out\n        /* \"#utility.yul\":1701:1797   */\n    tag_192:\n        /* \"#utility.yul\":1738:1745   */\n      0x00\n        /* \"#utility.yul\":1767:1791   */\n      tag_223\n        /* \"#utility.yul\":1785:1790   */\n      dup3\n        /* \"#utility.yul\":1767:1791   */\n      tag_191\n      jump\t// in\n    tag_223:\n        /* \"#utility.yul\":1756:1791   */\n      swap1\n      pop\n        /* \"#utility.yul\":1701:1797   */\n      swap2\n      swap1\n      pop\n      jump\t// out\n        /* \"#utility.yul\":1803:1925   */\n    tag_193:\n        /* \"#utility.yul\":1876:1900   */\n      tag_225\n        /* \"#utility.yul\":1894:1899   */\n      dup2\n        /* \"#utility.yul\":1876:1900   */\n      tag_192\n      jump\t// in\n    tag_225:\n        /* \"#utility.yul\":1869:1874   */\n      dup2\n        /* \"#utility.yul\":1866:1901   */\n      eq\n        /* \"#utility.yul\":1856:1919   */\n      tag_226\n      jumpi\n        /* \"#utility.yul\":1915:1916   */\n      0x00\n        /* \"#utility.yul\":1912:1913   */\n      dup1\n        /* \"#utility.yul\":1905:1917   */\n      revert\n        /* \"#utility.yul\":1856:1919   */\n    tag_226:\n        /* \"#utility.yul\":1803:1925   */\n      pop\n      jump\t// out\n        /* \"#utility.yul\":1931:2070   */\n    tag_194:\n        /* \"#utility.yul\":1977:1982   */\n      0x00\n        /* \"#utility.yul\":2015:2021   */\n      dup2\n        /* \"#utility.yul\":2002:2022   */\n      calldataload\n        /* \"#utility.yul\":1993:2022   */\n      swap1\n      pop\n        /* \"#utility.yul\":2031:2064   */\n      tag_228\n        /* \"#utility.yul\":2058:2063   */\n      dup2\n        /* \"#utility.yul\":2031:2064   */\n      tag_193\n      jump\t// in\n    tag_228:\n        /* \"#utility.yul\":1931:2070   */\n      swap3\n      swap2\n      pop\n      pop\n      jump\t// out\n        /* \"#utility.yul\":2076:2153   */\n    tag_195:\n        /* \"#utility.yul\":2113:2120   */\n      0x00\n        /* \"#utility.yul\":2142:2147   */\n      dup2\n        /* \"#utility.yul\":2131:2147   */\n      swap1\n      pop\n        /* \"#utility.yul\":2076:2153   */\n      swap2\n      swap1\n      pop\n      jump\t// out\n        /* \"#utility.yul\":2159:2281   */\n    tag_196:\n        /* \"#utility.yul\":2232:2256   */\n      tag_231\n        /* \"#utility.yul\":2250:2255   */\n      dup2\n        /* \"#utility.yul\":2232:2256   */\n      tag_195\n      jump\t// in\n    tag_231:\n        /* \"#utility.yul\":2225:2230   */\n      dup2\n        /* \"#utility.yul\":2222:2257   */\n      eq\n        /* \"#utility.yul\":2212:2275   */\n      tag_232\n      jumpi\n        /* \"#utility.yul\":2271:2272   */\n      0x00\n        /* \"#utility.yul\":2268:2269   */\n      dup1\n        /* \"#utility.yul\":2261:2273   */\n      revert\n        /* \"#utility.yul\":2212:2275   */\n    tag_232:\n        /* \"#utility.yul\":2159:2281   */\n      pop\n      jump\t// out\n        /* \"#utility.yul\":2287:2426   */\n    tag_197:\n        /* \"#utility.yul\":2333:2338   */\n      0x00\n        /* \"#utility.yul\":2371:2377   */\n      dup2\n        /* \"#utility.yul\":2358:2378   */\n      calldataload\n        /* \"#utility.yul\":2349:2378   */\n      swap1\n      pop\n        /* \"#utility.yul\":2387:2420   */\n      tag_234\n        /* \"#utility.yul\":2414:2419   */\n      dup2\n        /* \"#utility.yul\":2387:2420   */\n      tag_196\n      jump\t// in\n    tag_234:\n        /* \"#utility.yul\":2287:2426   */\n      swap3\n      swap2\n      pop\n      pop\n      jump\t// out\n        /* \"#utility.yul\":2432:2906   */\n    tag_27:\n        /* \"#utility.yul\":2500:2506   */\n      0x00\n        /* \"#utility.yul\":2508:2514   */\n      dup1\n        /* \"#utility.yul\":2557:2559   */\n      0x40\n        /* \"#utility.yul\":2545:2554   */\n      dup4\n        /* \"#utility.yul\":2536:2543   */\n      dup6\n        /* \"#utility.yul\":2532:2555   */\n      sub\n        /* \"#utility.yul\":2528:2560   */\n      slt\n        /* \"#utility.yul\":2525:2644   */\n      iszero\n      tag_236\n      jumpi\n        /* \"#utility.yul\":2563:2642   */\n      tag_237\n      tag_189\n      jump\t// in\n    tag_237:\n        /* \"#utility.yul\":2525:2644   */\n    tag_236:\n        /* \"#utility.yul\":2683:2684   */\n      0x00\n        /* \"#utility.yul\":2708:2761   */\n      tag_238\n        /* \"#utility.yul\":2753:2760   */\n      dup6\n        /* \"#utility.yul\":2744:2750   */\n      dup3\n        /* \"#utility.yul\":2733:2742   */\n      dup7\n        /* \"#utility.yul\":2729:2751   */\n      add\n        /* \"#utility.yul\":2708:2761   */\n      tag_194\n      jump\t// in\n    tag_238:\n        /* \"#utility.yul\":2698:2761   */\n      swap3\n      pop\n        /* \"#utility.yul\":2654:2771   */\n      pop\n        /* \"#utility.yul\":2810:2812   */\n      0x20\n        /* \"#utility.yul\":2836:2889   */\n      tag_239\n        /* \"#utility.yul\":2881:2888   */\n      dup6\n        /* \"#utility.yul\":2872:2878   */\n      dup3\n        /* \"#utility.yul\":2861:2870   */\n      dup7\n        /* \"#utility.yul\":2857:2879   */\n      add\n        /* \"#utility.yul\":2836:2889   */\n      tag_197\n      jump\t// in\n    tag_239:\n        /* \"#utility.yul\":2826:2889   */\n      swap2\n      pop\n        /* \"#utility.yul\":2781:2899   */\n      pop\n        /* \"#utility.yul\":2432:2906   */\n      swap3\n      pop\n      swap3\n      swap1\n      pop\n      jump\t// out\n        /* \"#utility.yul\":2912:3002   */\n    tag_198:\n        /* \"#utility.yul\":2946:2953   */\n      0x00\n        /* \"#utility.yul\":2989:2994   */\n      dup2\n        /* \"#utility.yul\":2982:2995   */\n      iszero\n        /* \"#utility.yul\":2975:2996   */\n      iszero\n        /* \"#utility.yul\":2964:2996   */\n      swap1\n      pop\n        /* \"#utility.yul\":2912:3002   */\n      swap2\n      swap1\n      pop\n      jump\t// out\n        /* \"#utility.yul\":3008:3117   */\n    tag_199:\n        /* \"#utility.yul\":3089:3110   */\n      tag_242\n        /* \"#utility.yul\":3104:3109   */\n      dup2\n        /* \"#utility.yul\":3089:3110   */\n      tag_198\n      jump\t// in\n    tag_242:\n        /* \"#utility.yul\":3084:3087   */\n      dup3\n        /* \"#utility.yul\":3077:3111   */\n      mstore\n        /* \"#utility.yul\":3008:3117   */\n      pop\n      pop\n      jump\t// out\n        /* \"#utility.yul\":3123:3333   */\n    tag_30:\n        /* \"#utility.yul\":3210:3214   */\n      0x00\n        /* \"#utility.yul\":3248:3250   */\n      0x20\n        /* \"#utility.yul\":3237:3246   */\n      dup3\n        /* \"#utility.yul\":3233:3251   */\n      add\n        /* \"#utility.yul\":3225:3251   */\n      swap1\n      pop\n        /* \"#utility.yul\":3261:3326   */\n      tag_244\n        /* \"#utility.yul\":3323:3324   */\n      0x00\n        /* \"#utility.yul\":3312:3321   */\n      dup4\n        /* \"#utility.yul\":3308:3325   */\n      add\n        /* \"#utility.yul\":3299:3305   */\n      dup5\n        /* \"#utility.yul\":3261:3326   */\n      tag_199\n      jump\t// in\n    tag_244:\n        /* \"#utility.yul\":3123:3333   */\n      swap3\n      swap2\n      pop\n      pop\n      jump\t// out\n        /* \"#utility.yul\":3339:3457   */\n    tag_200:\n        /* \"#utility.yul\":3426:3450   */\n      tag_246\n        /* \"#utility.yul\":3444:3449   */\n      dup2\n        /* \"#utility.yul\":3426:3450   */\n      tag_195\n      jump\t// in\n    tag_246:\n        /* \"#utility.yul\":3421:3424   */\n      dup3\n        /* \"#utility.yul\":3414:3451   */\n      mstore\n        /* \"#utility.yul\":3339:3457   */\n      pop\n      pop\n      jump\t// out\n        /* \"#utility.yul\":3463:3685   */\n    tag_34:\n        /* \"#utility.yul\":3556:3560   */\n      0x00\n        /* \"#utility.yul\":3594:3596   */\n      0x20\n        /* \"#utility.yul\":3583:3592   */\n      dup3\n        /* \"#utility.yul\":3579:3597   */\n      add\n        /* \"#utility.yul\":3571:3597   */\n      swap1\n      pop\n        /* \"#utility.yul\":3607:3678   */\n      tag_248\n        /* \"#utility.yul\":3675:3676   */\n      0x00\n        /* \"#utility.yul\":3664:3673   */\n      dup4\n        /* \"#utility.yul\":3660:3677   */\n      add\n        /* \"#utility.yul\":3651:3657   */\n      dup5\n        /* \"#utility.yul\":3607:3678   */\n      tag_200\n      jump\t// in\n    tag_248:\n        /* \"#utility.yul\":3463:3685   */\n      swap3\n      swap2\n      pop\n      pop\n      jump\t// out\n        /* \"#utility.yul\":3691:4310   */\n    tag_37:\n        /* \"#utility.yul\":3768:3774   */\n      0x00\n        /* \"#utility.yul\":3776:3782   */\n      dup1\n        /* \"#utility.yul\":3784:3790   */\n      0x00\n        /* \"#utility.yul\":3833:3835   */\n      0x60\n        /* \"#utility.yul\":3821:3830   */\n      dup5\n        /* \"#utility.yul\":3812:3819   */\n      dup7\n        /* \"#utility.yul\":3808:3831   */\n      sub\n        /* \"#utility.yul\":3804:3836   */\n      slt\n        /* \"#utility.yul\":3801:3920   */\n      iszero\n      tag_250\n      jumpi\n        /* \"#utility.yul\":3839:3918   */\n      tag_251\n      tag_189\n      jump\t// in\n    tag_251:\n        /* \"#utility.yul\":3801:3920   */\n    tag_250:\n        /* \"#utility.yul\":3959:3960   */\n      0x00\n        /* \"#utility.yul\":3984:4037   */\n      tag_252\n        /* \"#utility.yul\":4029:4036   */\n      dup7\n        /* \"#utility.yul\":4020:4026   */\n      dup3\n        /* \"#utility.yul\":4009:4018   */\n      dup8\n        /* \"#utility.yul\":4005:4027   */\n      add\n        /* \"#utility.yul\":3984:4037   */\n      tag_194\n      jump\t// in\n    tag_252:\n        /* \"#utility.yul\":3974:4037   */\n      swap4\n      pop\n        /* \"#utility.yul\":3930:4047   */\n      pop\n        /* \"#utility.yul\":4086:4088   */\n      0x20\n        /* \"#utility.yul\":4112:4165   */\n      tag_253\n        /* \"#utility.yul\":4157:4164   */\n      dup7\n        /* \"#utility.yul\":4148:4154   */\n      dup3\n        /* \"#utility.yul\":4137:4146   */\n      dup8\n        /* \"#utility.yul\":4133:4155   */\n      add\n        /* \"#utility.yul\":4112:4165   */\n      tag_194\n      jump\t// in\n    tag_253:\n        /* \"#utility.yul\":4102:4165   */\n      swap3\n      pop\n        /* \"#utility.yul\":4057:4175   */\n      pop\n        /* \"#utility.yul\":4214:4216   */\n      0x40\n        /* \"#utility.yul\":4240:4293   */\n      tag_254\n        /* \"#utility.yul\":4285:4292   */\n      dup7\n        /* \"#utility.yul\":4276:4282   */\n      dup3\n        /* \"#utility.yul\":4265:4274   */\n      dup8\n        /* \"#utility.yul\":4261:4283   */\n      add\n        /* \"#utility.yul\":4240:4293   */\n      tag_197\n      jump\t// in\n    tag_254:\n        /* \"#utility.yul\":4230:4293   */\n      swap2\n      pop\n        /* \"#utility.yul\":4185:4303   */\n      pop\n        /* \"#utility.yul\":3691:4310   */\n      swap3\n      pop\n      swap3\n      pop\n      swap3\n      jump\t// out\n        /* \"#utility.yul\":4316:4402   */\n    tag_201:\n        /* \"#utility.yul\":4351:4358   */\n      0x00\n        /* \"#utility.yul\":4391:4395   */\n      0xff\n        /* \"#utility.yul\":4384:4389   */\n      dup3\n        /* \"#utility.yul\":4380:4396   */\n      and\n        /* \"#utility.yul\":4369:4396   */\n      swap1\n      pop\n        /* \"#utility.yul\":4316:4402   */\n      swap2\n      swap1\n      pop\n      jump\t// out\n        /* \"#utility.yul\":4408:4520   */\n    tag_202:\n        /* \"#utility.yul\":4491:4513   */\n      tag_257\n        /* \"#utility.yul\":4507:4512   */\n      dup2\n        /* \"#utility.yul\":4491:4513   */\n      tag_201\n      jump\t// in\n    tag_257:\n        /* \"#utility.yul\":4486:4489   */\n      dup3\n        /* \"#utility.yul\":4479:4514   */\n      mstore\n        /* \"#utility.yul\":4408:4520   */\n      pop\n      pop\n      jump\t// out\n        /* \"#utility.yul\":4526:4740   */\n    tag_43:\n        /* \"#utility.yul\":4615:4619   */\n      0x00\n        /* \"#utility.yul\":4653:4655   */\n      0x20\n        /* \"#utility.yul\":4642:4651   */\n      dup3\n        /* \"#utility.yul\":4638:4656   */\n      add\n        /* \"#utility.yul\":4630:4656   */\n      swap1\n      pop\n        /* \"#utility.yul\":4666:4733   */\n      tag_259\n        /* \"#utility.yul\":4730:4731   */\n      0x00\n        /* \"#utility.yul\":4719:4728   */\n      dup4\n        /* \"#utility.yul\":4715:4732   */\n      add\n        /* \"#utility.yul\":4706:4712   */\n      dup5\n        /* \"#utility.yul\":4666:4733   */\n      tag_202\n      jump\t// in\n    tag_259:\n        /* \"#utility.yul\":4526:4740   */\n      swap3\n      swap2\n      pop\n      pop\n      jump\t// out\n        /* \"#utility.yul\":4746:5075   */\n    tag_49:\n        /* \"#utility.yul\":4805:4811   */\n      0x00\n        /* \"#utility.yul\":4854:4856   */\n      0x20\n        /* \"#utility.yul\":4842:4851   */\n      dup3\n        /* \"#utility.yul\":4833:4840   */\n      dup5\n        /* \"#utility.yul\":4829:4852   */\n      sub\n        /* \"#utility.yul\":4825:4857   */\n      slt\n        /* \"#utility.yul\":4822:4941   */\n      iszero\n      tag_261\n      jumpi\n        /* \"#utility.yul\":4860:4939   */\n      tag_262\n      tag_189\n      jump\t// in\n    tag_262:\n        /* \"#utility.yul\":4822:4941   */\n    tag_261:\n        /* \"#utility.yul\":4980:4981   */\n      0x00\n        /* \"#utility.yul\":5005:5058   */\n      tag_263\n        /* \"#utility.yul\":5050:5057   */\n      dup5\n        /* \"#utility.yul\":5041:5047   */\n      dup3\n        /* \"#utility.yul\":5030:5039   */\n      dup6\n        /* \"#utility.yul\":5026:5048   */\n      add\n        /* \"#utility.yul\":5005:5058   */\n      tag_194\n      jump\t// in\n    tag_263:\n        /* \"#utility.yul\":4995:5058   */\n      swap2\n      pop\n        /* \"#utility.yul\":4951:5068   */\n      pop\n        /* \"#utility.yul\":4746:5075   */\n      swap3\n      swap2\n      pop\n      pop\n      jump\t// out\n        /* \"#utility.yul\":5081:5199   */\n    tag_203:\n        /* \"#utility.yul\":5168:5192   */\n      tag_265\n        /* \"#utility.yul\":5186:5191   */\n      dup2\n        /* \"#utility.yul\":5168:5192   */\n      tag_192\n      jump\t// in\n    tag_265:\n        /* \"#utility.yul\":5163:5166   */\n      dup3\n        /* \"#utility.yul\":5156:5193   */\n      mstore\n        /* \"#utility.yul\":5081:5199   */\n      pop\n      pop\n      jump\t// out\n        /* \"#utility.yul\":5205:5427   */\n    tag_57:\n        /* \"#utility.yul\":5298:5302   */\n      0x00\n        /* \"#utility.yul\":5336:5338   */\n      0x20\n        /* \"#utility.yul\":5325:5334   */\n      dup3\n        /* \"#utility.yul\":5321:5339   */\n      add\n        /* \"#utility.yul\":5313:5339   */\n      swap1\n      pop\n        /* \"#utility.yul\":5349:5420   */\n      tag_267\n        /* \"#utility.yul\":5417:5418   */\n      0x00\n        /* \"#utility.yul\":5406:5415   */\n      dup4\n        /* \"#utility.yul\":5402:5419   */\n      add\n        /* \"#utility.yul\":5393:5399   */\n      dup5\n        /* \"#utility.yul\":5349:5420   */\n      tag_203\n      jump\t// in\n    tag_267:\n        /* \"#utility.yul\":5205:5427   */\n      swap3\n      swap2\n      pop\n      pop\n      jump\t// out\n        /* \"#utility.yul\":5433:5907   */\n    tag_70:\n        /* \"#utility.yul\":5501:5507   */\n      0x00\n        /* \"#utility.yul\":5509:5515   */\n      dup1\n        /* \"#utility.yul\":5558:5560   */\n      0x40\n        /* \"#utility.yul\":5546:5555   */\n      dup4\n        /* \"#utility.yul\":5537:5544   */\n      dup6\n        /* \"#utility.yul\":5533:5556   */\n      sub\n        /* \"#utility.yul\":5529:5561   */\n      slt\n        /* \"#utility.yul\":5526:5645   */\n      iszero\n      tag_269\n      jumpi\n        /* \"#utility.yul\":5564:5643   */\n      tag_270\n      tag_189\n      jump\t// in\n    tag_270:\n        /* \"#utility.yul\":5526:5645   */\n    tag_269:\n        /* \"#utility.yul\":5684:5685   */\n      0x00\n        /* \"#utility.yul\":5709:5762   */\n      tag_271\n        /* \"#utility.yul\":5754:5761   */\n      dup6\n        /* \"#utility.yul\":5745:5751   */\n      dup3\n        /* \"#utility.yul\":5734:5743   */\n      dup7\n        /* \"#utility.yul\":5730:5752   */\n      add\n        /* \"#utility.yul\":5709:5762   */\n      tag_194\n      jump\t// in\n    tag_271:\n        /* \"#utility.yul\":5699:5762   */\n      swap3\n      pop\n        /* \"#utility.yul\":5655:5772   */\n      pop\n        /* \"#utility.yul\":5811:5813   */\n      0x20\n        /* \"#utility.yul\":5837:5890   */\n      tag_272\n        /* \"#utility.yul\":5882:5889   */\n      dup6\n        /* \"#utility.yul\":5873:5879   */\n      dup3\n        /* \"#utility.yul\":5862:5871   */\n      dup7\n        /* \"#utility.yul\":5858:5880   */\n      add\n        /* \"#utility.yul\":5837:5890   */\n      tag_194\n      jump\t// in\n    tag_272:\n        /* \"#utility.yul\":5827:5890   */\n      swap2\n      pop\n        /* \"#utility.yul\":5782:5900   */\n      pop\n        /* \"#utility.yul\":5433:5907   */\n      swap3\n      pop\n      swap3\n      swap1\n      pop\n      jump\t// out\n        /* \"#utility.yul\":5913:6093   */\n    tag_204:\n        /* \"#utility.yul\":5961:6038   */\n      0x4e487b7100000000000000000000000000000000000000000000000000000000\n        /* \"#utility.yul\":5958:5959   */\n      0x00\n        /* \"#utility.yul\":5951:6039   */\n      mstore\n        /* \"#utility.yul\":6058:6062   */\n      0x22\n        /* \"#utility.yul\":6055:6056   */\n      0x04\n        /* \"#utility.yul\":6048:6063   */\n      mstore\n        /* \"#utility.yul\":6082:6086   */\n      0x24\n        /* \"#utility.yul\":6079:6080   */\n      0x00\n        /* \"#utility.yul\":6072:6087   */\n      revert\n        /* \"#utility.yul\":6099:6419   */\n    tag_81:\n        /* \"#utility.yul\":6143:6149   */\n      0x00\n        /* \"#utility.yul\":6180:6181   */\n      0x02\n        /* \"#utility.yul\":6174:6178   */\n      dup3\n        /* \"#utility.yul\":6170:6182   */\n      div\n        /* \"#utility.yul\":6160:6182   */\n      swap1\n      pop\n        /* \"#utility.yul\":6227:6228   */\n      0x01\n        /* \"#utility.yul\":6221:6225   */\n      dup3\n        /* \"#utility.yul\":6217:6229   */\n      and\n        /* \"#utility.yul\":6248:6266   */\n      dup1\n        /* \"#utility.yul\":6238:6319   */\n      tag_275\n      jumpi\n        /* \"#utility.yul\":6304:6308   */\n      0x7f\n        /* \"#utility.yul\":6296:6302   */\n      dup3\n        /* \"#utility.yul\":6292:6309   */\n      and\n        /* \"#utility.yul\":6282:6309   */\n      swap2\n      pop\n        /* \"#utility.yul\":6238:6319   */\n    tag_275:\n        /* \"#utility.yul\":6366:6368   */\n      0x20\n        /* \"#utility.yul\":6358:6364   */\n      dup3\n        /* \"#utility.yul\":6355:6369   */\n      lt\n        /* \"#utility.yul\":6335:6353   */\n      dup2\n        /* \"#utility.yul\":6332:6370   */\n      sub\n        /* \"#utility.yul\":6329:6413   */\n      tag_276\n      jumpi\n        /* \"#utility.yul\":6385:6403   */\n      tag_277\n      tag_204\n      jump\t// in\n    tag_277:\n        /* \"#utility.yul\":6329:6413   */\n    tag_276:\n        /* \"#utility.yul\":6150:6419   */\n      pop\n        /* \"#utility.yul\":6099:6419   */\n      swap2\n      swap1\n      pop\n      jump\t// out\n        /* \"#utility.yul\":6425:6867   */\n    tag_142:\n        /* \"#utility.yul\":6574:6578   */\n      0x00\n        /* \"#utility.yul\":6612:6614   */\n      0x60\n        /* \"#utility.yul\":6601:6610   */\n      dup3\n        /* \"#utility.yul\":6597:6615   */\n      add\n        /* \"#utility.yul\":6589:6615   */\n      swap1\n      pop\n        /* \"#utility.yul\":6625:6696   */\n      tag_279\n        /* \"#utility.yul\":6693:6694   */\n      0x00\n        /* \"#utility.yul\":6682:6691   */\n      dup4\n        /* \"#utility.yul\":6678:6695   */\n      add\n        /* \"#utility.yul\":6669:6675   */\n      dup7\n        /* \"#utility.yul\":6625:6696   */\n      tag_203\n      jump\t// in\n    tag_279:\n        /* \"#utility.yul\":6706:6778   */\n      tag_280\n        /* \"#utility.yul\":6774:6776   */\n      0x20\n        /* \"#utility.yul\":6763:6772   */\n      dup4\n        /* \"#utility.yul\":6759:6777   */\n      add\n        /* \"#utility.yul\":6750:6756   */\n      dup6\n        /* \"#utility.yul\":6706:6778   */\n      tag_200\n      jump\t// in\n    tag_280:\n        /* \"#utility.yul\":6788:6860   */\n      tag_281\n        /* \"#utility.yul\":6856:6858   */\n      0x40\n        /* \"#utility.yul\":6845:6854   */\n      dup4\n        /* \"#utility.yul\":6841:6859   */\n      add\n        /* \"#utility.yul\":6832:6838   */\n      dup5\n        /* \"#utility.yul\":6788:6860   */\n      tag_200\n      jump\t// in\n    tag_281:\n        /* \"#utility.yul\":6425:6867   */\n      swap5\n      swap4\n      pop\n      pop\n      pop\n      pop\n      jump\t// out\n        /* \"#utility.yul\":6873:7053   */\n    tag_205:\n        /* \"#utility.yul\":6921:6998   */\n      0x4e487b7100000000000000000000000000000000000000000000000000000000\n        /* \"#utility.yul\":6918:6919   */\n      0x00\n        /* \"#utility.yul\":6911:6999   */\n      mstore\n        /* \"#utility.yul\":7018:7022   */\n      0x11\n        /* \"#utility.yul\":7015:7016   */\n      0x04\n        /* \"#utility.yul\":7008:7023   */\n      mstore\n        /* \"#utility.yul\":7042:7046   */\n      0x24\n        /* \"#utility.yul\":7039:7040   */\n      0x00\n        /* \"#utility.yul\":7032:7047   */\n      revert\n        /* \"#utility.yul\":7059:7250   */\n    tag_176:\n        /* \"#utility.yul\":7099:7102   */\n      0x00\n        /* \"#utility.yul\":7118:7138   */\n      tag_284\n        /* \"#utility.yul\":7136:7137   */\n      dup3\n        /* \"#utility.yul\":7118:7138   */\n      tag_195\n      jump\t// in\n    tag_284:\n        /* \"#utility.yul\":7113:7138   */\n      swap2\n      pop\n        /* \"#utility.yul\":7152:7172   */\n      tag_285\n        /* \"#utility.yul\":7170:7171   */\n      dup4\n        /* \"#utility.yul\":7152:7172   */\n      tag_195\n      jump\t// in\n    tag_285:\n        /* \"#utility.yul\":7147:7172   */\n      swap3\n      pop\n        /* \"#utility.yul\":7195:7196   */\n      dup3\n        /* \"#utility.yul\":7192:7193   */\n      dup3\n        /* \"#utility.yul\":7188:7197   */\n      add\n        /* \"#utility.yul\":7181:7197   */\n      swap1\n      pop\n        /* \"#utility.yul\":7216:7219   */\n      dup1\n        /* \"#utility.yul\":7213:7214   */\n      dup3\n        /* \"#utility.yul\":7210:7220   */\n      gt\n        /* \"#utility.yul\":7207:7243   */\n      iszero\n      tag_286\n      jumpi\n        /* \"#utility.yul\":7223:7241   */\n      tag_287\n      tag_205\n      jump\t// in\n    tag_287:\n        /* \"#utility.yul\":7207:7243   */\n    tag_286:\n        /* \"#utility.yul\":7059:7250   */\n      swap3\n      swap2\n      pop\n      pop\n      jump\t// out\n\n    auxdata: 0xa2646970667358221220db2b0f412c1ab304d42f0f9cbccca99cc30e22e1243a2a24148c0f04c8952b8864736f6c634300081a0033\n}\n",
				"bytecode": {
					"linkReferences": {},
					"object": "608060405234801561000f575f80fd5b50604051611f00380380611f008339818101604052810190610031919061069b565b80868681600390816100439190610960565b5080600490816100539190610960565b5050505f73ffffffffffffffffffffffffffffffffffffffff168173ffffffffffffffffffffffffffffffffffffffff16036100c6575f6040517f1e4fbdf70000000000000000000000000000000000000000000000000000000081526004016100bd9190610a3e565b60405180910390fd5b6100d58161012a60201b60201c565b5082600560146101000a81548160ff021916908360ff1602179055508160068190555061011f8184600a6101099190610bb3565b866101149190610bfd565b6101ed60201b60201c565b505050505050610cce565b5f60055f9054906101000a900473ffffffffffffffffffffffffffffffffffffffff1690508160055f6101000a81548173ffffffffffffffffffffffffffffffffffffffff021916908373ffffffffffffffffffffffffffffffffffffffff1602179055508173ffffffffffffffffffffffffffffffffffffffff168173ffffffffffffffffffffffffffffffffffffffff167f8be0079c531659141344cd1fd0a4f28419497f9722a3daafe3b4186f6b6457e060405160405180910390a35050565b5f73ffffffffffffffffffffffffffffffffffffffff168273ffffffffffffffffffffffffffffffffffffffff160361025d575f6040517fec442f050000000000000000000000000000000000000000000000000000000081526004016102549190610a3e565b60405180910390fd5b61026e5f838361027260201b60201c565b5050565b5f73ffffffffffffffffffffffffffffffffffffffff168373ffffffffffffffffffffffffffffffffffffffff16036102c2578060025f8282546102b69190610c3e565b92505081905550610390565b5f805f8573ffffffffffffffffffffffffffffffffffffffff1673ffffffffffffffffffffffffffffffffffffffff1681526020019081526020015f205490508181101561034b578381836040517fe450d38c00000000000000000000000000000000000000000000000000000000815260040161034293929190610c80565b60405180910390fd5b8181035f808673ffffffffffffffffffffffffffffffffffffffff1673ffffffffffffffffffffffffffffffffffffffff1681526020019081526020015f2081905550505b5f73ffffffffffffffffffffffffffffffffffffffff168273ffffffffffffffffffffffffffffffffffffffff16036103d7578060025f8282540392505081905550610421565b805f808473ffffffffffffffffffffffffffffffffffffffff1673ffffffffffffffffffffffffffffffffffffffff1681526020019081526020015f205f82825401925050819055505b8173ffffffffffffffffffffffffffffffffffffffff168373ffffffffffffffffffffffffffffffffffffffff167fddf252ad1be2c89b69c2b068fc378daa952ba7f163c4a11628f55a4df523b3ef8360405161047e9190610cb5565b60405180910390a3505050565b5f604051905090565b5f80fd5b5f80fd5b5f80fd5b5f80fd5b5f601f19601f8301169050919050565b7f4e487b71000000000000000000000000000000000000000000000000000000005f52604160045260245ffd5b6104ea826104a4565b810181811067ffffffffffffffff82111715610509576105086104b4565b5b80604052505050565b5f61051b61048b565b905061052782826104e1565b919050565b5f67ffffffffffffffff821115610546576105456104b4565b5b61054f826104a4565b9050602081019050919050565b8281835e5f83830152505050565b5f61057c6105778461052c565b610512565b905082815260208101848484011115610598576105976104a0565b5b6105a384828561055c565b509392505050565b5f82601f8301126105bf576105be61049c565b5b81516105cf84826020860161056a565b91505092915050565b5f819050919050565b6105ea816105d8565b81146105f4575f80fd5b50565b5f81519050610605816105e1565b92915050565b5f60ff82169050919050565b6106208161060b565b811461062a575f80fd5b50565b5f8151905061063b81610617565b92915050565b5f73ffffffffffffffffffffffffffffffffffffffff82169050919050565b5f61066a82610641565b9050919050565b61067a81610660565b8114610684575f80fd5b50565b5f8151905061069581610671565b92915050565b5f805f805f8060c087890312156106b5576106b4610494565b5b5f87015167ffffffffffffffff8111156106d2576106d1610498565b5b6106de89828a016105ab565b965050602087015167ffffffffffffffff8111156106ff576106fe610498565b5b61070b89828a016105ab565b955050604061071c89828a016105f7565b945050606061072d89828a0161062d565b935050608061073e89828a016105f7565b92505060a061074f89828a01610687565b9150509295509295509295565b5f81519050919050565b7f4e487b71000000000000000000000000000000000000000000000000000000005f52602260045260245ffd5b5f60028204905060018216806107aa57607f821691505b6020821081036107bd576107bc610766565b5b50919050565b5f819050815f5260205f209050919050565b5f6020601f8301049050919050565b5f82821b905092915050565b5f6008830261081f7fffffffffffffffffffffffffffffffffffffffffffffffffffffffffffffffff826107e4565b61082986836107e4565b95508019841693508086168417925050509392505050565b5f819050919050565b5f61086461085f61085a846105d8565b610841565b6105d8565b9050919050565b5f819050919050565b61087d8361084a565b6108916108898261086b565b8484546107f0565b825550505050565b5f90565b6108a5610899565b6108b0818484610874565b505050565b5b818110156108d3576108c85f8261089d565b6001810190506108b6565b5050565b601f821115610918576108e9816107c3565b6108f2846107d5565b81016020851015610901578190505b61091561090d856107d5565b8301826108b5565b50505b505050565b5f82821c905092915050565b5f6109385f198460080261091d565b1980831691505092915050565b5f6109508383610929565b9150826002028217905092915050565b6109698261075c565b67ffffffffffffffff811115610982576109816104b4565b5b61098c8254610793565b6109978282856108d7565b5f60209050601f8311600181146109c8575f84156109b6578287015190505b6109c08582610945565b865550610a27565b601f1984166109d6866107c3565b5f5b828110156109fd578489015182556001820191506020850194506020810190506109d8565b86831015610a1a5784890151610a16601f891682610929565b8355505b6001600288020188555050505b505050505050565b610a3881610660565b82525050565b5f602082019050610a515f830184610a2f565b92915050565b7f4e487b71000000000000000000000000000000000000000000000000000000005f52601160045260245ffd5b5f8160011c9050919050565b5f808291508390505b6001851115610ad957808604811115610ab557610ab4610a57565b5b6001851615610ac45780820291505b8081029050610ad285610a84565b9450610a99565b94509492505050565b5f82610af15760019050610bac565b81610afe575f9050610bac565b8160018114610b145760028114610b1e57610b4d565b6001915050610bac565b60ff841115610b3057610b2f610a57565b5b8360020a915084821115610b4757610b46610a57565b5b50610bac565b5060208310610133831016604e8410600b8410161715610b825782820a905083811115610b7d57610b7c610a57565b5b610bac565b610b8f8484846001610a90565b92509050818404811115610ba657610ba5610a57565b5b81810290505b9392505050565b5f610bbd826105d8565b9150610bc88361060b565b9250610bf57fffffffffffffffffffffffffffffffffffffffffffffffffffffffffffffffff8484610ae2565b905092915050565b5f610c07826105d8565b9150610c12836105d8565b9250828202610c20816105d8565b91508282048414831517610c3757610c36610a57565b5b5092915050565b5f610c48826105d8565b9150610c53836105d8565b9250828201905080821115610c6b57610c6a610a57565b5b92915050565b610c7a816105d8565b82525050565b5f606082019050610c935f830186610a2f565b610ca06020830185610c71565b610cad6040830184610c71565b949350505050565b5f602082019050610cc85f830184610c71565b92915050565b61122580610cdb5f395ff3fe608060405234801561000f575f80fd5b50600436106100f3575f3560e01c8063715018a611610095578063a9059cbb11610064578063a9059cbb1461025f578063dd62ed3e1461028f578063f2fde38b146102bf578063fdd760ea146102db576100f3565b8063715018a6146101fd5780638da5cb5b1461020757806395d89b41146102255780639dc29fac14610243576100f3565b806323b872dd116100d157806323b872dd14610163578063313ce5671461019357806340c10f19146101b157806370a08231146101cd576100f3565b806306fdde03146100f7578063095ea7b31461011557806318160ddd14610145575b5f80fd5b6100ff6102f9565b60405161010c9190610e9e565b60405180910390f35b61012f600480360381019061012a9190610f4f565b610389565b60405161013c9190610fa7565b60405180910390f35b61014d6103ab565b60405161015a9190610fcf565b60405180910390f35b61017d60048036038101906101789190610fe8565b6103b4565b60405161018a9190610fa7565b60405180910390f35b61019b6103e2565b6040516101a89190611053565b60405180910390f35b6101cb60048036038101906101c69190610f4f565b6103f8565b005b6101e760048036038101906101e2919061106c565b61040e565b6040516101f49190610fcf565b60405180910390f35b610205610453565b005b61020f610466565b60405161021c91906110a6565b60405180910390f35b61022d61048e565b60405161023a9190610e9e565b60405180910390f35b61025d60048036038101906102589190610f4f565b61051e565b005b61027960048036038101906102749190610f4f565b610534565b6040516102869190610fa7565b60405180910390f35b6102a960048036038101906102a491906110bf565b610556565b6040516102b69190610fcf565b60405180910390f35b6102d960048036038101906102d4919061106c565b6105d8565b005b6102e361065c565b6040516102f09190610fcf565b60405180910390f35b6060600380546103089061112a565b80601f01602080910402602001604051908101604052809291908181526020018280546103349061112a565b801561037f5780601f106103565761010080835404028352916020019161037f565b820191905f5260205f20905b81548152906001019060200180831161036257829003601f168201915b5050505050905090565b5f80610393610662565b90506103a0818585610669565b600191505092915050565b5f600254905090565b5f806103be610662565b90506103cb85828561067b565b6103d685858561070e565b60019150509392505050565b5f600560149054906101000a900460ff16905090565b6104006107fe565b61040a8282610885565b5050565b5f805f8373ffffffffffffffffffffffffffffffffffffffff1673ffffffffffffffffffffffffffffffffffffffff1681526020019081526020015f20549050919050565b61045b6107fe565b6104645f610904565b565b5f60055f9054906101000a900473ffffffffffffffffffffffffffffffffffffffff16905090565b60606004805461049d9061112a565b80601f01602080910402602001604051908101604052809291908181526020018280546104c99061112a565b80156105145780601f106104eb57610100808354040283529160200191610514565b820191905f5260205f20905b8154815290600101906020018083116104f757829003601f168201915b5050505050905090565b6105266107fe565b61053082826109c7565b5050565b5f8061053e610662565b905061054b81858561070e565b600191505092915050565b5f60015f8473ffffffffffffffffffffffffffffffffffffffff1673ffffffffffffffffffffffffffffffffffffffff1681526020019081526020015f205f8373ffffffffffffffffffffffffffffffffffffffff1673ffffffffffffffffffffffffffffffffffffffff1681526020019081526020015f2054905092915050565b6105e06107fe565b5f73ffffffffffffffffffffffffffffffffffffffff168173ffffffffffffffffffffffffffffffffffffffff1603610650575f6040517f1e4fbdf700000000000000000000000000000000000000000000000000000000815260040161064791906110a6565b60405180910390fd5b61065981610904565b50565b60065481565b5f33905090565b6106768383836001610a46565b505050565b5f6106868484610556565b90507fffffffffffffffffffffffffffffffffffffffffffffffffffffffffffffffff81101561070857818110156106f9578281836040517ffb8f41b20000000000000000000000000000000000000000000000000000000081526004016106f09392919061115a565b60405180910390fd5b61070784848484035f610a46565b5b50505050565b5f73ffffffffffffffffffffffffffffffffffffffff168373ffffffffffffffffffffffffffffffffffffffff160361077e575f6040517f96c6fd1e00000000000000000000000000000000000000000000000000000000815260040161077591906110a6565b60405180910390fd5b5f73ffffffffffffffffffffffffffffffffffffffff168273ffffffffffffffffffffffffffffffffffffffff16036107ee575f6040517fec442f050000000000000000000000000000000000000000000000000000000081526004016107e591906110a6565b60405180910390fd5b6107f9838383610c15565b505050565b610806610662565b73ffffffffffffffffffffffffffffffffffffffff16610824610466565b73ffffffffffffffffffffffffffffffffffffffff161461088357610847610662565b6040517f118cdaa700000000000000000000000000000000000000000000000000000000815260040161087a91906110a6565b60405180910390fd5b565b5f73ffffffffffffffffffffffffffffffffffffffff168273ffffffffffffffffffffffffffffffffffffffff16036108f5575f6040517fec442f050000000000000000000000000000000000000000000000000000000081526004016108ec91906110a6565b60405180910390fd5b6109005f8383610c15565b5050565b5f60055f9054906101000a900473ffffffffffffffffffffffffffffffffffffffff1690508160055f6101000a81548173ffffffffffffffffffffffffffffffffffffffff021916908373ffffffffffffffffffffffffffffffffffffffff1602179055508173ffffffffffffffffffffffffffffffffffffffff168173ffffffffffffffffffffffffffffffffffffffff167f8be0079c531659141344cd1fd0a4f28419497f9722a3daafe3b4186f6b6457e060405160405180910390a35050565b5f73ffffffffffffffffffffffffffffffffffffffff168273ffffffffffffffffffffffffffffffffffffffff1603610a37575f6040517f96c6fd1e000000000000000000000000000000000000000000000000000000008152600401610a2e91906110a6565b60405180910390fd5b610a42825f83610c15565b5050565b5f73ffffffffffffffffffffffffffffffffffffffff168473ffffffffffffffffffffffffffffffffffffffff1603610ab6575f6040517fe602df05000000000000000000000000000000000000000000000000000000008152600401610aad91906110a6565b60405180910390fd5b5f73ffffffffffffffffffffffffffffffffffffffff168373ffffffffffffffffffffffffffffffffffffffff1603610b26575f6040517f94280d62000000000000000000000000000000000000000000000000000000008152600401610b1d91906110a6565b60405180910390fd5b8160015f8673ffffffffffffffffffffffffffffffffffffffff1673ffffffffffffffffffffffffffffffffffffffff1681526020019081526020015f205f8573ffffffffffffffffffffffffffffffffffffffff1673ffffffffffffffffffffffffffffffffffffffff1681526020019081526020015f20819055508015610c0f578273ffffffffffffffffffffffffffffffffffffffff168473ffffffffffffffffffffffffffffffffffffffff167f8c5be1e5ebec7d5bd14f71427d1e84f3dd0314c0f7b2291e5b200ac8c7c3b92584604051610c069190610fcf565b60405180910390a35b50505050565b5f73ffffffffffffffffffffffffffffffffffffffff168373ffffffffffffffffffffffffffffffffffffffff1603610c65578060025f828254610c5991906111bc565b92505081905550610d33565b5f805f8573ffffffffffffffffffffffffffffffffffffffff1673ffffffffffffffffffffffffffffffffffffffff1681526020019081526020015f2054905081811015610cee578381836040517fe450d38c000000000000000000000000000000000000000000000000000000008152600401610ce59392919061115a565b60405180910390fd5b8181035f808673ffffffffffffffffffffffffffffffffffffffff1673ffffffffffffffffffffffffffffffffffffffff1681526020019081526020015f2081905550505b5f73ffffffffffffffffffffffffffffffffffffffff168273ffffffffffffffffffffffffffffffffffffffff1603610d7a578060025f8282540392505081905550610dc4565b805f808473ffffffffffffffffffffffffffffffffffffffff1673ffffffffffffffffffffffffffffffffffffffff1681526020019081526020015f205f82825401925050819055505b8173ffffffffffffffffffffffffffffffffffffffff168373ffffffffffffffffffffffffffffffffffffffff167fddf252ad1be2c89b69c2b068fc378daa952ba7f163c4a11628f55a4df523b3ef83604051610e219190610fcf565b60405180910390a3505050565b5f81519050919050565b5f82825260208201905092915050565b8281835e5f83830152505050565b5f601f19601f8301169050919050565b5f610e7082610e2e565b610e7a8185610e38565b9350610e8a818560208601610e48565b610e9381610e56565b840191505092915050565b5f6020820190508181035f830152610eb68184610e66565b905092915050565b5f80fd5b5f73ffffffffffffffffffffffffffffffffffffffff82169050919050565b5f610eeb82610ec2565b9050919050565b610efb81610ee1565b8114610f05575f80fd5b50565b5f81359050610f1681610ef2565b92915050565b5f819050919050565b610f2e81610f1c565b8114610f38575f80fd5b50565b5f81359050610f4981610f25565b92915050565b5f8060408385031215610f6557610f64610ebe565b5b5f610f7285828601610f08565b9250506020610f8385828601610f3b565b9150509250929050565b5f8115159050919050565b610fa181610f8d565b82525050565b5f602082019050610fba5f830184610f98565b92915050565b610fc981610f1c565b82525050565b5f602082019050610fe25f830184610fc0565b92915050565b5f805f60608486031215610fff57610ffe610ebe565b5b5f61100c86828701610f08565b935050602061101d86828701610f08565b925050604061102e86828701610f3b565b9150509250925092565b5f60ff82169050919050565b61104d81611038565b82525050565b5f6020820190506110665f830184611044565b92915050565b5f6020828403121561108157611080610ebe565b5b5f61108e84828501610f08565b91505092915050565b6110a081610ee1565b82525050565b5f6020820190506110b95f830184611097565b92915050565b5f80604083850312156110d5576110d4610ebe565b5b5f6110e285828601610f08565b92505060206110f385828601610f08565b9150509250929050565b7f4e487b71000000000000000000000000000000000000000000000000000000005f52602260045260245ffd5b5f600282049050600182168061114157607f821691505b602082108103611154576111536110fd565b5b50919050565b5f60608201905061116d5f830186611097565b61117a6020830185610fc0565b6111876040830184610fc0565b949350505050565b7f4e487b71000000000000000000000000000000000000000000000000000000005f52601160045260245ffd5b5f6111c682610f1c565b91506111d183610f1c565b92508282019050808211156111e9576111e861118f565b5b9291505056fea2646970667358221220db2b0f412c1ab304d42f0f9cbccca99cc30e22e1243a2a24148c0f04c8952b8864736f6c634300081a0033",
					"opcodes": "PUSH1 0x80 PUSH1 0x40 MSTORE CALLVALUE DUP1 ISZERO PUSH2 0xF JUMPI PUSH0 DUP1 REVERT JUMPDEST POP PUSH1 0x40 MLOAD PUSH2 0x1F00 CODESIZE SUB DUP1 PUSH2 0x1F00 DUP4 CODECOPY DUP2 DUP2 ADD PUSH1 0x40 MSTORE DUP2 ADD SWAP1 PUSH2 0x31 SWAP2 SWAP1 PUSH2 0x69B JUMP JUMPDEST DUP1 DUP7 DUP7 DUP2 PUSH1 0x3 SWAP1 DUP2 PUSH2 0x43 SWAP2 SWAP1 PUSH2 0x960 JUMP JUMPDEST POP DUP1 PUSH1 0x4 SWAP1 DUP2 PUSH2 0x53 SWAP2 SWAP1 PUSH2 0x960 JUMP JUMPDEST POP POP POP PUSH0 PUSH20 0xFFFFFFFFFFFFFFFFFFFFFFFFFFFFFFFFFFFFFFFF AND DUP2 PUSH20 0xFFFFFFFFFFFFFFFFFFFFFFFFFFFFFFFFFFFFFFFF AND SUB PUSH2 0xC6 JUMPI PUSH0 PUSH1 0x40 MLOAD PUSH32 0x1E4FBDF700000000000000000000000000000000000000000000000000000000 DUP2 MSTORE PUSH1 0x4 ADD PUSH2 0xBD SWAP2 SWAP1 PUSH2 0xA3E JUMP JUMPDEST PUSH1 0x40 MLOAD DUP1 SWAP2 SUB SWAP1 REVERT JUMPDEST PUSH2 0xD5 DUP2 PUSH2 0x12A PUSH1 0x20 SHL PUSH1 0x20 SHR JUMP JUMPDEST POP DUP3 PUSH1 0x5 PUSH1 0x14 PUSH2 0x100 EXP DUP2 SLOAD DUP2 PUSH1 0xFF MUL NOT AND SWAP1 DUP4 PUSH1 0xFF AND MUL OR SWAP1 SSTORE POP DUP2 PUSH1 0x6 DUP2 SWAP1 SSTORE POP PUSH2 0x11F DUP2 DUP5 PUSH1 0xA PUSH2 0x109 SWAP2 SWAP1 PUSH2 0xBB3 JUMP JUMPDEST DUP7 PUSH2 0x114 SWAP2 SWAP1 PUSH2 0xBFD JUMP JUMPDEST PUSH2 0x1ED PUSH1 0x20 SHL PUSH1 0x20 SHR JUMP JUMPDEST POP POP POP POP POP POP PUSH2 0xCCE JUMP JUMPDEST PUSH0 PUSH1 0x5 PUSH0 SWAP1 SLOAD SWAP1 PUSH2 0x100 EXP SWAP1 DIV PUSH20 0xFFFFFFFFFFFFFFFFFFFFFFFFFFFFFFFFFFFFFFFF AND SWAP1 POP DUP2 PUSH1 0x5 PUSH0 PUSH2 0x100 EXP DUP2 SLOAD DUP2 PUSH20 0xFFFFFFFFFFFFFFFFFFFFFFFFFFFFFFFFFFFFFFFF MUL NOT AND SWAP1 DUP4 PUSH20 0xFFFFFFFFFFFFFFFFFFFFFFFFFFFFFFFFFFFFFFFF AND MUL OR SWAP1 SSTORE POP DUP2 PUSH20 0xFFFFFFFFFFFFFFFFFFFFFFFFFFFFFFFFFFFFFFFF AND DUP2 PUSH20 0xFFFFFFFFFFFFFFFFFFFFFFFFFFFFFFFFFFFFFFFF AND PUSH32 0x8BE0079C531659141344CD1FD0A4F28419497F9722A3DAAFE3B4186F6B6457E0 PUSH1 0x40 MLOAD PUSH1 0x40 MLOAD DUP1 SWAP2 SUB SWAP1 LOG3 POP POP JUMP JUMPDEST PUSH0 PUSH20 0xFFFFFFFFFFFFFFFFFFFFFFFFFFFFFFFFFFFFFFFF AND DUP3 PUSH20 0xFFFFFFFFFFFFFFFFFFFFFFFFFFFFFFFFFFFFFFFF AND SUB PUSH2 0x25D JUMPI PUSH0 PUSH1 0x40 MLOAD PUSH32 0xEC442F0500000000000000000000000000000000000000000000000000000000 DUP2 MSTORE PUSH1 0x4 ADD PUSH2 0x254 SWAP2 SWAP1 PUSH2 0xA3E JUMP JUMPDEST PUSH1 0x40 MLOAD DUP1 SWAP2 SUB SWAP1 REVERT JUMPDEST PUSH2 0x26E PUSH0 DUP4 DUP4 PUSH2 0x272 PUSH1 0x20 SHL PUSH1 0x20 SHR JUMP JUMPDEST POP POP JUMP JUMPDEST PUSH0 PUSH20 0xFFFFFFFFFFFFFFFFFFFFFFFFFFFFFFFFFFFFFFFF AND DUP4 PUSH20 0xFFFFFFFFFFFFFFFFFFFFFFFFFFFFFFFFFFFFFFFF AND SUB PUSH2 0x2C2 JUMPI DUP1 PUSH1 0x2 PUSH0 DUP3 DUP3 SLOAD PUSH2 0x2B6 SWAP2 SWAP1 PUSH2 0xC3E JUMP JUMPDEST SWAP3 POP POP DUP2 SWAP1 SSTORE POP PUSH2 0x390 JUMP JUMPDEST PUSH0 DUP1 PUSH0 DUP6 PUSH20 0xFFFFFFFFFFFFFFFFFFFFFFFFFFFFFFFFFFFFFFFF AND PUSH20 0xFFFFFFFFFFFFFFFFFFFFFFFFFFFFFFFFFFFFFFFF AND DUP2 MSTORE PUSH1 0x20 ADD SWAP1 DUP2 MSTORE PUSH1 0x20 ADD PUSH0 KECCAK256 SLOAD SWAP1 POP DUP2 DUP2 LT ISZERO PUSH2 0x34B JUMPI DUP4 DUP2 DUP4 PUSH1 0x40 MLOAD PUSH32 0xE450D38C00000000000000000000000000000000000000000000000000000000 DUP2 MSTORE PUSH1 0x4 ADD PUSH2 0x342 SWAP4 SWAP3 SWAP2 SWAP1 PUSH2 0xC80 JUMP JUMPDEST PUSH1 0x40 MLOAD DUP1 SWAP2 SUB SWAP1 REVERT JUMPDEST DUP2 DUP2 SUB PUSH0 DUP1 DUP7 PUSH20 0xFFFFFFFFFFFFFFFFFFFFFFFFFFFFFFFFFFFFFFFF AND PUSH20 0xFFFFFFFFFFFFFFFFFFFFFFFFFFFFFFFFFFFFFFFF AND DUP2 MSTORE PUSH1 0x20 ADD SWAP1 DUP2 MSTORE PUSH1 0x20 ADD PUSH0 KECCAK256 DUP2 SWAP1 SSTORE POP POP JUMPDEST PUSH0 PUSH20 0xFFFFFFFFFFFFFFFFFFFFFFFFFFFFFFFFFFFFFFFF AND DUP3 PUSH20 0xFFFFFFFFFFFFFFFFFFFFFFFFFFFFFFFFFFFFFFFF AND SUB PUSH2 0x3D7 JUMPI DUP1 PUSH1 0x2 PUSH0 DUP3 DUP3 SLOAD SUB SWAP3 POP POP DUP2 SWAP1 SSTORE POP PUSH2 0x421 JUMP JUMPDEST DUP1 PUSH0 DUP1 DUP5 PUSH20 0xFFFFFFFFFFFFFFFFFFFFFFFFFFFFFFFFFFFFFFFF AND PUSH20 0xFFFFFFFFFFFFFFFFFFFFFFFFFFFFFFFFFFFFFFFF AND DUP2 MSTORE PUSH1 0x20 ADD SWAP1 DUP2 MSTORE PUSH1 0x20 ADD PUSH0 KECCAK256 PUSH0 DUP3 DUP3 SLOAD ADD SWAP3 POP POP DUP2 SWAP1 SSTORE POP JUMPDEST DUP2 PUSH20 0xFFFFFFFFFFFFFFFFFFFFFFFFFFFFFFFFFFFFFFFF AND DUP4 PUSH20 0xFFFFFFFFFFFFFFFFFFFFFFFFFFFFFFFFFFFFFFFF AND PUSH32 0xDDF252AD1BE2C89B69C2B068FC378DAA952BA7F163C4A11628F55A4DF523B3EF DUP4 PUSH1 0x40 MLOAD PUSH2 0x47E SWAP2 SWAP1 PUSH2 0xCB5 JUMP JUMPDEST PUSH1 0x40 MLOAD DUP1 SWAP2 SUB SWAP1 LOG3 POP POP POP JUMP JUMPDEST PUSH0 PUSH1 0x40 MLOAD SWAP1 POP SWAP1 JUMP JUMPDEST PUSH0 DUP1 REVERT JUMPDEST PUSH0 DUP1 REVERT JUMPDEST PUSH0 DUP1 REVERT JUMPDEST PUSH0 DUP1 REVERT JUMPDEST PUSH0 PUSH1 0x1F NOT PUSH1 0x1F DUP4 ADD AND SWAP1 POP SWAP2 SWAP1 POP JUMP JUMPDEST PUSH32 0x4E487B7100000000000000000000000000000000000000000000000000000000 PUSH0 MSTORE PUSH1 0x41 PUSH1 0x4 MSTORE PUSH1 0x24 PUSH0 REVERT JUMPDEST PUSH2 0x4EA DUP3 PUSH2 0x4A4 JUMP JUMPDEST DUP2 ADD DUP2 DUP2 LT PUSH8 0xFFFFFFFFFFFFFFFF DUP3 GT OR ISZERO PUSH2 0x509 JUMPI PUSH2 0x508 PUSH2 0x4B4 JUMP JUMPDEST JUMPDEST DUP1 PUSH1 0x40 MSTORE POP POP POP JUMP JUMPDEST PUSH0 PUSH2 0x51B PUSH2 0x48B JUMP JUMPDEST SWAP1 POP PUSH2 0x527 DUP3 DUP3 PUSH2 0x4E1 JUMP JUMPDEST SWAP2 SWAP1 POP JUMP JUMPDEST PUSH0 PUSH8 0xFFFFFFFFFFFFFFFF DUP3 GT ISZERO PUSH2 0x546 JUMPI PUSH2 0x545 PUSH2 0x4B4 JUMP JUMPDEST JUMPDEST PUSH2 0x54F DUP3 PUSH2 0x4A4 JUMP JUMPDEST SWAP1 POP PUSH1 0x20 DUP2 ADD SWAP1 POP SWAP2 SWAP1 POP JUMP JUMPDEST DUP3 DUP2 DUP4 MCOPY PUSH0 DUP4 DUP4 ADD MSTORE POP POP POP JUMP JUMPDEST PUSH0 PUSH2 0x57C PUSH2 0x577 DUP5 PUSH2 0x52C JUMP JUMPDEST PUSH2 0x512 JUMP JUMPDEST SWAP1 POP DUP3 DUP2 MSTORE PUSH1 0x20 DUP2 ADD DUP5 DUP5 DUP5 ADD GT ISZERO PUSH2 0x598 JUMPI PUSH2 0x597 PUSH2 0x4A0 JUMP JUMPDEST JUMPDEST PUSH2 0x5A3 DUP5 DUP3 DUP6 PUSH2 0x55C JUMP JUMPDEST POP SWAP4 SWAP3 POP POP POP JUMP JUMPDEST PUSH0 DUP3 PUSH1 0x1F DUP4 ADD SLT PUSH2 0x5BF JUMPI PUSH2 0x5BE PUSH2 0x49C JUMP JUMPDEST JUMPDEST DUP2 MLOAD PUSH2 0x5CF DUP5 DUP3 PUSH1 0x20 DUP7 ADD PUSH2 0x56A JUMP JUMPDEST SWAP2 POP POP SWAP3 SWAP2 POP POP JUMP JUMPDEST PUSH0 DUP2 SWAP1 POP SWAP2 SWAP1 POP JUMP JUMPDEST PUSH2 0x5EA DUP2 PUSH2 0x5D8 JUMP JUMPDEST DUP2 EQ PUSH2 0x5F4 JUMPI PUSH0 DUP1 REVERT JUMPDEST POP JUMP JUMPDEST PUSH0 DUP2 MLOAD SWAP1 POP PUSH2 0x605 DUP2 PUSH2 0x5E1 JUMP JUMPDEST SWAP3 SWAP2 POP POP JUMP JUMPDEST PUSH0 PUSH1 0xFF DUP3 AND SWAP1 POP SWAP2 SWAP1 POP JUMP JUMPDEST PUSH2 0x620 DUP2 PUSH2 0x60B JUMP JUMPDEST DUP2 EQ PUSH2 0x62A JUMPI PUSH0 DUP1 REVERT JUMPDEST POP JUMP JUMPDEST PUSH0 DUP2 MLOAD SWAP1 POP PUSH2 0x63B DUP2 PUSH2 0x617 JUMP JUMPDEST SWAP3 SWAP2 POP POP JUMP JUMPDEST PUSH0 PUSH20 0xFFFFFFFFFFFFFFFFFFFFFFFFFFFFFFFFFFFFFFFF DUP3 AND SWAP1 POP SWAP2 SWAP1 POP JUMP JUMPDEST PUSH0 PUSH2 0x66A DUP3 PUSH2 0x641 JUMP JUMPDEST SWAP1 POP SWAP2 SWAP1 POP JUMP JUMPDEST PUSH2 0x67A DUP2 PUSH2 0x660 JUMP JUMPDEST DUP2 EQ PUSH2 0x684 JUMPI PUSH0 DUP1 REVERT JUMPDEST POP JUMP JUMPDEST PUSH0 DUP2 MLOAD SWAP1 POP PUSH2 0x695 DUP2 PUSH2 0x671 JUMP JUMPDEST SWAP3 SWAP2 POP POP JUMP JUMPDEST PUSH0 DUP1 PUSH0 DUP1 PUSH0 DUP1 PUSH1 0xC0 DUP8 DUP10 SUB SLT ISZERO PUSH2 0x6B5 JUMPI PUSH2 0x6B4 PUSH2 0x494 JUMP JUMPDEST JUMPDEST PUSH0 DUP8 ADD MLOAD PUSH8 0xFFFFFFFFFFFFFFFF DUP2 GT ISZERO PUSH2 0x6D2 JUMPI PUSH2 0x6D1 PUSH2 0x498 JUMP JUMPDEST JUMPDEST PUSH2 0x6DE DUP10 DUP3 DUP11 ADD PUSH2 0x5AB JUMP JUMPDEST SWAP7 POP POP PUSH1 0x20 DUP8 ADD MLOAD PUSH8 0xFFFFFFFFFFFFFFFF DUP2 GT ISZERO PUSH2 0x6FF JUMPI PUSH2 0x6FE PUSH2 0x498 JUMP JUMPDEST JUMPDEST PUSH2 0x70B DUP10 DUP3 DUP11 ADD PUSH2 0x5AB JUMP JUMPDEST SWAP6 POP POP PUSH1 0x40 PUSH2 0x71C DUP10 DUP3 DUP11 ADD PUSH2 0x5F7 JUMP JUMPDEST SWAP5 POP POP PUSH1 0x60 PUSH2 0x72D DUP10 DUP3 DUP11 ADD PUSH2 0x62D JUMP JUMPDEST SWAP4 POP POP PUSH1 0x80 PUSH2 0x73E DUP10 DUP3 DUP11 ADD PUSH2 0x5F7 JUMP JUMPDEST SWAP3 POP POP PUSH1 0xA0 PUSH2 0x74F DUP10 DUP3 DUP11 ADD PUSH2 0x687 JUMP JUMPDEST SWAP2 POP POP SWAP3 SWAP6 POP SWAP3 SWAP6 POP SWAP3 SWAP6 JUMP JUMPDEST PUSH0 DUP2 MLOAD SWAP1 POP SWAP2 SWAP1 POP JUMP JUMPDEST PUSH32 0x4E487B7100000000000000000000000000000000000000000000000000000000 PUSH0 MSTORE PUSH1 0x22 PUSH1 0x4 MSTORE PUSH1 0x24 PUSH0 REVERT JUMPDEST PUSH0 PUSH1 0x2 DUP3 DIV SWAP1 POP PUSH1 0x1 DUP3 AND DUP1 PUSH2 0x7AA JUMPI PUSH1 0x7F DUP3 AND SWAP2 POP JUMPDEST PUSH1 0x20 DUP3 LT DUP2 SUB PUSH2 0x7BD JUMPI PUSH2 0x7BC PUSH2 0x766 JUMP JUMPDEST JUMPDEST POP SWAP2 SWAP1 POP JUMP JUMPDEST PUSH0 DUP2 SWAP1 POP DUP2 PUSH0 MSTORE PUSH1 0x20 PUSH0 KECCAK256 SWAP1 POP SWAP2 SWAP1 POP JUMP JUMPDEST PUSH0 PUSH1 0x20 PUSH1 0x1F DUP4 ADD DIV SWAP1 POP SWAP2 SWAP1 POP JUMP JUMPDEST PUSH0 DUP3 DUP3 SHL SWAP1 POP SWAP3 SWAP2 POP POP JUMP JUMPDEST PUSH0 PUSH1 0x8 DUP4 MUL PUSH2 0x81F PUSH32 0xFFFFFFFFFFFFFFFFFFFFFFFFFFFFFFFFFFFFFFFFFFFFFFFFFFFFFFFFFFFFFFFF DUP3 PUSH2 0x7E4 JUMP JUMPDEST PUSH2 0x829 DUP7 DUP4 PUSH2 0x7E4 JUMP JUMPDEST SWAP6 POP DUP1 NOT DUP5 AND SWAP4 POP DUP1 DUP7 AND DUP5 OR SWAP3 POP POP POP SWAP4 SWAP3 POP POP POP JUMP JUMPDEST PUSH0 DUP2 SWAP1 POP SWAP2 SWAP1 POP JUMP JUMPDEST PUSH0 PUSH2 0x864 PUSH2 0x85F PUSH2 0x85A DUP5 PUSH2 0x5D8 JUMP JUMPDEST PUSH2 0x841 JUMP JUMPDEST PUSH2 0x5D8 JUMP JUMPDEST SWAP1 POP SWAP2 SWAP1 POP JUMP JUMPDEST PUSH0 DUP2 SWAP1 POP SWAP2 SWAP1 POP JUMP JUMPDEST PUSH2 0x87D DUP4 PUSH2 0x84A JUMP JUMPDEST PUSH2 0x891 PUSH2 0x889 DUP3 PUSH2 0x86B JUMP JUMPDEST DUP5 DUP5 SLOAD PUSH2 0x7F0 JUMP JUMPDEST DUP3 SSTORE POP POP POP POP JUMP JUMPDEST PUSH0 SWAP1 JUMP JUMPDEST PUSH2 0x8A5 PUSH2 0x899 JUMP JUMPDEST PUSH2 0x8B0 DUP2 DUP5 DUP5 PUSH2 0x874 JUMP JUMPDEST POP POP POP JUMP JUMPDEST JUMPDEST DUP2 DUP2 LT ISZERO PUSH2 0x8D3 JUMPI PUSH2 0x8C8 PUSH0 DUP3 PUSH2 0x89D JUMP JUMPDEST PUSH1 0x1 DUP2 ADD SWAP1 POP PUSH2 0x8B6 JUMP JUMPDEST POP POP JUMP JUMPDEST PUSH1 0x1F DUP3 GT ISZERO PUSH2 0x918 JUMPI PUSH2 0x8E9 DUP2 PUSH2 0x7C3 JUMP JUMPDEST PUSH2 0x8F2 DUP5 PUSH2 0x7D5 JUMP JUMPDEST DUP2 ADD PUSH1 0x20 DUP6 LT ISZERO PUSH2 0x901 JUMPI DUP2 SWAP1 POP JUMPDEST PUSH2 0x915 PUSH2 0x90D DUP6 PUSH2 0x7D5 JUMP JUMPDEST DUP4 ADD DUP3 PUSH2 0x8B5 JUMP JUMPDEST POP POP JUMPDEST POP POP POP JUMP JUMPDEST PUSH0 DUP3 DUP3 SHR SWAP1 POP SWAP3 SWAP2 POP POP JUMP JUMPDEST PUSH0 PUSH2 0x938 PUSH0 NOT DUP5 PUSH1 0x8 MUL PUSH2 0x91D JUMP JUMPDEST NOT DUP1 DUP4 AND SWAP2 POP POP SWAP3 SWAP2 POP POP JUMP JUMPDEST PUSH0 PUSH2 0x950 DUP4 DUP4 PUSH2 0x929 JUMP JUMPDEST SWAP2 POP DUP3 PUSH1 0x2 MUL DUP3 OR SWAP1 POP SWAP3 SWAP2 POP POP JUMP JUMPDEST PUSH2 0x969 DUP3 PUSH2 0x75C JUMP JUMPDEST PUSH8 0xFFFFFFFFFFFFFFFF DUP2 GT ISZERO PUSH2 0x982 JUMPI PUSH2 0x981 PUSH2 0x4B4 JUMP JUMPDEST JUMPDEST PUSH2 0x98C DUP3 SLOAD PUSH2 0x793 JUMP JUMPDEST PUSH2 0x997 DUP3 DUP3 DUP6 PUSH2 0x8D7 JUMP JUMPDEST PUSH0 PUSH1 0x20 SWAP1 POP PUSH1 0x1F DUP4 GT PUSH1 0x1 DUP2 EQ PUSH2 0x9C8 JUMPI PUSH0 DUP5 ISZERO PUSH2 0x9B6 JUMPI DUP3 DUP8 ADD MLOAD SWAP1 POP JUMPDEST PUSH2 0x9C0 DUP6 DUP3 PUSH2 0x945 JUMP JUMPDEST DUP7 SSTORE POP PUSH2 0xA27 JUMP JUMPDEST PUSH1 0x1F NOT DUP5 AND PUSH2 0x9D6 DUP7 PUSH2 0x7C3 JUMP JUMPDEST PUSH0 JUMPDEST DUP3 DUP2 LT ISZERO PUSH2 0x9FD JUMPI DUP5 DUP10 ADD MLOAD DUP3 SSTORE PUSH1 0x1 DUP3 ADD SWAP2 POP PUSH1 0x20 DUP6 ADD SWAP5 POP PUSH1 0x20 DUP2 ADD SWAP1 POP PUSH2 0x9D8 JUMP JUMPDEST DUP7 DUP4 LT ISZERO PUSH2 0xA1A JUMPI DUP5 DUP10 ADD MLOAD PUSH2 0xA16 PUSH1 0x1F DUP10 AND DUP3 PUSH2 0x929 JUMP JUMPDEST DUP4 SSTORE POP JUMPDEST PUSH1 0x1 PUSH1 0x2 DUP9 MUL ADD DUP9 SSTORE POP POP POP JUMPDEST POP POP POP POP POP POP JUMP JUMPDEST PUSH2 0xA38 DUP2 PUSH2 0x660 JUMP JUMPDEST DUP3 MSTORE POP POP JUMP JUMPDEST PUSH0 PUSH1 0x20 DUP3 ADD SWAP1 POP PUSH2 0xA51 PUSH0 DUP4 ADD DUP5 PUSH2 0xA2F JUMP JUMPDEST SWAP3 SWAP2 POP POP JUMP JUMPDEST PUSH32 0x4E487B7100000000000000000000000000000000000000000000000000000000 PUSH0 MSTORE PUSH1 0x11 PUSH1 0x4 MSTORE PUSH1 0x24 PUSH0 REVERT JUMPDEST PUSH0 DUP2 PUSH1 0x1 SHR SWAP1 POP SWAP2 SWAP1 POP JUMP JUMPDEST PUSH0 DUP1 DUP3 SWAP2 POP DUP4 SWAP1 POP JUMPDEST PUSH1 0x1 DUP6 GT ISZERO PUSH2 0xAD9 JUMPI DUP1 DUP7 DIV DUP2 GT ISZERO PUSH2 0xAB5 JUMPI PUSH2 0xAB4 PUSH2 0xA57 JUMP JUMPDEST JUMPDEST PUSH1 0x1 DUP6 AND ISZERO PUSH2 0xAC4 JUMPI DUP1 DUP3 MUL SWAP2 POP JUMPDEST DUP1 DUP2 MUL SWAP1 POP PUSH2 0xAD2 DUP6 PUSH2 0xA84 JUMP JUMPDEST SWAP5 POP PUSH2 0xA99 JUMP JUMPDEST SWAP5 POP SWAP5 SWAP3 POP POP POP JUMP JUMPDEST PUSH0 DUP3 PUSH2 0xAF1 JUMPI PUSH1 0x1 SWAP1 POP PUSH2 0xBAC JUMP JUMPDEST DUP2 PUSH2 0xAFE JUMPI PUSH0 SWAP1 POP PUSH2 0xBAC JUMP JUMPDEST DUP2 PUSH1 0x1 DUP2 EQ PUSH2 0xB14 JUMPI PUSH1 0x2 DUP2 EQ PUSH2 0xB1E JUMPI PUSH2 0xB4D JUMP JUMPDEST PUSH1 0x1 SWAP2 POP POP PUSH2 0xBAC JUMP JUMPDEST PUSH1 0xFF DUP5 GT ISZERO PUSH2 0xB30 JUMPI PUSH2 0xB2F PUSH2 0xA57 JUMP JUMPDEST JUMPDEST DUP4 PUSH1 0x2 EXP SWAP2 POP DUP5 DUP3 GT ISZERO PUSH2 0xB47 JUMPI PUSH2 0xB46 PUSH2 0xA57 JUMP JUMPDEST JUMPDEST POP PUSH2 0xBAC JUMP JUMPDEST POP PUSH1 0x20 DUP4 LT PUSH2 0x133 DUP4 LT AND PUSH1 0x4E DUP5 LT PUSH1 0xB DUP5 LT AND OR ISZERO PUSH2 0xB82 JUMPI DUP3 DUP3 EXP SWAP1 POP DUP4 DUP2 GT ISZERO PUSH2 0xB7D JUMPI PUSH2 0xB7C PUSH2 0xA57 JUMP JUMPDEST JUMPDEST PUSH2 0xBAC JUMP JUMPDEST PUSH2 0xB8F DUP5 DUP5 DUP5 PUSH1 0x1 PUSH2 0xA90 JUMP JUMPDEST SWAP3 POP SWAP1 POP DUP2 DUP5 DIV DUP2 GT ISZERO PUSH2 0xBA6 JUMPI PUSH2 0xBA5 PUSH2 0xA57 JUMP JUMPDEST JUMPDEST DUP2 DUP2 MUL SWAP1 POP JUMPDEST SWAP4 SWAP3 POP POP POP JUMP JUMPDEST PUSH0 PUSH2 0xBBD DUP3 PUSH2 0x5D8 JUMP JUMPDEST SWAP2 POP PUSH2 0xBC8 DUP4 PUSH2 0x60B JUMP JUMPDEST SWAP3 POP PUSH2 0xBF5 PUSH32 0xFFFFFFFFFFFFFFFFFFFFFFFFFFFFFFFFFFFFFFFFFFFFFFFFFFFFFFFFFFFFFFFF DUP5 DUP5 PUSH2 0xAE2 JUMP JUMPDEST SWAP1 POP SWAP3 SWAP2 POP POP JUMP JUMPDEST PUSH0 PUSH2 0xC07 DUP3 PUSH2 0x5D8 JUMP JUMPDEST SWAP2 POP PUSH2 0xC12 DUP4 PUSH2 0x5D8 JUMP JUMPDEST SWAP3 POP DUP3 DUP3 MUL PUSH2 0xC20 DUP2 PUSH2 0x5D8 JUMP JUMPDEST SWAP2 POP DUP3 DUP3 DIV DUP5 EQ DUP4 ISZERO OR PUSH2 0xC37 JUMPI PUSH2 0xC36 PUSH2 0xA57 JUMP JUMPDEST JUMPDEST POP SWAP3 SWAP2 POP POP JUMP JUMPDEST PUSH0 PUSH2 0xC48 DUP3 PUSH2 0x5D8 JUMP JUMPDEST SWAP2 POP PUSH2 0xC53 DUP4 PUSH2 0x5D8 JUMP JUMPDEST SWAP3 POP DUP3 DUP3 ADD SWAP1 POP DUP1 DUP3 GT ISZERO PUSH2 0xC6B JUMPI PUSH2 0xC6A PUSH2 0xA57 JUMP JUMPDEST JUMPDEST SWAP3 SWAP2 POP POP JUMP JUMPDEST PUSH2 0xC7A DUP2 PUSH2 0x5D8 JUMP JUMPDEST DUP3 MSTORE POP POP JUMP JUMPDEST PUSH0 PUSH1 0x60 DUP3 ADD SWAP1 POP PUSH2 0xC93 PUSH0 DUP4 ADD DUP7 PUSH2 0xA2F JUMP JUMPDEST PUSH2 0xCA0 PUSH1 0x20 DUP4 ADD DUP6 PUSH2 0xC71 JUMP JUMPDEST PUSH2 0xCAD PUSH1 0x40 DUP4 ADD DUP5 PUSH2 0xC71 JUMP JUMPDEST SWAP5 SWAP4 POP POP POP POP JUMP JUMPDEST PUSH0 PUSH1 0x20 DUP3 ADD SWAP1 POP PUSH2 0xCC8 PUSH0 DUP4 ADD DUP5 PUSH2 0xC71 JUMP JUMPDEST SWAP3 SWAP2 POP POP JUMP JUMPDEST PUSH2 0x1225 DUP1 PUSH2 0xCDB PUSH0 CODECOPY PUSH0 RETURN INVALID PUSH1 0x80 PUSH1 0x40 MSTORE CALLVALUE DUP1 ISZERO PUSH2 0xF JUMPI PUSH0 DUP1 REVERT JUMPDEST POP PUSH1 0x4 CALLDATASIZE LT PUSH2 0xF3 JUMPI PUSH0 CALLDATALOAD PUSH1 0xE0 SHR DUP1 PUSH4 0x715018A6 GT PUSH2 0x95 JUMPI DUP1 PUSH4 0xA9059CBB GT PUSH2 0x64 JUMPI DUP1 PUSH4 0xA9059CBB EQ PUSH2 0x25F JUMPI DUP1 PUSH4 0xDD62ED3E EQ PUSH2 0x28F JUMPI DUP1 PUSH4 0xF2FDE38B EQ PUSH2 0x2BF JUMPI DUP1 PUSH4 0xFDD760EA EQ PUSH2 0x2DB JUMPI PUSH2 0xF3 JUMP JUMPDEST DUP1 PUSH4 0x715018A6 EQ PUSH2 0x1FD JUMPI DUP1 PUSH4 0x8DA5CB5B EQ PUSH2 0x207 JUMPI DUP1 PUSH4 0x95D89B41 EQ PUSH2 0x225 JUMPI DUP1 PUSH4 0x9DC29FAC EQ PUSH2 0x243 JUMPI PUSH2 0xF3 JUMP JUMPDEST DUP1 PUSH4 0x23B872DD GT PUSH2 0xD1 JUMPI DUP1 PUSH4 0x23B872DD EQ PUSH2 0x163 JUMPI DUP1 PUSH4 0x313CE567 EQ PUSH2 0x193 JUMPI DUP1 PUSH4 0x40C10F19 EQ PUSH2 0x1B1 JUMPI DUP1 PUSH4 0x70A08231 EQ PUSH2 0x1CD JUMPI PUSH2 0xF3 JUMP JUMPDEST DUP1 PUSH4 0x6FDDE03 EQ PUSH2 0xF7 JUMPI DUP1 PUSH4 0x95EA7B3 EQ PUSH2 0x115 JUMPI DUP1 PUSH4 0x18160DDD EQ PUSH2 0x145 JUMPI JUMPDEST PUSH0 DUP1 REVERT JUMPDEST PUSH2 0xFF PUSH2 0x2F9 JUMP JUMPDEST PUSH1 0x40 MLOAD PUSH2 0x10C SWAP2 SWAP1 PUSH2 0xE9E JUMP JUMPDEST PUSH1 0x40 MLOAD DUP1 SWAP2 SUB SWAP1 RETURN JUMPDEST PUSH2 0x12F PUSH1 0x4 DUP1 CALLDATASIZE SUB DUP2 ADD SWAP1 PUSH2 0x12A SWAP2 SWAP1 PUSH2 0xF4F JUMP JUMPDEST PUSH2 0x389 JUMP JUMPDEST PUSH1 0x40 MLOAD PUSH2 0x13C SWAP2 SWAP1 PUSH2 0xFA7 JUMP JUMPDEST PUSH1 0x40 MLOAD DUP1 SWAP2 SUB SWAP1 RETURN JUMPDEST PUSH2 0x14D PUSH2 0x3AB JUMP JUMPDEST PUSH1 0x40 MLOAD PUSH2 0x15A SWAP2 SWAP1 PUSH2 0xFCF JUMP JUMPDEST PUSH1 0x40 MLOAD DUP1 SWAP2 SUB SWAP1 RETURN JUMPDEST PUSH2 0x17D PUSH1 0x4 DUP1 CALLDATASIZE SUB DUP2 ADD SWAP1 PUSH2 0x178 SWAP2 SWAP1 PUSH2 0xFE8 JUMP JUMPDEST PUSH2 0x3B4 JUMP JUMPDEST PUSH1 0x40 MLOAD PUSH2 0x18A SWAP2 SWAP1 PUSH2 0xFA7 JUMP JUMPDEST PUSH1 0x40 MLOAD DUP1 SWAP2 SUB SWAP1 RETURN JUMPDEST PUSH2 0x19B PUSH2 0x3E2 JUMP JUMPDEST PUSH1 0x40 MLOAD PUSH2 0x1A8 SWAP2 SWAP1 PUSH2 0x1053 JUMP JUMPDEST PUSH1 0x40 MLOAD DUP1 SWAP2 SUB SWAP1 RETURN JUMPDEST PUSH2 0x1CB PUSH1 0x4 DUP1 CALLDATASIZE SUB DUP2 ADD SWAP1 PUSH2 0x1C6 SWAP2 SWAP1 PUSH2 0xF4F JUMP JUMPDEST PUSH2 0x3F8 JUMP JUMPDEST STOP JUMPDEST PUSH2 0x1E7 PUSH1 0x4 DUP1 CALLDATASIZE SUB DUP2 ADD SWAP1 PUSH2 0x1E2 SWAP2 SWAP1 PUSH2 0x106C JUMP JUMPDEST PUSH2 0x40E JUMP JUMPDEST PUSH1 0x40 MLOAD PUSH2 0x1F4 SWAP2 SWAP1 PUSH2 0xFCF JUMP JUMPDEST PUSH1 0x40 MLOAD DUP1 SWAP2 SUB SWAP1 RETURN JUMPDEST PUSH2 0x205 PUSH2 0x453 JUMP JUMPDEST STOP JUMPDEST PUSH2 0x20F PUSH2 0x466 JUMP JUMPDEST PUSH1 0x40 MLOAD PUSH2 0x21C SWAP2 SWAP1 PUSH2 0x10A6 JUMP JUMPDEST PUSH1 0x40 MLOAD DUP1 SWAP2 SUB SWAP1 RETURN JUMPDEST PUSH2 0x22D PUSH2 0x48E JUMP JUMPDEST PUSH1 0x40 MLOAD PUSH2 0x23A SWAP2 SWAP1 PUSH2 0xE9E JUMP JUMPDEST PUSH1 0x40 MLOAD DUP1 SWAP2 SUB SWAP1 RETURN JUMPDEST PUSH2 0x25D PUSH1 0x4 DUP1 CALLDATASIZE SUB DUP2 ADD SWAP1 PUSH2 0x258 SWAP2 SWAP1 PUSH2 0xF4F JUMP JUMPDEST PUSH2 0x51E JUMP JUMPDEST STOP JUMPDEST PUSH2 0x279 PUSH1 0x4 DUP1 CALLDATASIZE SUB DUP2 ADD SWAP1 PUSH2 0x274 SWAP2 SWAP1 PUSH2 0xF4F JUMP JUMPDEST PUSH2 0x534 JUMP JUMPDEST PUSH1 0x40 MLOAD PUSH2 0x286 SWAP2 SWAP1 PUSH2 0xFA7 JUMP JUMPDEST PUSH1 0x40 MLOAD DUP1 SWAP2 SUB SWAP1 RETURN JUMPDEST PUSH2 0x2A9 PUSH1 0x4 DUP1 CALLDATASIZE SUB DUP2 ADD SWAP1 PUSH2 0x2A4 SWAP2 SWAP1 PUSH2 0x10BF JUMP JUMPDEST PUSH2 0x556 JUMP JUMPDEST PUSH1 0x40 MLOAD PUSH2 0x2B6 SWAP2 SWAP1 PUSH2 0xFCF JUMP JUMPDEST PUSH1 0x40 MLOAD DUP1 SWAP2 SUB SWAP1 RETURN JUMPDEST PUSH2 0x2D9 PUSH1 0x4 DUP1 CALLDATASIZE SUB DUP2 ADD SWAP1 PUSH2 0x2D4 SWAP2 SWAP1 PUSH2 0x106C JUMP JUMPDEST PUSH2 0x5D8 JUMP JUMPDEST STOP JUMPDEST PUSH2 0x2E3 PUSH2 0x65C JUMP JUMPDEST PUSH1 0x40 MLOAD PUSH2 0x2F0 SWAP2 SWAP1 PUSH2 0xFCF JUMP JUMPDEST PUSH1 0x40 MLOAD DUP1 SWAP2 SUB SWAP1 RETURN JUMPDEST PUSH1 0x60 PUSH1 0x3 DUP1 SLOAD PUSH2 0x308 SWAP1 PUSH2 0x112A JUMP JUMPDEST DUP1 PUSH1 0x1F ADD PUSH1 0x20 DUP1 SWAP2 DIV MUL PUSH1 0x20 ADD PUSH1 0x40 MLOAD SWAP1 DUP2 ADD PUSH1 0x40 MSTORE DUP1 SWAP3 SWAP2 SWAP1 DUP2 DUP2 MSTORE PUSH1 0x20 ADD DUP3 DUP1 SLOAD PUSH2 0x334 SWAP1 PUSH2 0x112A JUMP JUMPDEST DUP1 ISZERO PUSH2 0x37F JUMPI DUP1 PUSH1 0x1F LT PUSH2 0x356 JUMPI PUSH2 0x100 DUP1 DUP4 SLOAD DIV MUL DUP4 MSTORE SWAP2 PUSH1 0x20 ADD SWAP2 PUSH2 0x37F JUMP JUMPDEST DUP3 ADD SWAP2 SWAP1 PUSH0 MSTORE PUSH1 0x20 PUSH0 KECCAK256 SWAP1 JUMPDEST DUP2 SLOAD DUP2 MSTORE SWAP1 PUSH1 0x1 ADD SWAP1 PUSH1 0x20 ADD DUP1 DUP4 GT PUSH2 0x362 JUMPI DUP3 SWAP1 SUB PUSH1 0x1F AND DUP3 ADD SWAP2 JUMPDEST POP POP POP POP POP SWAP1 POP SWAP1 JUMP JUMPDEST PUSH0 DUP1 PUSH2 0x393 PUSH2 0x662 JUMP JUMPDEST SWAP1 POP PUSH2 0x3A0 DUP2 DUP6 DUP6 PUSH2 0x669 JUMP JUMPDEST PUSH1 0x1 SWAP2 POP POP SWAP3 SWAP2 POP POP JUMP JUMPDEST PUSH0 PUSH1 0x2 SLOAD SWAP1 POP SWAP1 JUMP JUMPDEST PUSH0 DUP1 PUSH2 0x3BE PUSH2 0x662 JUMP JUMPDEST SWAP1 POP PUSH2 0x3CB DUP6 DUP3 DUP6 PUSH2 0x67B JUMP JUMPDEST PUSH2 0x3D6 DUP6 DUP6 DUP6 PUSH2 0x70E JUMP JUMPDEST PUSH1 0x1 SWAP2 POP POP SWAP4 SWAP3 POP POP POP JUMP JUMPDEST PUSH0 PUSH1 0x5 PUSH1 0x14 SWAP1 SLOAD SWAP1 PUSH2 0x100 EXP SWAP1 DIV PUSH1 0xFF AND SWAP1 POP SWAP1 JUMP JUMPDEST PUSH2 0x400 PUSH2 0x7FE JUMP JUMPDEST PUSH2 0x40A DUP3 DUP3 PUSH2 0x885 JUMP JUMPDEST POP POP JUMP JUMPDEST PUSH0 DUP1 PUSH0 DUP4 PUSH20 0xFFFFFFFFFFFFFFFFFFFFFFFFFFFFFFFFFFFFFFFF AND PUSH20 0xFFFFFFFFFFFFFFFFFFFFFFFFFFFFFFFFFFFFFFFF AND DUP2 MSTORE PUSH1 0x20 ADD SWAP1 DUP2 MSTORE PUSH1 0x20 ADD PUSH0 KECCAK256 SLOAD SWAP1 POP SWAP2 SWAP1 POP JUMP JUMPDEST PUSH2 0x45B PUSH2 0x7FE JUMP JUMPDEST PUSH2 0x464 PUSH0 PUSH2 0x904 JUMP JUMPDEST JUMP JUMPDEST PUSH0 PUSH1 0x5 PUSH0 SWAP1 SLOAD SWAP1 PUSH2 0x100 EXP SWAP1 DIV PUSH20 0xFFFFFFFFFFFFFFFFFFFFFFFFFFFFFFFFFFFFFFFF AND SWAP1 POP SWAP1 JUMP JUMPDEST PUSH1 0x60 PUSH1 0x4 DUP1 SLOAD PUSH2 0x49D SWAP1 PUSH2 0x112A JUMP JUMPDEST DUP1 PUSH1 0x1F ADD PUSH1 0x20 DUP1 SWAP2 DIV MUL PUSH1 0x20 ADD PUSH1 0x40 MLOAD SWAP1 DUP2 ADD PUSH1 0x40 MSTORE DUP1 SWAP3 SWAP2 SWAP1 DUP2 DUP2 MSTORE PUSH1 0x20 ADD DUP3 DUP1 SLOAD PUSH2 0x4C9 SWAP1 PUSH2 0x112A JUMP JUMPDEST DUP1 ISZERO PUSH2 0x514 JUMPI DUP1 PUSH1 0x1F LT PUSH2 0x4EB JUMPI PUSH2 0x100 DUP1 DUP4 SLOAD DIV MUL DUP4 MSTORE SWAP2 PUSH1 0x20 ADD SWAP2 PUSH2 0x514 JUMP JUMPDEST DUP3 ADD SWAP2 SWAP1 PUSH0 MSTORE PUSH1 0x20 PUSH0 KECCAK256 SWAP1 JUMPDEST DUP2 SLOAD DUP2 MSTORE SWAP1 PUSH1 0x1 ADD SWAP1 PUSH1 0x20 ADD DUP1 DUP4 GT PUSH2 0x4F7 JUMPI DUP3 SWAP1 SUB PUSH1 0x1F AND DUP3 ADD SWAP2 JUMPDEST POP POP POP POP POP SWAP1 POP SWAP1 JUMP JUMPDEST PUSH2 0x526 PUSH2 0x7FE JUMP JUMPDEST PUSH2 0x530 DUP3 DUP3 PUSH2 0x9C7 JUMP JUMPDEST POP POP JUMP JUMPDEST PUSH0 DUP1 PUSH2 0x53E PUSH2 0x662 JUMP JUMPDEST SWAP1 POP PUSH2 0x54B DUP2 DUP6 DUP6 PUSH2 0x70E JUMP JUMPDEST PUSH1 0x1 SWAP2 POP POP SWAP3 SWAP2 POP POP JUMP JUMPDEST PUSH0 PUSH1 0x1 PUSH0 DUP5 PUSH20 0xFFFFFFFFFFFFFFFFFFFFFFFFFFFFFFFFFFFFFFFF AND PUSH20 0xFFFFFFFFFFFFFFFFFFFFFFFFFFFFFFFFFFFFFFFF AND DUP2 MSTORE PUSH1 0x20 ADD SWAP1 DUP2 MSTORE PUSH1 0x20 ADD PUSH0 KECCAK256 PUSH0 DUP4 PUSH20 0xFFFFFFFFFFFFFFFFFFFFFFFFFFFFFFFFFFFFFFFF AND PUSH20 0xFFFFFFFFFFFFFFFFFFFFFFFFFFFFFFFFFFFFFFFF AND DUP2 MSTORE PUSH1 0x20 ADD SWAP1 DUP2 MSTORE PUSH1 0x20 ADD PUSH0 KECCAK256 SLOAD SWAP1 POP SWAP3 SWAP2 POP POP JUMP JUMPDEST PUSH2 0x5E0 PUSH2 0x7FE JUMP JUMPDEST PUSH0 PUSH20 0xFFFFFFFFFFFFFFFFFFFFFFFFFFFFFFFFFFFFFFFF AND DUP2 PUSH20 0xFFFFFFFFFFFFFFFFFFFFFFFFFFFFFFFFFFFFFFFF AND SUB PUSH2 0x650 JUMPI PUSH0 PUSH1 0x40 MLOAD PUSH32 0x1E4FBDF700000000000000000000000000000000000000000000000000000000 DUP2 MSTORE PUSH1 0x4 ADD PUSH2 0x647 SWAP2 SWAP1 PUSH2 0x10A6 JUMP JUMPDEST PUSH1 0x40 MLOAD DUP1 SWAP2 SUB SWAP1 REVERT JUMPDEST PUSH2 0x659 DUP2 PUSH2 0x904 JUMP JUMPDEST POP JUMP JUMPDEST PUSH1 0x6 SLOAD DUP2 JUMP JUMPDEST PUSH0 CALLER SWAP1 POP SWAP1 JUMP JUMPDEST PUSH2 0x676 DUP4 DUP4 DUP4 PUSH1 0x1 PUSH2 0xA46 JUMP JUMPDEST POP POP POP JUMP JUMPDEST PUSH0 PUSH2 0x686 DUP5 DUP5 PUSH2 0x556 JUMP JUMPDEST SWAP1 POP PUSH32 0xFFFFFFFFFFFFFFFFFFFFFFFFFFFFFFFFFFFFFFFFFFFFFFFFFFFFFFFFFFFFFFFF DUP2 LT ISZERO PUSH2 0x708 JUMPI DUP2 DUP2 LT ISZERO PUSH2 0x6F9 JUMPI DUP3 DUP2 DUP4 PUSH1 0x40 MLOAD PUSH32 0xFB8F41B200000000000000000000000000000000000000000000000000000000 DUP2 MSTORE PUSH1 0x4 ADD PUSH2 0x6F0 SWAP4 SWAP3 SWAP2 SWAP1 PUSH2 0x115A JUMP JUMPDEST PUSH1 0x40 MLOAD DUP1 SWAP2 SUB SWAP1 REVERT JUMPDEST PUSH2 0x707 DUP5 DUP5 DUP5 DUP5 SUB PUSH0 PUSH2 0xA46 JUMP JUMPDEST JUMPDEST POP POP POP POP JUMP JUMPDEST PUSH0 PUSH20 0xFFFFFFFFFFFFFFFFFFFFFFFFFFFFFFFFFFFFFFFF AND DUP4 PUSH20 0xFFFFFFFFFFFFFFFFFFFFFFFFFFFFFFFFFFFFFFFF AND SUB PUSH2 0x77E JUMPI PUSH0 PUSH1 0x40 MLOAD PUSH32 0x96C6FD1E00000000000000000000000000000000000000000000000000000000 DUP2 MSTORE PUSH1 0x4 ADD PUSH2 0x775 SWAP2 SWAP1 PUSH2 0x10A6 JUMP JUMPDEST PUSH1 0x40 MLOAD DUP1 SWAP2 SUB SWAP1 REVERT JUMPDEST PUSH0 PUSH20 0xFFFFFFFFFFFFFFFFFFFFFFFFFFFFFFFFFFFFFFFF AND DUP3 PUSH20 0xFFFFFFFFFFFFFFFFFFFFFFFFFFFFFFFFFFFFFFFF AND SUB PUSH2 0x7EE JUMPI PUSH0 PUSH1 0x40 MLOAD PUSH32 0xEC442F0500000000000000000000000000000000000000000000000000000000 DUP2 MSTORE PUSH1 0x4 ADD PUSH2 0x7E5 SWAP2 SWAP1 PUSH2 0x10A6 JUMP JUMPDEST PUSH1 0x40 MLOAD DUP1 SWAP2 SUB SWAP1 REVERT JUMPDEST PUSH2 0x7F9 DUP4 DUP4 DUP4 PUSH2 0xC15 JUMP JUMPDEST POP POP POP JUMP JUMPDEST PUSH2 0x806 PUSH2 0x662 JUMP JUMPDEST PUSH20 0xFFFFFFFFFFFFFFFFFFFFFFFFFFFFFFFFFFFFFFFF AND PUSH2 0x824 PUSH2 0x466 JUMP JUMPDEST PUSH20 0xFFFFFFFFFFFFFFFFFFFFFFFFFFFFFFFFFFFFFFFF AND EQ PUSH2 0x883 JUMPI PUSH2 0x847 PUSH2 0x662 JUMP JUMPDEST PUSH1 0x40 MLOAD PUSH32 0x118CDAA700000000000000000000000000000000000000000000000000000000 DUP2 MSTORE PUSH1 0x4 ADD PUSH2 0x87A SWAP2 SWAP1 PUSH2 0x10A6 JUMP JUMPDEST PUSH1 0x40 MLOAD DUP1 SWAP2 SUB SWAP1 REVERT JUMPDEST JUMP JUMPDEST PUSH0 PUSH20 0xFFFFFFFFFFFFFFFFFFFFFFFFFFFFFFFFFFFFFFFF AND DUP3 PUSH20 0xFFFFFFFFFFFFFFFFFFFFFFFFFFFFFFFFFFFFFFFF AND SUB PUSH2 0x8F5 JUMPI PUSH0 PUSH1 0x40 MLOAD PUSH32 0xEC442F0500000000000000000000000000000000000000000000000000000000 DUP2 MSTORE PUSH1 0x4 ADD PUSH2 0x8EC SWAP2 SWAP1 PUSH2 0x10A6 JUMP JUMPDEST PUSH1 0x40 MLOAD DUP1 SWAP2 SUB SWAP1 REVERT JUMPDEST PUSH2 0x900 PUSH0 DUP4 DUP4 PUSH2 0xC15 JUMP JUMPDEST POP POP JUMP JUMPDEST PUSH0 PUSH1 0x5 PUSH0 SWAP1 SLOAD SWAP1 PUSH2 0x100 EXP SWAP1 DIV PUSH20 0xFFFFFFFFFFFFFFFFFFFFFFFFFFFFFFFFFFFFFFFF AND SWAP1 POP DUP2 PUSH1 0x5 PUSH0 PUSH2 0x100 EXP DUP2 SLOAD DUP2 PUSH20 0xFFFFFFFFFFFFFFFFFFFFFFFFFFFFFFFFFFFFFFFF MUL NOT AND SWAP1 DUP4 PUSH20 0xFFFFFFFFFFFFFFFFFFFFFFFFFFFFFFFFFFFFFFFF AND MUL OR SWAP1 SSTORE POP DUP2 PUSH20 0xFFFFFFFFFFFFFFFFFFFFFFFFFFFFFFFFFFFFFFFF AND DUP2 PUSH20 0xFFFFFFFFFFFFFFFFFFFFFFFFFFFFFFFFFFFFFFFF AND PUSH32 0x8BE0079C531659141344CD1FD0A4F28419497F9722A3DAAFE3B4186F6B6457E0 PUSH1 0x40 MLOAD PUSH1 0x40 MLOAD DUP1 SWAP2 SUB SWAP1 LOG3 POP POP JUMP JUMPDEST PUSH0 PUSH20 0xFFFFFFFFFFFFFFFFFFFFFFFFFFFFFFFFFFFFFFFF AND DUP3 PUSH20 0xFFFFFFFFFFFFFFFFFFFFFFFFFFFFFFFFFFFFFFFF AND SUB PUSH2 0xA37 JUMPI PUSH0 PUSH1 0x40 MLOAD PUSH32 0x96C6FD1E00000000000000000000000000000000000000000000000000000000 DUP2 MSTORE PUSH1 0x4 ADD PUSH2 0xA2E SWAP2 SWAP1 PUSH2 0x10A6 JUMP JUMPDEST PUSH1 0x40 MLOAD DUP1 SWAP2 SUB SWAP1 REVERT JUMPDEST PUSH2 0xA42 DUP3 PUSH0 DUP4 PUSH2 0xC15 JUMP JUMPDEST POP POP JUMP JUMPDEST PUSH0 PUSH20 0xFFFFFFFFFFFFFFFFFFFFFFFFFFFFFFFFFFFFFFFF AND DUP5 PUSH20 0xFFFFFFFFFFFFFFFFFFFFFFFFFFFFFFFFFFFFFFFF AND SUB PUSH2 0xAB6 JUMPI PUSH0 PUSH1 0x40 MLOAD PUSH32 0xE602DF0500000000000000000000000000000000000000000000000000000000 DUP2 MSTORE PUSH1 0x4 ADD PUSH2 0xAAD SWAP2 SWAP1 PUSH2 0x10A6 JUMP JUMPDEST PUSH1 0x40 MLOAD DUP1 SWAP2 SUB SWAP1 REVERT JUMPDEST PUSH0 PUSH20 0xFFFFFFFFFFFFFFFFFFFFFFFFFFFFFFFFFFFFFFFF AND DUP4 PUSH20 0xFFFFFFFFFFFFFFFFFFFFFFFFFFFFFFFFFFFFFFFF AND SUB PUSH2 0xB26 JUMPI PUSH0 PUSH1 0x40 MLOAD PUSH32 0x94280D6200000000000000000000000000000000000000000000000000000000 DUP2 MSTORE PUSH1 0x4 ADD PUSH2 0xB1D SWAP2 SWAP1 PUSH2 0x10A6 JUMP JUMPDEST PUSH1 0x40 MLOAD DUP1 SWAP2 SUB SWAP1 REVERT JUMPDEST DUP2 PUSH1 0x1 PUSH0 DUP7 PUSH20 0xFFFFFFFFFFFFFFFFFFFFFFFFFFFFFFFFFFFFFFFF AND PUSH20 0xFFFFFFFFFFFFFFFFFFFFFFFFFFFFFFFFFFFFFFFF AND DUP2 MSTORE PUSH1 0x20 ADD SWAP1 DUP2 MSTORE PUSH1 0x20 ADD PUSH0 KECCAK256 PUSH0 DUP6 PUSH20 0xFFFFFFFFFFFFFFFFFFFFFFFFFFFFFFFFFFFFFFFF AND PUSH20 0xFFFFFFFFFFFFFFFFFFFFFFFFFFFFFFFFFFFFFFFF AND DUP2 MSTORE PUSH1 0x20 ADD SWAP1 DUP2 MSTORE PUSH1 0x20 ADD PUSH0 KECCAK256 DUP2 SWAP1 SSTORE POP DUP1 ISZERO PUSH2 0xC0F JUMPI DUP3 PUSH20 0xFFFFFFFFFFFFFFFFFFFFFFFFFFFFFFFFFFFFFFFF AND DUP5 PUSH20 0xFFFFFFFFFFFFFFFFFFFFFFFFFFFFFFFFFFFFFFFF AND PUSH32 0x8C5BE1E5EBEC7D5BD14F71427D1E84F3DD0314C0F7B2291E5B200AC8C7C3B925 DUP5 PUSH1 0x40 MLOAD PUSH2 0xC06 SWAP2 SWAP1 PUSH2 0xFCF JUMP JUMPDEST PUSH1 0x40 MLOAD DUP1 SWAP2 SUB SWAP1 LOG3 JUMPDEST POP POP POP POP JUMP JUMPDEST PUSH0 PUSH20 0xFFFFFFFFFFFFFFFFFFFFFFFFFFFFFFFFFFFFFFFF AND DUP4 PUSH20 0xFFFFFFFFFFFFFFFFFFFFFFFFFFFFFFFFFFFFFFFF AND SUB PUSH2 0xC65 JUMPI DUP1 PUSH1 0x2 PUSH0 DUP3 DUP3 SLOAD PUSH2 0xC59 SWAP2 SWAP1 PUSH2 0x11BC JUMP JUMPDEST SWAP3 POP POP DUP2 SWAP1 SSTORE POP PUSH2 0xD33 JUMP JUMPDEST PUSH0 DUP1 PUSH0 DUP6 PUSH20 0xFFFFFFFFFFFFFFFFFFFFFFFFFFFFFFFFFFFFFFFF AND PUSH20 0xFFFFFFFFFFFFFFFFFFFFFFFFFFFFFFFFFFFFFFFF AND DUP2 MSTORE PUSH1 0x20 ADD SWAP1 DUP2 MSTORE PUSH1 0x20 ADD PUSH0 KECCAK256 SLOAD SWAP1 POP DUP2 DUP2 LT ISZERO PUSH2 0xCEE JUMPI DUP4 DUP2 DUP4 PUSH1 0x40 MLOAD PUSH32 0xE450D38C00000000000000000000000000000000000000000000000000000000 DUP2 MSTORE PUSH1 0x4 ADD PUSH2 0xCE5 SWAP4 SWAP3 SWAP2 SWAP1 PUSH2 0x115A JUMP JUMPDEST PUSH1 0x40 MLOAD DUP1 SWAP2 SUB SWAP1 REVERT JUMPDEST DUP2 DUP2 SUB PUSH0 DUP1 DUP7 PUSH20 0xFFFFFFFFFFFFFFFFFFFFFFFFFFFFFFFFFFFFFFFF AND PUSH20 0xFFFFFFFFFFFFFFFFFFFFFFFFFFFFFFFFFFFFFFFF AND DUP2 MSTORE PUSH1 0x20 ADD SWAP1 DUP2 MSTORE PUSH1 0x20 ADD PUSH0 KECCAK256 DUP2 SWAP1 SSTORE POP POP JUMPDEST PUSH0 PUSH20 0xFFFFFFFFFFFFFFFFFFFFFFFFFFFFFFFFFFFFFFFF AND DUP3 PUSH20 0xFFFFFFFFFFFFFFFFFFFFFFFFFFFFFFFFFFFFFFFF AND SUB PUSH2 0xD7A JUMPI DUP1 PUSH1 0x2 PUSH0 DUP3 DUP3 SLOAD SUB SWAP3 POP POP DUP2 SWAP1 SSTORE POP PUSH2 0xDC4 JUMP JUMPDEST DUP1 PUSH0 DUP1 DUP5 PUSH20 0xFFFFFFFFFFFFFFFFFFFFFFFFFFFFFFFFFFFFFFFF AND PUSH20 0xFFFFFFFFFFFFFFFFFFFFFFFFFFFFFFFFFFFFFFFF AND DUP2 MSTORE PUSH1 0x20 ADD SWAP1 DUP2 MSTORE PUSH1 0x20 ADD PUSH0 KECCAK256 PUSH0 DUP3 DUP3 SLOAD ADD SWAP3 POP POP DUP2 SWAP1 SSTORE POP JUMPDEST DUP2 PUSH20 0xFFFFFFFFFFFFFFFFFFFFFFFFFFFFFFFFFFFFFFFF AND DUP4 PUSH20 0xFFFFFFFFFFFFFFFFFFFFFFFFFFFFFFFFFFFFFFFF AND PUSH32 0xDDF252AD1BE2C89B69C2B068FC378DAA952BA7F163C4A11628F55A4DF523B3EF DUP4 PUSH1 0x40 MLOAD PUSH2 0xE21 SWAP2 SWAP1 PUSH2 0xFCF JUMP JUMPDEST PUSH1 0x40 MLOAD DUP1 SWAP2 SUB SWAP1 LOG3 POP POP POP JUMP JUMPDEST PUSH0 DUP2 MLOAD SWAP1 POP SWAP2 SWAP1 POP JUMP JUMPDEST PUSH0 DUP3 DUP3 MSTORE PUSH1 0x20 DUP3 ADD SWAP1 POP SWAP3 SWAP2 POP POP JUMP JUMPDEST DUP3 DUP2 DUP4 MCOPY PUSH0 DUP4 DUP4 ADD MSTORE POP POP POP JUMP JUMPDEST PUSH0 PUSH1 0x1F NOT PUSH1 0x1F DUP4 ADD AND SWAP1 POP SWAP2 SWAP1 POP JUMP JUMPDEST PUSH0 PUSH2 0xE70 DUP3 PUSH2 0xE2E JUMP JUMPDEST PUSH2 0xE7A DUP2 DUP6 PUSH2 0xE38 JUMP JUMPDEST SWAP4 POP PUSH2 0xE8A DUP2 DUP6 PUSH1 0x20 DUP7 ADD PUSH2 0xE48 JUMP JUMPDEST PUSH2 0xE93 DUP2 PUSH2 0xE56 JUMP JUMPDEST DUP5 ADD SWAP2 POP POP SWAP3 SWAP2 POP POP JUMP JUMPDEST PUSH0 PUSH1 0x20 DUP3 ADD SWAP1 POP DUP2 DUP2 SUB PUSH0 DUP4 ADD MSTORE PUSH2 0xEB6 DUP2 DUP5 PUSH2 0xE66 JUMP JUMPDEST SWAP1 POP SWAP3 SWAP2 POP POP JUMP JUMPDEST PUSH0 DUP1 REVERT JUMPDEST PUSH0 PUSH20 0xFFFFFFFFFFFFFFFFFFFFFFFFFFFFFFFFFFFFFFFF DUP3 AND SWAP1 POP SWAP2 SWAP1 POP JUMP JUMPDEST PUSH0 PUSH2 0xEEB DUP3 PUSH2 0xEC2 JUMP JUMPDEST SWAP1 POP SWAP2 SWAP1 POP JUMP JUMPDEST PUSH2 0xEFB DUP2 PUSH2 0xEE1 JUMP JUMPDEST DUP2 EQ PUSH2 0xF05 JUMPI PUSH0 DUP1 REVERT JUMPDEST POP JUMP JUMPDEST PUSH0 DUP2 CALLDATALOAD SWAP1 POP PUSH2 0xF16 DUP2 PUSH2 0xEF2 JUMP JUMPDEST SWAP3 SWAP2 POP POP JUMP JUMPDEST PUSH0 DUP2 SWAP1 POP SWAP2 SWAP1 POP JUMP JUMPDEST PUSH2 0xF2E DUP2 PUSH2 0xF1C JUMP JUMPDEST DUP2 EQ PUSH2 0xF38 JUMPI PUSH0 DUP1 REVERT JUMPDEST POP JUMP JUMPDEST PUSH0 DUP2 CALLDATALOAD SWAP1 POP PUSH2 0xF49 DUP2 PUSH2 0xF25 JUMP JUMPDEST SWAP3 SWAP2 POP POP JUMP JUMPDEST PUSH0 DUP1 PUSH1 0x40 DUP4 DUP6 SUB SLT ISZERO PUSH2 0xF65 JUMPI PUSH2 0xF64 PUSH2 0xEBE JUMP JUMPDEST JUMPDEST PUSH0 PUSH2 0xF72 DUP6 DUP3 DUP7 ADD PUSH2 0xF08 JUMP JUMPDEST SWAP3 POP POP PUSH1 0x20 PUSH2 0xF83 DUP6 DUP3 DUP7 ADD PUSH2 0xF3B JUMP JUMPDEST SWAP2 POP POP SWAP3 POP SWAP3 SWAP1 POP JUMP JUMPDEST PUSH0 DUP2 ISZERO ISZERO SWAP1 POP SWAP2 SWAP1 POP JUMP JUMPDEST PUSH2 0xFA1 DUP2 PUSH2 0xF8D JUMP JUMPDEST DUP3 MSTORE POP POP JUMP JUMPDEST PUSH0 PUSH1 0x20 DUP3 ADD SWAP1 POP PUSH2 0xFBA PUSH0 DUP4 ADD DUP5 PUSH2 0xF98 JUMP JUMPDEST SWAP3 SWAP2 POP POP JUMP JUMPDEST PUSH2 0xFC9 DUP2 PUSH2 0xF1C JUMP JUMPDEST DUP3 MSTORE POP POP JUMP JUMPDEST PUSH0 PUSH1 0x20 DUP3 ADD SWAP1 POP PUSH2 0xFE2 PUSH0 DUP4 ADD DUP5 PUSH2 0xFC0 JUMP JUMPDEST SWAP3 SWAP2 POP POP JUMP JUMPDEST PUSH0 DUP1 PUSH0 PUSH1 0x60 DUP5 DUP7 SUB SLT ISZERO PUSH2 0xFFF JUMPI PUSH2 0xFFE PUSH2 0xEBE JUMP JUMPDEST JUMPDEST PUSH0 PUSH2 0x100C DUP7 DUP3 DUP8 ADD PUSH2 0xF08 JUMP JUMPDEST SWAP4 POP POP PUSH1 0x20 PUSH2 0x101D DUP7 DUP3 DUP8 ADD PUSH2 0xF08 JUMP JUMPDEST SWAP3 POP POP PUSH1 0x40 PUSH2 0x102E DUP7 DUP3 DUP8 ADD PUSH2 0xF3B JUMP JUMPDEST SWAP2 POP POP SWAP3 POP SWAP3 POP SWAP3 JUMP JUMPDEST PUSH0 PUSH1 0xFF DUP3 AND SWAP1 POP SWAP2 SWAP1 POP JUMP JUMPDEST PUSH2 0x104D DUP2 PUSH2 0x1038 JUMP JUMPDEST DUP3 MSTORE POP POP JUMP JUMPDEST PUSH0 PUSH1 0x20 DUP3 ADD SWAP1 POP PUSH2 0x1066 PUSH0 DUP4 ADD DUP5 PUSH2 0x1044 JUMP JUMPDEST SWAP3 SWAP2 POP POP JUMP JUMPDEST PUSH0 PUSH1 0x20 DUP3 DUP5 SUB SLT ISZERO PUSH2 0x1081 JUMPI PUSH2 0x1080 PUSH2 0xEBE JUMP JUMPDEST JUMPDEST PUSH0 PUSH2 0x108E DUP5 DUP3 DUP6 ADD PUSH2 0xF08 JUMP JUMPDEST SWAP2 POP POP SWAP3 SWAP2 POP POP JUMP JUMPDEST PUSH2 0x10A0 DUP2 PUSH2 0xEE1 JUMP JUMPDEST DUP3 MSTORE POP POP JUMP JUMPDEST PUSH0 PUSH1 0x20 DUP3 ADD SWAP1 POP PUSH2 0x10B9 PUSH0 DUP4 ADD DUP5 PUSH2 0x1097 JUMP JUMPDEST SWAP3 SWAP2 POP POP JUMP JUMPDEST PUSH0 DUP1 PUSH1 0x40 DUP4 DUP6 SUB SLT ISZERO PUSH2 0x10D5 JUMPI PUSH2 0x10D4 PUSH2 0xEBE JUMP JUMPDEST JUMPDEST PUSH0 PUSH2 0x10E2 DUP6 DUP3 DUP7 ADD PUSH2 0xF08 JUMP JUMPDEST SWAP3 POP POP PUSH1 0x20 PUSH2 0x10F3 DUP6 DUP3 DUP7 ADD PUSH2 0xF08 JUMP JUMPDEST SWAP2 POP POP SWAP3 POP SWAP3 SWAP1 POP JUMP JUMPDEST PUSH32 0x4E487B7100000000000000000000000000000000000000000000000000000000 PUSH0 MSTORE PUSH1 0x22 PUSH1 0x4 MSTORE PUSH1 0x24 PUSH0 REVERT JUMPDEST PUSH0 PUSH1 0x2 DUP3 DIV SWAP1 POP PUSH1 0x1 DUP3 AND DUP1 PUSH2 0x1141 JUMPI PUSH1 0x7F DUP3 AND SWAP2 POP JUMPDEST PUSH1 0x20 DUP3 LT DUP2 SUB PUSH2 0x1154 JUMPI PUSH2 0x1153 PUSH2 0x10FD JUMP JUMPDEST JUMPDEST POP SWAP2 SWAP1 POP JUMP JUMPDEST PUSH0 PUSH1 0x60 DUP3 ADD SWAP1 POP PUSH2 0x116D PUSH0 DUP4 ADD DUP7 PUSH2 0x1097 JUMP JUMPDEST PUSH2 0x117A PUSH1 0x20 DUP4 ADD DUP6 PUSH2 0xFC0 JUMP JUMPDEST PUSH2 0x1187 PUSH1 0x40 DUP4 ADD DUP5 PUSH2 0xFC0 JUMP JUMPDEST SWAP5 SWAP4 POP POP POP POP JUMP JUMPDEST PUSH32 0x4E487B7100000000000000000000000000000000000000000000000000000000 PUSH0 MSTORE PUSH1 0x11 PUSH1 0x4 MSTORE PUSH1 0x24 PUSH0 REVERT JUMPDEST PUSH0 PUSH2 0x11C6 DUP3 PUSH2 0xF1C JUMP JUMPDEST SWAP2 POP PUSH2 0x11D1 DUP4 PUSH2 0xF1C JUMP JUMPDEST SWAP3 POP DUP3 DUP3 ADD SWAP1 POP DUP1 DUP3 GT ISZERO PUSH2 0x11E9 JUMPI PUSH2 0x11E8 PUSH2 0x118F JUMP JUMPDEST JUMPDEST SWAP3 SWAP2 POP POP JUMP INVALID LOG2 PUSH5 0x6970667358 0x22 SLT KECCAK256 0xDB 0x2B 0xF COINBASE 0x2C BYTE 0xB3 DIV 0xD4 0x2F 0xF SWAP13 0xBC 0xCC 0xA9 SWAP13 0xC3 0xE 0x22 0xE1 0x24 GASPRICE 0x2A 0x24 EQ DUP13 0xF DIV 0xC8 SWAP6 0x2B DUP9 PUSH5 0x736F6C6343 STOP ADDMOD BYTE STOP CALLER "
				},
				"gasEstimates": {
					"creation": {
						"codeDepositCost": "929000",
						"executionCost": "infinite",
						"totalCost": "infinite"
					},
					"external": {
						"allowance(address,address)": "infinite",
						"approve(address,uint256)": "infinite",
						"balanceOf(address)": "2918",
						"burn(address,uint256)": "infinite",
						"decimals()": "2569",
						"mint(address,uint256)": "infinite",
						"name()": "infinite",
						"owner()": "2560",
						"priceInEth()": "2513",
						"renounceOwnership()": "infinite",
						"symbol()": "infinite",
						"totalSupply()": "2500",
						"transfer(address,uint256)": "infinite",
						"transferFrom(address,address,uint256)": "infinite",
						"transferOwnership(address)": "infinite"
					}
				},
				"methodIdentifiers": {
					"allowance(address,address)": "dd62ed3e",
					"approve(address,uint256)": "095ea7b3",
					"balanceOf(address)": "70a08231",
					"burn(address,uint256)": "9dc29fac",
					"decimals()": "313ce567",
					"mint(address,uint256)": "40c10f19",
					"name()": "06fdde03",
					"owner()": "8da5cb5b",
					"priceInEth()": "fdd760ea",
					"renounceOwnership()": "715018a6",
					"symbol()": "95d89b41",
					"totalSupply()": "18160ddd",
					"transfer(address,uint256)": "a9059cbb",
					"transferFrom(address,address,uint256)": "23b872dd",
					"transferOwnership(address)": "f2fde38b"
				}
			},
			"storageLayout": {
				"storage": [
					{
						"astId": 397,
						"contract": "Token.sol:Token",
						"label": "_balances",
						"offset": 0,
						"slot": "0",
						"type": "t_mapping(t_address,t_uint256)"
					},
					{
						"astId": 403,
						"contract": "Token.sol:Token",
						"label": "_allowances",
						"offset": 0,
						"slot": "1",
						"type": "t_mapping(t_address,t_mapping(t_address,t_uint256))"
					},
					{
						"astId": 405,
						"contract": "Token.sol:Token",
						"label": "_totalSupply",
						"offset": 0,
						"slot": "2",
						"type": "t_uint256"
					},
					{
						"astId": 407,
						"contract": "Token.sol:Token",
						"label": "_name",
						"offset": 0,
						"slot": "3",
						"type": "t_string_storage"
					},
					{
						"astId": 409,
						"contract": "Token.sol:Token",
						"label": "_symbol",
						"offset": 0,
						"slot": "4",
						"type": "t_string_storage"
					},
					{
						"astId": 8,
						"contract": "Token.sol:Token",
						"label": "_owner",
						"offset": 0,
						"slot": "5",
						"type": "t_address"
					},
					{
						"astId": 2141,
						"contract": "Token.sol:Token",
						"label": "_decimals",
						"offset": 20,
						"slot": "5",
						"type": "t_uint8"
					},
					{
						"astId": 2143,
						"contract": "Token.sol:Token",
						"label": "priceInEth",
						"offset": 0,
						"slot": "6",
						"type": "t_uint256"
					}
				],
				"types": {
					"t_address": {
						"encoding": "inplace",
						"label": "address",
						"numberOfBytes": "20"
					},
					"t_mapping(t_address,t_mapping(t_address,t_uint256))": {
						"encoding": "mapping",
						"key": "t_address",
						"label": "mapping(address => mapping(address => uint256))",
						"numberOfBytes": "32",
						"value": "t_mapping(t_address,t_uint256)"
					},
					"t_mapping(t_address,t_uint256)": {
						"encoding": "mapping",
						"key": "t_address",
						"label": "mapping(address => uint256)",
						"numberOfBytes": "32",
						"value": "t_uint256"
					},
					"t_string_storage": {
						"encoding": "bytes",
						"label": "string",
						"numberOfBytes": "32"
					},
					"t_uint256": {
						"encoding": "inplace",
						"label": "uint256",
						"numberOfBytes": "32"
					},
					"t_uint8": {
						"encoding": "inplace",
						"label": "uint8",
						"numberOfBytes": "1"
					}
				}
			},
			"userdoc": {
				"kind": "user",
				"methods": {},
				"version": 1
			}
		}
	}
}