{
	"Pool.sol": {
		"Pool": {
			"abi": [
				{
					"inputs": [
						{
							"internalType": "address",
							"name": "_token0",
							"type": "address"
						},
						{
							"internalType": "address",
							"name": "_token1",
							"type": "address"
						},
						{
							"internalType": "address",
							"name": "_lpToken",
							"type": "address"
						},
						{
							"internalType": "address",
							"name": "_owner",
							"type": "address"
						}
					],
					"stateMutability": "nonpayable",
					"type": "constructor"
				},
				{
					"inputs": [
						{
							"internalType": "address",
							"name": "owner",
							"type": "address"
						}
					],
					"name": "OwnableInvalidOwner",
					"type": "error"
				},
				{
					"inputs": [
						{
							"internalType": "address",
							"name": "account",
							"type": "address"
						}
					],
					"name": "OwnableUnauthorizedAccount",
					"type": "error"
				},
				{
					"inputs": [
						{
							"internalType": "address",
							"name": "token",
							"type": "address"
						}
					],
					"name": "SafeERC20FailedOperation",
					"type": "error"
				},
				{
					"anonymous": false,
					"inputs": [
						{
							"indexed": true,
							"internalType": "address",
							"name": "sender",
							"type": "address"
						},
						{
							"indexed": false,
							"internalType": "uint256",
							"name": "amount0",
							"type": "uint256"
						},
						{
							"indexed": false,
							"internalType": "uint256",
							"name": "amount1",
							"type": "uint256"
						},
						{
							"indexed": true,
							"internalType": "address",
							"name": "to",
							"type": "address"
						}
					],
					"name": "Burn",
					"type": "event"
				},
				{
					"anonymous": false,
					"inputs": [
						{
							"indexed": true,
							"internalType": "address",
							"name": "sender",
							"type": "address"
						},
						{
							"indexed": false,
							"internalType": "uint256",
							"name": "amount0",
							"type": "uint256"
						},
						{
							"indexed": false,
							"internalType": "uint256",
							"name": "amount1",
							"type": "uint256"
						}
					],
					"name": "Mint",
					"type": "event"
				},
				{
					"anonymous": false,
					"inputs": [
						{
							"indexed": true,
							"internalType": "address",
							"name": "previousOwner",
							"type": "address"
						},
						{
							"indexed": true,
							"internalType": "address",
							"name": "newOwner",
							"type": "address"
						}
					],
					"name": "OwnershipTransferred",
					"type": "event"
				},
				{
					"anonymous": false,
					"inputs": [
						{
							"indexed": true,
							"internalType": "address",
							"name": "sender",
							"type": "address"
						},
						{
							"indexed": false,
							"internalType": "uint256",
							"name": "amount0In",
							"type": "uint256"
						},
						{
							"indexed": false,
							"internalType": "uint256",
							"name": "amount1In",
							"type": "uint256"
						},
						{
							"indexed": false,
							"internalType": "uint256",
							"name": "amount0Out",
							"type": "uint256"
						},
						{
							"indexed": false,
							"internalType": "uint256",
							"name": "amount1Out",
							"type": "uint256"
						},
						{
							"indexed": true,
							"internalType": "address",
							"name": "to",
							"type": "address"
						}
					],
					"name": "Swap",
					"type": "event"
				},
				{
					"inputs": [],
					"name": "MINIMUM_LIQUIDITY",
					"outputs": [
						{
							"internalType": "uint256",
							"name": "",
							"type": "uint256"
						}
					],
					"stateMutability": "view",
					"type": "function"
				},
				{
					"inputs": [
						{
							"internalType": "uint256",
							"name": "amount0Desired",
							"type": "uint256"
						},
						{
							"internalType": "uint256",
							"name": "amount1Desired",
							"type": "uint256"
						}
					],
					"name": "addLiquidity",
					"outputs": [
						{
							"internalType": "uint256",
							"name": "lpAmount",
							"type": "uint256"
						}
					],
					"stateMutability": "nonpayable",
					"type": "function"
				},
				{
					"inputs": [
						{
							"internalType": "uint256",
							"name": "amount0",
							"type": "uint256"
						},
						{
							"internalType": "uint256",
							"name": "amount1",
							"type": "uint256"
						}
					],
					"name": "calculateValueInEth",
					"outputs": [
						{
							"internalType": "uint256",
							"name": "",
							"type": "uint256"
						}
					],
					"stateMutability": "view",
					"type": "function"
				},
				{
					"inputs": [],
					"name": "getPoolInfo",
					"outputs": [
						{
							"internalType": "address",
							"name": "token0Address",
							"type": "address"
						},
						{
							"internalType": "address",
							"name": "token1Address",
							"type": "address"
						},
						{
							"internalType": "uint256",
							"name": "reserve0Amount",
							"type": "uint256"
						},
						{
							"internalType": "uint256",
							"name": "reserve1Amount",
							"type": "uint256"
						}
					],
					"stateMutability": "view",
					"type": "function"
				},
				{
					"inputs": [
						{
							"internalType": "uint256",
							"name": "amount0",
							"type": "uint256"
						},
						{
							"internalType": "uint256",
							"name": "amount1",
							"type": "uint256"
						}
					],
					"name": "initialize",
					"outputs": [],
					"stateMutability": "nonpayable",
					"type": "function"
				},
				{
					"inputs": [],
					"name": "lpToken",
					"outputs": [
						{
							"internalType": "contract Token",
							"name": "",
							"type": "address"
						}
					],
					"stateMutability": "view",
					"type": "function"
				},
				{
					"inputs": [],
					"name": "owner",
					"outputs": [
						{
							"internalType": "address",
							"name": "",
							"type": "address"
						}
					],
					"stateMutability": "view",
					"type": "function"
				},
				{
					"inputs": [
						{
							"internalType": "uint256",
							"name": "amountA",
							"type": "uint256"
						},
						{
							"internalType": "uint256",
							"name": "reserveA",
							"type": "uint256"
						},
						{
							"internalType": "uint256",
							"name": "reserveB",
							"type": "uint256"
						}
					],
					"name": "quote",
					"outputs": [
						{
							"internalType": "uint256",
							"name": "amountB",
							"type": "uint256"
						}
					],
					"stateMutability": "pure",
					"type": "function"
				},
				{
					"inputs": [
						{
							"internalType": "uint256",
							"name": "lpAmount",
							"type": "uint256"
						}
					],
					"name": "removeLiquidity",
					"outputs": [
						{
							"internalType": "uint256",
							"name": "amount0",
							"type": "uint256"
						},
						{
							"internalType": "uint256",
							"name": "amount1",
							"type": "uint256"
						}
					],
					"stateMutability": "nonpayable",
					"type": "function"
				},
				{
					"inputs": [],
					"name": "renounceOwnership",
					"outputs": [],
					"stateMutability": "nonpayable",
					"type": "function"
				},
				{
					"inputs": [],
					"name": "reserve0",
					"outputs": [
						{
							"internalType": "uint256",
							"name": "",
							"type": "uint256"
						}
					],
					"stateMutability": "view",
					"type": "function"
				},
				{
					"inputs": [],
					"name": "reserve1",
					"outputs": [
						{
							"internalType": "uint256",
							"name": "",
							"type": "uint256"
						}
					],
					"stateMutability": "view",
					"type": "function"
				},
				{
					"inputs": [
						{
							"internalType": "uint256",
							"name": "amount0In",
							"type": "uint256"
						},
						{
							"internalType": "uint256",
							"name": "amount1In",
							"type": "uint256"
						},
						{
							"internalType": "uint256",
							"name": "amount0Out",
							"type": "uint256"
						},
						{
							"internalType": "uint256",
							"name": "amount1Out",
							"type": "uint256"
						},
						{
							"internalType": "address",
							"name": "to",
							"type": "address"
						}
					],
					"name": "swap",
					"outputs": [],
					"stateMutability": "nonpayable",
					"type": "function"
				},
				{
					"inputs": [],
					"name": "token0",
					"outputs": [
						{
							"internalType": "contract Token",
							"name": "",
							"type": "address"
						}
					],
					"stateMutability": "view",
					"type": "function"
				},
				{
					"inputs": [],
					"name": "token1",
					"outputs": [
						{
							"internalType": "contract Token",
							"name": "",
							"type": "address"
						}
					],
					"stateMutability": "view",
					"type": "function"
				},
				{
					"inputs": [
						{
							"internalType": "address",
							"name": "newOwner",
							"type": "address"
						}
					],
					"name": "transferOwnership",
					"outputs": [],
					"stateMutability": "nonpayable",
					"type": "function"
				}
			],
			"devdoc": {
				"errors": {
					"OwnableInvalidOwner(address)": [
						{
							"details": "The owner is not a valid owner account. (eg. `address(0)`)"
						}
					],
					"OwnableUnauthorizedAccount(address)": [
						{
							"details": "The caller account is not authorized to perform an operation."
						}
					],
					"SafeERC20FailedOperation(address)": [
						{
							"details": "An operation with an ERC-20 token failed."
						}
					]
				},
				"kind": "dev",
				"methods": {
					"owner()": {
						"details": "Returns the address of the current owner."
					},
					"renounceOwnership()": {
						"details": "Leaves the contract without owner. It will not be possible to call `onlyOwner` functions. Can only be called by the current owner. NOTE: Renouncing ownership will leave the contract without an owner, thereby disabling any functionality that is only available to the owner."
					},
					"transferOwnership(address)": {
						"details": "Transfers ownership of the contract to a new account (`newOwner`). Can only be called by the current owner."
					}
				},
				"version": 1
			},
			"evm": {
				"assembly": "    /* \"Pool.sol\":264:5908  contract Pool is Ownable {... */\n  mstore(0x40, 0x80)\n    /* \"Pool.sol\":849:1100  constructor(... */\n  callvalue\n  dup1\n  iszero\n  tag_1\n  jumpi\n  0x00\n  dup1\n  revert\ntag_1:\n  pop\n  mload(0x40)\n  sub(codesize, bytecodeSize)\n  dup1\n  bytecodeSize\n  dup4\n  codecopy\n  dup2\n  dup2\n  add\n  0x40\n  mstore\n  dup2\n  add\n  swap1\n  tag_2\n  swap2\n  swap1\n  tag_3\n  jump\t// in\ntag_2:\n    /* \"Pool.sol\":980:986  _owner */\n  dup1\n    /* \"@openzeppelin/contracts/access/Ownable.sol\":1297:1298  0 */\n  0x00\n    /* \"@openzeppelin/contracts/access/Ownable.sol\":1273:1299  initialOwner == address(0) */\n  0xffffffffffffffffffffffffffffffffffffffff\n  and\n    /* \"@openzeppelin/contracts/access/Ownable.sol\":1273:1285  initialOwner */\n  dup2\n    /* \"@openzeppelin/contracts/access/Ownable.sol\":1273:1299  initialOwner == address(0) */\n  0xffffffffffffffffffffffffffffffffffffffff\n  and\n  sub\n    /* \"@openzeppelin/contracts/access/Ownable.sol\":1269:1364  if (initialOwner == address(0)) {... */\n  tag_7\n  jumpi\n    /* \"@openzeppelin/contracts/access/Ownable.sol\":1350:1351  0 */\n  0x00\n    /* \"@openzeppelin/contracts/access/Ownable.sol\":1322:1353  OwnableInvalidOwner(address(0)) */\n  mload(0x40)\n  0x1e4fbdf700000000000000000000000000000000000000000000000000000000\n  dup2\n  mstore\n  0x04\n  add\n  tag_8\n  swap2\n  swap1\n  tag_9\n  jump\t// in\ntag_8:\n  mload(0x40)\n  dup1\n  swap2\n  sub\n  swap1\n  revert\n    /* \"@openzeppelin/contracts/access/Ownable.sol\":1269:1364  if (initialOwner == address(0)) {... */\ntag_7:\n    /* \"@openzeppelin/contracts/access/Ownable.sol\":1373:1405  _transferOwnership(initialOwner) */\n  tag_10\n    /* \"@openzeppelin/contracts/access/Ownable.sol\":1392:1404  initialOwner */\n  dup2\n    /* \"@openzeppelin/contracts/access/Ownable.sol\":1373:1391  _transferOwnership */\n  shl(0x20, tag_11)\n    /* \"@openzeppelin/contracts/access/Ownable.sol\":1373:1405  _transferOwnership(initialOwner) */\n  0x20\n  shr\n  jump\t// in\ntag_10:\n    /* \"@openzeppelin/contracts/access/Ownable.sol\":1225:1412  constructor(address initialOwner) {... */\n  pop\n    /* \"Pool.sol\":1014:1021  _token0 */\n  dup4\n    /* \"Pool.sol\":999:1005  token0 */\n  0x01\n  0x00\n    /* \"Pool.sol\":999:1022  token0 = Token(_token0) */\n  0x0100\n  exp\n  dup2\n  sload\n  dup2\n  0xffffffffffffffffffffffffffffffffffffffff\n  mul\n  not\n  and\n  swap1\n  dup4\n  0xffffffffffffffffffffffffffffffffffffffff\n  and\n  mul\n  or\n  swap1\n  sstore\n  pop\n    /* \"Pool.sol\":1048:1055  _token1 */\n  dup3\n    /* \"Pool.sol\":1033:1039  token1 */\n  0x02\n  0x00\n    /* \"Pool.sol\":1033:1056  token1 = Token(_token1) */\n  0x0100\n  exp\n  dup2\n  sload\n  dup2\n  0xffffffffffffffffffffffffffffffffffffffff\n  mul\n  not\n  and\n  swap1\n  dup4\n  0xffffffffffffffffffffffffffffffffffffffff\n  and\n  mul\n  or\n  swap1\n  sstore\n  pop\n    /* \"Pool.sol\":1083:1091  _lpToken */\n  dup2\n    /* \"Pool.sol\":1067:1074  lpToken */\n  0x03\n  0x00\n    /* \"Pool.sol\":1067:1092  lpToken = Token(_lpToken) */\n  0x0100\n  exp\n  dup2\n  sload\n  dup2\n  0xffffffffffffffffffffffffffffffffffffffff\n  mul\n  not\n  and\n  swap1\n  dup4\n  0xffffffffffffffffffffffffffffffffffffffff\n  and\n  mul\n  or\n  swap1\n  sstore\n  pop\n    /* \"Pool.sol\":849:1100  constructor(... */\n  pop\n  pop\n  pop\n  pop\n    /* \"Pool.sol\":264:5908  contract Pool is Ownable {... */\n  jump(tag_13)\n    /* \"@openzeppelin/contracts/access/Ownable.sol\":2912:3099  function _transferOwnership(address newOwner) internal virtual {... */\ntag_11:\n    /* \"@openzeppelin/contracts/access/Ownable.sol\":2985:3001  address oldOwner */\n  0x00\n    /* \"@openzeppelin/contracts/access/Ownable.sol\":3004:3010  _owner */\n  dup1\n  0x00\n  swap1\n  sload\n  swap1\n  0x0100\n  exp\n  swap1\n  div\n  0xffffffffffffffffffffffffffffffffffffffff\n  and\n    /* \"@openzeppelin/contracts/access/Ownable.sol\":2985:3010  address oldOwner = _owner */\n  swap1\n  pop\n    /* \"@openzeppelin/contracts/access/Ownable.sol\":3029:3037  newOwner */\n  dup2\n    /* \"@openzeppelin/contracts/access/Ownable.sol\":3020:3026  _owner */\n  0x00\n  dup1\n    /* \"@openzeppelin/contracts/access/Ownable.sol\":3020:3037  _owner = newOwner */\n  0x0100\n  exp\n  dup2\n  sload\n  dup2\n  0xffffffffffffffffffffffffffffffffffffffff\n  mul\n  not\n  and\n  swap1\n  dup4\n  0xffffffffffffffffffffffffffffffffffffffff\n  and\n  mul\n  or\n  swap1\n  sstore\n  pop\n    /* \"@openzeppelin/contracts/access/Ownable.sol\":3083:3091  newOwner */\n  dup2\n    /* \"@openzeppelin/contracts/access/Ownable.sol\":3052:3092  OwnershipTransferred(oldOwner, newOwner) */\n  0xffffffffffffffffffffffffffffffffffffffff\n  and\n    /* \"@openzeppelin/contracts/access/Ownable.sol\":3073:3081  oldOwner */\n  dup2\n    /* \"@openzeppelin/contracts/access/Ownable.sol\":3052:3092  OwnershipTransferred(oldOwner, newOwner) */\n  0xffffffffffffffffffffffffffffffffffffffff\n  and\n  0x8be0079c531659141344cd1fd0a4f28419497f9722a3daafe3b4186f6b6457e0\n  mload(0x40)\n  mload(0x40)\n  dup1\n  swap2\n  sub\n  swap1\n  log3\n    /* \"@openzeppelin/contracts/access/Ownable.sol\":2975:3099  {... */\n  pop\n    /* \"@openzeppelin/contracts/access/Ownable.sol\":2912:3099  function _transferOwnership(address newOwner) internal virtual {... */\n  pop\n  jump\t// out\n    /* \"#utility.yul\":88:205   */\ntag_16:\n    /* \"#utility.yul\":197:198   */\n  0x00\n    /* \"#utility.yul\":194:195   */\n  dup1\n    /* \"#utility.yul\":187:199   */\n  revert\n    /* \"#utility.yul\":334:460   */\ntag_18:\n    /* \"#utility.yul\":371:378   */\n  0x00\n    /* \"#utility.yul\":411:453   */\n  0xffffffffffffffffffffffffffffffffffffffff\n    /* \"#utility.yul\":404:409   */\n  dup3\n    /* \"#utility.yul\":400:454   */\n  and\n    /* \"#utility.yul\":389:454   */\n  swap1\n  pop\n    /* \"#utility.yul\":334:460   */\n  swap2\n  swap1\n  pop\n  jump\t// out\n    /* \"#utility.yul\":466:562   */\ntag_19:\n    /* \"#utility.yul\":503:510   */\n  0x00\n    /* \"#utility.yul\":532:556   */\n  tag_29\n    /* \"#utility.yul\":550:555   */\n  dup3\n    /* \"#utility.yul\":532:556   */\n  tag_18\n  jump\t// in\ntag_29:\n    /* \"#utility.yul\":521:556   */\n  swap1\n  pop\n    /* \"#utility.yul\":466:562   */\n  swap2\n  swap1\n  pop\n  jump\t// out\n    /* \"#utility.yul\":568:690   */\ntag_20:\n    /* \"#utility.yul\":641:665   */\n  tag_31\n    /* \"#utility.yul\":659:664   */\n  dup2\n    /* \"#utility.yul\":641:665   */\n  tag_19\n  jump\t// in\ntag_31:\n    /* \"#utility.yul\":634:639   */\n  dup2\n    /* \"#utility.yul\":631:666   */\n  eq\n    /* \"#utility.yul\":621:684   */\n  tag_32\n  jumpi\n    /* \"#utility.yul\":680:681   */\n  0x00\n    /* \"#utility.yul\":677:678   */\n  dup1\n    /* \"#utility.yul\":670:682   */\n  revert\n    /* \"#utility.yul\":621:684   */\ntag_32:\n    /* \"#utility.yul\":568:690   */\n  pop\n  jump\t// out\n    /* \"#utility.yul\":696:839   */\ntag_21:\n    /* \"#utility.yul\":753:758   */\n  0x00\n    /* \"#utility.yul\":784:790   */\n  dup2\n    /* \"#utility.yul\":778:791   */\n  mload\n    /* \"#utility.yul\":769:791   */\n  swap1\n  pop\n    /* \"#utility.yul\":800:833   */\n  tag_34\n    /* \"#utility.yul\":827:832   */\n  dup2\n    /* \"#utility.yul\":800:833   */\n  tag_20\n  jump\t// in\ntag_34:\n    /* \"#utility.yul\":696:839   */\n  swap3\n  swap2\n  pop\n  pop\n  jump\t// out\n    /* \"#utility.yul\":845:1665   */\ntag_3:\n    /* \"#utility.yul\":942:948   */\n  0x00\n    /* \"#utility.yul\":950:956   */\n  dup1\n    /* \"#utility.yul\":958:964   */\n  0x00\n    /* \"#utility.yul\":966:972   */\n  dup1\n    /* \"#utility.yul\":1015:1018   */\n  0x80\n    /* \"#utility.yul\":1003:1012   */\n  dup6\n    /* \"#utility.yul\":994:1001   */\n  dup8\n    /* \"#utility.yul\":990:1013   */\n  sub\n    /* \"#utility.yul\":986:1019   */\n  slt\n    /* \"#utility.yul\":983:1103   */\n  iszero\n  tag_36\n  jumpi\n    /* \"#utility.yul\":1022:1101   */\n  tag_37\n  tag_16\n  jump\t// in\ntag_37:\n    /* \"#utility.yul\":983:1103   */\ntag_36:\n    /* \"#utility.yul\":1142:1143   */\n  0x00\n    /* \"#utility.yul\":1167:1231   */\n  tag_38\n    /* \"#utility.yul\":1223:1230   */\n  dup8\n    /* \"#utility.yul\":1214:1220   */\n  dup3\n    /* \"#utility.yul\":1203:1212   */\n  dup9\n    /* \"#utility.yul\":1199:1221   */\n  add\n    /* \"#utility.yul\":1167:1231   */\n  tag_21\n  jump\t// in\ntag_38:\n    /* \"#utility.yul\":1157:1231   */\n  swap5\n  pop\n    /* \"#utility.yul\":1113:1241   */\n  pop\n    /* \"#utility.yul\":1280:1282   */\n  0x20\n    /* \"#utility.yul\":1306:1370   */\n  tag_39\n    /* \"#utility.yul\":1362:1369   */\n  dup8\n    /* \"#utility.yul\":1353:1359   */\n  dup3\n    /* \"#utility.yul\":1342:1351   */\n  dup9\n    /* \"#utility.yul\":1338:1360   */\n  add\n    /* \"#utility.yul\":1306:1370   */\n  tag_21\n  jump\t// in\ntag_39:\n    /* \"#utility.yul\":1296:1370   */\n  swap4\n  pop\n    /* \"#utility.yul\":1251:1380   */\n  pop\n    /* \"#utility.yul\":1419:1421   */\n  0x40\n    /* \"#utility.yul\":1445:1509   */\n  tag_40\n    /* \"#utility.yul\":1501:1508   */\n  dup8\n    /* \"#utility.yul\":1492:1498   */\n  dup3\n    /* \"#utility.yul\":1481:1490   */\n  dup9\n    /* \"#utility.yul\":1477:1499   */\n  add\n    /* \"#utility.yul\":1445:1509   */\n  tag_21\n  jump\t// in\ntag_40:\n    /* \"#utility.yul\":1435:1509   */\n  swap3\n  pop\n    /* \"#utility.yul\":1390:1519   */\n  pop\n    /* \"#utility.yul\":1558:1560   */\n  0x60\n    /* \"#utility.yul\":1584:1648   */\n  tag_41\n    /* \"#utility.yul\":1640:1647   */\n  dup8\n    /* \"#utility.yul\":1631:1637   */\n  dup3\n    /* \"#utility.yul\":1620:1629   */\n  dup9\n    /* \"#utility.yul\":1616:1638   */\n  add\n    /* \"#utility.yul\":1584:1648   */\n  tag_21\n  jump\t// in\ntag_41:\n    /* \"#utility.yul\":1574:1648   */\n  swap2\n  pop\n    /* \"#utility.yul\":1529:1658   */\n  pop\n    /* \"#utility.yul\":845:1665   */\n  swap3\n  swap6\n  swap2\n  swap5\n  pop\n  swap3\n  pop\n  jump\t// out\n    /* \"#utility.yul\":1671:1789   */\ntag_22:\n    /* \"#utility.yul\":1758:1782   */\n  tag_43\n    /* \"#utility.yul\":1776:1781   */\n  dup2\n    /* \"#utility.yul\":1758:1782   */\n  tag_19\n  jump\t// in\ntag_43:\n    /* \"#utility.yul\":1753:1756   */\n  dup3\n    /* \"#utility.yul\":1746:1783   */\n  mstore\n    /* \"#utility.yul\":1671:1789   */\n  pop\n  pop\n  jump\t// out\n    /* \"#utility.yul\":1795:2017   */\ntag_9:\n    /* \"#utility.yul\":1888:1892   */\n  0x00\n    /* \"#utility.yul\":1926:1928   */\n  0x20\n    /* \"#utility.yul\":1915:1924   */\n  dup3\n    /* \"#utility.yul\":1911:1929   */\n  add\n    /* \"#utility.yul\":1903:1929   */\n  swap1\n  pop\n    /* \"#utility.yul\":1939:2010   */\n  tag_45\n    /* \"#utility.yul\":2007:2008   */\n  0x00\n    /* \"#utility.yul\":1996:2005   */\n  dup4\n    /* \"#utility.yul\":1992:2009   */\n  add\n    /* \"#utility.yul\":1983:1989   */\n  dup5\n    /* \"#utility.yul\":1939:2010   */\n  tag_22\n  jump\t// in\ntag_45:\n    /* \"#utility.yul\":1795:2017   */\n  swap3\n  swap2\n  pop\n  pop\n  jump\t// out\n    /* \"Pool.sol\":264:5908  contract Pool is Ownable {... */\ntag_13:\n  dataSize(sub_0)\n  dup1\n  dataOffset(sub_0)\n  0x00\n  codecopy\n  0x00\n  return\nstop\n\nsub_0: assembly {\n        /* \"Pool.sol\":264:5908  contract Pool is Ownable {... */\n      mstore(0x40, 0x80)\n      callvalue\n      dup1\n      iszero\n      tag_1\n      jumpi\n      0x00\n      dup1\n      revert\n    tag_1:\n      pop\n      jumpi(tag_2, lt(calldatasize, 0x04))\n      shr(0xe0, calldataload(0x00))\n      dup1\n      0x8da5cb5b\n      gt\n      tag_19\n      jumpi\n      dup1\n      0xba9a7a56\n      gt\n      tag_20\n      jumpi\n      dup1\n      0xba9a7a56\n      eq\n      tag_15\n      jumpi\n      dup1\n      0xd21220a7\n      eq\n      tag_16\n      jumpi\n      dup1\n      0xe4a30116\n      eq\n      tag_17\n      jumpi\n      dup1\n      0xf2fde38b\n      eq\n      tag_18\n      jumpi\n      jump(tag_2)\n    tag_20:\n      dup1\n      0x8da5cb5b\n      eq\n      tag_11\n      jumpi\n      dup1\n      0x9c8f9f23\n      eq\n      tag_12\n      jumpi\n      dup1\n      0x9cd441da\n      eq\n      tag_13\n      jumpi\n      dup1\n      0xad615dec\n      eq\n      tag_14\n      jumpi\n      jump(tag_2)\n    tag_19:\n      dup1\n      0x5fcbd285\n      gt\n      tag_21\n      jumpi\n      dup1\n      0x5fcbd285\n      eq\n      tag_7\n      jumpi\n      dup1\n      0x60246c88\n      eq\n      tag_8\n      jumpi\n      dup1\n      0x6e8fe678\n      eq\n      tag_9\n      jumpi\n      dup1\n      0x715018a6\n      eq\n      tag_10\n      jumpi\n      jump(tag_2)\n    tag_21:\n      dup1\n      0x0dfe1681\n      eq\n      tag_3\n      jumpi\n      dup1\n      0x443cb4bc\n      eq\n      tag_4\n      jumpi\n      dup1\n      0x562e19df\n      eq\n      tag_5\n      jumpi\n      dup1\n      0x5a76f25e\n      eq\n      tag_6\n      jumpi\n    tag_2:\n      0x00\n      dup1\n      revert\n        /* \"Pool.sol\":331:350  Token public token0 */\n    tag_3:\n      tag_22\n      tag_23\n      jump\t// in\n    tag_22:\n      mload(0x40)\n      tag_24\n      swap2\n      swap1\n      tag_25\n      jump\t// in\n    tag_24:\n      mload(0x40)\n      dup1\n      swap2\n      sub\n      swap1\n      return\n        /* \"Pool.sol\":416:439  uint256 public reserve0 */\n    tag_4:\n      tag_26\n      tag_27\n      jump\t// in\n    tag_26:\n      mload(0x40)\n      tag_28\n      swap2\n      swap1\n      tag_29\n      jump\t// in\n    tag_28:\n      mload(0x40)\n      dup1\n      swap2\n      sub\n      swap1\n      return\n        /* \"Pool.sol\":3865:5049  function swap(uint256 amount0In, uint256 amount1In, uint256 amount0Out, uint256 amount1Out, address to) external {... */\n    tag_5:\n      tag_30\n      0x04\n      dup1\n      calldatasize\n      sub\n      dup2\n      add\n      swap1\n      tag_31\n      swap2\n      swap1\n      tag_32\n      jump\t// in\n    tag_31:\n      tag_33\n      jump\t// in\n    tag_30:\n      stop\n        /* \"Pool.sol\":446:469  uint256 public reserve1 */\n    tag_6:\n      tag_34\n      tag_35\n      jump\t// in\n    tag_34:\n      mload(0x40)\n      tag_36\n      swap2\n      swap1\n      tag_29\n      jump\t// in\n    tag_36:\n      mload(0x40)\n      dup1\n      swap2\n      sub\n      swap1\n      return\n        /* \"Pool.sol\":383:403  Token public lpToken */\n    tag_7:\n      tag_37\n      tag_38\n      jump\t// in\n    tag_37:\n      mload(0x40)\n      tag_39\n      swap2\n      swap1\n      tag_25\n      jump\t// in\n    tag_39:\n      mload(0x40)\n      dup1\n      swap2\n      sub\n      swap1\n      return\n        /* \"Pool.sol\":5644:5905  function getPoolInfo() public view returns (... */\n    tag_8:\n      tag_40\n      tag_41\n      jump\t// in\n    tag_40:\n      mload(0x40)\n      tag_42\n      swap5\n      swap4\n      swap3\n      swap2\n      swap1\n      tag_43\n      jump\t// in\n    tag_42:\n      mload(0x40)\n      dup1\n      swap2\n      sub\n      swap1\n      return\n        /* \"Pool.sol\":5057:5314  function calculateValueInEth(uint256 amount0, uint256 amount1) public view returns (uint256) {... */\n    tag_9:\n      tag_44\n      0x04\n      dup1\n      calldatasize\n      sub\n      dup2\n      add\n      swap1\n      tag_45\n      swap2\n      swap1\n      tag_46\n      jump\t// in\n    tag_45:\n      tag_47\n      jump\t// in\n    tag_44:\n      mload(0x40)\n      tag_48\n      swap2\n      swap1\n      tag_29\n      jump\t// in\n    tag_48:\n      mload(0x40)\n      dup1\n      swap2\n      sub\n      swap1\n      return\n        /* \"@openzeppelin/contracts/access/Ownable.sol\":2293:2394  function renounceOwnership() public virtual onlyOwner {... */\n    tag_10:\n      tag_49\n      tag_50\n      jump\t// in\n    tag_49:\n      stop\n        /* \"@openzeppelin/contracts/access/Ownable.sol\":1638:1723  function owner() public view virtual returns (address) {... */\n    tag_11:\n      tag_51\n      tag_52\n      jump\t// in\n    tag_51:\n      mload(0x40)\n      tag_53\n      swap2\n      swap1\n      tag_54\n      jump\t// in\n    tag_53:\n      mload(0x40)\n      dup1\n      swap2\n      sub\n      swap1\n      return\n        /* \"Pool.sol\":3195:3853  function removeLiquidity(uint256 lpAmount) external returns (uint256 amount0, uint256 amount1) {... */\n    tag_12:\n      tag_55\n      0x04\n      dup1\n      calldatasize\n      sub\n      dup2\n      add\n      swap1\n      tag_56\n      swap2\n      swap1\n      tag_57\n      jump\t// in\n    tag_56:\n      tag_58\n      jump\t// in\n    tag_55:\n      mload(0x40)\n      tag_59\n      swap3\n      swap2\n      swap1\n      tag_60\n      jump\t// in\n    tag_59:\n      mload(0x40)\n      dup1\n      swap2\n      sub\n      swap1\n      return\n        /* \"Pool.sol\":1532:3183  function addLiquidity(uint256 amount0Desired, uint256 amount1Desired) external returns (uint256 lpAmount) {... */\n    tag_13:\n      tag_61\n      0x04\n      dup1\n      calldatasize\n      sub\n      dup2\n      add\n      swap1\n      tag_62\n      swap2\n      swap1\n      tag_46\n      jump\t// in\n    tag_62:\n      tag_63\n      jump\t// in\n    tag_61:\n      mload(0x40)\n      tag_64\n      swap2\n      swap1\n      tag_29\n      jump\t// in\n    tag_64:\n      mload(0x40)\n      dup1\n      swap2\n      sub\n      swap1\n      return\n        /* \"Pool.sol\":5326:5632  function quote(uint256 amountA, uint256 reserveA, uint256 reserveB) public pure returns (uint256 amountB) {... */\n    tag_14:\n      tag_65\n      0x04\n      dup1\n      calldatasize\n      sub\n      dup2\n      add\n      swap1\n      tag_66\n      swap2\n      swap1\n      tag_67\n      jump\t// in\n    tag_66:\n      tag_68\n      jump\t// in\n    tag_65:\n      mload(0x40)\n      tag_69\n      swap2\n      swap1\n      tag_29\n      jump\t// in\n    tag_69:\n      mload(0x40)\n      dup1\n      swap2\n      sub\n      swap1\n      return\n        /* \"Pool.sol\":476:525  uint256 public constant MINIMUM_LIQUIDITY = 10**3 */\n    tag_15:\n      tag_70\n      tag_71\n      jump\t// in\n    tag_70:\n      mload(0x40)\n      tag_72\n      swap2\n      swap1\n      tag_29\n      jump\t// in\n    tag_72:\n      mload(0x40)\n      dup1\n      swap2\n      sub\n      swap1\n      return\n        /* \"Pool.sol\":357:376  Token public token1 */\n    tag_16:\n      tag_73\n      tag_74\n      jump\t// in\n    tag_73:\n      mload(0x40)\n      tag_75\n      swap2\n      swap1\n      tag_25\n      jump\t// in\n    tag_75:\n      mload(0x40)\n      dup1\n      swap2\n      sub\n      swap1\n      return\n        /* \"Pool.sol\":1108:1520  function initialize(uint256 amount0, uint256 amount1) external onlyOwner {... */\n    tag_17:\n      tag_76\n      0x04\n      dup1\n      calldatasize\n      sub\n      dup2\n      add\n      swap1\n      tag_77\n      swap2\n      swap1\n      tag_46\n      jump\t// in\n    tag_77:\n      tag_78\n      jump\t// in\n    tag_76:\n      stop\n        /* \"@openzeppelin/contracts/access/Ownable.sol\":2543:2758  function transferOwnership(address newOwner) public virtual onlyOwner {... */\n    tag_18:\n      tag_79\n      0x04\n      dup1\n      calldatasize\n      sub\n      dup2\n      add\n      swap1\n      tag_80\n      swap2\n      swap1\n      tag_81\n      jump\t// in\n    tag_80:\n      tag_82\n      jump\t// in\n    tag_79:\n      stop\n        /* \"Pool.sol\":331:350  Token public token0 */\n    tag_23:\n      0x01\n      0x00\n      swap1\n      sload\n      swap1\n      0x0100\n      exp\n      swap1\n      div\n      0xffffffffffffffffffffffffffffffffffffffff\n      and\n      dup2\n      jump\t// out\n        /* \"Pool.sol\":416:439  uint256 public reserve0 */\n    tag_27:\n      sload(0x04)\n      dup2\n      jump\t// out\n        /* \"Pool.sol\":3865:5049  function swap(uint256 amount0In, uint256 amount1In, uint256 amount0Out, uint256 amount1Out, address to) external {... */\n    tag_33:\n        /* \"Pool.sol\":4010:4011  0 */\n      0x00\n        /* \"Pool.sol\":3997:4007  amount0Out */\n      dup4\n        /* \"Pool.sol\":3997:4011  amount0Out > 0 */\n      gt\n        /* \"Pool.sol\":3997:4029  amount0Out > 0 || amount1Out > 0 */\n      dup1\n      tag_84\n      jumpi\n      pop\n        /* \"Pool.sol\":4028:4029  0 */\n      0x00\n        /* \"Pool.sol\":4015:4025  amount1Out */\n      dup3\n        /* \"Pool.sol\":4015:4029  amount1Out > 0 */\n      gt\n        /* \"Pool.sol\":3997:4029  amount0Out > 0 || amount1Out > 0 */\n    tag_84:\n        /* \"Pool.sol\":3989:4066  require(amount0Out > 0 || amount1Out > 0, \"Pool: INSUFFICIENT_OUTPUT_AMOUNT\") */\n      tag_85\n      jumpi\n      mload(0x40)\n      0x08c379a000000000000000000000000000000000000000000000000000000000\n      dup2\n      mstore\n      0x04\n      add\n      tag_86\n      swap1\n      tag_87\n      jump\t// in\n    tag_86:\n      mload(0x40)\n      dup1\n      swap2\n      sub\n      swap1\n      revert\n    tag_85:\n        /* \"Pool.sol\":4098:4106  reserve0 */\n      sload(0x04)\n        /* \"Pool.sol\":4085:4095  amount0Out */\n      dup4\n        /* \"Pool.sol\":4085:4106  amount0Out < reserve0 */\n      lt\n        /* \"Pool.sol\":4085:4131  amount0Out < reserve0 && amount1Out < reserve1 */\n      dup1\n      iszero\n      tag_88\n      jumpi\n      pop\n        /* \"Pool.sol\":4123:4131  reserve1 */\n      sload(0x05)\n        /* \"Pool.sol\":4110:4120  amount1Out */\n      dup3\n        /* \"Pool.sol\":4110:4131  amount1Out < reserve1 */\n      lt\n        /* \"Pool.sol\":4085:4131  amount0Out < reserve0 && amount1Out < reserve1 */\n    tag_88:\n        /* \"Pool.sol\":4077:4164  require(amount0Out < reserve0 && amount1Out < reserve1, \"Pool: INSUFFICIENT_LIQUIDITY\") */\n      tag_89\n      jumpi\n      mload(0x40)\n      0x08c379a000000000000000000000000000000000000000000000000000000000\n      dup2\n      mstore\n      0x04\n      add\n      tag_90\n      swap1\n      tag_91\n      jump\t// in\n    tag_90:\n      mload(0x40)\n      dup1\n      swap2\n      sub\n      swap1\n      revert\n    tag_89:\n        /* \"Pool.sol\":4201:4202  0 */\n      0x00\n        /* \"Pool.sol\":4189:4198  amount0In */\n      dup6\n        /* \"Pool.sol\":4189:4202  amount0In > 0 */\n      gt\n        /* \"Pool.sol\":4185:4309  if (amount0In > 0) {... */\n      iszero\n      tag_92\n      jumpi\n        /* \"Pool.sol\":4219:4297  IERC20(address(token0)).safeTransferFrom(msg.sender, address(this), amount0In) */\n      tag_93\n        /* \"Pool.sol\":4260:4270  msg.sender */\n      caller\n        /* \"Pool.sol\":4280:4284  this */\n      address\n        /* \"Pool.sol\":4287:4296  amount0In */\n      dup8\n        /* \"Pool.sol\":4234:4240  token0 */\n      0x01\n      0x00\n      swap1\n      sload\n      swap1\n      0x0100\n      exp\n      swap1\n      div\n      0xffffffffffffffffffffffffffffffffffffffff\n      and\n        /* \"Pool.sol\":4219:4259  IERC20(address(token0)).safeTransferFrom */\n      0xffffffffffffffffffffffffffffffffffffffff\n      and\n      tag_94\n      swap1\n        /* \"Pool.sol\":4219:4297  IERC20(address(token0)).safeTransferFrom(msg.sender, address(this), amount0In) */\n      swap4\n      swap3\n      swap2\n      swap1\n      0xffffffff\n      and\n      jump\t// in\n    tag_93:\n        /* \"Pool.sol\":4185:4309  if (amount0In > 0) {... */\n    tag_92:\n        /* \"Pool.sol\":4335:4336  0 */\n      0x00\n        /* \"Pool.sol\":4323:4332  amount1In */\n      dup5\n        /* \"Pool.sol\":4323:4336  amount1In > 0 */\n      gt\n        /* \"Pool.sol\":4319:4443  if (amount1In > 0) {... */\n      iszero\n      tag_95\n      jumpi\n        /* \"Pool.sol\":4353:4431  IERC20(address(token1)).safeTransferFrom(msg.sender, address(this), amount1In) */\n      tag_96\n        /* \"Pool.sol\":4394:4404  msg.sender */\n      caller\n        /* \"Pool.sol\":4414:4418  this */\n      address\n        /* \"Pool.sol\":4421:4430  amount1In */\n      dup7\n        /* \"Pool.sol\":4368:4374  token1 */\n      0x02\n      0x00\n      swap1\n      sload\n      swap1\n      0x0100\n      exp\n      swap1\n      div\n      0xffffffffffffffffffffffffffffffffffffffff\n      and\n        /* \"Pool.sol\":4353:4393  IERC20(address(token1)).safeTransferFrom */\n      0xffffffffffffffffffffffffffffffffffffffff\n      and\n      tag_94\n      swap1\n        /* \"Pool.sol\":4353:4431  IERC20(address(token1)).safeTransferFrom(msg.sender, address(this), amount1In) */\n      swap4\n      swap3\n      swap2\n      swap1\n      0xffffffff\n      and\n      jump\t// in\n    tag_96:\n        /* \"Pool.sol\":4319:4443  if (amount1In > 0) {... */\n    tag_95:\n        /* \"Pool.sol\":4463:4479  uint256 balance0 */\n      0x00\n        /* \"Pool.sol\":4505:4515  amount0Out */\n      dup4\n        /* \"Pool.sol\":4493:4502  amount0In */\n      dup7\n        /* \"Pool.sol\":4482:4490  reserve0 */\n      sload(0x04)\n        /* \"Pool.sol\":4482:4502  reserve0 + amount0In */\n      tag_97\n      swap2\n      swap1\n      tag_98\n      jump\t// in\n    tag_97:\n        /* \"Pool.sol\":4482:4515  reserve0 + amount0In - amount0Out */\n      tag_99\n      swap2\n      swap1\n      tag_100\n      jump\t// in\n    tag_99:\n        /* \"Pool.sol\":4463:4515  uint256 balance0 = reserve0 + amount0In - amount0Out */\n      swap1\n      pop\n        /* \"Pool.sol\":4526:4542  uint256 balance1 */\n      0x00\n        /* \"Pool.sol\":4568:4578  amount1Out */\n      dup4\n        /* \"Pool.sol\":4556:4565  amount1In */\n      dup7\n        /* \"Pool.sol\":4545:4553  reserve1 */\n      sload(0x05)\n        /* \"Pool.sol\":4545:4565  reserve1 + amount1In */\n      tag_101\n      swap2\n      swap1\n      tag_98\n      jump\t// in\n    tag_101:\n        /* \"Pool.sol\":4545:4578  reserve1 + amount1In - amount1Out */\n      tag_102\n      swap2\n      swap1\n      tag_100\n      jump\t// in\n    tag_102:\n        /* \"Pool.sol\":4526:4578  uint256 balance1 = reserve1 + amount1In - amount1Out */\n      swap1\n      pop\n        /* \"Pool.sol\":4631:4639  reserve1 */\n      sload(0x05)\n        /* \"Pool.sol\":4620:4628  reserve0 */\n      sload(0x04)\n        /* \"Pool.sol\":4620:4639  reserve0 * reserve1 */\n      tag_103\n      swap2\n      swap1\n      tag_104\n      jump\t// in\n    tag_103:\n        /* \"Pool.sol\":4608:4616  balance1 */\n      dup2\n        /* \"Pool.sol\":4597:4605  balance0 */\n      dup4\n        /* \"Pool.sol\":4597:4616  balance0 * balance1 */\n      tag_105\n      swap2\n      swap1\n      tag_104\n      jump\t// in\n    tag_105:\n        /* \"Pool.sol\":4597:4639  balance0 * balance1 >= reserve0 * reserve1 */\n      lt\n      iszero\n        /* \"Pool.sol\":4589:4651  require(balance0 * balance1 >= reserve0 * reserve1, \"Pool: K\") */\n      tag_106\n      jumpi\n      mload(0x40)\n      0x08c379a000000000000000000000000000000000000000000000000000000000\n      dup2\n      mstore\n      0x04\n      add\n      tag_107\n      swap1\n      tag_108\n      jump\t// in\n    tag_107:\n      mload(0x40)\n      dup1\n      swap2\n      sub\n      swap1\n      revert\n    tag_106:\n        /* \"Pool.sol\":4689:4690  0 */\n      0x00\n        /* \"Pool.sol\":4676:4686  amount0Out */\n      dup6\n        /* \"Pool.sol\":4676:4690  amount0Out > 0 */\n      gt\n        /* \"Pool.sol\":4672:4771  if (amount0Out > 0) {... */\n      iszero\n      tag_109\n      jumpi\n        /* \"Pool.sol\":4707:4759  IERC20(address(token0)).safeTransfer(to, amount0Out) */\n      tag_110\n        /* \"Pool.sol\":4744:4746  to */\n      dup4\n        /* \"Pool.sol\":4748:4758  amount0Out */\n      dup7\n        /* \"Pool.sol\":4722:4728  token0 */\n      0x01\n      0x00\n      swap1\n      sload\n      swap1\n      0x0100\n      exp\n      swap1\n      div\n      0xffffffffffffffffffffffffffffffffffffffff\n      and\n        /* \"Pool.sol\":4707:4743  IERC20(address(token0)).safeTransfer */\n      0xffffffffffffffffffffffffffffffffffffffff\n      and\n      tag_111\n      swap1\n        /* \"Pool.sol\":4707:4759  IERC20(address(token0)).safeTransfer(to, amount0Out) */\n      swap3\n      swap2\n      swap1\n      0xffffffff\n      and\n      jump\t// in\n    tag_110:\n        /* \"Pool.sol\":4672:4771  if (amount0Out > 0) {... */\n    tag_109:\n        /* \"Pool.sol\":4798:4799  0 */\n      0x00\n        /* \"Pool.sol\":4785:4795  amount1Out */\n      dup5\n        /* \"Pool.sol\":4785:4799  amount1Out > 0 */\n      gt\n        /* \"Pool.sol\":4781:4880  if (amount1Out > 0) {... */\n      iszero\n      tag_112\n      jumpi\n        /* \"Pool.sol\":4816:4868  IERC20(address(token1)).safeTransfer(to, amount1Out) */\n      tag_113\n        /* \"Pool.sol\":4853:4855  to */\n      dup4\n        /* \"Pool.sol\":4857:4867  amount1Out */\n      dup6\n        /* \"Pool.sol\":4831:4837  token1 */\n      0x02\n      0x00\n      swap1\n      sload\n      swap1\n      0x0100\n      exp\n      swap1\n      div\n      0xffffffffffffffffffffffffffffffffffffffff\n      and\n        /* \"Pool.sol\":4816:4852  IERC20(address(token1)).safeTransfer */\n      0xffffffffffffffffffffffffffffffffffffffff\n      and\n      tag_111\n      swap1\n        /* \"Pool.sol\":4816:4868  IERC20(address(token1)).safeTransfer(to, amount1Out) */\n      swap3\n      swap2\n      swap1\n      0xffffffff\n      and\n      jump\t// in\n    tag_113:\n        /* \"Pool.sol\":4781:4880  if (amount1Out > 0) {... */\n    tag_112:\n        /* \"Pool.sol\":4911:4919  balance0 */\n      dup2\n        /* \"Pool.sol\":4900:4908  reserve0 */\n      0x04\n        /* \"Pool.sol\":4900:4919  reserve0 = balance0 */\n      dup2\n      swap1\n      sstore\n      pop\n        /* \"Pool.sol\":4941:4949  balance1 */\n      dup1\n        /* \"Pool.sol\":4930:4938  reserve1 */\n      0x05\n        /* \"Pool.sol\":4930:4949  reserve1 = balance1 */\n      dup2\n      swap1\n      sstore\n      pop\n        /* \"Pool.sol\":5038:5040  to */\n      dup3\n        /* \"Pool.sol\":4975:5041  Swap(msg.sender, amount0In, amount1In, amount0Out, amount1Out, to) */\n      0xffffffffffffffffffffffffffffffffffffffff\n      and\n        /* \"Pool.sol\":4980:4990  msg.sender */\n      caller\n        /* \"Pool.sol\":4975:5041  Swap(msg.sender, amount0In, amount1In, amount0Out, amount1Out, to) */\n      0xffffffffffffffffffffffffffffffffffffffff\n      and\n      0xd78ad95fa46c994b6551d0da85fc275fe613ce37657fb8d5e3d130840159d822\n        /* \"Pool.sol\":4992:5001  amount0In */\n      dup10\n        /* \"Pool.sol\":5003:5012  amount1In */\n      dup10\n        /* \"Pool.sol\":5014:5024  amount0Out */\n      dup10\n        /* \"Pool.sol\":5026:5036  amount1Out */\n      dup10\n        /* \"Pool.sol\":4975:5041  Swap(msg.sender, amount0In, amount1In, amount0Out, amount1Out, to) */\n      mload(0x40)\n      tag_114\n      swap5\n      swap4\n      swap3\n      swap2\n      swap1\n      tag_115\n      jump\t// in\n    tag_114:\n      mload(0x40)\n      dup1\n      swap2\n      sub\n      swap1\n      log3\n        /* \"Pool.sol\":3978:5049  {... */\n      pop\n      pop\n        /* \"Pool.sol\":3865:5049  function swap(uint256 amount0In, uint256 amount1In, uint256 amount0Out, uint256 amount1Out, address to) external {... */\n      pop\n      pop\n      pop\n      pop\n      pop\n      jump\t// out\n        /* \"Pool.sol\":446:469  uint256 public reserve1 */\n    tag_35:\n      sload(0x05)\n      dup2\n      jump\t// out\n        /* \"Pool.sol\":383:403  Token public lpToken */\n    tag_38:\n      0x03\n      0x00\n      swap1\n      sload\n      swap1\n      0x0100\n      exp\n      swap1\n      div\n      0xffffffffffffffffffffffffffffffffffffffff\n      and\n      dup2\n      jump\t// out\n        /* \"Pool.sol\":5644:5905  function getPoolInfo() public view returns (... */\n    tag_41:\n        /* \"Pool.sol\":5698:5719  address token0Address */\n      0x00\n        /* \"Pool.sol\":5730:5751  address token1Address */\n      dup1\n        /* \"Pool.sol\":5762:5784  uint256 reserve0Amount */\n      0x00\n        /* \"Pool.sol\":5795:5817  uint256 reserve1Amount */\n      dup1\n        /* \"Pool.sol\":5852:5858  token0 */\n      0x01\n      0x00\n      swap1\n      sload\n      swap1\n      0x0100\n      exp\n      swap1\n      div\n      0xffffffffffffffffffffffffffffffffffffffff\n      and\n        /* \"Pool.sol\":5869:5875  token1 */\n      0x02\n      0x00\n      swap1\n      sload\n      swap1\n      0x0100\n      exp\n      swap1\n      div\n      0xffffffffffffffffffffffffffffffffffffffff\n      and\n        /* \"Pool.sol\":5878:5886  reserve0 */\n      sload(0x04)\n        /* \"Pool.sol\":5888:5896  reserve1 */\n      sload(0x05)\n        /* \"Pool.sol\":5836:5897  return (address(token0), address(token1), reserve0, reserve1) */\n      swap4\n      pop\n      swap4\n      pop\n      swap4\n      pop\n      swap4\n      pop\n        /* \"Pool.sol\":5644:5905  function getPoolInfo() public view returns (... */\n      swap1\n      swap2\n      swap3\n      swap4\n      jump\t// out\n        /* \"Pool.sol\":5057:5314  function calculateValueInEth(uint256 amount0, uint256 amount1) public view returns (uint256) {... */\n    tag_47:\n        /* \"Pool.sol\":5141:5148  uint256 */\n      0x00\n        /* \"Pool.sol\":5287:5293  token1 */\n      0x02\n      0x00\n      swap1\n      sload\n      swap1\n      0x0100\n      exp\n      swap1\n      div\n      0xffffffffffffffffffffffffffffffffffffffff\n      and\n        /* \"Pool.sol\":5287:5302  token1.decimals */\n      0xffffffffffffffffffffffffffffffffffffffff\n      and\n      0x313ce567\n        /* \"Pool.sol\":5287:5304  token1.decimals() */\n      mload(0x40)\n      dup2\n      0xffffffff\n      and\n      0xe0\n      shl\n      dup2\n      mstore\n      0x04\n      add\n      0x20\n      mload(0x40)\n      dup1\n      dup4\n      sub\n      dup2\n      dup7\n      gas\n      staticcall\n      iszero\n      dup1\n      iszero\n      tag_119\n      jumpi\n      returndatasize\n      0x00\n      dup1\n      returndatacopy\n      revert(0x00, returndatasize)\n    tag_119:\n      pop\n      pop\n      pop\n      pop\n      mload(0x40)\n      returndatasize\n      not(0x1f)\n      0x1f\n      dup3\n      add\n      and\n      dup3\n      add\n      dup1\n      0x40\n      mstore\n      pop\n      dup2\n      add\n      swap1\n      tag_120\n      swap2\n      swap1\n      tag_121\n      jump\t// in\n    tag_120:\n        /* \"Pool.sol\":5281:5283  10 */\n      0x0a\n        /* \"Pool.sol\":5281:5304  10 ** token1.decimals() */\n      tag_122\n      swap2\n      swap1\n      tag_123\n      jump\t// in\n    tag_122:\n        /* \"Pool.sol\":5258:5264  token1 */\n      0x02\n      0x00\n      swap1\n      sload\n      swap1\n      0x0100\n      exp\n      swap1\n      div\n      0xffffffffffffffffffffffffffffffffffffffff\n      and\n        /* \"Pool.sol\":5258:5275  token1.priceInEth */\n      0xffffffffffffffffffffffffffffffffffffffff\n      and\n      0xfdd760ea\n        /* \"Pool.sol\":5258:5277  token1.priceInEth() */\n      mload(0x40)\n      dup2\n      0xffffffff\n      and\n      0xe0\n      shl\n      dup2\n      mstore\n      0x04\n      add\n      0x20\n      mload(0x40)\n      dup1\n      dup4\n      sub\n      dup2\n      dup7\n      gas\n      staticcall\n      iszero\n      dup1\n      iszero\n      tag_125\n      jumpi\n      returndatasize\n      0x00\n      dup1\n      returndatacopy\n      revert(0x00, returndatasize)\n    tag_125:\n      pop\n      pop\n      pop\n      pop\n      mload(0x40)\n      returndatasize\n      not(0x1f)\n      0x1f\n      dup3\n      add\n      and\n      dup3\n      add\n      dup1\n      0x40\n      mstore\n      pop\n      dup2\n      add\n      swap1\n      tag_126\n      swap2\n      swap1\n      tag_127\n      jump\t// in\n    tag_126:\n        /* \"Pool.sol\":5248:5255  amount1 */\n      dup4\n        /* \"Pool.sol\":5248:5277  amount1 * token1.priceInEth() */\n      tag_128\n      swap2\n      swap1\n      tag_104\n      jump\t// in\n    tag_128:\n        /* \"Pool.sol\":5248:5305  amount1 * token1.priceInEth() / (10 ** token1.decimals()) */\n      tag_129\n      swap2\n      swap1\n      tag_130\n      jump\t// in\n    tag_129:\n        /* \"Pool.sol\":5208:5214  token0 */\n      0x01\n      0x00\n      swap1\n      sload\n      swap1\n      0x0100\n      exp\n      swap1\n      div\n      0xffffffffffffffffffffffffffffffffffffffff\n      and\n        /* \"Pool.sol\":5208:5223  token0.decimals */\n      0xffffffffffffffffffffffffffffffffffffffff\n      and\n      0x313ce567\n        /* \"Pool.sol\":5208:5225  token0.decimals() */\n      mload(0x40)\n      dup2\n      0xffffffff\n      and\n      0xe0\n      shl\n      dup2\n      mstore\n      0x04\n      add\n      0x20\n      mload(0x40)\n      dup1\n      dup4\n      sub\n      dup2\n      dup7\n      gas\n      staticcall\n      iszero\n      dup1\n      iszero\n      tag_132\n      jumpi\n      returndatasize\n      0x00\n      dup1\n      returndatacopy\n      revert(0x00, returndatasize)\n    tag_132:\n      pop\n      pop\n      pop\n      pop\n      mload(0x40)\n      returndatasize\n      not(0x1f)\n      0x1f\n      dup3\n      add\n      and\n      dup3\n      add\n      dup1\n      0x40\n      mstore\n      pop\n      dup2\n      add\n      swap1\n      tag_133\n      swap2\n      swap1\n      tag_121\n      jump\t// in\n    tag_133:\n        /* \"Pool.sol\":5202:5204  10 */\n      0x0a\n        /* \"Pool.sol\":5202:5225  10 ** token0.decimals() */\n      tag_134\n      swap2\n      swap1\n      tag_123\n      jump\t// in\n    tag_134:\n        /* \"Pool.sol\":5179:5185  token0 */\n      0x01\n      0x00\n      swap1\n      sload\n      swap1\n      0x0100\n      exp\n      swap1\n      div\n      0xffffffffffffffffffffffffffffffffffffffff\n      and\n        /* \"Pool.sol\":5179:5196  token0.priceInEth */\n      0xffffffffffffffffffffffffffffffffffffffff\n      and\n      0xfdd760ea\n        /* \"Pool.sol\":5179:5198  token0.priceInEth() */\n      mload(0x40)\n      dup2\n      0xffffffff\n      and\n      0xe0\n      shl\n      dup2\n      mstore\n      0x04\n      add\n      0x20\n      mload(0x40)\n      dup1\n      dup4\n      sub\n      dup2\n      dup7\n      gas\n      staticcall\n      iszero\n      dup1\n      iszero\n      tag_136\n      jumpi\n      returndatasize\n      0x00\n      dup1\n      returndatacopy\n      revert(0x00, returndatasize)\n    tag_136:\n      pop\n      pop\n      pop\n      pop\n      mload(0x40)\n      returndatasize\n      not(0x1f)\n      0x1f\n      dup3\n      add\n      and\n      dup3\n      add\n      dup1\n      0x40\n      mstore\n      pop\n      dup2\n      add\n      swap1\n      tag_137\n      swap2\n      swap1\n      tag_127\n      jump\t// in\n    tag_137:\n        /* \"Pool.sol\":5169:5176  amount0 */\n      dup6\n        /* \"Pool.sol\":5169:5198  amount0 * token0.priceInEth() */\n      tag_138\n      swap2\n      swap1\n      tag_104\n      jump\t// in\n    tag_138:\n        /* \"Pool.sol\":5169:5226  amount0 * token0.priceInEth() / (10 ** token0.decimals()) */\n      tag_139\n      swap2\n      swap1\n      tag_130\n      jump\t// in\n    tag_139:\n        /* \"Pool.sol\":5168:5306  (amount0 * token0.priceInEth() / (10 ** token0.decimals())) + ... */\n      tag_140\n      swap2\n      swap1\n      tag_98\n      jump\t// in\n    tag_140:\n        /* \"Pool.sol\":5161:5306  return (amount0 * token0.priceInEth() / (10 ** token0.decimals())) + ... */\n      swap1\n      pop\n        /* \"Pool.sol\":5057:5314  function calculateValueInEth(uint256 amount0, uint256 amount1) public view returns (uint256) {... */\n      swap3\n      swap2\n      pop\n      pop\n      jump\t// out\n        /* \"@openzeppelin/contracts/access/Ownable.sol\":2293:2394  function renounceOwnership() public virtual onlyOwner {... */\n    tag_50:\n        /* \"@openzeppelin/contracts/access/Ownable.sol\":1531:1544  _checkOwner() */\n      tag_142\n        /* \"@openzeppelin/contracts/access/Ownable.sol\":1531:1542  _checkOwner */\n      tag_143\n        /* \"@openzeppelin/contracts/access/Ownable.sol\":1531:1544  _checkOwner() */\n      jump\t// in\n    tag_142:\n        /* \"@openzeppelin/contracts/access/Ownable.sol\":2357:2387  _transferOwnership(address(0)) */\n      tag_145\n        /* \"@openzeppelin/contracts/access/Ownable.sol\":2384:2385  0 */\n      0x00\n        /* \"@openzeppelin/contracts/access/Ownable.sol\":2357:2375  _transferOwnership */\n      tag_146\n        /* \"@openzeppelin/contracts/access/Ownable.sol\":2357:2387  _transferOwnership(address(0)) */\n      jump\t// in\n    tag_145:\n        /* \"@openzeppelin/contracts/access/Ownable.sol\":2293:2394  function renounceOwnership() public virtual onlyOwner {... */\n      jump\t// out\n        /* \"@openzeppelin/contracts/access/Ownable.sol\":1638:1723  function owner() public view virtual returns (address) {... */\n    tag_52:\n        /* \"@openzeppelin/contracts/access/Ownable.sol\":1684:1691  address */\n      0x00\n        /* \"@openzeppelin/contracts/access/Ownable.sol\":1710:1716  _owner */\n      dup1\n      0x00\n      swap1\n      sload\n      swap1\n      0x0100\n      exp\n      swap1\n      div\n      0xffffffffffffffffffffffffffffffffffffffff\n      and\n        /* \"@openzeppelin/contracts/access/Ownable.sol\":1703:1716  return _owner */\n      swap1\n      pop\n        /* \"@openzeppelin/contracts/access/Ownable.sol\":1638:1723  function owner() public view virtual returns (address) {... */\n      swap1\n      jump\t// out\n        /* \"Pool.sol\":3195:3853  function removeLiquidity(uint256 lpAmount) external returns (uint256 amount0, uint256 amount1) {... */\n    tag_58:\n        /* \"Pool.sol\":3256:3271  uint256 amount0 */\n      0x00\n        /* \"Pool.sol\":3273:3288  uint256 amount1 */\n      dup1\n        /* \"Pool.sol\":3301:3308  lpToken */\n      0x03\n      0x00\n      swap1\n      sload\n      swap1\n      0x0100\n      exp\n      swap1\n      div\n      0xffffffffffffffffffffffffffffffffffffffff\n      and\n        /* \"Pool.sol\":3301:3313  lpToken.burn */\n      0xffffffffffffffffffffffffffffffffffffffff\n      and\n      0x9dc29fac\n        /* \"Pool.sol\":3314:3324  msg.sender */\n      caller\n        /* \"Pool.sol\":3326:3334  lpAmount */\n      dup6\n        /* \"Pool.sol\":3301:3335  lpToken.burn(msg.sender, lpAmount) */\n      mload(0x40)\n      dup4\n      0xffffffff\n      and\n      0xe0\n      shl\n      dup2\n      mstore\n      0x04\n      add\n      tag_149\n      swap3\n      swap2\n      swap1\n      tag_150\n      jump\t// in\n    tag_149:\n      0x00\n      mload(0x40)\n      dup1\n      dup4\n      sub\n      dup2\n      0x00\n      dup8\n      dup1\n      extcodesize\n      iszero\n      dup1\n      iszero\n      tag_151\n      jumpi\n      0x00\n      dup1\n      revert\n    tag_151:\n      pop\n      gas\n      call\n      iszero\n      dup1\n      iszero\n      tag_153\n      jumpi\n      returndatasize\n      0x00\n      dup1\n      returndatacopy\n      revert(0x00, returndatasize)\n    tag_153:\n      pop\n      pop\n      pop\n      pop\n        /* \"Pool.sol\":3356:3375  uint256 totalSupply */\n      0x00\n        /* \"Pool.sol\":3378:3385  lpToken */\n      0x03\n      0x00\n      swap1\n      sload\n      swap1\n      0x0100\n      exp\n      swap1\n      div\n      0xffffffffffffffffffffffffffffffffffffffff\n      and\n        /* \"Pool.sol\":3378:3397  lpToken.totalSupply */\n      0xffffffffffffffffffffffffffffffffffffffff\n      and\n      0x18160ddd\n        /* \"Pool.sol\":3378:3399  lpToken.totalSupply() */\n      mload(0x40)\n      dup2\n      0xffffffff\n      and\n      0xe0\n      shl\n      dup2\n      mstore\n      0x04\n      add\n      0x20\n      mload(0x40)\n      dup1\n      dup4\n      sub\n      dup2\n      dup7\n      gas\n      staticcall\n      iszero\n      dup1\n      iszero\n      tag_155\n      jumpi\n      returndatasize\n      0x00\n      dup1\n      returndatacopy\n      revert(0x00, returndatasize)\n    tag_155:\n      pop\n      pop\n      pop\n      pop\n      mload(0x40)\n      returndatasize\n      not(0x1f)\n      0x1f\n      dup3\n      add\n      and\n      dup3\n      add\n      dup1\n      0x40\n      mstore\n      pop\n      dup2\n      add\n      swap1\n      tag_156\n      swap2\n      swap1\n      tag_127\n      jump\t// in\n    tag_156:\n        /* \"Pool.sol\":3356:3399  uint256 totalSupply = lpToken.totalSupply() */\n      swap1\n      pop\n        /* \"Pool.sol\":3444:3455  totalSupply */\n      dup1\n        /* \"Pool.sol\":3432:3440  reserve0 */\n      sload(0x04)\n        /* \"Pool.sol\":3421:3429  lpAmount */\n      dup6\n        /* \"Pool.sol\":3421:3440  lpAmount * reserve0 */\n      tag_157\n      swap2\n      swap1\n      tag_104\n      jump\t// in\n    tag_157:\n        /* \"Pool.sol\":3420:3455  (lpAmount * reserve0) / totalSupply */\n      tag_158\n      swap2\n      swap1\n      tag_130\n      jump\t// in\n    tag_158:\n        /* \"Pool.sol\":3410:3455  amount0 = (lpAmount * reserve0) / totalSupply */\n      swap3\n      pop\n        /* \"Pool.sol\":3500:3511  totalSupply */\n      dup1\n        /* \"Pool.sol\":3488:3496  reserve1 */\n      sload(0x05)\n        /* \"Pool.sol\":3477:3485  lpAmount */\n      dup6\n        /* \"Pool.sol\":3477:3496  lpAmount * reserve1 */\n      tag_159\n      swap2\n      swap1\n      tag_104\n      jump\t// in\n    tag_159:\n        /* \"Pool.sol\":3476:3511  (lpAmount * reserve1) / totalSupply */\n      tag_160\n      swap2\n      swap1\n      tag_130\n      jump\t// in\n    tag_160:\n        /* \"Pool.sol\":3466:3511  amount1 = (lpAmount * reserve1) / totalSupply */\n      swap2\n      pop\n        /* \"Pool.sol\":3532:3589  IERC20(address(token0)).safeTransfer(msg.sender, amount0) */\n      tag_161\n        /* \"Pool.sol\":3569:3579  msg.sender */\n      caller\n        /* \"Pool.sol\":3581:3588  amount0 */\n      dup5\n        /* \"Pool.sol\":3547:3553  token0 */\n      0x01\n      0x00\n      swap1\n      sload\n      swap1\n      0x0100\n      exp\n      swap1\n      div\n      0xffffffffffffffffffffffffffffffffffffffff\n      and\n        /* \"Pool.sol\":3532:3568  IERC20(address(token0)).safeTransfer */\n      0xffffffffffffffffffffffffffffffffffffffff\n      and\n      tag_111\n      swap1\n        /* \"Pool.sol\":3532:3589  IERC20(address(token0)).safeTransfer(msg.sender, amount0) */\n      swap3\n      swap2\n      swap1\n      0xffffffff\n      and\n      jump\t// in\n    tag_161:\n        /* \"Pool.sol\":3600:3657  IERC20(address(token1)).safeTransfer(msg.sender, amount1) */\n      tag_162\n        /* \"Pool.sol\":3637:3647  msg.sender */\n      caller\n        /* \"Pool.sol\":3649:3656  amount1 */\n      dup4\n        /* \"Pool.sol\":3615:3621  token1 */\n      0x02\n      0x00\n      swap1\n      sload\n      swap1\n      0x0100\n      exp\n      swap1\n      div\n      0xffffffffffffffffffffffffffffffffffffffff\n      and\n        /* \"Pool.sol\":3600:3636  IERC20(address(token1)).safeTransfer */\n      0xffffffffffffffffffffffffffffffffffffffff\n      and\n      tag_111\n      swap1\n        /* \"Pool.sol\":3600:3657  IERC20(address(token1)).safeTransfer(msg.sender, amount1) */\n      swap3\n      swap2\n      swap1\n      0xffffffff\n      and\n      jump\t// in\n    tag_162:\n        /* \"Pool.sol\":3690:3697  amount0 */\n      dup3\n        /* \"Pool.sol\":3678:3686  reserve0 */\n      0x04\n      0x00\n        /* \"Pool.sol\":3678:3697  reserve0 -= amount0 */\n      dup3\n      dup3\n      sload\n      tag_163\n      swap2\n      swap1\n      tag_100\n      jump\t// in\n    tag_163:\n      swap3\n      pop\n      pop\n      dup2\n      swap1\n      sstore\n      pop\n        /* \"Pool.sol\":3720:3727  amount1 */\n      dup2\n        /* \"Pool.sol\":3708:3716  reserve1 */\n      0x05\n      0x00\n        /* \"Pool.sol\":3708:3727  reserve1 -= amount1 */\n      dup3\n      dup3\n      sload\n      tag_164\n      swap2\n      swap1\n      tag_100\n      jump\t// in\n    tag_164:\n      swap3\n      pop\n      pop\n      dup2\n      swap1\n      sstore\n      pop\n        /* \"Pool.sol\":3788:3798  msg.sender */\n      caller\n        /* \"Pool.sol\":3753:3799  Burn(msg.sender, amount0, amount1, msg.sender) */\n      0xffffffffffffffffffffffffffffffffffffffff\n      and\n        /* \"Pool.sol\":3758:3768  msg.sender */\n      caller\n        /* \"Pool.sol\":3753:3799  Burn(msg.sender, amount0, amount1, msg.sender) */\n      0xffffffffffffffffffffffffffffffffffffffff\n      and\n      0xdccd412f0b1252819cb1fd330b93224ca42612892bb3f4f789976e6d81936496\n        /* \"Pool.sol\":3770:3777  amount0 */\n      dup6\n        /* \"Pool.sol\":3779:3786  amount1 */\n      dup6\n        /* \"Pool.sol\":3753:3799  Burn(msg.sender, amount0, amount1, msg.sender) */\n      mload(0x40)\n      tag_165\n      swap3\n      swap2\n      swap1\n      tag_60\n      jump\t// in\n    tag_165:\n      mload(0x40)\n      dup1\n      swap2\n      sub\n      swap1\n      log3\n        /* \"Pool.sol\":3820:3845  return (amount0, amount1) */\n      pop\n        /* \"Pool.sol\":3195:3853  function removeLiquidity(uint256 lpAmount) external returns (uint256 amount0, uint256 amount1) {... */\n      swap2\n      pop\n      swap2\n      jump\t// out\n        /* \"Pool.sol\":1532:3183  function addLiquidity(uint256 amount0Desired, uint256 amount1Desired) external returns (uint256 lpAmount) {... */\n    tag_63:\n        /* \"Pool.sol\":1620:1636  uint256 lpAmount */\n      0x00\n        /* \"Pool.sol\":1649:1664  uint256 amount0 */\n      dup1\n        /* \"Pool.sol\":1675:1690  uint256 amount1 */\n      0x00\n        /* \"Pool.sol\":1727:1728  0 */\n      dup1\n        /* \"Pool.sol\":1715:1723  reserve0 */\n      sload(0x04)\n        /* \"Pool.sol\":1715:1728  reserve0 == 0 */\n      eq\n        /* \"Pool.sol\":1715:1745  reserve0 == 0 && reserve1 == 0 */\n      dup1\n      iszero\n      tag_167\n      jumpi\n      pop\n        /* \"Pool.sol\":1744:1745  0 */\n      0x00\n        /* \"Pool.sol\":1732:1740  reserve1 */\n      sload(0x05)\n        /* \"Pool.sol\":1732:1745  reserve1 == 0 */\n      eq\n        /* \"Pool.sol\":1715:1745  reserve0 == 0 && reserve1 == 0 */\n    tag_167:\n        /* \"Pool.sol\":1711:2297  if (reserve0 == 0 && reserve1 == 0) {... */\n      iszero\n      tag_168\n      jumpi\n        /* \"Pool.sol\":1772:1786  amount0Desired */\n      dup5\n        /* \"Pool.sol\":1762:1786  amount0 = amount0Desired */\n      swap2\n      pop\n        /* \"Pool.sol\":1811:1825  amount1Desired */\n      dup4\n        /* \"Pool.sol\":1801:1825  amount1 = amount1Desired */\n      swap1\n      pop\n        /* \"Pool.sol\":1711:2297  if (reserve0 == 0 && reserve1 == 0) {... */\n      jump(tag_169)\n    tag_168:\n        /* \"Pool.sol\":1858:1880  uint256 amount1Optimal */\n      0x00\n        /* \"Pool.sol\":1883:1924  quote(amount0Desired, reserve0, reserve1) */\n      tag_170\n        /* \"Pool.sol\":1889:1903  amount0Desired */\n      dup7\n        /* \"Pool.sol\":1905:1913  reserve0 */\n      sload(0x04)\n        /* \"Pool.sol\":1915:1923  reserve1 */\n      sload(0x05)\n        /* \"Pool.sol\":1883:1888  quote */\n      tag_68\n        /* \"Pool.sol\":1883:1924  quote(amount0Desired, reserve0, reserve1) */\n      jump\t// in\n    tag_170:\n        /* \"Pool.sol\":1858:1924  uint256 amount1Optimal = quote(amount0Desired, reserve0, reserve1) */\n      swap1\n      pop\n        /* \"Pool.sol\":1975:1989  amount1Desired */\n      dup5\n        /* \"Pool.sol\":1957:1971  amount1Optimal */\n      dup2\n        /* \"Pool.sol\":1957:1989  amount1Optimal <= amount1Desired */\n      gt\n        /* \"Pool.sol\":1953:2286  if (amount1Optimal <= amount1Desired) {... */\n      tag_171\n      jumpi\n        /* \"Pool.sol\":2020:2034  amount0Desired */\n      dup6\n        /* \"Pool.sol\":2010:2034  amount0 = amount0Desired */\n      swap3\n      pop\n        /* \"Pool.sol\":2063:2077  amount1Optimal */\n      dup1\n        /* \"Pool.sol\":2053:2077  amount1 = amount1Optimal */\n      swap2\n      pop\n        /* \"Pool.sol\":1953:2286  if (amount1Optimal <= amount1Desired) {... */\n      jump(tag_172)\n    tag_171:\n        /* \"Pool.sol\":2118:2140  uint256 amount0Optimal */\n      0x00\n        /* \"Pool.sol\":2143:2184  quote(amount1Desired, reserve1, reserve0) */\n      tag_173\n        /* \"Pool.sol\":2149:2163  amount1Desired */\n      dup7\n        /* \"Pool.sol\":2165:2173  reserve1 */\n      sload(0x05)\n        /* \"Pool.sol\":2175:2183  reserve0 */\n      sload(0x04)\n        /* \"Pool.sol\":2143:2148  quote */\n      tag_68\n        /* \"Pool.sol\":2143:2184  quote(amount1Desired, reserve1, reserve0) */\n      jump\t// in\n    tag_173:\n        /* \"Pool.sol\":2118:2184  uint256 amount0Optimal = quote(amount1Desired, reserve1, reserve0) */\n      swap1\n      pop\n        /* \"Pool.sol\":2213:2227  amount0Optimal */\n      dup1\n        /* \"Pool.sol\":2203:2227  amount0 = amount0Optimal */\n      swap4\n      pop\n        /* \"Pool.sol\":2256:2270  amount1Desired */\n      dup6\n        /* \"Pool.sol\":2246:2270  amount1 = amount1Desired */\n      swap3\n      pop\n        /* \"Pool.sol\":2099:2286  {... */\n      pop\n        /* \"Pool.sol\":1953:2286  if (amount1Optimal <= amount1Desired) {... */\n    tag_172:\n        /* \"Pool.sol\":1843:2297  {... */\n      pop\n        /* \"Pool.sol\":1711:2297  if (reserve0 == 0 && reserve1 == 0) {... */\n    tag_169:\n        /* \"Pool.sol\":2317:2393  IERC20(address(token0)).safeTransferFrom(msg.sender, address(this), amount0) */\n      tag_174\n        /* \"Pool.sol\":2358:2368  msg.sender */\n      caller\n        /* \"Pool.sol\":2378:2382  this */\n      address\n        /* \"Pool.sol\":2385:2392  amount0 */\n      dup5\n        /* \"Pool.sol\":2332:2338  token0 */\n      0x01\n      0x00\n      swap1\n      sload\n      swap1\n      0x0100\n      exp\n      swap1\n      div\n      0xffffffffffffffffffffffffffffffffffffffff\n      and\n        /* \"Pool.sol\":2317:2357  IERC20(address(token0)).safeTransferFrom */\n      0xffffffffffffffffffffffffffffffffffffffff\n      and\n      tag_94\n      swap1\n        /* \"Pool.sol\":2317:2393  IERC20(address(token0)).safeTransferFrom(msg.sender, address(this), amount0) */\n      swap4\n      swap3\n      swap2\n      swap1\n      0xffffffff\n      and\n      jump\t// in\n    tag_174:\n        /* \"Pool.sol\":2404:2480  IERC20(address(token1)).safeTransferFrom(msg.sender, address(this), amount1) */\n      tag_175\n        /* \"Pool.sol\":2445:2455  msg.sender */\n      caller\n        /* \"Pool.sol\":2465:2469  this */\n      address\n        /* \"Pool.sol\":2472:2479  amount1 */\n      dup4\n        /* \"Pool.sol\":2419:2425  token1 */\n      0x02\n      0x00\n      swap1\n      sload\n      swap1\n      0x0100\n      exp\n      swap1\n      div\n      0xffffffffffffffffffffffffffffffffffffffff\n      and\n        /* \"Pool.sol\":2404:2444  IERC20(address(token1)).safeTransferFrom */\n      0xffffffffffffffffffffffffffffffffffffffff\n      and\n      tag_94\n      swap1\n        /* \"Pool.sol\":2404:2480  IERC20(address(token1)).safeTransferFrom(msg.sender, address(this), amount1) */\n      swap4\n      swap3\n      swap2\n      swap1\n      0xffffffff\n      and\n      jump\t// in\n    tag_175:\n        /* \"Pool.sol\":2501:2520  uint256 totalSupply */\n      0x00\n        /* \"Pool.sol\":2523:2530  lpToken */\n      0x03\n      0x00\n      swap1\n      sload\n      swap1\n      0x0100\n      exp\n      swap1\n      div\n      0xffffffffffffffffffffffffffffffffffffffff\n      and\n        /* \"Pool.sol\":2523:2542  lpToken.totalSupply */\n      0xffffffffffffffffffffffffffffffffffffffff\n      and\n      0x18160ddd\n        /* \"Pool.sol\":2523:2544  lpToken.totalSupply() */\n      mload(0x40)\n      dup2\n      0xffffffff\n      and\n      0xe0\n      shl\n      dup2\n      mstore\n      0x04\n      add\n      0x20\n      mload(0x40)\n      dup1\n      dup4\n      sub\n      dup2\n      dup7\n      gas\n      staticcall\n      iszero\n      dup1\n      iszero\n      tag_177\n      jumpi\n      returndatasize\n      0x00\n      dup1\n      returndatacopy\n      revert(0x00, returndatasize)\n    tag_177:\n      pop\n      pop\n      pop\n      pop\n      mload(0x40)\n      returndatasize\n      not(0x1f)\n      0x1f\n      dup3\n      add\n      and\n      dup3\n      add\n      dup1\n      0x40\n      mstore\n      pop\n      dup2\n      add\n      swap1\n      tag_178\n      swap2\n      swap1\n      tag_127\n      jump\t// in\n    tag_178:\n        /* \"Pool.sol\":2501:2544  uint256 totalSupply = lpToken.totalSupply() */\n      swap1\n      pop\n        /* \"Pool.sol\":2584:2585  0 */\n      0x00\n        /* \"Pool.sol\":2569:2580  totalSupply */\n      dup2\n        /* \"Pool.sol\":2569:2585  totalSupply == 0 */\n      sub\n        /* \"Pool.sol\":2565:3010  if (totalSupply == 0) {... */\n      tag_179\n      jumpi\n        /* \"Pool.sol\":2653:2660  lpToken */\n      0x03\n      0x00\n      swap1\n      sload\n      swap1\n      0x0100\n      exp\n      swap1\n      div\n      0xffffffffffffffffffffffffffffffffffffffff\n      and\n        /* \"Pool.sol\":2653:2671  lpToken.priceInEth */\n      0xffffffffffffffffffffffffffffffffffffffff\n      and\n      0xfdd760ea\n        /* \"Pool.sol\":2653:2673  lpToken.priceInEth() */\n      mload(0x40)\n      dup2\n      0xffffffff\n      and\n      0xe0\n      shl\n      dup2\n      mstore\n      0x04\n      add\n      0x20\n      mload(0x40)\n      dup1\n      dup4\n      sub\n      dup2\n      dup7\n      gas\n      staticcall\n      iszero\n      dup1\n      iszero\n      tag_181\n      jumpi\n      returndatasize\n      0x00\n      dup1\n      returndatacopy\n      revert(0x00, returndatasize)\n    tag_181:\n      pop\n      pop\n      pop\n      pop\n      mload(0x40)\n      returndatasize\n      not(0x1f)\n      0x1f\n      dup3\n      add\n      and\n      dup3\n      add\n      dup1\n      0x40\n      mstore\n      pop\n      dup2\n      add\n      swap1\n      tag_182\n      swap2\n      swap1\n      tag_127\n      jump\t// in\n    tag_182:\n        /* \"Pool.sol\":2613:2650  calculateValueInEth(amount0, amount1) */\n      tag_183\n        /* \"Pool.sol\":2633:2640  amount0 */\n      dup5\n        /* \"Pool.sol\":2642:2649  amount1 */\n      dup5\n        /* \"Pool.sol\":2613:2632  calculateValueInEth */\n      tag_47\n        /* \"Pool.sol\":2613:2650  calculateValueInEth(amount0, amount1) */\n      jump\t// in\n    tag_183:\n        /* \"Pool.sol\":2613:2673  calculateValueInEth(amount0, amount1) / lpToken.priceInEth() */\n      tag_184\n      swap2\n      swap1\n      tag_130\n      jump\t// in\n    tag_184:\n        /* \"Pool.sol\":2602:2673  lpAmount = calculateValueInEth(amount0, amount1) / lpToken.priceInEth() */\n      swap4\n      pop\n        /* \"Pool.sol\":2688:2695  lpToken */\n      0x03\n      0x00\n      swap1\n      sload\n      swap1\n      0x0100\n      exp\n      swap1\n      div\n      0xffffffffffffffffffffffffffffffffffffffff\n      and\n        /* \"Pool.sol\":2688:2700  lpToken.mint */\n      0xffffffffffffffffffffffffffffffffffffffff\n      and\n      0x40c10f19\n        /* \"Pool.sol\":2701:2711  msg.sender */\n      caller\n        /* \"Pool.sol\":2713:2721  lpAmount */\n      dup7\n        /* \"Pool.sol\":2688:2722  lpToken.mint(msg.sender, lpAmount) */\n      mload(0x40)\n      dup4\n      0xffffffff\n      and\n      0xe0\n      shl\n      dup2\n      mstore\n      0x04\n      add\n      tag_185\n      swap3\n      swap2\n      swap1\n      tag_150\n      jump\t// in\n    tag_185:\n      0x00\n      mload(0x40)\n      dup1\n      dup4\n      sub\n      dup2\n      0x00\n      dup8\n      dup1\n      extcodesize\n      iszero\n      dup1\n      iszero\n      tag_186\n      jumpi\n      0x00\n      dup1\n      revert\n    tag_186:\n      pop\n      gas\n      call\n      iszero\n      dup1\n      iszero\n      tag_188\n      jumpi\n      returndatasize\n      0x00\n      dup1\n      returndatacopy\n      revert(0x00, returndatasize)\n    tag_188:\n      pop\n      pop\n      pop\n      pop\n        /* \"Pool.sol\":2565:3010  if (totalSupply == 0) {... */\n      jump(tag_189)\n    tag_179:\n        /* \"Pool.sol\":2755:2772  uint256 lpAmount0 */\n      0x00\n        /* \"Pool.sol\":2801:2809  reserve0 */\n      sload(0x04)\n        /* \"Pool.sol\":2786:2797  totalSupply */\n      dup3\n        /* \"Pool.sol\":2776:2783  amount0 */\n      dup6\n        /* \"Pool.sol\":2776:2797  amount0 * totalSupply */\n      tag_190\n      swap2\n      swap1\n      tag_104\n      jump\t// in\n    tag_190:\n        /* \"Pool.sol\":2775:2809  (amount0 * totalSupply) / reserve0 */\n      tag_191\n      swap2\n      swap1\n      tag_130\n      jump\t// in\n    tag_191:\n        /* \"Pool.sol\":2755:2809  uint256 lpAmount0 = (amount0 * totalSupply) / reserve0 */\n      swap1\n      pop\n        /* \"Pool.sol\":2824:2841  uint256 lpAmount1 */\n      0x00\n        /* \"Pool.sol\":2870:2878  reserve1 */\n      sload(0x05)\n        /* \"Pool.sol\":2855:2866  totalSupply */\n      dup4\n        /* \"Pool.sol\":2845:2852  amount1 */\n      dup6\n        /* \"Pool.sol\":2845:2866  amount1 * totalSupply */\n      tag_192\n      swap2\n      swap1\n      tag_104\n      jump\t// in\n    tag_192:\n        /* \"Pool.sol\":2844:2878  (amount1 * totalSupply) / reserve1 */\n      tag_193\n      swap2\n      swap1\n      tag_130\n      jump\t// in\n    tag_193:\n        /* \"Pool.sol\":2824:2878  uint256 lpAmount1 = (amount1 * totalSupply) / reserve1 */\n      swap1\n      pop\n        /* \"Pool.sol\":2916:2925  lpAmount1 */\n      dup1\n        /* \"Pool.sol\":2904:2913  lpAmount0 */\n      dup3\n        /* \"Pool.sol\":2904:2925  lpAmount0 < lpAmount1 */\n      lt\n        /* \"Pool.sol\":2904:2949  lpAmount0 < lpAmount1 ? lpAmount0 : lpAmount1 */\n      tag_194\n      jumpi\n        /* \"Pool.sol\":2940:2949  lpAmount1 */\n      dup1\n        /* \"Pool.sol\":2904:2949  lpAmount0 < lpAmount1 ? lpAmount0 : lpAmount1 */\n      jump(tag_195)\n    tag_194:\n        /* \"Pool.sol\":2928:2937  lpAmount0 */\n      dup2\n        /* \"Pool.sol\":2904:2949  lpAmount0 < lpAmount1 ? lpAmount0 : lpAmount1 */\n    tag_195:\n        /* \"Pool.sol\":2893:2949  lpAmount = lpAmount0 < lpAmount1 ? lpAmount0 : lpAmount1 */\n      swap6\n      pop\n        /* \"Pool.sol\":2964:2971  lpToken */\n      0x03\n      0x00\n      swap1\n      sload\n      swap1\n      0x0100\n      exp\n      swap1\n      div\n      0xffffffffffffffffffffffffffffffffffffffff\n      and\n        /* \"Pool.sol\":2964:2976  lpToken.mint */\n      0xffffffffffffffffffffffffffffffffffffffff\n      and\n      0x40c10f19\n        /* \"Pool.sol\":2977:2987  msg.sender */\n      caller\n        /* \"Pool.sol\":2989:2997  lpAmount */\n      dup9\n        /* \"Pool.sol\":2964:2998  lpToken.mint(msg.sender, lpAmount) */\n      mload(0x40)\n      dup4\n      0xffffffff\n      and\n      0xe0\n      shl\n      dup2\n      mstore\n      0x04\n      add\n      tag_196\n      swap3\n      swap2\n      swap1\n      tag_150\n      jump\t// in\n    tag_196:\n      0x00\n      mload(0x40)\n      dup1\n      dup4\n      sub\n      dup2\n      0x00\n      dup8\n      dup1\n      extcodesize\n      iszero\n      dup1\n      iszero\n      tag_197\n      jumpi\n      0x00\n      dup1\n      revert\n    tag_197:\n      pop\n      gas\n      call\n      iszero\n      dup1\n      iszero\n      tag_199\n      jumpi\n      returndatasize\n      0x00\n      dup1\n      returndatacopy\n      revert(0x00, returndatasize)\n    tag_199:\n      pop\n      pop\n      pop\n      pop\n        /* \"Pool.sol\":2740:3010  {... */\n      pop\n      pop\n        /* \"Pool.sol\":2565:3010  if (totalSupply == 0) {... */\n    tag_189:\n        /* \"Pool.sol\":3042:3049  amount0 */\n      dup3\n        /* \"Pool.sol\":3030:3038  reserve0 */\n      0x04\n      0x00\n        /* \"Pool.sol\":3030:3049  reserve0 += amount0 */\n      dup3\n      dup3\n      sload\n      tag_200\n      swap2\n      swap1\n      tag_98\n      jump\t// in\n    tag_200:\n      swap3\n      pop\n      pop\n      dup2\n      swap1\n      sstore\n      pop\n        /* \"Pool.sol\":3072:3079  amount1 */\n      dup2\n        /* \"Pool.sol\":3060:3068  reserve1 */\n      0x05\n      0x00\n        /* \"Pool.sol\":3060:3079  reserve1 += amount1 */\n      dup3\n      dup3\n      sload\n      tag_201\n      swap2\n      swap1\n      tag_98\n      jump\t// in\n    tag_201:\n      swap3\n      pop\n      pop\n      dup2\n      swap1\n      sstore\n      pop\n        /* \"Pool.sol\":3110:3120  msg.sender */\n      caller\n        /* \"Pool.sol\":3105:3139  Mint(msg.sender, amount0, amount1) */\n      0xffffffffffffffffffffffffffffffffffffffff\n      and\n      0x4c209b5fc8ad50758f13e2e1088ba56a560dff690a1c6fef26394f4c03821c4f\n        /* \"Pool.sol\":3122:3129  amount0 */\n      dup5\n        /* \"Pool.sol\":3131:3138  amount1 */\n      dup5\n        /* \"Pool.sol\":3105:3139  Mint(msg.sender, amount0, amount1) */\n      mload(0x40)\n      tag_202\n      swap3\n      swap2\n      swap1\n      tag_60\n      jump\t// in\n    tag_202:\n      mload(0x40)\n      dup1\n      swap2\n      sub\n      swap1\n      log2\n        /* \"Pool.sol\":3160:3175  return lpAmount */\n      pop\n      pop\n      pop\n        /* \"Pool.sol\":1532:3183  function addLiquidity(uint256 amount0Desired, uint256 amount1Desired) external returns (uint256 lpAmount) {... */\n      swap3\n      swap2\n      pop\n      pop\n      jump\t// out\n        /* \"Pool.sol\":5326:5632  function quote(uint256 amountA, uint256 reserveA, uint256 reserveB) public pure returns (uint256 amountB) {... */\n    tag_68:\n        /* \"Pool.sol\":5415:5430  uint256 amountB */\n      0x00\n        /* \"Pool.sol\":5461:5462  0 */\n      dup1\n        /* \"Pool.sol\":5451:5458  amountA */\n      dup5\n        /* \"Pool.sol\":5451:5462  amountA > 0 */\n      gt\n        /* \"Pool.sol\":5443:5492  require(amountA > 0, \"Pool: INSUFFICIENT_AMOUNT\") */\n      tag_204\n      jumpi\n      mload(0x40)\n      0x08c379a000000000000000000000000000000000000000000000000000000000\n      dup2\n      mstore\n      0x04\n      add\n      tag_205\n      swap1\n      tag_206\n      jump\t// in\n    tag_205:\n      mload(0x40)\n      dup1\n      swap2\n      sub\n      swap1\n      revert\n    tag_204:\n        /* \"Pool.sol\":5522:5523  0 */\n      0x00\n        /* \"Pool.sol\":5511:5519  reserveA */\n      dup4\n        /* \"Pool.sol\":5511:5523  reserveA > 0 */\n      gt\n        /* \"Pool.sol\":5511:5539  reserveA > 0 && reserveB > 0 */\n      dup1\n      iszero\n      tag_207\n      jumpi\n      pop\n        /* \"Pool.sol\":5538:5539  0 */\n      0x00\n        /* \"Pool.sol\":5527:5535  reserveB */\n      dup3\n        /* \"Pool.sol\":5527:5539  reserveB > 0 */\n      gt\n        /* \"Pool.sol\":5511:5539  reserveA > 0 && reserveB > 0 */\n    tag_207:\n        /* \"Pool.sol\":5503:5572  require(reserveA > 0 && reserveB > 0, \"Pool: INSUFFICIENT_LIQUIDITY\") */\n      tag_208\n      jumpi\n      mload(0x40)\n      0x08c379a000000000000000000000000000000000000000000000000000000000\n      dup2\n      mstore\n      0x04\n      add\n      tag_209\n      swap1\n      tag_91\n      jump\t// in\n    tag_209:\n      mload(0x40)\n      dup1\n      swap2\n      sub\n      swap1\n      revert\n    tag_208:\n        /* \"Pool.sol\":5616:5624  reserveA */\n      dup3\n        /* \"Pool.sol\":5604:5612  reserveB */\n      dup3\n        /* \"Pool.sol\":5594:5601  amountA */\n      dup6\n        /* \"Pool.sol\":5594:5612  amountA * reserveB */\n      tag_210\n      swap2\n      swap1\n      tag_104\n      jump\t// in\n    tag_210:\n        /* \"Pool.sol\":5593:5624  (amountA * reserveB) / reserveA */\n      tag_211\n      swap2\n      swap1\n      tag_130\n      jump\t// in\n    tag_211:\n        /* \"Pool.sol\":5583:5624  amountB = (amountA * reserveB) / reserveA */\n      swap1\n      pop\n        /* \"Pool.sol\":5326:5632  function quote(uint256 amountA, uint256 reserveA, uint256 reserveB) public pure returns (uint256 amountB) {... */\n      swap4\n      swap3\n      pop\n      pop\n      pop\n      jump\t// out\n        /* \"Pool.sol\":476:525  uint256 public constant MINIMUM_LIQUIDITY = 10**3 */\n    tag_71:\n        /* \"Pool.sol\":520:525  10**3 */\n      0x03e8\n        /* \"Pool.sol\":476:525  uint256 public constant MINIMUM_LIQUIDITY = 10**3 */\n      dup2\n      jump\t// out\n        /* \"Pool.sol\":357:376  Token public token1 */\n    tag_74:\n      0x02\n      0x00\n      swap1\n      sload\n      swap1\n      0x0100\n      exp\n      swap1\n      div\n      0xffffffffffffffffffffffffffffffffffffffff\n      and\n      dup2\n      jump\t// out\n        /* \"Pool.sol\":1108:1520  function initialize(uint256 amount0, uint256 amount1) external onlyOwner {... */\n    tag_78:\n        /* \"@openzeppelin/contracts/access/Ownable.sol\":1531:1544  _checkOwner() */\n      tag_213\n        /* \"@openzeppelin/contracts/access/Ownable.sol\":1531:1542  _checkOwner */\n      tag_143\n        /* \"@openzeppelin/contracts/access/Ownable.sol\":1531:1544  _checkOwner() */\n      jump\t// in\n    tag_213:\n        /* \"Pool.sol\":1212:1213  0 */\n      0x00\n        /* \"Pool.sol\":1200:1208  reserve0 */\n      sload(0x04)\n        /* \"Pool.sol\":1200:1213  reserve0 == 0 */\n      eq\n        /* \"Pool.sol\":1200:1230  reserve0 == 0 && reserve1 == 0 */\n      dup1\n      iszero\n      tag_215\n      jumpi\n      pop\n        /* \"Pool.sol\":1229:1230  0 */\n      0x00\n        /* \"Pool.sol\":1217:1225  reserve1 */\n      sload(0x05)\n        /* \"Pool.sol\":1217:1230  reserve1 == 0 */\n      eq\n        /* \"Pool.sol\":1200:1230  reserve0 == 0 && reserve1 == 0 */\n    tag_215:\n        /* \"Pool.sol\":1192:1260  require(reserve0 == 0 && reserve1 == 0, \"Pool: ALREADY_INITIALIZED\") */\n      tag_216\n      jumpi\n      mload(0x40)\n      0x08c379a000000000000000000000000000000000000000000000000000000000\n      dup2\n      mstore\n      0x04\n      add\n      tag_217\n      swap1\n      tag_218\n      jump\t// in\n    tag_217:\n      mload(0x40)\n      dup1\n      swap2\n      sub\n      swap1\n      revert\n    tag_216:\n        /* \"Pool.sol\":1281:1357  IERC20(address(token0)).safeTransferFrom(msg.sender, address(this), amount0) */\n      tag_219\n        /* \"Pool.sol\":1322:1332  msg.sender */\n      caller\n        /* \"Pool.sol\":1342:1346  this */\n      address\n        /* \"Pool.sol\":1349:1356  amount0 */\n      dup5\n        /* \"Pool.sol\":1296:1302  token0 */\n      0x01\n      0x00\n      swap1\n      sload\n      swap1\n      0x0100\n      exp\n      swap1\n      div\n      0xffffffffffffffffffffffffffffffffffffffff\n      and\n        /* \"Pool.sol\":1281:1321  IERC20(address(token0)).safeTransferFrom */\n      0xffffffffffffffffffffffffffffffffffffffff\n      and\n      tag_94\n      swap1\n        /* \"Pool.sol\":1281:1357  IERC20(address(token0)).safeTransferFrom(msg.sender, address(this), amount0) */\n      swap4\n      swap3\n      swap2\n      swap1\n      0xffffffff\n      and\n      jump\t// in\n    tag_219:\n        /* \"Pool.sol\":1368:1444  IERC20(address(token1)).safeTransferFrom(msg.sender, address(this), amount1) */\n      tag_220\n        /* \"Pool.sol\":1409:1419  msg.sender */\n      caller\n        /* \"Pool.sol\":1429:1433  this */\n      address\n        /* \"Pool.sol\":1436:1443  amount1 */\n      dup4\n        /* \"Pool.sol\":1383:1389  token1 */\n      0x02\n      0x00\n      swap1\n      sload\n      swap1\n      0x0100\n      exp\n      swap1\n      div\n      0xffffffffffffffffffffffffffffffffffffffff\n      and\n        /* \"Pool.sol\":1368:1408  IERC20(address(token1)).safeTransferFrom */\n      0xffffffffffffffffffffffffffffffffffffffff\n      and\n      tag_94\n      swap1\n        /* \"Pool.sol\":1368:1444  IERC20(address(token1)).safeTransferFrom(msg.sender, address(this), amount1) */\n      swap4\n      swap3\n      swap2\n      swap1\n      0xffffffff\n      and\n      jump\t// in\n    tag_220:\n        /* \"Pool.sol\":1476:1483  amount0 */\n      dup2\n        /* \"Pool.sol\":1465:1473  reserve0 */\n      0x04\n        /* \"Pool.sol\":1465:1483  reserve0 = amount0 */\n      dup2\n      swap1\n      sstore\n      pop\n        /* \"Pool.sol\":1505:1512  amount1 */\n      dup1\n        /* \"Pool.sol\":1494:1502  reserve1 */\n      0x05\n        /* \"Pool.sol\":1494:1512  reserve1 = amount1 */\n      dup2\n      swap1\n      sstore\n      pop\n        /* \"Pool.sol\":1108:1520  function initialize(uint256 amount0, uint256 amount1) external onlyOwner {... */\n      pop\n      pop\n      jump\t// out\n        /* \"@openzeppelin/contracts/access/Ownable.sol\":2543:2758  function transferOwnership(address newOwner) public virtual onlyOwner {... */\n    tag_82:\n        /* \"@openzeppelin/contracts/access/Ownable.sol\":1531:1544  _checkOwner() */\n      tag_222\n        /* \"@openzeppelin/contracts/access/Ownable.sol\":1531:1542  _checkOwner */\n      tag_143\n        /* \"@openzeppelin/contracts/access/Ownable.sol\":1531:1544  _checkOwner() */\n      jump\t// in\n    tag_222:\n        /* \"@openzeppelin/contracts/access/Ownable.sol\":2647:2648  0 */\n      0x00\n        /* \"@openzeppelin/contracts/access/Ownable.sol\":2627:2649  newOwner == address(0) */\n      0xffffffffffffffffffffffffffffffffffffffff\n      and\n        /* \"@openzeppelin/contracts/access/Ownable.sol\":2627:2635  newOwner */\n      dup2\n        /* \"@openzeppelin/contracts/access/Ownable.sol\":2627:2649  newOwner == address(0) */\n      0xffffffffffffffffffffffffffffffffffffffff\n      and\n      sub\n        /* \"@openzeppelin/contracts/access/Ownable.sol\":2623:2714  if (newOwner == address(0)) {... */\n      tag_224\n      jumpi\n        /* \"@openzeppelin/contracts/access/Ownable.sol\":2700:2701  0 */\n      0x00\n        /* \"@openzeppelin/contracts/access/Ownable.sol\":2672:2703  OwnableInvalidOwner(address(0)) */\n      mload(0x40)\n      0x1e4fbdf700000000000000000000000000000000000000000000000000000000\n      dup2\n      mstore\n      0x04\n      add\n      tag_225\n      swap2\n      swap1\n      tag_54\n      jump\t// in\n    tag_225:\n      mload(0x40)\n      dup1\n      swap2\n      sub\n      swap1\n      revert\n        /* \"@openzeppelin/contracts/access/Ownable.sol\":2623:2714  if (newOwner == address(0)) {... */\n    tag_224:\n        /* \"@openzeppelin/contracts/access/Ownable.sol\":2723:2751  _transferOwnership(newOwner) */\n      tag_226\n        /* \"@openzeppelin/contracts/access/Ownable.sol\":2742:2750  newOwner */\n      dup2\n        /* \"@openzeppelin/contracts/access/Ownable.sol\":2723:2741  _transferOwnership */\n      tag_146\n        /* \"@openzeppelin/contracts/access/Ownable.sol\":2723:2751  _transferOwnership(newOwner) */\n      jump\t// in\n    tag_226:\n        /* \"@openzeppelin/contracts/access/Ownable.sol\":2543:2758  function transferOwnership(address newOwner) public virtual onlyOwner {... */\n      pop\n      jump\t// out\n        /* \"@openzeppelin/contracts/token/ERC20/utils/SafeERC20.sol\":1618:1806  function safeTransferFrom(IERC20 token, address from, address to, uint256 value) internal {... */\n    tag_94:\n        /* \"@openzeppelin/contracts/token/ERC20/utils/SafeERC20.sol\":1718:1799  _callOptionalReturn(token, abi.encodeCall(token.transferFrom, (from, to, value))) */\n      tag_228\n        /* \"@openzeppelin/contracts/token/ERC20/utils/SafeERC20.sol\":1738:1743  token */\n      dup5\n        /* \"@openzeppelin/contracts/token/ERC20/utils/SafeERC20.sol\":1760:1765  token */\n      dup6\n        /* \"@openzeppelin/contracts/token/ERC20/utils/SafeERC20.sol\":1760:1778  token.transferFrom */\n      0xffffffffffffffffffffffffffffffffffffffff\n      and\n      0x23b872dd\n        /* \"@openzeppelin/contracts/token/ERC20/utils/SafeERC20.sol\":1781:1785  from */\n      dup7\n        /* \"@openzeppelin/contracts/token/ERC20/utils/SafeERC20.sol\":1787:1789  to */\n      dup7\n        /* \"@openzeppelin/contracts/token/ERC20/utils/SafeERC20.sol\":1791:1796  value */\n      dup7\n        /* \"@openzeppelin/contracts/token/ERC20/utils/SafeERC20.sol\":1745:1798  abi.encodeCall(token.transferFrom, (from, to, value)) */\n      add(0x24, mload(0x40))\n      tag_229\n      swap4\n      swap3\n      swap2\n      swap1\n      tag_230\n      jump\t// in\n    tag_229:\n      mload(0x40)\n      0x20\n      dup2\n      dup4\n      sub\n      sub\n      dup2\n      mstore\n      swap1\n      0x40\n      mstore\n      swap2\n      pop\n      0xe0\n      shl\n      0x20\n      dup3\n      add\n      dup1\n      mload\n      0xffffffffffffffffffffffffffffffffffffffffffffffffffffffff\n      dup4\n      dup2\n      dup4\n      and\n      or\n      dup4\n      mstore\n      pop\n      pop\n      pop\n      pop\n        /* \"@openzeppelin/contracts/token/ERC20/utils/SafeERC20.sol\":1718:1737  _callOptionalReturn */\n      tag_231\n        /* \"@openzeppelin/contracts/token/ERC20/utils/SafeERC20.sol\":1718:1799  _callOptionalReturn(token, abi.encodeCall(token.transferFrom, (from, to, value))) */\n      jump\t// in\n    tag_228:\n        /* \"@openzeppelin/contracts/token/ERC20/utils/SafeERC20.sol\":1618:1806  function safeTransferFrom(IERC20 token, address from, address to, uint256 value) internal {... */\n      pop\n      pop\n      pop\n      pop\n      jump\t// out\n        /* \"@openzeppelin/contracts/token/ERC20/utils/SafeERC20.sol\":1219:1379  function safeTransfer(IERC20 token, address to, uint256 value) internal {... */\n    tag_111:\n        /* \"@openzeppelin/contracts/token/ERC20/utils/SafeERC20.sol\":1301:1372  _callOptionalReturn(token, abi.encodeCall(token.transfer, (to, value))) */\n      tag_233\n        /* \"@openzeppelin/contracts/token/ERC20/utils/SafeERC20.sol\":1321:1326  token */\n      dup4\n        /* \"@openzeppelin/contracts/token/ERC20/utils/SafeERC20.sol\":1343:1348  token */\n      dup5\n        /* \"@openzeppelin/contracts/token/ERC20/utils/SafeERC20.sol\":1343:1357  token.transfer */\n      0xffffffffffffffffffffffffffffffffffffffff\n      and\n      0xa9059cbb\n        /* \"@openzeppelin/contracts/token/ERC20/utils/SafeERC20.sol\":1360:1362  to */\n      dup6\n        /* \"@openzeppelin/contracts/token/ERC20/utils/SafeERC20.sol\":1364:1369  value */\n      dup6\n        /* \"@openzeppelin/contracts/token/ERC20/utils/SafeERC20.sol\":1328:1371  abi.encodeCall(token.transfer, (to, value)) */\n      add(0x24, mload(0x40))\n      tag_234\n      swap3\n      swap2\n      swap1\n      tag_150\n      jump\t// in\n    tag_234:\n      mload(0x40)\n      0x20\n      dup2\n      dup4\n      sub\n      sub\n      dup2\n      mstore\n      swap1\n      0x40\n      mstore\n      swap2\n      pop\n      0xe0\n      shl\n      0x20\n      dup3\n      add\n      dup1\n      mload\n      0xffffffffffffffffffffffffffffffffffffffffffffffffffffffff\n      dup4\n      dup2\n      dup4\n      and\n      or\n      dup4\n      mstore\n      pop\n      pop\n      pop\n      pop\n        /* \"@openzeppelin/contracts/token/ERC20/utils/SafeERC20.sol\":1301:1320  _callOptionalReturn */\n      tag_231\n        /* \"@openzeppelin/contracts/token/ERC20/utils/SafeERC20.sol\":1301:1372  _callOptionalReturn(token, abi.encodeCall(token.transfer, (to, value))) */\n      jump\t// in\n    tag_233:\n        /* \"@openzeppelin/contracts/token/ERC20/utils/SafeERC20.sol\":1219:1379  function safeTransfer(IERC20 token, address to, uint256 value) internal {... */\n      pop\n      pop\n      pop\n      jump\t// out\n        /* \"@openzeppelin/contracts/access/Ownable.sol\":1796:1958  function _checkOwner() internal view virtual {... */\n    tag_143:\n        /* \"@openzeppelin/contracts/access/Ownable.sol\":1866:1878  _msgSender() */\n      tag_236\n        /* \"@openzeppelin/contracts/access/Ownable.sol\":1866:1876  _msgSender */\n      tag_237\n        /* \"@openzeppelin/contracts/access/Ownable.sol\":1866:1878  _msgSender() */\n      jump\t// in\n    tag_236:\n        /* \"@openzeppelin/contracts/access/Ownable.sol\":1855:1878  owner() != _msgSender() */\n      0xffffffffffffffffffffffffffffffffffffffff\n      and\n        /* \"@openzeppelin/contracts/access/Ownable.sol\":1855:1862  owner() */\n      tag_238\n        /* \"@openzeppelin/contracts/access/Ownable.sol\":1855:1860  owner */\n      tag_52\n        /* \"@openzeppelin/contracts/access/Ownable.sol\":1855:1862  owner() */\n      jump\t// in\n    tag_238:\n        /* \"@openzeppelin/contracts/access/Ownable.sol\":1855:1878  owner() != _msgSender() */\n      0xffffffffffffffffffffffffffffffffffffffff\n      and\n      eq\n        /* \"@openzeppelin/contracts/access/Ownable.sol\":1851:1952  if (owner() != _msgSender()) {... */\n      tag_239\n      jumpi\n        /* \"@openzeppelin/contracts/access/Ownable.sol\":1928:1940  _msgSender() */\n      tag_240\n        /* \"@openzeppelin/contracts/access/Ownable.sol\":1928:1938  _msgSender */\n      tag_237\n        /* \"@openzeppelin/contracts/access/Ownable.sol\":1928:1940  _msgSender() */\n      jump\t// in\n    tag_240:\n        /* \"@openzeppelin/contracts/access/Ownable.sol\":1901:1941  OwnableUnauthorizedAccount(_msgSender()) */\n      mload(0x40)\n      0x118cdaa700000000000000000000000000000000000000000000000000000000\n      dup2\n      mstore\n      0x04\n      add\n      tag_241\n      swap2\n      swap1\n      tag_54\n      jump\t// in\n    tag_241:\n      mload(0x40)\n      dup1\n      swap2\n      sub\n      swap1\n      revert\n        /* \"@openzeppelin/contracts/access/Ownable.sol\":1851:1952  if (owner() != _msgSender()) {... */\n    tag_239:\n        /* \"@openzeppelin/contracts/access/Ownable.sol\":1796:1958  function _checkOwner() internal view virtual {... */\n      jump\t// out\n        /* \"@openzeppelin/contracts/access/Ownable.sol\":2912:3099  function _transferOwnership(address newOwner) internal virtual {... */\n    tag_146:\n        /* \"@openzeppelin/contracts/access/Ownable.sol\":2985:3001  address oldOwner */\n      0x00\n        /* \"@openzeppelin/contracts/access/Ownable.sol\":3004:3010  _owner */\n      dup1\n      0x00\n      swap1\n      sload\n      swap1\n      0x0100\n      exp\n      swap1\n      div\n      0xffffffffffffffffffffffffffffffffffffffff\n      and\n        /* \"@openzeppelin/contracts/access/Ownable.sol\":2985:3010  address oldOwner = _owner */\n      swap1\n      pop\n        /* \"@openzeppelin/contracts/access/Ownable.sol\":3029:3037  newOwner */\n      dup2\n        /* \"@openzeppelin/contracts/access/Ownable.sol\":3020:3026  _owner */\n      0x00\n      dup1\n        /* \"@openzeppelin/contracts/access/Ownable.sol\":3020:3037  _owner = newOwner */\n      0x0100\n      exp\n      dup2\n      sload\n      dup2\n      0xffffffffffffffffffffffffffffffffffffffff\n      mul\n      not\n      and\n      swap1\n      dup4\n      0xffffffffffffffffffffffffffffffffffffffff\n      and\n      mul\n      or\n      swap1\n      sstore\n      pop\n        /* \"@openzeppelin/contracts/access/Ownable.sol\":3083:3091  newOwner */\n      dup2\n        /* \"@openzeppelin/contracts/access/Ownable.sol\":3052:3092  OwnershipTransferred(oldOwner, newOwner) */\n      0xffffffffffffffffffffffffffffffffffffffff\n      and\n        /* \"@openzeppelin/contracts/access/Ownable.sol\":3073:3081  oldOwner */\n      dup2\n        /* \"@openzeppelin/contracts/access/Ownable.sol\":3052:3092  OwnershipTransferred(oldOwner, newOwner) */\n      0xffffffffffffffffffffffffffffffffffffffff\n      and\n      0x8be0079c531659141344cd1fd0a4f28419497f9722a3daafe3b4186f6b6457e0\n      mload(0x40)\n      mload(0x40)\n      dup1\n      swap2\n      sub\n      swap1\n      log3\n        /* \"@openzeppelin/contracts/access/Ownable.sol\":2975:3099  {... */\n      pop\n        /* \"@openzeppelin/contracts/access/Ownable.sol\":2912:3099  function _transferOwnership(address newOwner) internal virtual {... */\n      pop\n      jump\t// out\n        /* \"@openzeppelin/contracts/token/ERC20/utils/SafeERC20.sol\":7686:8406  function _callOptionalReturn(IERC20 token, bytes memory data) private {... */\n    tag_231:\n        /* \"@openzeppelin/contracts/token/ERC20/utils/SafeERC20.sol\":7766:7784  uint256 returnSize */\n      0x00\n        /* \"@openzeppelin/contracts/token/ERC20/utils/SafeERC20.sol\":7794:7813  uint256 returnValue */\n      dup1\n        /* \"@openzeppelin/contracts/token/ERC20/utils/SafeERC20.sol\":7932:7936  0x20 */\n      0x20\n        /* \"@openzeppelin/contracts/token/ERC20/utils/SafeERC20.sol\":7929:7930  0 */\n      0x00\n        /* \"@openzeppelin/contracts/token/ERC20/utils/SafeERC20.sol\":7922:7926  data */\n      dup5\n        /* \"@openzeppelin/contracts/token/ERC20/utils/SafeERC20.sol\":7916:7927  mload(data) */\n      mload\n        /* \"@openzeppelin/contracts/token/ERC20/utils/SafeERC20.sol\":7909:7913  0x20 */\n      0x20\n        /* \"@openzeppelin/contracts/token/ERC20/utils/SafeERC20.sol\":7903:7907  data */\n      dup7\n        /* \"@openzeppelin/contracts/token/ERC20/utils/SafeERC20.sol\":7899:7914  add(data, 0x20) */\n      add\n        /* \"@openzeppelin/contracts/token/ERC20/utils/SafeERC20.sol\":7896:7897  0 */\n      0x00\n        /* \"@openzeppelin/contracts/token/ERC20/utils/SafeERC20.sol\":7889:7894  token */\n      dup9\n        /* \"@openzeppelin/contracts/token/ERC20/utils/SafeERC20.sol\":7882:7887  gas() */\n      gas\n        /* \"@openzeppelin/contracts/token/ERC20/utils/SafeERC20.sol\":7877:7937  call(gas(), token, 0, add(data, 0x20), mload(data), 0, 0x20) */\n      call\n        /* \"@openzeppelin/contracts/token/ERC20/utils/SafeERC20.sol\":7989:7996  success */\n      dup1\n        /* \"@openzeppelin/contracts/token/ERC20/utils/SafeERC20.sol\":7979:8155  if iszero(success) {... */\n      tag_244\n      jumpi\n        /* \"@openzeppelin/contracts/token/ERC20/utils/SafeERC20.sol\":8033:8037  0x40 */\n      0x40\n        /* \"@openzeppelin/contracts/token/ERC20/utils/SafeERC20.sol\":8027:8038  mload(0x40) */\n      mload\n        /* \"@openzeppelin/contracts/token/ERC20/utils/SafeERC20.sol\":8078:8094  returndatasize() */\n      returndatasize\n        /* \"@openzeppelin/contracts/token/ERC20/utils/SafeERC20.sol\":8075:8076  0 */\n      0x00\n        /* \"@openzeppelin/contracts/token/ERC20/utils/SafeERC20.sol\":8070:8073  ptr */\n      dup3\n        /* \"@openzeppelin/contracts/token/ERC20/utils/SafeERC20.sol\":8055:8095  returndatacopy(ptr, 0, returndatasize()) */\n      returndatacopy\n        /* \"@openzeppelin/contracts/token/ERC20/utils/SafeERC20.sol\":8124:8140  returndatasize() */\n      returndatasize\n        /* \"@openzeppelin/contracts/token/ERC20/utils/SafeERC20.sol\":8119:8122  ptr */\n      dup2\n        /* \"@openzeppelin/contracts/token/ERC20/utils/SafeERC20.sol\":8112:8141  revert(ptr, returndatasize()) */\n      revert\n        /* \"@openzeppelin/contracts/token/ERC20/utils/SafeERC20.sol\":7979:8155  if iszero(success) {... */\n    tag_244:\n        /* \"@openzeppelin/contracts/token/ERC20/utils/SafeERC20.sol\":8182:8198  returndatasize() */\n      returndatasize\n        /* \"@openzeppelin/contracts/token/ERC20/utils/SafeERC20.sol\":8168:8198  returnSize := returndatasize() */\n      swap3\n      pop\n        /* \"@openzeppelin/contracts/token/ERC20/utils/SafeERC20.sol\":8232:8233  0 */\n      0x00\n        /* \"@openzeppelin/contracts/token/ERC20/utils/SafeERC20.sol\":8226:8234  mload(0) */\n      mload\n        /* \"@openzeppelin/contracts/token/ERC20/utils/SafeERC20.sol\":8211:8234  returnValue := mload(0) */\n      swap2\n      pop\n        /* \"@openzeppelin/contracts/token/ERC20/utils/SafeERC20.sol\":7848:8244  {... */\n      pop\n        /* \"@openzeppelin/contracts/token/ERC20/utils/SafeERC20.sol\":8272:8273  0 */\n      0x00\n        /* \"@openzeppelin/contracts/token/ERC20/utils/SafeERC20.sol\":8258:8268  returnSize */\n      dup3\n        /* \"@openzeppelin/contracts/token/ERC20/utils/SafeERC20.sol\":8258:8273  returnSize == 0 */\n      eq\n        /* \"@openzeppelin/contracts/token/ERC20/utils/SafeERC20.sol\":8258:8326  returnSize == 0 ? address(token).code.length == 0 : returnValue != 1 */\n      tag_245\n      jumpi\n        /* \"@openzeppelin/contracts/token/ERC20/utils/SafeERC20.sol\":8325:8326  1 */\n      0x01\n        /* \"@openzeppelin/contracts/token/ERC20/utils/SafeERC20.sol\":8310:8321  returnValue */\n      dup2\n        /* \"@openzeppelin/contracts/token/ERC20/utils/SafeERC20.sol\":8310:8326  returnValue != 1 */\n      eq\n      iszero\n        /* \"@openzeppelin/contracts/token/ERC20/utils/SafeERC20.sol\":8258:8326  returnSize == 0 ? address(token).code.length == 0 : returnValue != 1 */\n      jump(tag_246)\n    tag_245:\n        /* \"@openzeppelin/contracts/token/ERC20/utils/SafeERC20.sol\":8306:8307  0 */\n      0x00\n        /* \"@openzeppelin/contracts/token/ERC20/utils/SafeERC20.sol\":8284:8289  token */\n      dup5\n        /* \"@openzeppelin/contracts/token/ERC20/utils/SafeERC20.sol\":8276:8302  address(token).code.length */\n      0xffffffffffffffffffffffffffffffffffffffff\n      and\n      extcodesize\n        /* \"@openzeppelin/contracts/token/ERC20/utils/SafeERC20.sol\":8276:8307  address(token).code.length == 0 */\n      eq\n        /* \"@openzeppelin/contracts/token/ERC20/utils/SafeERC20.sol\":8258:8326  returnSize == 0 ? address(token).code.length == 0 : returnValue != 1 */\n    tag_246:\n        /* \"@openzeppelin/contracts/token/ERC20/utils/SafeERC20.sol\":8254:8400  if (returnSize == 0 ? address(token).code.length == 0 : returnValue != 1) {... */\n      iszero\n      tag_247\n      jumpi\n        /* \"@openzeppelin/contracts/token/ERC20/utils/SafeERC20.sol\":8382:8387  token */\n      dup4\n        /* \"@openzeppelin/contracts/token/ERC20/utils/SafeERC20.sol\":8349:8389  SafeERC20FailedOperation(address(token)) */\n      mload(0x40)\n      0x5274afe700000000000000000000000000000000000000000000000000000000\n      dup2\n      mstore\n      0x04\n      add\n      tag_248\n      swap2\n      swap1\n      tag_54\n      jump\t// in\n    tag_248:\n      mload(0x40)\n      dup1\n      swap2\n      sub\n      swap1\n      revert\n        /* \"@openzeppelin/contracts/token/ERC20/utils/SafeERC20.sol\":8254:8400  if (returnSize == 0 ? address(token).code.length == 0 : returnValue != 1) {... */\n    tag_247:\n        /* \"@openzeppelin/contracts/token/ERC20/utils/SafeERC20.sol\":7756:8406  {... */\n      pop\n      pop\n        /* \"@openzeppelin/contracts/token/ERC20/utils/SafeERC20.sol\":7686:8406  function _callOptionalReturn(IERC20 token, bytes memory data) private {... */\n      pop\n      pop\n      jump\t// out\n        /* \"@openzeppelin/contracts/utils/Context.sol\":656:752  function _msgSender() internal view virtual returns (address) {... */\n    tag_237:\n        /* \"@openzeppelin/contracts/utils/Context.sol\":709:716  address */\n      0x00\n        /* \"@openzeppelin/contracts/utils/Context.sol\":735:745  msg.sender */\n      caller\n        /* \"@openzeppelin/contracts/utils/Context.sol\":728:745  return msg.sender */\n      swap1\n      pop\n        /* \"@openzeppelin/contracts/utils/Context.sol\":656:752  function _msgSender() internal view virtual returns (address) {... */\n      swap1\n      jump\t// out\n        /* \"#utility.yul\":7:133   */\n    tag_250:\n        /* \"#utility.yul\":44:51   */\n      0x00\n        /* \"#utility.yul\":84:126   */\n      0xffffffffffffffffffffffffffffffffffffffff\n        /* \"#utility.yul\":77:82   */\n      dup3\n        /* \"#utility.yul\":73:127   */\n      and\n        /* \"#utility.yul\":62:127   */\n      swap1\n      pop\n        /* \"#utility.yul\":7:133   */\n      swap2\n      swap1\n      pop\n      jump\t// out\n        /* \"#utility.yul\":139:199   */\n    tag_251:\n        /* \"#utility.yul\":167:170   */\n      0x00\n        /* \"#utility.yul\":188:193   */\n      dup2\n        /* \"#utility.yul\":181:193   */\n      swap1\n      pop\n        /* \"#utility.yul\":139:199   */\n      swap2\n      swap1\n      pop\n      jump\t// out\n        /* \"#utility.yul\":205:347   */\n    tag_252:\n        /* \"#utility.yul\":255:264   */\n      0x00\n        /* \"#utility.yul\":288:341   */\n      tag_291\n        /* \"#utility.yul\":306:340   */\n      tag_292\n        /* \"#utility.yul\":315:339   */\n      tag_293\n        /* \"#utility.yul\":333:338   */\n      dup5\n        /* \"#utility.yul\":315:339   */\n      tag_250\n      jump\t// in\n    tag_293:\n        /* \"#utility.yul\":306:340   */\n      tag_251\n      jump\t// in\n    tag_292:\n        /* \"#utility.yul\":288:341   */\n      tag_250\n      jump\t// in\n    tag_291:\n        /* \"#utility.yul\":275:341   */\n      swap1\n      pop\n        /* \"#utility.yul\":205:347   */\n      swap2\n      swap1\n      pop\n      jump\t// out\n        /* \"#utility.yul\":353:479   */\n    tag_253:\n        /* \"#utility.yul\":403:412   */\n      0x00\n        /* \"#utility.yul\":436:473   */\n      tag_295\n        /* \"#utility.yul\":467:472   */\n      dup3\n        /* \"#utility.yul\":436:473   */\n      tag_252\n      jump\t// in\n    tag_295:\n        /* \"#utility.yul\":423:473   */\n      swap1\n      pop\n        /* \"#utility.yul\":353:479   */\n      swap2\n      swap1\n      pop\n      jump\t// out\n        /* \"#utility.yul\":485:625   */\n    tag_254:\n        /* \"#utility.yul\":549:558   */\n      0x00\n        /* \"#utility.yul\":582:619   */\n      tag_297\n        /* \"#utility.yul\":613:618   */\n      dup3\n        /* \"#utility.yul\":582:619   */\n      tag_253\n      jump\t// in\n    tag_297:\n        /* \"#utility.yul\":569:619   */\n      swap1\n      pop\n        /* \"#utility.yul\":485:625   */\n      swap2\n      swap1\n      pop\n      jump\t// out\n        /* \"#utility.yul\":631:790   */\n    tag_255:\n        /* \"#utility.yul\":732:783   */\n      tag_299\n        /* \"#utility.yul\":777:782   */\n      dup2\n        /* \"#utility.yul\":732:783   */\n      tag_254\n      jump\t// in\n    tag_299:\n        /* \"#utility.yul\":727:730   */\n      dup3\n        /* \"#utility.yul\":720:784   */\n      mstore\n        /* \"#utility.yul\":631:790   */\n      pop\n      pop\n      jump\t// out\n        /* \"#utility.yul\":796:1046   */\n    tag_25:\n        /* \"#utility.yul\":903:907   */\n      0x00\n        /* \"#utility.yul\":941:943   */\n      0x20\n        /* \"#utility.yul\":930:939   */\n      dup3\n        /* \"#utility.yul\":926:944   */\n      add\n        /* \"#utility.yul\":918:944   */\n      swap1\n      pop\n        /* \"#utility.yul\":954:1039   */\n      tag_301\n        /* \"#utility.yul\":1036:1037   */\n      0x00\n        /* \"#utility.yul\":1025:1034   */\n      dup4\n        /* \"#utility.yul\":1021:1038   */\n      add\n        /* \"#utility.yul\":1012:1018   */\n      dup5\n        /* \"#utility.yul\":954:1039   */\n      tag_255\n      jump\t// in\n    tag_301:\n        /* \"#utility.yul\":796:1046   */\n      swap3\n      swap2\n      pop\n      pop\n      jump\t// out\n        /* \"#utility.yul\":1052:1129   */\n    tag_256:\n        /* \"#utility.yul\":1089:1096   */\n      0x00\n        /* \"#utility.yul\":1118:1123   */\n      dup2\n        /* \"#utility.yul\":1107:1123   */\n      swap1\n      pop\n        /* \"#utility.yul\":1052:1129   */\n      swap2\n      swap1\n      pop\n      jump\t// out\n        /* \"#utility.yul\":1135:1253   */\n    tag_257:\n        /* \"#utility.yul\":1222:1246   */\n      tag_304\n        /* \"#utility.yul\":1240:1245   */\n      dup2\n        /* \"#utility.yul\":1222:1246   */\n      tag_256\n      jump\t// in\n    tag_304:\n        /* \"#utility.yul\":1217:1220   */\n      dup3\n        /* \"#utility.yul\":1210:1247   */\n      mstore\n        /* \"#utility.yul\":1135:1253   */\n      pop\n      pop\n      jump\t// out\n        /* \"#utility.yul\":1259:1481   */\n    tag_29:\n        /* \"#utility.yul\":1352:1356   */\n      0x00\n        /* \"#utility.yul\":1390:1392   */\n      0x20\n        /* \"#utility.yul\":1379:1388   */\n      dup3\n        /* \"#utility.yul\":1375:1393   */\n      add\n        /* \"#utility.yul\":1367:1393   */\n      swap1\n      pop\n        /* \"#utility.yul\":1403:1474   */\n      tag_306\n        /* \"#utility.yul\":1471:1472   */\n      0x00\n        /* \"#utility.yul\":1460:1469   */\n      dup4\n        /* \"#utility.yul\":1456:1473   */\n      add\n        /* \"#utility.yul\":1447:1453   */\n      dup5\n        /* \"#utility.yul\":1403:1474   */\n      tag_257\n      jump\t// in\n    tag_306:\n        /* \"#utility.yul\":1259:1481   */\n      swap3\n      swap2\n      pop\n      pop\n      jump\t// out\n        /* \"#utility.yul\":1568:1685   */\n    tag_259:\n        /* \"#utility.yul\":1677:1678   */\n      0x00\n        /* \"#utility.yul\":1674:1675   */\n      dup1\n        /* \"#utility.yul\":1667:1679   */\n      revert\n        /* \"#utility.yul\":1814:1936   */\n    tag_261:\n        /* \"#utility.yul\":1887:1911   */\n      tag_311\n        /* \"#utility.yul\":1905:1910   */\n      dup2\n        /* \"#utility.yul\":1887:1911   */\n      tag_256\n      jump\t// in\n    tag_311:\n        /* \"#utility.yul\":1880:1885   */\n      dup2\n        /* \"#utility.yul\":1877:1912   */\n      eq\n        /* \"#utility.yul\":1867:1930   */\n      tag_312\n      jumpi\n        /* \"#utility.yul\":1926:1927   */\n      0x00\n        /* \"#utility.yul\":1923:1924   */\n      dup1\n        /* \"#utility.yul\":1916:1928   */\n      revert\n        /* \"#utility.yul\":1867:1930   */\n    tag_312:\n        /* \"#utility.yul\":1814:1936   */\n      pop\n      jump\t// out\n        /* \"#utility.yul\":1942:2081   */\n    tag_262:\n        /* \"#utility.yul\":1988:1993   */\n      0x00\n        /* \"#utility.yul\":2026:2032   */\n      dup2\n        /* \"#utility.yul\":2013:2033   */\n      calldataload\n        /* \"#utility.yul\":2004:2033   */\n      swap1\n      pop\n        /* \"#utility.yul\":2042:2075   */\n      tag_314\n        /* \"#utility.yul\":2069:2074   */\n      dup2\n        /* \"#utility.yul\":2042:2075   */\n      tag_261\n      jump\t// in\n    tag_314:\n        /* \"#utility.yul\":1942:2081   */\n      swap3\n      swap2\n      pop\n      pop\n      jump\t// out\n        /* \"#utility.yul\":2087:2183   */\n    tag_263:\n        /* \"#utility.yul\":2124:2131   */\n      0x00\n        /* \"#utility.yul\":2153:2177   */\n      tag_316\n        /* \"#utility.yul\":2171:2176   */\n      dup3\n        /* \"#utility.yul\":2153:2177   */\n      tag_250\n      jump\t// in\n    tag_316:\n        /* \"#utility.yul\":2142:2177   */\n      swap1\n      pop\n        /* \"#utility.yul\":2087:2183   */\n      swap2\n      swap1\n      pop\n      jump\t// out\n        /* \"#utility.yul\":2189:2311   */\n    tag_264:\n        /* \"#utility.yul\":2262:2286   */\n      tag_318\n        /* \"#utility.yul\":2280:2285   */\n      dup2\n        /* \"#utility.yul\":2262:2286   */\n      tag_263\n      jump\t// in\n    tag_318:\n        /* \"#utility.yul\":2255:2260   */\n      dup2\n        /* \"#utility.yul\":2252:2287   */\n      eq\n        /* \"#utility.yul\":2242:2305   */\n      tag_319\n      jumpi\n        /* \"#utility.yul\":2301:2302   */\n      0x00\n        /* \"#utility.yul\":2298:2299   */\n      dup1\n        /* \"#utility.yul\":2291:2303   */\n      revert\n        /* \"#utility.yul\":2242:2305   */\n    tag_319:\n        /* \"#utility.yul\":2189:2311   */\n      pop\n      jump\t// out\n        /* \"#utility.yul\":2317:2456   */\n    tag_265:\n        /* \"#utility.yul\":2363:2368   */\n      0x00\n        /* \"#utility.yul\":2401:2407   */\n      dup2\n        /* \"#utility.yul\":2388:2408   */\n      calldataload\n        /* \"#utility.yul\":2379:2408   */\n      swap1\n      pop\n        /* \"#utility.yul\":2417:2450   */\n      tag_321\n        /* \"#utility.yul\":2444:2449   */\n      dup2\n        /* \"#utility.yul\":2417:2450   */\n      tag_264\n      jump\t// in\n    tag_321:\n        /* \"#utility.yul\":2317:2456   */\n      swap3\n      swap2\n      pop\n      pop\n      jump\t// out\n        /* \"#utility.yul\":2462:3373   */\n    tag_32:\n        /* \"#utility.yul\":2557:2563   */\n      0x00\n        /* \"#utility.yul\":2565:2571   */\n      dup1\n        /* \"#utility.yul\":2573:2579   */\n      0x00\n        /* \"#utility.yul\":2581:2587   */\n      dup1\n        /* \"#utility.yul\":2589:2595   */\n      0x00\n        /* \"#utility.yul\":2638:2641   */\n      0xa0\n        /* \"#utility.yul\":2626:2635   */\n      dup7\n        /* \"#utility.yul\":2617:2624   */\n      dup9\n        /* \"#utility.yul\":2613:2636   */\n      sub\n        /* \"#utility.yul\":2609:2642   */\n      slt\n        /* \"#utility.yul\":2606:2726   */\n      iszero\n      tag_323\n      jumpi\n        /* \"#utility.yul\":2645:2724   */\n      tag_324\n      tag_259\n      jump\t// in\n    tag_324:\n        /* \"#utility.yul\":2606:2726   */\n    tag_323:\n        /* \"#utility.yul\":2765:2766   */\n      0x00\n        /* \"#utility.yul\":2790:2843   */\n      tag_325\n        /* \"#utility.yul\":2835:2842   */\n      dup9\n        /* \"#utility.yul\":2826:2832   */\n      dup3\n        /* \"#utility.yul\":2815:2824   */\n      dup10\n        /* \"#utility.yul\":2811:2833   */\n      add\n        /* \"#utility.yul\":2790:2843   */\n      tag_262\n      jump\t// in\n    tag_325:\n        /* \"#utility.yul\":2780:2843   */\n      swap6\n      pop\n        /* \"#utility.yul\":2736:2853   */\n      pop\n        /* \"#utility.yul\":2892:2894   */\n      0x20\n        /* \"#utility.yul\":2918:2971   */\n      tag_326\n        /* \"#utility.yul\":2963:2970   */\n      dup9\n        /* \"#utility.yul\":2954:2960   */\n      dup3\n        /* \"#utility.yul\":2943:2952   */\n      dup10\n        /* \"#utility.yul\":2939:2961   */\n      add\n        /* \"#utility.yul\":2918:2971   */\n      tag_262\n      jump\t// in\n    tag_326:\n        /* \"#utility.yul\":2908:2971   */\n      swap5\n      pop\n        /* \"#utility.yul\":2863:2981   */\n      pop\n        /* \"#utility.yul\":3020:3022   */\n      0x40\n        /* \"#utility.yul\":3046:3099   */\n      tag_327\n        /* \"#utility.yul\":3091:3098   */\n      dup9\n        /* \"#utility.yul\":3082:3088   */\n      dup3\n        /* \"#utility.yul\":3071:3080   */\n      dup10\n        /* \"#utility.yul\":3067:3089   */\n      add\n        /* \"#utility.yul\":3046:3099   */\n      tag_262\n      jump\t// in\n    tag_327:\n        /* \"#utility.yul\":3036:3099   */\n      swap4\n      pop\n        /* \"#utility.yul\":2991:3109   */\n      pop\n        /* \"#utility.yul\":3148:3150   */\n      0x60\n        /* \"#utility.yul\":3174:3227   */\n      tag_328\n        /* \"#utility.yul\":3219:3226   */\n      dup9\n        /* \"#utility.yul\":3210:3216   */\n      dup3\n        /* \"#utility.yul\":3199:3208   */\n      dup10\n        /* \"#utility.yul\":3195:3217   */\n      add\n        /* \"#utility.yul\":3174:3227   */\n      tag_262\n      jump\t// in\n    tag_328:\n        /* \"#utility.yul\":3164:3227   */\n      swap3\n      pop\n        /* \"#utility.yul\":3119:3237   */\n      pop\n        /* \"#utility.yul\":3276:3279   */\n      0x80\n        /* \"#utility.yul\":3303:3356   */\n      tag_329\n        /* \"#utility.yul\":3348:3355   */\n      dup9\n        /* \"#utility.yul\":3339:3345   */\n      dup3\n        /* \"#utility.yul\":3328:3337   */\n      dup10\n        /* \"#utility.yul\":3324:3346   */\n      add\n        /* \"#utility.yul\":3303:3356   */\n      tag_265\n      jump\t// in\n    tag_329:\n        /* \"#utility.yul\":3293:3356   */\n      swap2\n      pop\n        /* \"#utility.yul\":3247:3366   */\n      pop\n        /* \"#utility.yul\":2462:3373   */\n      swap3\n      swap6\n      pop\n      swap3\n      swap6\n      swap1\n      swap4\n      pop\n      jump\t// out\n        /* \"#utility.yul\":3379:3497   */\n    tag_266:\n        /* \"#utility.yul\":3466:3490   */\n      tag_331\n        /* \"#utility.yul\":3484:3489   */\n      dup2\n        /* \"#utility.yul\":3466:3490   */\n      tag_263\n      jump\t// in\n    tag_331:\n        /* \"#utility.yul\":3461:3464   */\n      dup3\n        /* \"#utility.yul\":3454:3491   */\n      mstore\n        /* \"#utility.yul\":3379:3497   */\n      pop\n      pop\n      jump\t// out\n        /* \"#utility.yul\":3503:4056   */\n    tag_43:\n        /* \"#utility.yul\":3680:3684   */\n      0x00\n        /* \"#utility.yul\":3718:3721   */\n      0x80\n        /* \"#utility.yul\":3707:3716   */\n      dup3\n        /* \"#utility.yul\":3703:3722   */\n      add\n        /* \"#utility.yul\":3695:3722   */\n      swap1\n      pop\n        /* \"#utility.yul\":3732:3803   */\n      tag_333\n        /* \"#utility.yul\":3800:3801   */\n      0x00\n        /* \"#utility.yul\":3789:3798   */\n      dup4\n        /* \"#utility.yul\":3785:3802   */\n      add\n        /* \"#utility.yul\":3776:3782   */\n      dup8\n        /* \"#utility.yul\":3732:3803   */\n      tag_266\n      jump\t// in\n    tag_333:\n        /* \"#utility.yul\":3813:3885   */\n      tag_334\n        /* \"#utility.yul\":3881:3883   */\n      0x20\n        /* \"#utility.yul\":3870:3879   */\n      dup4\n        /* \"#utility.yul\":3866:3884   */\n      add\n        /* \"#utility.yul\":3857:3863   */\n      dup7\n        /* \"#utility.yul\":3813:3885   */\n      tag_266\n      jump\t// in\n    tag_334:\n        /* \"#utility.yul\":3895:3967   */\n      tag_335\n        /* \"#utility.yul\":3963:3965   */\n      0x40\n        /* \"#utility.yul\":3952:3961   */\n      dup4\n        /* \"#utility.yul\":3948:3966   */\n      add\n        /* \"#utility.yul\":3939:3945   */\n      dup6\n        /* \"#utility.yul\":3895:3967   */\n      tag_257\n      jump\t// in\n    tag_335:\n        /* \"#utility.yul\":3977:4049   */\n      tag_336\n        /* \"#utility.yul\":4045:4047   */\n      0x60\n        /* \"#utility.yul\":4034:4043   */\n      dup4\n        /* \"#utility.yul\":4030:4048   */\n      add\n        /* \"#utility.yul\":4021:4027   */\n      dup5\n        /* \"#utility.yul\":3977:4049   */\n      tag_257\n      jump\t// in\n    tag_336:\n        /* \"#utility.yul\":3503:4056   */\n      swap6\n      swap5\n      pop\n      pop\n      pop\n      pop\n      pop\n      jump\t// out\n        /* \"#utility.yul\":4062:4536   */\n    tag_46:\n        /* \"#utility.yul\":4130:4136   */\n      0x00\n        /* \"#utility.yul\":4138:4144   */\n      dup1\n        /* \"#utility.yul\":4187:4189   */\n      0x40\n        /* \"#utility.yul\":4175:4184   */\n      dup4\n        /* \"#utility.yul\":4166:4173   */\n      dup6\n        /* \"#utility.yul\":4162:4185   */\n      sub\n        /* \"#utility.yul\":4158:4190   */\n      slt\n        /* \"#utility.yul\":4155:4274   */\n      iszero\n      tag_338\n      jumpi\n        /* \"#utility.yul\":4193:4272   */\n      tag_339\n      tag_259\n      jump\t// in\n    tag_339:\n        /* \"#utility.yul\":4155:4274   */\n    tag_338:\n        /* \"#utility.yul\":4313:4314   */\n      0x00\n        /* \"#utility.yul\":4338:4391   */\n      tag_340\n        /* \"#utility.yul\":4383:4390   */\n      dup6\n        /* \"#utility.yul\":4374:4380   */\n      dup3\n        /* \"#utility.yul\":4363:4372   */\n      dup7\n        /* \"#utility.yul\":4359:4381   */\n      add\n        /* \"#utility.yul\":4338:4391   */\n      tag_262\n      jump\t// in\n    tag_340:\n        /* \"#utility.yul\":4328:4391   */\n      swap3\n      pop\n        /* \"#utility.yul\":4284:4401   */\n      pop\n        /* \"#utility.yul\":4440:4442   */\n      0x20\n        /* \"#utility.yul\":4466:4519   */\n      tag_341\n        /* \"#utility.yul\":4511:4518   */\n      dup6\n        /* \"#utility.yul\":4502:4508   */\n      dup3\n        /* \"#utility.yul\":4491:4500   */\n      dup7\n        /* \"#utility.yul\":4487:4509   */\n      add\n        /* \"#utility.yul\":4466:4519   */\n      tag_262\n      jump\t// in\n    tag_341:\n        /* \"#utility.yul\":4456:4519   */\n      swap2\n      pop\n        /* \"#utility.yul\":4411:4529   */\n      pop\n        /* \"#utility.yul\":4062:4536   */\n      swap3\n      pop\n      swap3\n      swap1\n      pop\n      jump\t// out\n        /* \"#utility.yul\":4542:4764   */\n    tag_54:\n        /* \"#utility.yul\":4635:4639   */\n      0x00\n        /* \"#utility.yul\":4673:4675   */\n      0x20\n        /* \"#utility.yul\":4662:4671   */\n      dup3\n        /* \"#utility.yul\":4658:4676   */\n      add\n        /* \"#utility.yul\":4650:4676   */\n      swap1\n      pop\n        /* \"#utility.yul\":4686:4757   */\n      tag_343\n        /* \"#utility.yul\":4754:4755   */\n      0x00\n        /* \"#utility.yul\":4743:4752   */\n      dup4\n        /* \"#utility.yul\":4739:4756   */\n      add\n        /* \"#utility.yul\":4730:4736   */\n      dup5\n        /* \"#utility.yul\":4686:4757   */\n      tag_266\n      jump\t// in\n    tag_343:\n        /* \"#utility.yul\":4542:4764   */\n      swap3\n      swap2\n      pop\n      pop\n      jump\t// out\n        /* \"#utility.yul\":4770:5099   */\n    tag_57:\n        /* \"#utility.yul\":4829:4835   */\n      0x00\n        /* \"#utility.yul\":4878:4880   */\n      0x20\n        /* \"#utility.yul\":4866:4875   */\n      dup3\n        /* \"#utility.yul\":4857:4864   */\n      dup5\n        /* \"#utility.yul\":4853:4876   */\n      sub\n        /* \"#utility.yul\":4849:4881   */\n      slt\n        /* \"#utility.yul\":4846:4965   */\n      iszero\n      tag_345\n      jumpi\n        /* \"#utility.yul\":4884:4963   */\n      tag_346\n      tag_259\n      jump\t// in\n    tag_346:\n        /* \"#utility.yul\":4846:4965   */\n    tag_345:\n        /* \"#utility.yul\":5004:5005   */\n      0x00\n        /* \"#utility.yul\":5029:5082   */\n      tag_347\n        /* \"#utility.yul\":5074:5081   */\n      dup5\n        /* \"#utility.yul\":5065:5071   */\n      dup3\n        /* \"#utility.yul\":5054:5063   */\n      dup6\n        /* \"#utility.yul\":5050:5072   */\n      add\n        /* \"#utility.yul\":5029:5082   */\n      tag_262\n      jump\t// in\n    tag_347:\n        /* \"#utility.yul\":5019:5082   */\n      swap2\n      pop\n        /* \"#utility.yul\":4975:5092   */\n      pop\n        /* \"#utility.yul\":4770:5099   */\n      swap3\n      swap2\n      pop\n      pop\n      jump\t// out\n        /* \"#utility.yul\":5105:5437   */\n    tag_60:\n        /* \"#utility.yul\":5226:5230   */\n      0x00\n        /* \"#utility.yul\":5264:5266   */\n      0x40\n        /* \"#utility.yul\":5253:5262   */\n      dup3\n        /* \"#utility.yul\":5249:5267   */\n      add\n        /* \"#utility.yul\":5241:5267   */\n      swap1\n      pop\n        /* \"#utility.yul\":5277:5348   */\n      tag_349\n        /* \"#utility.yul\":5345:5346   */\n      0x00\n        /* \"#utility.yul\":5334:5343   */\n      dup4\n        /* \"#utility.yul\":5330:5347   */\n      add\n        /* \"#utility.yul\":5321:5327   */\n      dup6\n        /* \"#utility.yul\":5277:5348   */\n      tag_257\n      jump\t// in\n    tag_349:\n        /* \"#utility.yul\":5358:5430   */\n      tag_350\n        /* \"#utility.yul\":5426:5428   */\n      0x20\n        /* \"#utility.yul\":5415:5424   */\n      dup4\n        /* \"#utility.yul\":5411:5429   */\n      add\n        /* \"#utility.yul\":5402:5408   */\n      dup5\n        /* \"#utility.yul\":5358:5430   */\n      tag_257\n      jump\t// in\n    tag_350:\n        /* \"#utility.yul\":5105:5437   */\n      swap4\n      swap3\n      pop\n      pop\n      pop\n      jump\t// out\n        /* \"#utility.yul\":5443:6062   */\n    tag_67:\n        /* \"#utility.yul\":5520:5526   */\n      0x00\n        /* \"#utility.yul\":5528:5534   */\n      dup1\n        /* \"#utility.yul\":5536:5542   */\n      0x00\n        /* \"#utility.yul\":5585:5587   */\n      0x60\n        /* \"#utility.yul\":5573:5582   */\n      dup5\n        /* \"#utility.yul\":5564:5571   */\n      dup7\n        /* \"#utility.yul\":5560:5583   */\n      sub\n        /* \"#utility.yul\":5556:5588   */\n      slt\n        /* \"#utility.yul\":5553:5672   */\n      iszero\n      tag_352\n      jumpi\n        /* \"#utility.yul\":5591:5670   */\n      tag_353\n      tag_259\n      jump\t// in\n    tag_353:\n        /* \"#utility.yul\":5553:5672   */\n    tag_352:\n        /* \"#utility.yul\":5711:5712   */\n      0x00\n        /* \"#utility.yul\":5736:5789   */\n      tag_354\n        /* \"#utility.yul\":5781:5788   */\n      dup7\n        /* \"#utility.yul\":5772:5778   */\n      dup3\n        /* \"#utility.yul\":5761:5770   */\n      dup8\n        /* \"#utility.yul\":5757:5779   */\n      add\n        /* \"#utility.yul\":5736:5789   */\n      tag_262\n      jump\t// in\n    tag_354:\n        /* \"#utility.yul\":5726:5789   */\n      swap4\n      pop\n        /* \"#utility.yul\":5682:5799   */\n      pop\n        /* \"#utility.yul\":5838:5840   */\n      0x20\n        /* \"#utility.yul\":5864:5917   */\n      tag_355\n        /* \"#utility.yul\":5909:5916   */\n      dup7\n        /* \"#utility.yul\":5900:5906   */\n      dup3\n        /* \"#utility.yul\":5889:5898   */\n      dup8\n        /* \"#utility.yul\":5885:5907   */\n      add\n        /* \"#utility.yul\":5864:5917   */\n      tag_262\n      jump\t// in\n    tag_355:\n        /* \"#utility.yul\":5854:5917   */\n      swap3\n      pop\n        /* \"#utility.yul\":5809:5927   */\n      pop\n        /* \"#utility.yul\":5966:5968   */\n      0x40\n        /* \"#utility.yul\":5992:6045   */\n      tag_356\n        /* \"#utility.yul\":6037:6044   */\n      dup7\n        /* \"#utility.yul\":6028:6034   */\n      dup3\n        /* \"#utility.yul\":6017:6026   */\n      dup8\n        /* \"#utility.yul\":6013:6035   */\n      add\n        /* \"#utility.yul\":5992:6045   */\n      tag_262\n      jump\t// in\n    tag_356:\n        /* \"#utility.yul\":5982:6045   */\n      swap2\n      pop\n        /* \"#utility.yul\":5937:6055   */\n      pop\n        /* \"#utility.yul\":5443:6062   */\n      swap3\n      pop\n      swap3\n      pop\n      swap3\n      jump\t// out\n        /* \"#utility.yul\":6068:6397   */\n    tag_81:\n        /* \"#utility.yul\":6127:6133   */\n      0x00\n        /* \"#utility.yul\":6176:6178   */\n      0x20\n        /* \"#utility.yul\":6164:6173   */\n      dup3\n        /* \"#utility.yul\":6155:6162   */\n      dup5\n        /* \"#utility.yul\":6151:6174   */\n      sub\n        /* \"#utility.yul\":6147:6179   */\n      slt\n        /* \"#utility.yul\":6144:6263   */\n      iszero\n      tag_358\n      jumpi\n        /* \"#utility.yul\":6182:6261   */\n      tag_359\n      tag_259\n      jump\t// in\n    tag_359:\n        /* \"#utility.yul\":6144:6263   */\n    tag_358:\n        /* \"#utility.yul\":6302:6303   */\n      0x00\n        /* \"#utility.yul\":6327:6380   */\n      tag_360\n        /* \"#utility.yul\":6372:6379   */\n      dup5\n        /* \"#utility.yul\":6363:6369   */\n      dup3\n        /* \"#utility.yul\":6352:6361   */\n      dup6\n        /* \"#utility.yul\":6348:6370   */\n      add\n        /* \"#utility.yul\":6327:6380   */\n      tag_265\n      jump\t// in\n    tag_360:\n        /* \"#utility.yul\":6317:6380   */\n      swap2\n      pop\n        /* \"#utility.yul\":6273:6390   */\n      pop\n        /* \"#utility.yul\":6068:6397   */\n      swap3\n      swap2\n      pop\n      pop\n      jump\t// out\n        /* \"#utility.yul\":6403:6572   */\n    tag_267:\n        /* \"#utility.yul\":6487:6498   */\n      0x00\n        /* \"#utility.yul\":6521:6527   */\n      dup3\n        /* \"#utility.yul\":6516:6519   */\n      dup3\n        /* \"#utility.yul\":6509:6528   */\n      mstore\n        /* \"#utility.yul\":6561:6565   */\n      0x20\n        /* \"#utility.yul\":6556:6559   */\n      dup3\n        /* \"#utility.yul\":6552:6566   */\n      add\n        /* \"#utility.yul\":6537:6566   */\n      swap1\n      pop\n        /* \"#utility.yul\":6403:6572   */\n      swap3\n      swap2\n      pop\n      pop\n      jump\t// out\n        /* \"#utility.yul\":6578:6760   */\n    tag_268:\n        /* \"#utility.yul\":6718:6752   */\n      0x506f6f6c3a20494e53554646494349454e545f4f55545055545f414d4f554e54\n        /* \"#utility.yul\":6714:6715   */\n      0x00\n        /* \"#utility.yul\":6706:6712   */\n      dup3\n        /* \"#utility.yul\":6702:6716   */\n      add\n        /* \"#utility.yul\":6695:6753   */\n      mstore\n        /* \"#utility.yul\":6578:6760   */\n      pop\n      jump\t// out\n        /* \"#utility.yul\":6766:7132   */\n    tag_269:\n        /* \"#utility.yul\":6908:6911   */\n      0x00\n        /* \"#utility.yul\":6929:6996   */\n      tag_364\n        /* \"#utility.yul\":6993:6995   */\n      0x20\n        /* \"#utility.yul\":6988:6991   */\n      dup4\n        /* \"#utility.yul\":6929:6996   */\n      tag_267\n      jump\t// in\n    tag_364:\n        /* \"#utility.yul\":6922:6996   */\n      swap2\n      pop\n        /* \"#utility.yul\":7005:7098   */\n      tag_365\n        /* \"#utility.yul\":7094:7097   */\n      dup3\n        /* \"#utility.yul\":7005:7098   */\n      tag_268\n      jump\t// in\n    tag_365:\n        /* \"#utility.yul\":7123:7125   */\n      0x20\n        /* \"#utility.yul\":7118:7121   */\n      dup3\n        /* \"#utility.yul\":7114:7126   */\n      add\n        /* \"#utility.yul\":7107:7126   */\n      swap1\n      pop\n        /* \"#utility.yul\":6766:7132   */\n      swap2\n      swap1\n      pop\n      jump\t// out\n        /* \"#utility.yul\":7138:7557   */\n    tag_87:\n        /* \"#utility.yul\":7304:7308   */\n      0x00\n        /* \"#utility.yul\":7342:7344   */\n      0x20\n        /* \"#utility.yul\":7331:7340   */\n      dup3\n        /* \"#utility.yul\":7327:7345   */\n      add\n        /* \"#utility.yul\":7319:7345   */\n      swap1\n      pop\n        /* \"#utility.yul\":7391:7400   */\n      dup2\n        /* \"#utility.yul\":7385:7389   */\n      dup2\n        /* \"#utility.yul\":7381:7401   */\n      sub\n        /* \"#utility.yul\":7377:7378   */\n      0x00\n        /* \"#utility.yul\":7366:7375   */\n      dup4\n        /* \"#utility.yul\":7362:7379   */\n      add\n        /* \"#utility.yul\":7355:7402   */\n      mstore\n        /* \"#utility.yul\":7419:7550   */\n      tag_367\n        /* \"#utility.yul\":7545:7549   */\n      dup2\n        /* \"#utility.yul\":7419:7550   */\n      tag_269\n      jump\t// in\n    tag_367:\n        /* \"#utility.yul\":7411:7550   */\n      swap1\n      pop\n        /* \"#utility.yul\":7138:7557   */\n      swap2\n      swap1\n      pop\n      jump\t// out\n        /* \"#utility.yul\":7563:7741   */\n    tag_270:\n        /* \"#utility.yul\":7703:7733   */\n      0x506f6f6c3a20494e53554646494349454e545f4c495155494449545900000000\n        /* \"#utility.yul\":7699:7700   */\n      0x00\n        /* \"#utility.yul\":7691:7697   */\n      dup3\n        /* \"#utility.yul\":7687:7701   */\n      add\n        /* \"#utility.yul\":7680:7734   */\n      mstore\n        /* \"#utility.yul\":7563:7741   */\n      pop\n      jump\t// out\n        /* \"#utility.yul\":7747:8113   */\n    tag_271:\n        /* \"#utility.yul\":7889:7892   */\n      0x00\n        /* \"#utility.yul\":7910:7977   */\n      tag_370\n        /* \"#utility.yul\":7974:7976   */\n      0x1c\n        /* \"#utility.yul\":7969:7972   */\n      dup4\n        /* \"#utility.yul\":7910:7977   */\n      tag_267\n      jump\t// in\n    tag_370:\n        /* \"#utility.yul\":7903:7977   */\n      swap2\n      pop\n        /* \"#utility.yul\":7986:8079   */\n      tag_371\n        /* \"#utility.yul\":8075:8078   */\n      dup3\n        /* \"#utility.yul\":7986:8079   */\n      tag_270\n      jump\t// in\n    tag_371:\n        /* \"#utility.yul\":8104:8106   */\n      0x20\n        /* \"#utility.yul\":8099:8102   */\n      dup3\n        /* \"#utility.yul\":8095:8107   */\n      add\n        /* \"#utility.yul\":8088:8107   */\n      swap1\n      pop\n        /* \"#utility.yul\":7747:8113   */\n      swap2\n      swap1\n      pop\n      jump\t// out\n        /* \"#utility.yul\":8119:8538   */\n    tag_91:\n        /* \"#utility.yul\":8285:8289   */\n      0x00\n        /* \"#utility.yul\":8323:8325   */\n      0x20\n        /* \"#utility.yul\":8312:8321   */\n      dup3\n        /* \"#utility.yul\":8308:8326   */\n      add\n        /* \"#utility.yul\":8300:8326   */\n      swap1\n      pop\n        /* \"#utility.yul\":8372:8381   */\n      dup2\n        /* \"#utility.yul\":8366:8370   */\n      dup2\n        /* \"#utility.yul\":8362:8382   */\n      sub\n        /* \"#utility.yul\":8358:8359   */\n      0x00\n        /* \"#utility.yul\":8347:8356   */\n      dup4\n        /* \"#utility.yul\":8343:8360   */\n      add\n        /* \"#utility.yul\":8336:8383   */\n      mstore\n        /* \"#utility.yul\":8400:8531   */\n      tag_373\n        /* \"#utility.yul\":8526:8530   */\n      dup2\n        /* \"#utility.yul\":8400:8531   */\n      tag_271\n      jump\t// in\n    tag_373:\n        /* \"#utility.yul\":8392:8531   */\n      swap1\n      pop\n        /* \"#utility.yul\":8119:8538   */\n      swap2\n      swap1\n      pop\n      jump\t// out\n        /* \"#utility.yul\":8544:8724   */\n    tag_272:\n        /* \"#utility.yul\":8592:8669   */\n      0x4e487b7100000000000000000000000000000000000000000000000000000000\n        /* \"#utility.yul\":8589:8590   */\n      0x00\n        /* \"#utility.yul\":8582:8670   */\n      mstore\n        /* \"#utility.yul\":8689:8693   */\n      0x11\n        /* \"#utility.yul\":8686:8687   */\n      0x04\n        /* \"#utility.yul\":8679:8694   */\n      mstore\n        /* \"#utility.yul\":8713:8717   */\n      0x24\n        /* \"#utility.yul\":8710:8711   */\n      0x00\n        /* \"#utility.yul\":8703:8718   */\n      revert\n        /* \"#utility.yul\":8730:8921   */\n    tag_98:\n        /* \"#utility.yul\":8770:8773   */\n      0x00\n        /* \"#utility.yul\":8789:8809   */\n      tag_376\n        /* \"#utility.yul\":8807:8808   */\n      dup3\n        /* \"#utility.yul\":8789:8809   */\n      tag_256\n      jump\t// in\n    tag_376:\n        /* \"#utility.yul\":8784:8809   */\n      swap2\n      pop\n        /* \"#utility.yul\":8823:8843   */\n      tag_377\n        /* \"#utility.yul\":8841:8842   */\n      dup4\n        /* \"#utility.yul\":8823:8843   */\n      tag_256\n      jump\t// in\n    tag_377:\n        /* \"#utility.yul\":8818:8843   */\n      swap3\n      pop\n        /* \"#utility.yul\":8866:8867   */\n      dup3\n        /* \"#utility.yul\":8863:8864   */\n      dup3\n        /* \"#utility.yul\":8859:8868   */\n      add\n        /* \"#utility.yul\":8852:8868   */\n      swap1\n      pop\n        /* \"#utility.yul\":8887:8890   */\n      dup1\n        /* \"#utility.yul\":8884:8885   */\n      dup3\n        /* \"#utility.yul\":8881:8891   */\n      gt\n        /* \"#utility.yul\":8878:8914   */\n      iszero\n      tag_378\n      jumpi\n        /* \"#utility.yul\":8894:8912   */\n      tag_379\n      tag_272\n      jump\t// in\n    tag_379:\n        /* \"#utility.yul\":8878:8914   */\n    tag_378:\n        /* \"#utility.yul\":8730:8921   */\n      swap3\n      swap2\n      pop\n      pop\n      jump\t// out\n        /* \"#utility.yul\":8927:9121   */\n    tag_100:\n        /* \"#utility.yul\":8967:8971   */\n      0x00\n        /* \"#utility.yul\":8987:9007   */\n      tag_381\n        /* \"#utility.yul\":9005:9006   */\n      dup3\n        /* \"#utility.yul\":8987:9007   */\n      tag_256\n      jump\t// in\n    tag_381:\n        /* \"#utility.yul\":8982:9007   */\n      swap2\n      pop\n        /* \"#utility.yul\":9021:9041   */\n      tag_382\n        /* \"#utility.yul\":9039:9040   */\n      dup4\n        /* \"#utility.yul\":9021:9041   */\n      tag_256\n      jump\t// in\n    tag_382:\n        /* \"#utility.yul\":9016:9041   */\n      swap3\n      pop\n        /* \"#utility.yul\":9065:9066   */\n      dup3\n        /* \"#utility.yul\":9062:9063   */\n      dup3\n        /* \"#utility.yul\":9058:9067   */\n      sub\n        /* \"#utility.yul\":9050:9067   */\n      swap1\n      pop\n        /* \"#utility.yul\":9089:9090   */\n      dup2\n        /* \"#utility.yul\":9083:9087   */\n      dup2\n        /* \"#utility.yul\":9080:9091   */\n      gt\n        /* \"#utility.yul\":9077:9114   */\n      iszero\n      tag_383\n      jumpi\n        /* \"#utility.yul\":9094:9112   */\n      tag_384\n      tag_272\n      jump\t// in\n    tag_384:\n        /* \"#utility.yul\":9077:9114   */\n    tag_383:\n        /* \"#utility.yul\":8927:9121   */\n      swap3\n      swap2\n      pop\n      pop\n      jump\t// out\n        /* \"#utility.yul\":9127:9537   */\n    tag_104:\n        /* \"#utility.yul\":9167:9174   */\n      0x00\n        /* \"#utility.yul\":9190:9210   */\n      tag_386\n        /* \"#utility.yul\":9208:9209   */\n      dup3\n        /* \"#utility.yul\":9190:9210   */\n      tag_256\n      jump\t// in\n    tag_386:\n        /* \"#utility.yul\":9185:9210   */\n      swap2\n      pop\n        /* \"#utility.yul\":9224:9244   */\n      tag_387\n        /* \"#utility.yul\":9242:9243   */\n      dup4\n        /* \"#utility.yul\":9224:9244   */\n      tag_256\n      jump\t// in\n    tag_387:\n        /* \"#utility.yul\":9219:9244   */\n      swap3\n      pop\n        /* \"#utility.yul\":9279:9280   */\n      dup3\n        /* \"#utility.yul\":9276:9277   */\n      dup3\n        /* \"#utility.yul\":9272:9281   */\n      mul\n        /* \"#utility.yul\":9301:9331   */\n      tag_388\n        /* \"#utility.yul\":9319:9330   */\n      dup2\n        /* \"#utility.yul\":9301:9331   */\n      tag_256\n      jump\t// in\n    tag_388:\n        /* \"#utility.yul\":9290:9331   */\n      swap2\n      pop\n        /* \"#utility.yul\":9480:9481   */\n      dup3\n        /* \"#utility.yul\":9471:9478   */\n      dup3\n        /* \"#utility.yul\":9467:9482   */\n      div\n        /* \"#utility.yul\":9464:9465   */\n      dup5\n        /* \"#utility.yul\":9461:9483   */\n      eq\n        /* \"#utility.yul\":9441:9442   */\n      dup4\n        /* \"#utility.yul\":9434:9443   */\n      iszero\n        /* \"#utility.yul\":9414:9497   */\n      or\n        /* \"#utility.yul\":9391:9530   */\n      tag_389\n      jumpi\n        /* \"#utility.yul\":9510:9528   */\n      tag_390\n      tag_272\n      jump\t// in\n    tag_390:\n        /* \"#utility.yul\":9391:9530   */\n    tag_389:\n        /* \"#utility.yul\":9175:9537   */\n      pop\n        /* \"#utility.yul\":9127:9537   */\n      swap3\n      swap2\n      pop\n      pop\n      jump\t// out\n        /* \"#utility.yul\":9543:9700   */\n    tag_273:\n        /* \"#utility.yul\":9683:9692   */\n      0x506f6f6c3a204b00000000000000000000000000000000000000000000000000\n        /* \"#utility.yul\":9679:9680   */\n      0x00\n        /* \"#utility.yul\":9671:9677   */\n      dup3\n        /* \"#utility.yul\":9667:9681   */\n      add\n        /* \"#utility.yul\":9660:9693   */\n      mstore\n        /* \"#utility.yul\":9543:9700   */\n      pop\n      jump\t// out\n        /* \"#utility.yul\":9706:10071   */\n    tag_274:\n        /* \"#utility.yul\":9848:9851   */\n      0x00\n        /* \"#utility.yul\":9869:9935   */\n      tag_393\n        /* \"#utility.yul\":9933:9934   */\n      0x07\n        /* \"#utility.yul\":9928:9931   */\n      dup4\n        /* \"#utility.yul\":9869:9935   */\n      tag_267\n      jump\t// in\n    tag_393:\n        /* \"#utility.yul\":9862:9935   */\n      swap2\n      pop\n        /* \"#utility.yul\":9944:10037   */\n      tag_394\n        /* \"#utility.yul\":10033:10036   */\n      dup3\n        /* \"#utility.yul\":9944:10037   */\n      tag_273\n      jump\t// in\n    tag_394:\n        /* \"#utility.yul\":10062:10064   */\n      0x20\n        /* \"#utility.yul\":10057:10060   */\n      dup3\n        /* \"#utility.yul\":10053:10065   */\n      add\n        /* \"#utility.yul\":10046:10065   */\n      swap1\n      pop\n        /* \"#utility.yul\":9706:10071   */\n      swap2\n      swap1\n      pop\n      jump\t// out\n        /* \"#utility.yul\":10077:10496   */\n    tag_108:\n        /* \"#utility.yul\":10243:10247   */\n      0x00\n        /* \"#utility.yul\":10281:10283   */\n      0x20\n        /* \"#utility.yul\":10270:10279   */\n      dup3\n        /* \"#utility.yul\":10266:10284   */\n      add\n        /* \"#utility.yul\":10258:10284   */\n      swap1\n      pop\n        /* \"#utility.yul\":10330:10339   */\n      dup2\n        /* \"#utility.yul\":10324:10328   */\n      dup2\n        /* \"#utility.yul\":10320:10340   */\n      sub\n        /* \"#utility.yul\":10316:10317   */\n      0x00\n        /* \"#utility.yul\":10305:10314   */\n      dup4\n        /* \"#utility.yul\":10301:10318   */\n      add\n        /* \"#utility.yul\":10294:10341   */\n      mstore\n        /* \"#utility.yul\":10358:10489   */\n      tag_396\n        /* \"#utility.yul\":10484:10488   */\n      dup2\n        /* \"#utility.yul\":10358:10489   */\n      tag_274\n      jump\t// in\n    tag_396:\n        /* \"#utility.yul\":10350:10489   */\n      swap1\n      pop\n        /* \"#utility.yul\":10077:10496   */\n      swap2\n      swap1\n      pop\n      jump\t// out\n        /* \"#utility.yul\":10502:11055   */\n    tag_115:\n        /* \"#utility.yul\":10679:10683   */\n      0x00\n        /* \"#utility.yul\":10717:10720   */\n      0x80\n        /* \"#utility.yul\":10706:10715   */\n      dup3\n        /* \"#utility.yul\":10702:10721   */\n      add\n        /* \"#utility.yul\":10694:10721   */\n      swap1\n      pop\n        /* \"#utility.yul\":10731:10802   */\n      tag_398\n        /* \"#utility.yul\":10799:10800   */\n      0x00\n        /* \"#utility.yul\":10788:10797   */\n      dup4\n        /* \"#utility.yul\":10784:10801   */\n      add\n        /* \"#utility.yul\":10775:10781   */\n      dup8\n        /* \"#utility.yul\":10731:10802   */\n      tag_257\n      jump\t// in\n    tag_398:\n        /* \"#utility.yul\":10812:10884   */\n      tag_399\n        /* \"#utility.yul\":10880:10882   */\n      0x20\n        /* \"#utility.yul\":10869:10878   */\n      dup4\n        /* \"#utility.yul\":10865:10883   */\n      add\n        /* \"#utility.yul\":10856:10862   */\n      dup7\n        /* \"#utility.yul\":10812:10884   */\n      tag_257\n      jump\t// in\n    tag_399:\n        /* \"#utility.yul\":10894:10966   */\n      tag_400\n        /* \"#utility.yul\":10962:10964   */\n      0x40\n        /* \"#utility.yul\":10951:10960   */\n      dup4\n        /* \"#utility.yul\":10947:10965   */\n      add\n        /* \"#utility.yul\":10938:10944   */\n      dup6\n        /* \"#utility.yul\":10894:10966   */\n      tag_257\n      jump\t// in\n    tag_400:\n        /* \"#utility.yul\":10976:11048   */\n      tag_401\n        /* \"#utility.yul\":11044:11046   */\n      0x60\n        /* \"#utility.yul\":11033:11042   */\n      dup4\n        /* \"#utility.yul\":11029:11047   */\n      add\n        /* \"#utility.yul\":11020:11026   */\n      dup5\n        /* \"#utility.yul\":10976:11048   */\n      tag_257\n      jump\t// in\n    tag_401:\n        /* \"#utility.yul\":10502:11055   */\n      swap6\n      swap5\n      pop\n      pop\n      pop\n      pop\n      pop\n      jump\t// out\n        /* \"#utility.yul\":11061:11147   */\n    tag_275:\n        /* \"#utility.yul\":11096:11103   */\n      0x00\n        /* \"#utility.yul\":11136:11140   */\n      0xff\n        /* \"#utility.yul\":11129:11134   */\n      dup3\n        /* \"#utility.yul\":11125:11141   */\n      and\n        /* \"#utility.yul\":11114:11141   */\n      swap1\n      pop\n        /* \"#utility.yul\":11061:11147   */\n      swap2\n      swap1\n      pop\n      jump\t// out\n        /* \"#utility.yul\":11153:11271   */\n    tag_276:\n        /* \"#utility.yul\":11224:11246   */\n      tag_404\n        /* \"#utility.yul\":11240:11245   */\n      dup2\n        /* \"#utility.yul\":11224:11246   */\n      tag_275\n      jump\t// in\n    tag_404:\n        /* \"#utility.yul\":11217:11222   */\n      dup2\n        /* \"#utility.yul\":11214:11247   */\n      eq\n        /* \"#utility.yul\":11204:11265   */\n      tag_405\n      jumpi\n        /* \"#utility.yul\":11261:11262   */\n      0x00\n        /* \"#utility.yul\":11258:11259   */\n      dup1\n        /* \"#utility.yul\":11251:11263   */\n      revert\n        /* \"#utility.yul\":11204:11265   */\n    tag_405:\n        /* \"#utility.yul\":11153:11271   */\n      pop\n      jump\t// out\n        /* \"#utility.yul\":11277:11416   */\n    tag_277:\n        /* \"#utility.yul\":11332:11337   */\n      0x00\n        /* \"#utility.yul\":11363:11369   */\n      dup2\n        /* \"#utility.yul\":11357:11370   */\n      mload\n        /* \"#utility.yul\":11348:11370   */\n      swap1\n      pop\n        /* \"#utility.yul\":11379:11410   */\n      tag_407\n        /* \"#utility.yul\":11404:11409   */\n      dup2\n        /* \"#utility.yul\":11379:11410   */\n      tag_276\n      jump\t// in\n    tag_407:\n        /* \"#utility.yul\":11277:11416   */\n      swap3\n      swap2\n      pop\n      pop\n      jump\t// out\n        /* \"#utility.yul\":11422:11769   */\n    tag_121:\n        /* \"#utility.yul\":11490:11496   */\n      0x00\n        /* \"#utility.yul\":11539:11541   */\n      0x20\n        /* \"#utility.yul\":11527:11536   */\n      dup3\n        /* \"#utility.yul\":11518:11525   */\n      dup5\n        /* \"#utility.yul\":11514:11537   */\n      sub\n        /* \"#utility.yul\":11510:11542   */\n      slt\n        /* \"#utility.yul\":11507:11626   */\n      iszero\n      tag_409\n      jumpi\n        /* \"#utility.yul\":11545:11624   */\n      tag_410\n      tag_259\n      jump\t// in\n    tag_410:\n        /* \"#utility.yul\":11507:11626   */\n    tag_409:\n        /* \"#utility.yul\":11665:11666   */\n      0x00\n        /* \"#utility.yul\":11690:11752   */\n      tag_411\n        /* \"#utility.yul\":11744:11751   */\n      dup5\n        /* \"#utility.yul\":11735:11741   */\n      dup3\n        /* \"#utility.yul\":11724:11733   */\n      dup6\n        /* \"#utility.yul\":11720:11742   */\n      add\n        /* \"#utility.yul\":11690:11752   */\n      tag_277\n      jump\t// in\n    tag_411:\n        /* \"#utility.yul\":11680:11752   */\n      swap2\n      pop\n        /* \"#utility.yul\":11636:11762   */\n      pop\n        /* \"#utility.yul\":11422:11769   */\n      swap3\n      swap2\n      pop\n      pop\n      jump\t// out\n        /* \"#utility.yul\":11775:11877   */\n    tag_278:\n        /* \"#utility.yul\":11817:11825   */\n      0x00\n        /* \"#utility.yul\":11864:11869   */\n      dup2\n        /* \"#utility.yul\":11861:11862   */\n      0x01\n        /* \"#utility.yul\":11857:11870   */\n      shr\n        /* \"#utility.yul\":11836:11870   */\n      swap1\n      pop\n        /* \"#utility.yul\":11775:11877   */\n      swap2\n      swap1\n      pop\n      jump\t// out\n        /* \"#utility.yul\":11883:12731   */\n    tag_279:\n        /* \"#utility.yul\":11944:11949   */\n      0x00\n        /* \"#utility.yul\":11951:11955   */\n      dup1\n        /* \"#utility.yul\":11975:11981   */\n      dup3\n        /* \"#utility.yul\":11966:11981   */\n      swap2\n      pop\n        /* \"#utility.yul\":11999:12004   */\n      dup4\n        /* \"#utility.yul\":11990:12004   */\n      swap1\n      pop\n        /* \"#utility.yul\":12013:12725   */\n    tag_414:\n        /* \"#utility.yul\":12034:12035   */\n      0x01\n        /* \"#utility.yul\":12024:12032   */\n      dup6\n        /* \"#utility.yul\":12021:12036   */\n      gt\n        /* \"#utility.yul\":12013:12725   */\n      iszero\n      tag_416\n      jumpi\n        /* \"#utility.yul\":12129:12133   */\n      dup1\n        /* \"#utility.yul\":12124:12127   */\n      dup7\n        /* \"#utility.yul\":12120:12134   */\n      div\n        /* \"#utility.yul\":12114:12118   */\n      dup2\n        /* \"#utility.yul\":12111:12135   */\n      gt\n        /* \"#utility.yul\":12108:12158   */\n      iszero\n      tag_417\n      jumpi\n        /* \"#utility.yul\":12138:12156   */\n      tag_418\n      tag_272\n      jump\t// in\n    tag_418:\n        /* \"#utility.yul\":12108:12158   */\n    tag_417:\n        /* \"#utility.yul\":12188:12189   */\n      0x01\n        /* \"#utility.yul\":12178:12186   */\n      dup6\n        /* \"#utility.yul\":12174:12190   */\n      and\n        /* \"#utility.yul\":12171:12622   */\n      iszero\n      tag_419\n      jumpi\n        /* \"#utility.yul\":12603:12607   */\n      dup1\n        /* \"#utility.yul\":12596:12601   */\n      dup3\n        /* \"#utility.yul\":12592:12608   */\n      mul\n        /* \"#utility.yul\":12583:12608   */\n      swap2\n      pop\n        /* \"#utility.yul\":12171:12622   */\n    tag_419:\n        /* \"#utility.yul\":12653:12657   */\n      dup1\n        /* \"#utility.yul\":12647:12651   */\n      dup2\n        /* \"#utility.yul\":12643:12658   */\n      mul\n        /* \"#utility.yul\":12635:12658   */\n      swap1\n      pop\n        /* \"#utility.yul\":12683:12715   */\n      tag_420\n        /* \"#utility.yul\":12706:12714   */\n      dup6\n        /* \"#utility.yul\":12683:12715   */\n      tag_278\n      jump\t// in\n    tag_420:\n        /* \"#utility.yul\":12671:12715   */\n      swap5\n      pop\n        /* \"#utility.yul\":12013:12725   */\n      jump(tag_414)\n    tag_416:\n        /* \"#utility.yul\":11883:12731   */\n      swap5\n      pop\n      swap5\n      swap3\n      pop\n      pop\n      pop\n      jump\t// out\n        /* \"#utility.yul\":12737:13810   */\n    tag_280:\n        /* \"#utility.yul\":12791:12796   */\n      0x00\n        /* \"#utility.yul\":12982:12990   */\n      dup3\n        /* \"#utility.yul\":12972:13012   */\n      tag_422\n      jumpi\n        /* \"#utility.yul\":13003:13004   */\n      0x01\n        /* \"#utility.yul\":12994:13004   */\n      swap1\n      pop\n        /* \"#utility.yul\":13005:13010   */\n      jump(tag_421)\n        /* \"#utility.yul\":12972:13012   */\n    tag_422:\n        /* \"#utility.yul\":13031:13035   */\n      dup2\n        /* \"#utility.yul\":13021:13057   */\n      tag_423\n      jumpi\n        /* \"#utility.yul\":13048:13049   */\n      0x00\n        /* \"#utility.yul\":13039:13049   */\n      swap1\n      pop\n        /* \"#utility.yul\":13050:13055   */\n      jump(tag_421)\n        /* \"#utility.yul\":13021:13057   */\n    tag_423:\n        /* \"#utility.yul\":13117:13121   */\n      dup2\n        /* \"#utility.yul\":13165:13166   */\n      0x01\n        /* \"#utility.yul\":13160:13187   */\n      dup2\n      eq\n      tag_425\n      jumpi\n        /* \"#utility.yul\":13201:13202   */\n      0x02\n        /* \"#utility.yul\":13196:13387   */\n      dup2\n      eq\n      tag_426\n      jumpi\n        /* \"#utility.yul\":13110:13387   */\n      jump(tag_424)\n        /* \"#utility.yul\":13160:13187   */\n    tag_425:\n        /* \"#utility.yul\":13178:13179   */\n      0x01\n        /* \"#utility.yul\":13169:13179   */\n      swap2\n      pop\n        /* \"#utility.yul\":13180:13185   */\n      pop\n      jump(tag_421)\n        /* \"#utility.yul\":13196:13387   */\n    tag_426:\n        /* \"#utility.yul\":13241:13244   */\n      0xff\n        /* \"#utility.yul\":13231:13239   */\n      dup5\n        /* \"#utility.yul\":13228:13245   */\n      gt\n        /* \"#utility.yul\":13225:13268   */\n      iszero\n      tag_427\n      jumpi\n        /* \"#utility.yul\":13248:13266   */\n      tag_428\n      tag_272\n      jump\t// in\n    tag_428:\n        /* \"#utility.yul\":13225:13268   */\n    tag_427:\n        /* \"#utility.yul\":13297:13305   */\n      dup4\n        /* \"#utility.yul\":13294:13295   */\n      0x02\n        /* \"#utility.yul\":13290:13306   */\n      exp\n        /* \"#utility.yul\":13281:13306   */\n      swap2\n      pop\n        /* \"#utility.yul\":13332:13335   */\n      dup5\n        /* \"#utility.yul\":13325:13330   */\n      dup3\n        /* \"#utility.yul\":13322:13336   */\n      gt\n        /* \"#utility.yul\":13319:13359   */\n      iszero\n      tag_429\n      jumpi\n        /* \"#utility.yul\":13339:13357   */\n      tag_430\n      tag_272\n      jump\t// in\n    tag_430:\n        /* \"#utility.yul\":13319:13359   */\n    tag_429:\n        /* \"#utility.yul\":13372:13377   */\n      pop\n      jump(tag_421)\n        /* \"#utility.yul\":13110:13387   */\n    tag_424:\n      pop\n        /* \"#utility.yul\":13496:13498   */\n      0x20\n        /* \"#utility.yul\":13486:13494   */\n      dup4\n        /* \"#utility.yul\":13483:13499   */\n      lt\n        /* \"#utility.yul\":13477:13480   */\n      0x0133\n        /* \"#utility.yul\":13471:13475   */\n      dup4\n        /* \"#utility.yul\":13468:13481   */\n      lt\n        /* \"#utility.yul\":13464:13500   */\n      and\n        /* \"#utility.yul\":13446:13448   */\n      0x4e\n        /* \"#utility.yul\":13436:13444   */\n      dup5\n        /* \"#utility.yul\":13433:13449   */\n      lt\n        /* \"#utility.yul\":13428:13430   */\n      0x0b\n        /* \"#utility.yul\":13422:13426   */\n      dup5\n        /* \"#utility.yul\":13419:13431   */\n      lt\n        /* \"#utility.yul\":13415:13450   */\n      and\n        /* \"#utility.yul\":13399:13510   */\n      or\n        /* \"#utility.yul\":13396:13642   */\n      iszero\n      tag_431\n      jumpi\n        /* \"#utility.yul\":13552:13560   */\n      dup3\n        /* \"#utility.yul\":13546:13550   */\n      dup3\n        /* \"#utility.yul\":13542:13561   */\n      exp\n        /* \"#utility.yul\":13533:13561   */\n      swap1\n      pop\n        /* \"#utility.yul\":13587:13590   */\n      dup4\n        /* \"#utility.yul\":13580:13585   */\n      dup2\n        /* \"#utility.yul\":13577:13591   */\n      gt\n        /* \"#utility.yul\":13574:13614   */\n      iszero\n      tag_432\n      jumpi\n        /* \"#utility.yul\":13594:13612   */\n      tag_433\n      tag_272\n      jump\t// in\n    tag_433:\n        /* \"#utility.yul\":13574:13614   */\n    tag_432:\n        /* \"#utility.yul\":13627:13632   */\n      jump(tag_421)\n        /* \"#utility.yul\":13396:13642   */\n    tag_431:\n        /* \"#utility.yul\":13667:13709   */\n      tag_434\n        /* \"#utility.yul\":13705:13708   */\n      dup5\n        /* \"#utility.yul\":13695:13703   */\n      dup5\n        /* \"#utility.yul\":13689:13693   */\n      dup5\n        /* \"#utility.yul\":13686:13687   */\n      0x01\n        /* \"#utility.yul\":13667:13709   */\n      tag_279\n      jump\t// in\n    tag_434:\n        /* \"#utility.yul\":13652:13709   */\n      swap3\n      pop\n      swap1\n      pop\n        /* \"#utility.yul\":13741:13745   */\n      dup2\n        /* \"#utility.yul\":13736:13739   */\n      dup5\n        /* \"#utility.yul\":13732:13746   */\n      div\n        /* \"#utility.yul\":13725:13730   */\n      dup2\n        /* \"#utility.yul\":13722:13747   */\n      gt\n        /* \"#utility.yul\":13719:13770   */\n      iszero\n      tag_435\n      jumpi\n        /* \"#utility.yul\":13750:13768   */\n      tag_436\n      tag_272\n      jump\t// in\n    tag_436:\n        /* \"#utility.yul\":13719:13770   */\n    tag_435:\n        /* \"#utility.yul\":13799:13803   */\n      dup2\n        /* \"#utility.yul\":13792:13797   */\n      dup2\n        /* \"#utility.yul\":13788:13804   */\n      mul\n        /* \"#utility.yul\":13779:13804   */\n      swap1\n      pop\n        /* \"#utility.yul\":12737:13810   */\n    tag_421:\n      swap4\n      swap3\n      pop\n      pop\n      pop\n      jump\t// out\n        /* \"#utility.yul\":13816:14097   */\n    tag_123:\n        /* \"#utility.yul\":13874:13879   */\n      0x00\n        /* \"#utility.yul\":13898:13921   */\n      tag_438\n        /* \"#utility.yul\":13916:13920   */\n      dup3\n        /* \"#utility.yul\":13898:13921   */\n      tag_256\n      jump\t// in\n    tag_438:\n        /* \"#utility.yul\":13890:13921   */\n      swap2\n      pop\n        /* \"#utility.yul\":13942:13967   */\n      tag_439\n        /* \"#utility.yul\":13958:13966   */\n      dup4\n        /* \"#utility.yul\":13942:13967   */\n      tag_275\n      jump\t// in\n    tag_439:\n        /* \"#utility.yul\":13930:13967   */\n      swap3\n      pop\n        /* \"#utility.yul\":13986:14090   */\n      tag_440\n        /* \"#utility.yul\":14023:14089   */\n      0xffffffffffffffffffffffffffffffffffffffffffffffffffffffffffffffff\n        /* \"#utility.yul\":14013:14021   */\n      dup5\n        /* \"#utility.yul\":14007:14011   */\n      dup5\n        /* \"#utility.yul\":13986:14090   */\n      tag_280\n      jump\t// in\n    tag_440:\n        /* \"#utility.yul\":13977:14090   */\n      swap1\n      pop\n        /* \"#utility.yul\":13816:14097   */\n      swap3\n      swap2\n      pop\n      pop\n      jump\t// out\n        /* \"#utility.yul\":14103:14246   */\n    tag_281:\n        /* \"#utility.yul\":14160:14165   */\n      0x00\n        /* \"#utility.yul\":14191:14197   */\n      dup2\n        /* \"#utility.yul\":14185:14198   */\n      mload\n        /* \"#utility.yul\":14176:14198   */\n      swap1\n      pop\n        /* \"#utility.yul\":14207:14240   */\n      tag_442\n        /* \"#utility.yul\":14234:14239   */\n      dup2\n        /* \"#utility.yul\":14207:14240   */\n      tag_261\n      jump\t// in\n    tag_442:\n        /* \"#utility.yul\":14103:14246   */\n      swap3\n      swap2\n      pop\n      pop\n      jump\t// out\n        /* \"#utility.yul\":14252:14603   */\n    tag_127:\n        /* \"#utility.yul\":14322:14328   */\n      0x00\n        /* \"#utility.yul\":14371:14373   */\n      0x20\n        /* \"#utility.yul\":14359:14368   */\n      dup3\n        /* \"#utility.yul\":14350:14357   */\n      dup5\n        /* \"#utility.yul\":14346:14369   */\n      sub\n        /* \"#utility.yul\":14342:14374   */\n      slt\n        /* \"#utility.yul\":14339:14458   */\n      iszero\n      tag_444\n      jumpi\n        /* \"#utility.yul\":14377:14456   */\n      tag_445\n      tag_259\n      jump\t// in\n    tag_445:\n        /* \"#utility.yul\":14339:14458   */\n    tag_444:\n        /* \"#utility.yul\":14497:14498   */\n      0x00\n        /* \"#utility.yul\":14522:14586   */\n      tag_446\n        /* \"#utility.yul\":14578:14585   */\n      dup5\n        /* \"#utility.yul\":14569:14575   */\n      dup3\n        /* \"#utility.yul\":14558:14567   */\n      dup6\n        /* \"#utility.yul\":14554:14576   */\n      add\n        /* \"#utility.yul\":14522:14586   */\n      tag_281\n      jump\t// in\n    tag_446:\n        /* \"#utility.yul\":14512:14586   */\n      swap2\n      pop\n        /* \"#utility.yul\":14468:14596   */\n      pop\n        /* \"#utility.yul\":14252:14603   */\n      swap3\n      swap2\n      pop\n      pop\n      jump\t// out\n        /* \"#utility.yul\":14609:14789   */\n    tag_282:\n        /* \"#utility.yul\":14657:14734   */\n      0x4e487b7100000000000000000000000000000000000000000000000000000000\n        /* \"#utility.yul\":14654:14655   */\n      0x00\n        /* \"#utility.yul\":14647:14735   */\n      mstore\n        /* \"#utility.yul\":14754:14758   */\n      0x12\n        /* \"#utility.yul\":14751:14752   */\n      0x04\n        /* \"#utility.yul\":14744:14759   */\n      mstore\n        /* \"#utility.yul\":14778:14782   */\n      0x24\n        /* \"#utility.yul\":14775:14776   */\n      0x00\n        /* \"#utility.yul\":14768:14783   */\n      revert\n        /* \"#utility.yul\":14795:14980   */\n    tag_130:\n        /* \"#utility.yul\":14835:14836   */\n      0x00\n        /* \"#utility.yul\":14852:14872   */\n      tag_449\n        /* \"#utility.yul\":14870:14871   */\n      dup3\n        /* \"#utility.yul\":14852:14872   */\n      tag_256\n      jump\t// in\n    tag_449:\n        /* \"#utility.yul\":14847:14872   */\n      swap2\n      pop\n        /* \"#utility.yul\":14886:14906   */\n      tag_450\n        /* \"#utility.yul\":14904:14905   */\n      dup4\n        /* \"#utility.yul\":14886:14906   */\n      tag_256\n      jump\t// in\n    tag_450:\n        /* \"#utility.yul\":14881:14906   */\n      swap3\n      pop\n        /* \"#utility.yul\":14925:14926   */\n      dup3\n        /* \"#utility.yul\":14915:14950   */\n      tag_451\n      jumpi\n        /* \"#utility.yul\":14930:14948   */\n      tag_452\n      tag_282\n      jump\t// in\n    tag_452:\n        /* \"#utility.yul\":14915:14950   */\n    tag_451:\n        /* \"#utility.yul\":14972:14973   */\n      dup3\n        /* \"#utility.yul\":14969:14970   */\n      dup3\n        /* \"#utility.yul\":14965:14974   */\n      div\n        /* \"#utility.yul\":14960:14974   */\n      swap1\n      pop\n        /* \"#utility.yul\":14795:14980   */\n      swap3\n      swap2\n      pop\n      pop\n      jump\t// out\n        /* \"#utility.yul\":14986:15318   */\n    tag_150:\n        /* \"#utility.yul\":15107:15111   */\n      0x00\n        /* \"#utility.yul\":15145:15147   */\n      0x40\n        /* \"#utility.yul\":15134:15143   */\n      dup3\n        /* \"#utility.yul\":15130:15148   */\n      add\n        /* \"#utility.yul\":15122:15148   */\n      swap1\n      pop\n        /* \"#utility.yul\":15158:15229   */\n      tag_454\n        /* \"#utility.yul\":15226:15227   */\n      0x00\n        /* \"#utility.yul\":15215:15224   */\n      dup4\n        /* \"#utility.yul\":15211:15228   */\n      add\n        /* \"#utility.yul\":15202:15208   */\n      dup6\n        /* \"#utility.yul\":15158:15229   */\n      tag_266\n      jump\t// in\n    tag_454:\n        /* \"#utility.yul\":15239:15311   */\n      tag_455\n        /* \"#utility.yul\":15307:15309   */\n      0x20\n        /* \"#utility.yul\":15296:15305   */\n      dup4\n        /* \"#utility.yul\":15292:15310   */\n      add\n        /* \"#utility.yul\":15283:15289   */\n      dup5\n        /* \"#utility.yul\":15239:15311   */\n      tag_257\n      jump\t// in\n    tag_455:\n        /* \"#utility.yul\":14986:15318   */\n      swap4\n      swap3\n      pop\n      pop\n      pop\n      jump\t// out\n        /* \"#utility.yul\":15324:15499   */\n    tag_283:\n        /* \"#utility.yul\":15464:15491   */\n      0x506f6f6c3a20494e53554646494349454e545f414d4f554e5400000000000000\n        /* \"#utility.yul\":15460:15461   */\n      0x00\n        /* \"#utility.yul\":15452:15458   */\n      dup3\n        /* \"#utility.yul\":15448:15462   */\n      add\n        /* \"#utility.yul\":15441:15492   */\n      mstore\n        /* \"#utility.yul\":15324:15499   */\n      pop\n      jump\t// out\n        /* \"#utility.yul\":15505:15871   */\n    tag_284:\n        /* \"#utility.yul\":15647:15650   */\n      0x00\n        /* \"#utility.yul\":15668:15735   */\n      tag_458\n        /* \"#utility.yul\":15732:15734   */\n      0x19\n        /* \"#utility.yul\":15727:15730   */\n      dup4\n        /* \"#utility.yul\":15668:15735   */\n      tag_267\n      jump\t// in\n    tag_458:\n        /* \"#utility.yul\":15661:15735   */\n      swap2\n      pop\n        /* \"#utility.yul\":15744:15837   */\n      tag_459\n        /* \"#utility.yul\":15833:15836   */\n      dup3\n        /* \"#utility.yul\":15744:15837   */\n      tag_283\n      jump\t// in\n    tag_459:\n        /* \"#utility.yul\":15862:15864   */\n      0x20\n        /* \"#utility.yul\":15857:15860   */\n      dup3\n        /* \"#utility.yul\":15853:15865   */\n      add\n        /* \"#utility.yul\":15846:15865   */\n      swap1\n      pop\n        /* \"#utility.yul\":15505:15871   */\n      swap2\n      swap1\n      pop\n      jump\t// out\n        /* \"#utility.yul\":15877:16296   */\n    tag_206:\n        /* \"#utility.yul\":16043:16047   */\n      0x00\n        /* \"#utility.yul\":16081:16083   */\n      0x20\n        /* \"#utility.yul\":16070:16079   */\n      dup3\n        /* \"#utility.yul\":16066:16084   */\n      add\n        /* \"#utility.yul\":16058:16084   */\n      swap1\n      pop\n        /* \"#utility.yul\":16130:16139   */\n      dup2\n        /* \"#utility.yul\":16124:16128   */\n      dup2\n        /* \"#utility.yul\":16120:16140   */\n      sub\n        /* \"#utility.yul\":16116:16117   */\n      0x00\n        /* \"#utility.yul\":16105:16114   */\n      dup4\n        /* \"#utility.yul\":16101:16118   */\n      add\n        /* \"#utility.yul\":16094:16141   */\n      mstore\n        /* \"#utility.yul\":16158:16289   */\n      tag_461\n        /* \"#utility.yul\":16284:16288   */\n      dup2\n        /* \"#utility.yul\":16158:16289   */\n      tag_284\n      jump\t// in\n    tag_461:\n        /* \"#utility.yul\":16150:16289   */\n      swap1\n      pop\n        /* \"#utility.yul\":15877:16296   */\n      swap2\n      swap1\n      pop\n      jump\t// out\n        /* \"#utility.yul\":16302:16477   */\n    tag_285:\n        /* \"#utility.yul\":16442:16469   */\n      0x506f6f6c3a20414c52454144595f494e495449414c495a454400000000000000\n        /* \"#utility.yul\":16438:16439   */\n      0x00\n        /* \"#utility.yul\":16430:16436   */\n      dup3\n        /* \"#utility.yul\":16426:16440   */\n      add\n        /* \"#utility.yul\":16419:16470   */\n      mstore\n        /* \"#utility.yul\":16302:16477   */\n      pop\n      jump\t// out\n        /* \"#utility.yul\":16483:16849   */\n    tag_286:\n        /* \"#utility.yul\":16625:16628   */\n      0x00\n        /* \"#utility.yul\":16646:16713   */\n      tag_464\n        /* \"#utility.yul\":16710:16712   */\n      0x19\n        /* \"#utility.yul\":16705:16708   */\n      dup4\n        /* \"#utility.yul\":16646:16713   */\n      tag_267\n      jump\t// in\n    tag_464:\n        /* \"#utility.yul\":16639:16713   */\n      swap2\n      pop\n        /* \"#utility.yul\":16722:16815   */\n      tag_465\n        /* \"#utility.yul\":16811:16814   */\n      dup3\n        /* \"#utility.yul\":16722:16815   */\n      tag_285\n      jump\t// in\n    tag_465:\n        /* \"#utility.yul\":16840:16842   */\n      0x20\n        /* \"#utility.yul\":16835:16838   */\n      dup3\n        /* \"#utility.yul\":16831:16843   */\n      add\n        /* \"#utility.yul\":16824:16843   */\n      swap1\n      pop\n        /* \"#utility.yul\":16483:16849   */\n      swap2\n      swap1\n      pop\n      jump\t// out\n        /* \"#utility.yul\":16855:17274   */\n    tag_218:\n        /* \"#utility.yul\":17021:17025   */\n      0x00\n        /* \"#utility.yul\":17059:17061   */\n      0x20\n        /* \"#utility.yul\":17048:17057   */\n      dup3\n        /* \"#utility.yul\":17044:17062   */\n      add\n        /* \"#utility.yul\":17036:17062   */\n      swap1\n      pop\n        /* \"#utility.yul\":17108:17117   */\n      dup2\n        /* \"#utility.yul\":17102:17106   */\n      dup2\n        /* \"#utility.yul\":17098:17118   */\n      sub\n        /* \"#utility.yul\":17094:17095   */\n      0x00\n        /* \"#utility.yul\":17083:17092   */\n      dup4\n        /* \"#utility.yul\":17079:17096   */\n      add\n        /* \"#utility.yul\":17072:17119   */\n      mstore\n        /* \"#utility.yul\":17136:17267   */\n      tag_467\n        /* \"#utility.yul\":17262:17266   */\n      dup2\n        /* \"#utility.yul\":17136:17267   */\n      tag_286\n      jump\t// in\n    tag_467:\n        /* \"#utility.yul\":17128:17267   */\n      swap1\n      pop\n        /* \"#utility.yul\":16855:17274   */\n      swap2\n      swap1\n      pop\n      jump\t// out\n        /* \"#utility.yul\":17280:17722   */\n    tag_230:\n        /* \"#utility.yul\":17429:17433   */\n      0x00\n        /* \"#utility.yul\":17467:17469   */\n      0x60\n        /* \"#utility.yul\":17456:17465   */\n      dup3\n        /* \"#utility.yul\":17452:17470   */\n      add\n        /* \"#utility.yul\":17444:17470   */\n      swap1\n      pop\n        /* \"#utility.yul\":17480:17551   */\n      tag_469\n        /* \"#utility.yul\":17548:17549   */\n      0x00\n        /* \"#utility.yul\":17537:17546   */\n      dup4\n        /* \"#utility.yul\":17533:17550   */\n      add\n        /* \"#utility.yul\":17524:17530   */\n      dup7\n        /* \"#utility.yul\":17480:17551   */\n      tag_266\n      jump\t// in\n    tag_469:\n        /* \"#utility.yul\":17561:17633   */\n      tag_470\n        /* \"#utility.yul\":17629:17631   */\n      0x20\n        /* \"#utility.yul\":17618:17627   */\n      dup4\n        /* \"#utility.yul\":17614:17632   */\n      add\n        /* \"#utility.yul\":17605:17611   */\n      dup6\n        /* \"#utility.yul\":17561:17633   */\n      tag_266\n      jump\t// in\n    tag_470:\n        /* \"#utility.yul\":17643:17715   */\n      tag_471\n        /* \"#utility.yul\":17711:17713   */\n      0x40\n        /* \"#utility.yul\":17700:17709   */\n      dup4\n        /* \"#utility.yul\":17696:17714   */\n      add\n        /* \"#utility.yul\":17687:17693   */\n      dup5\n        /* \"#utility.yul\":17643:17715   */\n      tag_257\n      jump\t// in\n    tag_471:\n        /* \"#utility.yul\":17280:17722   */\n      swap5\n      swap4\n      pop\n      pop\n      pop\n      pop\n      jump\t// out\n\n    auxdata: 0xa2646970667358221220938a6e759c3789f1f21d17b46dfafa8db0bd103933ed3571ade601fae38fb94a64736f6c634300081a0033\n}\n",
				"bytecode": {
					"linkReferences": {},
					"object": "608060405234801561000f575f80fd5b5060405161221e38038061221e8339818101604052810190610031919061029a565b805f73ffffffffffffffffffffffffffffffffffffffff168173ffffffffffffffffffffffffffffffffffffffff16036100a2575f6040517f1e4fbdf7000000000000000000000000000000000000000000000000000000008152600401610099919061030d565b60405180910390fd5b6100b18161017b60201b60201c565b508360015f6101000a81548173ffffffffffffffffffffffffffffffffffffffff021916908373ffffffffffffffffffffffffffffffffffffffff1602179055508260025f6101000a81548173ffffffffffffffffffffffffffffffffffffffff021916908373ffffffffffffffffffffffffffffffffffffffff1602179055508160035f6101000a81548173ffffffffffffffffffffffffffffffffffffffff021916908373ffffffffffffffffffffffffffffffffffffffff16021790555050505050610326565b5f805f9054906101000a900473ffffffffffffffffffffffffffffffffffffffff169050815f806101000a81548173ffffffffffffffffffffffffffffffffffffffff021916908373ffffffffffffffffffffffffffffffffffffffff1602179055508173ffffffffffffffffffffffffffffffffffffffff168173ffffffffffffffffffffffffffffffffffffffff167f8be0079c531659141344cd1fd0a4f28419497f9722a3daafe3b4186f6b6457e060405160405180910390a35050565b5f80fd5b5f73ffffffffffffffffffffffffffffffffffffffff82169050919050565b5f61026982610240565b9050919050565b6102798161025f565b8114610283575f80fd5b50565b5f8151905061029481610270565b92915050565b5f805f80608085870312156102b2576102b161023c565b5b5f6102bf87828801610286565b94505060206102d087828801610286565b93505060406102e187828801610286565b92505060606102f287828801610286565b91505092959194509250565b6103078161025f565b82525050565b5f6020820190506103205f8301846102fe565b92915050565b611eeb806103335f395ff3fe608060405234801561000f575f80fd5b50600436106100fe575f3560e01c80638da5cb5b11610095578063ba9a7a5611610064578063ba9a7a56146102a0578063d21220a7146102be578063e4a30116146102dc578063f2fde38b146102f8576100fe565b80638da5cb5b146101f15780639c8f9f231461020f5780639cd441da14610240578063ad615dec14610270576100fe565b80635fcbd285116100d15780635fcbd2851461017857806360246c88146101965780636e8fe678146101b7578063715018a6146101e7576100fe565b80630dfe168114610102578063443cb4bc14610120578063562e19df1461013e5780635a76f25e1461015a575b5f80fd5b61010a610314565b6040516101179190611614565b60405180910390f35b610128610339565b6040516101359190611645565b60405180910390f35b610158600480360381019061015391906116c7565b61033f565b005b61016261064b565b60405161016f9190611645565b60405180910390f35b610180610651565b60405161018d9190611614565b60405180910390f35b61019e610676565b6040516101ae949392919061174d565b60405180910390f35b6101d160048036038101906101cc9190611790565b6106d2565b6040516101de9190611645565b60405180910390f35b6101ef61095f565b005b6101f9610972565b60405161020691906117ce565b60405180910390f35b610229600480360381019061022491906117e7565b610999565b604051610237929190611812565b60405180910390f35b61025a60048036038101906102559190611790565b610c20565b6040516102679190611645565b60405180910390f35b61028a60048036038101906102859190611839565b611049565b6040516102979190611645565b60405180910390f35b6102a86110f9565b6040516102b59190611645565b60405180910390f35b6102c66110ff565b6040516102d39190611614565b60405180910390f35b6102f660048036038101906102f19190611790565b611124565b005b610312600480360381019061030d9190611889565b61122b565b005b60015f9054906101000a900473ffffffffffffffffffffffffffffffffffffffff1681565b60045481565b5f83118061034c57505f82115b61038b576040517f08c379a00000000000000000000000000000000000000000000000000000000081526004016103829061190e565b60405180910390fd5b6004548310801561039d575060055482105b6103dc576040517f08c379a00000000000000000000000000000000000000000000000000000000081526004016103d390611976565b60405180910390fd5b5f8511156104335761043233308760015f9054906101000a900473ffffffffffffffffffffffffffffffffffffffff1673ffffffffffffffffffffffffffffffffffffffff166112af909392919063ffffffff16565b5b5f84111561048a5761048933308660025f9054906101000a900473ffffffffffffffffffffffffffffffffffffffff1673ffffffffffffffffffffffffffffffffffffffff166112af909392919063ffffffff16565b5b5f838660045461049a91906119c1565b6104a491906119f4565b90505f83866005546104b691906119c1565b6104c091906119f4565b90506005546004546104d29190611a27565b81836104de9190611a27565b101561051f576040517f08c379a000000000000000000000000000000000000000000000000000000000815260040161051690611ab2565b60405180910390fd5b5f85111561057457610573838660015f9054906101000a900473ffffffffffffffffffffffffffffffffffffffff1673ffffffffffffffffffffffffffffffffffffffff166113319092919063ffffffff16565b5b5f8411156105c9576105c8838560025f9054906101000a900473ffffffffffffffffffffffffffffffffffffffff1673ffffffffffffffffffffffffffffffffffffffff166113319092919063ffffffff16565b5b81600481905550806005819055508273ffffffffffffffffffffffffffffffffffffffff163373ffffffffffffffffffffffffffffffffffffffff167fd78ad95fa46c994b6551d0da85fc275fe613ce37657fb8d5e3d130840159d8228989898960405161063a9493929190611ad0565b60405180910390a350505050505050565b60055481565b60035f9054906101000a900473ffffffffffffffffffffffffffffffffffffffff1681565b5f805f8060015f9054906101000a900473ffffffffffffffffffffffffffffffffffffffff1660025f9054906101000a900473ffffffffffffffffffffffffffffffffffffffff16600454600554935093509350935090919293565b5f60025f9054906101000a900473ffffffffffffffffffffffffffffffffffffffff1673ffffffffffffffffffffffffffffffffffffffff1663313ce5676040518163ffffffff1660e01b8152600401602060405180830381865afa15801561073d573d5f803e3d5ffd5b505050506040513d601f19601f820116820180604052508101906107619190611b49565b600a61076d9190611ca3565b60025f9054906101000a900473ffffffffffffffffffffffffffffffffffffffff1673ffffffffffffffffffffffffffffffffffffffff1663fdd760ea6040518163ffffffff1660e01b8152600401602060405180830381865afa1580156107d7573d5f803e3d5ffd5b505050506040513d601f19601f820116820180604052508101906107fb9190611d01565b836108069190611a27565b6108109190611d59565b60015f9054906101000a900473ffffffffffffffffffffffffffffffffffffffff1673ffffffffffffffffffffffffffffffffffffffff1663313ce5676040518163ffffffff1660e01b8152600401602060405180830381865afa15801561087a573d5f803e3d5ffd5b505050506040513d601f19601f8201168201806040525081019061089e9190611b49565b600a6108aa9190611ca3565b60015f9054906101000a900473ffffffffffffffffffffffffffffffffffffffff1673ffffffffffffffffffffffffffffffffffffffff1663fdd760ea6040518163ffffffff1660e01b8152600401602060405180830381865afa158015610914573d5f803e3d5ffd5b505050506040513d601f19601f820116820180604052508101906109389190611d01565b856109439190611a27565b61094d9190611d59565b61095791906119c1565b905092915050565b6109676113b0565b6109705f611437565b565b5f805f9054906101000a900473ffffffffffffffffffffffffffffffffffffffff16905090565b5f8060035f9054906101000a900473ffffffffffffffffffffffffffffffffffffffff1673ffffffffffffffffffffffffffffffffffffffff16639dc29fac33856040518363ffffffff1660e01b81526004016109f7929190611d89565b5f604051808303815f87803b158015610a0e575f80fd5b505af1158015610a20573d5f803e3d5ffd5b505050505f60035f9054906101000a900473ffffffffffffffffffffffffffffffffffffffff1673ffffffffffffffffffffffffffffffffffffffff166318160ddd6040518163ffffffff1660e01b8152600401602060405180830381865afa158015610a8f573d5f803e3d5ffd5b505050506040513d601f19601f82011682018060405250810190610ab39190611d01565b90508060045485610ac49190611a27565b610ace9190611d59565b92508060055485610adf9190611a27565b610ae99190611d59565b9150610b37338460015f9054906101000a900473ffffffffffffffffffffffffffffffffffffffff1673ffffffffffffffffffffffffffffffffffffffff166113319092919063ffffffff16565b610b83338360025f9054906101000a900473ffffffffffffffffffffffffffffffffffffffff1673ffffffffffffffffffffffffffffffffffffffff166113319092919063ffffffff16565b8260045f828254610b9491906119f4565b925050819055508160055f828254610bac91906119f4565b925050819055503373ffffffffffffffffffffffffffffffffffffffff163373ffffffffffffffffffffffffffffffffffffffff167fdccd412f0b1252819cb1fd330b93224ca42612892bb3f4f789976e6d819364968585604051610c12929190611812565b60405180910390a350915091565b5f805f80600454148015610c3557505f600554145b15610c4557849150839050610c85565b5f610c5586600454600554611049565b9050848111610c6957859250809150610c83565b5f610c7986600554600454611049565b9050809350859250505b505b610cd333308460015f9054906101000a900473ffffffffffffffffffffffffffffffffffffffff1673ffffffffffffffffffffffffffffffffffffffff166112af909392919063ffffffff16565b610d2133308360025f9054906101000a900473ffffffffffffffffffffffffffffffffffffffff1673ffffffffffffffffffffffffffffffffffffffff166112af909392919063ffffffff16565b5f60035f9054906101000a900473ffffffffffffffffffffffffffffffffffffffff1673ffffffffffffffffffffffffffffffffffffffff166318160ddd6040518163ffffffff1660e01b8152600401602060405180830381865afa158015610d8c573d5f803e3d5ffd5b505050506040513d601f19601f82011682018060405250810190610db09190611d01565b90505f8103610eeb5760035f9054906101000a900473ffffffffffffffffffffffffffffffffffffffff1673ffffffffffffffffffffffffffffffffffffffff1663fdd760ea6040518163ffffffff1660e01b8152600401602060405180830381865afa158015610e23573d5f803e3d5ffd5b505050506040513d601f19601f82011682018060405250810190610e479190611d01565b610e5184846106d2565b610e5b9190611d59565b935060035f9054906101000a900473ffffffffffffffffffffffffffffffffffffffff1673ffffffffffffffffffffffffffffffffffffffff166340c10f1933866040518363ffffffff1660e01b8152600401610eb9929190611d89565b5f604051808303815f87803b158015610ed0575f80fd5b505af1158015610ee2573d5f803e3d5ffd5b50505050610fc0565b5f6004548285610efb9190611a27565b610f059190611d59565b90505f6005548385610f179190611a27565b610f219190611d59565b9050808210610f305780610f32565b815b955060035f9054906101000a900473ffffffffffffffffffffffffffffffffffffffff1673ffffffffffffffffffffffffffffffffffffffff166340c10f1933886040518363ffffffff1660e01b8152600401610f90929190611d89565b5f604051808303815f87803b158015610fa7575f80fd5b505af1158015610fb9573d5f803e3d5ffd5b5050505050505b8260045f828254610fd191906119c1565b925050819055508160055f828254610fe991906119c1565b925050819055503373ffffffffffffffffffffffffffffffffffffffff167f4c209b5fc8ad50758f13e2e1088ba56a560dff690a1c6fef26394f4c03821c4f8484604051611038929190611812565b60405180910390a250505092915050565b5f80841161108c576040517f08c379a000000000000000000000000000000000000000000000000000000000815260040161108390611dfa565b60405180910390fd5b5f8311801561109a57505f82115b6110d9576040517f08c379a00000000000000000000000000000000000000000000000000000000081526004016110d090611976565b60405180910390fd5b8282856110e69190611a27565b6110f09190611d59565b90509392505050565b6103e881565b60025f9054906101000a900473ffffffffffffffffffffffffffffffffffffffff1681565b61112c6113b0565b5f60045414801561113e57505f600554145b61117d576040517f08c379a000000000000000000000000000000000000000000000000000000000815260040161117490611e62565b60405180910390fd5b6111cb33308460015f9054906101000a900473ffffffffffffffffffffffffffffffffffffffff1673ffffffffffffffffffffffffffffffffffffffff166112af909392919063ffffffff16565b61121933308360025f9054906101000a900473ffffffffffffffffffffffffffffffffffffffff1673ffffffffffffffffffffffffffffffffffffffff166112af909392919063ffffffff16565b81600481905550806005819055505050565b6112336113b0565b5f73ffffffffffffffffffffffffffffffffffffffff168173ffffffffffffffffffffffffffffffffffffffff16036112a3575f6040517f1e4fbdf700000000000000000000000000000000000000000000000000000000815260040161129a91906117ce565b60405180910390fd5b6112ac81611437565b50565b61132b848573ffffffffffffffffffffffffffffffffffffffff166323b872dd8686866040516024016112e493929190611e80565b604051602081830303815290604052915060e01b6020820180517bffffffffffffffffffffffffffffffffffffffffffffffffffffffff83818316178352505050506114f8565b50505050565b6113ab838473ffffffffffffffffffffffffffffffffffffffff1663a9059cbb8585604051602401611364929190611d89565b604051602081830303815290604052915060e01b6020820180517bffffffffffffffffffffffffffffffffffffffffffffffffffffffff83818316178352505050506114f8565b505050565b6113b8611593565b73ffffffffffffffffffffffffffffffffffffffff166113d6610972565b73ffffffffffffffffffffffffffffffffffffffff1614611435576113f9611593565b6040517f118cdaa700000000000000000000000000000000000000000000000000000000815260040161142c91906117ce565b60405180910390fd5b565b5f805f9054906101000a900473ffffffffffffffffffffffffffffffffffffffff169050815f806101000a81548173ffffffffffffffffffffffffffffffffffffffff021916908373ffffffffffffffffffffffffffffffffffffffff1602179055508173ffffffffffffffffffffffffffffffffffffffff168173ffffffffffffffffffffffffffffffffffffffff167f8be0079c531659141344cd1fd0a4f28419497f9722a3daafe3b4186f6b6457e060405160405180910390a35050565b5f8060205f8451602086015f885af180611517576040513d5f823e3d81fd5b3d92505f519150505f821461153057600181141561154b565b5f8473ffffffffffffffffffffffffffffffffffffffff163b145b1561158d57836040517f5274afe700000000000000000000000000000000000000000000000000000000815260040161158491906117ce565b60405180910390fd5b50505050565b5f33905090565b5f73ffffffffffffffffffffffffffffffffffffffff82169050919050565b5f819050919050565b5f6115dc6115d76115d28461159a565b6115b9565b61159a565b9050919050565b5f6115ed826115c2565b9050919050565b5f6115fe826115e3565b9050919050565b61160e816115f4565b82525050565b5f6020820190506116275f830184611605565b92915050565b5f819050919050565b61163f8161162d565b82525050565b5f6020820190506116585f830184611636565b92915050565b5f80fd5b61166b8161162d565b8114611675575f80fd5b50565b5f8135905061168681611662565b92915050565b5f6116968261159a565b9050919050565b6116a68161168c565b81146116b0575f80fd5b50565b5f813590506116c18161169d565b92915050565b5f805f805f60a086880312156116e0576116df61165e565b5b5f6116ed88828901611678565b95505060206116fe88828901611678565b945050604061170f88828901611678565b935050606061172088828901611678565b9250506080611731888289016116b3565b9150509295509295909350565b6117478161168c565b82525050565b5f6080820190506117605f83018761173e565b61176d602083018661173e565b61177a6040830185611636565b6117876060830184611636565b95945050505050565b5f80604083850312156117a6576117a561165e565b5b5f6117b385828601611678565b92505060206117c485828601611678565b9150509250929050565b5f6020820190506117e15f83018461173e565b92915050565b5f602082840312156117fc576117fb61165e565b5b5f61180984828501611678565b91505092915050565b5f6040820190506118255f830185611636565b6118326020830184611636565b9392505050565b5f805f606084860312156118505761184f61165e565b5b5f61185d86828701611678565b935050602061186e86828701611678565b925050604061187f86828701611678565b9150509250925092565b5f6020828403121561189e5761189d61165e565b5b5f6118ab848285016116b3565b91505092915050565b5f82825260208201905092915050565b7f506f6f6c3a20494e53554646494349454e545f4f55545055545f414d4f554e545f82015250565b5f6118f86020836118b4565b9150611903826118c4565b602082019050919050565b5f6020820190508181035f830152611925816118ec565b9050919050565b7f506f6f6c3a20494e53554646494349454e545f4c4951554944495459000000005f82015250565b5f611960601c836118b4565b915061196b8261192c565b602082019050919050565b5f6020820190508181035f83015261198d81611954565b9050919050565b7f4e487b71000000000000000000000000000000000000000000000000000000005f52601160045260245ffd5b5f6119cb8261162d565b91506119d68361162d565b92508282019050808211156119ee576119ed611994565b5b92915050565b5f6119fe8261162d565b9150611a098361162d565b9250828203905081811115611a2157611a20611994565b5b92915050565b5f611a318261162d565b9150611a3c8361162d565b9250828202611a4a8161162d565b91508282048414831517611a6157611a60611994565b5b5092915050565b7f506f6f6c3a204b000000000000000000000000000000000000000000000000005f82015250565b5f611a9c6007836118b4565b9150611aa782611a68565b602082019050919050565b5f6020820190508181035f830152611ac981611a90565b9050919050565b5f608082019050611ae35f830187611636565b611af06020830186611636565b611afd6040830185611636565b611b0a6060830184611636565b95945050505050565b5f60ff82169050919050565b611b2881611b13565b8114611b32575f80fd5b50565b5f81519050611b4381611b1f565b92915050565b5f60208284031215611b5e57611b5d61165e565b5b5f611b6b84828501611b35565b91505092915050565b5f8160011c9050919050565b5f808291508390505b6001851115611bc957808604811115611ba557611ba4611994565b5b6001851615611bb45780820291505b8081029050611bc285611b74565b9450611b89565b94509492505050565b5f82611be15760019050611c9c565b81611bee575f9050611c9c565b8160018114611c045760028114611c0e57611c3d565b6001915050611c9c565b60ff841115611c2057611c1f611994565b5b8360020a915084821115611c3757611c36611994565b5b50611c9c565b5060208310610133831016604e8410600b8410161715611c725782820a905083811115611c6d57611c6c611994565b5b611c9c565b611c7f8484846001611b80565b92509050818404811115611c9657611c95611994565b5b81810290505b9392505050565b5f611cad8261162d565b9150611cb883611b13565b9250611ce57fffffffffffffffffffffffffffffffffffffffffffffffffffffffffffffffff8484611bd2565b905092915050565b5f81519050611cfb81611662565b92915050565b5f60208284031215611d1657611d1561165e565b5b5f611d2384828501611ced565b91505092915050565b7f4e487b71000000000000000000000000000000000000000000000000000000005f52601260045260245ffd5b5f611d638261162d565b9150611d6e8361162d565b925082611d7e57611d7d611d2c565b5b828204905092915050565b5f604082019050611d9c5f83018561173e565b611da96020830184611636565b9392505050565b7f506f6f6c3a20494e53554646494349454e545f414d4f554e54000000000000005f82015250565b5f611de46019836118b4565b9150611def82611db0565b602082019050919050565b5f6020820190508181035f830152611e1181611dd8565b9050919050565b7f506f6f6c3a20414c52454144595f494e495449414c495a4544000000000000005f82015250565b5f611e4c6019836118b4565b9150611e5782611e18565b602082019050919050565b5f6020820190508181035f830152611e7981611e40565b9050919050565b5f606082019050611e935f83018661173e565b611ea0602083018561173e565b611ead6040830184611636565b94935050505056fea2646970667358221220938a6e759c3789f1f21d17b46dfafa8db0bd103933ed3571ade601fae38fb94a64736f6c634300081a0033",
					"opcodes": "PUSH1 0x80 PUSH1 0x40 MSTORE CALLVALUE DUP1 ISZERO PUSH2 0xF JUMPI PUSH0 DUP1 REVERT JUMPDEST POP PUSH1 0x40 MLOAD PUSH2 0x221E CODESIZE SUB DUP1 PUSH2 0x221E DUP4 CODECOPY DUP2 DUP2 ADD PUSH1 0x40 MSTORE DUP2 ADD SWAP1 PUSH2 0x31 SWAP2 SWAP1 PUSH2 0x29A JUMP JUMPDEST DUP1 PUSH0 PUSH20 0xFFFFFFFFFFFFFFFFFFFFFFFFFFFFFFFFFFFFFFFF AND DUP2 PUSH20 0xFFFFFFFFFFFFFFFFFFFFFFFFFFFFFFFFFFFFFFFF AND SUB PUSH2 0xA2 JUMPI PUSH0 PUSH1 0x40 MLOAD PUSH32 0x1E4FBDF700000000000000000000000000000000000000000000000000000000 DUP2 MSTORE PUSH1 0x4 ADD PUSH2 0x99 SWAP2 SWAP1 PUSH2 0x30D JUMP JUMPDEST PUSH1 0x40 MLOAD DUP1 SWAP2 SUB SWAP1 REVERT JUMPDEST PUSH2 0xB1 DUP2 PUSH2 0x17B PUSH1 0x20 SHL PUSH1 0x20 SHR JUMP JUMPDEST POP DUP4 PUSH1 0x1 PUSH0 PUSH2 0x100 EXP DUP2 SLOAD DUP2 PUSH20 0xFFFFFFFFFFFFFFFFFFFFFFFFFFFFFFFFFFFFFFFF MUL NOT AND SWAP1 DUP4 PUSH20 0xFFFFFFFFFFFFFFFFFFFFFFFFFFFFFFFFFFFFFFFF AND MUL OR SWAP1 SSTORE POP DUP3 PUSH1 0x2 PUSH0 PUSH2 0x100 EXP DUP2 SLOAD DUP2 PUSH20 0xFFFFFFFFFFFFFFFFFFFFFFFFFFFFFFFFFFFFFFFF MUL NOT AND SWAP1 DUP4 PUSH20 0xFFFFFFFFFFFFFFFFFFFFFFFFFFFFFFFFFFFFFFFF AND MUL OR SWAP1 SSTORE POP DUP2 PUSH1 0x3 PUSH0 PUSH2 0x100 EXP DUP2 SLOAD DUP2 PUSH20 0xFFFFFFFFFFFFFFFFFFFFFFFFFFFFFFFFFFFFFFFF MUL NOT AND SWAP1 DUP4 PUSH20 0xFFFFFFFFFFFFFFFFFFFFFFFFFFFFFFFFFFFFFFFF AND MUL OR SWAP1 SSTORE POP POP POP POP POP PUSH2 0x326 JUMP JUMPDEST PUSH0 DUP1 PUSH0 SWAP1 SLOAD SWAP1 PUSH2 0x100 EXP SWAP1 DIV PUSH20 0xFFFFFFFFFFFFFFFFFFFFFFFFFFFFFFFFFFFFFFFF AND SWAP1 POP DUP2 PUSH0 DUP1 PUSH2 0x100 EXP DUP2 SLOAD DUP2 PUSH20 0xFFFFFFFFFFFFFFFFFFFFFFFFFFFFFFFFFFFFFFFF MUL NOT AND SWAP1 DUP4 PUSH20 0xFFFFFFFFFFFFFFFFFFFFFFFFFFFFFFFFFFFFFFFF AND MUL OR SWAP1 SSTORE POP DUP2 PUSH20 0xFFFFFFFFFFFFFFFFFFFFFFFFFFFFFFFFFFFFFFFF AND DUP2 PUSH20 0xFFFFFFFFFFFFFFFFFFFFFFFFFFFFFFFFFFFFFFFF AND PUSH32 0x8BE0079C531659141344CD1FD0A4F28419497F9722A3DAAFE3B4186F6B6457E0 PUSH1 0x40 MLOAD PUSH1 0x40 MLOAD DUP1 SWAP2 SUB SWAP1 LOG3 POP POP JUMP JUMPDEST PUSH0 DUP1 REVERT JUMPDEST PUSH0 PUSH20 0xFFFFFFFFFFFFFFFFFFFFFFFFFFFFFFFFFFFFFFFF DUP3 AND SWAP1 POP SWAP2 SWAP1 POP JUMP JUMPDEST PUSH0 PUSH2 0x269 DUP3 PUSH2 0x240 JUMP JUMPDEST SWAP1 POP SWAP2 SWAP1 POP JUMP JUMPDEST PUSH2 0x279 DUP2 PUSH2 0x25F JUMP JUMPDEST DUP2 EQ PUSH2 0x283 JUMPI PUSH0 DUP1 REVERT JUMPDEST POP JUMP JUMPDEST PUSH0 DUP2 MLOAD SWAP1 POP PUSH2 0x294 DUP2 PUSH2 0x270 JUMP JUMPDEST SWAP3 SWAP2 POP POP JUMP JUMPDEST PUSH0 DUP1 PUSH0 DUP1 PUSH1 0x80 DUP6 DUP8 SUB SLT ISZERO PUSH2 0x2B2 JUMPI PUSH2 0x2B1 PUSH2 0x23C JUMP JUMPDEST JUMPDEST PUSH0 PUSH2 0x2BF DUP8 DUP3 DUP9 ADD PUSH2 0x286 JUMP JUMPDEST SWAP5 POP POP PUSH1 0x20 PUSH2 0x2D0 DUP8 DUP3 DUP9 ADD PUSH2 0x286 JUMP JUMPDEST SWAP4 POP POP PUSH1 0x40 PUSH2 0x2E1 DUP8 DUP3 DUP9 ADD PUSH2 0x286 JUMP JUMPDEST SWAP3 POP POP PUSH1 0x60 PUSH2 0x2F2 DUP8 DUP3 DUP9 ADD PUSH2 0x286 JUMP JUMPDEST SWAP2 POP POP SWAP3 SWAP6 SWAP2 SWAP5 POP SWAP3 POP JUMP JUMPDEST PUSH2 0x307 DUP2 PUSH2 0x25F JUMP JUMPDEST DUP3 MSTORE POP POP JUMP JUMPDEST PUSH0 PUSH1 0x20 DUP3 ADD SWAP1 POP PUSH2 0x320 PUSH0 DUP4 ADD DUP5 PUSH2 0x2FE JUMP JUMPDEST SWAP3 SWAP2 POP POP JUMP JUMPDEST PUSH2 0x1EEB DUP1 PUSH2 0x333 PUSH0 CODECOPY PUSH0 RETURN INVALID PUSH1 0x80 PUSH1 0x40 MSTORE CALLVALUE DUP1 ISZERO PUSH2 0xF JUMPI PUSH0 DUP1 REVERT JUMPDEST POP PUSH1 0x4 CALLDATASIZE LT PUSH2 0xFE JUMPI PUSH0 CALLDATALOAD PUSH1 0xE0 SHR DUP1 PUSH4 0x8DA5CB5B GT PUSH2 0x95 JUMPI DUP1 PUSH4 0xBA9A7A56 GT PUSH2 0x64 JUMPI DUP1 PUSH4 0xBA9A7A56 EQ PUSH2 0x2A0 JUMPI DUP1 PUSH4 0xD21220A7 EQ PUSH2 0x2BE JUMPI DUP1 PUSH4 0xE4A30116 EQ PUSH2 0x2DC JUMPI DUP1 PUSH4 0xF2FDE38B EQ PUSH2 0x2F8 JUMPI PUSH2 0xFE JUMP JUMPDEST DUP1 PUSH4 0x8DA5CB5B EQ PUSH2 0x1F1 JUMPI DUP1 PUSH4 0x9C8F9F23 EQ PUSH2 0x20F JUMPI DUP1 PUSH4 0x9CD441DA EQ PUSH2 0x240 JUMPI DUP1 PUSH4 0xAD615DEC EQ PUSH2 0x270 JUMPI PUSH2 0xFE JUMP JUMPDEST DUP1 PUSH4 0x5FCBD285 GT PUSH2 0xD1 JUMPI DUP1 PUSH4 0x5FCBD285 EQ PUSH2 0x178 JUMPI DUP1 PUSH4 0x60246C88 EQ PUSH2 0x196 JUMPI DUP1 PUSH4 0x6E8FE678 EQ PUSH2 0x1B7 JUMPI DUP1 PUSH4 0x715018A6 EQ PUSH2 0x1E7 JUMPI PUSH2 0xFE JUMP JUMPDEST DUP1 PUSH4 0xDFE1681 EQ PUSH2 0x102 JUMPI DUP1 PUSH4 0x443CB4BC EQ PUSH2 0x120 JUMPI DUP1 PUSH4 0x562E19DF EQ PUSH2 0x13E JUMPI DUP1 PUSH4 0x5A76F25E EQ PUSH2 0x15A JUMPI JUMPDEST PUSH0 DUP1 REVERT JUMPDEST PUSH2 0x10A PUSH2 0x314 JUMP JUMPDEST PUSH1 0x40 MLOAD PUSH2 0x117 SWAP2 SWAP1 PUSH2 0x1614 JUMP JUMPDEST PUSH1 0x40 MLOAD DUP1 SWAP2 SUB SWAP1 RETURN JUMPDEST PUSH2 0x128 PUSH2 0x339 JUMP JUMPDEST PUSH1 0x40 MLOAD PUSH2 0x135 SWAP2 SWAP1 PUSH2 0x1645 JUMP JUMPDEST PUSH1 0x40 MLOAD DUP1 SWAP2 SUB SWAP1 RETURN JUMPDEST PUSH2 0x158 PUSH1 0x4 DUP1 CALLDATASIZE SUB DUP2 ADD SWAP1 PUSH2 0x153 SWAP2 SWAP1 PUSH2 0x16C7 JUMP JUMPDEST PUSH2 0x33F JUMP JUMPDEST STOP JUMPDEST PUSH2 0x162 PUSH2 0x64B JUMP JUMPDEST PUSH1 0x40 MLOAD PUSH2 0x16F SWAP2 SWAP1 PUSH2 0x1645 JUMP JUMPDEST PUSH1 0x40 MLOAD DUP1 SWAP2 SUB SWAP1 RETURN JUMPDEST PUSH2 0x180 PUSH2 0x651 JUMP JUMPDEST PUSH1 0x40 MLOAD PUSH2 0x18D SWAP2 SWAP1 PUSH2 0x1614 JUMP JUMPDEST PUSH1 0x40 MLOAD DUP1 SWAP2 SUB SWAP1 RETURN JUMPDEST PUSH2 0x19E PUSH2 0x676 JUMP JUMPDEST PUSH1 0x40 MLOAD PUSH2 0x1AE SWAP5 SWAP4 SWAP3 SWAP2 SWAP1 PUSH2 0x174D JUMP JUMPDEST PUSH1 0x40 MLOAD DUP1 SWAP2 SUB SWAP1 RETURN JUMPDEST PUSH2 0x1D1 PUSH1 0x4 DUP1 CALLDATASIZE SUB DUP2 ADD SWAP1 PUSH2 0x1CC SWAP2 SWAP1 PUSH2 0x1790 JUMP JUMPDEST PUSH2 0x6D2 JUMP JUMPDEST PUSH1 0x40 MLOAD PUSH2 0x1DE SWAP2 SWAP1 PUSH2 0x1645 JUMP JUMPDEST PUSH1 0x40 MLOAD DUP1 SWAP2 SUB SWAP1 RETURN JUMPDEST PUSH2 0x1EF PUSH2 0x95F JUMP JUMPDEST STOP JUMPDEST PUSH2 0x1F9 PUSH2 0x972 JUMP JUMPDEST PUSH1 0x40 MLOAD PUSH2 0x206 SWAP2 SWAP1 PUSH2 0x17CE JUMP JUMPDEST PUSH1 0x40 MLOAD DUP1 SWAP2 SUB SWAP1 RETURN JUMPDEST PUSH2 0x229 PUSH1 0x4 DUP1 CALLDATASIZE SUB DUP2 ADD SWAP1 PUSH2 0x224 SWAP2 SWAP1 PUSH2 0x17E7 JUMP JUMPDEST PUSH2 0x999 JUMP JUMPDEST PUSH1 0x40 MLOAD PUSH2 0x237 SWAP3 SWAP2 SWAP1 PUSH2 0x1812 JUMP JUMPDEST PUSH1 0x40 MLOAD DUP1 SWAP2 SUB SWAP1 RETURN JUMPDEST PUSH2 0x25A PUSH1 0x4 DUP1 CALLDATASIZE SUB DUP2 ADD SWAP1 PUSH2 0x255 SWAP2 SWAP1 PUSH2 0x1790 JUMP JUMPDEST PUSH2 0xC20 JUMP JUMPDEST PUSH1 0x40 MLOAD PUSH2 0x267 SWAP2 SWAP1 PUSH2 0x1645 JUMP JUMPDEST PUSH1 0x40 MLOAD DUP1 SWAP2 SUB SWAP1 RETURN JUMPDEST PUSH2 0x28A PUSH1 0x4 DUP1 CALLDATASIZE SUB DUP2 ADD SWAP1 PUSH2 0x285 SWAP2 SWAP1 PUSH2 0x1839 JUMP JUMPDEST PUSH2 0x1049 JUMP JUMPDEST PUSH1 0x40 MLOAD PUSH2 0x297 SWAP2 SWAP1 PUSH2 0x1645 JUMP JUMPDEST PUSH1 0x40 MLOAD DUP1 SWAP2 SUB SWAP1 RETURN JUMPDEST PUSH2 0x2A8 PUSH2 0x10F9 JUMP JUMPDEST PUSH1 0x40 MLOAD PUSH2 0x2B5 SWAP2 SWAP1 PUSH2 0x1645 JUMP JUMPDEST PUSH1 0x40 MLOAD DUP1 SWAP2 SUB SWAP1 RETURN JUMPDEST PUSH2 0x2C6 PUSH2 0x10FF JUMP JUMPDEST PUSH1 0x40 MLOAD PUSH2 0x2D3 SWAP2 SWAP1 PUSH2 0x1614 JUMP JUMPDEST PUSH1 0x40 MLOAD DUP1 SWAP2 SUB SWAP1 RETURN JUMPDEST PUSH2 0x2F6 PUSH1 0x4 DUP1 CALLDATASIZE SUB DUP2 ADD SWAP1 PUSH2 0x2F1 SWAP2 SWAP1 PUSH2 0x1790 JUMP JUMPDEST PUSH2 0x1124 JUMP JUMPDEST STOP JUMPDEST PUSH2 0x312 PUSH1 0x4 DUP1 CALLDATASIZE SUB DUP2 ADD SWAP1 PUSH2 0x30D SWAP2 SWAP1 PUSH2 0x1889 JUMP JUMPDEST PUSH2 0x122B JUMP JUMPDEST STOP JUMPDEST PUSH1 0x1 PUSH0 SWAP1 SLOAD SWAP1 PUSH2 0x100 EXP SWAP1 DIV PUSH20 0xFFFFFFFFFFFFFFFFFFFFFFFFFFFFFFFFFFFFFFFF AND DUP2 JUMP JUMPDEST PUSH1 0x4 SLOAD DUP2 JUMP JUMPDEST PUSH0 DUP4 GT DUP1 PUSH2 0x34C JUMPI POP PUSH0 DUP3 GT JUMPDEST PUSH2 0x38B JUMPI PUSH1 0x40 MLOAD PUSH32 0x8C379A000000000000000000000000000000000000000000000000000000000 DUP2 MSTORE PUSH1 0x4 ADD PUSH2 0x382 SWAP1 PUSH2 0x190E JUMP JUMPDEST PUSH1 0x40 MLOAD DUP1 SWAP2 SUB SWAP1 REVERT JUMPDEST PUSH1 0x4 SLOAD DUP4 LT DUP1 ISZERO PUSH2 0x39D JUMPI POP PUSH1 0x5 SLOAD DUP3 LT JUMPDEST PUSH2 0x3DC JUMPI PUSH1 0x40 MLOAD PUSH32 0x8C379A000000000000000000000000000000000000000000000000000000000 DUP2 MSTORE PUSH1 0x4 ADD PUSH2 0x3D3 SWAP1 PUSH2 0x1976 JUMP JUMPDEST PUSH1 0x40 MLOAD DUP1 SWAP2 SUB SWAP1 REVERT JUMPDEST PUSH0 DUP6 GT ISZERO PUSH2 0x433 JUMPI PUSH2 0x432 CALLER ADDRESS DUP8 PUSH1 0x1 PUSH0 SWAP1 SLOAD SWAP1 PUSH2 0x100 EXP SWAP1 DIV PUSH20 0xFFFFFFFFFFFFFFFFFFFFFFFFFFFFFFFFFFFFFFFF AND PUSH20 0xFFFFFFFFFFFFFFFFFFFFFFFFFFFFFFFFFFFFFFFF AND PUSH2 0x12AF SWAP1 SWAP4 SWAP3 SWAP2 SWAP1 PUSH4 0xFFFFFFFF AND JUMP JUMPDEST JUMPDEST PUSH0 DUP5 GT ISZERO PUSH2 0x48A JUMPI PUSH2 0x489 CALLER ADDRESS DUP7 PUSH1 0x2 PUSH0 SWAP1 SLOAD SWAP1 PUSH2 0x100 EXP SWAP1 DIV PUSH20 0xFFFFFFFFFFFFFFFFFFFFFFFFFFFFFFFFFFFFFFFF AND PUSH20 0xFFFFFFFFFFFFFFFFFFFFFFFFFFFFFFFFFFFFFFFF AND PUSH2 0x12AF SWAP1 SWAP4 SWAP3 SWAP2 SWAP1 PUSH4 0xFFFFFFFF AND JUMP JUMPDEST JUMPDEST PUSH0 DUP4 DUP7 PUSH1 0x4 SLOAD PUSH2 0x49A SWAP2 SWAP1 PUSH2 0x19C1 JUMP JUMPDEST PUSH2 0x4A4 SWAP2 SWAP1 PUSH2 0x19F4 JUMP JUMPDEST SWAP1 POP PUSH0 DUP4 DUP7 PUSH1 0x5 SLOAD PUSH2 0x4B6 SWAP2 SWAP1 PUSH2 0x19C1 JUMP JUMPDEST PUSH2 0x4C0 SWAP2 SWAP1 PUSH2 0x19F4 JUMP JUMPDEST SWAP1 POP PUSH1 0x5 SLOAD PUSH1 0x4 SLOAD PUSH2 0x4D2 SWAP2 SWAP1 PUSH2 0x1A27 JUMP JUMPDEST DUP2 DUP4 PUSH2 0x4DE SWAP2 SWAP1 PUSH2 0x1A27 JUMP JUMPDEST LT ISZERO PUSH2 0x51F JUMPI PUSH1 0x40 MLOAD PUSH32 0x8C379A000000000000000000000000000000000000000000000000000000000 DUP2 MSTORE PUSH1 0x4 ADD PUSH2 0x516 SWAP1 PUSH2 0x1AB2 JUMP JUMPDEST PUSH1 0x40 MLOAD DUP1 SWAP2 SUB SWAP1 REVERT JUMPDEST PUSH0 DUP6 GT ISZERO PUSH2 0x574 JUMPI PUSH2 0x573 DUP4 DUP7 PUSH1 0x1 PUSH0 SWAP1 SLOAD SWAP1 PUSH2 0x100 EXP SWAP1 DIV PUSH20 0xFFFFFFFFFFFFFFFFFFFFFFFFFFFFFFFFFFFFFFFF AND PUSH20 0xFFFFFFFFFFFFFFFFFFFFFFFFFFFFFFFFFFFFFFFF AND PUSH2 0x1331 SWAP1 SWAP3 SWAP2 SWAP1 PUSH4 0xFFFFFFFF AND JUMP JUMPDEST JUMPDEST PUSH0 DUP5 GT ISZERO PUSH2 0x5C9 JUMPI PUSH2 0x5C8 DUP4 DUP6 PUSH1 0x2 PUSH0 SWAP1 SLOAD SWAP1 PUSH2 0x100 EXP SWAP1 DIV PUSH20 0xFFFFFFFFFFFFFFFFFFFFFFFFFFFFFFFFFFFFFFFF AND PUSH20 0xFFFFFFFFFFFFFFFFFFFFFFFFFFFFFFFFFFFFFFFF AND PUSH2 0x1331 SWAP1 SWAP3 SWAP2 SWAP1 PUSH4 0xFFFFFFFF AND JUMP JUMPDEST JUMPDEST DUP2 PUSH1 0x4 DUP2 SWAP1 SSTORE POP DUP1 PUSH1 0x5 DUP2 SWAP1 SSTORE POP DUP3 PUSH20 0xFFFFFFFFFFFFFFFFFFFFFFFFFFFFFFFFFFFFFFFF AND CALLER PUSH20 0xFFFFFFFFFFFFFFFFFFFFFFFFFFFFFFFFFFFFFFFF AND PUSH32 0xD78AD95FA46C994B6551D0DA85FC275FE613CE37657FB8D5E3D130840159D822 DUP10 DUP10 DUP10 DUP10 PUSH1 0x40 MLOAD PUSH2 0x63A SWAP5 SWAP4 SWAP3 SWAP2 SWAP1 PUSH2 0x1AD0 JUMP JUMPDEST PUSH1 0x40 MLOAD DUP1 SWAP2 SUB SWAP1 LOG3 POP POP POP POP POP POP POP JUMP JUMPDEST PUSH1 0x5 SLOAD DUP2 JUMP JUMPDEST PUSH1 0x3 PUSH0 SWAP1 SLOAD SWAP1 PUSH2 0x100 EXP SWAP1 DIV PUSH20 0xFFFFFFFFFFFFFFFFFFFFFFFFFFFFFFFFFFFFFFFF AND DUP2 JUMP JUMPDEST PUSH0 DUP1 PUSH0 DUP1 PUSH1 0x1 PUSH0 SWAP1 SLOAD SWAP1 PUSH2 0x100 EXP SWAP1 DIV PUSH20 0xFFFFFFFFFFFFFFFFFFFFFFFFFFFFFFFFFFFFFFFF AND PUSH1 0x2 PUSH0 SWAP1 SLOAD SWAP1 PUSH2 0x100 EXP SWAP1 DIV PUSH20 0xFFFFFFFFFFFFFFFFFFFFFFFFFFFFFFFFFFFFFFFF AND PUSH1 0x4 SLOAD PUSH1 0x5 SLOAD SWAP4 POP SWAP4 POP SWAP4 POP SWAP4 POP SWAP1 SWAP2 SWAP3 SWAP4 JUMP JUMPDEST PUSH0 PUSH1 0x2 PUSH0 SWAP1 SLOAD SWAP1 PUSH2 0x100 EXP SWAP1 DIV PUSH20 0xFFFFFFFFFFFFFFFFFFFFFFFFFFFFFFFFFFFFFFFF AND PUSH20 0xFFFFFFFFFFFFFFFFFFFFFFFFFFFFFFFFFFFFFFFF AND PUSH4 0x313CE567 PUSH1 0x40 MLOAD DUP2 PUSH4 0xFFFFFFFF AND PUSH1 0xE0 SHL DUP2 MSTORE PUSH1 0x4 ADD PUSH1 0x20 PUSH1 0x40 MLOAD DUP1 DUP4 SUB DUP2 DUP7 GAS STATICCALL ISZERO DUP1 ISZERO PUSH2 0x73D JUMPI RETURNDATASIZE PUSH0 DUP1 RETURNDATACOPY RETURNDATASIZE PUSH0 REVERT JUMPDEST POP POP POP POP PUSH1 0x40 MLOAD RETURNDATASIZE PUSH1 0x1F NOT PUSH1 0x1F DUP3 ADD AND DUP3 ADD DUP1 PUSH1 0x40 MSTORE POP DUP2 ADD SWAP1 PUSH2 0x761 SWAP2 SWAP1 PUSH2 0x1B49 JUMP JUMPDEST PUSH1 0xA PUSH2 0x76D SWAP2 SWAP1 PUSH2 0x1CA3 JUMP JUMPDEST PUSH1 0x2 PUSH0 SWAP1 SLOAD SWAP1 PUSH2 0x100 EXP SWAP1 DIV PUSH20 0xFFFFFFFFFFFFFFFFFFFFFFFFFFFFFFFFFFFFFFFF AND PUSH20 0xFFFFFFFFFFFFFFFFFFFFFFFFFFFFFFFFFFFFFFFF AND PUSH4 0xFDD760EA PUSH1 0x40 MLOAD DUP2 PUSH4 0xFFFFFFFF AND PUSH1 0xE0 SHL DUP2 MSTORE PUSH1 0x4 ADD PUSH1 0x20 PUSH1 0x40 MLOAD DUP1 DUP4 SUB DUP2 DUP7 GAS STATICCALL ISZERO DUP1 ISZERO PUSH2 0x7D7 JUMPI RETURNDATASIZE PUSH0 DUP1 RETURNDATACOPY RETURNDATASIZE PUSH0 REVERT JUMPDEST POP POP POP POP PUSH1 0x40 MLOAD RETURNDATASIZE PUSH1 0x1F NOT PUSH1 0x1F DUP3 ADD AND DUP3 ADD DUP1 PUSH1 0x40 MSTORE POP DUP2 ADD SWAP1 PUSH2 0x7FB SWAP2 SWAP1 PUSH2 0x1D01 JUMP JUMPDEST DUP4 PUSH2 0x806 SWAP2 SWAP1 PUSH2 0x1A27 JUMP JUMPDEST PUSH2 0x810 SWAP2 SWAP1 PUSH2 0x1D59 JUMP JUMPDEST PUSH1 0x1 PUSH0 SWAP1 SLOAD SWAP1 PUSH2 0x100 EXP SWAP1 DIV PUSH20 0xFFFFFFFFFFFFFFFFFFFFFFFFFFFFFFFFFFFFFFFF AND PUSH20 0xFFFFFFFFFFFFFFFFFFFFFFFFFFFFFFFFFFFFFFFF AND PUSH4 0x313CE567 PUSH1 0x40 MLOAD DUP2 PUSH4 0xFFFFFFFF AND PUSH1 0xE0 SHL DUP2 MSTORE PUSH1 0x4 ADD PUSH1 0x20 PUSH1 0x40 MLOAD DUP1 DUP4 SUB DUP2 DUP7 GAS STATICCALL ISZERO DUP1 ISZERO PUSH2 0x87A JUMPI RETURNDATASIZE PUSH0 DUP1 RETURNDATACOPY RETURNDATASIZE PUSH0 REVERT JUMPDEST POP POP POP POP PUSH1 0x40 MLOAD RETURNDATASIZE PUSH1 0x1F NOT PUSH1 0x1F DUP3 ADD AND DUP3 ADD DUP1 PUSH1 0x40 MSTORE POP DUP2 ADD SWAP1 PUSH2 0x89E SWAP2 SWAP1 PUSH2 0x1B49 JUMP JUMPDEST PUSH1 0xA PUSH2 0x8AA SWAP2 SWAP1 PUSH2 0x1CA3 JUMP JUMPDEST PUSH1 0x1 PUSH0 SWAP1 SLOAD SWAP1 PUSH2 0x100 EXP SWAP1 DIV PUSH20 0xFFFFFFFFFFFFFFFFFFFFFFFFFFFFFFFFFFFFFFFF AND PUSH20 0xFFFFFFFFFFFFFFFFFFFFFFFFFFFFFFFFFFFFFFFF AND PUSH4 0xFDD760EA PUSH1 0x40 MLOAD DUP2 PUSH4 0xFFFFFFFF AND PUSH1 0xE0 SHL DUP2 MSTORE PUSH1 0x4 ADD PUSH1 0x20 PUSH1 0x40 MLOAD DUP1 DUP4 SUB DUP2 DUP7 GAS STATICCALL ISZERO DUP1 ISZERO PUSH2 0x914 JUMPI RETURNDATASIZE PUSH0 DUP1 RETURNDATACOPY RETURNDATASIZE PUSH0 REVERT JUMPDEST POP POP POP POP PUSH1 0x40 MLOAD RETURNDATASIZE PUSH1 0x1F NOT PUSH1 0x1F DUP3 ADD AND DUP3 ADD DUP1 PUSH1 0x40 MSTORE POP DUP2 ADD SWAP1 PUSH2 0x938 SWAP2 SWAP1 PUSH2 0x1D01 JUMP JUMPDEST DUP6 PUSH2 0x943 SWAP2 SWAP1 PUSH2 0x1A27 JUMP JUMPDEST PUSH2 0x94D SWAP2 SWAP1 PUSH2 0x1D59 JUMP JUMPDEST PUSH2 0x957 SWAP2 SWAP1 PUSH2 0x19C1 JUMP JUMPDEST SWAP1 POP SWAP3 SWAP2 POP POP JUMP JUMPDEST PUSH2 0x967 PUSH2 0x13B0 JUMP JUMPDEST PUSH2 0x970 PUSH0 PUSH2 0x1437 JUMP JUMPDEST JUMP JUMPDEST PUSH0 DUP1 PUSH0 SWAP1 SLOAD SWAP1 PUSH2 0x100 EXP SWAP1 DIV PUSH20 0xFFFFFFFFFFFFFFFFFFFFFFFFFFFFFFFFFFFFFFFF AND SWAP1 POP SWAP1 JUMP JUMPDEST PUSH0 DUP1 PUSH1 0x3 PUSH0 SWAP1 SLOAD SWAP1 PUSH2 0x100 EXP SWAP1 DIV PUSH20 0xFFFFFFFFFFFFFFFFFFFFFFFFFFFFFFFFFFFFFFFF AND PUSH20 0xFFFFFFFFFFFFFFFFFFFFFFFFFFFFFFFFFFFFFFFF AND PUSH4 0x9DC29FAC CALLER DUP6 PUSH1 0x40 MLOAD DUP4 PUSH4 0xFFFFFFFF AND PUSH1 0xE0 SHL DUP2 MSTORE PUSH1 0x4 ADD PUSH2 0x9F7 SWAP3 SWAP2 SWAP1 PUSH2 0x1D89 JUMP JUMPDEST PUSH0 PUSH1 0x40 MLOAD DUP1 DUP4 SUB DUP2 PUSH0 DUP8 DUP1 EXTCODESIZE ISZERO DUP1 ISZERO PUSH2 0xA0E JUMPI PUSH0 DUP1 REVERT JUMPDEST POP GAS CALL ISZERO DUP1 ISZERO PUSH2 0xA20 JUMPI RETURNDATASIZE PUSH0 DUP1 RETURNDATACOPY RETURNDATASIZE PUSH0 REVERT JUMPDEST POP POP POP POP PUSH0 PUSH1 0x3 PUSH0 SWAP1 SLOAD SWAP1 PUSH2 0x100 EXP SWAP1 DIV PUSH20 0xFFFFFFFFFFFFFFFFFFFFFFFFFFFFFFFFFFFFFFFF AND PUSH20 0xFFFFFFFFFFFFFFFFFFFFFFFFFFFFFFFFFFFFFFFF AND PUSH4 0x18160DDD PUSH1 0x40 MLOAD DUP2 PUSH4 0xFFFFFFFF AND PUSH1 0xE0 SHL DUP2 MSTORE PUSH1 0x4 ADD PUSH1 0x20 PUSH1 0x40 MLOAD DUP1 DUP4 SUB DUP2 DUP7 GAS STATICCALL ISZERO DUP1 ISZERO PUSH2 0xA8F JUMPI RETURNDATASIZE PUSH0 DUP1 RETURNDATACOPY RETURNDATASIZE PUSH0 REVERT JUMPDEST POP POP POP POP PUSH1 0x40 MLOAD RETURNDATASIZE PUSH1 0x1F NOT PUSH1 0x1F DUP3 ADD AND DUP3 ADD DUP1 PUSH1 0x40 MSTORE POP DUP2 ADD SWAP1 PUSH2 0xAB3 SWAP2 SWAP1 PUSH2 0x1D01 JUMP JUMPDEST SWAP1 POP DUP1 PUSH1 0x4 SLOAD DUP6 PUSH2 0xAC4 SWAP2 SWAP1 PUSH2 0x1A27 JUMP JUMPDEST PUSH2 0xACE SWAP2 SWAP1 PUSH2 0x1D59 JUMP JUMPDEST SWAP3 POP DUP1 PUSH1 0x5 SLOAD DUP6 PUSH2 0xADF SWAP2 SWAP1 PUSH2 0x1A27 JUMP JUMPDEST PUSH2 0xAE9 SWAP2 SWAP1 PUSH2 0x1D59 JUMP JUMPDEST SWAP2 POP PUSH2 0xB37 CALLER DUP5 PUSH1 0x1 PUSH0 SWAP1 SLOAD SWAP1 PUSH2 0x100 EXP SWAP1 DIV PUSH20 0xFFFFFFFFFFFFFFFFFFFFFFFFFFFFFFFFFFFFFFFF AND PUSH20 0xFFFFFFFFFFFFFFFFFFFFFFFFFFFFFFFFFFFFFFFF AND PUSH2 0x1331 SWAP1 SWAP3 SWAP2 SWAP1 PUSH4 0xFFFFFFFF AND JUMP JUMPDEST PUSH2 0xB83 CALLER DUP4 PUSH1 0x2 PUSH0 SWAP1 SLOAD SWAP1 PUSH2 0x100 EXP SWAP1 DIV PUSH20 0xFFFFFFFFFFFFFFFFFFFFFFFFFFFFFFFFFFFFFFFF AND PUSH20 0xFFFFFFFFFFFFFFFFFFFFFFFFFFFFFFFFFFFFFFFF AND PUSH2 0x1331 SWAP1 SWAP3 SWAP2 SWAP1 PUSH4 0xFFFFFFFF AND JUMP JUMPDEST DUP3 PUSH1 0x4 PUSH0 DUP3 DUP3 SLOAD PUSH2 0xB94 SWAP2 SWAP1 PUSH2 0x19F4 JUMP JUMPDEST SWAP3 POP POP DUP2 SWAP1 SSTORE POP DUP2 PUSH1 0x5 PUSH0 DUP3 DUP3 SLOAD PUSH2 0xBAC SWAP2 SWAP1 PUSH2 0x19F4 JUMP JUMPDEST SWAP3 POP POP DUP2 SWAP1 SSTORE POP CALLER PUSH20 0xFFFFFFFFFFFFFFFFFFFFFFFFFFFFFFFFFFFFFFFF AND CALLER PUSH20 0xFFFFFFFFFFFFFFFFFFFFFFFFFFFFFFFFFFFFFFFF AND PUSH32 0xDCCD412F0B1252819CB1FD330B93224CA42612892BB3F4F789976E6D81936496 DUP6 DUP6 PUSH1 0x40 MLOAD PUSH2 0xC12 SWAP3 SWAP2 SWAP1 PUSH2 0x1812 JUMP JUMPDEST PUSH1 0x40 MLOAD DUP1 SWAP2 SUB SWAP1 LOG3 POP SWAP2 POP SWAP2 JUMP JUMPDEST PUSH0 DUP1 PUSH0 DUP1 PUSH1 0x4 SLOAD EQ DUP1 ISZERO PUSH2 0xC35 JUMPI POP PUSH0 PUSH1 0x5 SLOAD EQ JUMPDEST ISZERO PUSH2 0xC45 JUMPI DUP5 SWAP2 POP DUP4 SWAP1 POP PUSH2 0xC85 JUMP JUMPDEST PUSH0 PUSH2 0xC55 DUP7 PUSH1 0x4 SLOAD PUSH1 0x5 SLOAD PUSH2 0x1049 JUMP JUMPDEST SWAP1 POP DUP5 DUP2 GT PUSH2 0xC69 JUMPI DUP6 SWAP3 POP DUP1 SWAP2 POP PUSH2 0xC83 JUMP JUMPDEST PUSH0 PUSH2 0xC79 DUP7 PUSH1 0x5 SLOAD PUSH1 0x4 SLOAD PUSH2 0x1049 JUMP JUMPDEST SWAP1 POP DUP1 SWAP4 POP DUP6 SWAP3 POP POP JUMPDEST POP JUMPDEST PUSH2 0xCD3 CALLER ADDRESS DUP5 PUSH1 0x1 PUSH0 SWAP1 SLOAD SWAP1 PUSH2 0x100 EXP SWAP1 DIV PUSH20 0xFFFFFFFFFFFFFFFFFFFFFFFFFFFFFFFFFFFFFFFF AND PUSH20 0xFFFFFFFFFFFFFFFFFFFFFFFFFFFFFFFFFFFFFFFF AND PUSH2 0x12AF SWAP1 SWAP4 SWAP3 SWAP2 SWAP1 PUSH4 0xFFFFFFFF AND JUMP JUMPDEST PUSH2 0xD21 CALLER ADDRESS DUP4 PUSH1 0x2 PUSH0 SWAP1 SLOAD SWAP1 PUSH2 0x100 EXP SWAP1 DIV PUSH20 0xFFFFFFFFFFFFFFFFFFFFFFFFFFFFFFFFFFFFFFFF AND PUSH20 0xFFFFFFFFFFFFFFFFFFFFFFFFFFFFFFFFFFFFFFFF AND PUSH2 0x12AF SWAP1 SWAP4 SWAP3 SWAP2 SWAP1 PUSH4 0xFFFFFFFF AND JUMP JUMPDEST PUSH0 PUSH1 0x3 PUSH0 SWAP1 SLOAD SWAP1 PUSH2 0x100 EXP SWAP1 DIV PUSH20 0xFFFFFFFFFFFFFFFFFFFFFFFFFFFFFFFFFFFFFFFF AND PUSH20 0xFFFFFFFFFFFFFFFFFFFFFFFFFFFFFFFFFFFFFFFF AND PUSH4 0x18160DDD PUSH1 0x40 MLOAD DUP2 PUSH4 0xFFFFFFFF AND PUSH1 0xE0 SHL DUP2 MSTORE PUSH1 0x4 ADD PUSH1 0x20 PUSH1 0x40 MLOAD DUP1 DUP4 SUB DUP2 DUP7 GAS STATICCALL ISZERO DUP1 ISZERO PUSH2 0xD8C JUMPI RETURNDATASIZE PUSH0 DUP1 RETURNDATACOPY RETURNDATASIZE PUSH0 REVERT JUMPDEST POP POP POP POP PUSH1 0x40 MLOAD RETURNDATASIZE PUSH1 0x1F NOT PUSH1 0x1F DUP3 ADD AND DUP3 ADD DUP1 PUSH1 0x40 MSTORE POP DUP2 ADD SWAP1 PUSH2 0xDB0 SWAP2 SWAP1 PUSH2 0x1D01 JUMP JUMPDEST SWAP1 POP PUSH0 DUP2 SUB PUSH2 0xEEB JUMPI PUSH1 0x3 PUSH0 SWAP1 SLOAD SWAP1 PUSH2 0x100 EXP SWAP1 DIV PUSH20 0xFFFFFFFFFFFFFFFFFFFFFFFFFFFFFFFFFFFFFFFF AND PUSH20 0xFFFFFFFFFFFFFFFFFFFFFFFFFFFFFFFFFFFFFFFF AND PUSH4 0xFDD760EA PUSH1 0x40 MLOAD DUP2 PUSH4 0xFFFFFFFF AND PUSH1 0xE0 SHL DUP2 MSTORE PUSH1 0x4 ADD PUSH1 0x20 PUSH1 0x40 MLOAD DUP1 DUP4 SUB DUP2 DUP7 GAS STATICCALL ISZERO DUP1 ISZERO PUSH2 0xE23 JUMPI RETURNDATASIZE PUSH0 DUP1 RETURNDATACOPY RETURNDATASIZE PUSH0 REVERT JUMPDEST POP POP POP POP PUSH1 0x40 MLOAD RETURNDATASIZE PUSH1 0x1F NOT PUSH1 0x1F DUP3 ADD AND DUP3 ADD DUP1 PUSH1 0x40 MSTORE POP DUP2 ADD SWAP1 PUSH2 0xE47 SWAP2 SWAP1 PUSH2 0x1D01 JUMP JUMPDEST PUSH2 0xE51 DUP5 DUP5 PUSH2 0x6D2 JUMP JUMPDEST PUSH2 0xE5B SWAP2 SWAP1 PUSH2 0x1D59 JUMP JUMPDEST SWAP4 POP PUSH1 0x3 PUSH0 SWAP1 SLOAD SWAP1 PUSH2 0x100 EXP SWAP1 DIV PUSH20 0xFFFFFFFFFFFFFFFFFFFFFFFFFFFFFFFFFFFFFFFF AND PUSH20 0xFFFFFFFFFFFFFFFFFFFFFFFFFFFFFFFFFFFFFFFF AND PUSH4 0x40C10F19 CALLER DUP7 PUSH1 0x40 MLOAD DUP4 PUSH4 0xFFFFFFFF AND PUSH1 0xE0 SHL DUP2 MSTORE PUSH1 0x4 ADD PUSH2 0xEB9 SWAP3 SWAP2 SWAP1 PUSH2 0x1D89 JUMP JUMPDEST PUSH0 PUSH1 0x40 MLOAD DUP1 DUP4 SUB DUP2 PUSH0 DUP8 DUP1 EXTCODESIZE ISZERO DUP1 ISZERO PUSH2 0xED0 JUMPI PUSH0 DUP1 REVERT JUMPDEST POP GAS CALL ISZERO DUP1 ISZERO PUSH2 0xEE2 JUMPI RETURNDATASIZE PUSH0 DUP1 RETURNDATACOPY RETURNDATASIZE PUSH0 REVERT JUMPDEST POP POP POP POP PUSH2 0xFC0 JUMP JUMPDEST PUSH0 PUSH1 0x4 SLOAD DUP3 DUP6 PUSH2 0xEFB SWAP2 SWAP1 PUSH2 0x1A27 JUMP JUMPDEST PUSH2 0xF05 SWAP2 SWAP1 PUSH2 0x1D59 JUMP JUMPDEST SWAP1 POP PUSH0 PUSH1 0x5 SLOAD DUP4 DUP6 PUSH2 0xF17 SWAP2 SWAP1 PUSH2 0x1A27 JUMP JUMPDEST PUSH2 0xF21 SWAP2 SWAP1 PUSH2 0x1D59 JUMP JUMPDEST SWAP1 POP DUP1 DUP3 LT PUSH2 0xF30 JUMPI DUP1 PUSH2 0xF32 JUMP JUMPDEST DUP2 JUMPDEST SWAP6 POP PUSH1 0x3 PUSH0 SWAP1 SLOAD SWAP1 PUSH2 0x100 EXP SWAP1 DIV PUSH20 0xFFFFFFFFFFFFFFFFFFFFFFFFFFFFFFFFFFFFFFFF AND PUSH20 0xFFFFFFFFFFFFFFFFFFFFFFFFFFFFFFFFFFFFFFFF AND PUSH4 0x40C10F19 CALLER DUP9 PUSH1 0x40 MLOAD DUP4 PUSH4 0xFFFFFFFF AND PUSH1 0xE0 SHL DUP2 MSTORE PUSH1 0x4 ADD PUSH2 0xF90 SWAP3 SWAP2 SWAP1 PUSH2 0x1D89 JUMP JUMPDEST PUSH0 PUSH1 0x40 MLOAD DUP1 DUP4 SUB DUP2 PUSH0 DUP8 DUP1 EXTCODESIZE ISZERO DUP1 ISZERO PUSH2 0xFA7 JUMPI PUSH0 DUP1 REVERT JUMPDEST POP GAS CALL ISZERO DUP1 ISZERO PUSH2 0xFB9 JUMPI RETURNDATASIZE PUSH0 DUP1 RETURNDATACOPY RETURNDATASIZE PUSH0 REVERT JUMPDEST POP POP POP POP POP POP JUMPDEST DUP3 PUSH1 0x4 PUSH0 DUP3 DUP3 SLOAD PUSH2 0xFD1 SWAP2 SWAP1 PUSH2 0x19C1 JUMP JUMPDEST SWAP3 POP POP DUP2 SWAP1 SSTORE POP DUP2 PUSH1 0x5 PUSH0 DUP3 DUP3 SLOAD PUSH2 0xFE9 SWAP2 SWAP1 PUSH2 0x19C1 JUMP JUMPDEST SWAP3 POP POP DUP2 SWAP1 SSTORE POP CALLER PUSH20 0xFFFFFFFFFFFFFFFFFFFFFFFFFFFFFFFFFFFFFFFF AND PUSH32 0x4C209B5FC8AD50758F13E2E1088BA56A560DFF690A1C6FEF26394F4C03821C4F DUP5 DUP5 PUSH1 0x40 MLOAD PUSH2 0x1038 SWAP3 SWAP2 SWAP1 PUSH2 0x1812 JUMP JUMPDEST PUSH1 0x40 MLOAD DUP1 SWAP2 SUB SWAP1 LOG2 POP POP POP SWAP3 SWAP2 POP POP JUMP JUMPDEST PUSH0 DUP1 DUP5 GT PUSH2 0x108C JUMPI PUSH1 0x40 MLOAD PUSH32 0x8C379A000000000000000000000000000000000000000000000000000000000 DUP2 MSTORE PUSH1 0x4 ADD PUSH2 0x1083 SWAP1 PUSH2 0x1DFA JUMP JUMPDEST PUSH1 0x40 MLOAD DUP1 SWAP2 SUB SWAP1 REVERT JUMPDEST PUSH0 DUP4 GT DUP1 ISZERO PUSH2 0x109A JUMPI POP PUSH0 DUP3 GT JUMPDEST PUSH2 0x10D9 JUMPI PUSH1 0x40 MLOAD PUSH32 0x8C379A000000000000000000000000000000000000000000000000000000000 DUP2 MSTORE PUSH1 0x4 ADD PUSH2 0x10D0 SWAP1 PUSH2 0x1976 JUMP JUMPDEST PUSH1 0x40 MLOAD DUP1 SWAP2 SUB SWAP1 REVERT JUMPDEST DUP3 DUP3 DUP6 PUSH2 0x10E6 SWAP2 SWAP1 PUSH2 0x1A27 JUMP JUMPDEST PUSH2 0x10F0 SWAP2 SWAP1 PUSH2 0x1D59 JUMP JUMPDEST SWAP1 POP SWAP4 SWAP3 POP POP POP JUMP JUMPDEST PUSH2 0x3E8 DUP2 JUMP JUMPDEST PUSH1 0x2 PUSH0 SWAP1 SLOAD SWAP1 PUSH2 0x100 EXP SWAP1 DIV PUSH20 0xFFFFFFFFFFFFFFFFFFFFFFFFFFFFFFFFFFFFFFFF AND DUP2 JUMP JUMPDEST PUSH2 0x112C PUSH2 0x13B0 JUMP JUMPDEST PUSH0 PUSH1 0x4 SLOAD EQ DUP1 ISZERO PUSH2 0x113E JUMPI POP PUSH0 PUSH1 0x5 SLOAD EQ JUMPDEST PUSH2 0x117D JUMPI PUSH1 0x40 MLOAD PUSH32 0x8C379A000000000000000000000000000000000000000000000000000000000 DUP2 MSTORE PUSH1 0x4 ADD PUSH2 0x1174 SWAP1 PUSH2 0x1E62 JUMP JUMPDEST PUSH1 0x40 MLOAD DUP1 SWAP2 SUB SWAP1 REVERT JUMPDEST PUSH2 0x11CB CALLER ADDRESS DUP5 PUSH1 0x1 PUSH0 SWAP1 SLOAD SWAP1 PUSH2 0x100 EXP SWAP1 DIV PUSH20 0xFFFFFFFFFFFFFFFFFFFFFFFFFFFFFFFFFFFFFFFF AND PUSH20 0xFFFFFFFFFFFFFFFFFFFFFFFFFFFFFFFFFFFFFFFF AND PUSH2 0x12AF SWAP1 SWAP4 SWAP3 SWAP2 SWAP1 PUSH4 0xFFFFFFFF AND JUMP JUMPDEST PUSH2 0x1219 CALLER ADDRESS DUP4 PUSH1 0x2 PUSH0 SWAP1 SLOAD SWAP1 PUSH2 0x100 EXP SWAP1 DIV PUSH20 0xFFFFFFFFFFFFFFFFFFFFFFFFFFFFFFFFFFFFFFFF AND PUSH20 0xFFFFFFFFFFFFFFFFFFFFFFFFFFFFFFFFFFFFFFFF AND PUSH2 0x12AF SWAP1 SWAP4 SWAP3 SWAP2 SWAP1 PUSH4 0xFFFFFFFF AND JUMP JUMPDEST DUP2 PUSH1 0x4 DUP2 SWAP1 SSTORE POP DUP1 PUSH1 0x5 DUP2 SWAP1 SSTORE POP POP POP JUMP JUMPDEST PUSH2 0x1233 PUSH2 0x13B0 JUMP JUMPDEST PUSH0 PUSH20 0xFFFFFFFFFFFFFFFFFFFFFFFFFFFFFFFFFFFFFFFF AND DUP2 PUSH20 0xFFFFFFFFFFFFFFFFFFFFFFFFFFFFFFFFFFFFFFFF AND SUB PUSH2 0x12A3 JUMPI PUSH0 PUSH1 0x40 MLOAD PUSH32 0x1E4FBDF700000000000000000000000000000000000000000000000000000000 DUP2 MSTORE PUSH1 0x4 ADD PUSH2 0x129A SWAP2 SWAP1 PUSH2 0x17CE JUMP JUMPDEST PUSH1 0x40 MLOAD DUP1 SWAP2 SUB SWAP1 REVERT JUMPDEST PUSH2 0x12AC DUP2 PUSH2 0x1437 JUMP JUMPDEST POP JUMP JUMPDEST PUSH2 0x132B DUP5 DUP6 PUSH20 0xFFFFFFFFFFFFFFFFFFFFFFFFFFFFFFFFFFFFFFFF AND PUSH4 0x23B872DD DUP7 DUP7 DUP7 PUSH1 0x40 MLOAD PUSH1 0x24 ADD PUSH2 0x12E4 SWAP4 SWAP3 SWAP2 SWAP1 PUSH2 0x1E80 JUMP JUMPDEST PUSH1 0x40 MLOAD PUSH1 0x20 DUP2 DUP4 SUB SUB DUP2 MSTORE SWAP1 PUSH1 0x40 MSTORE SWAP2 POP PUSH1 0xE0 SHL PUSH1 0x20 DUP3 ADD DUP1 MLOAD PUSH28 0xFFFFFFFFFFFFFFFFFFFFFFFFFFFFFFFFFFFFFFFFFFFFFFFFFFFFFFFF DUP4 DUP2 DUP4 AND OR DUP4 MSTORE POP POP POP POP PUSH2 0x14F8 JUMP JUMPDEST POP POP POP POP JUMP JUMPDEST PUSH2 0x13AB DUP4 DUP5 PUSH20 0xFFFFFFFFFFFFFFFFFFFFFFFFFFFFFFFFFFFFFFFF AND PUSH4 0xA9059CBB DUP6 DUP6 PUSH1 0x40 MLOAD PUSH1 0x24 ADD PUSH2 0x1364 SWAP3 SWAP2 SWAP1 PUSH2 0x1D89 JUMP JUMPDEST PUSH1 0x40 MLOAD PUSH1 0x20 DUP2 DUP4 SUB SUB DUP2 MSTORE SWAP1 PUSH1 0x40 MSTORE SWAP2 POP PUSH1 0xE0 SHL PUSH1 0x20 DUP3 ADD DUP1 MLOAD PUSH28 0xFFFFFFFFFFFFFFFFFFFFFFFFFFFFFFFFFFFFFFFFFFFFFFFFFFFFFFFF DUP4 DUP2 DUP4 AND OR DUP4 MSTORE POP POP POP POP PUSH2 0x14F8 JUMP JUMPDEST POP POP POP JUMP JUMPDEST PUSH2 0x13B8 PUSH2 0x1593 JUMP JUMPDEST PUSH20 0xFFFFFFFFFFFFFFFFFFFFFFFFFFFFFFFFFFFFFFFF AND PUSH2 0x13D6 PUSH2 0x972 JUMP JUMPDEST PUSH20 0xFFFFFFFFFFFFFFFFFFFFFFFFFFFFFFFFFFFFFFFF AND EQ PUSH2 0x1435 JUMPI PUSH2 0x13F9 PUSH2 0x1593 JUMP JUMPDEST PUSH1 0x40 MLOAD PUSH32 0x118CDAA700000000000000000000000000000000000000000000000000000000 DUP2 MSTORE PUSH1 0x4 ADD PUSH2 0x142C SWAP2 SWAP1 PUSH2 0x17CE JUMP JUMPDEST PUSH1 0x40 MLOAD DUP1 SWAP2 SUB SWAP1 REVERT JUMPDEST JUMP JUMPDEST PUSH0 DUP1 PUSH0 SWAP1 SLOAD SWAP1 PUSH2 0x100 EXP SWAP1 DIV PUSH20 0xFFFFFFFFFFFFFFFFFFFFFFFFFFFFFFFFFFFFFFFF AND SWAP1 POP DUP2 PUSH0 DUP1 PUSH2 0x100 EXP DUP2 SLOAD DUP2 PUSH20 0xFFFFFFFFFFFFFFFFFFFFFFFFFFFFFFFFFFFFFFFF MUL NOT AND SWAP1 DUP4 PUSH20 0xFFFFFFFFFFFFFFFFFFFFFFFFFFFFFFFFFFFFFFFF AND MUL OR SWAP1 SSTORE POP DUP2 PUSH20 0xFFFFFFFFFFFFFFFFFFFFFFFFFFFFFFFFFFFFFFFF AND DUP2 PUSH20 0xFFFFFFFFFFFFFFFFFFFFFFFFFFFFFFFFFFFFFFFF AND PUSH32 0x8BE0079C531659141344CD1FD0A4F28419497F9722A3DAAFE3B4186F6B6457E0 PUSH1 0x40 MLOAD PUSH1 0x40 MLOAD DUP1 SWAP2 SUB SWAP1 LOG3 POP POP JUMP JUMPDEST PUSH0 DUP1 PUSH1 0x20 PUSH0 DUP5 MLOAD PUSH1 0x20 DUP7 ADD PUSH0 DUP9 GAS CALL DUP1 PUSH2 0x1517 JUMPI PUSH1 0x40 MLOAD RETURNDATASIZE PUSH0 DUP3 RETURNDATACOPY RETURNDATASIZE DUP2 REVERT JUMPDEST RETURNDATASIZE SWAP3 POP PUSH0 MLOAD SWAP2 POP POP PUSH0 DUP3 EQ PUSH2 0x1530 JUMPI PUSH1 0x1 DUP2 EQ ISZERO PUSH2 0x154B JUMP JUMPDEST PUSH0 DUP5 PUSH20 0xFFFFFFFFFFFFFFFFFFFFFFFFFFFFFFFFFFFFFFFF AND EXTCODESIZE EQ JUMPDEST ISZERO PUSH2 0x158D JUMPI DUP4 PUSH1 0x40 MLOAD PUSH32 0x5274AFE700000000000000000000000000000000000000000000000000000000 DUP2 MSTORE PUSH1 0x4 ADD PUSH2 0x1584 SWAP2 SWAP1 PUSH2 0x17CE JUMP JUMPDEST PUSH1 0x40 MLOAD DUP1 SWAP2 SUB SWAP1 REVERT JUMPDEST POP POP POP POP JUMP JUMPDEST PUSH0 CALLER SWAP1 POP SWAP1 JUMP JUMPDEST PUSH0 PUSH20 0xFFFFFFFFFFFFFFFFFFFFFFFFFFFFFFFFFFFFFFFF DUP3 AND SWAP1 POP SWAP2 SWAP1 POP JUMP JUMPDEST PUSH0 DUP2 SWAP1 POP SWAP2 SWAP1 POP JUMP JUMPDEST PUSH0 PUSH2 0x15DC PUSH2 0x15D7 PUSH2 0x15D2 DUP5 PUSH2 0x159A JUMP JUMPDEST PUSH2 0x15B9 JUMP JUMPDEST PUSH2 0x159A JUMP JUMPDEST SWAP1 POP SWAP2 SWAP1 POP JUMP JUMPDEST PUSH0 PUSH2 0x15ED DUP3 PUSH2 0x15C2 JUMP JUMPDEST SWAP1 POP SWAP2 SWAP1 POP JUMP JUMPDEST PUSH0 PUSH2 0x15FE DUP3 PUSH2 0x15E3 JUMP JUMPDEST SWAP1 POP SWAP2 SWAP1 POP JUMP JUMPDEST PUSH2 0x160E DUP2 PUSH2 0x15F4 JUMP JUMPDEST DUP3 MSTORE POP POP JUMP JUMPDEST PUSH0 PUSH1 0x20 DUP3 ADD SWAP1 POP PUSH2 0x1627 PUSH0 DUP4 ADD DUP5 PUSH2 0x1605 JUMP JUMPDEST SWAP3 SWAP2 POP POP JUMP JUMPDEST PUSH0 DUP2 SWAP1 POP SWAP2 SWAP1 POP JUMP JUMPDEST PUSH2 0x163F DUP2 PUSH2 0x162D JUMP JUMPDEST DUP3 MSTORE POP POP JUMP JUMPDEST PUSH0 PUSH1 0x20 DUP3 ADD SWAP1 POP PUSH2 0x1658 PUSH0 DUP4 ADD DUP5 PUSH2 0x1636 JUMP JUMPDEST SWAP3 SWAP2 POP POP JUMP JUMPDEST PUSH0 DUP1 REVERT JUMPDEST PUSH2 0x166B DUP2 PUSH2 0x162D JUMP JUMPDEST DUP2 EQ PUSH2 0x1675 JUMPI PUSH0 DUP1 REVERT JUMPDEST POP JUMP JUMPDEST PUSH0 DUP2 CALLDATALOAD SWAP1 POP PUSH2 0x1686 DUP2 PUSH2 0x1662 JUMP JUMPDEST SWAP3 SWAP2 POP POP JUMP JUMPDEST PUSH0 PUSH2 0x1696 DUP3 PUSH2 0x159A JUMP JUMPDEST SWAP1 POP SWAP2 SWAP1 POP JUMP JUMPDEST PUSH2 0x16A6 DUP2 PUSH2 0x168C JUMP JUMPDEST DUP2 EQ PUSH2 0x16B0 JUMPI PUSH0 DUP1 REVERT JUMPDEST POP JUMP JUMPDEST PUSH0 DUP2 CALLDATALOAD SWAP1 POP PUSH2 0x16C1 DUP2 PUSH2 0x169D JUMP JUMPDEST SWAP3 SWAP2 POP POP JUMP JUMPDEST PUSH0 DUP1 PUSH0 DUP1 PUSH0 PUSH1 0xA0 DUP7 DUP9 SUB SLT ISZERO PUSH2 0x16E0 JUMPI PUSH2 0x16DF PUSH2 0x165E JUMP JUMPDEST JUMPDEST PUSH0 PUSH2 0x16ED DUP9 DUP3 DUP10 ADD PUSH2 0x1678 JUMP JUMPDEST SWAP6 POP POP PUSH1 0x20 PUSH2 0x16FE DUP9 DUP3 DUP10 ADD PUSH2 0x1678 JUMP JUMPDEST SWAP5 POP POP PUSH1 0x40 PUSH2 0x170F DUP9 DUP3 DUP10 ADD PUSH2 0x1678 JUMP JUMPDEST SWAP4 POP POP PUSH1 0x60 PUSH2 0x1720 DUP9 DUP3 DUP10 ADD PUSH2 0x1678 JUMP JUMPDEST SWAP3 POP POP PUSH1 0x80 PUSH2 0x1731 DUP9 DUP3 DUP10 ADD PUSH2 0x16B3 JUMP JUMPDEST SWAP2 POP POP SWAP3 SWAP6 POP SWAP3 SWAP6 SWAP1 SWAP4 POP JUMP JUMPDEST PUSH2 0x1747 DUP2 PUSH2 0x168C JUMP JUMPDEST DUP3 MSTORE POP POP JUMP JUMPDEST PUSH0 PUSH1 0x80 DUP3 ADD SWAP1 POP PUSH2 0x1760 PUSH0 DUP4 ADD DUP8 PUSH2 0x173E JUMP JUMPDEST PUSH2 0x176D PUSH1 0x20 DUP4 ADD DUP7 PUSH2 0x173E JUMP JUMPDEST PUSH2 0x177A PUSH1 0x40 DUP4 ADD DUP6 PUSH2 0x1636 JUMP JUMPDEST PUSH2 0x1787 PUSH1 0x60 DUP4 ADD DUP5 PUSH2 0x1636 JUMP JUMPDEST SWAP6 SWAP5 POP POP POP POP POP JUMP JUMPDEST PUSH0 DUP1 PUSH1 0x40 DUP4 DUP6 SUB SLT ISZERO PUSH2 0x17A6 JUMPI PUSH2 0x17A5 PUSH2 0x165E JUMP JUMPDEST JUMPDEST PUSH0 PUSH2 0x17B3 DUP6 DUP3 DUP7 ADD PUSH2 0x1678 JUMP JUMPDEST SWAP3 POP POP PUSH1 0x20 PUSH2 0x17C4 DUP6 DUP3 DUP7 ADD PUSH2 0x1678 JUMP JUMPDEST SWAP2 POP POP SWAP3 POP SWAP3 SWAP1 POP JUMP JUMPDEST PUSH0 PUSH1 0x20 DUP3 ADD SWAP1 POP PUSH2 0x17E1 PUSH0 DUP4 ADD DUP5 PUSH2 0x173E JUMP JUMPDEST SWAP3 SWAP2 POP POP JUMP JUMPDEST PUSH0 PUSH1 0x20 DUP3 DUP5 SUB SLT ISZERO PUSH2 0x17FC JUMPI PUSH2 0x17FB PUSH2 0x165E JUMP JUMPDEST JUMPDEST PUSH0 PUSH2 0x1809 DUP5 DUP3 DUP6 ADD PUSH2 0x1678 JUMP JUMPDEST SWAP2 POP POP SWAP3 SWAP2 POP POP JUMP JUMPDEST PUSH0 PUSH1 0x40 DUP3 ADD SWAP1 POP PUSH2 0x1825 PUSH0 DUP4 ADD DUP6 PUSH2 0x1636 JUMP JUMPDEST PUSH2 0x1832 PUSH1 0x20 DUP4 ADD DUP5 PUSH2 0x1636 JUMP JUMPDEST SWAP4 SWAP3 POP POP POP JUMP JUMPDEST PUSH0 DUP1 PUSH0 PUSH1 0x60 DUP5 DUP7 SUB SLT ISZERO PUSH2 0x1850 JUMPI PUSH2 0x184F PUSH2 0x165E JUMP JUMPDEST JUMPDEST PUSH0 PUSH2 0x185D DUP7 DUP3 DUP8 ADD PUSH2 0x1678 JUMP JUMPDEST SWAP4 POP POP PUSH1 0x20 PUSH2 0x186E DUP7 DUP3 DUP8 ADD PUSH2 0x1678 JUMP JUMPDEST SWAP3 POP POP PUSH1 0x40 PUSH2 0x187F DUP7 DUP3 DUP8 ADD PUSH2 0x1678 JUMP JUMPDEST SWAP2 POP POP SWAP3 POP SWAP3 POP SWAP3 JUMP JUMPDEST PUSH0 PUSH1 0x20 DUP3 DUP5 SUB SLT ISZERO PUSH2 0x189E JUMPI PUSH2 0x189D PUSH2 0x165E JUMP JUMPDEST JUMPDEST PUSH0 PUSH2 0x18AB DUP5 DUP3 DUP6 ADD PUSH2 0x16B3 JUMP JUMPDEST SWAP2 POP POP SWAP3 SWAP2 POP POP JUMP JUMPDEST PUSH0 DUP3 DUP3 MSTORE PUSH1 0x20 DUP3 ADD SWAP1 POP SWAP3 SWAP2 POP POP JUMP JUMPDEST PUSH32 0x506F6F6C3A20494E53554646494349454E545F4F55545055545F414D4F554E54 PUSH0 DUP3 ADD MSTORE POP JUMP JUMPDEST PUSH0 PUSH2 0x18F8 PUSH1 0x20 DUP4 PUSH2 0x18B4 JUMP JUMPDEST SWAP2 POP PUSH2 0x1903 DUP3 PUSH2 0x18C4 JUMP JUMPDEST PUSH1 0x20 DUP3 ADD SWAP1 POP SWAP2 SWAP1 POP JUMP JUMPDEST PUSH0 PUSH1 0x20 DUP3 ADD SWAP1 POP DUP2 DUP2 SUB PUSH0 DUP4 ADD MSTORE PUSH2 0x1925 DUP2 PUSH2 0x18EC JUMP JUMPDEST SWAP1 POP SWAP2 SWAP1 POP JUMP JUMPDEST PUSH32 0x506F6F6C3A20494E53554646494349454E545F4C495155494449545900000000 PUSH0 DUP3 ADD MSTORE POP JUMP JUMPDEST PUSH0 PUSH2 0x1960 PUSH1 0x1C DUP4 PUSH2 0x18B4 JUMP JUMPDEST SWAP2 POP PUSH2 0x196B DUP3 PUSH2 0x192C JUMP JUMPDEST PUSH1 0x20 DUP3 ADD SWAP1 POP SWAP2 SWAP1 POP JUMP JUMPDEST PUSH0 PUSH1 0x20 DUP3 ADD SWAP1 POP DUP2 DUP2 SUB PUSH0 DUP4 ADD MSTORE PUSH2 0x198D DUP2 PUSH2 0x1954 JUMP JUMPDEST SWAP1 POP SWAP2 SWAP1 POP JUMP JUMPDEST PUSH32 0x4E487B7100000000000000000000000000000000000000000000000000000000 PUSH0 MSTORE PUSH1 0x11 PUSH1 0x4 MSTORE PUSH1 0x24 PUSH0 REVERT JUMPDEST PUSH0 PUSH2 0x19CB DUP3 PUSH2 0x162D JUMP JUMPDEST SWAP2 POP PUSH2 0x19D6 DUP4 PUSH2 0x162D JUMP JUMPDEST SWAP3 POP DUP3 DUP3 ADD SWAP1 POP DUP1 DUP3 GT ISZERO PUSH2 0x19EE JUMPI PUSH2 0x19ED PUSH2 0x1994 JUMP JUMPDEST JUMPDEST SWAP3 SWAP2 POP POP JUMP JUMPDEST PUSH0 PUSH2 0x19FE DUP3 PUSH2 0x162D JUMP JUMPDEST SWAP2 POP PUSH2 0x1A09 DUP4 PUSH2 0x162D JUMP JUMPDEST SWAP3 POP DUP3 DUP3 SUB SWAP1 POP DUP2 DUP2 GT ISZERO PUSH2 0x1A21 JUMPI PUSH2 0x1A20 PUSH2 0x1994 JUMP JUMPDEST JUMPDEST SWAP3 SWAP2 POP POP JUMP JUMPDEST PUSH0 PUSH2 0x1A31 DUP3 PUSH2 0x162D JUMP JUMPDEST SWAP2 POP PUSH2 0x1A3C DUP4 PUSH2 0x162D JUMP JUMPDEST SWAP3 POP DUP3 DUP3 MUL PUSH2 0x1A4A DUP2 PUSH2 0x162D JUMP JUMPDEST SWAP2 POP DUP3 DUP3 DIV DUP5 EQ DUP4 ISZERO OR PUSH2 0x1A61 JUMPI PUSH2 0x1A60 PUSH2 0x1994 JUMP JUMPDEST JUMPDEST POP SWAP3 SWAP2 POP POP JUMP JUMPDEST PUSH32 0x506F6F6C3A204B00000000000000000000000000000000000000000000000000 PUSH0 DUP3 ADD MSTORE POP JUMP JUMPDEST PUSH0 PUSH2 0x1A9C PUSH1 0x7 DUP4 PUSH2 0x18B4 JUMP JUMPDEST SWAP2 POP PUSH2 0x1AA7 DUP3 PUSH2 0x1A68 JUMP JUMPDEST PUSH1 0x20 DUP3 ADD SWAP1 POP SWAP2 SWAP1 POP JUMP JUMPDEST PUSH0 PUSH1 0x20 DUP3 ADD SWAP1 POP DUP2 DUP2 SUB PUSH0 DUP4 ADD MSTORE PUSH2 0x1AC9 DUP2 PUSH2 0x1A90 JUMP JUMPDEST SWAP1 POP SWAP2 SWAP1 POP JUMP JUMPDEST PUSH0 PUSH1 0x80 DUP3 ADD SWAP1 POP PUSH2 0x1AE3 PUSH0 DUP4 ADD DUP8 PUSH2 0x1636 JUMP JUMPDEST PUSH2 0x1AF0 PUSH1 0x20 DUP4 ADD DUP7 PUSH2 0x1636 JUMP JUMPDEST PUSH2 0x1AFD PUSH1 0x40 DUP4 ADD DUP6 PUSH2 0x1636 JUMP JUMPDEST PUSH2 0x1B0A PUSH1 0x60 DUP4 ADD DUP5 PUSH2 0x1636 JUMP JUMPDEST SWAP6 SWAP5 POP POP POP POP POP JUMP JUMPDEST PUSH0 PUSH1 0xFF DUP3 AND SWAP1 POP SWAP2 SWAP1 POP JUMP JUMPDEST PUSH2 0x1B28 DUP2 PUSH2 0x1B13 JUMP JUMPDEST DUP2 EQ PUSH2 0x1B32 JUMPI PUSH0 DUP1 REVERT JUMPDEST POP JUMP JUMPDEST PUSH0 DUP2 MLOAD SWAP1 POP PUSH2 0x1B43 DUP2 PUSH2 0x1B1F JUMP JUMPDEST SWAP3 SWAP2 POP POP JUMP JUMPDEST PUSH0 PUSH1 0x20 DUP3 DUP5 SUB SLT ISZERO PUSH2 0x1B5E JUMPI PUSH2 0x1B5D PUSH2 0x165E JUMP JUMPDEST JUMPDEST PUSH0 PUSH2 0x1B6B DUP5 DUP3 DUP6 ADD PUSH2 0x1B35 JUMP JUMPDEST SWAP2 POP POP SWAP3 SWAP2 POP POP JUMP JUMPDEST PUSH0 DUP2 PUSH1 0x1 SHR SWAP1 POP SWAP2 SWAP1 POP JUMP JUMPDEST PUSH0 DUP1 DUP3 SWAP2 POP DUP4 SWAP1 POP JUMPDEST PUSH1 0x1 DUP6 GT ISZERO PUSH2 0x1BC9 JUMPI DUP1 DUP7 DIV DUP2 GT ISZERO PUSH2 0x1BA5 JUMPI PUSH2 0x1BA4 PUSH2 0x1994 JUMP JUMPDEST JUMPDEST PUSH1 0x1 DUP6 AND ISZERO PUSH2 0x1BB4 JUMPI DUP1 DUP3 MUL SWAP2 POP JUMPDEST DUP1 DUP2 MUL SWAP1 POP PUSH2 0x1BC2 DUP6 PUSH2 0x1B74 JUMP JUMPDEST SWAP5 POP PUSH2 0x1B89 JUMP JUMPDEST SWAP5 POP SWAP5 SWAP3 POP POP POP JUMP JUMPDEST PUSH0 DUP3 PUSH2 0x1BE1 JUMPI PUSH1 0x1 SWAP1 POP PUSH2 0x1C9C JUMP JUMPDEST DUP2 PUSH2 0x1BEE JUMPI PUSH0 SWAP1 POP PUSH2 0x1C9C JUMP JUMPDEST DUP2 PUSH1 0x1 DUP2 EQ PUSH2 0x1C04 JUMPI PUSH1 0x2 DUP2 EQ PUSH2 0x1C0E JUMPI PUSH2 0x1C3D JUMP JUMPDEST PUSH1 0x1 SWAP2 POP POP PUSH2 0x1C9C JUMP JUMPDEST PUSH1 0xFF DUP5 GT ISZERO PUSH2 0x1C20 JUMPI PUSH2 0x1C1F PUSH2 0x1994 JUMP JUMPDEST JUMPDEST DUP4 PUSH1 0x2 EXP SWAP2 POP DUP5 DUP3 GT ISZERO PUSH2 0x1C37 JUMPI PUSH2 0x1C36 PUSH2 0x1994 JUMP JUMPDEST JUMPDEST POP PUSH2 0x1C9C JUMP JUMPDEST POP PUSH1 0x20 DUP4 LT PUSH2 0x133 DUP4 LT AND PUSH1 0x4E DUP5 LT PUSH1 0xB DUP5 LT AND OR ISZERO PUSH2 0x1C72 JUMPI DUP3 DUP3 EXP SWAP1 POP DUP4 DUP2 GT ISZERO PUSH2 0x1C6D JUMPI PUSH2 0x1C6C PUSH2 0x1994 JUMP JUMPDEST JUMPDEST PUSH2 0x1C9C JUMP JUMPDEST PUSH2 0x1C7F DUP5 DUP5 DUP5 PUSH1 0x1 PUSH2 0x1B80 JUMP JUMPDEST SWAP3 POP SWAP1 POP DUP2 DUP5 DIV DUP2 GT ISZERO PUSH2 0x1C96 JUMPI PUSH2 0x1C95 PUSH2 0x1994 JUMP JUMPDEST JUMPDEST DUP2 DUP2 MUL SWAP1 POP JUMPDEST SWAP4 SWAP3 POP POP POP JUMP JUMPDEST PUSH0 PUSH2 0x1CAD DUP3 PUSH2 0x162D JUMP JUMPDEST SWAP2 POP PUSH2 0x1CB8 DUP4 PUSH2 0x1B13 JUMP JUMPDEST SWAP3 POP PUSH2 0x1CE5 PUSH32 0xFFFFFFFFFFFFFFFFFFFFFFFFFFFFFFFFFFFFFFFFFFFFFFFFFFFFFFFFFFFFFFFF DUP5 DUP5 PUSH2 0x1BD2 JUMP JUMPDEST SWAP1 POP SWAP3 SWAP2 POP POP JUMP JUMPDEST PUSH0 DUP2 MLOAD SWAP1 POP PUSH2 0x1CFB DUP2 PUSH2 0x1662 JUMP JUMPDEST SWAP3 SWAP2 POP POP JUMP JUMPDEST PUSH0 PUSH1 0x20 DUP3 DUP5 SUB SLT ISZERO PUSH2 0x1D16 JUMPI PUSH2 0x1D15 PUSH2 0x165E JUMP JUMPDEST JUMPDEST PUSH0 PUSH2 0x1D23 DUP5 DUP3 DUP6 ADD PUSH2 0x1CED JUMP JUMPDEST SWAP2 POP POP SWAP3 SWAP2 POP POP JUMP JUMPDEST PUSH32 0x4E487B7100000000000000000000000000000000000000000000000000000000 PUSH0 MSTORE PUSH1 0x12 PUSH1 0x4 MSTORE PUSH1 0x24 PUSH0 REVERT JUMPDEST PUSH0 PUSH2 0x1D63 DUP3 PUSH2 0x162D JUMP JUMPDEST SWAP2 POP PUSH2 0x1D6E DUP4 PUSH2 0x162D JUMP JUMPDEST SWAP3 POP DUP3 PUSH2 0x1D7E JUMPI PUSH2 0x1D7D PUSH2 0x1D2C JUMP JUMPDEST JUMPDEST DUP3 DUP3 DIV SWAP1 POP SWAP3 SWAP2 POP POP JUMP JUMPDEST PUSH0 PUSH1 0x40 DUP3 ADD SWAP1 POP PUSH2 0x1D9C PUSH0 DUP4 ADD DUP6 PUSH2 0x173E JUMP JUMPDEST PUSH2 0x1DA9 PUSH1 0x20 DUP4 ADD DUP5 PUSH2 0x1636 JUMP JUMPDEST SWAP4 SWAP3 POP POP POP JUMP JUMPDEST PUSH32 0x506F6F6C3A20494E53554646494349454E545F414D4F554E5400000000000000 PUSH0 DUP3 ADD MSTORE POP JUMP JUMPDEST PUSH0 PUSH2 0x1DE4 PUSH1 0x19 DUP4 PUSH2 0x18B4 JUMP JUMPDEST SWAP2 POP PUSH2 0x1DEF DUP3 PUSH2 0x1DB0 JUMP JUMPDEST PUSH1 0x20 DUP3 ADD SWAP1 POP SWAP2 SWAP1 POP JUMP JUMPDEST PUSH0 PUSH1 0x20 DUP3 ADD SWAP1 POP DUP2 DUP2 SUB PUSH0 DUP4 ADD MSTORE PUSH2 0x1E11 DUP2 PUSH2 0x1DD8 JUMP JUMPDEST SWAP1 POP SWAP2 SWAP1 POP JUMP JUMPDEST PUSH32 0x506F6F6C3A20414C52454144595F494E495449414C495A454400000000000000 PUSH0 DUP3 ADD MSTORE POP JUMP JUMPDEST PUSH0 PUSH2 0x1E4C PUSH1 0x19 DUP4 PUSH2 0x18B4 JUMP JUMPDEST SWAP2 POP PUSH2 0x1E57 DUP3 PUSH2 0x1E18 JUMP JUMPDEST PUSH1 0x20 DUP3 ADD SWAP1 POP SWAP2 SWAP1 POP JUMP JUMPDEST PUSH0 PUSH1 0x20 DUP3 ADD SWAP1 POP DUP2 DUP2 SUB PUSH0 DUP4 ADD MSTORE PUSH2 0x1E79 DUP2 PUSH2 0x1E40 JUMP JUMPDEST SWAP1 POP SWAP2 SWAP1 POP JUMP JUMPDEST PUSH0 PUSH1 0x60 DUP3 ADD SWAP1 POP PUSH2 0x1E93 PUSH0 DUP4 ADD DUP7 PUSH2 0x173E JUMP JUMPDEST PUSH2 0x1EA0 PUSH1 0x20 DUP4 ADD DUP6 PUSH2 0x173E JUMP JUMPDEST PUSH2 0x1EAD PUSH1 0x40 DUP4 ADD DUP5 PUSH2 0x1636 JUMP JUMPDEST SWAP5 SWAP4 POP POP POP POP JUMP INVALID LOG2 PUSH5 0x6970667358 0x22 SLT KECCAK256 SWAP4 DUP11 PUSH15 0x759C3789F1F21D17B46DFAFA8DB0BD LT CODECOPY CALLER 0xED CALLDATALOAD PUSH18 0xADE601FAE38FB94A64736F6C634300081A00 CALLER "
				},
				"gasEstimates": {
					"creation": {
						"codeDepositCost": "1583000",
						"executionCost": "infinite",
						"totalCost": "infinite"
					},
					"external": {
						"MINIMUM_LIQUIDITY()": "347",
						"addLiquidity(uint256,uint256)": "infinite",
						"calculateValueInEth(uint256,uint256)": "infinite",
						"getPoolInfo()": "infinite",
						"initialize(uint256,uint256)": "infinite",
						"lpToken()": "infinite",
						"owner()": "2538",
						"quote(uint256,uint256,uint256)": "infinite",
						"removeLiquidity(uint256)": "infinite",
						"renounceOwnership()": "infinite",
						"reserve0()": "2471",
						"reserve1()": "2515",
						"swap(uint256,uint256,uint256,uint256,address)": "infinite",
						"token0()": "infinite",
						"token1()": "infinite",
						"transferOwnership(address)": "infinite"
					}
				},
				"methodIdentifiers": {
					"MINIMUM_LIQUIDITY()": "ba9a7a56",
					"addLiquidity(uint256,uint256)": "9cd441da",
					"calculateValueInEth(uint256,uint256)": "6e8fe678",
					"getPoolInfo()": "60246c88",
					"initialize(uint256,uint256)": "e4a30116",
					"lpToken()": "5fcbd285",
					"owner()": "8da5cb5b",
					"quote(uint256,uint256,uint256)": "ad615dec",
					"removeLiquidity(uint256)": "9c8f9f23",
					"renounceOwnership()": "715018a6",
					"reserve0()": "443cb4bc",
					"reserve1()": "5a76f25e",
					"swap(uint256,uint256,uint256,uint256,address)": "562e19df",
					"token0()": "0dfe1681",
					"token1()": "d21220a7",
					"transferOwnership(address)": "f2fde38b"
				}
			},
			"storageLayout": {
				"storage": [
					{
						"astId": 8,
						"contract": "Pool.sol:Pool",
						"label": "_owner",
						"offset": 0,
						"slot": "0",
						"type": "t_address"
					},
					{
						"astId": 1459,
						"contract": "Pool.sol:Pool",
						"label": "token0",
						"offset": 0,
						"slot": "1",
						"type": "t_contract(Token)2224"
					},
					{
						"astId": 1462,
						"contract": "Pool.sol:Pool",
						"label": "token1",
						"offset": 0,
						"slot": "2",
						"type": "t_contract(Token)2224"
					},
					{
						"astId": 1465,
						"contract": "Pool.sol:Pool",
						"label": "lpToken",
						"offset": 0,
						"slot": "3",
						"type": "t_contract(Token)2224"
					},
					{
						"astId": 1467,
						"contract": "Pool.sol:Pool",
						"label": "reserve0",
						"offset": 0,
						"slot": "4",
						"type": "t_uint256"
					},
					{
						"astId": 1469,
						"contract": "Pool.sol:Pool",
						"label": "reserve1",
						"offset": 0,
						"slot": "5",
						"type": "t_uint256"
					}
				],
				"types": {
					"t_address": {
						"encoding": "inplace",
						"label": "address",
						"numberOfBytes": "20"
					},
					"t_contract(Token)2224": {
						"encoding": "inplace",
						"label": "contract Token",
						"numberOfBytes": "20"
					},
					"t_uint256": {
						"encoding": "inplace",
						"label": "uint256",
						"numberOfBytes": "32"
					}
				}
			},
			"userdoc": {
				"kind": "user",
				"methods": {},
				"version": 1
			}
		}
	}
}