{
	"Competition/Tokens/Auc.sol": {
		"Auc": {
			"abi": [
				{
					"inputs": [
						{
							"internalType": "address",
							"name": "_auctionOwner",
							"type": "address"
						},
						{
							"internalType": "uint256",
							"name": "_ownerTokenId",
							"type": "uint256"
						}
					],
					"name": "bit",
					"outputs": [],
					"stateMutability": "nonpayable",
					"type": "function"
				},
				{
					"inputs": [
						{
							"internalType": "uint256",
							"name": "_userTokenId",
							"type": "uint256"
						}
					],
					"name": "finishAuction",
					"outputs": [],
					"stateMutability": "nonpayable",
					"type": "function"
				},
				{
					"inputs": [
						{
							"internalType": "uint256",
							"name": "_userTokenId",
							"type": "uint256"
						}
					],
					"name": "interruptAuction",
					"outputs": [],
					"stateMutability": "nonpayable",
					"type": "function"
				},
				{
					"inputs": [
						{
							"internalType": "address",
							"name": "",
							"type": "address"
						},
						{
							"internalType": "uint256",
							"name": "",
							"type": "uint256"
						}
					],
					"name": "lockedCash",
					"outputs": [
						{
							"internalType": "uint256",
							"name": "",
							"type": "uint256"
						}
					],
					"stateMutability": "view",
					"type": "function"
				},
				{
					"inputs": [
						{
							"internalType": "uint256",
							"name": "_userTokenId",
							"type": "uint256"
						},
						{
							"internalType": "uint256",
							"name": "_duration",
							"type": "uint256"
						},
						{
							"internalType": "uint256",
							"name": "_minPrice",
							"type": "uint256"
						},
						{
							"internalType": "uint256",
							"name": "maxPrice",
							"type": "uint256"
						}
					],
					"name": "startAuction",
					"outputs": [],
					"stateMutability": "nonpayable",
					"type": "function"
				},
				{
					"inputs": [
						{
							"internalType": "address",
							"name": "",
							"type": "address"
						},
						{
							"internalType": "uint256",
							"name": "",
							"type": "uint256"
						}
					],
					"name": "usersAuctions",
					"outputs": [
						{
							"internalType": "uint256",
							"name": "tokenId",
							"type": "uint256"
						},
						{
							"internalType": "uint256",
							"name": "timeStarted",
							"type": "uint256"
						},
						{
							"internalType": "uint256",
							"name": "duration",
							"type": "uint256"
						},
						{
							"internalType": "uint256",
							"name": "price",
							"type": "uint256"
						},
						{
							"internalType": "uint256",
							"name": "minPrice",
							"type": "uint256"
						},
						{
							"internalType": "uint256",
							"name": "maxPrice",
							"type": "uint256"
						},
						{
							"internalType": "address",
							"name": "winner",
							"type": "address"
						},
						{
							"internalType": "address",
							"name": "owner",
							"type": "address"
						},
						{
							"internalType": "bool",
							"name": "lockedDuringAuction",
							"type": "bool"
						},
						{
							"internalType": "uint256",
							"name": "timeFinished",
							"type": "uint256"
						}
					],
					"stateMutability": "view",
					"type": "function"
				},
				{
					"inputs": [
						{
							"internalType": "address",
							"name": "",
							"type": "address"
						},
						{
							"internalType": "uint256",
							"name": "",
							"type": "uint256"
						}
					],
					"name": "usersNFTs",
					"outputs": [
						{
							"internalType": "string",
							"name": "name",
							"type": "string"
						},
						{
							"internalType": "string",
							"name": "description",
							"type": "string"
						},
						{
							"internalType": "string",
							"name": "image",
							"type": "string"
						},
						{
							"internalType": "uint256",
							"name": "price",
							"type": "uint256"
						},
						{
							"internalType": "uint256",
							"name": "amountReleased",
							"type": "uint256"
						},
						{
							"internalType": "uint256",
							"name": "amountToSale",
							"type": "uint256"
						},
						{
							"internalType": "uint256",
							"name": "timeCreated",
							"type": "uint256"
						}
					],
					"stateMutability": "view",
					"type": "function"
				}
			],
			"devdoc": {
				"kind": "dev",
				"methods": {},
				"version": 1
			},
			"evm": {
				"assembly": "    /* \"Competition/Tokens/Auc.sol\":74:2563  contract Auc {... */\n  mstore(0x40, 0x80)\n  callvalue\n  dup1\n  iszero\n  tag_1\n  jumpi\n  0x00\n  dup1\n  revert\ntag_1:\n  pop\n  dataSize(sub_0)\n  dup1\n  dataOffset(sub_0)\n  0x00\n  codecopy\n  0x00\n  return\nstop\n\nsub_0: assembly {\n        /* \"Competition/Tokens/Auc.sol\":74:2563  contract Auc {... */\n      mstore(0x40, 0x80)\n      callvalue\n      dup1\n      iszero\n      tag_1\n      jumpi\n      0x00\n      dup1\n      revert\n    tag_1:\n      pop\n      jumpi(tag_2, lt(calldatasize, 0x04))\n      shr(0xe0, calldataload(0x00))\n      dup1\n      0x79f87cdf\n      gt\n      tag_10\n      jumpi\n      dup1\n      0x79f87cdf\n      eq\n      tag_6\n      jumpi\n      dup1\n      0x8d2c4488\n      eq\n      tag_7\n      jumpi\n      dup1\n      0xcf266ed0\n      eq\n      tag_8\n      jumpi\n      dup1\n      0xe2ad54c1\n      eq\n      tag_9\n      jumpi\n      jump(tag_2)\n    tag_10:\n      dup1\n      0x08eb803d\n      eq\n      tag_3\n      jumpi\n      dup1\n      0x348682f6\n      eq\n      tag_4\n      jumpi\n      dup1\n      0x3db9f55b\n      eq\n      tag_5\n      jumpi\n    tag_2:\n      0x00\n      dup1\n      revert\n        /* \"Competition/Tokens/Auc.sol\":663:722  mapping (address => mapping (uint => NFT)) public usersNFTs */\n    tag_3:\n      tag_11\n      0x04\n      dup1\n      calldatasize\n      sub\n      dup2\n      add\n      swap1\n      tag_12\n      swap2\n      swap1\n      tag_13\n      jump\t// in\n    tag_12:\n      tag_14\n      jump\t// in\n    tag_11:\n      mload(0x40)\n      tag_15\n      swap8\n      swap7\n      swap6\n      swap5\n      swap4\n      swap3\n      swap2\n      swap1\n      tag_16\n      jump\t// in\n    tag_15:\n      mload(0x40)\n      dup1\n      swap2\n      sub\n      swap1\n      return\n        /* \"Competition/Tokens/Auc.sol\":1051:1124  function bit(address _auctionOwner, uint _ownerTokenId) public {... */\n    tag_4:\n      tag_17\n      0x04\n      dup1\n      calldatasize\n      sub\n      dup2\n      add\n      swap1\n      tag_18\n      swap2\n      swap1\n      tag_13\n      jump\t// in\n    tag_18:\n      tag_19\n      jump\t// in\n    tag_17:\n      stop\n        /* \"Competition/Tokens/Auc.sol\":729:790  mapping (address => mapping (uint => uint)) public lockedCash */\n    tag_5:\n      tag_20\n      0x04\n      dup1\n      calldatasize\n      sub\n      dup2\n      add\n      swap1\n      tag_21\n      swap2\n      swap1\n      tag_13\n      jump\t// in\n    tag_21:\n      tag_22\n      jump\t// in\n    tag_20:\n      mload(0x40)\n      tag_23\n      swap2\n      swap1\n      tag_24\n      jump\t// in\n    tag_23:\n      mload(0x40)\n      dup1\n      swap2\n      sub\n      swap1\n      return\n        /* \"Competition/Tokens/Auc.sol\":918:980  function interruptAuction(uint _userTokenId) public {... */\n    tag_6:\n      tag_25\n      0x04\n      dup1\n      calldatasize\n      sub\n      dup2\n      add\n      swap1\n      tag_26\n      swap2\n      swap1\n      tag_27\n      jump\t// in\n    tag_26:\n      tag_28\n      jump\t// in\n    tag_25:\n      stop\n        /* \"Competition/Tokens/Auc.sol\":805:910  function startAuction(uint _userTokenId, uint _duration, uint _minPrice, uint maxPrice) public {... */\n    tag_7:\n      tag_29\n      0x04\n      dup1\n      calldatasize\n      sub\n      dup2\n      add\n      swap1\n      tag_30\n      swap2\n      swap1\n      tag_31\n      jump\t// in\n    tag_30:\n      tag_32\n      jump\t// in\n    tag_29:\n      stop\n        /* \"Competition/Tokens/Auc.sol\":986:1045  function finishAuction(uint _userTokenId) public {... */\n    tag_8:\n      tag_33\n      0x04\n      dup1\n      calldatasize\n      sub\n      dup2\n      add\n      swap1\n      tag_34\n      swap2\n      swap1\n      tag_27\n      jump\t// in\n    tag_34:\n      tag_35\n      jump\t// in\n    tag_33:\n      stop\n        /* \"Competition/Tokens/Auc.sol\":589:656  mapping (address => mapping (uint => Auction)) public usersAuctions */\n    tag_9:\n      tag_36\n      0x04\n      dup1\n      calldatasize\n      sub\n      dup2\n      add\n      swap1\n      tag_37\n      swap2\n      swap1\n      tag_13\n      jump\t// in\n    tag_37:\n      tag_38\n      jump\t// in\n    tag_36:\n      mload(0x40)\n      tag_39\n      swap11\n      swap10\n      swap9\n      swap8\n      swap7\n      swap6\n      swap5\n      swap4\n      swap3\n      swap2\n      swap1\n      tag_40\n      jump\t// in\n    tag_39:\n      mload(0x40)\n      dup1\n      swap2\n      sub\n      swap1\n      return\n        /* \"Competition/Tokens/Auc.sol\":663:722  mapping (address => mapping (uint => NFT)) public usersNFTs */\n    tag_14:\n      mstore(0x20, 0x01)\n      dup2\n      0x00\n      mstore\n      mstore(0x20, keccak256(0x00, 0x40))\n      dup1\n      0x00\n      mstore\n      keccak256(0x00, 0x40)\n      0x00\n      swap2\n      pop\n      swap2\n      pop\n      pop\n      dup1\n      0x00\n      add\n      dup1\n      sload\n      tag_41\n      swap1\n      tag_42\n      jump\t// in\n    tag_41:\n      dup1\n      0x1f\n      add\n      0x20\n      dup1\n      swap2\n      div\n      mul\n      0x20\n      add\n      mload(0x40)\n      swap1\n      dup2\n      add\n      0x40\n      mstore\n      dup1\n      swap3\n      swap2\n      swap1\n      dup2\n      dup2\n      mstore\n      0x20\n      add\n      dup3\n      dup1\n      sload\n      tag_43\n      swap1\n      tag_42\n      jump\t// in\n    tag_43:\n      dup1\n      iszero\n      tag_44\n      jumpi\n      dup1\n      0x1f\n      lt\n      tag_45\n      jumpi\n      0x0100\n      dup1\n      dup4\n      sload\n      div\n      mul\n      dup4\n      mstore\n      swap2\n      0x20\n      add\n      swap2\n      jump(tag_44)\n    tag_45:\n      dup3\n      add\n      swap2\n      swap1\n      0x00\n      mstore\n      keccak256(0x00, 0x20)\n      swap1\n    tag_46:\n      dup2\n      sload\n      dup2\n      mstore\n      swap1\n      0x01\n      add\n      swap1\n      0x20\n      add\n      dup1\n      dup4\n      gt\n      tag_46\n      jumpi\n      dup3\n      swap1\n      sub\n      0x1f\n      and\n      dup3\n      add\n      swap2\n    tag_44:\n      pop\n      pop\n      pop\n      pop\n      pop\n      swap1\n      dup1\n      0x01\n      add\n      dup1\n      sload\n      tag_47\n      swap1\n      tag_42\n      jump\t// in\n    tag_47:\n      dup1\n      0x1f\n      add\n      0x20\n      dup1\n      swap2\n      div\n      mul\n      0x20\n      add\n      mload(0x40)\n      swap1\n      dup2\n      add\n      0x40\n      mstore\n      dup1\n      swap3\n      swap2\n      swap1\n      dup2\n      dup2\n      mstore\n      0x20\n      add\n      dup3\n      dup1\n      sload\n      tag_48\n      swap1\n      tag_42\n      jump\t// in\n    tag_48:\n      dup1\n      iszero\n      tag_49\n      jumpi\n      dup1\n      0x1f\n      lt\n      tag_50\n      jumpi\n      0x0100\n      dup1\n      dup4\n      sload\n      div\n      mul\n      dup4\n      mstore\n      swap2\n      0x20\n      add\n      swap2\n      jump(tag_49)\n    tag_50:\n      dup3\n      add\n      swap2\n      swap1\n      0x00\n      mstore\n      keccak256(0x00, 0x20)\n      swap1\n    tag_51:\n      dup2\n      sload\n      dup2\n      mstore\n      swap1\n      0x01\n      add\n      swap1\n      0x20\n      add\n      dup1\n      dup4\n      gt\n      tag_51\n      jumpi\n      dup3\n      swap1\n      sub\n      0x1f\n      and\n      dup3\n      add\n      swap2\n    tag_49:\n      pop\n      pop\n      pop\n      pop\n      pop\n      swap1\n      dup1\n      0x02\n      add\n      dup1\n      sload\n      tag_52\n      swap1\n      tag_42\n      jump\t// in\n    tag_52:\n      dup1\n      0x1f\n      add\n      0x20\n      dup1\n      swap2\n      div\n      mul\n      0x20\n      add\n      mload(0x40)\n      swap1\n      dup2\n      add\n      0x40\n      mstore\n      dup1\n      swap3\n      swap2\n      swap1\n      dup2\n      dup2\n      mstore\n      0x20\n      add\n      dup3\n      dup1\n      sload\n      tag_53\n      swap1\n      tag_42\n      jump\t// in\n    tag_53:\n      dup1\n      iszero\n      tag_54\n      jumpi\n      dup1\n      0x1f\n      lt\n      tag_55\n      jumpi\n      0x0100\n      dup1\n      dup4\n      sload\n      div\n      mul\n      dup4\n      mstore\n      swap2\n      0x20\n      add\n      swap2\n      jump(tag_54)\n    tag_55:\n      dup3\n      add\n      swap2\n      swap1\n      0x00\n      mstore\n      keccak256(0x00, 0x20)\n      swap1\n    tag_56:\n      dup2\n      sload\n      dup2\n      mstore\n      swap1\n      0x01\n      add\n      swap1\n      0x20\n      add\n      dup1\n      dup4\n      gt\n      tag_56\n      jumpi\n      dup3\n      swap1\n      sub\n      0x1f\n      and\n      dup3\n      add\n      swap2\n    tag_54:\n      pop\n      pop\n      pop\n      pop\n      pop\n      swap1\n      dup1\n      0x03\n      add\n      sload\n      swap1\n      dup1\n      0x04\n      add\n      sload\n      swap1\n      dup1\n      0x05\n      add\n      sload\n      swap1\n      dup1\n      0x06\n      add\n      sload\n      swap1\n      pop\n      dup8\n      jump\t// out\n        /* \"Competition/Tokens/Auc.sol\":1051:1124  function bit(address _auctionOwner, uint _ownerTokenId) public {... */\n    tag_19:\n      pop\n      pop\n      jump\t// out\n        /* \"Competition/Tokens/Auc.sol\":729:790  mapping (address => mapping (uint => uint)) public lockedCash */\n    tag_22:\n      mstore(0x20, 0x02)\n      dup2\n      0x00\n      mstore\n      mstore(0x20, keccak256(0x00, 0x40))\n      dup1\n      0x00\n      mstore\n      keccak256(0x00, 0x40)\n      0x00\n      swap2\n      pop\n      swap2\n      pop\n      pop\n      sload\n      dup2\n      jump\t// out\n        /* \"Competition/Tokens/Auc.sol\":918:980  function interruptAuction(uint _userTokenId) public {... */\n    tag_28:\n      pop\n      jump\t// out\n        /* \"Competition/Tokens/Auc.sol\":805:910  function startAuction(uint _userTokenId, uint _duration, uint _minPrice, uint maxPrice) public {... */\n    tag_32:\n      pop\n      pop\n      pop\n      pop\n      jump\t// out\n        /* \"Competition/Tokens/Auc.sol\":986:1045  function finishAuction(uint _userTokenId) public {... */\n    tag_35:\n      pop\n      jump\t// out\n        /* \"Competition/Tokens/Auc.sol\":589:656  mapping (address => mapping (uint => Auction)) public usersAuctions */\n    tag_38:\n      mstore(0x20, 0x00)\n      dup2\n      0x00\n      mstore\n      mstore(0x20, keccak256(0x00, 0x40))\n      dup1\n      0x00\n      mstore\n      keccak256(0x00, 0x40)\n      0x00\n      swap2\n      pop\n      swap2\n      pop\n      pop\n      dup1\n      0x00\n      add\n      sload\n      swap1\n      dup1\n      0x01\n      add\n      sload\n      swap1\n      dup1\n      0x02\n      add\n      sload\n      swap1\n      dup1\n      0x03\n      add\n      sload\n      swap1\n      dup1\n      0x04\n      add\n      sload\n      swap1\n      dup1\n      0x05\n      add\n      sload\n      swap1\n      dup1\n      0x06\n      add\n      0x00\n      swap1\n      sload\n      swap1\n      0x0100\n      exp\n      swap1\n      div\n      0xffffffffffffffffffffffffffffffffffffffff\n      and\n      swap1\n      dup1\n      0x07\n      add\n      0x00\n      swap1\n      sload\n      swap1\n      0x0100\n      exp\n      swap1\n      div\n      0xffffffffffffffffffffffffffffffffffffffff\n      and\n      swap1\n      dup1\n      0x07\n      add\n      0x14\n      swap1\n      sload\n      swap1\n      0x0100\n      exp\n      swap1\n      div\n      0xff\n      and\n      swap1\n      dup1\n      0x08\n      add\n      sload\n      swap1\n      pop\n      dup11\n      jump\t// out\n        /* \"#utility.yul\":88:205   */\n    tag_62:\n        /* \"#utility.yul\":197:198   */\n      0x00\n        /* \"#utility.yul\":194:195   */\n      dup1\n        /* \"#utility.yul\":187:199   */\n      revert\n        /* \"#utility.yul\":334:460   */\n    tag_64:\n        /* \"#utility.yul\":371:378   */\n      0x00\n        /* \"#utility.yul\":411:453   */\n      0xffffffffffffffffffffffffffffffffffffffff\n        /* \"#utility.yul\":404:409   */\n      dup3\n        /* \"#utility.yul\":400:454   */\n      and\n        /* \"#utility.yul\":389:454   */\n      swap1\n      pop\n        /* \"#utility.yul\":334:460   */\n      swap2\n      swap1\n      pop\n      jump\t// out\n        /* \"#utility.yul\":466:562   */\n    tag_65:\n        /* \"#utility.yul\":503:510   */\n      0x00\n        /* \"#utility.yul\":532:556   */\n      tag_87\n        /* \"#utility.yul\":550:555   */\n      dup3\n        /* \"#utility.yul\":532:556   */\n      tag_64\n      jump\t// in\n    tag_87:\n        /* \"#utility.yul\":521:556   */\n      swap1\n      pop\n        /* \"#utility.yul\":466:562   */\n      swap2\n      swap1\n      pop\n      jump\t// out\n        /* \"#utility.yul\":568:690   */\n    tag_66:\n        /* \"#utility.yul\":641:665   */\n      tag_89\n        /* \"#utility.yul\":659:664   */\n      dup2\n        /* \"#utility.yul\":641:665   */\n      tag_65\n      jump\t// in\n    tag_89:\n        /* \"#utility.yul\":634:639   */\n      dup2\n        /* \"#utility.yul\":631:666   */\n      eq\n        /* \"#utility.yul\":621:684   */\n      tag_90\n      jumpi\n        /* \"#utility.yul\":680:681   */\n      0x00\n        /* \"#utility.yul\":677:678   */\n      dup1\n        /* \"#utility.yul\":670:682   */\n      revert\n        /* \"#utility.yul\":621:684   */\n    tag_90:\n        /* \"#utility.yul\":568:690   */\n      pop\n      jump\t// out\n        /* \"#utility.yul\":696:835   */\n    tag_67:\n        /* \"#utility.yul\":742:747   */\n      0x00\n        /* \"#utility.yul\":780:786   */\n      dup2\n        /* \"#utility.yul\":767:787   */\n      calldataload\n        /* \"#utility.yul\":758:787   */\n      swap1\n      pop\n        /* \"#utility.yul\":796:829   */\n      tag_92\n        /* \"#utility.yul\":823:828   */\n      dup2\n        /* \"#utility.yul\":796:829   */\n      tag_66\n      jump\t// in\n    tag_92:\n        /* \"#utility.yul\":696:835   */\n      swap3\n      swap2\n      pop\n      pop\n      jump\t// out\n        /* \"#utility.yul\":841:918   */\n    tag_68:\n        /* \"#utility.yul\":878:885   */\n      0x00\n        /* \"#utility.yul\":907:912   */\n      dup2\n        /* \"#utility.yul\":896:912   */\n      swap1\n      pop\n        /* \"#utility.yul\":841:918   */\n      swap2\n      swap1\n      pop\n      jump\t// out\n        /* \"#utility.yul\":924:1046   */\n    tag_69:\n        /* \"#utility.yul\":997:1021   */\n      tag_95\n        /* \"#utility.yul\":1015:1020   */\n      dup2\n        /* \"#utility.yul\":997:1021   */\n      tag_68\n      jump\t// in\n    tag_95:\n        /* \"#utility.yul\":990:995   */\n      dup2\n        /* \"#utility.yul\":987:1022   */\n      eq\n        /* \"#utility.yul\":977:1040   */\n      tag_96\n      jumpi\n        /* \"#utility.yul\":1036:1037   */\n      0x00\n        /* \"#utility.yul\":1033:1034   */\n      dup1\n        /* \"#utility.yul\":1026:1038   */\n      revert\n        /* \"#utility.yul\":977:1040   */\n    tag_96:\n        /* \"#utility.yul\":924:1046   */\n      pop\n      jump\t// out\n        /* \"#utility.yul\":1052:1191   */\n    tag_70:\n        /* \"#utility.yul\":1098:1103   */\n      0x00\n        /* \"#utility.yul\":1136:1142   */\n      dup2\n        /* \"#utility.yul\":1123:1143   */\n      calldataload\n        /* \"#utility.yul\":1114:1143   */\n      swap1\n      pop\n        /* \"#utility.yul\":1152:1185   */\n      tag_98\n        /* \"#utility.yul\":1179:1184   */\n      dup2\n        /* \"#utility.yul\":1152:1185   */\n      tag_69\n      jump\t// in\n    tag_98:\n        /* \"#utility.yul\":1052:1191   */\n      swap3\n      swap2\n      pop\n      pop\n      jump\t// out\n        /* \"#utility.yul\":1197:1671   */\n    tag_13:\n        /* \"#utility.yul\":1265:1271   */\n      0x00\n        /* \"#utility.yul\":1273:1279   */\n      dup1\n        /* \"#utility.yul\":1322:1324   */\n      0x40\n        /* \"#utility.yul\":1310:1319   */\n      dup4\n        /* \"#utility.yul\":1301:1308   */\n      dup6\n        /* \"#utility.yul\":1297:1320   */\n      sub\n        /* \"#utility.yul\":1293:1325   */\n      slt\n        /* \"#utility.yul\":1290:1409   */\n      iszero\n      tag_100\n      jumpi\n        /* \"#utility.yul\":1328:1407   */\n      tag_101\n      tag_62\n      jump\t// in\n    tag_101:\n        /* \"#utility.yul\":1290:1409   */\n    tag_100:\n        /* \"#utility.yul\":1448:1449   */\n      0x00\n        /* \"#utility.yul\":1473:1526   */\n      tag_102\n        /* \"#utility.yul\":1518:1525   */\n      dup6\n        /* \"#utility.yul\":1509:1515   */\n      dup3\n        /* \"#utility.yul\":1498:1507   */\n      dup7\n        /* \"#utility.yul\":1494:1516   */\n      add\n        /* \"#utility.yul\":1473:1526   */\n      tag_67\n      jump\t// in\n    tag_102:\n        /* \"#utility.yul\":1463:1526   */\n      swap3\n      pop\n        /* \"#utility.yul\":1419:1536   */\n      pop\n        /* \"#utility.yul\":1575:1577   */\n      0x20\n        /* \"#utility.yul\":1601:1654   */\n      tag_103\n        /* \"#utility.yul\":1646:1653   */\n      dup6\n        /* \"#utility.yul\":1637:1643   */\n      dup3\n        /* \"#utility.yul\":1626:1635   */\n      dup7\n        /* \"#utility.yul\":1622:1644   */\n      add\n        /* \"#utility.yul\":1601:1654   */\n      tag_70\n      jump\t// in\n    tag_103:\n        /* \"#utility.yul\":1591:1654   */\n      swap2\n      pop\n        /* \"#utility.yul\":1546:1664   */\n      pop\n        /* \"#utility.yul\":1197:1671   */\n      swap3\n      pop\n      swap3\n      swap1\n      pop\n      jump\t// out\n        /* \"#utility.yul\":1677:1776   */\n    tag_71:\n        /* \"#utility.yul\":1729:1735   */\n      0x00\n        /* \"#utility.yul\":1763:1768   */\n      dup2\n        /* \"#utility.yul\":1757:1769   */\n      mload\n        /* \"#utility.yul\":1747:1769   */\n      swap1\n      pop\n        /* \"#utility.yul\":1677:1776   */\n      swap2\n      swap1\n      pop\n      jump\t// out\n        /* \"#utility.yul\":1782:1951   */\n    tag_72:\n        /* \"#utility.yul\":1866:1877   */\n      0x00\n        /* \"#utility.yul\":1900:1906   */\n      dup3\n        /* \"#utility.yul\":1895:1898   */\n      dup3\n        /* \"#utility.yul\":1888:1907   */\n      mstore\n        /* \"#utility.yul\":1940:1944   */\n      0x20\n        /* \"#utility.yul\":1935:1938   */\n      dup3\n        /* \"#utility.yul\":1931:1945   */\n      add\n        /* \"#utility.yul\":1916:1945   */\n      swap1\n      pop\n        /* \"#utility.yul\":1782:1951   */\n      swap3\n      swap2\n      pop\n      pop\n      jump\t// out\n        /* \"#utility.yul\":1957:2203   */\n    tag_73:\n        /* \"#utility.yul\":2038:2039   */\n      0x00\n        /* \"#utility.yul\":2048:2161   */\n    tag_107:\n        /* \"#utility.yul\":2062:2068   */\n      dup4\n        /* \"#utility.yul\":2059:2060   */\n      dup2\n        /* \"#utility.yul\":2056:2069   */\n      lt\n        /* \"#utility.yul\":2048:2161   */\n      iszero\n      tag_109\n      jumpi\n        /* \"#utility.yul\":2147:2148   */\n      dup1\n        /* \"#utility.yul\":2142:2145   */\n      dup3\n        /* \"#utility.yul\":2138:2149   */\n      add\n        /* \"#utility.yul\":2132:2150   */\n      mload\n        /* \"#utility.yul\":2128:2129   */\n      dup2\n        /* \"#utility.yul\":2123:2126   */\n      dup5\n        /* \"#utility.yul\":2119:2130   */\n      add\n        /* \"#utility.yul\":2112:2151   */\n      mstore\n        /* \"#utility.yul\":2084:2086   */\n      0x20\n        /* \"#utility.yul\":2081:2082   */\n      dup2\n        /* \"#utility.yul\":2077:2087   */\n      add\n        /* \"#utility.yul\":2072:2087   */\n      swap1\n      pop\n        /* \"#utility.yul\":2048:2161   */\n      jump(tag_107)\n    tag_109:\n        /* \"#utility.yul\":2195:2196   */\n      0x00\n        /* \"#utility.yul\":2186:2192   */\n      dup5\n        /* \"#utility.yul\":2181:2184   */\n      dup5\n        /* \"#utility.yul\":2177:2193   */\n      add\n        /* \"#utility.yul\":2170:2197   */\n      mstore\n        /* \"#utility.yul\":2019:2203   */\n      pop\n        /* \"#utility.yul\":1957:2203   */\n      pop\n      pop\n      pop\n      jump\t// out\n        /* \"#utility.yul\":2209:2311   */\n    tag_74:\n        /* \"#utility.yul\":2250:2256   */\n      0x00\n        /* \"#utility.yul\":2301:2303   */\n      0x1f\n        /* \"#utility.yul\":2297:2304   */\n      not\n        /* \"#utility.yul\":2292:2294   */\n      0x1f\n        /* \"#utility.yul\":2285:2290   */\n      dup4\n        /* \"#utility.yul\":2281:2295   */\n      add\n        /* \"#utility.yul\":2277:2305   */\n      and\n        /* \"#utility.yul\":2267:2305   */\n      swap1\n      pop\n        /* \"#utility.yul\":2209:2311   */\n      swap2\n      swap1\n      pop\n      jump\t// out\n        /* \"#utility.yul\":2317:2694   */\n    tag_75:\n        /* \"#utility.yul\":2405:2408   */\n      0x00\n        /* \"#utility.yul\":2433:2472   */\n      tag_112\n        /* \"#utility.yul\":2466:2471   */\n      dup3\n        /* \"#utility.yul\":2433:2472   */\n      tag_71\n      jump\t// in\n    tag_112:\n        /* \"#utility.yul\":2488:2559   */\n      tag_113\n        /* \"#utility.yul\":2552:2558   */\n      dup2\n        /* \"#utility.yul\":2547:2550   */\n      dup6\n        /* \"#utility.yul\":2488:2559   */\n      tag_72\n      jump\t// in\n    tag_113:\n        /* \"#utility.yul\":2481:2559   */\n      swap4\n      pop\n        /* \"#utility.yul\":2568:2633   */\n      tag_114\n        /* \"#utility.yul\":2626:2632   */\n      dup2\n        /* \"#utility.yul\":2621:2624   */\n      dup6\n        /* \"#utility.yul\":2614:2618   */\n      0x20\n        /* \"#utility.yul\":2607:2612   */\n      dup7\n        /* \"#utility.yul\":2603:2619   */\n      add\n        /* \"#utility.yul\":2568:2633   */\n      tag_73\n      jump\t// in\n    tag_114:\n        /* \"#utility.yul\":2658:2687   */\n      tag_115\n        /* \"#utility.yul\":2680:2686   */\n      dup2\n        /* \"#utility.yul\":2658:2687   */\n      tag_74\n      jump\t// in\n    tag_115:\n        /* \"#utility.yul\":2653:2656   */\n      dup5\n        /* \"#utility.yul\":2649:2688   */\n      add\n        /* \"#utility.yul\":2642:2688   */\n      swap2\n      pop\n        /* \"#utility.yul\":2409:2694   */\n      pop\n        /* \"#utility.yul\":2317:2694   */\n      swap3\n      swap2\n      pop\n      pop\n      jump\t// out\n        /* \"#utility.yul\":2700:2818   */\n    tag_76:\n        /* \"#utility.yul\":2787:2811   */\n      tag_117\n        /* \"#utility.yul\":2805:2810   */\n      dup2\n        /* \"#utility.yul\":2787:2811   */\n      tag_68\n      jump\t// in\n    tag_117:\n        /* \"#utility.yul\":2782:2785   */\n      dup3\n        /* \"#utility.yul\":2775:2812   */\n      mstore\n        /* \"#utility.yul\":2700:2818   */\n      pop\n      pop\n      jump\t// out\n        /* \"#utility.yul\":2824:3983   */\n    tag_16:\n        /* \"#utility.yul\":3145:3149   */\n      0x00\n        /* \"#utility.yul\":3183:3186   */\n      0xe0\n        /* \"#utility.yul\":3172:3181   */\n      dup3\n        /* \"#utility.yul\":3168:3187   */\n      add\n        /* \"#utility.yul\":3160:3187   */\n      swap1\n      pop\n        /* \"#utility.yul\":3233:3242   */\n      dup2\n        /* \"#utility.yul\":3227:3231   */\n      dup2\n        /* \"#utility.yul\":3223:3243   */\n      sub\n        /* \"#utility.yul\":3219:3220   */\n      0x00\n        /* \"#utility.yul\":3208:3217   */\n      dup4\n        /* \"#utility.yul\":3204:3221   */\n      add\n        /* \"#utility.yul\":3197:3244   */\n      mstore\n        /* \"#utility.yul\":3261:3339   */\n      tag_119\n        /* \"#utility.yul\":3334:3338   */\n      dup2\n        /* \"#utility.yul\":3325:3331   */\n      dup11\n        /* \"#utility.yul\":3261:3339   */\n      tag_75\n      jump\t// in\n    tag_119:\n        /* \"#utility.yul\":3253:3339   */\n      swap1\n      pop\n        /* \"#utility.yul\":3386:3395   */\n      dup2\n        /* \"#utility.yul\":3380:3384   */\n      dup2\n        /* \"#utility.yul\":3376:3396   */\n      sub\n        /* \"#utility.yul\":3371:3373   */\n      0x20\n        /* \"#utility.yul\":3360:3369   */\n      dup4\n        /* \"#utility.yul\":3356:3374   */\n      add\n        /* \"#utility.yul\":3349:3397   */\n      mstore\n        /* \"#utility.yul\":3414:3492   */\n      tag_120\n        /* \"#utility.yul\":3487:3491   */\n      dup2\n        /* \"#utility.yul\":3478:3484   */\n      dup10\n        /* \"#utility.yul\":3414:3492   */\n      tag_75\n      jump\t// in\n    tag_120:\n        /* \"#utility.yul\":3406:3492   */\n      swap1\n      pop\n        /* \"#utility.yul\":3539:3548   */\n      dup2\n        /* \"#utility.yul\":3533:3537   */\n      dup2\n        /* \"#utility.yul\":3529:3549   */\n      sub\n        /* \"#utility.yul\":3524:3526   */\n      0x40\n        /* \"#utility.yul\":3513:3522   */\n      dup4\n        /* \"#utility.yul\":3509:3527   */\n      add\n        /* \"#utility.yul\":3502:3550   */\n      mstore\n        /* \"#utility.yul\":3567:3645   */\n      tag_121\n        /* \"#utility.yul\":3640:3644   */\n      dup2\n        /* \"#utility.yul\":3631:3637   */\n      dup9\n        /* \"#utility.yul\":3567:3645   */\n      tag_75\n      jump\t// in\n    tag_121:\n        /* \"#utility.yul\":3559:3645   */\n      swap1\n      pop\n        /* \"#utility.yul\":3655:3727   */\n      tag_122\n        /* \"#utility.yul\":3723:3725   */\n      0x60\n        /* \"#utility.yul\":3712:3721   */\n      dup4\n        /* \"#utility.yul\":3708:3726   */\n      add\n        /* \"#utility.yul\":3699:3705   */\n      dup8\n        /* \"#utility.yul\":3655:3727   */\n      tag_76\n      jump\t// in\n    tag_122:\n        /* \"#utility.yul\":3737:3810   */\n      tag_123\n        /* \"#utility.yul\":3805:3808   */\n      0x80\n        /* \"#utility.yul\":3794:3803   */\n      dup4\n        /* \"#utility.yul\":3790:3809   */\n      add\n        /* \"#utility.yul\":3781:3787   */\n      dup7\n        /* \"#utility.yul\":3737:3810   */\n      tag_76\n      jump\t// in\n    tag_123:\n        /* \"#utility.yul\":3820:3893   */\n      tag_124\n        /* \"#utility.yul\":3888:3891   */\n      0xa0\n        /* \"#utility.yul\":3877:3886   */\n      dup4\n        /* \"#utility.yul\":3873:3892   */\n      add\n        /* \"#utility.yul\":3864:3870   */\n      dup6\n        /* \"#utility.yul\":3820:3893   */\n      tag_76\n      jump\t// in\n    tag_124:\n        /* \"#utility.yul\":3903:3976   */\n      tag_125\n        /* \"#utility.yul\":3971:3974   */\n      0xc0\n        /* \"#utility.yul\":3960:3969   */\n      dup4\n        /* \"#utility.yul\":3956:3975   */\n      add\n        /* \"#utility.yul\":3947:3953   */\n      dup5\n        /* \"#utility.yul\":3903:3976   */\n      tag_76\n      jump\t// in\n    tag_125:\n        /* \"#utility.yul\":2824:3983   */\n      swap9\n      swap8\n      pop\n      pop\n      pop\n      pop\n      pop\n      pop\n      pop\n      pop\n      jump\t// out\n        /* \"#utility.yul\":3989:4211   */\n    tag_24:\n        /* \"#utility.yul\":4082:4086   */\n      0x00\n        /* \"#utility.yul\":4120:4122   */\n      0x20\n        /* \"#utility.yul\":4109:4118   */\n      dup3\n        /* \"#utility.yul\":4105:4123   */\n      add\n        /* \"#utility.yul\":4097:4123   */\n      swap1\n      pop\n        /* \"#utility.yul\":4133:4204   */\n      tag_127\n        /* \"#utility.yul\":4201:4202   */\n      0x00\n        /* \"#utility.yul\":4190:4199   */\n      dup4\n        /* \"#utility.yul\":4186:4203   */\n      add\n        /* \"#utility.yul\":4177:4183   */\n      dup5\n        /* \"#utility.yul\":4133:4204   */\n      tag_76\n      jump\t// in\n    tag_127:\n        /* \"#utility.yul\":3989:4211   */\n      swap3\n      swap2\n      pop\n      pop\n      jump\t// out\n        /* \"#utility.yul\":4217:4546   */\n    tag_27:\n        /* \"#utility.yul\":4276:4282   */\n      0x00\n        /* \"#utility.yul\":4325:4327   */\n      0x20\n        /* \"#utility.yul\":4313:4322   */\n      dup3\n        /* \"#utility.yul\":4304:4311   */\n      dup5\n        /* \"#utility.yul\":4300:4323   */\n      sub\n        /* \"#utility.yul\":4296:4328   */\n      slt\n        /* \"#utility.yul\":4293:4412   */\n      iszero\n      tag_129\n      jumpi\n        /* \"#utility.yul\":4331:4410   */\n      tag_130\n      tag_62\n      jump\t// in\n    tag_130:\n        /* \"#utility.yul\":4293:4412   */\n    tag_129:\n        /* \"#utility.yul\":4451:4452   */\n      0x00\n        /* \"#utility.yul\":4476:4529   */\n      tag_131\n        /* \"#utility.yul\":4521:4528   */\n      dup5\n        /* \"#utility.yul\":4512:4518   */\n      dup3\n        /* \"#utility.yul\":4501:4510   */\n      dup6\n        /* \"#utility.yul\":4497:4519   */\n      add\n        /* \"#utility.yul\":4476:4529   */\n      tag_70\n      jump\t// in\n    tag_131:\n        /* \"#utility.yul\":4466:4529   */\n      swap2\n      pop\n        /* \"#utility.yul\":4422:4539   */\n      pop\n        /* \"#utility.yul\":4217:4546   */\n      swap3\n      swap2\n      pop\n      pop\n      jump\t// out\n        /* \"#utility.yul\":4552:5317   */\n    tag_31:\n        /* \"#utility.yul\":4638:4644   */\n      0x00\n        /* \"#utility.yul\":4646:4652   */\n      dup1\n        /* \"#utility.yul\":4654:4660   */\n      0x00\n        /* \"#utility.yul\":4662:4668   */\n      dup1\n        /* \"#utility.yul\":4711:4714   */\n      0x80\n        /* \"#utility.yul\":4699:4708   */\n      dup6\n        /* \"#utility.yul\":4690:4697   */\n      dup8\n        /* \"#utility.yul\":4686:4709   */\n      sub\n        /* \"#utility.yul\":4682:4715   */\n      slt\n        /* \"#utility.yul\":4679:4799   */\n      iszero\n      tag_133\n      jumpi\n        /* \"#utility.yul\":4718:4797   */\n      tag_134\n      tag_62\n      jump\t// in\n    tag_134:\n        /* \"#utility.yul\":4679:4799   */\n    tag_133:\n        /* \"#utility.yul\":4838:4839   */\n      0x00\n        /* \"#utility.yul\":4863:4916   */\n      tag_135\n        /* \"#utility.yul\":4908:4915   */\n      dup8\n        /* \"#utility.yul\":4899:4905   */\n      dup3\n        /* \"#utility.yul\":4888:4897   */\n      dup9\n        /* \"#utility.yul\":4884:4906   */\n      add\n        /* \"#utility.yul\":4863:4916   */\n      tag_70\n      jump\t// in\n    tag_135:\n        /* \"#utility.yul\":4853:4916   */\n      swap5\n      pop\n        /* \"#utility.yul\":4809:4926   */\n      pop\n        /* \"#utility.yul\":4965:4967   */\n      0x20\n        /* \"#utility.yul\":4991:5044   */\n      tag_136\n        /* \"#utility.yul\":5036:5043   */\n      dup8\n        /* \"#utility.yul\":5027:5033   */\n      dup3\n        /* \"#utility.yul\":5016:5025   */\n      dup9\n        /* \"#utility.yul\":5012:5034   */\n      add\n        /* \"#utility.yul\":4991:5044   */\n      tag_70\n      jump\t// in\n    tag_136:\n        /* \"#utility.yul\":4981:5044   */\n      swap4\n      pop\n        /* \"#utility.yul\":4936:5054   */\n      pop\n        /* \"#utility.yul\":5093:5095   */\n      0x40\n        /* \"#utility.yul\":5119:5172   */\n      tag_137\n        /* \"#utility.yul\":5164:5171   */\n      dup8\n        /* \"#utility.yul\":5155:5161   */\n      dup3\n        /* \"#utility.yul\":5144:5153   */\n      dup9\n        /* \"#utility.yul\":5140:5162   */\n      add\n        /* \"#utility.yul\":5119:5172   */\n      tag_70\n      jump\t// in\n    tag_137:\n        /* \"#utility.yul\":5109:5172   */\n      swap3\n      pop\n        /* \"#utility.yul\":5064:5182   */\n      pop\n        /* \"#utility.yul\":5221:5223   */\n      0x60\n        /* \"#utility.yul\":5247:5300   */\n      tag_138\n        /* \"#utility.yul\":5292:5299   */\n      dup8\n        /* \"#utility.yul\":5283:5289   */\n      dup3\n        /* \"#utility.yul\":5272:5281   */\n      dup9\n        /* \"#utility.yul\":5268:5290   */\n      add\n        /* \"#utility.yul\":5247:5300   */\n      tag_70\n      jump\t// in\n    tag_138:\n        /* \"#utility.yul\":5237:5300   */\n      swap2\n      pop\n        /* \"#utility.yul\":5192:5310   */\n      pop\n        /* \"#utility.yul\":4552:5317   */\n      swap3\n      swap6\n      swap2\n      swap5\n      pop\n      swap3\n      pop\n      jump\t// out\n        /* \"#utility.yul\":5323:5441   */\n    tag_77:\n        /* \"#utility.yul\":5410:5434   */\n      tag_140\n        /* \"#utility.yul\":5428:5433   */\n      dup2\n        /* \"#utility.yul\":5410:5434   */\n      tag_65\n      jump\t// in\n    tag_140:\n        /* \"#utility.yul\":5405:5408   */\n      dup3\n        /* \"#utility.yul\":5398:5435   */\n      mstore\n        /* \"#utility.yul\":5323:5441   */\n      pop\n      pop\n      jump\t// out\n        /* \"#utility.yul\":5447:5537   */\n    tag_78:\n        /* \"#utility.yul\":5481:5488   */\n      0x00\n        /* \"#utility.yul\":5524:5529   */\n      dup2\n        /* \"#utility.yul\":5517:5530   */\n      iszero\n        /* \"#utility.yul\":5510:5531   */\n      iszero\n        /* \"#utility.yul\":5499:5531   */\n      swap1\n      pop\n        /* \"#utility.yul\":5447:5537   */\n      swap2\n      swap1\n      pop\n      jump\t// out\n        /* \"#utility.yul\":5543:5652   */\n    tag_79:\n        /* \"#utility.yul\":5624:5645   */\n      tag_143\n        /* \"#utility.yul\":5639:5644   */\n      dup2\n        /* \"#utility.yul\":5624:5645   */\n      tag_78\n      jump\t// in\n    tag_143:\n        /* \"#utility.yul\":5619:5622   */\n      dup3\n        /* \"#utility.yul\":5612:5646   */\n      mstore\n        /* \"#utility.yul\":5543:5652   */\n      pop\n      pop\n      jump\t// out\n        /* \"#utility.yul\":5658:6865   */\n    tag_40:\n        /* \"#utility.yul\":5997:6001   */\n      0x00\n        /* \"#utility.yul\":6035:6038   */\n      0x0140\n        /* \"#utility.yul\":6024:6033   */\n      dup3\n        /* \"#utility.yul\":6020:6039   */\n      add\n        /* \"#utility.yul\":6012:6039   */\n      swap1\n      pop\n        /* \"#utility.yul\":6049:6120   */\n      tag_145\n        /* \"#utility.yul\":6117:6118   */\n      0x00\n        /* \"#utility.yul\":6106:6115   */\n      dup4\n        /* \"#utility.yul\":6102:6119   */\n      add\n        /* \"#utility.yul\":6093:6099   */\n      dup14\n        /* \"#utility.yul\":6049:6120   */\n      tag_76\n      jump\t// in\n    tag_145:\n        /* \"#utility.yul\":6130:6202   */\n      tag_146\n        /* \"#utility.yul\":6198:6200   */\n      0x20\n        /* \"#utility.yul\":6187:6196   */\n      dup4\n        /* \"#utility.yul\":6183:6201   */\n      add\n        /* \"#utility.yul\":6174:6180   */\n      dup13\n        /* \"#utility.yul\":6130:6202   */\n      tag_76\n      jump\t// in\n    tag_146:\n        /* \"#utility.yul\":6212:6284   */\n      tag_147\n        /* \"#utility.yul\":6280:6282   */\n      0x40\n        /* \"#utility.yul\":6269:6278   */\n      dup4\n        /* \"#utility.yul\":6265:6283   */\n      add\n        /* \"#utility.yul\":6256:6262   */\n      dup12\n        /* \"#utility.yul\":6212:6284   */\n      tag_76\n      jump\t// in\n    tag_147:\n        /* \"#utility.yul\":6294:6366   */\n      tag_148\n        /* \"#utility.yul\":6362:6364   */\n      0x60\n        /* \"#utility.yul\":6351:6360   */\n      dup4\n        /* \"#utility.yul\":6347:6365   */\n      add\n        /* \"#utility.yul\":6338:6344   */\n      dup11\n        /* \"#utility.yul\":6294:6366   */\n      tag_76\n      jump\t// in\n    tag_148:\n        /* \"#utility.yul\":6376:6449   */\n      tag_149\n        /* \"#utility.yul\":6444:6447   */\n      0x80\n        /* \"#utility.yul\":6433:6442   */\n      dup4\n        /* \"#utility.yul\":6429:6448   */\n      add\n        /* \"#utility.yul\":6420:6426   */\n      dup10\n        /* \"#utility.yul\":6376:6449   */\n      tag_76\n      jump\t// in\n    tag_149:\n        /* \"#utility.yul\":6459:6532   */\n      tag_150\n        /* \"#utility.yul\":6527:6530   */\n      0xa0\n        /* \"#utility.yul\":6516:6525   */\n      dup4\n        /* \"#utility.yul\":6512:6531   */\n      add\n        /* \"#utility.yul\":6503:6509   */\n      dup9\n        /* \"#utility.yul\":6459:6532   */\n      tag_76\n      jump\t// in\n    tag_150:\n        /* \"#utility.yul\":6542:6615   */\n      tag_151\n        /* \"#utility.yul\":6610:6613   */\n      0xc0\n        /* \"#utility.yul\":6599:6608   */\n      dup4\n        /* \"#utility.yul\":6595:6614   */\n      add\n        /* \"#utility.yul\":6586:6592   */\n      dup8\n        /* \"#utility.yul\":6542:6615   */\n      tag_77\n      jump\t// in\n    tag_151:\n        /* \"#utility.yul\":6625:6698   */\n      tag_152\n        /* \"#utility.yul\":6693:6696   */\n      0xe0\n        /* \"#utility.yul\":6682:6691   */\n      dup4\n        /* \"#utility.yul\":6678:6697   */\n      add\n        /* \"#utility.yul\":6669:6675   */\n      dup7\n        /* \"#utility.yul\":6625:6698   */\n      tag_77\n      jump\t// in\n    tag_152:\n        /* \"#utility.yul\":6708:6775   */\n      tag_153\n        /* \"#utility.yul\":6770:6773   */\n      0x0100\n        /* \"#utility.yul\":6759:6768   */\n      dup4\n        /* \"#utility.yul\":6755:6774   */\n      add\n        /* \"#utility.yul\":6746:6752   */\n      dup6\n        /* \"#utility.yul\":6708:6775   */\n      tag_79\n      jump\t// in\n    tag_153:\n        /* \"#utility.yul\":6785:6858   */\n      tag_154\n        /* \"#utility.yul\":6853:6856   */\n      0x0120\n        /* \"#utility.yul\":6842:6851   */\n      dup4\n        /* \"#utility.yul\":6838:6857   */\n      add\n        /* \"#utility.yul\":6829:6835   */\n      dup5\n        /* \"#utility.yul\":6785:6858   */\n      tag_76\n      jump\t// in\n    tag_154:\n        /* \"#utility.yul\":5658:6865   */\n      swap12\n      swap11\n      pop\n      pop\n      pop\n      pop\n      pop\n      pop\n      pop\n      pop\n      pop\n      pop\n      pop\n      jump\t// out\n        /* \"#utility.yul\":6871:7051   */\n    tag_80:\n        /* \"#utility.yul\":6919:6996   */\n      0x4e487b7100000000000000000000000000000000000000000000000000000000\n        /* \"#utility.yul\":6916:6917   */\n      0x00\n        /* \"#utility.yul\":6909:6997   */\n      mstore\n        /* \"#utility.yul\":7016:7020   */\n      0x22\n        /* \"#utility.yul\":7013:7014   */\n      0x04\n        /* \"#utility.yul\":7006:7021   */\n      mstore\n        /* \"#utility.yul\":7040:7044   */\n      0x24\n        /* \"#utility.yul\":7037:7038   */\n      0x00\n        /* \"#utility.yul\":7030:7045   */\n      revert\n        /* \"#utility.yul\":7057:7377   */\n    tag_42:\n        /* \"#utility.yul\":7101:7107   */\n      0x00\n        /* \"#utility.yul\":7138:7139   */\n      0x02\n        /* \"#utility.yul\":7132:7136   */\n      dup3\n        /* \"#utility.yul\":7128:7140   */\n      div\n        /* \"#utility.yul\":7118:7140   */\n      swap1\n      pop\n        /* \"#utility.yul\":7185:7186   */\n      0x01\n        /* \"#utility.yul\":7179:7183   */\n      dup3\n        /* \"#utility.yul\":7175:7187   */\n      and\n        /* \"#utility.yul\":7206:7224   */\n      dup1\n        /* \"#utility.yul\":7196:7277   */\n      tag_157\n      jumpi\n        /* \"#utility.yul\":7262:7266   */\n      0x7f\n        /* \"#utility.yul\":7254:7260   */\n      dup3\n        /* \"#utility.yul\":7250:7267   */\n      and\n        /* \"#utility.yul\":7240:7267   */\n      swap2\n      pop\n        /* \"#utility.yul\":7196:7277   */\n    tag_157:\n        /* \"#utility.yul\":7324:7326   */\n      0x20\n        /* \"#utility.yul\":7316:7322   */\n      dup3\n        /* \"#utility.yul\":7313:7327   */\n      lt\n        /* \"#utility.yul\":7293:7311   */\n      dup2\n        /* \"#utility.yul\":7290:7328   */\n      sub\n        /* \"#utility.yul\":7287:7371   */\n      tag_158\n      jumpi\n        /* \"#utility.yul\":7343:7361   */\n      tag_159\n      tag_80\n      jump\t// in\n    tag_159:\n        /* \"#utility.yul\":7287:7371   */\n    tag_158:\n        /* \"#utility.yul\":7108:7377   */\n      pop\n        /* \"#utility.yul\":7057:7377   */\n      swap2\n      swap1\n      pop\n      jump\t// out\n\n    auxdata: 0xa2646970667358221220d4df89df0069e18c05f1b6b7b3039b92f422e874878472b74beb5401fca7350064736f6c63430008180033\n}\n",
				"bytecode": {
					"linkReferences": {},
					"object": "608060405234801561000f575f80fd5b506108268061001d5f395ff3fe608060405234801561000f575f80fd5b506004361061007b575f3560e01c806379f87cdf1161005957806379f87cdf146101015780638d2c44881461011d578063cf266ed014610139578063e2ad54c1146101555761007b565b806308eb803d1461007f578063348682f6146100b55780633db9f55b146100d1575b5f80fd5b610099600480360381019061009491906104cf565b61018e565b6040516100ac97969594939291906105a6565b60405180910390f35b6100cf60048036038101906100ca91906104cf565b610369565b005b6100eb60048036038101906100e691906104cf565b61036d565b6040516100f89190610628565b60405180910390f35b61011b60048036038101906101169190610641565b61038d565b005b6101376004803603810190610132919061066c565b610390565b005b610153600480360381019061014e9190610641565b610396565b005b61016f600480360381019061016a91906104cf565b610399565b6040516101859a999897969594939291906106f9565b60405180910390f35b6001602052815f5260405f20602052805f5260405f205f9150915050805f0180546101b8906107c0565b80601f01602080910402602001604051908101604052809291908181526020018280546101e4906107c0565b801561022f5780601f106102065761010080835404028352916020019161022f565b820191905f5260205f20905b81548152906001019060200180831161021257829003601f168201915b505050505090806001018054610244906107c0565b80601f0160208091040260200160405190810160405280929190818152602001828054610270906107c0565b80156102bb5780601f10610292576101008083540402835291602001916102bb565b820191905f5260205f20905b81548152906001019060200180831161029e57829003601f168201915b5050505050908060020180546102d0906107c0565b80601f01602080910402602001604051908101604052809291908181526020018280546102fc906107c0565b80156103475780601f1061031e57610100808354040283529160200191610347565b820191905f5260205f20905b81548152906001019060200180831161032a57829003601f168201915b5050505050908060030154908060040154908060050154908060060154905087565b5050565b6002602052815f5260405f20602052805f5260405f205f91509150505481565b50565b50505050565b50565b5f602052815f5260405f20602052805f5260405f205f9150915050805f015490806001015490806002015490806003015490806004015490806005015490806006015f9054906101000a900473ffffffffffffffffffffffffffffffffffffffff1690806007015f9054906101000a900473ffffffffffffffffffffffffffffffffffffffff16908060070160149054906101000a900460ff1690806008015490508a565b5f80fd5b5f73ffffffffffffffffffffffffffffffffffffffff82169050919050565b5f61046b82610442565b9050919050565b61047b81610461565b8114610485575f80fd5b50565b5f8135905061049681610472565b92915050565b5f819050919050565b6104ae8161049c565b81146104b8575f80fd5b50565b5f813590506104c9816104a5565b92915050565b5f80604083850312156104e5576104e461043e565b5b5f6104f285828601610488565b9250506020610503858286016104bb565b9150509250929050565b5f81519050919050565b5f82825260208201905092915050565b5f5b83811015610544578082015181840152602081019050610529565b5f8484015250505050565b5f601f19601f8301169050919050565b5f6105698261050d565b6105738185610517565b9350610583818560208601610527565b61058c8161054f565b840191505092915050565b6105a08161049c565b82525050565b5f60e0820190508181035f8301526105be818a61055f565b905081810360208301526105d2818961055f565b905081810360408301526105e6818861055f565b90506105f56060830187610597565b6106026080830186610597565b61060f60a0830185610597565b61061c60c0830184610597565b98975050505050505050565b5f60208201905061063b5f830184610597565b92915050565b5f602082840312156106565761065561043e565b5b5f610663848285016104bb565b91505092915050565b5f805f80608085870312156106845761068361043e565b5b5f610691878288016104bb565b94505060206106a2878288016104bb565b93505060406106b3878288016104bb565b92505060606106c4878288016104bb565b91505092959194509250565b6106d981610461565b82525050565b5f8115159050919050565b6106f3816106df565b82525050565b5f6101408201905061070d5f83018d610597565b61071a602083018c610597565b610727604083018b610597565b610734606083018a610597565b6107416080830189610597565b61074e60a0830188610597565b61075b60c08301876106d0565b61076860e08301866106d0565b6107766101008301856106ea565b610784610120830184610597565b9b9a5050505050505050505050565b7f4e487b71000000000000000000000000000000000000000000000000000000005f52602260045260245ffd5b5f60028204905060018216806107d757607f821691505b6020821081036107ea576107e9610793565b5b5091905056fea2646970667358221220d4df89df0069e18c05f1b6b7b3039b92f422e874878472b74beb5401fca7350064736f6c63430008180033",
					"opcodes": "PUSH1 0x80 PUSH1 0x40 MSTORE CALLVALUE DUP1 ISZERO PUSH2 0xF JUMPI PUSH0 DUP1 REVERT JUMPDEST POP PUSH2 0x826 DUP1 PUSH2 0x1D PUSH0 CODECOPY PUSH0 RETURN INVALID PUSH1 0x80 PUSH1 0x40 MSTORE CALLVALUE DUP1 ISZERO PUSH2 0xF JUMPI PUSH0 DUP1 REVERT JUMPDEST POP PUSH1 0x4 CALLDATASIZE LT PUSH2 0x7B JUMPI PUSH0 CALLDATALOAD PUSH1 0xE0 SHR DUP1 PUSH4 0x79F87CDF GT PUSH2 0x59 JUMPI DUP1 PUSH4 0x79F87CDF EQ PUSH2 0x101 JUMPI DUP1 PUSH4 0x8D2C4488 EQ PUSH2 0x11D JUMPI DUP1 PUSH4 0xCF266ED0 EQ PUSH2 0x139 JUMPI DUP1 PUSH4 0xE2AD54C1 EQ PUSH2 0x155 JUMPI PUSH2 0x7B JUMP JUMPDEST DUP1 PUSH4 0x8EB803D EQ PUSH2 0x7F JUMPI DUP1 PUSH4 0x348682F6 EQ PUSH2 0xB5 JUMPI DUP1 PUSH4 0x3DB9F55B EQ PUSH2 0xD1 JUMPI JUMPDEST PUSH0 DUP1 REVERT JUMPDEST PUSH2 0x99 PUSH1 0x4 DUP1 CALLDATASIZE SUB DUP2 ADD SWAP1 PUSH2 0x94 SWAP2 SWAP1 PUSH2 0x4CF JUMP JUMPDEST PUSH2 0x18E JUMP JUMPDEST PUSH1 0x40 MLOAD PUSH2 0xAC SWAP8 SWAP7 SWAP6 SWAP5 SWAP4 SWAP3 SWAP2 SWAP1 PUSH2 0x5A6 JUMP JUMPDEST PUSH1 0x40 MLOAD DUP1 SWAP2 SUB SWAP1 RETURN JUMPDEST PUSH2 0xCF PUSH1 0x4 DUP1 CALLDATASIZE SUB DUP2 ADD SWAP1 PUSH2 0xCA SWAP2 SWAP1 PUSH2 0x4CF JUMP JUMPDEST PUSH2 0x369 JUMP JUMPDEST STOP JUMPDEST PUSH2 0xEB PUSH1 0x4 DUP1 CALLDATASIZE SUB DUP2 ADD SWAP1 PUSH2 0xE6 SWAP2 SWAP1 PUSH2 0x4CF JUMP JUMPDEST PUSH2 0x36D JUMP JUMPDEST PUSH1 0x40 MLOAD PUSH2 0xF8 SWAP2 SWAP1 PUSH2 0x628 JUMP JUMPDEST PUSH1 0x40 MLOAD DUP1 SWAP2 SUB SWAP1 RETURN JUMPDEST PUSH2 0x11B PUSH1 0x4 DUP1 CALLDATASIZE SUB DUP2 ADD SWAP1 PUSH2 0x116 SWAP2 SWAP1 PUSH2 0x641 JUMP JUMPDEST PUSH2 0x38D JUMP JUMPDEST STOP JUMPDEST PUSH2 0x137 PUSH1 0x4 DUP1 CALLDATASIZE SUB DUP2 ADD SWAP1 PUSH2 0x132 SWAP2 SWAP1 PUSH2 0x66C JUMP JUMPDEST PUSH2 0x390 JUMP JUMPDEST STOP JUMPDEST PUSH2 0x153 PUSH1 0x4 DUP1 CALLDATASIZE SUB DUP2 ADD SWAP1 PUSH2 0x14E SWAP2 SWAP1 PUSH2 0x641 JUMP JUMPDEST PUSH2 0x396 JUMP JUMPDEST STOP JUMPDEST PUSH2 0x16F PUSH1 0x4 DUP1 CALLDATASIZE SUB DUP2 ADD SWAP1 PUSH2 0x16A SWAP2 SWAP1 PUSH2 0x4CF JUMP JUMPDEST PUSH2 0x399 JUMP JUMPDEST PUSH1 0x40 MLOAD PUSH2 0x185 SWAP11 SWAP10 SWAP9 SWAP8 SWAP7 SWAP6 SWAP5 SWAP4 SWAP3 SWAP2 SWAP1 PUSH2 0x6F9 JUMP JUMPDEST PUSH1 0x40 MLOAD DUP1 SWAP2 SUB SWAP1 RETURN JUMPDEST PUSH1 0x1 PUSH1 0x20 MSTORE DUP2 PUSH0 MSTORE PUSH1 0x40 PUSH0 KECCAK256 PUSH1 0x20 MSTORE DUP1 PUSH0 MSTORE PUSH1 0x40 PUSH0 KECCAK256 PUSH0 SWAP2 POP SWAP2 POP POP DUP1 PUSH0 ADD DUP1 SLOAD PUSH2 0x1B8 SWAP1 PUSH2 0x7C0 JUMP JUMPDEST DUP1 PUSH1 0x1F ADD PUSH1 0x20 DUP1 SWAP2 DIV MUL PUSH1 0x20 ADD PUSH1 0x40 MLOAD SWAP1 DUP2 ADD PUSH1 0x40 MSTORE DUP1 SWAP3 SWAP2 SWAP1 DUP2 DUP2 MSTORE PUSH1 0x20 ADD DUP3 DUP1 SLOAD PUSH2 0x1E4 SWAP1 PUSH2 0x7C0 JUMP JUMPDEST DUP1 ISZERO PUSH2 0x22F JUMPI DUP1 PUSH1 0x1F LT PUSH2 0x206 JUMPI PUSH2 0x100 DUP1 DUP4 SLOAD DIV MUL DUP4 MSTORE SWAP2 PUSH1 0x20 ADD SWAP2 PUSH2 0x22F JUMP JUMPDEST DUP3 ADD SWAP2 SWAP1 PUSH0 MSTORE PUSH1 0x20 PUSH0 KECCAK256 SWAP1 JUMPDEST DUP2 SLOAD DUP2 MSTORE SWAP1 PUSH1 0x1 ADD SWAP1 PUSH1 0x20 ADD DUP1 DUP4 GT PUSH2 0x212 JUMPI DUP3 SWAP1 SUB PUSH1 0x1F AND DUP3 ADD SWAP2 JUMPDEST POP POP POP POP POP SWAP1 DUP1 PUSH1 0x1 ADD DUP1 SLOAD PUSH2 0x244 SWAP1 PUSH2 0x7C0 JUMP JUMPDEST DUP1 PUSH1 0x1F ADD PUSH1 0x20 DUP1 SWAP2 DIV MUL PUSH1 0x20 ADD PUSH1 0x40 MLOAD SWAP1 DUP2 ADD PUSH1 0x40 MSTORE DUP1 SWAP3 SWAP2 SWAP1 DUP2 DUP2 MSTORE PUSH1 0x20 ADD DUP3 DUP1 SLOAD PUSH2 0x270 SWAP1 PUSH2 0x7C0 JUMP JUMPDEST DUP1 ISZERO PUSH2 0x2BB JUMPI DUP1 PUSH1 0x1F LT PUSH2 0x292 JUMPI PUSH2 0x100 DUP1 DUP4 SLOAD DIV MUL DUP4 MSTORE SWAP2 PUSH1 0x20 ADD SWAP2 PUSH2 0x2BB JUMP JUMPDEST DUP3 ADD SWAP2 SWAP1 PUSH0 MSTORE PUSH1 0x20 PUSH0 KECCAK256 SWAP1 JUMPDEST DUP2 SLOAD DUP2 MSTORE SWAP1 PUSH1 0x1 ADD SWAP1 PUSH1 0x20 ADD DUP1 DUP4 GT PUSH2 0x29E JUMPI DUP3 SWAP1 SUB PUSH1 0x1F AND DUP3 ADD SWAP2 JUMPDEST POP POP POP POP POP SWAP1 DUP1 PUSH1 0x2 ADD DUP1 SLOAD PUSH2 0x2D0 SWAP1 PUSH2 0x7C0 JUMP JUMPDEST DUP1 PUSH1 0x1F ADD PUSH1 0x20 DUP1 SWAP2 DIV MUL PUSH1 0x20 ADD PUSH1 0x40 MLOAD SWAP1 DUP2 ADD PUSH1 0x40 MSTORE DUP1 SWAP3 SWAP2 SWAP1 DUP2 DUP2 MSTORE PUSH1 0x20 ADD DUP3 DUP1 SLOAD PUSH2 0x2FC SWAP1 PUSH2 0x7C0 JUMP JUMPDEST DUP1 ISZERO PUSH2 0x347 JUMPI DUP1 PUSH1 0x1F LT PUSH2 0x31E JUMPI PUSH2 0x100 DUP1 DUP4 SLOAD DIV MUL DUP4 MSTORE SWAP2 PUSH1 0x20 ADD SWAP2 PUSH2 0x347 JUMP JUMPDEST DUP3 ADD SWAP2 SWAP1 PUSH0 MSTORE PUSH1 0x20 PUSH0 KECCAK256 SWAP1 JUMPDEST DUP2 SLOAD DUP2 MSTORE SWAP1 PUSH1 0x1 ADD SWAP1 PUSH1 0x20 ADD DUP1 DUP4 GT PUSH2 0x32A JUMPI DUP3 SWAP1 SUB PUSH1 0x1F AND DUP3 ADD SWAP2 JUMPDEST POP POP POP POP POP SWAP1 DUP1 PUSH1 0x3 ADD SLOAD SWAP1 DUP1 PUSH1 0x4 ADD SLOAD SWAP1 DUP1 PUSH1 0x5 ADD SLOAD SWAP1 DUP1 PUSH1 0x6 ADD SLOAD SWAP1 POP DUP8 JUMP JUMPDEST POP POP JUMP JUMPDEST PUSH1 0x2 PUSH1 0x20 MSTORE DUP2 PUSH0 MSTORE PUSH1 0x40 PUSH0 KECCAK256 PUSH1 0x20 MSTORE DUP1 PUSH0 MSTORE PUSH1 0x40 PUSH0 KECCAK256 PUSH0 SWAP2 POP SWAP2 POP POP SLOAD DUP2 JUMP JUMPDEST POP JUMP JUMPDEST POP POP POP POP JUMP JUMPDEST POP JUMP JUMPDEST PUSH0 PUSH1 0x20 MSTORE DUP2 PUSH0 MSTORE PUSH1 0x40 PUSH0 KECCAK256 PUSH1 0x20 MSTORE DUP1 PUSH0 MSTORE PUSH1 0x40 PUSH0 KECCAK256 PUSH0 SWAP2 POP SWAP2 POP POP DUP1 PUSH0 ADD SLOAD SWAP1 DUP1 PUSH1 0x1 ADD SLOAD SWAP1 DUP1 PUSH1 0x2 ADD SLOAD SWAP1 DUP1 PUSH1 0x3 ADD SLOAD SWAP1 DUP1 PUSH1 0x4 ADD SLOAD SWAP1 DUP1 PUSH1 0x5 ADD SLOAD SWAP1 DUP1 PUSH1 0x6 ADD PUSH0 SWAP1 SLOAD SWAP1 PUSH2 0x100 EXP SWAP1 DIV PUSH20 0xFFFFFFFFFFFFFFFFFFFFFFFFFFFFFFFFFFFFFFFF AND SWAP1 DUP1 PUSH1 0x7 ADD PUSH0 SWAP1 SLOAD SWAP1 PUSH2 0x100 EXP SWAP1 DIV PUSH20 0xFFFFFFFFFFFFFFFFFFFFFFFFFFFFFFFFFFFFFFFF AND SWAP1 DUP1 PUSH1 0x7 ADD PUSH1 0x14 SWAP1 SLOAD SWAP1 PUSH2 0x100 EXP SWAP1 DIV PUSH1 0xFF AND SWAP1 DUP1 PUSH1 0x8 ADD SLOAD SWAP1 POP DUP11 JUMP JUMPDEST PUSH0 DUP1 REVERT JUMPDEST PUSH0 PUSH20 0xFFFFFFFFFFFFFFFFFFFFFFFFFFFFFFFFFFFFFFFF DUP3 AND SWAP1 POP SWAP2 SWAP1 POP JUMP JUMPDEST PUSH0 PUSH2 0x46B DUP3 PUSH2 0x442 JUMP JUMPDEST SWAP1 POP SWAP2 SWAP1 POP JUMP JUMPDEST PUSH2 0x47B DUP2 PUSH2 0x461 JUMP JUMPDEST DUP2 EQ PUSH2 0x485 JUMPI PUSH0 DUP1 REVERT JUMPDEST POP JUMP JUMPDEST PUSH0 DUP2 CALLDATALOAD SWAP1 POP PUSH2 0x496 DUP2 PUSH2 0x472 JUMP JUMPDEST SWAP3 SWAP2 POP POP JUMP JUMPDEST PUSH0 DUP2 SWAP1 POP SWAP2 SWAP1 POP JUMP JUMPDEST PUSH2 0x4AE DUP2 PUSH2 0x49C JUMP JUMPDEST DUP2 EQ PUSH2 0x4B8 JUMPI PUSH0 DUP1 REVERT JUMPDEST POP JUMP JUMPDEST PUSH0 DUP2 CALLDATALOAD SWAP1 POP PUSH2 0x4C9 DUP2 PUSH2 0x4A5 JUMP JUMPDEST SWAP3 SWAP2 POP POP JUMP JUMPDEST PUSH0 DUP1 PUSH1 0x40 DUP4 DUP6 SUB SLT ISZERO PUSH2 0x4E5 JUMPI PUSH2 0x4E4 PUSH2 0x43E JUMP JUMPDEST JUMPDEST PUSH0 PUSH2 0x4F2 DUP6 DUP3 DUP7 ADD PUSH2 0x488 JUMP JUMPDEST SWAP3 POP POP PUSH1 0x20 PUSH2 0x503 DUP6 DUP3 DUP7 ADD PUSH2 0x4BB JUMP JUMPDEST SWAP2 POP POP SWAP3 POP SWAP3 SWAP1 POP JUMP JUMPDEST PUSH0 DUP2 MLOAD SWAP1 POP SWAP2 SWAP1 POP JUMP JUMPDEST PUSH0 DUP3 DUP3 MSTORE PUSH1 0x20 DUP3 ADD SWAP1 POP SWAP3 SWAP2 POP POP JUMP JUMPDEST PUSH0 JUMPDEST DUP4 DUP2 LT ISZERO PUSH2 0x544 JUMPI DUP1 DUP3 ADD MLOAD DUP2 DUP5 ADD MSTORE PUSH1 0x20 DUP2 ADD SWAP1 POP PUSH2 0x529 JUMP JUMPDEST PUSH0 DUP5 DUP5 ADD MSTORE POP POP POP POP JUMP JUMPDEST PUSH0 PUSH1 0x1F NOT PUSH1 0x1F DUP4 ADD AND SWAP1 POP SWAP2 SWAP1 POP JUMP JUMPDEST PUSH0 PUSH2 0x569 DUP3 PUSH2 0x50D JUMP JUMPDEST PUSH2 0x573 DUP2 DUP6 PUSH2 0x517 JUMP JUMPDEST SWAP4 POP PUSH2 0x583 DUP2 DUP6 PUSH1 0x20 DUP7 ADD PUSH2 0x527 JUMP JUMPDEST PUSH2 0x58C DUP2 PUSH2 0x54F JUMP JUMPDEST DUP5 ADD SWAP2 POP POP SWAP3 SWAP2 POP POP JUMP JUMPDEST PUSH2 0x5A0 DUP2 PUSH2 0x49C JUMP JUMPDEST DUP3 MSTORE POP POP JUMP JUMPDEST PUSH0 PUSH1 0xE0 DUP3 ADD SWAP1 POP DUP2 DUP2 SUB PUSH0 DUP4 ADD MSTORE PUSH2 0x5BE DUP2 DUP11 PUSH2 0x55F JUMP JUMPDEST SWAP1 POP DUP2 DUP2 SUB PUSH1 0x20 DUP4 ADD MSTORE PUSH2 0x5D2 DUP2 DUP10 PUSH2 0x55F JUMP JUMPDEST SWAP1 POP DUP2 DUP2 SUB PUSH1 0x40 DUP4 ADD MSTORE PUSH2 0x5E6 DUP2 DUP9 PUSH2 0x55F JUMP JUMPDEST SWAP1 POP PUSH2 0x5F5 PUSH1 0x60 DUP4 ADD DUP8 PUSH2 0x597 JUMP JUMPDEST PUSH2 0x602 PUSH1 0x80 DUP4 ADD DUP7 PUSH2 0x597 JUMP JUMPDEST PUSH2 0x60F PUSH1 0xA0 DUP4 ADD DUP6 PUSH2 0x597 JUMP JUMPDEST PUSH2 0x61C PUSH1 0xC0 DUP4 ADD DUP5 PUSH2 0x597 JUMP JUMPDEST SWAP9 SWAP8 POP POP POP POP POP POP POP POP JUMP JUMPDEST PUSH0 PUSH1 0x20 DUP3 ADD SWAP1 POP PUSH2 0x63B PUSH0 DUP4 ADD DUP5 PUSH2 0x597 JUMP JUMPDEST SWAP3 SWAP2 POP POP JUMP JUMPDEST PUSH0 PUSH1 0x20 DUP3 DUP5 SUB SLT ISZERO PUSH2 0x656 JUMPI PUSH2 0x655 PUSH2 0x43E JUMP JUMPDEST JUMPDEST PUSH0 PUSH2 0x663 DUP5 DUP3 DUP6 ADD PUSH2 0x4BB JUMP JUMPDEST SWAP2 POP POP SWAP3 SWAP2 POP POP JUMP JUMPDEST PUSH0 DUP1 PUSH0 DUP1 PUSH1 0x80 DUP6 DUP8 SUB SLT ISZERO PUSH2 0x684 JUMPI PUSH2 0x683 PUSH2 0x43E JUMP JUMPDEST JUMPDEST PUSH0 PUSH2 0x691 DUP8 DUP3 DUP9 ADD PUSH2 0x4BB JUMP JUMPDEST SWAP5 POP POP PUSH1 0x20 PUSH2 0x6A2 DUP8 DUP3 DUP9 ADD PUSH2 0x4BB JUMP JUMPDEST SWAP4 POP POP PUSH1 0x40 PUSH2 0x6B3 DUP8 DUP3 DUP9 ADD PUSH2 0x4BB JUMP JUMPDEST SWAP3 POP POP PUSH1 0x60 PUSH2 0x6C4 DUP8 DUP3 DUP9 ADD PUSH2 0x4BB JUMP JUMPDEST SWAP2 POP POP SWAP3 SWAP6 SWAP2 SWAP5 POP SWAP3 POP JUMP JUMPDEST PUSH2 0x6D9 DUP2 PUSH2 0x461 JUMP JUMPDEST DUP3 MSTORE POP POP JUMP JUMPDEST PUSH0 DUP2 ISZERO ISZERO SWAP1 POP SWAP2 SWAP1 POP JUMP JUMPDEST PUSH2 0x6F3 DUP2 PUSH2 0x6DF JUMP JUMPDEST DUP3 MSTORE POP POP JUMP JUMPDEST PUSH0 PUSH2 0x140 DUP3 ADD SWAP1 POP PUSH2 0x70D PUSH0 DUP4 ADD DUP14 PUSH2 0x597 JUMP JUMPDEST PUSH2 0x71A PUSH1 0x20 DUP4 ADD DUP13 PUSH2 0x597 JUMP JUMPDEST PUSH2 0x727 PUSH1 0x40 DUP4 ADD DUP12 PUSH2 0x597 JUMP JUMPDEST PUSH2 0x734 PUSH1 0x60 DUP4 ADD DUP11 PUSH2 0x597 JUMP JUMPDEST PUSH2 0x741 PUSH1 0x80 DUP4 ADD DUP10 PUSH2 0x597 JUMP JUMPDEST PUSH2 0x74E PUSH1 0xA0 DUP4 ADD DUP9 PUSH2 0x597 JUMP JUMPDEST PUSH2 0x75B PUSH1 0xC0 DUP4 ADD DUP8 PUSH2 0x6D0 JUMP JUMPDEST PUSH2 0x768 PUSH1 0xE0 DUP4 ADD DUP7 PUSH2 0x6D0 JUMP JUMPDEST PUSH2 0x776 PUSH2 0x100 DUP4 ADD DUP6 PUSH2 0x6EA JUMP JUMPDEST PUSH2 0x784 PUSH2 0x120 DUP4 ADD DUP5 PUSH2 0x597 JUMP JUMPDEST SWAP12 SWAP11 POP POP POP POP POP POP POP POP POP POP POP JUMP JUMPDEST PUSH32 0x4E487B7100000000000000000000000000000000000000000000000000000000 PUSH0 MSTORE PUSH1 0x22 PUSH1 0x4 MSTORE PUSH1 0x24 PUSH0 REVERT JUMPDEST PUSH0 PUSH1 0x2 DUP3 DIV SWAP1 POP PUSH1 0x1 DUP3 AND DUP1 PUSH2 0x7D7 JUMPI PUSH1 0x7F DUP3 AND SWAP2 POP JUMPDEST PUSH1 0x20 DUP3 LT DUP2 SUB PUSH2 0x7EA JUMPI PUSH2 0x7E9 PUSH2 0x793 JUMP JUMPDEST JUMPDEST POP SWAP2 SWAP1 POP JUMP INVALID LOG2 PUSH5 0x6970667358 0x22 SLT KECCAK256 0xD4 0xDF DUP10 0xDF STOP PUSH10 0xE18C05F1B6B7B3039B92 DELEGATECALL 0x22 0xE8 PUSH21 0x878472B74BEB5401FCA7350064736F6C6343000818 STOP CALLER "
				},
				"gasEstimates": {
					"creation": {
						"codeDepositCost": "417200",
						"executionCost": "453",
						"totalCost": "417653"
					},
					"external": {
						"bit(address,uint256)": "643",
						"finishAuction(uint256)": "445",
						"interruptAuction(uint256)": "401",
						"lockedCash(address,uint256)": "infinite",
						"startAuction(uint256,uint256,uint256,uint256)": "infinite",
						"usersAuctions(address,uint256)": "infinite",
						"usersNFTs(address,uint256)": "infinite"
					},
					"internal": {
						"_bit(address,address,uint256,uint256)": "infinite",
						"_finishAuction(address,uint256)": "infinite",
						"_interruptAuction(address,uint256)": "infinite",
						"_startAuction(address,uint256,uint256,uint256,uint256)": "infinite"
					}
				},
				"methodIdentifiers": {
					"bit(address,uint256)": "348682f6",
					"finishAuction(uint256)": "cf266ed0",
					"interruptAuction(uint256)": "79f87cdf",
					"lockedCash(address,uint256)": "3db9f55b",
					"startAuction(uint256,uint256,uint256,uint256)": "8d2c4488",
					"usersAuctions(address,uint256)": "e2ad54c1",
					"usersNFTs(address,uint256)": "08eb803d"
				}
			},
			"storageLayout": {
				"storage": [
					{
						"astId": 44,
						"contract": "Competition/Tokens/Auc.sol:Auc",
						"label": "usersAuctions",
						"offset": 0,
						"slot": "0",
						"type": "t_mapping(t_address,t_mapping(t_uint256,t_struct(Auction)22_storage))"
					},
					{
						"astId": 51,
						"contract": "Competition/Tokens/Auc.sol:Auc",
						"label": "usersNFTs",
						"offset": 0,
						"slot": "1",
						"type": "t_mapping(t_address,t_mapping(t_uint256,t_struct(NFT)37_storage))"
					},
					{
						"astId": 57,
						"contract": "Competition/Tokens/Auc.sol:Auc",
						"label": "lockedCash",
						"offset": 0,
						"slot": "2",
						"type": "t_mapping(t_address,t_mapping(t_uint256,t_uint256))"
					}
				],
				"types": {
					"t_address": {
						"encoding": "inplace",
						"label": "address",
						"numberOfBytes": "20"
					},
					"t_bool": {
						"encoding": "inplace",
						"label": "bool",
						"numberOfBytes": "1"
					},
					"t_mapping(t_address,t_mapping(t_uint256,t_struct(Auction)22_storage))": {
						"encoding": "mapping",
						"key": "t_address",
						"label": "mapping(address => mapping(uint256 => struct Auc.Auction))",
						"numberOfBytes": "32",
						"value": "t_mapping(t_uint256,t_struct(Auction)22_storage)"
					},
					"t_mapping(t_address,t_mapping(t_uint256,t_struct(NFT)37_storage))": {
						"encoding": "mapping",
						"key": "t_address",
						"label": "mapping(address => mapping(uint256 => struct Auc.NFT))",
						"numberOfBytes": "32",
						"value": "t_mapping(t_uint256,t_struct(NFT)37_storage)"
					},
					"t_mapping(t_address,t_mapping(t_uint256,t_uint256))": {
						"encoding": "mapping",
						"key": "t_address",
						"label": "mapping(address => mapping(uint256 => uint256))",
						"numberOfBytes": "32",
						"value": "t_mapping(t_uint256,t_uint256)"
					},
					"t_mapping(t_uint256,t_struct(Auction)22_storage)": {
						"encoding": "mapping",
						"key": "t_uint256",
						"label": "mapping(uint256 => struct Auc.Auction)",
						"numberOfBytes": "32",
						"value": "t_struct(Auction)22_storage"
					},
					"t_mapping(t_uint256,t_struct(NFT)37_storage)": {
						"encoding": "mapping",
						"key": "t_uint256",
						"label": "mapping(uint256 => struct Auc.NFT)",
						"numberOfBytes": "32",
						"value": "t_struct(NFT)37_storage"
					},
					"t_mapping(t_uint256,t_uint256)": {
						"encoding": "mapping",
						"key": "t_uint256",
						"label": "mapping(uint256 => uint256)",
						"numberOfBytes": "32",
						"value": "t_uint256"
					},
					"t_string_storage": {
						"encoding": "bytes",
						"label": "string",
						"numberOfBytes": "32"
					},
					"t_struct(Auction)22_storage": {
						"encoding": "inplace",
						"label": "struct Auc.Auction",
						"members": [
							{
								"astId": 3,
								"contract": "Competition/Tokens/Auc.sol:Auc",
								"label": "tokenId",
								"offset": 0,
								"slot": "0",
								"type": "t_uint256"
							},
							{
								"astId": 5,
								"contract": "Competition/Tokens/Auc.sol:Auc",
								"label": "timeStarted",
								"offset": 0,
								"slot": "1",
								"type": "t_uint256"
							},
							{
								"astId": 7,
								"contract": "Competition/Tokens/Auc.sol:Auc",
								"label": "duration",
								"offset": 0,
								"slot": "2",
								"type": "t_uint256"
							},
							{
								"astId": 9,
								"contract": "Competition/Tokens/Auc.sol:Auc",
								"label": "price",
								"offset": 0,
								"slot": "3",
								"type": "t_uint256"
							},
							{
								"astId": 11,
								"contract": "Competition/Tokens/Auc.sol:Auc",
								"label": "minPrice",
								"offset": 0,
								"slot": "4",
								"type": "t_uint256"
							},
							{
								"astId": 13,
								"contract": "Competition/Tokens/Auc.sol:Auc",
								"label": "maxPrice",
								"offset": 0,
								"slot": "5",
								"type": "t_uint256"
							},
							{
								"astId": 15,
								"contract": "Competition/Tokens/Auc.sol:Auc",
								"label": "winner",
								"offset": 0,
								"slot": "6",
								"type": "t_address"
							},
							{
								"astId": 17,
								"contract": "Competition/Tokens/Auc.sol:Auc",
								"label": "owner",
								"offset": 0,
								"slot": "7",
								"type": "t_address"
							},
							{
								"astId": 19,
								"contract": "Competition/Tokens/Auc.sol:Auc",
								"label": "lockedDuringAuction",
								"offset": 20,
								"slot": "7",
								"type": "t_bool"
							},
							{
								"astId": 21,
								"contract": "Competition/Tokens/Auc.sol:Auc",
								"label": "timeFinished",
								"offset": 0,
								"slot": "8",
								"type": "t_uint256"
							}
						],
						"numberOfBytes": "288"
					},
					"t_struct(NFT)37_storage": {
						"encoding": "inplace",
						"label": "struct Auc.NFT",
						"members": [
							{
								"astId": 24,
								"contract": "Competition/Tokens/Auc.sol:Auc",
								"label": "name",
								"offset": 0,
								"slot": "0",
								"type": "t_string_storage"
							},
							{
								"astId": 26,
								"contract": "Competition/Tokens/Auc.sol:Auc",
								"label": "description",
								"offset": 0,
								"slot": "1",
								"type": "t_string_storage"
							},
							{
								"astId": 28,
								"contract": "Competition/Tokens/Auc.sol:Auc",
								"label": "image",
								"offset": 0,
								"slot": "2",
								"type": "t_string_storage"
							},
							{
								"astId": 30,
								"contract": "Competition/Tokens/Auc.sol:Auc",
								"label": "price",
								"offset": 0,
								"slot": "3",
								"type": "t_uint256"
							},
							{
								"astId": 32,
								"contract": "Competition/Tokens/Auc.sol:Auc",
								"label": "amountReleased",
								"offset": 0,
								"slot": "4",
								"type": "t_uint256"
							},
							{
								"astId": 34,
								"contract": "Competition/Tokens/Auc.sol:Auc",
								"label": "amountToSale",
								"offset": 0,
								"slot": "5",
								"type": "t_uint256"
							},
							{
								"astId": 36,
								"contract": "Competition/Tokens/Auc.sol:Auc",
								"label": "timeCreated",
								"offset": 0,
								"slot": "6",
								"type": "t_uint256"
							}
						],
						"numberOfBytes": "224"
					},
					"t_uint256": {
						"encoding": "inplace",
						"label": "uint256",
						"numberOfBytes": "32"
					}
				}
			},
			"userdoc": {
				"kind": "user",
				"methods": {},
				"version": 1
			}
		}
	}
}